:020000040000FA
:0600000002011D022B4F5E
:03002B0002240F9D
:030033000223E7BE
:03005300022BC2BB
:03006B0002238EDF
:03007B000223B6A7
:100083000229BBE5C754F84401F5C77901220000F2
:100093000080FB120086B90003020107E47921788E
:1000A30008B800028004F709D8FCE479297802B87B
:1000B30000028004F709D8FCE490028178007908F3
:1000C3008002F0A3D8FCD9FA781A90014D7A01BACC
:1000D30000028007E493A3F608DAF9900A80AA8263
:1000E300AB8390014E786579098015E493A3AC82C4
:1000F300AD838A828B83F0A3AA82AB838C828D83A8
:10010300D8E9D9E77582697583AA740412012F753A
:100113008291758300740012012F75D00075813FA1
:10012300751881751902759F00020096C09FF59F8F
:10013300E473D09F22D083D082C09FE493C0E07445
:100143000193C0E0740293F59F2201B209B809BE7E
:1001530009C409CA09D009D609DC09E209E809EE8C
:1001630009F409FA09000A060A0C0A68FFFF037B6F
:10017300034CCD6C03AB0336567600680402CB47C1
:10018300A202180400058BC1010C04000000000347
:100193007F060CC92C979797038903264666006C44
:1001A300022000024004000000000244040000009A
:1001B3000002480400000000024C0400000000029A
:1001C3005004000000000254040000000002580420
:1001D30000000000025C040000000002BC040000F8
:1001E300000001EC0400004000037F060CC92C97BB
:1001F30097970402030D355D040904872D353D00EF
:10020300A3010000000001078601FE074105F1205C
:10021300283038077E01300746019A074704F12842
:100223003038076C04F1283038021602000101B29D
:1002330002FFFF0190040923A135016A02060001B0
:10024300600800000000000000000060044000009F
:10025300000162020000006004004000000B095628
:10026300756C7475726545676705122F013F01024E
:100273000A000201061302454501020304050607AD
:1002830008090A0B0C0D0E0F1045676700D007E82D
:1002930003E80370110100E803E803D00760EA2ACA
:1002A30000880C0000BE0CCA0CD00CD60CDC0C125F
:1002B300416363656C2E2044617461000A4163638A
:1002C300656C2E20436F6E662E000A0A41636365D8
:1002D3006C2E20506572696F640002548C0100001B
:1002E3003A8C02508C010000E40B10388A010000A4
:1002F3005003024C8C0300005303024E8C01000098
:10030300E50B02508C010000F10B10488A0300003A
:100313005903024E8C010000F20B02508C010000C5
:10032300FF0B10588A030000000C024E8C010000E2
:10033300010C124261726F6D2E2044617461000AD8
:100343004261726F6D2E20436F6E662E0002426112
:10035300726F6D2E2043616C6962722E000A0A422D
:1003630061726F6D2E20506572696F640002548C48
:10037300010000198C02508C010000670C10888A60
:100383000100005A03024C8C0300005E03024E8CF2
:10039300010000680C02508C010000740C10988A54
:1003A3000300006403024E8C010000750C02508CA4
:1003B300010000920C10B88A030000930C024E8CCB
:1003C300010000940C02508C010000820C10A88ADA
:1003D3000100006503024C8C0300007503024E8C80
:1003E300010000830C12436F6E6E2E205061726108
:1003F3006D730008436F6E6E2E20506172616D73D2
:10040300205265710008446973636F6E6E6563748F
:10041300205265710002548C010000378C02508C0D
:100423000100001A0D10188A0100007D03024C8C94
:100433000300008303024E8C0100001B0D02508C4D
:10044300010000280D10088A0200008903024E8C67
:10045300010000290D02508C0100003A0D10F889AB
:100463000200009103024E8C0100003B0D020202C8
:100473003132333435363738393031320002020203
:10048300020202010D000000100102548C01000061
:10049300258C02508C010000A20D02728C01000019
:1004A300920302508C010000A30D026E8C01000028
:1004B300948B02508C010000A40D026C8C0100008F
:1004C300A50D02508C010000B30D026A8C010000DF
:1004D3003E8B02508C010000B40D02688C010000B9
:1004E300BD8B02508C010000B20D02648C01000030
:1004F300648B02508C010000B50D02628C01000078
:10050300D98702508C010000B60D02608C010000F7
:10051300C88A02508C010000B70D025E8C010000F6
:10052300B80D12447331386232302E204461746145
:10053300000A447331386232302E20436F6E662EC8
:10054300000AD007447331386232302E205065726E
:10055300696F640002548C010000228C02508C01EC
:100563000000570E10C8890100009C03024C8C0345
:1005730000009E03024E8C010000580E02508C01B5
:100583000000660E10B889030000A403024E8C011C
:100593000000670E02508C010000760E10A889033C
:1005A3000000770E024E8C010000790E01E803056E
:1005B3003F100A124779726F2044617461000A4741
:1005C30079726F20436F6E662E000A0A4779726F45
:1005D30020506572696F640002548C0100001C8C0A
:1005E30002508C010000E80E1088890100005F04AE
:1005F300024C8C0300006504024E8C010000E90EDE
:1006030002508C010000F30E1078890300006B0484
:10061300024E8C010000F40E02508C010000FF0E0C
:10062300106889030000000F024E8C010000010FC7
:1006330001030080700061801248756D69642E208B
:1006430044617461000A48756D69642E20436F6EBE
:10065300662E000AD00748756D69642E20506572B6
:10066300696F640002548C0100002B8C02508C01D2
:1006730000006D0F104889010000D004024C8C0368
:100683000000D404024E8C0100006E0F02508C0156
:1006930000007A0F103889030000DA04024E8C013F
:1006A30000007B0F02508C010000880F1028890383
:1006B3000000890F024E8C0100008B0F0148125479
:1006C300656D702E2044617461000A54656D702E4F
:1006D30020436F6E662E000A1E54656D702E2050E7
:1006E3006572696F640002548C010000318C025002
:1006F3008C010000F30F100889010000DC04024C98
:100703008C030000E004024E8C010000F40F025041
:100713008C010000FF0F10F888030000E604024E6E
:100723008C010000001002508C0100000C1010E836
:10073300880300000D10024E8C0100000E10124DB4
:1007430061676E2E2044617461000A4D61676E2EED
:1007530020436F6E662E000A0A4D61676E2E20508D
:100763006572696F640002548C0100001F8C025093
:100773008C010000731010C888010000E704024CCC
:100783008C030000ED04024E8C0100007410025033
:100793008C0100007F1010B888030000F304024EA0
:1007A3008C010000801002508C0100008C1010A8F6
:1007B300880300008D10024E8C0100008E10124D34
:1007C3007075363035302E2044617461000A4D70E7
:1007D30075363035302E20436F6E662E000AC80002
:1007E3004D7075363035302E20506572696F640058
:1007F30002548C0100003D8C02508C010000F31068
:10080300108888010000F604024C8C0300000405E4
:10081300024E8C010000F41002508C010000021102
:100823001078880300000A05024E8C0100000311B2
:1008330002508C010000121110688803000013118C
:10084300024E8C0100001511FF00013075030201F7
:10085300060000000000000000000000000000008F
:1008630000000000000000000000000000FFFF0681
:1008730000800CE803104B65792050726573732078
:1008830053746174650002548C010000288C02507B
:100893008C010000AA11025C8C000000BA05024C16
:1008A3008C030000BB05024E8C010000AB11FF005E
:1008B30000B4000028002800283075A000A000A084
:1008C30000A00000080008E001F000100010001074
:1008D30000100010001000500050005000100010D5
:1008E30000D0070000000000000F000100050030E9
:1008F3007507001000010081FF00000000FF2A13AC
:1009030048133013FF02020208025000A000000047
:10091300E80302548C0100002E8C02508C0100006D
:100923003A12024A8C010000F30502508C010000C8
:100933003B1202488C010000090602508C010000A2
:100943003C1202468C0100000B0602508C01000091
:100953003D1202448C0800000C0602508C0100007A
:100963003E1202428C0100003F12FF0100FF2002F1
:10097300548C010000348C02508C010000A312023D
:10098300408C0000000000024C8C0300005906005C
:10099300190019001900190019001900190019008C
:1009A300190019001900190019941BAC1B8E1B1296
:1009B3000138F8C20312013844C3031201389AC341
:1009C300031201383FC403120138F3C40312013880
:1009D30012C50312013831C5031201385FC5031272
:1009E300013892C5031201380BC60312013891C6B0
:1009F3000312013831C703120138F6C70312013855
:100A030028C8031201385DC8031201388BC80312CA
:100A1300013899F202120138B8F202120138DBF2FE
:100A23000212013802F30212013829F302120138CB
:100A330050F30212013877F3021201389AF30212CB
:100A43000138BDF302120138E0F30212013803F456
:100A53000212013835F40212013858F40212013837
:100A630082F4021201381EF50212013843F5021214
:100A7300013868F5021201388DF502120138B2F51A
:100A830002120138D7F502120138FCF502120138BF
:100A930023F60212013861F6021201388DF60212B2
:100AA3000138B9F602120138DEF60212013817F7DF
:100AB300021201383EF70212013877F702120138A9
:100AC3009EF702120138D7F702120138FEF702121D
:100AD300013823F80212013848F80212013886F867
:100AE30002120138A9F802120138D3F802120138B0
:100AF300B2F9021201385AFB02120138AAFB0212A0
:100B03000138D7FC02120138F6FC0212013819FD34
:100B1300021201388DA603120138A2A6031201386E
:100B2300FAA60312013861A703120138A9A7031219
:100B330001381FA8031201384EA8031201385CA81C
:100B430003120138C0A803120138FEA803120138AA
:100B530019A903120138B1A9031201385AAA0312C1
:100B63000138DDAA0312013816AB03120138A1AB19
:100B730003120138F8AB0312013857AC03120138E2
:100B830069AC031201388FAC0312013898AC03121D
:100B93000138F7AD03120138B47E00120138937F98
:100BA30000120138B08504120138F58504120138AA
:100BB3003B8604120138CE8704120138BBA304120A
:100BC3000138D6A304120138E6A3041201383DA468
:100BD30004120138B8A804120138CBBC031201383F
:100BE300EBBC03120138EFBD031201383BBE031205
:100BF30001385BBE03120138AEBE031201381BBFBE
:100C03000312013861BF03120138C5BF0312013853
:100C130077C203120138138C04120138438C041277
:100C23000138738C04120138368D04120138908D0B
:100C330004120138C39404120138DB9404120138FE
:100C43003895041201387C9504120138AE950412CC
:100C53000138E595041201380896041201388832E8
:100C6300001201381A3900120138E1390012013833
:100C73005E3C00120138A44500120138CF45001232
:100C83000138D546001201381347001201381349C1
:100C9300001201384A49001201388A4B0012013808
:100CA3009C4F00120138D34F001201389D5000129F
:100CB3000138D450001201380B510012013842514F
:100CC30000120138C15100120138F05100120138ED
:100CD300725200120138F85200120138CB5300123D
:100CE30001385854001201381D550012013889A4E7
:100CF30004120138B89F0412013839E50312013890
:100D03008CE503120138A9E5031201387EE60312CC
:100D13000138FBE603120138D8E7031201384DE925
:100D230003120138E5CD031201380ACE031201384C
:100D330068CE0312013897ED03120138EAED03126E
:100D4300013813EE031201387CEE03120138BAEFB7
:100D53000312013874F1031201385BA9041201383C
:100D6300795500120138875800120138475A00128A
:100D73000138F25A00120138965B001201382F5CD9
:100D8300001201385E5C001201383861001201382C
:100D9300E36100120138536300120138BB63001290
:100DA30001386F640012013831670012013870672F
:100DB30000120138E4670012013843680012013859
:100DC300A26800120138116900120138046A001286
:100DD30001384A6A001201388F6A00120138B26A78
:100DE300001201382D6C00120138406C00120138DA
:100DF300496D00120138886D00120138B46D00127C
:100E03000138076E00120138286E001201386C6E2B
:100E130000120138BE7000120138FF700012013851
:100E2300AA710012013815720012013852730012B0
:100E330001383FA504120138F88D04120138298EB8
:100E4300041201384D8E04120138508F04120138F8
:100E5300F2A104120138D2A20412013837FF03129F
:100E6300013855FF03120138DEFF0312013814ACB9
:100E7300041201388C9E041201389C9E041201381E
:100E8300AD9E04120138B29F04120138008004128F
:100E93000138A68004120138C28204120138128874
:100EA30004120138748804120138EC8804120138E2
:100EB300948904120138B38904120138C3890412D6
:100EC3000138028A04120138AF9A04120138E99AF0
:100ED300041201385C9B04120138969B04120138FA
:100EE300A89B04120138DF9B0412013823930412D8
:100EF3000138729304120138A49304120138359413
:100F030004120138B19404120138DF970412013836
:100F1300089804120138319804120138F198041228
:100F23000138429904120138529604120138859609
:100F33000412013801970412013821970412013871
:100F4300869704120138CE9704120138D197041200
:100F530001382FAC0412013841AC0412013844ACFF
:100F630004120138529D04120138A19D0412013864
:100F7300CD9D04120138ED9D041201387A9E0412AE
:100F83000138039C04120138549C041201389B9CC1
:100F930004120138259D04120138F87F001201382C
:100FA3003CFD0212013833FF021201389FFF021287
:100FB3000138E6FF02120138FED20312013851D381
:100FC300031201387AD30312013838D403120138DB
:100FD300A1D403120138DFD50312013899D70312C4
:100FE3000138A39403120138D19403120138D19626
:100FF30003120138D19803120138C0990312013842
:10100300729D03120138DD9D03120138F5A5041208
:101013000138ABA6041201387DE903120138D0E987
:1010230003120138F9E90312013862EA03120138A5
:10103300A0EB031201385AED03120138148A04128B
:1010430001387D8A041201383B8B04120138BA8BB4
:101053000412013818F9031201384AF9031201384E
:1010630052FA0312013877FB03120138008003128E
:101073000138E68003120138338103120138768187
:1010830003120138EB81031201384C820312013839
:10109300C182031201389D8303120138A88403120D
:1010A3000138298503120138D08603120138668777
:1010B30003120138D9870312013855880312013806
:1010C3006C8803120138A38903120138FD890312C6
:1010D300013804E8011201389CEC0112013870EF69
:1010E3000112013899EF01120138B0EF01120138F2
:1010F300D9EF011201388BF00112013871F201129C
:101103000138ACF301120138E2F8011201381BF97E
:10111300011201385FF90112013871FA0112013825
:10112300DDAA0412013861A704120138C48F041226
:101133000138DB8F041201380C90041201384790F8
:10114300041201387190041201389B900412013883
:10115300B29004120138C99004120138E0900412CD
:1011630001380991041201381C910412013832919B
:10117300041201384591041201386C9104120138AC
:10118300698A031201386D8B03120138A58B031290
:101193000138C88B03120138D38B03120138F68B45
:1011A30003120138058D03120138DA8D0312013859
:1011B300558E03120138DD8E03120138188F031286
:1011C30001384F8F03120138DD8F03120138B690B7
:1011D30003120138169103120138219103120138C9
:1011E300A09103120138A39103120138A6910312AF
:1011F300013835920312013838920312013868928C
:1012030003120138929203120138809303120138BA
:1012130032940312013831FB0112013859FB0112D8
:10122300013887FB01120138BEFB011201381CFC97
:101233000112013867FC01120138B2FC01120138B6
:10124300F2FC0112013838FD0112013866FD01126A
:10125300013823FE011201382DFE011201383AFE36
:10126300011201386DFE0112013839FF01120138F4
:1012730045FF011201385DFF0112013867FF0112BA
:101283000138E4A204120138F2A2041201380AA3BD
:101293000412013822A304120138519F02120138AB
:1012A300FD9F0212013878A00212013899A102129F
:1012B3000138D5A1021201387EA20212013865A3BA
:1012C30002120138C9A40212013820A50212013802
:1012D300A1A50212013891A602120138DEA602125C
:1012E300013864A70212013896A702120138AAA98D
:1012F30002120138ECA9021201380AAA02120138BB
:101303008DAA0212013861AB0212013829AC021214
:101313000138A8B5031201387BB60312013824B78C
:101323000312013877B70312013827B803120138C3
:10133300B3B8031201389FB903120138CEB90312AF
:101343000138E1BA0312013829BB03120138FEBB8D
:10135300031201383ABC0312013856BC0312013898
:10136300E5A9041201387FF50312013895F503123C
:101373000138BBF503120138D7F603120138E1F641
:101383000312013816F8031201380EF9031201385B
:10139300BEC803120138EEC90312013821CA031271
:1013A30001386BCA0312013832CC031201380080B2
:1013B300021201386A8002120138C981021201380F
:1013C300D981021201380682021201385D820212AB
:1013D30001380683021201380D8402120138D784C2
:1013E300021201383786021201387A860212013856
:1013F3001F87021201386C8702120138928702128A
:101403000138A08902120138A58902120138AA8B7A
:1014130002120138F78B021201386A8C021201386A
:101423009D8C021201383F8D02120138E88D0212A1
:101433000138208E02120138238E021201386B8E7E
:1014430002120138AB8E02120138028F02120138E8
:10145300DD8204120138F582041201383D8304123F
:1014630001385383041201389A8304120138AE847D
:10147300041201383B8504120138868504120138B1
:10148300798C01120138858C01120138C08C01124C
:101493000138058D01120138C58D011201384B8EBB
:1014A30001120138B08E01120138DC8E01120138AD
:1014B300158F01120138539101120138379301122C
:1014C30001381D9501120138609601120138AE985A
:1014D30001120138C099011201380B9B0112013826
:1014E3001B9C01120138389C01120138739C0112B4
:1014F3000138959C01120138F89C01120138B9A1F9
:10150300011201384EA2011201389FA201120138C3
:10151300C6A20112013818A30112013836A3011221
:10152300013890A30112013879A401120138EFA503
:101533000112013873A601120138D6D703120138FC
:10154300E0D70312013823D8031201383ED803121F
:101553000138CED803120138F6D80312013833D933
:10156300031201386AD90312013893D903120138DF
:1015730008DA031201381DDA0312013832DA0312D2
:10158300013863DA0312013877DA031201389CDA7F
:1015930003120138D6DA0312013802DB03120138D1
:1015A3003ADB03120138B9DB0312013802DC031200
:1015B30001382CDC0312013857DC03120138D9A09F
:1015C30004120138C6E502120138F4E502120138AB
:1015D30042E70212013822E80212013841E80212FE
:1015E3000138BEE80212013801E90212013857EA54
:1015F3000212013818EB021201389FED0212013872
:1016030040EE0212013836EF0212013833F00212B3
:1016130001388DF10212013818F20212013854997F
:1016230004120138BD9904120138119A04120138C9
:10163300389A04120138699A041201387FDC0312C4
:101643000138ECDC0312013833DD031201384BDEC1
:101653000312013847DF031201382AE0031201386D
:10166300249E03120138669E03120138389F031229
:10167300013811A0031201380BA103120138EDA1A7
:101683000312013856A2031201380CA303120138C6
:1016930080A303120138ECA30312013815A403122B
:1016A30001388FA40312013828A5031201388DA530
:1016B30003120138A2A503120138E8A50312013869
:1016C30001A60312013866A60312013869A60312A4
:1016D30001383EFC0312013866FC03120138A4FCF6
:1016E3000312013862FD03120138C9FD03120138E8
:1016F300E5FD031201380DFE031201383DFE03120E
:1017030001384CFE03120138C9FE03120138EFFE03
:1017130003120138EF8F02120138CD910212013802
:10172300FF93021201383B940212013868940212AB
:1017330001385295021201389D9502120138E8953D
:1017430002120138FA95021201383A960212013850
:101753006F9602120138BD9602120138EC960212FE
:1017630001380F97021201385C9702120138E19792
:1017730002120138FB99021201383A9C0212013815
:101783007B9C021201381D9E021201385E9E0212DA
:101793000138D19E02120138279F02120138B1D8B5
:1017A30002120138AFD90212013848E0021201389F
:1017B30069E20212013834E4021201389CE5021294
:1017C3000138DAA60112013889A701120138B6A738
:1017D30001120138FCA7011201383CA9011201389A
:1017E300D2AA011201384CAB0112013867AB0112C6
:1017F3000138E2AB011201383CAD011201389CAE55
:1018030001120138A2AF0112013803B101120138EC
:101813001CB1011201387AB10112013868B2011208
:1018230001389BB2011201380BB30112013885B3A1
:1018330001120138CFB30112013899B401120138F2
:101843006EB5011201384DB601120138D8B6011236
:10185300013846B701120138BAB701120138E5B7AA
:1018630001120138A4B80112013809BA0112013872
:1018730026BA0112013845BA0112013836BB0112EA
:1018830001385BBB0112013885BB0112013800BC72
:10189300011201385ABC01120138C3BD01120138CB
:1018A30071BE01120138B2BE01120138DDCA021243
:1018B30001382BCB0212013837CB0212013815CC79
:1018C3000212013846CC0212013877CC02120138D9
:1018D300F7CC021201382FCD0212013881CD02124A
:1018E3000138BECD02120138DBCF0212013801D21A
:1018F30002120138ECD302120138D6D50212013894
:101903007D3200120138F1D30112013821D40112C2
:101913000138FADA011201387FDC011201387CE266
:101923000112013864E301120138A1E30112013805
:10193300C4E301120138F5E301120138FEE3011299
:10194300013808E401120138F6E401120138ECE52C
:1019530001120138E2BE01120138E1C2011201385D
:10196300E7C20112013822CA011201383BCF01122A
:101973000138B1F10312013847F2031201385DF265
:1019830003120138D3F20312013847F3031201386B
:1019930085F303120138F9F30312013872F40312C9
:1019A30001387BF40312013887F4031201389CF4E5
:1019B30003120138DAF403120138F0F40312013888
:1019C3004FF503120138ECE003120138F9E003127A
:1019D300013813E10312013852E10312013890E197
:1019E30003120138F5E1031201380AE20312013848
:1019F30015E20312013822E20312013839E203121D
:101A0300013847E20312013852E2031201385EE261
:101A1300031201386DE20312013878E20312013830
:101A23009BE20312013842E30312013852E303122B
:101A330001386CE30312013889E303120138A5E38B
:101A430003120138CAE303120138D5E30312013844
:101A5300EAE303120138FEE3031201385FE40312E1
:101A6300013865E4031201386BE40312013871E4B1
:101A73000312013889E403120138BCE4031201386C
:101A8300B3BC0212013837BD02120138E6BD02129F
:101A9300013845BF0212013866C10212013852C231
:101AA3000212013887C202120138A9C20212013898
:101AB30058C30212013850C50212013879C5021207
:101AC30001380BC6021201383DC6021201384AC65C
:101AD30002120138A1C602120138C7C60212013828
:101AE30034C90212013837CA021201388FCA0212EE
:101AF300013842AE021201384CAF0212013833B042
:101B0300021201383DB0021201385FB002120138EF
:101B13006BB00212013804B20212013833B202125E
:101B230001384FB302120138A8B3021201380EB5BF
:101B330002120138EDB50212013849B6021201381A
:101B4300B6B602120138F1B60212013830B70212EA
:101B53000138E9B90212013803BA021201388FBA07
:101B6300021201389DBA02120138F6BA0212013884
:101B730004BB0212013877BB02120138DBBB02122D
:101B8300013825BC02120138867300120138A8738C
:101B930000120138CE7500120138E37800120138C3
:101BA300FB7900120138AE7A00120138907B0012E3
:101BB30001387E9104120138A39104120138159261
:101BC300041201382EAE0312013837AE0312013866
:101BD30040AE0312013817AF03120138C8B0031225
:101BE3000138FEB00312013838B1031201386EB167
:101BF30003120138A8B103120138DCB10312013812
:101C030008B20312013851B2031201388BB2031226
:101C13000138D4B2031201382CB30312013861B373
:101C230003120138BCB303120138F6B303120138AF
:101C330047B4031201387DB403120138B7B4031259
:101C43000138E5B40312013808B5031201380DA8B1
:101C53000412013839A80412013894A80412013877
:101C63009EA804120138AEA80412013842AB041234
:101C73000138CAAB0412013894AB04120138F6AB35
:101C830004E066701008A3E066700A08A3E06670BB
:101C93000408A3E06622C3E7960809E7960809E764
:101CA300960809E79622C3E09608A3E09608A3E006
:101CB3009608A3E09622C008C3E096F50808A3E0BF
:101CC30096420808A3E096420808A3E096450870E8
:101CD30001D3D00822080808EAC0E0EBC0E086F090
:101CE300E7A4FA180986F0E7A42AFA180986F0E7A8
:101CF300A42AFA180986F0E7A42AFA1986F0E7A4B9
:101D0300FBE5F02AFA190886F0E7A42BFBE5F03A85
:101D1300FA190886F0E7A42BFBE5F03AFA1818093C
:101D230086F0E7A4C5F02BFBE43AFA1908E7C5F0FF
:101D3300C6A426F6E5F03BFBE43AFA1886F0E7A4DE
:101D4300F6E5F00826F6E43B08F6E43A08F6D0E0B8
:101D5300FBD0E0FA22E4CFC0E0E4CEC0E0E4CDC0A3
:101D6300E0E4CCC0E075F020C3E633F608E633F6D2
:101D730008E633F608E633F6181818EC33FCED33AF
:101D8300FDEE33FEEF33FFC3EC9709ED9709EE97B2
:101D930009EF97191919400FFFEC97FC09ED97FD0F
:101DA30009EE97FE191906D5F0BEECF709EDF70910
:101DB300EEF709EFF7191919D0E0FCD0E0FDD0E0F8
:101DC300FED0E0FF226016080808C6C313C618C673
:101DD30013C618C613C618C613C6D5E0EA2270097F
:101DE300080808226016181818C6C333C608C63375
:101DF300C608C633C608C633C6D5E0EA22E627F6C8
:101E03000809E637F60809E637F60809E637F62241
:101E1300E026F608A3E036F608A3E036F608A3E0CA
:101E230036F622E026F008A3E036F008A3E036F009
:101E330008A3E036F022C3E697F60809E697F6080A
:101E430009E697F60809E697F622C3E096F008A399
:101E5300E096F008A3E096F008A3E096F022E65798
:101E6300F60809E657F60809E657F60809E657F6AD
:101E730022E056F608A3E056F608A3E056F608A3B8
:101E8300E056F622E056F008A3E056F008A3E05629
:101E9300F008A3E056F022E647F60809E647F608FD
:101EA30009E647F60809E647F622E0F608A3E0F656
:101EB30008A3E0F608A3E0F622E6F008A3E6F0089C
:101EC300A3E6F008A3E6F022E0FAA3E0FBA3E0FC1C
:101ED300A3E0FD22EAF0A3EBF0A3ECF0A3EDF022E4
:101EE300CAC0E0E6F0A308DAFAD0E0FA22CAC0E0FA
:101EF300E0A3C582CCC582C583CDC583F0A3C582CB
:101F0300CCC582C583CDC583DAE6D0E0CA22C3E45B
:101F130098F8E499F9121F528026C3E49AFAE49BD5
:101F2300FBE920E7E9121F52E498F8E499F922C388
:101F3300E498F8E499F9121F52E498F8E499F9C384
:101F4300E49AFAE49BFB22EB20E7CFE920E7E0B930
:101F53000010BB0008E88AF084F8AAF022E4FBC86A
:101F6300FA22EB70227B10C833C8C933C933500738
:101F7300C39AC3DBF280069A50012ADBEAC833F422
:101F8300C8C933F4C9FA2275F008E4C833C8C933A1
:101F9300C933C99AC99B5004C92AC93BD5F0ECFB84
:101FA300C833F4C8E4C9FA22600D08C6A2E713C611
:101FB30018C613C6D5E0F322600C08C6C313C618AF
:101FC300C613C6D5E0F422700422600D18C6C333CD
:101FD300C608C633C6D5E0F41822251810AF08F595
:101FE30018400215198008F51840021519D2AF22BE
:101FF300C0D0251810AF08F518500205198008F550
:102003001850020519D2AFD0D0222518F58210AF8F
:1020130008F518400215198008F51840021519D261
:10202300AF851983222518F582E43519F58322E457
:10203300732518C582C0E0E51934FFC583C0E0E508
:1020430018C3958224F810AF0885831985821880F8
:1020530008858319858218D2AFCEF0A3E520F0A3BB
:102063007808E608F0A3DEFAEFF0A3E58124FAF896
:10207300E608F0A3E608F0A3E608F0A30808E608DC
:10208300F0A3E608F0A315811581D0E0FED0E0F8B7
:10209300158115811581E8C0E0EEC0E0222518C541
:1020A30082C0E0E51934FFC583C0E0E518C395821B
:1020B30024F910AF08858319858218800885831950
:1020C300858218D2AFCEF0A3E520F0A37808E60806
:1020D300F0A3DEFAEFF0A3E58124FBF8E608F0A312
:1020E300E608F0A30808E608F0A3E608F0A31581C4
:1020F3001581D0E0FED0E0F815811581E8C0E0EE4F
:10210300C0E022851983851882E0A3FEE0A3F520B1
:102113007808E0A3F608DFFAE0A3FFE0A3C0E0E05D
:10212300A3C0E0E0A3C0E0E0A3C0E0E0A3C0E010F0
:10213300AF088582188583198008858218858319DD
:10214300D2AFD083D082020135851983851882E00E
:10215300A3FEE0A3F5207808E0A3F608DFFAE0A3E6
:10216300FFE0A3C0E0E0A3C0E0E0A3C0E0E0A3C0C1
:10217300E010AF0885821885831980088582188549
:102183008319D2AFD083D08222C0D02518C582C094
:10219300E0E51934FFC583C0E0E518C3958224F355
:1021A30010AF088583198582188008858319858275
:1021B30018D2AFC8F0A3E9F0A3EAF0A3EBF0A37938
:1021C30008E709F0A3D8FAECF0A3EDF0A3EEF0A32F
:1021D300EFF0A3D0E0F0A3D0E0F0A3D0E0F0A3E5CC
:1021E30020F0A3E5F0F0A322851983851882E0C0CF
:1021F300E0A3E0F9A3E0FAA3E0FBA37808E0F60884
:10220300A3DFFAE0FCA3E0FDA3E0FEA3E0FFA3E06D
:10221300C0E0A3E0C0E0A3E0F5D0A3E0F520A3E095
:10222300A3F5F010AF08858319858218800885838C
:1022330019858218D2AFD082D083D0E0F8D0E032B3
:1022430074048006740280027401C0E0F404122056
:102253000DD0E0121EE3227404800474028000CCCB
:10226300C0E0EDC0E0E518C39CCCAD1950011D10D2
:10227300AF068C188D1980068C188D19D2AF121EDB
:10228300F0D0E0FDD0E0FC22D083D082E9C0E0E4CE
:1022930093A3C386F0C5F095F0F908E493A386F001
:1022A300C5F095F0700BE493A3C3994005E904804E
:1022B30002A3E475F002A42582F582E5F03583F5E7
:1022C30083D0E0F9E493A3C0E0E493C0E022D08399
:1022D300D082ECC0E0EDC0E0E493A3FCE493A3FD63
:1022E300ED4C600D12231DEC24FFFCED34FFFD804B
:1022F300EFE493A3FCE493A3FDED4C600D12235C88
:10230300EC24FFFCED34FFFD80EFD0E0FDD0E0FCDA
:10231300E493A3C0E0E493C0E022C0E0C3E4939657
:10232300087401939618400FE493667008087401CB
:1023330093661870007019A3A3C3E49396087401FD
:10234300939618A3A3400DD0E0D0E0D0E002230D74
:10235300A3A3A3A3A3A3D0E022C0E0C0F088F0E42A
:10236300936670080874019366187000A8F0A3A31D
:10237300700BD0F0D0E0D0E0D0E002230DA3A3D0C7
:04238300F0D0E02294
:10238800C2AF02000022C0E074F212218CA2AFE4B6
:1023980033FED2AFE589A2E05003120F40758900E1
:1023A800C2C5EEF8EEA2E092AF7F010221EBC0E0D9
:1023B80074F212218CA2AFE433FED2AFE58AA2E612
:1023C8004006E58AA2E75003120F40758A00758A15
:1023D80000C2EBEEF8EEA2E092AF7F010221EBC063
:1023E800E0C0D0E8C0E0E9C0E0A2AFE433F8D2AF83
:1023F800758B00C2E8E8F9E8A2E092AFD0E0F9D026
:10240800E0F8D0D0D0E032C0E0C0D0E8C0E0E9C009
:10241800E0A2AFE433F8D2AFC2C7751A00E8F9E812
:10242800A2E092AFD0E0F9D0E0F8D0D0D0E032749A
:10243800F51220A0EAFEEBFFEE2434F8EF3400F9A1
:1024480088088909EE2435F582EF3400F583E0F831
:10245800EE2437F582EF3400F583E0F50AEC850ABF
:10246800F0A4FCAAF0850AF0EDA42AFDE82CF8E413
:102478003DF97A257B00121F52EA85088285098377
:10248800F0F8740758F97401B900028004C333D90D
:10249800FCFAE8131313541FF8EE28F8EF3400F988
:1024A800E8245DF582E93400F583E05A6008EE24FB
:1024B80034F582EF802CEE2434F582EF3400F58376
:1024C800E0C0E0EE2436F582EF3400F583E0F5F065
:1024D800D0E084A8F0EE28F8EF3400F9E82438F5C5
:1024E80082E93400F583E0F97F0402214C74F51287
:1024F80020A0EAFEEBFFEE2434F582EF3400F583EA
:10250800E0C0E0EE2435F582EF3400F583D0E0F04A
:102518008E828F83A3A3A3A3A3A3A3C082C0838E09
:10252800828F83A3A3A3A3A3E0F8A3E0F9D083D069
:1025380082E0C398F508A3E099F509EE247FF582B7
:10254800EF3400F583E064017069EE2480F582EFD2
:102558003400F583E0F8A3E0F98E828F83A3A3A368
:10256800A3A3A3A3E0FCA3E0FD8E828F83A3A3A370
:10257800A3A3E0FAA3E0FBC3EA9CEB9D5010C3ECD5
:1025880098ED99402EC3EA98EB995027800EC3EA3C
:1025980098EB994007C3EC98ED9940177C1C7D088F
:1025A800EEFAEFFB12185EEE247FF582EF3400F5A9
:1025B80083E4F0EE2434F8EF3400F9E8FCE9FDEEAA
:1025C8002435F582EF3400F583E0F8EE2437F58200
:1025D800EF3400F583E0F50AE508850AF0A4F5086C
:1025E800AAF0850AF0E509A42AF509E82508F8E41F
:1025F8003509F97A257B00121F52EA8C828D83F007
:10260800F8740758F97401B900028004C333D9FC7F
:10261800FAE8131313541FF8EE28F8EF3400F9E81A
:10262800245DF582E93400F583E05A6008EE24342D
:10263800F582EF802CEE2434F582EF3400F583E048
:10264800C0E0EE2436F582EF3400F583E0F5F0D0F3
:10265800E084A8F0EE28F8EF3400F9E82438F58291
:10266800E93400F583E0F912326F0224F0C082C029
:1026780083851882851983E0F8A3E0F9C3EA9CEB07
:102688009D5010C3EC98ED99401BC3EA98EB995004
:1026980014800EC3EA98EB994007C3EC98ED994073
:1026A80004790180027900D083D08222EAC39CFA9F
:1026B800EB9DFB2274EF1220A09006E2E064086014
:1026C80005E06407702A9061C8E06024900710E074
:1026D800F4601DE0F875F003A4C8AAF02AF9741292
:1026E80028FE740739FF8E828F83A3A3A3E07003AB
:1026F8000227EC906060E0C0E0EE2468F582EF34D9
:1027080000F583D0E0F0750C85750D087508007527
:102718000900E5D914F50AE5D95403F50E601774D4
:1027280003650E605CE50A6010EE2467F582EF34FD
:1027380000F583E070030227D1900880E06401600F
:102748002AEE2482F582EF3400F583E060047804F1
:1027580080027800850A08E508C398FA95E0FB121C
:1027680017268A088B09EA45097005121A628074CF
:10277800EE2482F582EF3400F583E070048A0C8B36
:102788000DE50A6012850C82850D83F50BE5D9F0FD
:10279800A3150BE50B70F6EE2482F582EF3400F5F5
:1027A80083E0604474FC250AF50A780C122247ACD1
:1027B8000AA90EEEFAEFFB1218FA7402121FF3E9D7
:1027C8007026AA08AB09121042793D8E828F83A326
:1027D800A3A3A3E0FA7B001215FAEEFAEFFB121896
:1027E8007612190C790080747403650E6056850A98
:1027F800107511007810122247AC0CAD0DAA08AB69
:10280800091218D67402121FF3EE2468F582EF3409
:1028180000F583E064807004747F8001E0F50C7833
:102828000C12224BE50EF50C780C12224BA90AACBF
:1028380008AD09900710E0FA7B001215BE74021269
:102848001FF380139006E2E06408600BAC0CAD0D3A
:10285800EEFAEFFB121966121A6E79017F0A02214D
:102868004C74F51220A074FC121FDDEAFEEBFF8900
:1028780008A2AFE433F509C2AF806AEE2463F8EF2B
:102888003400F97A007B00A2AFE433F50AC2AF88BE
:10289800828983E0FCA3E0FDEC4D603A888289835D
:1028A800E0FAA3E0FB8A828B83E0FCA3E0FD888248
:1028B8008983ECF0A3EDF08A828B83E4F0A3F0889F
:1028C800828983E0FCA3E0FDEC4D700A888289834D
:1028D800A3A3E4F0A3F0E50AA2E092AF121042909D
:1028E8000823E004F0EE2463F582EF3400F583E07A
:1028F800F8A3E0F9E849603DEE2463F582EF34007F
:10290800F583E02402FAA3E03400FBEA2402F50A86
:10291800EB3400F50B780A1222478A828B83E0FC9D
:10292800A3E0F9EEFAEFFB12189A7402121FF3E90A
:102938007003022883900823E06063900824E0F87D
:10294800900823E0C398500C7402650870509008F2
:1029580025E0604A8E828F83A3A3A3A3E085188213
:10296800851983F0A3E4F0900823E0F8740212209C
:1029780028E8F0A3E4F0900823E0F8900822E02883
:10298800F07402122028AC82AD83851882851983E1
:10299800AA82AB8379011215CA900823E4F0E509ED
:1029A800A2E092AF7404121FF30224F085218785F8
:1029B80022C622C0E0C0D0E8C0E0E9C0E0EAC0E03A
:1029C800EBC0E0ECC0E0EDC0E0EEC0E0C008C0093C
:1029D800C00AC00BC082C083C0F0A2AFE433FEC2FD
:1029E800AF759B00906182E0A2E05012E591A2E0F1
:1029F800500C7591FE7401652170031226BCE0A28B
:102A0800E55051E591A2E5504B7591DF9006E2E063
:102A180064076005E06408702374016521703579E6
:102A280001900710E0FA75F003A4CAA8F028FB7417
:102A3800122AFA74073BFB1228698018E0640D70AB
:102A480013900704E004F064287002E4F07A00E0D0
:102A5800F9121A74906182E0A2E64003022B02E5A3
:102A680091A2E64003022B027591BF9006E2E06452
:102A780005700812199C1219A880031219A2752151
:102A880000121A02E99006E3F079001219F61217FB
:102A9800D47A017B009006E1E0F9120B6E9078037E
:102AA800E064427055900884E014F0704DC2AF1293
:102AB8002ABA00782AD0E0F618D0E0F6E59F540745
:102AC80070057509FF800375097FC4C0E07829E6A1
:102AD800F50808E65509F509740B7808121FBBD0EC
:102AE800E02508F8906270E0A2E740F8E8C3339068
:102AF8006272F0906270E0D2E0F0906181E0A2E34F
:102B08005009E5E9A2E3500375E9F7A3E0A2E7500D
:102B180009E591A2E7500375917FEEA2E092AFD04C
:102B2800F0D083D082D00BD00AD009D008D0E0FEF4
:102B3800D0E0FDD0E0FCD0E0FBD0E0FAD0E0F9D066
:102B4800E0F8D0D0D0E032C0E0C0D0C082C08390DE
:102B58006183E0A2E05009E5BFA2E0500375BFFE23
:102B6800E0A2E15009E5BFA2E1500375BFFDE0A274
:102B7800E25009E5BFA2E2500375BFFBE0A2E350B3
:102B880009E5BFA2E3500375BFF7E0A2E45009E5E9
:102B9800BFA2E4500375BFEFE0A2E55009E5BFA26C
:102BA800E5500375BFDFE0A2E65009E5BFA2E65095
:102BB8000375BFBFD083D0828088C0E0C0D0E8C092
:102BC800E0E9C0E0EAC0E0EBC0E0ECC0E0EDC0E066
:102BD800C0F0E5A7A2E6500FE5A1A2E6500953A769
:102BE800BF75A1BF122C27E5A7A2E5500CE5A1A24D
:102BF800E5500653A7DF75A1DFE5A7A2E15009E577
:102C0800A1A2E1500375A1FDE5A7A2E2500CE5A140
:102C1800A2E2500653A7FB75A1FBD0F0022B387433
:102C2800F81220A07521019006E2E06406701512E2
:102C3800192A8A828B83A3A3A3A3A3A3E0FAA3E000
:102C4800FB12198AA2AFE433FED2AF9006E8E06423
:102C58000170187A207B009006E1E0F9120BFE7AE9
:102C6800207B009006E1E0F9120B74906182E0D2BB
:102C7800E6F0900881E0602185C62280169006E77C
:102C8800E064017008E5C654F84405F5C653BEFC77
:102C98001229B47401652160E4EEA2E092AF7F01CD
:102CA80002214C008E238F2485822885832785184E
:102CB80082851983E0CEA3E0CF852882852783EB20
:102CC800C9EAC8EDCBECCA75F010C3E833C8E933DC
:102CD800C9EA33CAEB33CBC3EA9EF526EB9FF52549
:102CE800B35004AB25AA26EC33CCED33CDD5F0DABE
:102CF800AE23AF242274E91220A074F8121FDD85D8
:102D08001882851983ECF0A3EDF08A088B099006E8
:102D1800E2E024F7C394055006750801022E9412C8
:102D2800192A8A0A8B0BAE0AAF0BEE4F7003022EDC
:102D380091AC08AD097402122028AA82AB8312193B
:102D4800BA8E828F83A3A3750CFF750DFF750EFFD6
:102D5800750F00780C121E7474021220287510FF6B
:102D68007511FF7512FF7513007810121E74780C18
:102D78007910121C99502A780C7910121E3975088E
:102D8800017509C8750A00750B007808790C121CC2
:102D9800995052850C08850D09850E0A850F0B8000
:102DA800507514017515C87516007517008510083B
:102DB80085110985120A85130B7808790C121E39BA
:102DC80078147908121C99401C750800750900755B
:102DD8000A00750B0178087910121E397808790CE9
:102DE800121E00800C750801750900750A00750B24
:102DF8000074097808121DE1750C19F50DF50EF52A
:102E08000F7808790C121D588E828F83A3A3A3A371
:102E1800A3A3E0F8A3E0F97AD07B03121F52880C31
:102E2800890DE4F50EF50F7808790C121E0074066A
:102E3800122028E0F8A3E0F97AD07B03121F52E8A9
:102E4800FA8A0CE4F50D7808790C121C9950077869
:102E580008790C121E399006E2E06408600AE06402
:102E6800066005E06405702D750C0D780C79081264
:102E78001C994021750CF4750DFF750EFF750FFF39
:102E88007808790C121E00800C7508007509007509
:102E98000A00750B00851882851983E0F8A3E0F510
:102EA8008388827808121EBC7408121FF37F1002F0
:102EB800214C74F71220A01219CC90087FE064010D
:102EC8007010906245E4F0A3F053F4F343FE0C5302
:102ED80090F3121978E5C654804449F5C6E59E5426
:102EE8007F644970F8906185740FF090087DE0F474
:102EF8007002A3E0604E90087EE0600814601B1426
:102F0800602E804075080175090090087DE07808FA
:102F1800121FCAE508F45280802A75080175090055
:102F280090087DE07808121FCAE508F452908014D2
:102F380075080175090090087DE07808121FCAE538
:102F480008F452A079007F0202214C74F71220A0E5
:102F5800E9FEEAFF74016E700C7A807B009006E14E
:102F6800E0F9120B6E903280E493F46008E493F970
:102F78001217C8800953C680E59E547F70FA12194B
:102F88007E90087FE0640170031217E090087DE0EE
:102F9800F47002A3E0604B90087EE0600814601AA9
:102FA80014602C803D75080175090090087DE07853
:102FB80008121FCAE50842808028750801750900B3
:102FC80090087DE07808121FCAE5084290801375C2
:102FD800080175090090087DE07808121FCAE50805
:102FE80042A01219CC12192A8A088B09A808A90923
:102FF800E8496015E5E170FCE82414F582E934003D
:10300800F583E0F46003E0F5E174016F700A7A017A
:103018009006E1E0F9120BC8022F4E74ED1220A0C1
:103028008A088B098C0A8D0B7413122028780C12CD
:103038001EAD7808790C121C997510017511C875A8
:10304800120075130050127808790C121E39781086
:103058007908121C9950168010780C7908121E39BC
:103068007810790C121C9940047901800279007F4C
:103078000C02214C74ED1220A08A088B098C0A8D51
:103088000B7413122028780C121EAD780C790812D4
:103098001C9940117808790C121E39AA08AB09ACA2
:1030A8000AAD0B802275100075110075120075139A
:1030B800017810790C121E3978107908121E00AAAE
:1030C80010AB11AC12AD1380A68A828B837508FFF2
:1030D8007509FF750AFF750B007808121E877F04B3
:1030E80002214C74F51220A08C828D837808121E60
:1030F800AD8A828B837808121E4DEA2404F8EB34DB
:1031080000F98C828D83A3A3A3A3E0FCA3E0FD8830
:10311800828983C3E09CF0A3E09DF088828983C301
:10312800E09420A3E0944E40268A828B837508FFA2
:103138007509FF750AFF750BFF7808121E268A822B
:103148008B83A3A3A3A3E02420F0A3E0344EF002D2
:1031580030D174F51220A0E9FE900837E0FAA3E018
:10316800FBEEC333F8E433F9743828F582748839F0
:10317800F583E02AF508A3E03BF509780812224711
:103188007A407B427C0F7D00122CAC7402121FF334
:103198008A088B098C0A8D0B74107808121DC8AA2E
:1031A80008AB097F0402214C74F11220A08A0C8B11
:1031B8000D8C0E8D0F740F122028E0FAA3E0FB741B
:1031C80011122028E0F508A3E0F509780812224733
:1031D800EA2401F508EB3400F509E4F50AF50B7863
:1031E8000C7908121CD8750871750902780C7908D1
:1031F800121CD8AA0CAB0DAC0EAD0F122CAC74027D
:10320800121FF38B09EA450960047A0180027A00EB
:10321800EC2AFCED3400FD7413122028E0F8A3E03A
:10322800F9E8FEE9FFECF8EDF97A717B02121F521A
:10323800880889098E828F837808121EBCECF8ED05
:10324800F97A717B02121F528A088B097405780873
:10325800121FCA8E828F83A3A3A3A3E508F0A3E558
:1032680009F07F0802214CC082C083E9906000F019
:10327800D083D08222020135FFFFFFFFFFFFFFFF4F
:1032880074ED122034746C121FDD120A7E7C007DEE
:10329800007E007F007410122028ECF0A3EDF0A34C
:1032A800EEF0A3EFF0908BDD7808121EAD741012CB
:1032B80020287808121CA95014908BC57808121E73
:1032C800AD74101220287808121E2680D8790012B2
:1032D8000A847B017A017910120AD87906120ADE6B
:1032E800120AE4E9F5127B007A007900120AD81272
:1032F8000A9CE9F50F120AA8E9F50E120AB4E9F5D5
:103308000D120AC0E9F50C7A7F7900120A4E79008D
:10331800120A6C7A687900120A4E120A787C007DCB
:10332800007E007F007410122028ECF0A3EDF0A3BB
:10333800EEF0A3EFF0908B9D7808121EAD7410127A
:1033480020287808121CA95014908BC57808121EE2
:10335800AD74101220287808121E2680D87508012E
:10336800780812224B750800780812224B79007CE5
:10337800897D077A007B80120AF67402121FF3E92E
:10338800700302390E7CC07D007AA37B0A120B02FF
:10339800E9700302390A7903120A8A7912120A5467
:1033A8007904120A187901120A1E7903120A24797B
:1033B80003120A2A7903120B087900120B0E7900FE
:1033C800120AA2A90E120AAEA90D120ABAA90C1263
:1033D8000AC6750A00750B00750800E508C3940451
:1033E80040248508107511007402122028E0F8792D
:1033F800002403F8E93400F9C3E51098E51199A20F
:10340800D265D033503A7463250AF582740B350BB4
:10341800F583E0C0E08508107511008518828519CC
:1034280083E5822510F582E5833511F583D0E0F038
:103438000508E50A2401F50AE50B3400F50B809B25
:10344800750900780912224B750901780912224B77
:103458007403122028E0F509780912224B7403122C
:103468002028E0F97405122028E0FC7D007406127B
:103478002028AA82AB83120AF07403121FF3E9759D
:103488000800E508C39404402485081075110074E9
:1034980002122028E0F879002403F8E93400F9C37F
:1034A800E51098E51199A2D265D033503A74632596
:1034B8000AF582740B350BF583E0C0E085081075BA
:1034C8001100851882851983E5822510F582E58328
:1034D8003511F583D0E0F00508E50A2401F50AE581
:1034E8000B3400F50B809B750900780912224B7587
:1034F8000901780912224B7403122028E0F5097893
:103508000912224B7403122028E0F97405122028AE
:10351800E0FC7D007406122028AA82AB83120AF010
:103528007403121FF3E9120A72120A908A108B119F
:10353800AE10AF11E510A9107414122028AA82AB9E
:1035480083120A967902120A36799C120A42795035
:10355800120A3C7900120A48120A727901120A66A4
:103568007901120ACC120AD2750800E508C394043E
:1035780040248508107511007402122028E0F8799B
:10358800002403F8E93400F9C3E51098E51199A27D
:10359800D265D033503A7463250AF582740B350B23
:1035A800F583E0C0E085081075110085188285193B
:1035B80083E5822510F582E5833511F583D0E0F0A7
:1035C8000508E50A2401F50AE50B3400F50B809B94
:1035D800750900780912224B750901780912224BE6
:1035E8007403122028E0F509780912224B7403129B
:1035F8002028E0F97405122028E0FC7D00740612EA
:103608002028AA82AB83120AF07403121FF3E9750B
:103618000800E508C3940440248508107511007457
:1036280002122028E0F879002403F8E93400F9C3ED
:10363800E51098E51199A2D265D033503A74632504
:103648000AF582740B350BF583E0C0E08508107528
:103658001100851882851983E5822510F582E58396
:103668003511F583D0E0F00508E50A2401F50AE5EF
:103678000B3400F50B809B750900780912224B75F5
:103688000901780912224B7403122028E0F5097801
:103698000912224B7403122028E0F974051220281D
:1036A800E0FC7D007406122028AA82AB83120AF07F
:1036B8007403121FF3E9750800E508C39404402455
:1036C8008508107511007402122028E0F87900248A
:1036D80003F8E93400F9C3E51098E51199A2D26519
:1036E800D033503A7463250AF582740B350BF58391
:1036F800E0C0E0850810751100851882851983E5FA
:10370800822510F582E5833511F583D0E0F00508B0
:10371800E50A2401F50AE50B3400F50B809B7509D1
:1037280000780912224B750901780912224B74039B
:10373800122028E0F509780912224B740312202878
:10374800E0F97405122028E0FC7D00740612202898
:10375800AA82AB83120AF07403121FF3E9120A90CB
:103768008A108B11A810A911E8FEE9FFC3E8940399
:10377800E9940040E8EEF97414122028AA82AB8379
:10378800120A96120A5AE9F509750800E508C39461
:103798000440248508107511007402122028E0F8EE
:1037A80079002403F8E93400F9C3E51098E5119984
:1037B800A2D265D033503A7463250AF582740B356A
:1037C8000BF583E0C0E08508107511008518828527
:1037D8001983E5822510F582E5833511F583D0E05C
:1037E800F00508E50A2401F50AE50B3400F50B801D
:1037F8009B7401122028E0F510781012224B7401F6
:10380800122028E0F97403122028E0FC7D007404DB
:10381800122028AA82AB83120AEA7401121FF3123B
:103828000A908A108B11A810A911E8FEE9FFC3E8D5
:103838009403E9940040E8EEF97414122028AA824F
:10384800AB83120A96120A5AE9F509750800E508C9
:10385800C3940440248508107511007402122028AE
:10386800E0F879002403F8E93400F9C3E51098E595
:103878001199A2D265D033503A7463250AF582743F
:103888000B350BF583E0C0E085081075110085182D
:1038980082851983E5822510F582E5833511F58344
:1038A800D0E0F00508E50A2401F50AE50B3400F537
:1038B8000B809B751000781012224B751001781040
:1038C80012224B7403122028E0F510781012224BB4
:1038D8007403122028E0F97405122028E0FC7D000A
:1038E8007406122028AA82AB83120AF07403121FEE
:1038F800F3E97900120ACC120A72120A5AE979001D
:1039080080067902800279017494121FF37F0B02FA
:10391800210674F71220348C828D83E0F87900E454
:10392800C8F98C828D83A3E0FE7F00E82EF8E93F7A
:10393800F98A828B83E8F0A3E9F08C828D83A3A3B4
:10394800A3A3E0F87900E4C8F98C828D83A3A3A32C
:10395800A3A3E0FE7F00E82EF8E93FF98A828B8373
:10396800A3A3E8F0A3E9F08C828D83A3A3A3A3A368
:10397800A3A3A3E0F87900E4C8F98C828D83A3A3FC
:10398800A3A3A3A3A3A3A3E0FE7F00E82EF8E93F27
:10399800F98A828B83A3A3A3A3E8F0A3E9F0EC241C
:1039A8000CF582ED3400F583E0F87900E4C8F9EC11
:1039B800240DF582ED3400F583E0FE7F00E82EF853
:1039C800E93FF98A828B83A3A3A3A3A3A3E8F0A367
:1039D800E9F079007F0102210674F212203474ECB8
:1039E800121FDD8908E5089002ACF07C047D007A9E
:1039F8001F7B00121216E9F50974051220287401BC
:103A0800F0740E1220287401F0A37400F0740412EC
:103A180020287401F0740C122028742FF0A374016C
:103A2800F0740A122028743FF0A37401F07408128D
:103A380020287404F0A37400F07406122028745827
:103A4800F0A37402F07405122028AC82AD837901CA
:103A58007A057B031210D2E9740E122028AC82ADCD
:103A68008379027A067B031210D2E97C927D0B7966
:103A7800157A087B031210D2E97CA77D0B79177A97
:103A8800077B031210D2E97404122028AC82AD839C
:103A980079017A107B031210D2E9740C122028AC39
:103AA80082AD8379027A117B031210D2E9740A126B
:103AB8002028AC82AD8379027A127B031210D2E9F6
:103AC8007408122028AC82AD8379027A137B031222
:103AD80010D2E97406122028AC82AD8379027A14D8
:103AE8007B031210D2E97CBE7D0B7A047900121395
:103AF80090E97E407F06EEFCEFFD7A067B0012120D
:103B080016E9EEFCEFFD7A077B00121216E9EEFCCF
:103B1800EFFD7A087B00121216E9EEFCEFFD7A0938
:103B28007B00121216E97A007B007C007D0074107D
:103B3800122028EAF0A3EBF0A3ECF0A3EDF0740355
:103B48001220287401F074021220287401F0740104
:103B58001220287400F08518828519837401F07486
:103B680010122028AC82AD8379047A087B04120DE8
:103B780060E97403122028AC82AD8379017A007B56
:103B880004120D60E97402122028AC82AD83790119
:103B98007A027B04120D60E97401122028AC82AD10
:103BA8008379017A037B04120D60E98518828519EF
:103BB80083AC82AD8379017A067B04120D60E990AB
:103BC8008BCD121ECB121396E9908BCD121ECB1201
:103BD80014A4E9120D24E9908BCD121ECB121018F3
:103BE800E9908BCD121ECB120D36E9908BCD121EAB
:103BF800CB120FB8E9908BCD121ECB120CFAE97AD2
:103C0800007903120F52E9120EC87ADA7B0B1210F0
:103C18001EE9F50A7ADC7B0B120D3CE9F50B7ADE1E
:103C28007B0B120FBEE9F50C7AE07B0B120D00E955
:103C3800F50D7AE27B0B1210E479011215A0E97AEE
:103C4800017B009002ACE0F9120B6EE97414121FAC
:103C5800F37F0602210674F012203474DC121FDD93
:103C68008909EAFEEBFFEE5400F8EF5480F9E849C1
:103C780060329002ACE0F9120B568A0C8B0DA80C3E
:103C8800A90D880A890BE849600FAA0AAB0B120C28
:103C980076AA0AAB0B120B44E9EE6400FAEF6480D3
:103CA800FB02459AEE5480601B9002EEE0600AC267
:103CB800AF75C9AB75C95B80FEEE6480FAEF64002E
:103CC800FB02459AEEA2E050227AD67B0B1210DE58
:103CD800E9F5087A357B03120D7E120E38120FE2D1
:103CE800EE6401FAEF6400FB02459AEE5400F8EF27
:103CF8005404F9E84960167C107D007AC87B0212EA
:103D08000CE8EE6400FAEF6404FB02459AEE5402F4
:103D18007003023DA59002AEE0605A120F1CE964E0
:103D280002702F120CB2900BC6E024EDF50CA3E044
:103D380034FEF50DE4F50EF50F780C1222437A02E5
:103D48007B009002ACE0F9120BF27404121FF3E945
:103D58008040120F1CE9703A120F0A908BED122264
:103D68005A7A027B009002ACE0F9120BF27404124A
:103D78001FF3E9801D120F107D047C0079007A0082
:103D88007BAA120CE27D017C0079017A007BAA12E1
:103D98000CE2EE6402FAEF6400FB02459AEE54046A
:103DA80060569002B0E0602B120C8E900BC4E0F5C8
:103DB8000CA3E0F50DE4F50EF50F780C1222437A0A
:103DC800047B009002ACE0F9120BF27404121FF3AA
:103DD800E9801A7D037C0079007A107BAA120CE234
:103DE8007D017C0079017A107BAA120CE2EE640452
:103DF800FAEF6400FB02459AEE5400F8EF5401F91B
:103E0800E8497003023F359002B1E07003023F2A8F
:103E18009002EAE0640160089002EAE0640270231C
:103E2800908BE912225A7A007B019002ACE0F912D9
:103E38000BF27404121FF3E9EE6400FAEF6401FB5D
:103E480002459A9002EA7403F0120A5AE990033480
:103E5800F0120A909002F2EAF0A3EBF0900334E03B
:103E6800A2E4400E9002F2E064007004A3E064044F
:103E78007026120A72908BE512225A7A007B019002
:103E880002ACE0F9120BF27404121FF3E9EE6400BD
:103E9800FAEF6401FB02459A900334E0A2E1505323
:103EA8009002F2C082C083900BD4E0F8A3E0F9D06E
:103EB80083D082C3E098A3E099500D120A90900233
:103EC800F2EAF0A3EBF080D8900BD4E0F8A3E0F985
:103ED800E8F97AF47B02120A96900BD4E0F8A3E092
:103EE800F99002F2C3E098F0A3E099F07AF47B022B
:103EF800120C94900BD0E0F50CA3E0F50DE4F50E50
:103F0800F50F780C1222437A007B019002ACE0F99D
:103F1800120BF27404121FF3E99002EA7400F01213
:103F28000A72EE6400FAEF6401FB02459AEE54004F
:103F3800F8EF5408F9E849602C120C5EE97901128F
:103F48000ACC908BE112225A7A007B019002ACE0F5
:103F5800F9120BF27404121FF3E9EE6400FAEF642D
:103F680008FB02459AEE5400F8EF5402F9E849704C
:103F78000302408B9002B2E064016003024080902B
:103F880002EAE0640160089002EAE06403702390AA
:103F98008BE912225A7A007B029002ACE0F9120BEC
:103FA800F27404121FF3E9EE6400FAEF6402FB02F4
:103FB800459A9002EA7402F09002EDE0700F9002C8
:103FC800E8E0FAA3E0FB7900120C9A801D9002E861
:103FD800E0FAA3E0FBEA2401F8EB3400F99002E8E8
:103FE800E8F0A3E9F07901120C9A9002EDE0702054
:103FF800908BE912225A7A007B029002ACE0F91207
:104008000BF27404121FF3E99002ED7401F080685A
:104018009002E8C3E0940EA3E09400A2D265D033E6
:1040280040389002EA7400F09002E87400F0A3743B
:1040380000F0900BD2E0F50CA3E0F50DE4F50EF5D9
:104048000F780C1222437A007B029002ACE0F9123E
:104058000BF27404121FF3E98018908B9912225AFC
:104068007A007B029002ACE0F9120BF27404121F82
:10407800F3E99002ED7400F0EE6400FAEF6402FBDD
:1040880002459AEE5400F8EF5420F9E8497003020B
:10409800413E9002B6E0700BEE6400FAEF6420FB3C
:1040A80002459A9088D8C082C0837414122028AC24
:1040B80082AD83D083D0827410121EF07414122043
:1040C80028AA82AB83120FF4E97C307D0079FF7A4D
:1040D800B77B02120B32750A10750B00780A122290
:1040E800477416122028AC82AD837AB77B02120B74
:1040F8001A7402121FF39002C7740DF09002C8746C
:104108000AF07C127D007AB77B02120CE89002EA72
:104118007400F0908BC912225A7A007B409002AC4E
:10412800E0F9120BF27404121FF3E9EE6400FAEFDF
:104138006420FB02459AEE5400F8EF5440F9E84930
:1041480070030242B19002B6E0700BEE6400FAEF21
:104158006440FB02459A9002EAE06401600890021C
:10416800EAE064037023908BA112225A7A007B4004
:104178009002ACE0F9120BF27404121FF3E9EE643A
:1041880000FAEF6440FB02459A9002EA7402F0904C
:104198008828C082C0837404122028AC82AD83D0E2
:1041A80083D0827410121EF07404122028AA82ABE5
:1041B80083120E44E97C307D0079FF7AB77B0212C6
:1041C8000B329002B774AAF09002B874BBF0900258
:1041D800B974BBF0750A10750B00780A122247747F
:1041E80006122028AC82AD837ABA7B02120B1A74AD
:1041F80002121FF37404122028AA82AB83120FF450
:10420800E9750A10750B00780A1222477406122005
:1042180028AC82AD837ACA7B02120B1A7402121F71
:10422800F39002DA740DF09002DB740AF07C147DCE
:10423800007AB77B02120CE87A007B007C007D00D4
:10424800851882851983EAF0A3EBF0A3ECF0A3EDBF
:10425800F0908BE9780C121EAD8518828519837849
:104268000C121CA95015908BC5780C121EAD851820
:1042780082851983780C121E2680D67C117D007ADF
:10428800CB7B02120CE8908BC912225A7A007B4031
:104298009002ACE0F9120BF27404121FF3E9EE6419
:1042A80000FAEF6440FB02459AEE5408700302439B
:1042B8007D9002B4E070030243589002EAE0640380
:1042C80060089002EAE064027023908BE912225A97
:1042D8007A087B009002ACE0F9120BF27404121F0A
:1042E800F3E9EE6408FAEF6400FB02459A9002EAEB
:1042F8007401F09002ECE0F9120ECEE9F508900294
:10430800ECE064027029120CA69002EC7400F090A4
:1043180002EA7400F0900BC812225A7A087B0090C7
:1043280002ACE0F9120BF27404121FF3E9803B901F
:1043380002ECE02401F0908BA512225A7A087B0047
:104348009002ACE0F9120BF27404121FF3E9801A20
:104358007D047C0079007A207BAA120CE27D017C26
:104368000079017A207BAA120CE2EE6408FAEF6465
:1043780000FB02459AEE5410606C9002AFE0603E7C
:10438800120F64E964027005120CA08009120F6410
:10439800E97003120F6A900BC2E0F50CA3E0F50D6B
:1043A800E4F50EF50F780C1222437A107B00900288
:1043B800ACE0F9120BF27404121FF3E9801D120F1E
:1043C800707D067C0079007A307BAA120CE27D01B0
:1043D8007C0079017A307BAA120CE2EE6410FAEFC5
:1043E8006400FB02459AEE54207003024488900250
:1043F800B3E0605A9002EBE060319002EB7400F099
:10440800120CAC900BCCE0F50CA3E0F50DE4F50E26
:10441800F50F780C1222437A207B009002ACE0F969
:10442800120BF27404121FF3E9804A9002EB740134
:10443800F0120E5C908BB512225A7A207B00900203
:10444800ACE0F9120BF27404121FF3E980277D0423
:104458007C0079007A407BAA120CE27D017C00790D
:10446800017A407BAA120CE27D107C0079037A4025
:104478007BAA120CE2EE6420FAEF6400FB02459A74
:10448800EE54407003024557120EB6E9F508900243
:10449800B5E07003024530E50870269002EFE0F9B8
:1044A800120EBC120E9E908BB912225A7A407B00D3
:1044B8009002ACE0F9120BF27404121FF3E9024502
:1044C8004D9002F0E0600E9002EFE0F9120EBC9001
:1044D80002F07400F074026508702F120CB8900B8B
:1044E800CEE024C4F50CA3E034FFF50DE4F50EF599
:1044F8000F780C1222437A407B009002ACE0F9124C
:104508000BF27404121FF3E9803B120EB0E9908B92
:10451800B912225A7A407B009002ACE0F9120BF2F1
:104528007404121FF3E9801D120EA47D067C007925
:10453800007A507BAA120CE27D017C0079017A5046
:104548007BAA120CE2EE6440FAEF6400FB8043EEB3
:104558005400F8EF5410F9E8496033750A58750BA0
:1045680002780A122247750A04750B00780A12228B
:104578004779027C3F7D017A2F7B0112111A74045E
:10458800121FF3E9EE6400FAEF6410FB80047A006E
:104598007B007424121FF37F0802210674F712208F
:1045A80034EAFEEBFF8E828F83E064C070148E8243
:1045B8008F83A3A3A3E0FA8E828F83A3A3E0F912CB
:1045C8000C7C7F0102210674F712203474FC121F40
:1045D800DDE9FEEAFF8518828519837400F0EFA2F1
:1045E800E040030246909002EE7401F0908BD112E5
:1045F800225A7A807B009002ACE0F9120BF2740424
:10460800121FF3E99002F1E0706F9002ADE06405CB
:10461800603E7403122028AC82AD837A057B0312B6
:1046280010D8E97403122028E0700A7401122028B7
:104638007401F0800874011220287400F0740112CB
:104648002028AC82AD8379017A057B031210D2E968
:104658009002ADE06405703074021220287401F0F5
:104668001210EAE97402122028AC82AD8379017A2B
:10467800057B031210D2E9800FEFA2E0500A8518DB
:1046880082851983E0D2E2F0EFA2E1500A85188210
:10469800851983E0D2E0F0EFA2E2500A85188285FE
:1046A8001983E0D2E1F0EFA2E040069002EE740038
:1046B800F0851882851983AC82AD837A017900125E
:1046C8001120E97404121FF37F01022106C082C081
:1046D800839002B1E060069002B17400F09002B6D7
:1046E800E060069002B67400F09002B4E06009122F
:1046F8000EC89002B47400F09002B2E06006900216
:10470800B27400F0D083D08202013574F4122034E0
:1047180074E2121FDDE9FEEE1460161470030248FD
:10472800CC14700302490124FE70030248D60249E2
:1047380004851882851983AC82AD837A047B0312C1
:1047480010D8E9750808750900780812224774021C
:10475800122028AC82AD837418122028AA82AB8359
:10476800120B1A7402121FF37405122028E0C0E01D
:104778007407122028D0E0F07404122028E0C0E06A
:104788007406122028D0E0F07403122028E0C0E05C
:104798007405122028D0E0F074041220287400F068
:1047A80074031220287400F0851882851983AC825E
:1047B800AD837A087900120D2AE9908C70C082C006
:1047C800837408122028AC82AD83D083D082740E03
:1047D800121EF07F00750905E509C39400A2D26591
:1047E800D03350030248B9E509F83395E0F9741657
:1047F800122028E58228F582E58339F583E0F5085B
:10480800E508C3940A506B7C667D8CEFF87900E864
:1048180075F002A4C8AAF075F000A42AFA75F0028F
:10482800E9A42AF97408122028E58228FAE58339D0
:10483800FB121C787910EFFA7B00EA75F002A4CA23
:10484800A8F075F000A428F875F002EBA428FB7412
:1048580008122028E5822AF582E5833BF583A3AC7C
:1048680082AD8385080A750B00AA0AAB0B120C22CD
:1048780080357910EFFA7B00EA75F002A4CAA8F037
:1048880075F000A428F875F002EBA428FB74081250
:104898002028E5822AFCE5833BFD85080A750B0084
:1048A800AA0AAB0B120C220F74FF2509F50902475F
:1048B800E07408122028AC82AD837A0C7902120DBC
:1048C8002AE980387A017901120F52E9802E908BFB
:1048D800D512225A7A007B109002ACE0F9120BF242
:1048E8007404121FF3E97A007901120F52E9900259
:1048F800EA7400F0120CC48003120C82EE9002AD30
:10490800F0741E121FF37F04022106C082C0837454
:10491800FD121FDD851882851983AA82AB83120ECA
:1049280050E96012851882851983AC82AD837A03B9
:104938007900120CEEE97403121FF3D083D08202BF
:10494800013574F412203474D1121FDDEAFEEBFF36
:1049580074041220287400F0A37400F0740212206A
:10496800287400F0A37400F08518828519837400F8
:10497800F0A37400F08518828519838582088583E1
:104988000978081222477404122028AC82AD837477
:1049980006122028AA82AB83120A607402121FF33F
:1049A800EEFCEFFD7406122028AA82AB83120C6479
:1049B800E97404122028E0F508A3E0F509740878E2
:1049C80008121FABE508740F122028E508F07404DC
:1049D800122028E0F8A3E0F9E8C0E0740E122028BD
:1049E800D0E0F07402122028E0F508A3E0F509747D
:1049F800087808121FABE5087411122028E508F0A2
:104A08007402122028E0F8A3E0F9E8C0E07410125C
:104A18002028D0E0F0851882851983E0F508A3E006
:104A2800F50974087808121FABE5087413122028DA
:104A3800E508F0851882851983E0F8A3E0F9E8C055
:104A4800E07412122028D0E0F07406122028E0F555
:104A580008A3E0F50974087808121FABE508741577
:104A6800122028E508F07406122028E0F8A3E0F9DF
:104A7800E8C0E07414122028D0E0F074081220284E
:104A8800E0F508A3E0F50974087808121FABE508FB
:104A98007417122028E508F07408122028E0F8A3FB
:104AA800E0F9E8C0E07416122028D0E0F0740A1289
:104AB8002028E0F508A3E0F50974087808121FAB70
:104AC800E5087419122028E508F0740A122028E075
:104AD800F8A3E0F9E8C0E07418122028D0E0F074D8
:104AE8000C122028E0F508A3E0F5097408780812EC
:104AF8001FABE508741B122028E508F0740C12207F
:104B080028E0F8A3E0F9E8C0E0741A122028D0E001
:104B1800F0741C12202874AAF0741D12202874BB8B
:104B2800F0741E12202874AAF075080E7509007812
:104B3800081222477410122028AC82AD8374211207
:104B48002028AA82AB83120B1A7402121FF38A0A56
:104B58008B0B850A08850B09742D122028740DF01B
:104B6800742E122028740AF07C137D00741C122005
:104B780028AA82AB83120CE8742F121FF37F040259
:104B8800210674F0122034748C121FDD890B8A08F8
:104B9800908B46C082C0837404122028AC82AD83F7
:104BA800D083D0827408121EF0908B26C082C083F6
:104BB800746C122028AC82AD83D083D08274081222
:104BC8001EF0908B1EC082C0837464122028AC82B1
:104BD800AD83D083D0827408121EF0908B0EC082F1
:104BE800C083745C122028AC82AD83D083D08274D9
:104BF80008121EF0908AFEC082C0837454122028C6
:104C0800AC82AD83D083D0827408121EF0908AEEF5
:104C1800C082C083744C122028AC82AD83D083D06C
:104C2800827408121EF0908AE6C082C0837444120F
:104C38002028AC82AD83D083D0827408121EF090F5
:104C48008ADEC082C083743C122028AC82AD83D037
:104C580083D0827408121EF0908B56C082C0837471
:104C680034122028AC82AD83D083D0827408121EFF
:104C7800F0908B36C082C083742C122028AC82AD91
:104C880083D083D0827408121EF0908AD6C082C066
:104C9800837424122028AC82AD83D083D082740818
:104CA800121EF0908AF6C082C083741C122028ACB1
:104CB80082AD83D083D0827408121EF0908B2EC0F0
:104CC80082C0837414122028AC82AD83D083D08232
:104CD8007408121EF0908B4EC082C083740C122090
:104CE80028AC82AD83D083D0827408121EF074047D
:104CF800122028AE82AF83E5086039146042146040
:104D08004B14605414605C14606414606C14607418
:104D180014607C147003024DA2147003024DAD148C
:104D28007003024DB8147003024DC3147003024D92
:104D3800CE024DD97404122028AE82AF83024DE210
:104D4800746C122028AE82AF83024DE27464122084
:104D580028AE82AF83024DE2745C122028AE82AF87
:104D68008380777454122028AE82AF83806C744C91
:104D7800122028AE82AF8380617444122028AE824C
:104D8800AF838056743C122028AE82AF83804B7468
:104D980034122028AE82AF838040742C122028AEB3
:104DA80082AF8380357424122028AE82AF83802A94
:104DB800741C122028AE82AF83801F74141220281E
:104DC800AE82AF838014740C122028AE82AF838029
:104DD800097404122028AE82AF83E50B7015120CFB
:104DE8003AE9EEFAEFFB120C587A017944120C4CAE
:104DF800024F92120C3AE9EEFAEFFB120C587A00C5
:104E080079BE120C4C120C52E9F509120C52E9F554
:104E18000AE5086003024EC09002E77400F07C3097
:104E28007D0079FF7AB77B02120B329002E7E0F837
:104E3800790074B728F582740239F58374AAF09062
:104E480002E7E02401F09002E7E0F8790074B7285F
:104E5800F582740239F58374BBF09002E7E024010F
:104E6800F09002E7E0F8790074B728F58274023907
:104E7800F58374BBF09002E7E02401F0E5099002A5
:104E8800E7E0F8790074B728F582740239F583E50C
:104E980009F09002E7E02401F0E50A9002E7E0F863
:104EA800790074B728F582740239F583E50AF09021
:104EB80002E7E02401F0803AE5099002E7E0F8799A
:104EC8000074B728F582740239F583E509F0900279
:104ED800E7E02401F0E50A9002E7E0F8790074B70A
:104EE80028F582740239F583E50AF09002E7E02498
:104EF80001F0740D65086003024F929002E7E0F834
:104F0800790074B728F582740239F583740DF0902E
:104F180002E7E02401F09002E7E0F8790074B7288E
:104F2800F582740239F583740AF09002E7E02401EF
:104F3800F07C117D007AB77B02120CE87A007B00C6
:104F48007C007D00851882851983EAF0A3EBF0A325
:104F5800ECF0A3EDF0908BE9780C121EAD85188269
:104F6800851983780C121CA95015908BC5780C12E2
:104F78001EAD851882851983780C121E2680D67C72
:104F8800107D007AC87B02120CE87474121FF37F3C
:104F980008022106C082C08374FA121FDD851882B8
:104FA800851983AA82AB83120F76E960128518826D
:104FB800851983AC82AD837A067900121012E974E0
:104FC80006121FF3D083D082020135C082C08374D9
:104FD800F5121FDD7407122028AA82AB83120ED4A3
:104FE800E9605C85188285198374AAF0740112201F
:104FF8002874BBF0740212202874CCF074091220B3
:1050080028E0C0E07403122028D0E0F0740A1220CF
:1050180028E0C0E07404122028D0E0F074051220C3
:1050280028740DF07406122028740AF07C077D009D
:10503800851882851983AA82AB83120CE8804A8579
:10504800188285198374AAF0740112202874BBF0A1
:10505800740212202874CCF074031220287476F09D
:1050680074041220287476F07405122028740DF048
:105078007406122028740AF07C077D008518828542
:105088001983AA82AB83120CE8740B121FF3D08326
:10509800D082020135C082C08374FC121FDD8518DE
:1050A80082851983AA82AB83120E62E96012851881
:1050B80082851983AC82AD837A047900120CF4E9F5
:1050C8007404121FF3D083D082020135C082C083DA
:1050D80074FC121FDD851882851983AA82AB83129E
:1050E8000F16E96012851882851983AC82AD837A20
:1050F80004790012100CE97404121FF3D083D082D3
:10510800020135C082C08374FA121FDD85188285BA
:105118001983AA82AB83120EAAE9601285188285C8
:105128001983AC82AD837A067900120E32E97406CF
:10513800121FF3D083D08202013574F71220347421
:10514800FF121FDDE9FE146005146059806185189F
:1051580082851983AA82AB837901121024E9851804
:1051680082851983E0701B9002B1E060429002B121
:105178007400F07A007B019002ACE0F9120B6EE942
:10518800802D9002B1E0700D7A007B019002ACE0B6
:10519800F9120B6EE9851882851983E09002B1F047
:1051A800120A12800A7AD07B0B7902121024E97451
:1051B80001121FF37F01022106C082C0839002B64C
:1051C800E0701E9002B67401F0908BD912225A7AC0
:1051D800007B409002ACE0F9120BF27404121FF34A
:1051E800E9D083D08202013574F712203474FF129B
:1051F8001FDDE9FE14600514605C806485188285F3
:105208001983AA82AB837901120D42E98518828538
:105218001983E0701B9002B2E060459002B27400FE
:10522800F07A007B029002ACE0F9120B6EE9803054
:10523800851882851983E0640170259002B2E070B8
:105248001F9002B27401F07A007B029002ACE0F980
:10525800120B6EE9800A7AD27B0B7902120D42E9B1
:105268007401121FF37F0102210674F712203474AF
:10527800FF121FDDE9FE1460051460608068851860
:1052880082851983AA82AB837901120FCAE985182E
:1052980082851983E070199002B4E060139002B41B
:1052A8007400F07A087B009002ACE0F9120B6EE90A
:1052B800851882851983E06401702B9002B4E07030
:1052C800259002B47401F09002EC7400F07A087B27
:1052D800009002ACE0F9120B6EE9800A7AC87B0BE9
:1052E8007902120FCAE97401121FF37F0102210625
:1052F80074F012203474F8121FDD890A7401650AEB
:1053080060030253B7851882851983AA82AB837913
:1053180001120D0CE9851882851983E0FA7B007467
:1053280001122028E0F87900E4C8F9EA28F8EB39F6
:10533800F9E8FEE9FF7402122028E0FA7B00740302
:10534800122028E0F87900E4C8F9EA28F8EB39F9DE
:10535800880889097404122028E0FA7B0074051271
:105368002028E0F87900E4C8F9EA28F8EB39F98848
:105378000E890F7406122028E0FA7B0074071220A9
:1053880028E0F87900E4C8F9EA28F8EB39F9880C3C
:10539800890D780C122247780E1222477902AC0840
:1053A800AD09EEFAEFFB12111A7404121FF3E97437
:1053B80002650A70041210EAE97408121FF37F08E4
:1053C80002210674F412203474FA121FDDEAFEEB8F
:1053D800FF8C088D097412122028E0F50AA3E0F565
:1053E8000BEE851882851983F0EEF8EFF9E4E9F8F9
:1053F800C0E07401122028D0E0F0E5087402122001
:1054080028E508F0A808A909E4E509A809E5097448
:1054180003122028E509F0E50A7404122028E50A99
:10542800F0A80AA90BE4E50BA80BE50B74051220FC
:1054380028E50BF0851882851983AC82AD837A063E
:105448007900120D06E97406121FF37F0402210683
:1054580074F01220348A0A8B0B89088C0C8D09850C
:10546800090E750F00AA0EAB0F120BB08A0E8B0F28
:10547800AE0EAF0FEE4F700302551885090E750F6B
:1054880000AC0EAD0FA90CEEFAEFFB120B32850A39
:105498000E850B0F780E1222D10000060000AABF5D
:1054A8005410AACD5420AAE95430AADB5440AAF7D4
:1054B8005450AA05551155EEFCEFFDAA09A908128A
:1054C800100CE98044EEFCEFFDAA09A908120CEEC5
:1054D800E98036EEFCEFFDAA09A908121012E9804E
:1054E80028EEFCEFFDAA09A908120FC4E9801AEEFC
:1054F800FCEFFDAA09A908120CF4E9800CEEFCEFF8
:10550800FDAA09A908120E32E9EEFAEFFB120BB652
:105518007F0802210674F31220348A088B09ECFEF6
:10552800EDFFC3EE9415EF94004005750C1480034D
:10553800EEF50C900339742EF0A37400F0E50C908E
:10554800033BF0850C0A750B00780A122247AC0859
:10555800AD097A3C7B03120B1A7402121FF379000F
:105568007C397D037A007B001213F0E97F05022164
:105578000674EE12203474FA121FDD8A0A8B0B8926
:1055880009ECFEEDFF750800850A0C850B0D780CFB
:1055980012228B0004105258C255E3550256235666
:1055A800445665569856B956D056FE56BC57DD57E0
:1055B800FD572758525852582957740165097015D4
:1055C8008E828F83E0C39403500B8E828F83E0908A
:1055D8000EE1F0800375081802587B7402650970A3
:1055E800138E828F83E0F8A3E0F9900EE2E8F0A32F
:1055F800E9F0800375081802587B74016509701575
:105608008E828F83E0C39402500B8E828F83E0904A
:1056180003A6F0800375081802587B7401650970A9
:10562800158E828F83E0C39405500B8E828F83E0A2
:105638009003A7F0800375081802587B7401650968
:1056480070158E828F83E0C39402500B8E828F83F5
:10565800E09003A8F0800375081802587B74106561
:10566800097027750C10750D00780C122247EEFC96
:10567800EFFD7AA97B03120B1A7402121FF38A0C2E
:105688008B0D850C82850D83800375081802587B65
:105698007401650970158E828F83E0C39402500BE4
:1056A8008E828F83E09003B9F08003750818025842
:1056B8007B74016509700B8E828F83E0900EE5F094
:1056C800800375081802587B740465097022908B52
:1056D800A9780C121EAD8E828F83780C121CA950EB
:1056E8000F8E828F83121ECB9003BB121ED78003AE
:1056F80075081802587BE5097021121378E97013B0
:10570800120DD8E9F50C79501210CCE9F50D120DEF
:10571800C6800B90044E7401F08003750818025877
:105728007B7407650960030257B6750E06750F008E
:10573800780E1222478E828F83A3AC82AD837402C7
:10574800122028AA82AB83120B207402121FF38A3C
:10575800108B1185100E85110F7C007D0085188235
:10576800851983AA82AB838E828F83E0F9120D6C30
:10577800E9F50CE50CC3940A502F121378E970155B
:10578800A90C120DDEE9F50D79501210CCE9F50ED1
:10579800120DC6801C750D00744F250CF58274041B
:1057A800350DF5837401F0800875080280037508CB
:1057B8001802587B7401650970158E828F83E0C3C7
:1057C8009402500B8E828F83E09003BAF0800375A9
:1057D800081802587B7401650970158E828F83E062
:1057E800C3940A500B8E828F83E0900EE4F08003FE
:1057F800750818807E74016509701F8E828F83E09A
:10580800C3940740158E828F83E0C39411500B8E8A
:10581800828F83E0900EE6F08059750818805474E2
:10582800016509702090044DE0F50C8E828F83E0AD
:1058380090044DF0E50C703B90044DE0640170332A
:10584800120DC6802E7508188029C3E50A9427E52D
:105858000B9400501B7402650970158E828F83E0CB
:10586800FCA3E0FDAA0AAB0B121216E9F5088003A7
:10587800750802A9087406121FF37F0A022106742C
:10588800EC12203474DA121FDD890D8A128B138C06
:105898000A8D0B743A122028E0F50C908B88C08290
:1058A800C083851882851983AC82AD83D083D0826A
:1058B8007406121EF0851882851983AC82AD83AAFE
:1058C80012AB13A90D120D6CE9FEEEC3940A400346
:1058D800025A26EEF9120DA8E9FF900EE1E06402E3
:1058E8007004740180027400F508780812224BAD28
:1058F8000CEFFCEEF9AA0AAB0B120E1A7401121F78
:10590800F37C147D0079007412122028AA82AB83DC
:10591800120B328A0E8B0F850E08850F097412122E
:105928002028AC82AD837A1075F006EEA42424F901
:105938001210C6E970437C1079FF7412122028AA4D
:1059480082AB83120B92E970307422122028AC8249
:10595800AD837A0475F006EEA42425F91210C6E981
:10596800F5087412122028AC82AD83EFA2E0E4336C
:10597800F9AA0AAB0B1212A0E97406122028AC820D
:10598800AD837A0C74702EF91210C6E9707E740615
:10599800122028AA82AB83120D9C750E00E50EC357
:1059A80094045068E50EA80E7900E875F003A4C8C1
:1059B800AAF075F000A42AFA75F003E9A42AF9748C
:1059C80006122028E58228F508E58339F5098508B7
:1059D80082850983E0F8A3E0F9E849602B8508820D
:1059E800850983A3A3E0F5107511007810122247EA
:1059F800850882850983E0FCA3E0FDAA0AAB0B12A7
:105A080015047402121FF3E9050E8091EFA2E1500C
:105A18000D9003A5E0F9AA0AAB0B12150AE9740464
:105A2800650C700F900EE1E064027007AA0AAB0BD8
:105A3800120E1479007426121FF37F0C02210674CB
:105A4800F2122034890BEAFEEBFF8C088D09750AE7
:105A58000AE50B600C146009146044146064025A6F
:105A6800EBEEFAEFFB120DBAE9F50AE50AC3940A60
:105A78005071E5084509606B750C06750D00780CCA
:105A8800122247EEFCEFFDAA08AB09120B1A7402AA
:105A9800121FF38A0C8B0D850C82850D838044EED2
:105AA800FAEFFB120DB4E9F50AE50AC3940A50337C
:105AB800E5084509602DAA08AB09A90A120DAEE947
:105AC8008021EEFAEFFB120DC0E9F50AE50AC3944E
:105AD8000A5010E5084509600AAA08AB09A90A1284
:105AE8000DAEE9A90A7F0602210674F21220348A53
:105AF8000C8B0DE9FE7F1574FF650C700474FF654F
:105B08000D702A750800E508C3940A5014EEFC7A53
:105B1800027B00A908120D8AE960027F000508804F
:105B2800E5EE60637A027B0E121708805AAA0CAB66
