:020000040000FA
:0600000002011D022B03AA
:03002B000223C3EA
:0300330002239B0A
:03005300022B7607
:03006B000223422B
:03007B0002236AF3
:1000830002296FE5C754F84401F5C779012200003E
:100093000080FB120086B90003020107E47921788E
:1000A30008B800028004F709D8FCE479297802B87B
:1000B30000028004F709D8FCE490028178F1790802
:1000C3008002F0A3D8FCD9FA781A90014D7A01BACC
:1000D30000028007E493A3F608DAF9900A71AA8272
:1000E300AB8390014E786179098015E493A3AC82C8
:1000F300AD838A828B83F0A3AA82AB838C828D83A8
:10010300D8E9D9E77582B675839F740412012F75F8
:100113008291758300740012012F75D00075813FA1
:10012300751881751902759F00020096C09FF59F8F
:10013300E473D09F22D083D082C09FE493C0E07445
:100143000193C0E0740293F59F2201AE09B409BA8A
:1001530009C009C609CC09D209D809DE09E409EAAC
:1001630009F009F609FC09020A080A68FFFF037B84
:10017300034CCD6C03AB0336567600680402CB47C1
:10018300A202180400058BC1010C04000000000347
:100193007F060CC92C979797038903264666006C44
:1001A300022000024004000000000244040000009A
:1001B3000002480400000000024C0400000000029A
:1001C3005004000000000254040000000002580420
:1001D30000000000025C040000000002BC040000F8
:1001E300000001EC0400004000037F060CC92C97BB
:1001F30097970402030D355D040904872D353D00EF
:10020300A3010000000001078601FE074105F1205C
:10021300283038077E01300746019A074704F12842
:100223003038076C04F1283038021602000101B29D
:1002330002FFFF0190040923A135016A02060001B0
:10024300600800000000000000000060044000009F
:10025300000162020000006004004000000B095628
:10026300756C7475726545676705122F013F01024E
:100273000A000201061302454501020304050607AD
:1002830008090A0B0C0D0E0F1045676700D007E82D
:1002930003E8037011E803E803D00760EA2A008A41
:1002A3000C0000C00CC60CCC0CD20CD80C12416351
:1002B30063656C2E2044617461000A416363656C5D
:1002C3002E20436F6E662E000A0A416363656C2E0F
:1002D30020506572696F640002EE8A010000188C79
:1002E300023E8C010000D30B10288A010000430357
:1002F30002448C030000460302428C010000D40B2D
:10030300023E8C010000E00B10388A0300004C030E
:1003130002428C010000E10B023E8C010000EE0B57
:1003230010488A030000EF0B02428C010000F00B1F
:10033300124261726F6D2E2044617461000A426142
:10034300726F6D2E20436F6E662E00024261726FD4
:100353006D2E2043616C6962722E000A0A4261723B
:100363006F6D2E20506572696F640002EE8A010082
:1003730000398C023E8C010000560C10788A010073
:10038300004D0302448C030000510302428C010020
:1003930000570C023E8C010000630C10888A030096
:1003A30000570302428C010000640C023E8C0100E2
:1003B30000810C10A88A030000820C02428C010009
:1003C30000830C023E8C010000710C10988A01001E
:1003D30000580302448C030000680302428C0100AE
:1003E30000720C12436F6E6E2E20506172616D733A
:1003F3000008436F6E6E2E20506172616D73205240
:1004030065710008446973636F6E6E65637420528F
:1004130065710002EE8A0100001B8C023E8C010014
:1004230000090D10588A010000700302448C030078
:1004330000760302428C0100000A0D023E8C01008B
:1004430000170D10088A0200007C0302428C010091
:1004530000180D023E8C010000290D10F8890200DE
:1004630000840302428C0100002A0D020202313291
:100473003334353637383930313200020202020262
:1004830002010D000000100102EE8A0100002D8C14
:10049300023E8C010000910D02648C010000850373
:1004A300023E8C010000920D02628C010000948BCD
:1004B300023E8C010000930D025C8C010000940D40
:1004C300023E8C010000A20D02588C010000168B25
:1004D300023E8C010000A30D02568C010000A58B87
:1004E300023E8C010000A10D024E8C0100005E8BC8
:1004F300023E8C010000A40D024C8C010000D98740
:10050300023E8C010000A50D024A8C010000C88A3E
:10051300023E8C010000A60D02468C010000A70DCF
:1005230012447331386232302E2044617461000A00
:10053300447331386232302E20436F6E662E000AC8
:10054300D007447331386232302E20506572696FA0
:10055300640002EE8A010000308C023E8C01000030
:10056300460E10C8890100008F0302448C0300006B
:10057300910302428C010000470E023E8C010000F1
:10058300550E10B889030000970302428C01000046
:10059300560E023E8C010000650E10A88903000070
:1005A300660E02428C010000680E01E803053F104D
:1005B3000A124779726F2044617461000A477972A5
:1005C3006F20436F6E662E000A0A4779726F2050C0
:1005D3006572696F640002EE8A010000158C023EA9
:1005E3008C010000D70E10888901000052040244D8
:1005F3008C030000580402428C010000D80E023E16
:100603008C010000E20E1078890300005E040242B0
:100613008C010000E30E023E8C010000EE0E106818
:1006230089030000EF0E02428C010000F00E01036B
:100633000080700061801248756D69642E204461EA
:100643007461000A48756D69642E20436F6E662ECF
:10065300000AD00748756D69642E20506572696F72
:10066300640002EE8A010000218C023E8C0100002E
:100673005C0F104889010000C20402448C0300008F
:10068300C60402428C0100005D0F023E8C01000093
:10069300690F103889030000CC0402428C0100006A
:1006A3006A0F023E8C010000770F102889030000B7
:1006B300780F02428C0100007A0F1254656D702E80
:1006C3002044617461000A54656D702E20436F6E7F
:1006D300662E000A1E54656D702E20506572696F78
:1006E300640002EE8A010000338C023E8C0100009C
:1006F300E00F100889010000CD0402448C030000C0
:10070300D10402428C010000E10F023E8C01000083
:10071300EC0F10F888030000D70402428C0100009C
:10072300ED0F023E8C010000F90F10E88803000072
:10073300FA0F02428C010000FB0F124D61676E2E0F
:100743002044617461000A4D61676E2E20436F6E11
:10075300662E000A0A4D61676E2E20506572696F1E
:10076300640002EE8A010000368C023E8C01000018
:10077300601010C888010000D80402448C030000F4
:10078300DE0402428C0100006110023E8C01000075
:100793006C1010B888030000E40402428C010000CE
:1007A3006D10023E8C010000791010A88803000030
:1007B3007A1002428C0100007B10124D70753630A6
:1007C30035302E2044617461000A4D707536303522
:1007D300302E20436F6E662E000AC8004D707536AA
:1007E3003035302E20506572696F640002EE8A0145
:1007F30000002A8C023E8C010000E0101088880162
:100803000000E70402448C030000F50402428C015B
:100813000000E110023E8C010000EF101078880305
:100823000000FB0402428C010000F010023E8C0128
:100833000000FF10106888030000001102428C01C1
:1008430000000211FF0001307503020106000000E1
:100853000000000000000000000000000000000095
:10086300000000000000000000FFFF0600800CE80D
:1008730003104B6579205072657373205374617450
:10088300650002EE8A010000278C023E8C01000005
:10089300971102528C000000AB0502448C03000048
:1008A300AC0502428C0100009811FF0000B4000067
:1008B30028002800283075A000A000A000A0000098
:1008C300080008E001F000100010001000100010F4
:1008D30000100050005000500010001000D007001E
:1008E30000000000000F0001000500307507001034
:1008F30000010081FF00000000FFF0120E13F6124A
:10090300FF02020208025000A0000000E80302EE0A
:100913008A010000248C023E8C0100002712024849
:100923008C010000E405023E8C01000028120254F1
:100933008C010000FA05023E8C0100002912025AC4
:100943008C010000FC05023E8C0100002A120260AB
:100953008C080000FD05023E8C0100002B12026A88
:100963008C0100002C12FF0100FF2002EE8A01001F
:10097300001E8C023E8C0100009012026C8C000061
:1009830000000002448C0300004A06C618C618C6BD
:1009930018C618C618C618C618C618C618C618C664
:1009A30018C618C6185A1B721B541B12013877B984
:1009B30003120138C3B90312013819BA03120138FB
:1009C300BEBA0312013872BB0312013891BB031282
:1009D3000138B0BB03120138DEBB0312013811BC6E
:1009E300031201388ABC0312013810BD0312013807
:1009F300B0BD0312013875BE03120138A7BE03123E
:100A03000138DCBE031201380ABF03120138B2F009
:100A130002120138D1F002120138F4F00212013847
:100A23001BF10212013842F10212013869F102127C
:100A3300013890F102120138B3F102120138D6F1F4
:100A430002120138F9F1021201381CF202120138C4
:100A53004EF20212013871F2021201389BF20212B5
:100A6300013837F3021201385CF30212013881F3C3
:100A730002120138A6F302120138CBF30212013835
:100A8300F0F30212013815F4021201383CF4021299
:100A930001387AF402120138A6F402120138D2F4B2
:100AA30002120138F7F40212013830F5021201384C
:100AB30057F50212013890F502120138B7F5021208
:100AC3000138F0F50212013817F6021201383CF62C
:100AD3000212013861F6021201389FF60212013840
:100AE300C2F602120138ECF602120138CBF70212F9
:100AF300013873F902120138C3F902120138F0FA0E
:100B0300021201380FFB0212013832FB02120138C4
:100B13000C9D03120138219D03120138799D0312A4
:100B23000138E09D03120138289E031201389E9E6E
:100B330003120138CD9E03120138DB9E03120138E4
:100B43003F9F031201387D9F03120138989F0312C0
:100B5300013830A003120138D9A0031201385CA177
:100B63000312013895A10312013820A203120138A0
:100B730077A203120138D6A203120138E8A20312A6
:100B830001380EA30312013817A30312013876A408
:100B930003120138738F0412013852900412013882
:100BA3006AF903120138AFF903120138F5F9031298
:100BB300013888FB031201384F98041201386A98F0
:100BC300041201387A9804120138D19804120138BA
:100BD300059E041201384AB3031201386AB30312A3
:100BE30001386EB403120138BAB403120138DAB40F
:100BF300031201382DB5031201389AB503120138D7
:100C0300E0B50312013844B603120138F6B80312F3
:100C130001380080041201383080041201386080EA
:100C2300041201382381041201387D810412013832
:100C3300E48604120138FC86041201385987041231
:100C430001389D8704120138CF87041201380688C2
:100C5300041201382988041201383C320012013889
:100C6300CE38001201389539001201389B39001231
:100C730001381B3C001201380145001201382C4594
:100C8300001201383246001201386446001201385E
:100C9300614800120138984800120138D84A0012FE
:100CA3000138EA4E00120138214F00120138EB4F90
:100CB3000012013822500012013859500012013835
:100CC3009050001201380F51001201389151001257
:100CD3000138175200120138EA52001201387753D3
:100CE300001201383C5400120138D699041201381D
:100CF3004C94041201380FD70312013862D7031240
:100D030001387FD70312013854D803120138D1D8E0
:100D130003120138AED90312013823DB0312013861
:100D230064C40312013889C403120138E7C40312EF
:100D3300013853DB03120138A6DB03120138CFDB82
:100D43000312013838DC0312013876DD031201384F
:100D530030DF03120138A89E0412013898540012A0
:100D63000138A65700120138665900120138115A8A
:100D730000120138B55A001201384E5B00120138D7
:100D83007D5B0012013857600012013802610012C6
:100D93000138726200120138DA62001201388E6380
:100DA300001201385066001201388F6600120138B4
:100DB300036700120138626700120138C16700122D
:100DC300013830680012013823690012013869695B
:100DD30000120138AE6900120138D16900120138DE
:100DE3004C6B001201385F6B00120138686C001203
:100DF3000138A76C00120138D36C00120138266D3C
:100E030000120138476D001201388B6D0012013852
:100E1300DD6F001201381E7000120138C970001214
:100E23000138347100120138717200120138F89BD5
:100E330004120138E89104120138AC92041201380B
:100E43008696041201386697041201381D9904121C
:100E530001383B9904120138C49904120138FFA0E8
:100E6300041201382093041201383093041201381C
:100E73004193041201384694041201380DF1031210
:100E83000138B3F103120138CFF303120138CCFB5D
:100E9300031201382EFC03120138A6FC0312013899
:100EA3004EFD031201386DFD031201387DFD03125F
:100EB3000138BCFD03120138D08C041201380A8DAD
:100EC300041201387D8D04120138B78D04120138E4
:100ED300C98D04120138008E0412013844850412AE
:100EE3000138938504120138C585041201385686EA
:100EF30004120138D28604120138008A0412013820
:100F0300298A04120138528A04120138128B0412FE
:100F13000138638B04120138738804120138A688E0
:100F2300041201382289041201384289041201385B
:100F3300A78904120138EF8904120138F2890412D7
:100F43000138E6FF01120138F8FF01120138FBFFF7
:100F530001120138AE9004120138FD9004120138D9
:100F6300299104120138499104120138D6910412CF
:100F73000138248E04120138758E04120138BC8E98
:100F830004120138468F04120138F87F0012013829
:100F9300BDF603120138B4F80312013820F9031225
:100FA300013867F9031201387DC903120138D0C92A
:100FB30003120138F9C903120138B7CA0312013801
:100FC30020CB031201385ECC0312013818CE031272
:100FD30001388C9A04120138429B041201386DDFE8
:100FE30003120138C0DF03120138E9DF03120138AD
:100FF30052E00312013890E1031201384AE303126D
:101003000138CEFD0312013837FE03120138F5FE15
:101013000312013874FF03120138EEEA0312013898
:1010230020EB0312013828EC031201384DED0312B3
:101033000138008003120138E6800312013833813E
:1010430003120138768103120138EB810312013850
:101053004C8203120138C182031201389D830312AB
:101063000138A88403120138298503120138D08678
:1010730003120138668703120138D9870312013836
:101083005588031201386C8803120138A3890312AF
:101093000138FD8903120138FCE70112013894EC91
:1010A3000112013868EF0112013891EF0112013882
:1010B300A8EF01120138D1EF0112013883F00112B8
:1010C300013869F201120138A4F301120138DAF888
:1010D3000112013813F90112013857F901120138CD
:1010E30069FA011201382AA004120138AE9C0412D5
:1010F3000138E58104120138FC81041201382D8284
:1011030004120138688204120138928204120138F1
:10111300BC8204120138D38204120138EA82041219
:1011230001380183041201382A83041201383D83F4
:101133000412013853830412013866830412013800
:101143008D8304120138698A031201386D8B0312EF
:101153000138A58B03120138C88B03120138D38BD6
:1011630003120138F68B03120138058D031201387F
:10117300DA8D03120138558E03120138DD8E031206
:101183000138188F031201384F8F03120138DD8F96
:1011930003120138B6900312013816910312013875
:1011A300219103120138A09103120138A391031274
:1011B3000138A6910312013835920312013838928F
:1011C3000312013868920312013892920312013814
:1011D30080930312013832940312013829FB011260
:1011E300013851FB011201387FFB01120138B6FBB4
:1011F3000112013814FC011201385FFC011201389D
:10120300AAFC01120138EAFC0112013830FD011277
:1012130001385EFD011201381BFE0112013825FE63
:101223000112013832FE0112013865FE0112013844
:1012330031FF011201383DFF0112013855FF011240
:1012430001385FFF0112013878970412013886973D
:10125300041201389E9704120138B697041201381C
:10126300519F02120138FD9F0212013878A0021229
:10127300013899A102120138D5A1021201387EA2C8
:101283000212013865A302120138C9A402120138FF
:1012930020A502120138A1A50212013891A602125B
:1012A3000138DEA60212013864A70212013896A79C
:1012B30002120138AAA902120138ECA9021201385C
:1012C3000AAA021201388DAA0212013861AB021276
:1012D300013829AC0212013827AC03120138FAACE9
:1012E30003120138A3AD03120138F6AD031201381E
:1012F300A6AE0312013832AF031201381EB0031237
:1013030001384DB00312013860B103120138A8B19E
:10131300031201387DB203120138B9B20312013846
:10132300D5B203120138329F0412013855E7031274
:1013330001386BE70312013891E703120138ADE876
:1013430003120138B7E803120138ECE9031201383C
:10135300E4EA031201383DBF031201386DC00312E2
:101363000138A0C003120138EAC003120138B1C228
:10137300031201380080021201386A800212013818
:10138300C98102120138D981021201380682021280
:1013930001385D82021201380683021201380D847E
:1013A30002120138D784021201383786021201383B
:1013B3007A86021201381F87021201386C870212E3
:1013C3000138928702120138A08902120138A589D7
:1013D30002120138AA8B02120138F78B021201386C
:1013E3006A8C021201389D8C021201383F8D021261
:1013F3000138E88D02120138208E02120138238E43
:10140300021201386B8E02120138AB8E02120138C0
:10141300028F02120138EAF30312013802F40312B5
:1014230001384AF40312013860F403120138A7F4B7
:1014330003120138BBF50312013848F603120138D1
:1014430093F603120138718C011201387D8C01125D
:101453000138B88C01120138FD8C01120138BD8DA1
:1014630001120138438E01120138A88E011201388E
:10147300D48E011201380D8F011201384B910112E4
:1014830001382F930112013815950112013858962E
:1014930001120138A69801120138B89901120138D6
:1014A300039B01120138139C01120138309C011275
:1014B30001386B9C011201388D9C01120138F09C9C
:1014C30001120138B1A10112013846A201120138FB
:1014D30097A201120138BEA20112013810A3011212
:1014E30001382EA30112013888A30112013871A417
:1014F30001120138E7A5011201386BA60112013868
:1015030055FB021201385FFB02120138A2FB0212E3
:101513000138BDFB021201384DFC0212013875FC83
:1015230002120138B2FC02120138E9FC021201383E
:1015330012FD0212013887FD021201389CFD0212CE
:101543000138B1FD02120138E2FD02120138F6FD45
:10155300021201381BFE0212013855FE0212013835
:1015630081FE02120138B9FE0212013838FF02125D
:10157300013881FF02120138ABFF02120138D6FF96
:10158300021201386D9504120138B1D802120138E4
:10159300DFD8021201382DDA021201380DDB0212F4
:1015A30001382CDB02120138A9DB02120138ECDB13
:1015B3000212013842DD0212013803DE0212013841
:1015C3008AE0021201382BE10212013821E20212F1
:1015D30001381EE30212013878E40212013803E5F0
:1015E30002120138758B04120138DE8B04120138A4
:1015F300328C04120138598C041201388A8C04127B
:10160300013855CE03120138C2CE0312013809CF77
:101613000312013821D0031201381DD103120138FE
:1016230000D203120138A39403120138E594031284
:101633000138B795031201389096031201388A973F
:10164300031201386C9803120138D598031201383C
:101653008B9903120138FF99031201386B9A031215
:101663000138949A031201380E9B03120138A79B89
:10167300031201380C9C03120138219C0312013818
:10168300679C03120138809C03120138E59C031206
:101693000138E89C0312013814EE031201383CEEC2
:1016A300031201387AEE0312013838EF03120138BE
:1016B3009FEF03120138BBEF03120138E3EF03126C
:1016C300013813F00312013822F0031201389FF09E
:1016D30003120138C5F003120138EF8F02120138EB
:1016E300CD9102120138FF93021201383B9402128A
:1016F30001386894021201385295021201389D95FF
:1017030002120138E89502120138FA9502120138E3
:101713003A96021201386F9602120138BD960212F0
:101723000138EC96021201380F97021201385C97C8
:1017330002120138E19702120138FB9902120138B3
:101743003A9C021201387B9C021201381D9E021240
:1017530001385E9E02120138D19E02120138279F82
:1017630002120138A57200120138A3730012013866
:101773003C7A001201385D7C00120138287E001289
:101783000138907F00120138D2A60112013881A7D7
:1017930001120138AEA701120138F4A70112013872
:1017A30034A901120138CAAA0112013844AB01124B
:1017B30001385FAB01120138DAAB0112013834ADE5
:1017C3000112013894AE011201389AAF01120138A7
:1017D300FBB00112013814B10112013872B10112C8
:1017E300013860B20112013893B20112013803B318
:1017F300011201387DB301120138C7B30112013858
:1018030091B40112013866B50112013845B60112CF
:101813000138D0B6011201383EB701120138B2B710
:1018230001120138DDB7011201389CB801120138E9
:1018330001BA011201381EBA011201383DBA011270
:1018430001382EBB0112013853BB011201387DBB95
:1018530001120138F8BB0112013852BC01120138E0
:10186300BBBD0112013869BE01120138AABE0112C3
:101873000138DDCA021201382BCB0212013837CBF3
:101883000212013815CC0212013846CC021201387B
:1018930077CC02120138F7CC021201382FCD021295
:1018A300013881CD02120138BECD02120138DBCFDF
:1018B3000212013801D202120138ECD302120138AC
:1018C300D6D502120138313200120138E9D30112A0
:1018D300013819D401120138F2DA0112013877DC28
:1018E3000112013874E2011201385CE3011201387C
:1018F30099E301120138BCE301120138EDE301124F
:101903000138F6E30112013800E401120138EEE474
:1019130001120138E4E501120138DABE011201387F
:10192300D9C201120138DFC2011201381ACA0112E9
:10193300013833CF0112013887E3031201381DE464
:101943000312013833E403120138A9E40312013806
:101953001DE5031201385BE503120138CFE50312DD
:10196300013848E60312013851E6031201385DE6F7
:101973000312013872E603120138B0E6031201388C
:10198300C6E60312013825E703120138C2D2031257
:101993000138CFD203120138E9D20312013828D318
:1019A3000312013866D303120138CBD30312013873
:1019B300E0D303120138EBD303120138F8D3031237
:1019C30001380FD4031201381DD40312013828D46F
:1019D3000312013834D40312013843D403120138FB
:1019E3004ED40312013871D40312013818D50312EF
:1019F300013828D50312013842D5031201385FD5C7
:101A0300031201387BD503120138A0D50312013824
:101A1300ABD503120138C0D503120138D4D5031254
:101A2300013835D6031201383BD60312013841D6AB
:101A33000312013847D6031201385FD60312013867
:101A430092D603120138B3BC0212013837BD021219
:101A53000138E6BD0212013845BF0212013866C1E2
:101A63000212013852C20212013887C2021201382F
:101A7300A9C20212013858C30212013850C502121A
:101A8300013879C5021201380BC6021201383DC66E
:101A9300021201384AC602120138A1C602120138E5
:101AA300C7C60212013834C90212013837CA0212FA
:101AB30001388FCA0212013842AE021201384CAF0C
:101AC3000212013833B0021201383DB0021201385C
:101AD3005FB0021201386BB00212013804B2021275
:101AE300013833B2021201384FB302120138A8B3DE
:101AF300021201380EB502120138EDB50212013897
:101B030049B602120138B6B602120138F1B6021212
:101B1300013830B702120138E9B90212013803BAA9
:101B2300021201388FBA021201389DBA021201382B
:101B3300F6BA0212013804BB0212013877BB021253
:101B43000138DBBB0212013825BC0212013884E5DF
:101B530002120138A6E502120138CCE7021201385D
:101B6300E1EA02120138F9EB02120138ACEC02127D
:101B730001388EED021201389F8304120138C483A9
:101B830004120138368404120138ADA4031201385B
:101B9300B6A403120138BFA40312013896A5031299
:101BA300013847A7031201387DA703120138B7A7ED
:101BB30003120138EDA70312013827A803120138D5
:101BC3005BA80312013887A803120138D0A80312B7
:101BD30001380AA90312013853A903120138ABA92A
:101BE30003120138E0A9031201383BAA031201389A
:101BF30075AA03120138C6AA03120138FCAA0312FC
:101C0300013836AB0312013864AB0312013887ABDA
:101C1300031201385A9D04120138869D04120138BB
:101C2300E19D04120138EB9D04120138FB9D04125F
:101C330001388FA004120138CDFF03120138BA7F97
:101C430000120138E1A004E066701008A3E066709A
:101C53000A08A3E066700408A3E06622C3E79608B7
:101C630009E7960809E7960809E79622C3E096086C
:101C7300A3E09608A3E09608A3E09622C008C3E079
:101C830096F50808A3E096420808A3E096420808E0
:101C9300A3E09645087001D3D00822080808EAC0DB
:101CA300E0EBC0E086F0E7A4FA180986F0E7A42A7F
:101CB300FA180986F0E7A42AFA180986F0E7A42A95
:101CC300FA1986F0E7A4FBE5F02AFA190886F0E78B
:101CD300A42BFBE5F03AFA190886F0E7A42BFBE501
:101CE300F03AFA18180986F0E7A4C5F02BFBE43A9A
:101CF300FA1908E7C5F0C6A426F6E5F03BFBE43A7B
:101D0300FA1886F0E7A4F6E5F00826F6E43B08F6B1
:101D1300E43A08F6D0E0FBD0E0FA22E4CFC0E0E4F6
:101D2300CEC0E0E4CDC0E0E4CCC0E075F020C3E673
:101D330033F608E633F608E633F608E633F6181802
:101D430018EC33FCED33FDEE33FEEF33FFC3EC97BA
:101D530009ED9709EE9709EF97191919400FFFEC51
:101D630097FC09ED97FD09EE97FE191906D5F0BE0C
:101D7300ECF709EDF709EEF709EFF7191919D0E0B8
:101D8300FCD0E0FDD0E0FED0E0FF2260160808089A
:101D9300C6C313C618C613C618C613C618C613C6B9
:101DA300D5E0EA227009080808226016181818C638
:101DB300C333C608C633C608C633C608C633C6D53A
:101DC300E0EA22E627F60809E637F60809E637F6D9
:101DD3000809E637F622E026F608A3E036F608A35C
:101DE300E036F608A3E036F622E026F008A3E03654
:101DF300F008A3E036F008A3E036F022C3E697F636
:101E03000809E697F60809E697F60809E697F62221
:101E1300C3E096F008A3E096F008A3E096F008A3C9
:101E2300E096F022E657F60809E657F60809E65762
:101E3300F60809E657F622E056F608A3E056F60838
:101E4300A3E056F608A3E056F622E056F008A3E016
:101E530056F008A3E056F008A3E056F022E0F60897
:101E6300A3E0F608A3E0F608A3E0F622E6F008A351
:101E7300E6F008A3E6F008A3E6F022E0FAA3E0FB0D
:101E8300A3E0FCA3E0FD22EAF0A3EBF0A3ECF0A3B4
:101E9300EDF022CAC0E0E6F0A308DAFAD0E0FA22B5
:101EA300CAC0E0E0A3C582CCC582C583CDC583F09B
:101EB300A3C582CCC582C583CDC583DAE6D0E0CA8B
:101EC30022C3E498F8E499F9121F058026C3E49A23
:101ED300FAE49BFBE920E7E9121F05E498F8E4998B
:101EE300F922C3E498F8E499F9121F05E498F8E499
:101EF30099F9C3E49AFAE49BFB22EB20E7CFE920AC
:101F0300E7E0B90010BB0008E88AF084F8AAF022E1
:101F1300E4FBC8FA22EB70227B10C833C8C933C96B
:101F2300335007C39AC3DBF280069A50012ADBEAD7
:101F3300C833F4C8C933F4C9FA2275F008E4C833C6
:101F4300C8C933C933C99AC99B5004C92AC93BD5E7
:101F5300F0ECFBC833F4C8E4C9FA22600D08C6A24A
:101F6300E713C618C613C6D5E0F322600C08C6C330
:101F730013C618C613C6D5E0F422700422600D18E8
:101F8300C6C333C608C633C6D5E0F41822251810D5
:101F9300AF08F518400215198008F5184002151905
:101FA300D2AF22C0D0251810AF08F518500205197A
:101FB3008008F51850020519D2AFD0D0222518F5A4
:101FC3008210AF08F518400215198008F518400271
:101FD3001519D2AF851983222518F582E43519F531
:101FE3008322E4732518C582C0E0E51934FFC58355
:101FF300C0E0E518C3958224F810AF0885831985DE
:1020030082188008858319858218D2AFCEF0A3E5A4
:1020130020F0A37808E608F0A3DEFAEFF0A3E58149
:1020230024FAF8E608F0A3E608F0A3E608F0A3080C
:1020330008E608F0A3E608F0A315811581D0E0FEB9
:10204300D0E0F8158115811581E8C0E0EEC0E022EB
:102053002518C582C0E0E51934FFC583C0E0E51843
:10206300C3958224F910AF088583198582188008E7
:10207300858319858218D2AFCEF0A3E520F0A3782B
:1020830008E608F0A3DEFAEFF0A3E58124FBF8E607
:1020930008F0A3E608F0A30808E608F0A3E608F0B2
:1020A300A315811581D0E0FED0E0F815811581E8F4
:1020B300C0E0EEC0E022851983851882E0A3FEE02C
:1020C300A3F5207808E0A3F608DFFAE0A3FFE0A376
:1020D300C0E0E0A3C0E0E0A3C0E0E0A3C0E0E0A371
:1020E300C0E010AF0885821885831980088582189F
:1020F300858319D2AFD083D08202013585198385B8
:102103001882E0A3FEE0A3F5207808E0A3F608DF39
:10211300FAE0A3FFE0A3C0E0E0A3C0E0E0A3C0E0D7
:10212300E0A3C0E010AF0885821885831980088575
:102133008218858319D2AFD083D08222C0D02518CC
:10214300C582C0E0E51934FFC583C0E0E518C39537
:102153008224F310AF08858319858218800885834C
:1021630019858218D2AFC8F0A3E9F0A3EAF0A3EB74
:10217300F0A37908E709F0A3D8FAECF0A3EDF0A3F4
:10218300EEF0A3EFF0A3D0E0F0A3D0E0F0A3D0E013
:10219300F0A3E520F0A3E5F0F0A3228519838518C9
:1021A30082E0C0E0A3E0F9A3E0FAA3E0FBA3780890
:1021B300E0F608A3DFFAE0FCA3E0FDA3E0FEA3E062
:1021C300FFA3E0C0E0A3E0C0E0A3E0F5D0A3E0F507
:1021D30020A3E0A3F5F010AF08858319858218804A
:1021E30008858319858218D2AFD082D083D0E0F8D6
:1021F300D0E03274048006740280027401C0E0F4FB
:1022030004121FC0D0E0121E9622740480047402CC
:102213008000CCC0E0EDC0E0E518C39CCCAD195004
:10222300011D10AF068C188D1980068C188D19D2DC
:10223300AF121EA3D0E0FDD0E0FC22D083D082E910
:10224300C0E0E493A3C386F0C5F095F0F908E493E6
:10225300A386F0C5F095F0700BE493A3C3994005F2
:10226300E9048002A3E475F002A42582F582E5F077
:102273003583F583D0E0F9E493A3C0E0E493C0E0B1
:1022830022D083D082ECC0E0EDC0E0E493A3FCE471
:1022930093A3FDED4C600D1222D0EC24FFFCED3432
:1022A300FFFD80EFE493A3FCE493A3FDED4C600DED
:1022B30012230FEC24FFFCED34FFFD80EFD0E0FD93
:1022C300D0E0FCE493A3C0E0E493C0E022C0E0C309
:1022D300E49396087401939618400FE4936670088C
:1022E30008740193661870007019A3A3C3E493964E
:1022F300087401939618A3A3400DD0E0D0E0D0E07A
:102303000222C0A3A3A3A3A3A3D0E022C0E0C0F0F2
:1023130088F0E4936670080874019366187000A847
:10232300F0A3A3700BD0F0D0E0D0E0D0E00222C045
:07233300A3A3D0F0D0E022CB
:10233C00C2AF02000022C0E074F212213FA2AFE44F
:10234C0033FED2AFE589A2E05003120F307589003D
:10235C00C2C5EEF8EEA2E092AF7F0102219EC0E072
:10236C0074F212213FA2AFE433FED2AFE58AA2E6AB
:10237C004006E58AA2E75003120F30758A00758A71
:10238C0000C2EBEEF8EEA2E092AF7F0102219EC0FC
:10239C00E0C0D0E8C0E0E9C0E0A2AFE433F8D2AFCF
:1023AC00758B00C2E8E8F9E8A2E092AFD0E0F9D072
:1023BC00E0F8D0D0D0E032C0E0C0D0E8C0E0E9C056
:1023CC00E0A2AFE433F8D2AFC2C7751A00E8F9E85F
:1023DC00A2E092AFD0E0F9D0E0F8D0D0D0E03274E7
:1023EC00F5122053EAFEEBFFEE2434F8EF3400F93B
:1023FC0088088909EE2435F582EF3400F583E0F87E
:10240C00EE2437F582EF3400F583E0F50AEC850A0B
:10241C00F0A4FCAAF0850AF0EDA42AFDE82CF8E45F
:10242C003DF97A257B00121F05EA85088285098310
:10243C00F0F8740758F97401B900028004C333D959
:10244C00FCFAE8131313541FF8EE28F8EF3400F9D4
:10245C00E8245DF582E93400F583E05A6008EE2447
:10246C0034F582EF802CEE2434F582EF3400F583C2
:10247C00E0C0E0EE2436F582EF3400F583E0F5F0B1
:10248C00D0E084A8F0EE28F8EF3400F9E82438F511
:10249C0082E93400F583E0F97F040220FF74F51221
:1024AC002053EAFEEBFFEE2434F582EF3400F58383
:1024BC00E0C0E0EE2435F582EF3400F583D0E0F097
:1024CC008E828F83A3A3A3A3A3A3A3C082C0838E56
:1024DC00828F83A3A3A3A3A3E0F8A3E0F9D083D0B6
:1024EC0082E0C398F508A3E099F509EE247FF58204
:1024FC00EF3400F583E064017069EE2480F582EF1F
:10250C003400F583E0F8A3E0F98E828F83A3A3A3B4
:10251C00A3A3A3A3E0FCA3E0FD8E828F83A3A3A3BC
:10252C00A3A3E0FAA3E0FBC3EA9CEB9D5010C3EC21
:10253C0098ED99402EC3EA98EB995027800EC3EA88
:10254C0098EB994007C3EC98ED9940177C0D7D08EA
:10255C00EEFAEFFB121824EE247FF582EF3400F52F
:10256C0083E4F0EE2434F8EF3400F9E8FCE9FDEEF6
:10257C002435F582EF3400F583E0F8EE2437F5824C
:10258C00EF3400F583E0F50AE508850AF0A4F508B8
:10259C00AAF0850AF0E509A42AF509E82508F8E46B
:1025AC003509F97A257B00121F05EA8C828D83F0A0
:1025BC00F8740758F97401B900028004C333D9FCCC
:1025CC00FAE8131313541FF8EE28F8EF3400F9E867
:1025DC00245DF582E93400F583E05A6008EE24347A
:1025EC00F582EF802CEE2434F582EF3400F583E095
:1025FC00C0E0EE2436F582EF3400F583E0F5F0D040
:10260C00E084A8F0EE28F8EF3400F9E82438F582DD
:10261C00E93400F583E0F91232230224A4C082C00D
:10262C0083851882851983E0F8A3E0F9C3EA9CEB53
:10263C009D5010C3EC98ED99401BC3EA98EB995050
:10264C0014800EC3EA98EB994007C3EC98ED9940BF
:10265C0004790180027900D083D08222EAC39CFAEB
:10266C00EB9DFB2274EF1220539006D3E0640860BC
:10267C0005E06407702A9061C8E06024900701E0CF
:10268C00F4601DE0F875F003A4C8AAF02AF97403ED
:10269C0028FE740739FF8E828F83A3A3A3E07003F7
:1026AC000227A0906060E0C0E0EE2468F582EF3471
:1026BC0000F583D0E0F0750C76750D087508007583
:1026CC000900E5D914F50AE5D95403F50E60177421
:1026DC0003650E605CE50A6010EE2467F582EF344A
:1026EC0000F583E07003022785900871E0640160B7
:1026FC002AEE2482F582EF3400F583E0600478043E
:10270C0080027800850A08E508C398FA95E0FB1268
:10271C0016EC8A088B09EA45097005121A28807490
:10272C00EE2482F582EF3400F583E070048A0C8B82
:10273C000DE50A6012850C82850D83F50BE5D9F049
:10274C00A3150BE50B70F6EE2482F582EF3400F541
:10275C0083E0604474FC250AF50A780C1221FAAC6B
:10276C000AA90EEEFAEFFB1218C07402121FA6E9AA
:10277C007026AA08AB09121008793D8E828F83A3AC
:10278C00A3A3A3E0FA7B001215C0EEFAEFFB12181C
:10279C003C1218D2790080747403650E6056850A59
:1027AC001075110078101221FAAC0CAD0DAA08AB03
:1027BC000912189C7402121FA6EE2468F582EF34DD
:1027CC0000F583E064807004747F8001E0F50C7880
:1027DC000C1221FEE50EF50C780C1221FEA90AACA8
:1027EC0008AD09900701E0FA7B00121584740212FF
:1027FC001FA680139006D3E06408600BAC0CAD0DE3
:10280C00EEFAEFFB12192C121A3479017F0A02200E
:10281C00FF74F512205374FC121F90EAFEEBFF8933
:10282C0008A2AFE433F509C2AF806AEE2463F8EF77
:10283C003400F97A007B00A2AFE433F50AC2AF880A
:10284C00828983E0FCA3E0FDEC4D603A88828983A9
:10285C00E0FAA3E0FB8A828B83E0FCA3E0FD888294
:10286C008983ECF0A3EDF08A828B83E4F0A3F088EB
:10287C00828983E0FCA3E0FDEC4D700A8882898399
:10288C00A3A3E4F0A3F0E50AA2E092AF1210089023
:10289C000814E004F0EE2463F582EF3400F583E0D5
:1028AC00F8A3E0F9E849603DEE2463F582EF3400CB
:1028BC00F583E02402FAA3E03400FBEA2402F50AD3
:1028CC00EB3400F50B780A1221FA8A828B83E0FC38
:1028DC00A3E0F9EEFAEFFB1218607402121FA6E9DE
:1028EC007003022837900814E06063900815E0F834
:1028FC00900814E0C398500C74026508705090084E
:10290C0016E0604A8E828F83A3A3A3A3E08518826E
:10291C00851983F0A3E4F0900814E0F87402121FF8
:10292C00DBE8F0A3E4F0900814E0F8900813E0283A
:10293C00F07402121FDBAC82AD838518828519837B
:10294C00AA82AB837901121590900814E4F0E50982
:10295C00A2E092AF7404121FA60224A485218785DD
:10296C0022C622C0E0C0D0E8C0E0E9C0E0EAC0E086
:10297C00EBC0E0ECC0E0EDC0E0EEC0E0C008C00988
:10298C00C00AC00BC082C083C0F0A2AFE433FEC249
:10299C00AF759B00906182E0A2E05012E591A2E03D
:1029AC00500C7591FE740165217003122670E0A223
:1029BC00E55051E591A2E5504B7591DF9006D3E0BF
:1029CC0064076005E0640870237401652170357933
:1029DC0001900701E0FA75F003A4CAA8F028FB7473
:1029EC00032AFA74073BFB12281D8018E0640D7053
:1029FC00139006F5E004F064287002E4F07A00E02D
:102A0C00F9121A3A906182E0A2E64003022AB6E576
:102A1C0091A2E64003022AB67591BF9006D3E064FA
:102A2C0005700812196212196E800312196875214B
:102A3C00001219C8E99006D4F079001219BC1217CB
:102A4C009A7A017B009006D2E0F9120B6A90780317
:102A5C00E064427055900875E014F0704DC2AF12EE
:102A6C002A6E00782AD0E0F618D0E0F6E59F5407DD
:102A7C0070057509FF800375097FC4C0E07829E6ED
:102A8C00F50808E65509F509740B7808121F6ED085
:102A9C00E02508F8906270E0A2E740F8E8C33390B4
:102AAC006272F0906270E0D2E0F0906181E0A2E39B
:102ABC005009E5E9A2E3500375E9F7A3E0A2E7505A
:102ACC0009E591A2E7500375917FEEA2E092AFD099
:102ADC00F0D083D082D00BD00AD009D008D0E0FE41
:102AEC00D0E0FDD0E0FCD0E0FBD0E0FAD0E0F9D0B3
:102AFC00E0F8D0D0D0E032C0E0C0D0C082C083902B
:102B0C006183E0A2E05009E5BFA2E0500375BFFE6F
:102B1C00E0A2E15009E5BFA2E1500375BFFDE0A2C0
:102B2C00E25009E5BFA2E2500375BFFBE0A2E350FF
:102B3C0009E5BFA2E3500375BFF7E0A2E45009E535
:102B4C00BFA2E4500375BFEFE0A2E55009E5BFA2B8
:102B5C00E5500375BFDFE0A2E65009E5BFA2E650E1
:102B6C000375BFBFD083D0828088C0E0C0D0E8C0DE
:102B7C00E0E9C0E0EAC0E0EBC0E0ECC0E0EDC0E0B2
:102B8C00C0F0E5A7A2E6500FE5A1A2E6500953A7B5
:102B9C00BF75A1BF122BDBE5A7A2E5500CE5A1A2E6
:102BAC00E5500653A7DF75A1DFE5A7A2E15009E5C3
:102BBC00A1A2E1500375A1FDE5A7A2E2500CE5A18D
:102BCC00A2E2500653A7FB75A1FBD0F0022AEC74CD
:102BDC00F81220537521019006D3E064067015128B
:102BEC0018F08A828B83A3A3A3A3A3A3E0FAA3E088
:102BFC00FB121950A2AFE433FED2AF9006D9E064B9
:102C0C000170187A207B009006D2E0F9120BFA7A48
:102C1C00207B009006D2E0F9120B70906182E0D21A
:102C2C00E6F0900872E0602185C62280169006D8E6
:102C3C00E064017008E5C654F84405F5C653BEFCC3
:102C4C001229687401652160E4EEA2E092AF7F0165
:102C5C000220FF008E238F248582288583278518E8
:102C6C0082851983E0CEA3E0CF852882852783EB6C
:102C7C00C9EAC8EDCBECCA75F010C3E833C8E93328
:102C8C00C9EA33CAEB33CBC3EA9EF526EB9FF52595
:102C9C00B35004AB25AA26EC33CCED33CDD5F0DA0A
:102CAC00AE23AF242274E912205374F8121F9085BE
:102CBC001882851983ECF0A3EDF08A088B09900635
:102CCC00D3E024F7C394055006750801022E481270
:102CDC0018F08A0A8B0BAE0AAF0BEE4F7003022E64
:102CEC0045AC08AD097402121FDBAA82AB83121922
:102CFC00808E828F83A3A3750CFF750DFF750EFF5D
:102D0C00750F00780C121E3A7402121FDB7510FF3F
:102D1C007511FF7512FF7513007810121E3A780C9E
:102D2C007910121C5F502A780C7910121DFF75084F
:102D3C00017509C8750A00750B007808790C121C0E
:102D4C005F5052850C08850D09850E0A850F0B8086
:102D5C00507514017515C875160075170085100887
:102D6C0085110985120A85130B7808790C121DFF41
:102D7C0078147908121C5F401C75080075090075E1
:102D8C000A00750B0178087910121DFF7808790C70
:102D9C00121DC6800C750801750900750A00750BAB
:102DAC000074097808121DA7750C19F50DF50EF5B0
:102DBC000F7808790C121D1E8E828F83A3A3A3A3F8
:102DCC00A3A3E0F8A3E0F97AD07B03121F05880CCB
:102DDC00890DE4F50EF50F7808790C121DC67406F2
:102DEC00121FDBE0F8A3E0F97AD07B03121F05E891
:102DFC00FA8A0CE4F50D7808790C121C5F500778F0
:102E0C0008790C121DFF9006D3E06408600AE06498
:102E1C00066005E06405702D750C0D780C790812B0
:102E2C001C5F4021750CF4750DFF750EFF750FFFBF
:102E3C007808790C121DC6800C7508007509007590
:102E4C000A00750B00851882851983E0F8A3E0F55C
:102E5C008388827808121E6F7408121FA67F1002D6
:102E6C0020FF74F7122053121992900870E064013D
:102E7C007010906245E4F0A3F053F4F343FE0C534E
:102E8C0090F312193EE5C654804449F5C6E59E54AC
:102E9C007F644970F8906185740FF090086EE0F4CF
:102EAC007002A3E0604E90086FE0600814601B1481
:102EBC00602E804075080175090090086EE0780856
:102ECC00121F7DE508F45280802A750801750900EF
:102EDC0090086EE07808121F7DE508F4529080147B
:102EEC0075080175090090086EE07808121F7DE5E1
:102EFC0008F452A079007F020220FF74F7122053CD
:102F0C00E9FEEAFF74016E700C7A807B009006D2A9
:102F1C00E0F9120B6A903234E493F46008E493F90C
:102F2C0012178E800953C680E59E547F70FA1219D1
:102F3C0044900870E0640170031217A690086EE0CC
:102F4C00F47002A3E0604B90086FE0600814601A04
:102F5C0014602C803D75080175090090086EE078AE
:102F6C0008121F7DE508428080287508017509004C
:102F7C0090086EE07808121F7DE50842908013756A
:102F8C00080175090090086EE07808121F7DE508AD
:102F9C0042A01219921218F08A088B09A808A909E4
:102FAC00E8496015E5E170FCE82414F582E9340089
:102FBC00F583E0F46003E0F5E174016F700A7A01C7
:102FCC009006D2E0F9120BC4022F0274ED122053BA
:102FDC008A088B098C0A8D0B7413121FDB780C1268
:102FEC001E607808790C121C5F7510017511C8757C
:102FFC00120075130050127808790C121DFF78100E
:10300C007908121C5F50168010780C7908121DFF7D
:10301C007810790C121C5F40047901800279007FD2
:10302C000C0220FF74ED1220538A088B098C0A8D38
:10303C000B7413121FDB780C121E60780C790812BB
:10304C001C5F40117808790C121DFFAA08AB09AC63
:10305C000AAD0B80227510007511007512007513E6
:10306C00017810790C121DFF78107908121DC6AA70
:10307C0010AB11AC12AD1380A68A828B837508FF3E
:10308C007509FF750AFF750B007808121E4D7F0439
:10309C000220FF74F51220538C828D837808121E47
:1030AC00608A828B837808121E13EA2404F8EB34AE
:1030BC0000F98C828D83A3A3A3A3E0FCA3E0FD887D
:1030CC00828983C3E09CF0A3E09DF088828983C34E
:1030DC00E09420A3E0944E40268A828B837508FFEF
:1030EC007509FF750AFF750BFF7808121DEC8A82B3
:1030FC008B83A3A3A3A3E02420F0A3E0344EF0021F
:10310C00308574F5122053E9FE900828E0FAA3E00C
:10311C00FBEEC333F8E433F9743828F5827488393C
:10312C00F583E02AF508A3E03BF50978081221FAAB
:10313C007A407B427C0F7D00122C607402121FA619
:10314C008A088B098C0A8D0B74107808121D8EAAB4
:10315C0008AB097F040220FF74F11220538A0C8BF8
:10316C000D8C0E8D0F740F121FDBE0FAA3E0FB74B5
:10317C0011121FDBE0F508A3E0F50978081221FA1B
:10318C00EA2401F508EB3400F509E4F50AF50B78AF
:10319C000C7908121C9E750871750902780C790857
:1031AC00121C9EAA0CAB0DAC0EAD0F122C6074024F
:1031BC00121FA68B09EA450960047A0180027A0085
:1031CC00EC2AFCED3400FD7413121FDBE0F8A3E0D5
:1031DC00F9E8FEE9FFECF8EDF97A717B02121F05B4
:1031EC00880889098E828F837808121E6FECF8ED9F
:1031FC00F97A717B02121F058A088B09740578080D
:10320C00121F7D8E828F83A3A3A3A3E508F0A3E5F1
:10321C0009F07F080220FFC082C083E9906000F0B3
:10322C00D083D08222020135FFFFFFFFFFFFFFFF9B
:10323C0074ED121FE7746C121F90120A7A7C007DD9
:10324C00007E007F007410121FDBECF0A3EDF0A3E6
:10325C00EEF0A3EFF0908BD57808121E607410126C
:10326C001FDB7808121C6F5014908BC17808121E4B
:10327C00607410121FDB7808121DEC80D8790012D4
:10328C000A807B017A017910120AD47906120ADAC3
:10329C00120AE0E9F5127B007A007900120AD412C6
:1032AC000A98E9F50F120AA4E9F50E120AB0E9F52D
:1032BC000D120ABCE9F50C7A7F7900120A4A7900E2
:1032CC00120A687A687900120A4A120A747C007D24
:1032DC00007E007F007410121FDBECF0A3EDF0A356
:1032EC00EEF0A3EFF0908BD97808121E60741012D8
:1032FC001FDB7808121C6F5014908BC17808121EBB
:10330C00607410121FDB7808121DEC80D875080150
:10331C0078081221FE75080078081221FE79007CCD
:10332C00897D077A007B80120AF27402121FA6E9CB
:10333C0070030238C27CC07D007A947B0A120AFEAC
:10334C00E970030238BE7903120A867912120A5008
:10335C007904120A147901120A1A7903120A2079D3
:10336C0003120A267903120B047900120B0A790056
:10337C00120A9EA90E120AAAA90D120AB6A90C12BB
:10338C000AC2750A00750B00750800E508C39404A1
:10339C0040248508107511007402121FDBE0F879C7
:1033AC00002403F8E93400F9C3E51098E51199A25B
:1033BC00D265D033503A7454250AF582740B350B10
:1033CC00F583E0C0E0850810751100851882851919
:1033DC0083E5822510F582E5833511F583D0E0F085
:1033EC000508E50A2401F50AE50B3400F50B809B72
:1033FC0075090078091221FE75090178091221FE60
:10340C007403121FDBE0F50978091221FE74031214
:10341C001FDBE0F97405121FDBE0FC7D0074061263
:10342C001FDBAA82AB83120AEC7403121FA6E97588
:10343C000800E508C3940440248508107511007435
:10344C0002121FDBE0F879002403F8E93400F9C319
:10345C00E51098E51199A2D265D033503A745425F1
:10346C000AF582740B350BF583E0C0E08508107506
:10347C001100851882851983E5822510F582E58374
:10348C003511F583D0E0F00508E50A2401F50AE5CD
:10349C000B3400F50B809B75090078091221FE7521
:1034AC00090178091221FE7403121FDBE0F509787B
:1034BC00091221FE7403121FDBE0F97405121FDBE5
:1034CC00E0FC7D007406121FDBAA82AB83120AECAF
:1034DC007403121FA6E9120A6E120A8C8A108B1141
:1034EC00AE10AF11E510A9107414121FDBAA82AB39
:1034FC0083120A927902120A32799C120A3E79508E
:10350C00120A387900120A44120A6E7901120A6200
:10351C007901120AC8120ACE750800E508C3940492
:10352C0040248508107511007402121FDBE0F87935
:10353C00002403F8E93400F9C3E51098E51199A2C9
:10354C00D265D033503A7454250AF582740B350B7E
:10355C00F583E0C0E0850810751100851882851987
:10356C0083E5822510F582E5833511F583D0E0F0F3
:10357C000508E50A2401F50AE50B3400F50B809BE0
:10358C0075090078091221FE75090178091221FECE
:10359C007403121FDBE0F50978091221FE74031283
:1035AC001FDBE0F97405121FDBE0FC7D00740612D2
:1035BC001FDBAA82AB83120AEC7403121FA6E975F7
:1035CC000800E508C39404402485081075110074A4
:1035DC0002121FDBE0F879002403F8E93400F9C388
:1035EC00E51098E51199A2D265D033503A74542560
:1035FC000AF582740B350BF583E0C0E08508107575
:10360C001100851882851983E5822510F582E583E2
:10361C003511F583D0E0F00508E50A2401F50AE53B
:10362C000B3400F50B809B75090078091221FE758F
:10363C00090178091221FE7403121FDBE0F50978E9
:10364C00091221FE7403121FDBE0F97405121FDB53
:10365C00E0FC7D007406121FDBAA82AB83120AEC1D
:10366C007403121FA6E9750800E508C394044024EE
:10367C008508107511007402121FDBE0F879002424
:10368C0003F8E93400F9C3E51098E51199A2D26565
:10369C00D033503A7454250AF582740B350BF583EC
:1036AC00E0C0E0850810751100851882851983E546
:1036BC00822510F582E5833511F583D0E0F00508FD
:1036CC00E50A2401F50AE50B3400F50B809B75091E
:1036DC000078091221FE75090178091221FE740384
:1036EC00121FDBE0F50978091221FE7403121FDBAF
:1036FC00E0F97405121FDBE0FC7D007406121FDB81
:10370C00AA82AB83120AEC7403121FA6E9120A8C6C
:10371C008A108B11A810A911E8FEE9FFC3E89403E5
:10372C00E9940040E8EEF97414121FDBAA82AB8313
:10373C00120A92120A56E9F509750800E508C394B5
:10374C000440248508107511007402121FDBE0F888
:10375C0079002403F8E93400F9C3E51098E51199D0
:10376C00A2D265D033503A7454250AF582740B35C5
:10377C000BF583E0C0E08508107511008518828573
:10378C001983E5822510F582E5833511F583D0E0A8
:10379C00F00508E50A2401F50AE50B3400F50B8069
:1037AC009B7401121FDBE0F51078101221FE7401DE
:1037BC00121FDBE0F97403121FDBE0FC7D007404C4
:1037CC00121FDBAA82AB83120AE67401121FA61227
:1037DC000A8C8A108B11A810A911E8FEE9FFC3E826
:1037EC009403E9940040E8EEF97414121FDBAA82EA
:1037FC00AB83120A92120A56E9F509750800E5081E
:10380C00C3940440248508107511007402121FDB48
:10381C00E0F879002403F8E93400F9C3E51098E5E1
:10382C001199A2D265D033503A7454250AF582749A
:10383C000B350BF583E0C0E0850810751100851879
:10384C0082851983E5822510F582E5833511F58390
:10385C00D0E0F00508E50A2401F50AE50B3400F583
:10386C000B809B75100078101221FE7510017810DA
:10387C001221FE7403121FDBE0F51078101221FEEA
:10388C007403121FDBE0F97405121FDBE0FC7D00F2
:10389C007406121FDBAA82AB83120AEC7403121F8C
:1038AC00A6E97900120AC8120A6E120A56E97900C2
:1038BC0080067902800279017494121FA67F0B0294
:1038CC0020B974F7121FE78C828D83E0F87900E43D
:1038DC00C8F98C828D83A3E0FE7F00E82EF8E93FC7
:1038EC00F98A828B83E8F0A3E9F08C828D83A3A301
:1038FC00A3A3E0F87900E4C8F98C828D83A3A3A379
:10390C00A3A3E0FE7F00E82EF8E93FF98A828B83BF
:10391C00A3A3E8F0A3E9F08C828D83A3A3A3A3A3B4
:10392C00A3A3A3E0F87900E4C8F98C828D83A3A348
:10393C00A3A3A3A3A3A3A3E0FE7F00E82EF8E93F73
:10394C00F98A828B83A3A3A3A3E8F0A3E9F0EC2468
:10395C000CF582ED3400F583E0F87900E4C8F9EC5D
:10396C00240DF582ED3400F583E0FE7F00E82EF89F
:10397C00E93FF98A828B83A3A3A3A3A3A3E8F0A3B3
:10398C00E9F079007F010220B943FD020201357490
:10399C00F2121FE774EC121F908908E5089002AC34
:1039AC00F07C047D007A1F7B001211DCE9F50974B0
:1039BC0005121FDB7401F0740E121FDB7401F0A3EF
:1039CC007400F07404121FDB7401F0740C121FDB12
:1039DC00742FF0A37401F0740A121FDB743FF0A370
:1039EC007401F07408121FDB7404F0A37400F074FB
:1039FC0006121FDB7458F0A37402F07405121FDB5F
:103A0C00AC82AD8379017A057B03121098E9740EB0
:103A1C00121FDBAC82AD8379027A067B03121098FD
:103A2C00E97C837D0B79157A087B03121098E97C6D
:103A3C00987D0B79177A077B03121098E97404129E
:103A4C001FDBAC82AD8379017A107B03121098E9ED
:103A5C00740C121FDBAC82AD8379027A117B0312DA
:103A6C001098E9740A121FDBAC82AD8379027A12CA
:103A7C007B03121098E97408121FDBAC82AD8379BA
:103A8C00027A137B03121098E97406121FDBAC82C6
:103A9C00AD8379027A147B03121098E97CAF7D0B0D
:103AAC007A047900121356E97E407F06EEFCEFFD96
:103ABC007A067B001211DCE9EEFCEFFD7A077B0045
:103ACC001211DCE9EEFCEFFD7A087B001211DCE947
:103ADC00EEFCEFFD7A097B001211DCE97A007B0029
:103AEC007C007D007410121FDBEAF0A3EBF0A3EC5A
:103AFC00F0A3EDF07403121FDB7401F07402121FBB
:103B0C00DB7401F07401121FDB7400F085188285E0
:103B1C0019837401F07410121FDBAC82AD8379042D
:103B2C007A087B04120D5CE97403121FDBAC82ADC6
:103B3C008379017A007B04120D5CE97402121FDB9D
:103B4C00AC82AD8379017A027B04120D5CE97401BD
:103B5C00121FDBAC82AD8379017A037B04120D5CFE
:103B6C00E9851882851983AC82AD8379017A067B4D
:103B7C0004120D5CE9908BED121E7E12135CE99021
:103B8C008BED121E7E12146AE9120D20E9908BED5A
:103B9C00121E7E120FDEE9908BED121E7E120D327C
:103BAC00E9908BED121E7E120FA8E9908BED121E80
:103BBC007E120CF6E97A007903120F42E9120EB864
:103BCC007AC97B0B120FE4E9F50A7ACB7B0B120D49
:103BDC0038E9F50B7ACD7B0B120FAEE9F50C7ACFE9
:103BEC007B0B120CFCE9F50D7AD17B0B1210AA128F
:103BFC000C667901121566E97A017B009002ACE043
:103C0C00F9120B6AE97414121FA67F060220B9740C
:103C1C00F0121FE774DC121F908909EAFEEBFFEE2D
:103C2C005400F8EF5480F9E84960329002ACE0F9A6
:103C3C00120B528A0C8B0DA80CA90D880A890BE863
:103C4C0049600FAA0AAB0B120C78AA0AAB0B120B29
:103C5C0040E9EE6400FAEF6480FB0244F7EE548016
:103C6C00601B9002E1E0600AC2AF75C9AB75C95B1D
:103C7C0080FEEE6480FAEF6400FB0244F7EEA2E0F3
:103C8C0050347AC57B0B1210A4E9F5087A287B0313
:103C9C00120D7A908BE912220D7A007B209002ACE7
:103CAC00E0F9120BEE7404121FA6E9EE6401FAEFB0
:103CBC006400FB0244F7EE5400F8EF5404F9E849B1
:103CCC0060167C107D007AC77B02120CE4EE640057
:103CDC00FAEF6404FB0244F7EE54027003023D74E5
:103CEC009002AEE0605A120F0CE96402702F120CB5
:103CFC00B4900BB7E024EDF50CA3E034FEF50DE425
:103D0C00F50EF50F780C1221F67A027B009002ACBE
:103D1C00E0F9120BEE7404121FA6E98040120F0C8E
:103D2C00E9703A120EFA908BE512220D7A027B00A2
:103D3C009002ACE0F9120BEE7404121FA6E9801D80
:103D4C00120F007D047C0079007A007BAA120CDE35
:103D5C007D017C0079017A007BAA120CDEEE6402F4
:103D6C00FAEF6400FB0244F7EE540460569002B084
:103D7C00E0602B120C90900BB5E0F50CA3E0F50D68
:103D8C00E4F50EF50F780C1221F67A047B00900204
:103D9C00ACE0F9120BEE7404121FA6E9801A7D0335
:103DAC007C0079007A107BAA120CDE7D017C0079F4
:103DBC00017A107BAA120CDEEE6404FAEF6400FBAD
:103DCC000244F7EE5400F8EF5401F9E8497003028D
:103DDC003F049002B1E07003023EF99002DDE06412
:103DEC000160089002DDE064027023908BE11222E6
:103DFC000D7A007B019002ACE0F9120BEE74041208
:103E0C001FA6E9EE6400FAEF6401FB0244F790028E
:103E1C00DD7403F0120A56E9900327F0120A8C9015
:103E2C0002E5EAF0A3EBF0900327E0A2E4400E9049
:103E3C0002E5E064007004A3E064047026120A6ECC
:103E4C00908BDD12220D7A007B019002ACE0F9120E
:103E5C000BEE7404121FA6E9EE6400FAEF6401FB8A
:103E6C000244F7900327E0A2E150539002E5C08290
:103E7C00C083900BC3E0F8A3E0F9D083D082C3E0F9
:103E8C0098A3E099500D120A8C9002E5EAF0A3EB8E
:103E9C00F080D8900BC3E0F8A3E0F9E8F97AE77B5F
:103EAC0002120A92900BC3E0F8A3E0F99002E5C36A
:103EBC00E098F0A3E099F07AE77B02120C96900B55
:103ECC00BFE0F50CA3E0F50DE4F50EF50F780C1240
:103EDC0021F67A007B019002ACE0F9120BEE74042F
:103EEC00121FA6E99002DD7400F0120A6EEE640057
:103EFC00FAEF6401FB0244F7EE5400F8EF5408F9B2
:103F0C00E849602C120C5AE97901120AC8908BAD61
:103F1C0012220D7A007B019002ACE0F9120BEE74C8
:103F2C0004121FA6E9EE6400FAEF6408FB0244F7E2
:103F3C00EE5400F8EF5402F9E849700302405A902D
:103F4C0002B2E06401600302404F9002DDE06401C4
:103F5C0060089002DDE064037023908BE112220D67
:103F6C007A007B029002ACE0F9120BEE7404121F83
:103F7C00A6E9EE6400FAEF6402FB0244F79002DD5E
:103F8C007402F09002E0E0700F9002DBE0FAA3E024
:103F9C00FB7900120C9C801D9002DBE0FAA3E0FB85
:103FAC00EA2401F8EB3400F99002DBE8F0A3E9F025
:103FBC007901120C9C9002E0E07020908BE11222AF
:103FCC000D7A007B029002ACE0F9120BEE74041235
:103FDC001FA6E99002E07401F080689002DBC3E058
:103FEC00940EA3E09400A2D265D03340389002DD49
:103FFC007400F09002DB7400F0A37400F0900BC11D
:10400C00E0F50CA3E0F50DE4F50EF50F780C12219C
:10401C00F67A007B029002ACE0F9120BEE740412FB
:10402C001FA6E98018908BA912220D7A007B0290B2
:10403C0002ACE0F9120BEE7404121FA6E99002E038
:10404C007400F0EE6400FAEF6402FB0244F7EE54E5
:10405C0000F8EF5420F9E84960779088D8C082C006
:10406C00837414121FDBAC82AD83D083D0827410A6
:10407C00121EA37414121FDBAA82AB83120E34E936
:10408C00750A10750B00780A1221FA7416121FDBD0
:10409C00AC82AD837A9F7B0B120B167402121FA697
:1040AC007C987D0B79177A077B03121098E9908B1B
:1040BC009912220D7A007B209002ACE0F9120BEEE3
:1040CC007404121FA6E9EE6400FAEF6420FB0244AC
:1040DC00F7EE5400F8EF5440F9E84970030242003F
:1040EC009002DDE0640160089002DDE0640370235F
:1040FC00908B9D12220D7A007B409002ACE0F9125D
:10410C000BEE7404121FA6E9EE6400FAEF6440FB98
:10411C000244F79002DD7402F0908828C082C083BC
:10412C007404121FDBAC82AD83D083D08274101266
:10413C001EA37404121FDBAA82AB83120E34E97C1B
:10414C00247D0079FF7AB67B02120B2E9002B67496
:10415C00AAF09002B774BBF09002B874BBF0750A69
:10416C0010750B00780A1221FA7406121FDBAC8250
:10417C00AD837AB97B02120B167402121FA6900241
:10418C00C9740DF09002CA740AF07C0B7D007AB6EB
:10419C007B02120CE47A007B007C007D0085188287
:1041AC00851983EAF0A3EBF0A3ECF0A3EDF0908B70
:1041BC00E1780C121E60851882851983780C121C0C
:1041CC006F5015908BC1780C121E60851882851962
:1041DC0083780C121DEC80D67C0A7D007AC17B02A0
:1041EC00120CE49002DD7400F0EE6400FAEF64400F
:1041FC00FB0244F7EE540870030242DA9002B4E07A
:10420C0070030242B59002DDE0640360089002DDA9
:10421C00E064027023908BE112220D7A087B0090EF
:10422C0002ACE0F9120BEE7404121FA6E9EE64085E
:10423C00FAEF6400FB0244F79002DD7401F0900287
:10424C00DFE0F9120EBEE9F5089002DFE0640270BF
:10425C0037120CA89002DF7400F09002DD7400F0AD
:10426C00900BB9E0F50CA3E0F50DE4F50EF50F7825
:10427C000C1221F67A087B009002ACE0F9120BEEDE
:10428C007404121FA6E9803B9002DFE02401F09039
:10429C008BCD12220D7A087B009002ACE0F9120B48
:1042AC00EE7404121FA6E9801A7D047C0079007A52
:1042BC00207BAA120CDE7D017C0079017A207BAA7E
:1042CC00120CDEEE6408FAEF6400FB0244F7EE54C5
:1042DC0010606C9002AFE0603E120F54E964027003
:1042EC0005120CA28009120F54E97003120F5A9098
:1042FC000BB3E0F50CA3E0F50DE4F50EF50F780C1F
:10430C001221F67A107B009002ACE0F9120BEE74DD
:10431C0004121FA6E9801D120F607D067C00790037
:10432C007A307BAA120CDE7D017C0079017A307B1D
:10433C00AA120CDEEE6410FAEF6400FB0244F7EEF6
:10434C00542070030243E59002B3E0605A9002DE01
:10435C00E060319002DE7400F0120CAE900BBBE00A
:10436C00F50CA3E0F50DE4F50EF50F780C1221F623
:10437C007A207B009002ACE0F9120BEE7404121F51
:10438C00A6E9804A9002DE7401F0120E4C908BC5A7
:10439C0012220D7A207B009002ACE0F9120BEE7425
:1043AC0004121FA6E980277D047C0079007A407BEB
:1043BC00AA120CDE7D017C0079017A407BAA120CDA
:1043CC00DE7D107C0079037A407BAA120CDEEE6451
:1043DC0020FAEF6400FB0244F7EE544070030244F1
:1043EC00B4120EA6E9F5089002B5E0700302448DF4
:1043FC00E50870269002E2E0F9120EAC120E8E90D7
:10440C008BF112220D7A407B009002ACE0F9120B7A
:10441C00EE7404121FA6E90244AA9002E3E0600EB7
:10442C009002E2E0F9120EAC9002E37400F0740218
:10443C006508702F120CBA900BBDE024C4F50CA3C8
:10444C00E034FFF50DE4F50EF50F780C1221F67A39
:10445C00407B009002ACE0F9120BEE7404121FA624
:10446C00E9803B120EA0E9908BF112220D7A407B71
:10447C00009002ACE0F9120BEE7404121FA6E98056
:10448C001D120E947D067C0079007A507BAA120CCA
:10449C00DE7D017C0079017A507BAA120CDEEE6481
:1044AC0040FAEF6400FB8043EE5400F8EF5410F92F
:1044BC00E8496033750A58750B02780A1221FA75AF
:1044CC000A04750B00780A1221FA79027C3F7D01EF
:1044DC007A2F7B011210E07404121FA6E9EE64001F
:1044EC00FAEF6410FB80047A007B007424121FA680
:1044FC007F080220B974F7121FE7EAFEEBFF8E82E9
:10450C008F83E064C070148E828F83A3A3A3E0FA20
:10451C008E828F83A3A3E0F9120C7E7F010220B957
:10452C0074F7121FE774FC121F90E9FEEAFF85185E
:10453C00828519837400F0EFA2E040030245ED90F0
:10454C0002E17401F0908BC912220D7A807B0090ED
:10455C0002ACE0F9120BEE7404121FA6E99002E40F
:10456C00E0706F9002ADE06405603E7403121FDBD7
:10457C00AC82AD837A057B0312109EE97403121F83
:10458C00DBE0700A7401121FDB7401F08008740107
:10459C00121FDB7400F07401121FDBAC82AD837947
:1045AC00017A057B03121098E99002ADE064057066
:1045BC00307402121FDB7401F01210B0E974021295
:1045CC001FDBAC82AD8379017A057B03121098E96D
:1045DC00800FEFA2E0500A851882851983E0D2E2A1
:1045EC00F0EFA2E1500A851882851983E0D2E0F041
:1045FC00EFA2E2500A851882851983E0D2E1F0EF30
:10460C00A2E040069002E17400F0851882851983BF
:10461C00AC82AD837A0179001210E6E97404121FA2
:10462C00A67F010220B9C082C0839002B1E060066F
:10463C009002B17400F09002B4E06009120EB890D0
:10464C0002B47400F09002B2E060069002B2740002
:10465C00F0D083D08202013574F4121FE774E21299
:10466C001F90E9FEEE14601614700302481D1470BE
:10467C000302484F24FE7003024827024852851853
:10468C0082851983AC82AD837A047B0312109EE978
:10469C0075080875090078081221FA7402121FDBDC
:1046AC00AC82AD837418121FDBAA82AB83120B167B
:1046BC007402121FA67405121FDBE0C0E07407120F
:1046CC001FDBD0E0F07404121FDBE0C0E0740612B4
:1046DC001FDBD0E0F07403121FDBE0C0E0740512A6
:1046EC001FDBD0E0F07404121FDB7400F0740312B3
:1046FC001FDB7400F0851882851983AC82AD837A38
:10470C00087900120D26E9908C68C082C083740869
:10471C00121FDBAC82AD83D083D082740E121EA329
:10472C007F00750905E509C39400A2D265D033500A
:10473C000302480AE509F83395E0F97416121FDBF9
:10474C00E58228F582E58339F583E0F508E508C3B1
:10475C00940A506B7C5E7D8CEFF87900E875F00262
:10476C00A4C8AAF075F000A42AFA75F002E9A42AEC
:10477C00F97408121FDBE58228FAE58339FB121C59
:10478C003E7910EFFA7B00EA75F002A4CAA8F07526
:10479C00F000A428F875F002EBA428FB7408121F93
:1047AC00DBE5822AF582E5833BF583A3AC82AD83FE
:1047BC0085080A750B00AA0AAB0B120C1E80357902
:1047CC0010EFFA7B00EA75F002A4CAA8F075F000AD
:1047DC00A428F875F002EBA428FB7408121FDBE583
:1047EC00822AFCE5833BFD85080A750B00AA0AABFF
:1047FC000B120C1E0F74FF2509F5090247317408C2
:10480C00121FDBAC82AD837A0C7902120D26E98083
:10481C00357A017901120F42E9802B908B99122283
:10482C000D7A007B109002ACE0F9120BEE740412BE
:10483C001FA6E97A007901120F42E99002DD74009B
:10484C00F08003120C84EE9002ADF0741E121FA6C1
:10485C007F040220B9C082C08374FD121F9085189A
:10486C0082851983AA82AB83120E40E960128518E7
:10487C0082851983AC82AD837A037900120CEAE944
:10488C007403121FA6D083D08202013574F4121F58
:10489C00E774D1121F90EAFEEBFF7404121FDB7455
:1048AC0000F0A37400F07402121FDB7400F0A37408
:1048BC0000F08518828519837400F0A37400F085CC
:1048CC00188285198385820885830978081221FA54
:1048DC007404121FDBAC82AD837406121FDBAA8238
:1048EC00AB83120A5C7402121FA6EEFCEFFD740679
:1048FC00121FDBAA82AB83120C60E97404121FDB5B
:10490C00E0F508A3E0F50974087808121F5EE508C5
:10491C00740F121FDBE508F07404121FDBE0F8A320
:10492C00E0F9E8C0E0740E121FDBD0E0F074021264
:10493C001FDBE0F508A3E0F50974087808121F5E88
:10494C00E5087411121FDBE508F07402121FDBE09E
:10495C00F8A3E0F9E8C0E07410121FDBD0E0F0859A
:10496C001882851983E0F508A3E0F5097408780826
:10497C00121F5EE5087413121FDBE508F085188220
:10498C00851983E0F8A3E0F9E8C0E07412121FDB8C
:10499C00D0E0F07406121FDBE0F508A3E0F5097413
:1049AC00087808121F5EE5087415121FDBE508F085
:1049BC007406121FDBE0F8A3E0F9E8C0E0741412EF
:1049CC001FDBD0E0F07408121FDBE0F508A3E0F564
:1049DC000974087808121F5EE5087417121FDBE5CE
:1049EC0008F07408121FDBE0F8A3E0F9E8C0E074EB
:1049FC0016121FDBD0E0F0740A121FDBE0F508A3DF
:104A0C00E0F50974087808121F5EE5087419121F86
:104A1C00DBE508F0740A121FDBE0F8A3E0F9E8C04C
:104A2C00E07418121FDBD0E0F0740C121FDBE0F501
:104A3C0008A3E0F50974087808121F5EE508741BDA
:104A4C00121FDBE508F0740C121FDBE0F8A3E0F991
:104A5C00E8C0E0741A121FDBD0E0F0741C121FDBEC
:104A6C0074AAF0741D121FDB74BBF0741E121FDBD2
:104A7C0074AAF075080E75090078081221FA7410E2
:104A8C00121FDBAC82AD837421121FDBAA82AB83B5
:104A9C00120B167402121FA68A0A8B0B850A088544
:104AAC000B09742D121FDB740DF0742E121FDB74A6
:104ABC000AF07C137D00741C121FDBAA82AB8312DC
:104ACC000CE4742F121FA67F040220B974F0121F7D
:104ADC00E7748C121F90890B8A08908B26C082C0B9
:104AEC00837404121FDBAC82AD83D083D082740834
:104AFC00121EA3908B46C082C083746C121FDBAC59
:104B0C0082AD83D083D0827408121EA3908B4EC0CA
:104B1C0082C0837464121FDBAC82AD83D083D082DD
:104B2C007408121EA3908B56C082C083745C121F33
:104B3C00DBAC82AD83D083D0827408121EA3908B21
:104B4C000EC082C0837454121FDBAC82AD83D08341
:104B5C00D0827408121EA3908B3EC082C083744C0A
:104B6C00121FDBAC82AD83D083D0827408121EA3DB
:104B7C00908B36C082C0837444121FDBAC82AD8331
:104B8C00D083D0827408121EA3908B2EC082C08357
:104B9C00743C121FDBAC82AD83D083D082740812BC
:104BAC001EA3908B1EC082C0837434121FDBAC8298
:104BBC00AD83D083D0827408121EA3908B06C08262
:104BCC00C083742C121FDBAC82AD83D083D0827473
:104BDC0008121EA3908AE6C082C0837424121FDBC5
:104BEC00AC82AD83D083D0827408121EA3908ADE6F
:104BFC00C082C083741C121FDBAC82AD83D083D007
:104C0C00827408121EA3908AD6C082C083741412B8
:104C1C001FDBAC82AD83D083D0827408121EA390AC
:104C2C008AF6C082C083740C121FDBAC82AD83D0B9
:104C3C0083D0827408121EA37404121FDBAE82AFE1
:104C4C0083E508603914604214604B14605414609E
:104C5C005C14606414606C14607414607C147003D5
:104C6C00024CF0147003024CFB147003024D06143A
:104C7C007003024D11147003024D1C024D27740475
:104C8C00121FDBAE82AF83024D30746C121FDBAE91
:104C9C0082AF83024D307464121FDBAE82AF83028D
:104CAC004D30745C121FDBAE82AF8380777454126C
:104CBC001FDBAE82AF83806C744C121FDBAE82AFF5
:104CCC008380617444121FDBAE82AF838056743CC8
:104CDC00121FDBAE82AF83804B7434121FDBAE82AB
:104CEC00AF838040742C121FDBAE82AF838035748F
:104CFC0024121FDBAE82AF83802A741C121FDBAE22
:104D0C0082AF83801F7414121FDBAE82AF838014BA
:104D1C00740C121FDBAE82AF8380097404121FDB8C
:104D2C00AE82AF83E50B7015120C36E9EEFAEFFB91
:104D3C00120C547A017944120C48024EE0120C36D3
:104D4C00E9EEFAEFFB120C547A0079BE120C481201
:104D5C000C4EE9F509120C4EE9F50AE50860030260
:104D6C004E0E9002DA7400F07C247D0079FF7AB646
:104D7C007B02120B2E9002DAE0F8790074B628F55B
:104D8C0082740239F58374AAF09002DAE02401F0FF
:104D9C009002DAE0F8790074B628F582740239F5DD
:104DAC008374BBF09002DAE02401F09002DAE0F8B0
:104DBC00790074B628F582740239F58374BBF090CF
:104DCC0002DAE02401F0E5099002DAE0F8790074E7
:104DDC00B628F582740239F583E509F09002DAE021
:104DEC002401F0E50A9002DAE0F8790074B628F5AF
:104DFC0082740239F583E50AF09002DAE02401F0BE
:104E0C00803AE5099002DAE0F8790074B628F58268
:104E1C00740239F583E509F09002DAE02401F0E53B
:104E2C000A9002DAE0F8790074B628F58274023937
:104E3C00F583E50AF09002DAE02401F0740D6508C0
:104E4C006003024EE09002DAE0F8790074B628F5BF
:104E5C0082740239F583740DF09002DAE02401F0CB
:104E6C009002DAE0F8790074B628F582740239F50C
:104E7C0083740AF09002DAE02401F07C117D007A50
:104E8C00B67B02120CE47A007B007C007D00851856
:104E9C0082851983EAF0A3EBF0A3ECF0A3EDF0907C
:104EAC008BE1780C121E60851882851983780C12A0
:104EBC001C6F5015908BC1780C121E608518828562
:104ECC001983780C121DEC80D67C107D007AC77B80
:104EDC0002120CE47474121FA67F080220B9C0825F
:104EEC00C08374FA121F90851882851983AA82AB2D
:104EFC0083120F66E96012851882851983AC82AD26
:104F0C00837A067900120FD8E97406121FA6D08393
:104F1C00D082020135C082C08374F5121F907407D1
:104F2C00121FDBAA82AB83120EC4E9605C85188267
:104F3C0085198374AAF07401121FDB74BBF0740220
:104F4C00121FDB74CCF07409121FDBE0C0E0740399
:104F5C00121FDBD0E0F0740A121FDBE0C0E0740417
:104F6C00121FDBD0E0F07405121FDB740DF0740619
:104F7C00121FDB740AF07C077D008518828519836B
:104F8C00AA82AB83120CE4804A851882851983743B
:104F9C00AAF07401121FDB74BBF07402121FDB74D5
:104FAC00CCF07403121FDB7476F07404121FDB74E4
:104FBC0076F07405121FDB740DF07406121FDB748F
:104FCC000AF07C077D00851882851983AA82AB8341
:104FDC00120CE4740B121FA6D083D082020135C0D0
:104FEC0082C08374FC121F90851882851983AA8253
:104FFC00AB83120E52E96012851882851983AC823C
:10500C00AD837A047900120CF0E97404121FA6D057
:10501C0083D082020135C082C08374FC121F90853C
:10502C001882851983AA82AB83120F06E960128558
:10503C001882851983AC82AD837A047900120FD261
:10504C00E97404121FA6D083D082020135C082C03D
:10505C008374FA121F90851882851983AA82AB83F8
:10506C00120E9AE96012851882851983AC82AD8381
:10507C007A067900120E2EE97406121FA6D083D080
:10508C008202013574F7121FE774FF121F90E9FEBC
:10509C001460051460598061851882851983AA8271
:1050AC00AB837901120FEAE9851882851983E070C8
:1050BC001B9002B1E060429002B17400F07A007B68
:1050CC00019002ACE0F9120B6AE9802D9002B1E07C
:1050DC00700D7A007B019002ACE0F9120B6AE98545
:1050EC001882851983E09002B1F0120A0E800A7AB8
:1050FC00BF7B0B7902120FEAE97401121FA67F0124
:10510C000220B974F7121FE774FF121F90E9FE1406
:10511C00600514605C8064851882851983AA82AB53
:10512C00837901120D3EE9851882851983E0701B85
:10513C009002B2E060459002B27400F07A007B02FB
:10514C009002ACE0F9120B6AE9803085188285195F
:10515C0083E0640170259002B2E0701F9002B2747B
:10516C0001F07A007B029002ACE0F9120B6AE98044
:10517C000A7AC17B0B7902120D3EE97401121FA64B
:10518C007F010220B974F7121FE774FF121F90E918
:10519C00FE1460051460608068851882851983AAE6
:1051AC0082AB837901120FBAE9851882851983E0E5
:1051BC0070199002B4E060139002B47400F07A0895
:1051CC007B009002ACE0F9120B6AE9851882851914
:1051DC0083E06401702B9002B4E070259002B474EB
:1051EC0001F09002DF7400F07A087B009002ACE0D2
:1051FC00F9120B6AE9800A7AB97B0B7902120FBAA1
:10520C00E97401121FA67F010220B974F0121FE786
:10521C0074F8121F90890A7401650A60030252D651
:10522C00851882851983AA82AB837901120D08E94E
:10523C00851882851983E0FA7B007401121FDBE06C
:10524C00F87900E4C8F9EA28F8EB39F9E8FEE9FF47
:10525C007402121FDBE0FA7B007403121FDBE0F810
:10526C007900E4C8F9EA28F8EB39F9880889097457
:10527C0004121FDBE0FA7B007405121FDBE0F879E7
:10528C0000E4C8F9EA28F8EB39F9880E890F74069E
:10529C00121FDBE0FA7B007407121FDBE0F87900C9
:1052AC00E4C8F9EA28F8EB39F9880C890D780C1266
:1052BC0021FA780E1221FA7902AC08AD09EEFAEF58
:1052CC00FB1210E07404121FA6E97402650A700444
:1052DC001210B0E97408121FA67F080220B974F4EA
:1052EC00121FE774FA121F90EAFEEBFF8C088D096F
:1052FC007412121FDBE0F50AA3E0F50BEE851882A1
:10530C00851983F0EEF8EFF9E4E9F8C0E0740112C6
:10531C001FDBD0E0F0E5087402121FDBE508F0A8F3
:10532C0008A909E4E509A809E5097403121FDBE5DE
:10533C0009F0E50A7404121FDBE50AF0A80AA90BB0
:10534C00E4E50BA80BE50B7405121FDBE50BF085F0
:10535C001882851983AC82AD837A067900120D020E
:10536C00E97406121FA67F040220B974F0121FE71D
:10537C008A0A8B0B89088C0C8D0985090E750F0018
:10538C00AA0EAB0F120BAC8A0E8B0FAE0EAF0FEE3C
:10539C004F700302543785090E750F00AC0EAD0F1C
:1053AC00A90CEEFAEFFB120B2E850A0E850B0F786B
:1053BC000E1222840000060000AADE5310AAEC5341
:1053CC0020AA085430AAFA5340AA165450AA2454BE
:1053DC003054EEFCEFFDAA09A908120FD2E9804463
:1053EC00EEFCEFFDAA09A908120CEAE98036EEFCE6
:1053FC00EFFDAA09A908120FD8E98028EEFCEFFDF1
:10540C00AA09A908120FB4E9801AEEFCEFFDAA094B
:10541C00A908120CF0E9800CEEFCEFFDAA09A90812
:10542C00120E2EE9EEFAEFFB120BB27F080220B936
:10543C0074F3121FE78A088B09ECFEEDFFC3EE94A0
:10544C0015EF94004005750C148003EEF50C9003D9
:10545C002C742EF0A37400F0E50C90032EF0850C48
:10546C000A750B00780A1221FAAC08AD097A2F7B69
:10547C0003120B167402121FA679007C2C7D037A82
:10548C00007B001213B6E97F050220B974EE121FDF
:10549C00E774FA121F908A0A8B0B8909ECFEEDFF58
:1054AC00750800850A0C850B0D780C12223E000441
:1054BC00107157E15402552155425563558455B727
:1054CC0055D855EF551D56DB56FC561C5746577193
:1054DC0057715748567401650970158E828F83E099
:1054EC00C39403500B8E828F83E0900ED0F0800318
:1054FC0075081802579A7402650970138E828F838F
:10550C00E0F8A3E0F9900ED1E8F0A3E9F080037580
:10551C00081802579A7401650970158E828F83E002
:10552C00C39402500B8E828F83E0900399F080031A
:10553C0075081802579A7401650970158E828F834D
:10554C00E0C39405500B8E828F83E090039AF08019
:10555C000375081802579A7401650970158E828FAD
:10556C0083E0C39402500B8E828F83E090039BF0F8
:10557C00800375081802579A741065097027750C0A
:10558C0010750D00780C1221FAEEFCEFFD7A9C7B65
:10559C0003120B167402121FA68A0C8B0D850C823B
:1055AC00850D83800375081802579A74016509707C
:1055BC00158E828F83E0C39402500B8E828F83E012
:1055CC009003ACF0800375081802579A74016509B2
:1055DC00700B8E828F83E0900ED4F08003750818C8
:1055EC0002579A740465097022908BA1780C121ED4
:1055FC00608E828F83780C121C6F500F8E828F837B
:10560C00121E7E9003AE121E8A8003750818025774
:10561C009AE509702112133EE97013120DD4E9F5C5
:10562C000C7950121092E9F50D120DC2800B9004FA
:10563C00417401F0800375081802579A74076509C4
:10564C0060030256D5750E06750F00780E1221FAFE
:10565C008E828F83A3AC82AD837402121FDBAA826D
:10566C00AB83120B1C7402121FA68A108B118510AF
:10567C000E85110F7C007D00851882851983AA8206
:10568C00AB838E828F83E0F9120D68E9F50CE50C83
:10569C00C3940A502F12133EE97015A90C120DDA9F
:1056AC00E9F50D7950121092E9F50E120DC2801C1D
:1056BC00750D007442250CF5827404350DF5837458
:1056CC0001F08008750802800375081802579A7457
:1056DC0001650970158E828F83E0C39402500B8E86
:1056EC00828F83E09003ADF0800375081802579AFF
:1056FC007401650970158E828F83E0C3940A500B78
:10570C008E828F83E0900ED3F08003750818807E14
:10571C0074016509701F8E828F83E0C39407401556
:10572C008E828F83E0C39411500B8E828F83E09016
:10573C000ED5F080597508188054740165097020D5
:10574C00900440E0F50C8E828F83E0900440F0E5ED
:10575C000C703B900440E064017033120DC2802E3B
:10576C007508188029C3E50A9427E50B9400501B93
:10577C007402650970158E828F83E0FCA3E0FDAA8C
:10578C000AAB0B1211DCE9F5088003750802A908B5
:10579C007406121FA67F0A0220B974EC121FE7745C
:1057AC00DA121F90890D8A128B138C0A8D0B743AA6
:1057BC00121FDBE0F50C908B82C082C083851882AF
:1057CC00851983AC82AD83D083D0827406121EA35C
:1057DC00851882851983AC82AD83AA12AB13A90DEF
:1057EC00120D68E9FEEEC3940A4003025945EEF926
:1057FC00120DA4E9FF900ED0E064027004740180D5
:10580C00027400F50878081221FEAD0CEFFCEEF9DD
:10581C00AA0AAB0B120E167401121FA67C147D0083
:10582C0079007412121FDBAA82AB83120B2E8A0E24
:10583C008B0F850E08850F097412121FDBAC82AD1D
:10584C00837A1075F006EEA42424F912108CE970FA
:10585C00437C1079FF7412121FDBAA82AB83120BEC
:10586C008EE970307422121FDBAC82AD837A047522
:10587C00F006EEA42425F912108CE9F50874121226
:10588C001FDBAC82AD83EFA2E0E433F9AA0AAB0BC9
:10589C00121266E97406121FDBAC82AD837A0C74AB
:1058AC00702EF912108CE9707E7406121FDBAA821E
:1058BC00AB83120D98750E00E50EC394045068E589
:1058CC000EA80E7900E875F003A4C8AAF075F000D4
:1058DC00A42AFA75F003E9A42AF97406121FDBE571
:1058EC008228F508E58339F509850882850983E066
:1058FC00F8A3E0F9E849602B850882850983A3A306
:10590C00E0F51075110078101221FA8508828509CE
:10591C0083E0FCA3E0FDAA0AAB0B1214CA740212BA
:10592C001FA6E9050E8091EFA2E1500D900398E0BF
:10593C00F9AA0AAB0B1214D0E97404650C700F9021
:10594C000ED0E064027007AA0AAB0B120E1079009D
:10595C007426121FA67F0C0220B974F2121FE7895D
:10596C000BEAFEEBFF8C088D09750A0AE50B600C3F
:10597C00146009146044146064025A0AEEFAEFFBD6
:10598C00120DB6E9F50AE50AC3940A5071E508450B
:10599C0009606B750C06750D00780C1221FAEEFC83
:1059AC00EFFDAA08AB09120B167402121FA68A0C83
:1059BC008B0D850C82850D838044EEFAEFFB120D66
:1059CC00B0E9F50AE50AC3940A5033E508450960C5
:1059DC002DAA08AB09A90A120DAAE98021EEFAEF4B
:1059EC00FB120DBCE9F50AE50AC3940A5010E50850
:1059FC004509600AAA08AB09A90A120DAAE9A90A65
:105A0C007F060220B974F2121FE78A0C8B0DE9FE97
:105A1C007F1574FF650C700474FF650D702A750892
:105A2C0000E508C3940A5014EEFC7A027B00A90826
:105A3C00120D86E960027F00050880E5EE60637A4E
:105A4C00FE7B0D1216CE805AAA0CAB0D1216B08A24
:105A5C000A8B0B850A08850B09E508450960417C12
:105A6C00007D00E5082405FAE5093400FB85088271
:105A7C00850983A3A3A3A3E0F9120D68E9F50AE550
:105A8C000AC3940A500EEEFC7A027B00A90A120D8E
:105A9C0086E97F00EE600BAA08AB09120DFE8002AE
:105AAC007F14EFF97F060220B974EE121FE78A0EFD
:105ABC008B0F8C0A8D0B7412121FDBE0F50CA3E01C
:105ACC00F50D75081574FF650E700474FF650F7085
:105ADC001E7E00EEC3940A5062AC0CAD0DAA0AAB4C
:105AEC000BEEF9120D8CE960037508000E80E4AA28
:105AFC000EAB0F1216B08A108B11AE10AF11EE4F09
:105B0C0060367C007D00EE2405FAEF3400FB8E82BB
:105B1C008F83A3A3A3A3E0F9120D68E9F509E509A6
:105B2C00C3940A5016AC0CAD0DAA0AAB0BA9091202
