:020000040000FA
:0600000002011D022A634B
:03002B000223238A
:030033000222FBAB
:03005300022AD6A8
:03006B000222A2CC
:03007B000222CA94
:100083000228CFE5C754F84401F5C77901220000DF
:100093000080FB120086B90003020107E47921788E
:1000A30008B800028004F709D8FCE479297802B87B
:1000B30000028004F709D8FCE490028178257909CD
:1000C3008002F0A3D8FCD9FA781A90014D7A01BACC
:1000D30000028007E493A3F608DAF9900AA5AA823E
:1000E300AB8390014E78D379088015E493A3AC8257
:1000F300AD838A828B83F0A3AA82AB838C828D83A8
:10010300D8E9D9E77582067583A3740412012F75A4
:100113008291758300740012012F75D00075813FA1
:10012300751881751902759F00020096C09FF59F8F
:10013300E473D09F22D083D082C09FE493C0E07445
:100143000193C0E0740293F59F2201200926092C34
:1001530009320938093E0944094A09500956095C1C
:1001630009620968096E0974097A0968FFFF037B4C
:10017300034CCD6C03AB0336567600680402CB47C1
:10018300A202180400058BC1010C04000000000347
:100193007F060CC92C979797038903264666006C44
:1001A300022000024004000000000244040000009A
:1001B3000002480400000000024C0400000000029A
:1001C3005004000000000254040000000002580420
:1001D30000000000025C040000000002BC040000F8
:1001E300000001EC0400004000037F060CC92C97BB
:1001F30097970402030D355D040904872D353D00EF
:10020300A3010000000001078601FE074105F1205C
:10021300283038077E01300746019A074704F12842
:100223003038076C04F1283038021602000101B29D
:1002330002FFFF0190040923A135016A02060001B0
:10024300600800000000000000000060044000009F
:10025300000162020000006004004000000B095628
:10026300756C7475726545676705122F013F01024E
:100273000A000201061302454501020304050607AD
:1002830008090A0B0C0D0E0F1045676700D007E82D
:100293000370110100E803E803D00760EA2A00F6BF
:1002A3000B0000260C320C380C3E0C1241636365C4
:1002B3006C2E2044617461000A416363656C2E20D7
:1002C300436F6E662E000A0A416363656C2E2050ED
:1002D3006572696F640002FD8B010000D28B02F32B
:1002E3008B010000050C10288A010000810302EF36
:1002F3008B030000840302F18B010000060C02F360
:100303008B010000120C10388A0300008A0302F1EB
:100313008B010000130C02F38B010000200C10482A
:100323008A030000210C02F18B010000220C12420F
:1003330061726F6D2E2044617461000A4261726FB5
:100343006D2E20436F6E662E00024261726F6D2E1A
:100353002043616C6962722E000A0A4261726F6DFA
:100363002E20506572696F640002FD8B010000CF7F
:100373008B02F38B010000880C1048890100008B6D
:100383000302EF8B0300008F0302F18B010000894E
:100393000C02F38B010000950C10288903000095D3
:1003A3000302F18B010000960C02F38B010000B3F2
:1003B3000C100889030000B40C02F18B010000B596
:1003C3000C02F38B010000A30C10188901000096A6
:1003D3000302EF8B030000A60302F18B010000A4CC
:1003E3000C12436F6E6E2E20506172616D730008A4
:1003F300436F6E6E2E20506172616D732052657172
:100403000008446973636F6E6E656374205265718F
:100413000002FD8B010000C98B02F38B0100003B3E
:100423000D10D888010000AE0302EF8B030000B467
:100433000302F18B0100003C0D02F38B0100004924
:100443000D10C888020000BA0302F18B0100004AB4
:100453000D02F38B0100005B0D10B888020000C28F
:100463000302F18B0100005C0D02020231323334CE
:1004730035363738393031320002020202020201C6
:100483000D000000100102FD8B010000B78B02F389
:100493008B010000C30D02ED8B010000C30302F3C7
:1004A3008B010000C40D02F98B0100002E8B02F3B7
:1004B3008B010000C50D02FF8B010000C60D02F386
:1004C3008B010000D40D02768A010000D68A02F364
:1004D3008B010000D50D02058C010000338B02F364
:1004E3008B010000D30D02DB8B0100001C8B02F398
:1004F3008B010000D60D02DD8B010000D98702F3CA
:100503008B010000D70D02078C010000688A02F3FB
:100513008B010000D80D02098C010000D90D01E800
:1005230003053F100A124779726F2044617461001A
:100533000A4779726F20436F6E662E000A0A477965
:10054300726F20506572696F640002FD8B010000B9
:10055300C38B02F38B0100007F0E1038880100006B
:10056300850402EF8B0300008B0402F18B01000072
:10057300800E02F38B0100008A0E104888030000EE
:10058300910402F18B0100008B0E02F38B0100003A
:10059300960E105888030000970E02F18B0100009D
:1005A300980E010361801248756D69642E204461C1
:1005B3007461000A48756D69642E20436F6E662E60
:1005C300000AD00748756D69642E20506572696F03
:1005D300640002FD8B010000C68B02F38B01000057
:1005E300000F103889010000F50402EF8B030000AF
:1005F300F90402F18B010000010F02F38B010000EB
:100603000D0F109888030000FF0402F18B01000016
:100613000E0F02F38B0100001B0F10A888030000CC
:100623001C0F02F18B0100001E0F01481254656D6F
:10063300702E2044617461000A54656D702E20434E
:100643006F6E662E000A1E54656D702E2050657203
:10065300696F640002FD8B010000D58B02F38B01EF
:100663000000860F10588A010000010502EF8B037A
:100673000000050502F18B010000870F02F38B01D7
:100683000000920F10088A0300000B0502F18B0192
:100693000000930F02F38B0100009F0F10F88903F2
:1006A3000000A00F02F18B010000A10F124D616742
:1006B3006E2E2044617461000A4D61676E2E2043E3
:1006C3006F6E662E000A0A4D61676E2E20506572AA
:1006D300696F640002FD8B010000CC8B02F38B0178
:1006E3000000061010D8890100000C0502EF8B03EF
:1006F3000000120502F18B010000071002F38B01C9
:100703000000121010C889030000180502F18B01C4
:100713000000131002F38B0100001F1010B88903AF
:100723000000201002F18B0100002110124D7075A2
:10073300363035302E2044617461000A4D707536B1
:100743003035302E20436F6E662E000AC8004D7080
:1007530075363035302E20506572696F640002FDA6
:100763008B010000C08B02F38B01000086101098F0
:10077300890100001B0502EF8B030000290502F12C
:100783008B010000871002F38B0100009510108885
:10079300890300002F0502F18B010000961002F37C
:1007A3008B010000A510107889030000A61002F148
:1007B3008B010000A810FF00013075030201060041
:1007C3000000000000000000000000000000000026
:1007D3000000000000000000000000FFFF06008092
:1007E3000CE803104B6579205072657373205374C2
:1007F3006174650002FD8B010000BD8B02F38B0168
:1008030000003D1102F78B000000DF0502EF8B03B0
:100813000000E00502F18B0100003E11FF0000B46F
:10082300000028002800283075A000A000A000A028
:100833000000080008E001F0001000100010001094
:10084300001000100050005000500010001000D0A5
:10085300070000000000000F0001000500307507CD
:10086300001000010081FF00000000FF4A1268121F
:100873005012FF02020208025000A0000000E80329
:1008830002FD8B010000BA8B02F38B010000CD1136
:1008930002EB8B010000180602F38B010000CE115E
:1008A30002E98B0100002E0602F38B010000CF1139
:1008B30002E78B010000300602F38B010000D01128
:1008C30002E58B080000310602F38B010000D11111
:1008D30002E18B010000D211FF0100FF2002FD8B1A
:1008E300010000D88B02F38B010000361202DF8B6C
:1008F300000000000002EF8B0300007E06141814B2
:100903001814181418141814181418141814181484
:1009130018141814181418A81AC01AA21A12013895
:10092300C4C20312013810C30312013866C3031291
:1009330001380BC403120138BFC403120138DEC4EB
:1009430003120138FDC4031201382BC50312013809
:100953005EC503120138D7C5031201385DC6031201
:100963000138FDC603120138C2C703120138F4C7A8
:100973000312013829C80312013857C8031201387A
:1009830088F002120138A7F002120138CAF00212ED
:100993000138F1F00212013818F1021201383FF167
:1009A3000212013866F10212013889F1021201388C
:1009B300ACF102120138CFF102120138F2F1021246
:1009C300013824F20212013847F20212013871F29F
:1009D300021201380DF30212013832F30212013808
:1009E30057F3021201387CF302120138A1F3021209
:1009F3000138C6F302120138EBF30212013812F484
:100A03000212013850F4021201387CF40212013848
:100A1300A8F402120138CDF40212013806F50212CD
:100A230001382DF50212013866F5021201388DF5F1
:100A330002120138C6F502120138EDF5021201382F
:100A430012F60212013837F60212013875F6021255
:100A5300013898F602120138C2F602120138A1F7E2
:100A63000212013849F90212013899F902120138C8
:100A7300C6FA02120138E5FA0212013808FB021223
:100A8300013859A6031201386EA603120138C6A60F
:100A9300031201382DA70312013875A70312013879
:100AA300EBA7031201381AA80312013828A803126E
:100AB30001388CA803120138CAA803120138E5A82B
:100AC300031201387DA90312013826AA0312013843
:100AD300A9AA03120138E2AA031201386DAB03126B
:100AE3000138C4AB0312013823AC0312013835AC0F
:100AF300031201385BAC0312013864AC03120138F2
:100B0300C3AD03120138FB9304120138DA940412C3
:100B130001380080041201384580041201388B80AB
:100B2300041201381E82041201389F9B04120138FB
:100B3300BA9B04120138CA9B04120138219C041287
:100B4300013855A10412013897BC03120138B7BC10
:100B530003120138BBBD0312013807BE031201386B
:100B630027BE031201387ABE03120138E7BE03120F
:100B730001382DBF0312013891BF0312013843C25C
:100B8300031201386184041201389184041201387C
:100B9300C18404120138848504120138DE850412ED
:100BA3000138E18C04120138F98C04120138568D96
:100BB300041201389A8D04120138CC8D04120138C5
:100BC300038E04120138268E041201389C31001260
:100BD30001382E3800120138F53800120138583B1D
:100BE30000120138AC4500120138D7450012013814
:100BF300DD46001201381B47001201380349001279
:100C030001383A49001201387A4B001201388C4FEF
:100C130000120138C34F001201388D500012013801
:100C2300C45000120138FB50001201387A510012EF
:100C33000138B551001201383B52001201380E53EE
:100C4300001201389B53001201386054001201381E
:100C5300269D041201389C9704120138AADF03125F
:100C63000138FDDF031201381AE003120138EFE007
:100C7300031201386CE10312013849E2031201380F
:100C8300BEE3031201388AC803120138AFC8031246
:100C930001380DC903120138F8A104120138BC54FC
:100CA30000120138CA57001201388A59001201385C
:100CB300355A00120138D95A00120138725B0012FA
:100CC3000138A15B001201387B60001201382661F4
:100CD30000120138966200120138FE6200120138D8
:100CE300B26300120138746600120138B366001251
:100CF3000138276700120138866700120138E5675B
:100D03000012013854680012013847690012013893
:100D13008D6900120138D26900120138F569001299
:100D23000138706B00120138836B001201388C6C30
:100D330000120138CB6C00120138F76C0012013835
:100D43004A6D001201386B6D00120138AF6D00124D
:100D53000138017000120138427000120138ED7041
:100D630000120138587100120138957200120138CF
:100D7300DC9D04120138458B04120138768B041272
:100D830001389A8B041201386D8C04120138D699FC
:100D930004120138B69A041201386D9C041201380A
:100DA3008B9C04120138149D04120138B1A404125F
:100DB3000138709604120138809604120138919616
:100DC300041201389697041201388EF50312013884
:100DD30034F60312013850F803120138EBFD031205
:100DE30001384DFE03120138C5FE031201386DFFB1
:100DF300031201388CFF031201389CFF03120138E0
:100E0300DBFF031201385891041201389291041246
:100E130001380592041201383F92041201385192AD
:100E230004120138889204120138A589041201388A
:100E3300F48904120138268A04120138B78A04128D
:100E43000138338B04120138708E04120138A38EDB
:100E5300041201381F8F041201383F8F0412013826
:100E6300A48F04120138EC8F04120138EF8F04129F
:100E73000138DE7F00120138F07F00120138F37F62
:100E83000012013836950412013885950412013891
:100E9300B19504120138D195041201385E960412FB
:100EA3000138AC9204120138FD92041201384493C4
:100EB30004120138CE9304120138F87F001201386E
:100EC3003EFB0312013835FD03120138A1FD031265
:100ED3000138E8FD03120138A3CD03120138F6CD22
:100EE300031201381FCE03120138DDCE031201387D
:100EF30046CF0312013884D0031201383ED20312C5
:100F03000138A39403120138D19403120138D19606
:100F130003120138D198031201388C990312013856
:100F23003E9D03120138A99D03120138489F041204
:100F33000138929E04120138EEE30312013841E4B2
:100F4300031201386AE403120138D3E403120138AF
:100F530011E603120138CBE703120138628204124F
:100F63000138CB82041201388983041201380884C2
:100F7300041201386FEF03120138A1EF0312013895
:100F8300A9F003120138CEF10312013800800312D5
:100F93000138E68003120138338103120138768168
:100FA30003120138EB81031201384C82031201381A
:100FB300C182031201389D8303120138A8840312EE
:100FC3000138298503120138D08603120138668758
:100FD30003120138D98703120138558803120138E7
:100FE3006C8803120138A38903120138FD890312A7
:100FF3000138A1E70112013839EC011201380DEF74
:101003000112013836EF011201384DEF0112013898
:1010130076EF0112013828F0011201380EF20112A5
:10102300013849F3011201387FF801120138B8F889
:1010330001120138FCF8011201380EFA01120138CD
:101043007AA304120138FE9F041201384686041263
:1010530001385D86041201388E8604120138C98670
:1010630004120138F386041201381D870412013873
:101073003487041201384B87041201386287041243
:1010830001388B87041201389E8704120138B48714
:1010930004120138C78704120138EE87041201389D
:1010A300698A031201386D8B03120138A58B031271
:1010B3000138C88B03120138D38B03120138F68B26
:1010C30003120138058D03120138DA8D031201383A
:1010D300558E03120138DD8E03120138188F031267
:1010E30001384F8F03120138DD8F03120138B69098
:1010F30003120138169103120138219103120138AA
:10110300A09103120138A39103120138A69103128F
:10111300013835920312013838920312013868926C
:10112300031201389292031201388093031201389B
:101133003294031201382BFB0212013853FB0212C3
:10114300013881FB02120138B8FB0212013816FC88
:101153000212013861FC02120138ACFC02120138A0
:10116300ECFC0212013832FD0212013860FD02125A
:1011730001381DFE0212013827FE0212013834FE27
:101183000212013867FE0212013833FF02120138DE
:101193003FFF0212013857FF0212013861FF0212AA
:1011A3000138C89A04120138D69A04120138EE9A0B
:1011B30004120138069B04120138279F02120138DA
:1011C300D39F021201384EA0021201386FA10212FE
:1011D3000138ABA10212013854A2021201383BA319
:1011E300021201389FA402120138F6A40212013838
:1011F30077A50212013867A602120138B4A60212BB
:1012030001383AA7021201386CA70212013880A9EB
:1012130002120138C2A902120138E0A902120138F0
:1012230063AA0212013837AB02120138FFAB021274
:10123300013874B50312013847B603120138F0B60A
:101243000312013843B703120138F3B7031201380D
:101253007FB8031201386BB9031201389AB903122C
:101263000138ADBA03120138F5BA03120138CABB0B
:101273000312013806BC0312013822BC03120138E1
:1012830082A204120138D6EB03120138ECEB0312ED
:10129300013812EC031201382EED0312013838ED38
:1012A300031201386DEE0312013865EF03120138A2
:1012B300CEFA01120138FEFB0112013831FC011292
:1012C30001387BFC0112013842FE01120138008013
:1012D300021201386A8002120138C98102120138F0
:1012E300D981021201380682021201385D8202128C
:1012F30001380683021201380D8402120138D784A3
:10130300021201383786021201387A860212013836
:101313001F87021201386C8702120138928702126A
:101323000138A08902120138A58902120138AA8B5B
:1013330002120138F78B021201386A8C021201384B
:101343009D8C021201383F8D02120138E88D021282
:101353000138208E02120138238E021201386B8E5F
:1013630002120138AB8E02120138028F02120138C9
:101373006BF80312013883F803120138CBF8031218
:101383000138E1F80312013828F9031201383CFA55
:1013930003120138C9FA0312013814FB031201388E
:1013A300168C01120138228C011201385D8C011256
:1013B3000138A28C01120138628D01120138E88DC7
:1013C300011201384D8E01120138798E0112013854
:1013D300B28E01120138F09001120138D492011239
:1013E3000138BA9401120138FD95011201384B9866
:1013F300011201385D9901120138A89A01120138CE
:10140300B89B01120138D59B01120138109C0112BF
:101413000138329C01120138959C0112013856A102
:1014230001120138EBA1011201383CA2011201386B
:1014330063A201120138B5A201120138D3A201122D
:1014430001382DA30112013816A4011201388CA50D
:101453000112013810A6011201387BD203120138A0
:1014630085D203120138C8D203120138E3D2031222
:10147300013873D3031201389BD303120138D8D335
:10148300031201380FD40312013838D40312013880
:10149300ADD403120138C2D403120138D7D40312D6
:1014A300013808D5031201381CD50312013841D580
:1014B300031201387BD503120138A7D50312013873
:1014C3002AD60312013873D6031201389DD60312AC
:1014D3000138C8D603120138BD980412013887D8E1
:1014E30002120138B5D80212013803DA02120138A8
:1014F300E3DA0212013802DB021201387FDB021247
:101503000138C2DB0212013818DD02120138D9DDBD
:101513000212013860E00212013801E102120138BF
:10152300F7E102120138F4E2021201384EE402122A
:101533000138D9E402120138FD8F04120138669094
:1015430004120138BA9004120138E19004120138F0
:10155300129104120138F0D6031201385DD7031239
:101563000138A4D703120138BCD803120138B8D903
:10157300031201389BDA03120138F09D031201387C
:10158300329E03120138049F03120138DD9F0312B8
:101593000138D7A003120138B9A10312013822A2DE
:1015A30003120138D8A2031201384CA303120138E5
:1015B300B8A303120138E1A3031201385BA4031299
:1015C3000138F4A40312013859A5031201386EA59A
:1015D30003120138B4A503120138CDA50312013853
:1015E30032A60312013835A60312013895F203120D
:1015F3000138BDF203120138FBF203120138B9F3CB
:101603000312013820F4031201383CF403120138A9
:1016130064F40312013894F403120138A3F403129F
:10162300013820F50312013846F503120138EF8F14
:1016330002120138CD9102120138FF9302120138D0
:101643003B94021201386894021201385295021237
:1016530001389D9502120138E89502120138FA9576
:10166300021201383A96021201386F9602120138BB
:10167300BD9602120138EC96021201380F9702123E
:1016830001385C9702120138E19702120138FB9985
:10169300021201383A9C021201387B9C0212013873
:1016A3001D9E021201385E9E02120138D19E021263
:1016B3000138C97200120138C77300120138607A09
:1016C30000120138817C001201384C7E001201386F
:1016D300B47F0012013877A60112013826A7011240
:1016E300013853A70112013899A701120138D9A86B
:1016F300011201386FAA01120138E9AA0112013857
:1017030004AB011201387FAB01120138D9AC0112CD
:10171300013839AE011201383FAF01120138A0B0D0
:1017230001120138B9B00112013817B101120138A1
:1017330005B20112013838B201120138A8B2011200
:10174300013822B3011201386CB30112013836B4E7
:10175300011201380BB501120138EAB50112013843
:1017630075B601120138E3B60112013857B70112F9
:10177300013882B70112013841B801120138A6B904
:1017830001120138C3B901120138E2B9011201385B
:10179300D3BA01120138F8BA0112013822BB01127F
:1017A30001389DBB01120138F7BB0112013860BD3E
:1017B300011201380EBE011201384FBE0112013869
:1017C300B3CA0212013801CB021201380DCB021247
:1017D3000138EBCB021201381CCC021201384DCC7C
:1017E30002120138CDCC0212013805CD02120138A4
:1017F30057CD0212013894CD02120138B1CF021233
:101803000138D7D102120138C2D302120138ACD544
:10181300021201389131001201388ED301120138BE
:10182300BED30112013897DA011201381CDC011210
:10183300013819E20112013801E3011201383EE3D4
:101843000112013861E30112013892E301120138F8
:101853009BE301120138A5E30112013893E401125D
:10186300013889E5011201387FBE011201387EC2B9
:101873000112013884C201120138BFC901120138B3
:10188300D8CE0112013808E8031201389EE803128A
:101893000138B4E8031201382AE9031201389EE93A
:1018A30003120138DCE90312013850EA031201384C
:1018B300C9EA03120138D2EA03120138DEEA03123D
:1018C3000138F3EA0312013831EB0312013847EB15
:1018D30003120138A6EB031201385DDB0312013852
:1018E3006ADB0312013884DB03120138C3DB031202
:1018F300013801DC0312013866DC031201387BDC9A
:101903000312013886DC0312013893DC0312013819
:10191300AADC03120138B8DC03120138C3DC03125A
:101923000138CFDC03120138DEDC03120138E9DCB5
:10193300031201380CDD03120138B3DD0312013841
:10194300C3DD03120138DDDD03120138FADD0312B2
:10195300013816DE031201383BDE0312013846DE7E
:10196300031201385BDE031201386FDE0312013804
:10197300D0DE03120138D6DE03120138DCDE031297
:101983000138E2DE03120138FADE031201382DDFDB
:101993000312013889BC021201380DBD021201384D
:1019A300BCBD021201381BBF021201383CC1021236
:1019B300013828C2021201385DC2021201387FC207
:1019C300021201382EC30212013826C50212013851
:1019D3004FC502120138E1C50212013813C60212C3
:1019E300013820C60212013877C6021201389DC69B
:1019F300021201380AC9021201380DCA0212013853
:101A030065CA0212013818AE0212013822AF02125F
:101A1300013809B00212013813B00212013835B08F
:101A23000212013841B002120138DAB10212013850
:101A330009B20212013825B3021201387EB3021231
:101A43000138E4B402120138C3B5021201381FB6DB
:101A5300021201388CB602120138C7B602120138DD
:101A630006B702120138BFB902120138D9B90212FE
:101A7300013865BA0212013873BA02120138CCBABE
:101A830002120138DABA021201384DBB02120138D0
:101A9300B1BB02120138FBBB021201385AE5021234
:101AA30001387CE502120138A2E702120138B7EAD5
:101AB30002120138CFEB0212013882EC0212013814
:101AC30064ED0212013800880412013825880412DB
:101AD3000138978804120138FAAD0312013803AEB6
:101AE300031201380CAE03120138E3AE03120138BE
:101AF30094B003120138CAB00312013804B10312BF
:101B030001383AB10312013874B103120138A8B194
:101B130003120138D4B1031201381DB20312013884
:101B230057B203120138A0B203120138F8B20312FC
:101B330001382DB30312013888B303120138C2B33D
:101B43000312013813B40312013849B403120138E4
:101B530083B403120138B1B403120138D4B40312AD
:101B63000138AAA004120138D6A00412013831A109
:101B7300041201383BA1041201384BA104120138AD
:101B8300DFA30412013867A40412013831A404123C
:101B9300013893A404E066701008A3E066700A0895
:101BA300A3E066700408A3E06622C3E7960809E78A
:101BB300960809E7960809E79622C3E09608A3E08A
:101BC3009608A3E09608A3E09622C008C3E096F522
:101BD3000808A3E096420808A3E096420808A3E099
:101BE3009645087001D3D00822080808EAC0E0EB44
:101BF300C0E086F0E7A4FA180986F0E7A42AFA18E9
:101C03000986F0E7A42AFA180986F0E7A42AFA1944
:101C130086F0E7A4FBE5F02AFA190886F0E7A42B7F
:101C2300FBE5F03AFA190886F0E7A42BFBE5F03A56
:101C3300FA18180986F0E7A4C5F02BFBE43AFA1961
:101C430008E7C5F0C6A426F6E5F03BFBE43AFA182C
:101C530086F0E7A4F6E5F00826F6E43B08F6E43A56
:101C630008F6D0E0FBD0E0FA22E4CFC0E0E4CEC037
:101C7300E0E4CDC0E0E4CCC0E075F020C3E633F689
:101C830008E633F608E633F608E633F6181818ECD8
:101C930033FCED33FDEE33FEEF33FFC3EC9709ED79
:101CA3009709EE9709EF97191919400FFFEC97FC65
:101CB30009ED97FD09EE97FE191906D5F0BEECF76D
:101CC30009EDF709EEF709EFF7191919D0E0FCD080
:101CD300E0FDD0E0FED0E0FF226016080808C6C38E
:101CE30013C618C613C618C613C618C613C6D5E03E
:101CF300EA227009080808226016181818C6C333A8
:101D0300C608C633C608C633C608C633C6D5E0EA16
:101D130022E627F60809E637F60809E637F6080942
:101D2300E637F622E026F608A3E036F608A3E03607
:101D3300F608A3E036F622E026F008A3E036F00822
:101D4300A3E036F008A3E036F022C3E697F60809CD
:101D5300E697F60809E697F60809E697F622C3E040
:101D630096F008A3E096F008A3E096F008A3E096A7
:101D7300F022E657F60809E657F60809E657F6088B
:101D830009E657F622E056F608A3E056F608A3E064
:101D930056F608A3E056F622E056F008A3E056F004
:101DA30008A3E056F008A3E056F022E647F6080938
:101DB300E647F60809E647F60809E647F622E0F69D
:101DC30008A3E0F608A3E0F608A3E0F622E6F0088D
:101DD300A3E6F008A3E6F008A3E6F022E0FAA3E006
:101DE300FBA3E0FCA3E0FD22EAF0A3EBF0A3ECF0FD
:101DF300A3EDF022CAC0E0E6F0A308DAFAD0E0FAD5
:101E030022CAC0E0E0A3C582CCC582C583CDC58309
:101E1300F0A3C582CCC582C583CDC583DAE6D0E005
:101E2300CA22C3E498F8E499F9121E668026C3E433
:101E33009AFAE49BFBE920E7E9121E66E498F8E4CA
:101E430099F922C3E498F8E499F9121E66E498F824
:101E5300E499F9C3E49AFAE49BFB22EB20E7CFE988
:101E630020E7E0B90010BB0008E88AF084F8AAF084
:101E730022E4FBC8FA22EB70227B10C833C8C933B3
:101E8300C9335007C39AC3DBF280069A50012ADB99
:101E9300EAC833F4C8C933F4C9FA2275F008E4C8B0
:101EA30033C8C933C933C99AC99B5004C92AC93B2A
:101EB300D5F0ECFBC833F4C8E4C9FA22600D08C6B8
:101EC300A2E713C618C613C6D5E0F322600C08C6F2
:101ED300C313C618C613C6D5E0F422700422600DDE
:101EE30018C6C333C608C633C6D5E0F4182225186E
:101EF30010AF08F518400215198008F518400215AF
:101F030019D2AF22C0D0251810AF08F5185002051A
:101F1300198008F51850020519D2AFD0D022251820
:101F2300F58210AF08F518400215198008F518401E
:101F3300021519D2AF851983222518F582E43519C4
:101F4300F58322E4732518C582C0E0E51934FFC583
:101F530083C0E0E518C3958224F810AF0885831980
:101F63008582188008858319858218D2AFCEF0A3A5
:101F7300E520F0A37808E608F0A3DEFAEFF0A3E586
:101F83008124FAF8E608F0A3E608F0A3E608F0A334
:101F93000808E608F0A3E608F0A315811581D0E050
:101FA300FED0E0F8158115811581E8C0E0EEC0E0B0
:101FB300222518C582C0E0E51934FFC583C0E0E5DA
:101FC30018C3958224F910AF088583198582188078
:101FD30008858319858218D2AFCEF0A3E520F0A33C
:101FE3007808E608F0A3DEFAEFF0A3E58124FBF816
:101FF300E608F0A3E608F0A30808E608F0A3E6085D
:10200300F0A315811581D0E0FED0E0F8158115818C
:10201300E8C0E0EEC0E022851983851882E0A3FEC4
:10202300E0A3F5207808E0A3F608DFFAE0A3FFE0D9
:10203300A3C0E0E0A3C0E0E0A3C0E0E0A3C0E0E011
:10204300A3C0E010AF0885821885831980088582B4
:1020530018858319D2AFD083D082020135851983C5
:10206300851882E0A3FEE0A3F5207808E0A3F60834
:10207300DFFAE0A3FFE0A3C0E0E0A3C0E0E0A3C079
:10208300E0E0A3C0E010AF088582188583198008BB
:10209300858218858319D2AFD083D08222C0D02500
:1020A30018C582C0E0E51934FFC583C0E0E518C355
:1020B300958224F310AF08858319858218800885DB
:1020C3008319858218D2AFC8F0A3E9F0A3EAF0A37D
:1020D300EBF0A37908E709F0A3D8FAECF0A3EDF04D
:1020E300A3EEF0A3EFF0A3D0E0F0A3D0E0F0A3D0F1
:1020F300E0F0A3E520F0A3E5F0F0A32285198385A2
:102103001882E0C0E0A3E0F9A3E0FAA3E0FBA37820
:1021130008E0F608A3DFFAE0FCA3E0FDA3E0FEA3DA
:10212300E0FFA3E0C0E0A3E0C0E0A3E0F5D0A3E0BC
:10213300F520A3E0A3F5F010AF0885831985821875
:102143008008858319858218D2AFD082D083D0E0EE
:10215300F8D0E03274048006740280027401C0E097
:10216300F404121F21D0E0121DF7227404800474BA
:10217300028000CCC0E0EDC0E0E518C39CCCAD19F3
:1021830050011D10AF068C188D1980068C188D19FF
:10219300D2AF121E04D0E0FDD0E0FC22D083D08267
:1021A300E9C0E0E493A3C386F0C5F095F0F908E431
:1021B30093A386F0C5F095F0700BE493A3C3994005
:1021C30005E9048002A3E475F002A42582F582E503
:1021D300F03583F583D0E0F9E493A3C0E0E493C042
:1021E300E022D083D082ECC0E0EDC0E0E493A3FC16
:1021F300E493A3FDED4C600D122231EC24FFFCEDC2
:1022030034FFFD80EFE493A3FCE493A3FDED4C6066
:102213000D122270EC24FFFCED34FFFD80EFD0E0C3
:10222300FDD0E0FCE493A3C0E0E493C0E022C0E06F
:10223300C3E49396087401939618400FE493667071
:102243000808740193661870007019A3A3C3E4937C
:1022530096087401939618A3A3400DD0E0D0E0D064
:10226300E0022221A3A3A3A3A3A3D0E022C0E0C042
:10227300F088F0E4936670080874019366187000A0
:10228300A8F0A3A3700BD0F0D0E0D0E0D0E00222FE
:0822930021A3A3D0F0D0E0224A
:10229C00C2AF02000022C0E074F21220A0A2AFE490
:1022AC0033FED2AFE589A2E05003120E60758900AF
:1022BC00C2C5EEF8EEA2E092AF7F010220FFC0E0B3
:1022CC0074F21220A0A2AFE433FED2AFE58AA2E6EC
:1022DC004006E58AA2E75003120E60758A00758AE3
:1022EC0000C2EBEEF8EEA2E092AF7F010220FFC03D
:1022FC00E0C0D0E8C0E0E9C0E0A2AFE433F8D2AF70
:10230C00758B00C2E8E8F9E8A2E092AFD0E0F9D012
:10231C00E0F8D0D0D0E032C0E0C0D0E8C0E0E9C0F6
:10232C00E0A2AFE433F8D2AFC2C7751A00E8F9E8FF
:10233C00A2E092AFD0E0F9D0E0F8D0D0D0E0327487
:10234C00F5121FB4EAFEEBFFEE2434F8EF3400F97B
:10235C0088088909EE2435F582EF3400F583E0F81E
:10236C00EE2437F582EF3400F583E0F50AEC850AAC
:10237C00F0A4FCAAF0850AF0EDA42AFDE82CF8E400
:10238C003DF97A257B00121E66EA85088285098351
:10239C00F0F8740758F97401B900028004C333D9FA
:1023AC00FCFAE8131313541FF8EE28F8EF3400F975
:1023BC00E8245DF582E93400F583E05A6008EE24E8
:1023CC0034F582EF802CEE2434F582EF3400F58363
:1023DC00E0C0E0EE2436F582EF3400F583E0F5F052
:1023EC00D0E084A8F0EE28F8EF3400F9E82438F5B2
:1023FC0082E93400F583E0F97F0402206074F51261
:10240C001FB4EAFEEBFFEE2434F582EF3400F583C3
:10241C00E0C0E0EE2435F582EF3400F583D0E0F037
:10242C008E828F83A3A3A3A3A3A3A3C082C0838EF6
:10243C00828F83A3A3A3A3A3E0F8A3E0F9D083D056
:10244C0082E0C398F508A3E099F509EE247FF582A4
:10245C00EF3400F583E064017069EE2480F582EFBF
:10246C003400F583E0F8A3E0F98E828F83A3A3A355
:10247C00A3A3A3A3E0FCA3E0FD8E828F83A3A3A35D
:10248C00A3A3E0FAA3E0FBC3EA9CEB9D5010C3ECC2
:10249C0098ED99402EC3EA98EB995027800EC3EA29
:1024AC0098EB994007C3EC98ED9940177C417D0857
:1024BC00EEFAEFFB121772EE247FF582EF3400F583
:1024CC0083E4F0EE2434F8EF3400F9E8FCE9FDEE97
:1024DC002435F582EF3400F583E0F8EE2437F582ED
:1024EC00EF3400F583E0F50AE508850AF0A4F50859
:1024FC00AAF0850AF0E509A42AF509E82508F8E40C
:10250C003509F97A257B00121E66EA8C828D83F0E0
:10251C00F8740758F97401B900028004C333D9FC6C
:10252C00FAE8131313541FF8EE28F8EF3400F9E807
:10253C00245DF582E93400F583E05A6008EE24341A
:10254C00F582EF802CEE2434F582EF3400F583E035
:10255C00C0E0EE2436F582EF3400F583E0F5F0D0E0
:10256C00E084A8F0EE28F8EF3400F9E82438F5827E
:10257C00E93400F583E0F9123183022404C082C0EF
:10258C0083851882851983E0F8A3E0F9C3EA9CEBF4
:10259C009D5010C3EC98ED99401BC3EA98EB9950F1
:1025AC0014800EC3EA98EB994007C3EC98ED994060
:1025BC0004790180027900D083D08222EAC39CFA8C
:1025CC00EB9DFB2274EF121FB4900707E0640860C8
:1025DC0005E06407702A9061C8E06024900735E03C
:1025EC00F4601DE0F875F003A4C8AAF02AF974375A
:1025FC0028FE740739FF8E828F83A3A3A3E0700398
:10260C00022700906060E0C0E0EE2468F582EF34B1
:10261C0000F583D0E0F0750CAA750D0875080075EF
:10262C000900E5D914F50AE5D95403F50E601774C1
:10263C0003650E605CE50A6010EE2467F582EF34EA
:10264C0000F583E070030226E59008A5E0640160C4
:10265C002AEE2482F582EF3400F583E060047804DE
:10266C0080027800850A08E508C398FA95E0FB1209
:10267C0016408A088B09EA45097005121976807490
:10268C00EE2482F582EF3400F583E070048A0C8B23
:10269C000DE50A6012850C82850D83F50BE5D9F0EA
:1026AC00A3150BE50B70F6EE2482F582EF3400F5E2
:1026BC0083E0604474FC250AF50A780C12215BACAB
:1026CC000AA90EEEFAEFFB12180E7402121F07E99C
:1026DC007026AA08AB09120F62793D8E828F83A3F4
:1026EC00A3A3A3E0FA7B00121514EEFAEFFB12176A
:1026FC008A121820790080747403650E6056850A5E
:10270C0010751100781012215BAC0CAD0DAA08AB42
:10271C00091217EA7402121F07EE2468F582EF34CF
:10272C0000F583E064807004747F8001E0F50C7820
:10273C000C12215FE50EF50C780C12215FA90AAC86
:10274C0008AD09900735E0FA7B001214D874021218
:10275C001F078013900707E06408600BAC0CAD0DED
:10276C00EEFAEFFB12187A12198279017F0A022015
:10277C006074F5121FB474FC121EF1EAFEEBFF89B3
:10278C0008A2AFE433F509C2AF806AEE2463F8EF18
:10279C003400F97A007B00A2AFE433F50AC2AF88AB
:1027AC00828983E0FCA3E0FDEC4D603A888289834A
:1027BC00E0FAA3E0FB8A828B83E0FCA3E0FD888235
:1027CC008983ECF0A3EDF08A828B83E4F0A3F0888C
:1027DC00828983E0FCA3E0FDEC4D700A888289833A
:1027EC00A3A3E4F0A3F0E50AA2E092AF120F62906B
:1027FC000848E004F0EE2463F582EF3400F583E042
:10280C00F8A3E0F9E849603DEE2463F582EF34006B
:10281C00F583E02402FAA3E03400FBEA2402F50A73
:10282C00EB3400F50B780A12215B8A828B83E0FC77
:10283C00A3E0F9EEFAEFFB1217AE7402121F07E9D0
:10284C007003022797900848E06063900849E0F80D
:10285C00900848E0C398500C7402650870509008BA
:10286C004AE0604A8E828F83A3A3A3A3E0851882DB
:10287C00851983F0A3E4F0900848E0F87402121F65
:10288C003CE8F0A3E4F0900848E0F8900847E02812
:10289C00F07402121F3CAC82AD83851882851983BB
:1028AC00AA82AB8379011214E4900848E4F0E5099C
:1028BC00A2E092AF7404121F0702240485218785BD
:1028CC0022C622C0E0C0D0E8C0E0E9C0E0EAC0E027
:1028DC00EBC0E0ECC0E0EDC0E0EEC0E0C008C00929
:1028EC00C00AC00BC082C083C0F0A2AFE433FEC2EA
:1028FC00AF759B00906182E0A2E05012E591A2E0DE
:10290C00500C7591FE7401652170031225D0E0A264
:10291C00E55051E591A2E5504B7591DF900707E02A
:10292C0064076005E06408702374016521703579D3
:10293C0001900735E0FA75F003A4CAA8F028FB74DF
:10294C00372AFA74073BFB12277D8018E0640D7060
:10295C0013900729E004F064287002E4F07A00E098
:10296C00F9121988906182E0A2E64003022A16E56A
:10297C0091A2E64003022A167591BF900707E06406
:10298C000570081218B01218BC80031218B6752105
:10299C0000121916E9900708F0790012190A12169C
:1029AC00E87A017B00900706E0F9120ADC907803C4
:1029BC00E0644270559008A9E014F0704DC2AF125B
:1029CC0029CE00782AD0E0F618D0E0F6E59F54071F
:1029DC0070057509FF800375097FC4C0E07829E68E
:1029EC00F50808E65509F509740B7808121ECFD0C6
:1029FC00E02508F8906270E0A2E740F8E8C3339055
:102A0C006272F0906270E0D2E0F0906181E0A2E33B
:102A1C005009E5E9A2E3500375E9F7A3E0A2E750FA
:102A2C0009E591A2E7500375917FEEA2E092AFD039
:102A3C00F0D083D082D00BD00AD009D008D0E0FEE1
:102A4C00D0E0FDD0E0FCD0E0FBD0E0FAD0E0F9D053
:102A5C00E0F8D0D0D0E032C0E0C0D0C082C08390CB
:102A6C006183E0A2E05009E5BFA2E0500375BFFE10
:102A7C00E0A2E15009E5BFA2E1500375BFFDE0A261
:102A8C00E25009E5BFA2E2500375BFFBE0A2E350A0
:102A9C0009E5BFA2E3500375BFF7E0A2E45009E5D6
:102AAC00BFA2E4500375BFEFE0A2E55009E5BFA259
:102ABC00E5500375BFDFE0A2E65009E5BFA2E65082
:102ACC000375BFBFD083D0828088C0E0C0D0E8C07F
:102ADC00E0E9C0E0EAC0E0EBC0E0ECC0E0EDC0E053
:102AEC00C0F0E5A7A2E6500FE5A1A2E6500953A756
:102AFC00BF75A1BF122B3BE5A7A2E5500CE5A1A227
:102B0C00E5500653A7DF75A1DFE5A7A2E15009E563
:102B1C00A1A2E1500375A1FDE5A7A2E2500CE5A12D
:102B2C00A2E2500653A7FB75A1FBD0F0022A4C740D
:102B3C00F8121FB4752101900707E0640670151296
:102B4C00183E8A828B83A3A3A3A3A3A3E0FAA3E0DA
:102B5C00FB12189EA2AFE433FED2AF90070DE064D7
:102B6C000170187A207B00900706E0F9120B6C7A42
:102B7C00207B00900706E0F9120AE2906182E0D215
:102B8C00E6F09008A6E0602185C622801690070C1E
:102B9C00E064017008E5C654F84405F5C653BEFC64
:102BAC001228C87401652160E4EEA2E092AF7F01A7
:102BBC00022060008E238F24858228858327851828
:102BCC0082851983E0CEA3E0CF852882852783EB0D
:102BDC00C9EAC8EDCBECCA75F010C3E833C8E933C9
:102BEC00C9EA33CAEB33CBC3EA9EF526EB9FF52536
:102BFC00B35004AB25AA26EC33CCED33CDD5F0DAAB
:102C0C00AE23AF242274E9121FB474F8121EF1859E
:102C1C001882851983ECF0A3EDF08A088B099007D4
:102C2C0007E024F7C394055006750801022DA8127D
:102C3C00183E8A0A8B0BAE0AAF0BEE4F7003022DB7
:102C4C00A5AC08AD097402121F3CAA82AB83121802
:102C5C00CE8E828F83A3A3750CFF750DFF750EFFAF
:102C6C00750F00780C121D887402121F3C7510FF32
:102C7C007511FF7512FF7513007810121D88780CF2
:102C8C007910121BAD502A780C7910121D4D750855
:102C9C00017509C8750A00750B007808790C121BB0
:102CAC00AD5052850C08850D09850E0A850F0B80D9
:102CBC00507514017515C875160075170085100828
:102CCC0085110985120A85130B7808790C121D4D94
:102CDC0078147908121BAD401C7508007509007535
:102CEC000A00750B0178087910121D4D7808790CC3
:102CFC00121D14800C750801750900750A00750BFE
:102D0C000074097808121CF5750C19F50DF50EF503
:102D1C000F7808790C121C6C8E828F83A3A3A3A34B
:102D2C00A3A3E0F8A3E0F97AD07B03121E66880C0B
:102D3C00890DE4F50EF50F7808790C121D14740644
:102D4C00121F3CE0F8A3E0F97AD07B03121E66E870
:102D5C00FA8A0CE4F50D7808790C121BAD50077843
:102D6C0008790C121D4D900707E06408600AE064B6
:102D7C00066005E06405702D750C0D780C79081251
:102D8C001BAD4021750CF4750DFF750EFF750FFF13
:102D9C007808790C121D14800C75080075090075E3
:102DAC000A00750B00851882851983E0F8A3E0F5FD
:102DBC008388827808121DD07408121F077F1002B6
:102DCC00206074F7121FB41218E09008A4E064019C
:102DDC007010906245E4F0A3F053F4F343FE0C53EF
:102DEC0090F312188CE5C654804449F5C6E59E5400
:102DFC007F644970F8906185740FF09008A2E0F43C
:102E0C007002A3E0604E9008A3E0600814601B14ED
:102E1C00602E80407508017509009008A2E07808C2
:102E2C00121EDEE508F45280802A7508017509002F
:102E3C009008A2E07808121EDEE508F45290801487
:102E4C007508017509009008A2E07808121EDEE5ED
:102E5C0008F452A079007F0202206074F7121FB4AC
:102E6C00E9FEEAFF74016E700C7A807B0090070615
:102E7C00E0F9120ADC903194E493F46008E493F9DD
:102E8C001216DC800953C680E59E547F70FA121826
:102E9C00929008A4E0640170031216F49008A2E06A
:102EAC00F47002A3E0604B9008A3E0600814601A71
:102EBC0014602C803D7508017509009008A2E0781B
:102ECC0008121EDEE508428080287508017509008D
:102EDC009008A2E07808121EDEE508429080137577
:102EEC0008017509009008A2E07808121EDEE508BA
:102EFC0042A01218E012183E8A088B09A808A909EA
:102F0C00E8496015E5E170FCE82414F582E9340029
:102F1C00F583E0F46003E0F5E174016F700A7A0167
:102F2C00900706E0F9120B36022E6274ED121FB4F4
:102F3C008A088B098C0A8D0B7413121F3C780C12A7
:102F4C001DC17808790C121BAD7510017511C8756F
:102F5C00120075130050127808790C121D4D781060
:102F6C007908121BAD50168010780C7908121D4D83
:102F7C007810790C121BAD40047901800279007F26
:102F8C000C02206074ED121FB48A088B098C0A8D18
:102F9C000B7413121F3C780C121DC1780C7908129B
:102FAC001BAD40117808790C121D4DAA08AB09AC69
:102FBC000AAD0B8022751000751100751200751387
:102FCC00017810790C121D4D78107908121D14AA75
:102FDC0010AB11AC12AD1380A68A828B837508FFDF
:102FEC007509FF750AFF750B007808121D9B7F048D
:102FFC0002206074F5121FB48C828D837808121D28
:10300C00C18A828B837808121D61EA2404F8EB34A0
:10301C0000F98C828D83A3A3A3A3E0FCA3E0FD881D
:10302C00828983C3E09CF0A3E09DF088828983C3EE
:10303C00E09420A3E0944E40268A828B837508FF8F
:10304C007509FF750AFF750BFF7808121D3A8A8205
:10305C008B83A3A3A3A3E02420F0A3E0344EF002BF
:10306C002FE574F5121FB4E9FE90085CE0FAA3E0BA
:10307C00FBEEC333F8E433F9748828F5827488398D
:10308C00F583E02AF508A3E03BF509780812215BEB
:10309C007A407B427C0F7D00122BC07402121F07FA
:1030AC008A088B098C0A8D0B74107808121CDCAA08
:1030BC0008AB097F0402206074F1121FB48A0C8BD8
:1030CC000D8C0E8D0F740F121F3CE0FAA3E0FB74F5
:1030DC0011121F3CE0F508A3E0F509780812215BFA
:1030EC00EA2401F508EB3400F509E4F50AF50B7850
:1030FC000C7908121BEC750871750902780C7908AB
:10310C00121BECAA0CAB0DAC0EAD0F122BC0740243
:10311C00121F078B09EA450960047A0180027A00C4
:10312C00EC2AFCED3400FD7413121F3CE0F8A3E014
:10313C00F9E8FEE9FFECF8EDF97A717B02121E66F4
:10314C00880889098E828F837808121DD0ECF8EDDF
:10315C00F97A717B02121E668A088B09740578084D
:10316C00121EDE8E828F83A3A3A3A3E508F0A3E532
:10317C0009F07F08022060C082C083E9906000F0F3
:10318C00D083D08222020135FFFFFFFFFFFFFFFF3C
:10319C0074ED121F48746C121EF11209EC7C007D48
:1031AC00007E007F007410121F3CECF0A3EDF0A326
:1031BC00EEF0A3EFF0908B3F7808121DC174101243
:1031CC001F3C7808121BBD5014908B377808121DC9
:1031DC00C17410121F3C7808121D3A80D879001265
:1031EC0009F27B017A017910120A467906120A4C0F
:1031FC00120A52E9F5127B007A007900120A461283
:10320C000A0AE9F50F120A16E9F50E120A22E9F577
:10321C000D120A2EE9F50C7A7F79001209BC79009F
:10322C001209DA7A6879001209BC1209E67C007D71
:10323C00007E007F007410121F3CECF0A3EDF0A395
:10324C00EEF0A3EFF0908B477808121DC1741012AA
:10325C001F3C7808121BBD5014908B377808121D38
:10326C00C17410121F3C7808121D3A80D8750801E1
:10327C00780812215F750800780812215F79007CAC
:10328C00897D077A007B80120A647402121F07E999
:10329C0070030238227CC07D007AC87B0A120A7047
:1032AC00E9700302381E79031209F879121209C267
:1032BC007904120986790112098C79031209927921
:1032CC00031209987903120A767900120A7C7900A4
:1032DC00120A10A90E120A1CA90D120A28A90C1206
:1032EC000A34750A00750B00750800E508C39404D0
:1032FC0040248508107511007402121F3CE0F87907
:10330C00002403F8E93400F9C3E51098E51199A2FB
:10331C00D265D033503A7488250AF582740B350B7C
:10332C00F583E0C0E08508107511008518828519B9
:10333C0083E5822510F582E5833511F583D0E0F025
:10334C000508E50A2401F50AE50B3400F50B809B12
:10335C00750900780912215F750901780912215F3E
:10336C007403121F3CE0F509780912215F740312F3
:10337C001F3CE0F97405121F3CE0FC7D0074061242
:10338C001F3CAA82AB83120A5E7403121F07E975F5
:10339C000800E508C39404402485081075110074D6
:1033AC0002121F3CE0F879002403F8E93400F9C359
:1033BC00E51098E51199A2D265D033503A7488255E
:1033CC000AF582740B350BF583E0C0E085081075A7
:1033DC001100851882851983E5822510F582E58315
:1033EC003511F583D0E0F00508E50A2401F50AE56E
:1033FC000B3400F50B809B750900780912215F7561
:10340C000901780912215F7403121F3CE0F5097859
:10341C000912215F7403121F3CE0F97405121F3C62
:10342C00E0FC7D007406121F3CAA82AB83120A5E7C
:10343C007403121F07E91209E01209FE8A108B119E
:10344C00AE10AF11E510A9107414121F3CAA82AB78
:10345C0083120A0479021209A4799C1209B07950DA
:10346C001209AA79001209B61209E079011209D4DD
:10347C007901120A3A120A40750800E508C394044F
:10348C0040248508107511007402121F3CE0F87975
:10349C00002403F8E93400F9C3E51098E51199A26A
:1034AC00D265D033503A7488250AF582740B350BEB
:1034BC00F583E0C0E0850810751100851882851928
:1034CC0083E5822510F582E5833511F583D0E0F094
:1034DC000508E50A2401F50AE50B3400F50B809B81
:1034EC00750900780912215F750901780912215FAD
:1034FC007403121F3CE0F509780912215F74031262
:10350C001F3CE0F97405121F3CE0FC7D00740612B0
:10351C001F3CAA82AB83120A5E7403121F07E97563
:10352C000800E508C3940440248508107511007444
:10353C0002121F3CE0F879002403F8E93400F9C3C7
:10354C00E51098E51199A2D265D033503A748825CC
:10355C000AF582740B350BF583E0C0E08508107515
:10356C001100851882851983E5822510F582E58383
:10357C003511F583D0E0F00508E50A2401F50AE5DC
:10358C000B3400F50B809B750900780912215F75CF
:10359C000901780912215F7403121F3CE0F50978C8
:1035AC000912215F7403121F3CE0F97405121F3CD1
:1035BC00E0FC7D007406121F3CAA82AB83120A5EEB
:1035CC007403121F07E9750800E508C3940440242E
:1035DC008508107511007402121F3CE0F879002464
:1035EC0003F8E93400F9C3E51098E51199A2D26506
:1035FC00D033503A7488250AF582740B350BF58359
:10360C00E0C0E0850810751100851882851983E5E6
:10361C00822510F582E5833511F583D0E0F005089D
:10362C00E50A2401F50AE50B3400F50B809B7509BE
:10363C0000780912215F750901780912215F740362
:10364C00121F3CE0F509780912215F7403121F3C2C
:10365C00E0F97405121F3CE0FC7D007406121F3C5F
:10366C00AA82AB83120A5E7403121F07E91209FEC9
:10367C008A108B11A810A911E8FEE9FFC3E8940386
:10368C00E9940040E8EEF97414121F3CAA82AB8353
:10369C00120A041209C8E9F509750800E508C39473
:1036AC000440248508107511007402121F3CE0F8C8
:1036BC0079002403F8E93400F9C3E51098E5119971
:1036CC00A2D265D033503A7488250AF582740B3532
:1036DC000BF583E0C0E08508107511008518828514
:1036EC001983E5822510F582E5833511F583D0E049
:1036FC00F00508E50A2401F50AE50B3400F50B800A
:10370C009B7401121F3CE0F510781012215F7401BC
:10371C00121F3CE0F97403121F3CE0FC7D007404A2
:10372C00121F3CAA82AB83120A587401121F071293
:10373C0009FE8A108B11A810A911E8FEE9FFC3E855
:10374C009403E9940040E8EEF97414121F3CAA8229
:10375C00AB83120A041209C8E9F509750800E508DB
:10376C00C3940440248508107511007402121F3C88
:10377C00E0F879002403F8E93400F9C3E51098E582
:10378C001199A2D265D033503A7488250AF5827407
:10379C000B350BF583E0C0E085081075110085181A
:1037AC0082851983E5822510F582E5833511F58331
:1037BC00D0E0F00508E50A2401F50AE50B3400F524
:1037CC000B809B751000781012215F75100178101A
:1037DC0012215F7403121F3CE0F510781012215F68
:1037EC007403121F3CE0F97405121F3CE0FC7D00D1
:1037FC007406121F3CAA82AB83120A5E7403121F5A
:10380C0007E97900120A3A1209E01209C8E97900AD
:10381C0080067902800279017494121F077F0B02D3
:10382C00201A74F7121F488C828D83E0F87900E41B
:10383C00C8F98C828D83A3E0FE7F00E82EF8E93F67
:10384C00F98A828B83E8F0A3E9F08C828D83A3A3A1
:10385C00A3A3E0F87900E4C8F98C828D83A3A3A319
:10386C00A3A3E0FE7F00E82EF8E93FF98A828B8360
:10387C00A3A3E8F0A3E9F08C828D83A3A3A3A3A355
:10388C00A3A3A3E0F87900E4C8F98C828D83A3A3E9
:10389C00A3A3A3A3A3A3A3E0FE7F00E82EF8E93F14
:1038AC00F98A828B83A3A3A3A3E8F0A3E9F0EC2409
:1038BC000CF582ED3400F583E0F87900E4C8F9ECFE
:1038CC00240DF582ED3400F583E0FE7F00E82EF840
:1038DC00E93FF98A828B83A3A3A3A3A3A3E8F0A354
:1038EC00E9F079007F0102201A74F3121F4874EC7E
:1038FC00121EF18908E5089002ACF07C047D007A78
:10390C001F7B00121136E9F5097405121F3C740176
:10391C00F0740E121F3C7401F0A37400F0740412C6
:10392C001F3C7401F0740C121F3C742FF0A3740133
:10393C00F0740A121F3C743FF0A37401F074081267
:10394C001F3C7404F0A37400F07406121F3C7458EE
:10395C00F0A37402F07405121F3CAC82AD837901A4
:10396C007A057B03120FF2E9740E121F3CAC82AD88
:10397C008379027A067B03120FF2E97CB77D0B790F
:10398C00157A087B03120FF2E97CCC7D0B79177A40
:10399C00077B03120FF2E97404121F3CAC82AD8357
:1039AC0079017A107B03120FF2E9740C121F3CACF4
:1039BC0082AD8379027A117B03120FF2E9740A1239
:1039CC001F3CAC82AD8379027A127B03120FF2E9B1
:1039DC007408121F3CAC82AD8379027A137B0312FC
:1039EC000FF2E97406121F3CAC82AD8379027A1493
:1039FC007B03120FF2E97CE37D0B7A04790012123F
:103A0C00B0E97E407F06EEFCEFFD7A067B001211DA
:103A1C0036E9EEFCEFFD7A077B00121136E9EEFC7D
:103A2C00EFFD7A087B00121136E9EEFCEFFD7A0906
:103A3C007B00121136E97A007B007C007D0074104B
:103A4C00121F3CEAF0A3EBF0A3ECF0A3EDF074032F
:103A5C00121F3C7401F07402121F3C7401F07401CB
:103A6C00121F3C7400F08518828519837401F07460
:103A7C0010121F3CAC82AD8379047A087B04120CC3
:103A8C009EE97403121F3CAC82AD8379017A007BF2
:103A9C0004120C9EE97402121F3CAC82AD837901B6
:103AAC007A027B04120C9EE97401121F3CAC82ADAD
:103ABC008379017A037B04120C9EE985188285199F
:103ACC0083AC82AD8379017A067B04120C9EE9905B
:103ADC008B4B121DDF1212B6E9908B4B121DDF12AD
:103AEC0013C4E9120C86E9908B4B121DDF120F38B0
:103AFC00E9908B4B121DDF120ED8E9908B4B121DE7
:103B0C00DF120C5CE97A007903120E72E9120E06D0
:103B1C007AFD7B0B120F3EE9F50A7AFF7B0B120E36
:103B2C00DEE9F50B7A017B0C120C62E9F50C7A03D9
:103B3C007B0C1210047A017B009002ACE0F9120AA3
:103B4C00DCE97414121F077F0502201A74F0121F8F
:103B5C004874F8121EF18909EAFEEBFFEE5400F8E6
:103B6C00EF5480F9E84960329002ACE0F9120AC4D3
:103B7C008A0C8B0DA80CA90D880A890BE849600FDB
:103B8C00AA0AAB0B120BE4AA0AAB0B120AB2E9EEAF
:103B9C006400FAEF6480FB0245A2EE5480601B9037
:103BAC00031FE0600AC2AF75C9AB75C95B80FEEE3E
:103BBC006480FAEF6400FB0245A2EEA2E050227A88
:103BCC00F97B0B120FFEE9F5087A667B03120CBC2D
:103BDC00120D76120F02EE6401FAEF6400FB02453F
:103BEC00A2EE5400F8EF5404F9E84960167C107DFD
:103BFC00007AC87B02120C4AEE6400FAEF6404FBF4
:103C0C000245A2EE540460569002AFE0602B120BFA
:103C1C00FC900BE9E0F50CA3E0F50DE4F50EF50FC7
:103C2C00780C1221577A047B009002ACE0F9120B4D
:103C3C00607404121F07E9801A7D037C0079007AF6
:103C4C00107BAA120C447D017C0079017A107BAAAE
:103C5C00120C44EE6404FAEF6400FB0245A2EE542D
:103C6C0000F8EF5401F9E8497003023D9F9002B04F
:103C7C00E07003023D9490031BE064016008900324
:103C8C001BE064027023908B5312216E7A007B012F
:103C9C009002ACE0F9120B607404121F07E9EE6499
:103CAC0000FAEF6401FB0245A290031B7403F012AF
:103CBC0009C8E9900365F01209FE900323EAF0A30A
:103CCC00EBF0900365E0A2E4400E900323E0640067
:103CDC007004A3E0640470261209E0908B5F12213B
:103CEC006E7A007B019002ACE0F9120B6074041246
:103CFC001F07E9EE6400FAEF6401FB0245A2900392
:103D0C0065E0A2E15053900323C082C083900BF76F
:103D1C00E0F8A3E0F9D083D082C3E098A3E09950F7
:103D2C000D1209FE900323EAF0A3EBF080D8900B60
:103D3C00F7E0F8A3E0F9E8F97A257B03120A04907E
:103D4C000BF7E0F8A3E0F9900323C3E098F0A3E0AD
:103D5C0099F07A257B03120C02900BF3E0F50CA37F
:103D6C00E0F50DE4F50EF50F780C1221577A007B77
:103D7C00019002ACE0F9120B607404121F07E99079
:103D8C00031B7400F01209E0EE6400FAEF6401FB0F
:103D9C000245A2EE5400F8EF5408F9E849602C12E1
:103DAC000BCCE97901120A3A908B6312216E7A00DE
:103DBC007B019002ACE0F9120B607404121F07E94E
:103DCC00EE6400FAEF6408FB0245A2EE5400F8EF33
:103DDC005402F9E8497003023EF59002B1E0640127
:103DEC006003023EEA90031BE06401600890031B31
:103DFC00E064037023908B5312216E7A007B029047
:103E0C0002ACE0F9120B607404121F07E9EE6400B7
:103E1C00FAEF6402FB0245A290031B7402F09003BC
:103E2C001EE0700F900319E0FAA3E0FB7900120C6E
:103E3C0008801D900319E0FAA3E0FBEA2401F8EBDB
:103E4C003400F9900319E8F0A3E9F07901120C0899
:103E5C0090031EE07020908B5312216E7A007B022F
:103E6C009002ACE0F9120B607404121F07E9900386
:103E7C001E7401F08068900319C3E0940EA3E094C3
:103E8C0000A2D265D033403890031B7400F090032D
:103E9C00197400F0A37400F0900BF5E0F50CA3E09E
:103EAC00F50DE4F50EF50F780C1221577A007B0214
:103EBC009002ACE0F9120B607404121F07E9801831
:103ECC00908B6712216E7A007B029002ACE0F912A3
:103EDC000B607404121F07E990031E7400F0EE646B
:103EEC0000FAEF6402FB0245A2EE5400F8EF5440D6
:103EFC00F9E84970030240BA9002B5E0700BEE6429
:103F0C0000FAEF6440FB0245A290031BE0640160E1
:103F1C000890031BE064037023908B6B12216E7A64
:103F2C00007B409002ACE0F9120B607404121F0786
:103F3C00E9EE6400FAEF6440FB0245A290031B74A7
:103F4C0002F0900317E0F9740129900317F074063E
:103F5C00121F3CAA82AB83120D82E9900318E07009
:103F6C00267C307D0079FF7AB77B02120AA0900282
:103F7C00B774AAF09002B874BBF09002B974BBF09D
:103F8C00900318E02403F07406121F3CE0C0E0908C
:103F9C000318E0F8790074B728F582740239F583B8
:103FAC00D0E0F0900318E02401F07407121F3CE0FD
:103FBC00C0E0900318E0F8790074B728F582740219
:103FCC0039F583D0E0F0900318E02401F09003174A
:103FDC00E0C394085003024097900318E0F879006E
:103FEC0074B728F582740239F583740DF0900318B8
:103FFC00E02401F0900318E0F8790074B728F582FA
:10400C00740239F583740AF0900318E02401F07CF3
:10401C000B7D007AB77B02120C4A7A007B007C0085
:10402C007D007402121F3CEAF0A3EBF0A3ECF0A3AA
:10403C00EDF0908B53780C121DC17402121F3C785A
:10404C000C121BBD5014908B37780C121DC17402CE
:10405C00121F3C780C121D3A80D87C0A7D007AC263
:10406C007B02120C4A9003177400F0900318740032
:10407C00F0908B6F12216E7A007B209002ACE0F9ED
:10408C00120B607404121F07E98018908B731221B5
:10409C006E7A007B409002ACE0F9120B6074041253
:1040AC001F07E9EE6400FAEF6440FB0245A2EE54F0
:1040BC0000F8EF5420F9E849700302429B9002B5D6
:1040CC00E0700BEE6400FAEF6420FB0245A2900353
:1040DC001BE06401600890031BE064037023908B69
:1040EC006B12216E7A007B209002ACE0F9120B600F
:1040FC007404121F07E9EE6400FAEF6420FB02451A
:10410C00A2908C0FC082C083851882851983AC82E3
:10411C00AD83D083D0827402121E04900317E0F991
:10412C00740129900317F0851882851983AA82AB34
:10413C0083120F14E9900318E070267C307D00790F
:10414C00FF7AE77B02120AA09002E774AAF09002B1
:10415C00E874BBF09002E974BCF0900318E02403FF
:10416C00F0851882851983E0C0E0900318E0F87997
:10417C000074E728F582740239F583D0E0F09003DF
:10418C0018E02401F07401121F3CE0C0E090031809
:10419C00E0F8790074E728F582740239F583D0E0F1
:1041AC00F0900318E02401F0900317E0C39408503A
:1041BC0003024278900318E0F8790074E728F5823E
:1041CC00740239F583740DF0900318E02401F0901B
:1041DC000318E0F8790074E728F582740239F58346
:1041EC00740AF0900318E02401F07C0B7D007AE750
:1041FC007B02120C4A7A007B007C007D0074021258
:10420C001F3CEAF0A3EBF0A3ECF0A3EDF0908B5382
:10421C00780C121DC17402121F3C780C121BBD507D
:10422C0014908B37780C121DC17402121F3C780C41
:10423C00121D3A80D87C0A7D007AF27B02120C4A5D
:10424C009003177400F09003187400F090031B7423
:10425C0000F0908B7712216E7A007B409002ACE0DC
:10426C00F9120B607404121F07E98018908B7312FB
:10427C00216E7A007B209002ACE0F9120B60740482
:10428C00121F07E9EE6400FAEF6420FB0245A2EE70
:10429C00540260199002B6E0FC7D007AB77B0212E2
:1042AC000C4AEE6402FAEF6400FB0245A2EE5408DD
:1042BC0070030243859002B3E070030243609003E5
:1042CC001BE06403600890031BE064027023908B76
:1042DC005312216E7A087B009002ACE0F9120B604D
:1042EC007404121F07E9EE6408FAEF6400FB024540
:1042FC00A290031B7401F090031DE0F9120E0CE95F
:10430C00F50890031DE064027029120C1490031D33
:10431C007400F090031B7400F0900BEB12216E7A7A
:10432C00087B009002ACE0F9120B607404121F07BA
:10433C00E9803B90031DE02401F0908B7B12216EF1
:10434C007A087B009002ACE0F9120B607404121F27
:10435C0007E9801A7D047C0079007A207BAA120C74
:10436C00447D017C0079017A207BAA120C44EE6416
:10437C0008FAEF6400FB0245A2EE5410606C900248
:10438C00AEE0603E120E84E964027005120C0E80E1
:10439C0009120E84E97003120E8A900BE7E0F50CFB
:1043AC00A3E0F50DE4F50EF50F780C1221577A10F9
:1043BC007B009002ACE0F9120B607404121F07E949
:1043CC00801D120E907D067C0079007A307BAA123B
:1043DC000C447D017C0079017A307BAA120C44EEEE
:1043EC006410FAEF6400FB0245A2EE542070030245
:1043FC0044909002B2E0605A90031CE0603190034C
:10440C001C7400F0120C1A900BEFE0F50CA3E0F505
:10441C000DE4F50EF50F780C1221577A207B0090E5
:10442C0002ACE0F9120B607404121F07E9804A9089
:10443C00031C7401F0120D9A908B7F12216E7A205E
:10444C007B009002ACE0F9120B607404121F07E9B8
:10445C0080277D047C0079007A407BAA120C447D75
:10446C00017C0079017A407BAA120C447D107C00FF
:10447C0079037A407BAA120C44EE6420FAEF6400B4
:10448C00FB0245A2EE5440700302455F120DF4E9A5
:10449C00F5089002B4E07003024538E508702690E8
:1044AC000320E0F9120DFA120DDC908B8B12216EA9
:1044BC007A407B009002ACE0F9120B607404121F7E
:1044CC0007E9024555900321E0600E900320E0F9C6
:1044DC00120DFA9003217400F074026508702F120B
:1044EC000C20900BF1E024C4F50CA3E034FFF50D87
:1044FC00E4F50EF50F780C1221577A407B009002F0
:10450C00ACE0F9120B607404121F07E9803B120D2A
:10451C00EEE9908B8B12216E7A407B009002ACE01E
:10452C00F9120B607404121F07E9801D120DE27D55
:10453C00067C0079007A507BAA120C447D017C0029
:10454C0079017A507BAA120C44EE6440FAEF6400B5
:10455C00FB8043EE5400F8EF5410F9E849603375D2
:10456C000A58750B02780A12215B750A04750B0048
:10457C00780A12215B79027C3F7D017A2F7B011234
:10458C00103A7404121F07E9EE6400FAEF6410FB92
:10459C0080047A007B007408121F077F0802201A1F
:1045AC0074F7121F48EAFEEBFF8E828F83E064C023
:1045BC0070148E828F83A3A3A3E0FA8E828F83A3C1
:1045CC00A3E0F9120BEA7F0102201A74F7121F48BC
:1045DC0074FC121EF1E9FEEAFF85188285198374BA
:1045EC0000F0EFA2E0400302469890031F7401F024
:1045FC00908B8312216E7A807B009002ACE0F912D2
:10460C000B607404121F07E9900322E0706F900294
:10461C00ADE06405603E7403121F3CAC82AD837A3E
:10462C00057B03120FF8E97403121F3CE0700A7447
:10463C0001121F3C7401F080087401121F3C7400BD
:10464C00F07401121F3CAC82AD8379017A057B03B7
:10465C00120FF2E99002ADE0640570307402121F83
:10466C003C7401F012100AE97402121F3CAC82ADCA
:10467C008379017A057B03120FF2E9800FEFA2E038
:10468C00500A851882851983E0D2E2F0EFA2E1503E
:10469C000A851882851983E0D2E0F0EFA2E2500A75
:1046AC00851882851983E0D2E1F0EFA2E0400690F4
:1046BC00031F7400F0851882851983AC82AD837A50
:1046CC00017900121040E97404121F077F010220C7
:1046DC001AC082C0839002B0E060069002B07400F1
:1046EC00F09002B5E060069002B57400F09002B351
:1046FC00E06009120E069002B37400F09002B1E073
:10470C0060069002B17400F0D083D082020135743F
:10471C00F4121F4874E2121EF1E9FEEE1460161436
:10472C0070030248D41470030248F124FE70030293
:10473C0048DE0248F4851882851983AC82AD837AF1
:10474C00047B03120FF8E975080875090078081244
:10475C00215B7402121F3CAC82AD837418121F3C97
:10476C00AA82AB83120A887402121F077405121FE7
:10477C003CE0C0E07407121F3CD0E0F07404121F40
:10478C003CE0C0E07406121F3CD0E0F07403121F32
:10479C003CE0C0E07405121F3CD0E0F07404121F22
:1047AC003C7400F07403121F3C7400F08518828571
:1047BC001983AC82AD837A087900120C8CE9908C49
:1047CC000DC082C0837408121F3CAC82AD83D083B1
:1047DC00D082740E121E047F00750905E509C3947E
:1047EC0000A2D265D03350030248C1E509F83395D5
:1047FC00E0F97416121F3CE58228F582E58339F541
:10480C0083E0F508E508C3940A506B7C0B7D8CEFB4
:10481C00F87900E875F002A4C8AAF075F000A42A93
:10482C00FA75F002E9A42AF97408121F3CE58228F3
:10483C00FAE58339FB121B8C7910EFFA7B00EA75D1
:10484C00F002A4CAA8F075F000A428F875F002EBE9
:10485C00A428FB7408121F3CE5822AF582E5833BF1
:10486C00F583A3AC82AD8385080A750B00AA0AAB4D
:10487C000B120B9080357910EFFA7B00EA75F00281
:10488C00A4CAA8F075F000A428F875F002EBA428CF
:10489C00FB7408121F3CE5822AFCE5833BFD85086E
:1048AC000A750B00AA0AAB0B120B900F74FF2509AB
:1048BC00F5090247E87408121F3CAC82AD837A0CF0
:1048CC007902120C8CE980207A017901120E72E9BE
:1048DC0080167A007901120E72E990031B7400F0B5
:1048EC00120C2C8003120BF0EE9002ADF0741E1221
:1048FC001F077F0402201AC082C08374FD121EF1B0
:10490C00851882851983AA82AB83120D8EE96012F9
:10491C00851882851983AC82AD837A037900120CD9
:10492C0050E97403121F07D083D08202013574F44E
:10493C00121F4874D1121EF1EAFEEBFF7404121F11
:10494C003C7400F0A37400F07402121F3C7400F06D
:10495C00A37400F08518828519837400F0A3740089
:10496C00F085188285198385820885830978081259
:10497C00215B7404121F3CAC82AD837406121F3C85
:10498C00AA82AB831209CE7402121F07EEFCEFFD54
:10499C007406121F3CAA82AB83120BD2E974041268
:1049AC001F3CE0F508A3E0F50974087808121EBF57
:1049BC00E508740F121F3CE508F07404121F3CE06C
:1049CC00F8A3E0F9E8C0E0740E121F3CD0E0F074DC
:1049DC0002121F3CE0F508A3E0F5097408780812F0
:1049EC001EBFE5087411121F3CE508F07402121F7B
:1049FC003CE0F8A3E0F9E8C0E07410121F3CD0E0F2
:104A0C00F0851882851983E0F508A3E0F509740890
:104A1C007808121EBFE5087413121F3CE508F085D8
:104A2C001882851983E0F8A3E0F9E8C0E07412124B
:104A3C001F3CD0E0F07406121F3CE0F508A3E0F533
:104A4C000974087808121EBFE5087415121F3CE59E
:104A5C0008F07406121F3CE0F8A3E0F9E8C0E0741B
:104A6C0014121F3CD0E0F07408121F3CE0F508A3B0
:104A7C00E0F50974087808121EBFE5087417121FB8
:104A8C003CE508F07408121F3CE0F8A3E0F9E8C01C
:104A9C00E07416121F3CD0E0F0740A121F3CE0F5D3
:104AAC0008A3E0F50974087808121EBFE50874190C
:104ABC00121F3CE508F0740A121F3CE0F8A3E0F961
:104ACC00E8C0E07418121F3CD0E0F0740C121F3CCC
:104ADC00E0F508A3E0F50974087808121EBFE50894
:104AEC00741B121F3CE508F0740C121F3CE0F8A379
:104AFC00E0F9E8C0E0741A121F3CD0E0F0741C120C
:104B0C001F3C74AAF0741D121F3C74BBF0741E126F
:104B1C001F3C74AAF075080E750900780812215B09
:104B2C007410121F3CAC82AD837421121F3CAA82FC
:104B3C00AB83120A887402121F078A0A8B0B850A30
:104B4C0008850B09742D121F3C740DF0742E121F66
:104B5C003C740AF07C137D00741C121F3CAA82ABBF
:104B6C0083120C4A742F121F077F0402201A74F050
:104B7C00121F48748C121EF1890B8A08908AC6C0C9
:104B8C0082C0837404121F3CAC82AD83D083D0826C
:104B9C007408121E04908AF6C082C083746C121FB3
:104BAC003CAC82AD83D083D0827408121E04908AF0
:104BBC00EEC082C0837464121F3CAC82AD83D08380
:104BCC00D0827408121E04908AE6C082C083745C82
:104BDC00121F3CAC82AD83D083D0827408121E04A9
:104BEC00908ADEC082C0837454121F3CAC82AD83A9
:104BFC00D083D0827408121E04908A7EC082C08337
:104C0C00744C121F3CAC82AD83D083D082740812DA
:104C1C001E04908ACEC082C0837444121F3CAC82A6
:104C2C00AD83D083D0827408121E04908AB6C082E1
:104C3C00C083743C121F3CAC82AD83D083D0827491
:104C4C0008121E04908AAEC082C0837434121F3CBA
:104C5C00AC82AD83D083D0827408121E04908AA6D5
:104C6C00C082C083742C121F3CAC82AD83D083D025
:104C7C00827408121E04908A9EC082C0837424120F
:104C8C001F3CAC82AD83D083D0827408121E04907A
:104C9C008A96C082C083741C121F3CAC82AD83D038
:104CAC0083D0827408121E04908A8EC082C08374D2
:104CBC0014121F3CAC82AD83D083D0827408121EB8
:104CCC0004908A86C082C083740C121F3CAC82ADE7
:104CDC0083D083D0827408121E047404121F3CAE5D
:104CEC0082AF83E508603914604214604B14605441
:104CFC0014605C14606414606C14607414607C1434
:104D0C007003024D92147003024D9D147003024DFA
:104D1C00A8147003024DB3147003024DBE024DC9AA
:104D2C007404121F3CAE82AF83024DD2746C121FFE
:104D3C003CAE82AF83024DD27464121F3CAE82AF84
:104D4C0083024DD2745C121F3CAE82AF83807774A9
:104D5C0054121F3CAE82AF83806C744C121F3CAE5D
:104D6C0082AF8380617444121F3CAE82AF83805645
:104D7C00743C121F3CAE82AF83804B7434121F3CC8
:104D8C00AE82AF838040742C121F3CAE82AF838006
:104D9C00357424121F3CAE82AF83802A741C121F00
:104DAC003CAE82AF83801F7414121F3CAE82AF8363
:104DBC008014740C121F3CAE82AF838009740412F1
:104DCC001F3CAE82AF83E50B7015120BA8E9EEFA0F
:104DDC00EFFB120BC67A017944120BBA024F821206
:104DEC000BA8E9EEFAEFFB120BC67A0079BE120B98
:104DFC00BA120BC0E9F509120BC0E9F50AE5086017
:104E0C0003024EB09003187400F07C307D0079FFE3
:104E1C007AB77B02120AA0900318E0F8790074B7F5
:104E2C0028F582740239F58374AAF0900318E024F3
:104E3C0001F0900318E0F8790074B728F582740239
:104E4C0039F58374BBF0900318E02401F09003183B
:104E5C00E0F8790074B728F582740239F58374BBD5
:104E6C00F0900318E02401F0E509900318E0F879BC
:104E7C000074B728F582740239F583E509F09003C4
:104E8C0018E02401F0E50A900318E0F8790074B7F3
:104E9C0028F582740239F583E50AF0900318E024B2
:104EAC0001F0803AE509900318E0F8790074B7280E
:104EBC00F582740239F583E509F0900318E02401BA
:104ECC00F0E50A900318E0F8790074B728F58274BD
:104EDC000239F583E50AF0900318E02401F0740D13
:104EEC0065086003024F82900318E0F8790074B7EC
:104EFC0028F582740239F583740DF0900318E024C0
:104F0C0001F0900318E0F8790074B728F582740268
:104F1C0039F583740AF0900318E02401F07C117DBC
:104F2C00007AB77B02120C4A7A007B007C007D0071
:104F3C00851882851983EAF0A3EBF0A3ECF0A3EDBE
:104F4C00F0908B53780C121DC185188285198378CB
:104F5C000C121BBD5015908B37780C121DC1851887
:104F6C0082851983780C121D3A80D67C107D007ACC
:104F7C00C87B02120C4A7474121F077F0802201A95
:104F8C00C082C08374FA121EF1851882851983AA17
:104F9C0082AB83120E96E96012851882851983AC58
:104FAC0082AD837A067900120F32E97406121F075C
:104FBC00D083D082020135C082C08374F5121EF1F9
:104FCC007407121F3CAA82AB83120E12E9605C8537
:104FDC00188285198374AAF07401121F3C74BBF0FB
:104FEC007402121F3C74CCF07409121F3CE0C0E038
:104FFC007403121F3CD0E0F0740A121F3CE0C0E0B6
:10500C007404121F3CD0E0F07405121F3C740DF0B8
:10501C007406121F3C740AF07C077D00851882858B
:10502C001983AA82AB83120C4A804A85188285198F
:10503C008374AAF07401121F3C74BBF07402121F2B
:10504C003C74CCF07403121F3C7476F07404121F81
:10505C003C7476F07405121F3C740DF07406121F2C
:10506C003C740AF07C077D00851882851983AA821E
:10507C00AB83120C4A740B121F07D083D08202012F
:10508C0035C082C08374FC121EF185188285198389
:10509C00AA82AB83120DA0E9601285188285198350
:1050AC00AC82AD837A047900120C56E97404121F99
:1050BC0007D083D082020135C082C08374FA121EDD
:1050CC00F1851882851983AA82AB83120DE8E960F9
:1050DC0012851882851983AC82AD837A0679001209
:1050EC000D70E97406121F07D083D082020135744B
:1050FC00F7121F4874FF121EF1E9FE1460051460CC
:10510C00598061851882851983AA82AB8379011233
:10511C000F44E9851882851983E0701B9002B0E07A
:10512C0060429002B07400F07A007B019002ACE017
:10513C00F9120ADCE9802D9002B0E0700D7A007B48
:10514C00019002ACE0F9120ADCE98518828519831A
:10515C00E09002B0F0120980800A7AF37B0B79029E
:10516C00120F44E97401121F077F0102201AC0823A
:10517C00C0839002B5E0702A9002B57401F09003E0
:10518C00187400F09003177400F0908B8712216E46
:10519C007A007B409002ACE0F9120B607404121F91
:1051AC0007E9D083D08202013574F7121F4874FFCF
:1051BC00121EF1E9FE146005146060806885188287
:1051CC00851983AA82AB837901120EEAE9851882CC
:1051DC00851983E070199002B3E060139002B374E8
:1051EC0000F07A087B009002ACE0F9120ADCE98549
:1051FC001882851983E06401702B9002B3E070254E
:10520C009002B37401F090031D7400F07A087B00D7
:10521C009002ACE0F9120ADCE9800A7AEB7B0B799C
:10522C0002120EEAE97401121F077F0102201A74A0
:10523C00F0121F4874F8121EF1890A7401650A6095
:10524C00030252FA851882851983AA82AB837901ED
:10525C00120C6EE9851882851983E0FA7B007401C3
:10526C00121F3CE0F87900E4C8F9EA28F8EB39F9A8
:10527C00E8FEE9FF7402121F3CE0FA7B0074031293
:10528C001F3CE0F87900E4C8F9EA28F8EB39F98812
:10529C000889097404121F3CE0FA7B007405121F84
:1052AC003CE0F87900E4C8F9EA28F8EB39F9880E03
:1052BC00890F7406121F3CE0FA7B007407121F3C26
:1052CC00E0F87900E4C8F9EA28F8EB39F9880C8998
:1052DC000D780C12215B780E12215B7902AC08ADB3
:1052EC0009EEFAEFFB12103A7404121F07E974026C
:1052FC00650A700412100AE97408121F077F08026D
:10530C00201A74F4121F4874FA121EF1EAFEEBFF15
:10531C008C088D097412121F3CE0F50AA3E0F50B02
:10532C00EE851882851983F0EEF8EFF9E4E9F8C000
:10533C00E07401121F3CD0E0F0E5087402121F3C2F
:10534C00E508F0A808A909E4E509A809E50974032A
:10535C00121F3CE509F0E50A7404121F3CE50AF043
:10536C00A80AA90BE4E50BA80BE50B7405121F3C6E
:10537C00E50BF0851882851983AC82AD837A0679AA
:10538C0000120C68E97406121F077F0402201A74BD
:10539C00F0121F488A0A8B0B89088C0C8D09850921
:1053AC000E750F00AA0EAB0F120B1E8A0E8B0FAED2
:1053BC000EAF0FEE4F700302545B85090E750F0094
:1053CC00AC0EAD0FA90CEEFAEFFB120AA0850A0E7B
:1053DC00850B0F780E1221E50000060000AA02547E
:1053EC0010AA105420AA2C5430AA1E5440AA3A5485
:1053FC0050AA48545454EEFCEFFDAA09A908120F08
:10540C002CE98044EEFCEFFDAA09A908120C50E926
:10541C008036EEFCEFFDAA09A908120F32E98028AC
:10542C00EEFCEFFDAA09A908120EE4E9801AEEFCC5
:10543C00EFFDAA09A908120C56E9800CEEFCEFFD51
:10544C00AA09A908120D70E9EEFAEFFB120B247FE2
:10545C000802201A74F3121F488A088B09ECFEED1F
:10546C00FFC3EE9415EF94004005750C148003EE09
:10547C00F50C90036A742EF0A37400F0E50C900305
:10548C006CF0850C0A750B00780A12215BAC08AD28
:10549C00097A6D7B03120A887402121F0779007C4B
:1054AC006A7D037A007B00121310E97F0502201A33
:1054BC0074EE121F4874FA121EF18A0A8B0B8909BA
:1054CC00ECFEEDFF750800850A0C850B0D780C12AF
:1054DC00219F00041095570555265545556655874F
:1054EC0055A855DB55FC5513564156FF56205740D1
:1054FC00576A57955795576C567401650970158EF8
:10550C00828F83E0C39403500B8E828F83E0900EC6
:10551C0078F080037508180257BE74026509701381
:10552C008E828F83E0F8A3E0F9900E79E8F0A3E97E
:10553C00F080037508180257BE7401650970158E4A
:10554C00828F83E0C39402500B8E828F83E0900392
:10555C00CCF080037508180257BE740165097015EC
:10556C008E828F83E0C39405500B8E828F83E090E4
:10557C0003CDF080037508180257BE7401650970DD
:10558C00158E828F83E0C39402500B8E828F83E042
:10559C009003CEF080037508180257BE741065098D
:1055AC007027750C10750D00780C12215BEEFCEF5A
:1055BC00FD7ACF7B03120A887402121F078A0C8BA8
:1055CC000D850C82850D8380037508180257BE74F7
:1055DC0001650970158E828F83E0C39402500B8E87
:1055EC00828F83E09003DFF080037508180257BEAA
:1055FC0074016509700B8E828F83E0900E7CF080B5
:10560C00037508180257BE740465097022908B4309
:10561C00780C121DC18E828F83780C121BBD500F1B
:10562C008E828F83121DDF9003E1121DEB800375B8
:10563C0008180257BEE5097021121298E97013126E
:10564C000D16E9F50C7950120FECE9F50D120D045D
:10565C00800B9004747401F080037508180257BE17
:10566C007407650960030256F9750E06750F00780C
:10567C000E12215B8E828F83A3AC82AD83740212D7
:10568C001F3CAA82AB83120A8E7402121F078A1067
:10569C008B1185100E85110F7C007D00851882857D
:1056AC001983AA82AB838E828F83E0F9120CAAE94C
:1056BC00F50CE50CC3940A502F121298E97015A939
:1056CC000C120D1CE9F50D7950120FECE9F50E12C8
:1056DC000D04801C750D007475250CF58274043551
:1056EC000DF5837401F080087508028003750818A5
:1056FC000257BE7401650970158E828F83E0C394C6
:10570C0002500B8E828F83E09003E0F080037508CB
:10571C00180257BE7401650970158E828F83E0C321
:10572C00940A500B8E828F83E0900E7BF080037571
:10573C000818807E74016509701F8E828F83E0C308
:10574C00940740158E828F83E0C39411500B8E8288
:10575C008F83E0900E7DF080597508188054740189
:10576C0065097020900473E0F50C8E828F83E090B5
:10577C000473F0E50C703B900473E0640170331219
:10578C000D04802E7508188029C3E50A9427E50BB3
:10579C009400501B7402650970158E828F83E0FC97
:1057AC00A3E0FDAA0AAB0B121136E9F508800375CC
:1057BC000802A9087406121F077F0A02201A74EC4B
:1057CC00121F4874DA121EF1890D8A128B138C0A7F
:1057DC008D0B743A121F3CE0F50C908B04C082C008
:1057EC0083851882851983AC82AD83D083D0827473
:1057FC0006121E04851882851983AC82AD83AA1209
:10580C00AB13A90D120CAAE9FEEEC3940A400302D5
:10581C005969EEF9120CE6E9FF900E78E06402701B
:10582C0004740180027400F508780812215FAD0C35
:10583C00EFFCEEF9AA0AAB0B120D587401121F07FC
:10584C007C147D0079007412121F3CAA82AB831267
:10585C000AA08A0E8B0F850E08850F097412121F71
:10586C003CAC82AD837A1075F006EEA42424F912B8
:10587C000FE6E970437C1079FF7412121F3CAA8268
:10588C00AB83120B00E970307422121F3CAC82AD5A
:10589C00837A0475F006EEA42425F9120FE6E9F5D7
:1058AC00087412121F3CAC82AD83EFA2E0E433F912
:1058BC00AA0AAB0B1211C0E97406121F3CAC82ADE4
:1058CC00837A0C74702EF9120FE6E9707E7406124E
:1058DC001F3CAA82AB83120CDA750E00E50EC39442
:1058EC00045068E50EA80E7900E875F003A4C8AA68
:1058FC00F075F000A42AFA75F003E9A42AF97406ED
:10590C00121F3CE58228F508E58339F509850882E4
:10591C00850983E0F8A3E0F9E849602B85088285C6
:10592C000983A3A3E0F510751100781012215B8593
:10593C000882850983E0FCA3E0FDAA0AAB0B1214D4
:10594C00247402121F07E9050E8091EFA2E1500D9D
:10595C009003CBE0F9AA0AAB0B12142AE974046584
:10596C000C700F900E78E064027007AA0AAB0B1251
:10597C000D5279007426121F077F0C02201A74F244
:10598C00121F48890BEAFEEBFF8C088D09750A0A79
:10599C00E50B600C146009146044146064025A2E08
:1059AC00EEFAEFFB120CF8E9F50AE50AC3940A507B
:1059BC0071E5084509606B750C06750D00780C12C5
:1059CC00215BEEFCEFFDAA08AB09120A88740212E7
:1059DC001F078A0C8B0D850C82850D838044EEFA93
:1059EC00EFFB120CF2E9F50AE50AC3940A5033E511
:1059FC00084509602DAA08AB09A90A120CECE9802C
:105A0C0021EEFAEFFB120CFEE9F50AE50AC3940A43
:105A1C005010E5084509600AAA08AB09A90A120C3E
:105A2C00ECE9A90A7F0602201A74F2121F488A0CAC
:105A3C008B0DE9FE7F1574FF650C700474FF650D0A
:105A4C00702A750800E508C3940A5014EEFC7A021B
:105A5C007B00A908120CC8E960027F00050880E5EC
:105A6C00EE60637A407B0D121622805AAA0CAB0DA5
:105A7C001216048A0A8B0B850A08850B09E5084562
:105A8C000960417C007D00E5082405FAE509340035
:105A9C00FB850882850983A3A3A3A3E0F9120CAAB2
:105AAC00E9F50AE50AC3940A500EEEFC7A027B0073
:105ABC00A90A120CC8E97F00EE600BAA08AB091208
:105ACC000D4080027F14EFF97F0602201A74EE124B
:105ADC001F488A0E8B0F8C0A8D0B7412121F3CE020
:105AEC00F50CA3E0F50D75081574FF650E700474C4
:105AFC00FF650F701E7E00EEC3940A5062AC0CADB5
:105B0C000DAA0AAB0BEEF9120CCEE9600375080076
:105B1C000E80E4AA0EAB0F1216048A108B11AE1075
