:020000040000FA
:0600000002011D022A6B43
:03002B0002232B82
:03003300022303A2
:03005300022ADEA0
:03006B000222AAC4
:03007B000222D28C
:100083000228D7E5C754F84401F5C77901220000D7
:100093000080FB120086B90003020107E47921788E
:1000A30008B800028004F709D8FCE479297802B87B
:1000B30000028004F709D8FCE490028178F47908FF
:1000C3008002F0A3D8FCD9FA781A90014D7A01BACC
:1000D30000028007E493A3F608DAF9900A74AA826F
:1000E300AB8390014E78D379088015E493A3AC8257
:1000F300AD838A828B83F0A3AA82AB838C828D83A8
:10010300D8E9D9E77582177583A3740412012F7593
:100113008291758300740012012F75D00075813FA1
:10012300751881751902759F00020096C09FF59F8F
:10013300E473D09F22D083D082C09FE493C0E07445
:100143000193C0E0740293F59F2201200926092C34
:1001530009320938093E0944094A09500956095C1C
:1001630009620968096E0974097A0968FFFF037B4C
:10017300034CCD6C03AB0336567600680402CB47C1
:10018300A202180400058BC1010C04000000000347
:100193007F060CC92C979797038903264666006C44
:1001A300022000024004000000000244040000009A
:1001B3000002480400000000024C0400000000029A
:1001C3005004000000000254040000000002580420
:1001D30000000000025C040000000002BC040000F8
:1001E300000001EC0400004000037F060CC92C97BB
:1001F30097970402030D355D040904872D353D00EF
:10020300A3010000000001078601FE074105F1205C
:10021300283038077E01300746019A074704F12842
:100223003038076C04F1283038021602000101B29D
:1002330002FFFF0190040923A135016A02060001B0
:10024300600800000000000000000060044000009F
:10025300000162020000006004004000000B095628
:10026300756C7475726545676705122F013F01024E
:100273000A000201061302454501020304050607AD
:1002830008090A0B0C0D0E0F1045676700D007E82D
:100293000370110100E803E803D00760EA2A00FCB9
:1002A3000B00002C0C380C3E0C440C1241636365AC
:1002B3006C2E2044617461000A416363656C2E20D7
:1002C300436F6E662E000A0A416363656C2E2050ED
:1002D3006572696F640002FD8B010000D28B02F32B
:1002E3008B010000D40B10288A010000500302EF99
:1002F3008B030000530302F18B010000D50B02F3C3
:100303008B010000E10B10388A030000590302F14E
:100313008B010000E20B02F38B010000EF0B10488E
:100323008A030000F00B02F18B010000F10B124273
:1003330061726F6D2E2044617461000A4261726FB5
:100343006D2E20436F6E662E00024261726F6D2E1A
:100353002043616C6962722E000A0A4261726F6DFA
:100363002E20506572696F640002FD8B010000CF7F
:100373008B02F38B010000570C1048890100005ACF
:100383000302EF8B0300005E0302F18B01000058B0
:100393000C02F38B010000640C1028890300006435
:1003A3000302F18B010000650C02F38B0100008254
:1003B3000C100889030000830C02F18B01000084F8
:1003C3000C02F38B010000720C1018890100006508
:1003D3000302EF8B030000750302F18B010000732E
:1003E3000C12436F6E6E2E20506172616D730008A4
:1003F300436F6E6E2E20506172616D732052657172
:100403000008446973636F6E6E656374205265718F
:100413000002FD8B010000C98B02F38B0100000A6F
:100423000D10D8880100007D0302EF8B03000083C9
:100433000302F18B0100000B0D02F38B0100001886
:100443000D10C888020000890302F18B0100001916
:100453000D02F38B0100002A0D10B88802000091F1
:100463000302F18B0100002B0D02020231323334FF
:1004730035363738393031320002020202020201C6
:100483000D000000100102FD8B010000B78B02F389
:100493008B010000920D02ED8B010000920302F329
:1004A3008B010000930D02F98B0100002E8B02F3E8
:1004B3008B010000940D02FF8B010000950D02F3E8
:1004C3008B010000A30D02768A010000D68A02F395
:1004D3008B010000A40D02058C010000338B02F395
:1004E3008B010000A20D02DB8B0100001C8B02F3C9
:1004F3008B010000A50D02DD8B010000D98702F3FB
:100503008B010000A60D02078C010000688A02F32C
:100513008B010000A70D02098C010000A80D01E862
:1005230003053F100A124779726F2044617461001A
:100533000A4779726F20436F6E662E000A0A477965
:10054300726F20506572696F640002FD8B010000B9
:10055300C38B02F38B0100004E0E1038880100009C
:10056300540402EF8B0300005A0402F18B010000D4
:100573004F0E02F38B010000590E10488803000050
:10058300600402F18B0100005A0E02F38B0100009C
:10059300650E105888030000660E02F18B010000FF
:1005A300670E010361801248756D69642E204461F2
:1005B3007461000A48756D69642E20436F6E662E60
:1005C300000AD00748756D69642E20506572696F03
:1005D300640002FD8B010000C68B02F38B01000057
:1005E300CF0E103889010000C40402EF8B03000012
:1005F300C80402F18B010000D00E02F38B0100004E
:10060300DC0E109888030000CE0402F18B01000079
:10061300DD0E02F38B010000EA0E10A88803000030
:10062300EB0E02F18B010000ED0E01481254656DD3
:10063300702E2044617461000A54656D702E20434E
:100643006F6E662E000A1E54656D702E2050657203
:10065300696F640002FD8B010000D58B02F38B01EF
:100663000000550F10588A010000D00402EF8B03DD
:100673000000D40402F18B010000560F02F38B013A
:100683000000610F10088A030000DA0402F18B01F5
:100693000000620F02F38B0100006E0F10F8890354
:1006A30000006F0F02F18B010000700F124D6167A4
:1006B3006E2E2044617461000A4D61676E2E2043E3
:1006C3006F6E662E000A0A4D61676E2E20506572AA
:1006D300696F640002FD8B010000CC8B02F38B0178
:1006E3000000D50F10D889010000DB0402EF8B0353
:1006F3000000E10402F18B010000D60F02F38B012D
:100703000000E10F10C889030000E70402F18B0128
:100713000000E20F02F38B010000EE0F10B8890313
:100723000000EF0F02F18B010000F00F124D707506
:10073300363035302E2044617461000A4D707536B1
:100743003035302E20436F6E662E000AC8004D7080
:1007530075363035302E20506572696F640002FDA6
:100763008B010000C08B02F38B0100005510109821
:1007730089010000EA0402EF8B030000F80402F190
:100783008B010000561002F38B01000064101088E7
:1007930089030000FE0402F18B010000651002F3DF
:1007A3008B0100007410107889030000751002F1AA
:1007B3008B0100007710FF00013075030201060072
:1007C3000000000000000000000000000000000026
:1007D3000000000000000000000000FFFF06008092
:1007E3000CE803104B6579205072657373205374C2
:1007F3006174650002FD8B010000BD8B02F38B0168
:1008030000000C1102F78B000000AE0502EF8B0312
:100813000000AF0502F18B0100000D11FF0000B4D1
:10082300000028002800283075A000A000A000A028
:100833000000080008E001F0001000100010001094
:10084300001000100050005000500010001000D0A5
:10085300070000000000000F0001000500307507CD
:10086300001000010081FF00000000FF50126E1213
:100873005612FF02020208025000A0000000E80323
:1008830002FD8B010000BA8B02F38B0100009C1167
:1008930002EB8B010000E70502F38B0100009D11C1
:1008A30002E98B010000FD0502F38B0100009E119C
:1008B30002E78B010000FF0502F38B0100009F118B
:1008C30002E58B080000000602F38B010000A01173
:1008D30002E18B010000A111FF0100FF2002FD8B4B
:1008E300010000D88B02F38B010000051202DF8B9D
:1008F300000000000002EF8B0300004D061A181AD7
:10090300181A181A181A181A181A181A181A181A54
:10091300181A181A181A18AE1AC61AA81A12013871
:10092300C4C20312013810C30312013866C3031291
:1009330001380BC403120138BFC403120138DEC4EB
:1009430003120138FDC4031201382BC50312013809
:100953005EC503120138D7C5031201385DC6031201
:100963000138FDC603120138C2C703120138F4C7A8
:100973000312013829C80312013857C8031201387A
:1009830088F002120138A7F002120138CAF00212ED
:100993000138F1F00212013818F1021201383FF167
:1009A3000212013866F10212013889F1021201388C
:1009B300ACF102120138CFF102120138F2F1021246
:1009C300013824F20212013847F20212013871F29F
:1009D300021201380DF30212013832F30212013808
:1009E30057F3021201387CF302120138A1F3021209
:1009F3000138C6F302120138EBF30212013812F484
:100A03000212013850F4021201387CF40212013848
:100A1300A8F402120138CDF40212013806F50212CD
:100A230001382DF50212013866F5021201388DF5F1
:100A330002120138C6F502120138EDF5021201382F
:100A430012F60212013837F60212013875F6021255
:100A5300013898F602120138C2F602120138A1F7E2
:100A63000212013849F90212013899F902120138C8
:100A7300C6FA02120138E5FA0212013808FB021223
:100A8300013859A6031201386EA603120138C6A60F
:100A9300031201382DA70312013875A70312013879
:100AA300EBA7031201381AA80312013828A803126E
:100AB30001388CA803120138CAA803120138E5A82B
:100AC300031201387DA90312013826AA0312013843
:100AD300A9AA03120138E2AA031201386DAB03126B
:100AE3000138C4AB0312013823AC0312013835AC0F
:100AF300031201385BAC0312013864AC03120138F2
:100B0300C3AD03120138FB9304120138DA940412C3
:100B130001383695041201380080041201384580EB
:100B2300041201388B80041201381E82041201382A
:100B3300B09B04120138CB9B04120138DB9B0412D7
:100B43000138329C0412013866A10412013897BCA3
:100B530003120138B7BC03120138BBBD03120138BD
:100B630007BE0312013827BE031201387ABE0312EF
:100B73000138E7BE031201382DBF0312013891BFBC
:100B83000312013843C2031201386184041201388D
:100B9300918404120138C18404120138848504123B
:100BA3000138DE8504120138E18C04120138F98C16
:100BB30004120138568D041201389A8D041201383B
:100BC300CC8D04120138038E04120138268E0412D0
:100BD3000138A43100120138363800120138FD38CB
:100BE300001201387B3B00120138A3450012013883
:100BF300CE4500120138D4460012013812470012C4
:100C03000138FA4800120138314900120138714B9A
:100C130000120138834F00120138BA4F0012013815
:100C2300845000120138BB5000120138F2500012F8
:100C33000138715100120138AC510012013832529F
:100C43000012013805530012013892530012013883
:100C5300575400120138379D04120138AD9704121E
:100C63000138AADF03120138FDDF031201381AE04D
:100C730003120138EFE0031201386CE1031201386B
:100C830049E203120138BEE3031201388AC8031292
:100C93000138AFC8031201380DC90312013809A284
:100CA30004120138B35400120138C157001201383D
:100CB3008159001201382C5A00120138D05A0012FF
:100CC3000138695B00120138985B001201387260C9
:100CD300001201381D61001201388D6200120138C3
:100CE300F56200120138A963001201386B66001225
:100CF3000138AA66001201381E67001201387D67A9
:100D030000120138DC67001201384B680012013809
:100D13003E6900120138846900120138C969001262
:100D23000138EC6900120138676B001201387A6BE5
:100D330000120138836C00120138C26C00120138B2
:100D4300EE6C00120138416D00120138626D001221
:100D53000138A66D00120138F86F0012013839709E
:100D630000120138E470001201384F71001201388B
:100D73008C7200120138ED9D04120138458B041268
:100D83000138768B041201389A8B041201386D8C6A
:100D930004120138E79904120138C79A0412013882
:100DA3007E9C041201389C9C04120138259D041278
:100DB3000138A4A4041201388196041201389196D3
:100DC30004120138A29604120138A79704120138BD
:100DD3008EF50312013834F60312013850F803126A
:100DE3000138EBFD031201384DFE03120138C5FE35
:100DF300031201386DFF031201388CFF031201380F
:100E03009CFF03120138DBFF0312013858910412CF
:100E130001389291041201380592041201383F926D
:100E230004120138519204120138889204120138D5
:100E3300A58904120138F48904120138268A0412A0
:100E43000138B78A04120138338B04120138708ECB
:100E530004120138A38E041201381F8F04120138C3
:100E63003F8F04120138A48F04120138EC8F04124F
:100E73000138EF8F04120138E8FF02120138FAFF3C
:100E830002120138FDFF021201384795041201389E
:100E9300969504120138C29504120138E2950412A2
:100EA30001386F9604120138AC9204120138FD9296
:100EB30004120138449304120138CE93041201380A
:100EC300F87F001201383EFB0312013835FD03128F
:100ED3000138A1FD03120138E8FD03120138A3CD47
:100EE30003120138F6CD031201381FCE0312013865
:100EF300DDCE0312013846CF0312013884D003122A
:100F030001383ED203120138A39403120138D1945D
:100F130003120138D19603120138D1980312013814
:100F23008C99031201383E9D03120138A99D0312C7
:100F33000138599F04120138A39E04120138EEE3CD
:100F43000312013841E4031201386AE40312013841
:100F5300D3E40312013811E603120138CBE703127D
:100F63000138628204120138CB820412013889836A
:100F7300041201380884041201386FEF0312013898
:100F8300A1EF03120138A9F003120138CEF10312C5
:100F93000138008003120138E680031201383381DF
:100FA30003120138768103120138EB8103120138F1
:100FB3004C8203120138C182031201389D8303124C
:100FC3000138A88403120138298503120138D08619
:100FD30003120138668703120138D98703120138D7
:100FE3005588031201386C8803120138A389031250
:100FF3000138FD8903120138A1E70112013839ECE8
:10100300011201380DEF0112013836EF01120138D8
:101013004DEF0112013876EF0112013828F0011269
:1010230001380EF20112013849F3011201387FF839
:1010330001120138B8F801120138FCF80112013825
:101043000EFA011201388BA3041201380FA0041207
:1010530001384686041201385D86041201388E86F3
:1010630004120138C98604120138F38604120138C8
:101073001D87041201383487041201384B87041288
:1010830001386287041201388B87041201389E8766
:1010930004120138B48704120138C78704120138D7
:1010A300EE8704120138698A031201386D8B03122B
:1010B3000138A58B03120138C88B03120138D38B77
:1010C30003120138F68B03120138058D0312013820
:1010D300DA8D03120138558E03120138DD8E0312A7
:1010E3000138188F031201384F8F03120138DD8F37
:1010F30003120138B6900312013816910312013816
:10110300219103120138A09103120138A391031214
:101113000138A6910312013835920312013838922F
:1011230003120138689203120138929203120138B4
:101133008093031201383294031201382BFB0212FD
:10114300013853FB0212013881FB02120138B8FB4C
:101153000212013816FC0212013861FC0212013836
:10116300ACFC02120138ECFC0212013832FD02120F
:10117300013860FD021201381DFE0212013827FEFC
:101183000212013834FE0212013867FE02120138DE
:1011930033FF021201383FFF0212013857FF0212D8
:1011A300013861FF02120138D99A04120138E79A13
:1011B30004120138FF9A04120138179B04120138F4
:1011C300279F02120138D39F021201384EA0021248
:1011D30001386FA102120138ABA10212013854A2E7
:1011E300021201383BA3021201389FA402120138F4
:1011F300F6A40212013877A50212013867A602127B
:101203000138B4A6021201383AA7021201386CA7BA
:101213000212013880A902120138C2A90212013850
:10122300E0A90212013863AA0212013837AB021295
:101233000138FFAB0212013874B50312013847B607
:1012430003120138F0B60312013843B70312013811
:10125300F3B7031201387FB8031201386BB90312D5
:1012630001389AB903120138ADBA03120138F5BA3D
:1012730003120138CABB0312013806BC031201383A
:1012830022BC0312013893A204120138D6EB0312D5
:101293000138ECEB0312013812EC031201382EED86
:1012A3000312013838ED031201386DEE03120138D1
:1012B30065EF03120138CEFA01120138FEFB011269
:1012C300013831FC011201387BFC0112013842FE66
:1012D300011201380080021201386A8002120138BB
:1012E300C98102120138D981021201380682021221
:1012F30001385D82021201380683021201380D841F
:1013030002120138D78402120138378602120138DB
:101313007A86021201381F87021201386C87021283
:101323000138928702120138A08902120138A58977
:1013330002120138AA8B02120138F78B021201380C
:101343006A8C021201389D8C021201383F8D021201
:101353000138E88D02120138208E02120138238EE3
:10136300021201386B8E02120138AB8E0212013861
:10137300028F021201386BF80312013883F803124B
:101383000138CBF803120138E1F80312013828F9C8
:10139300031201383CFA03120138C9FA0312013867
:1013A30014FB03120138168C01120138228C01122E
:1013B30001385D8C01120138A28C01120138628D53
:1013C30001120138E88D011201384D8E01120138E6
:1013D300798E01120138B28E01120138F090011298
:1013E3000138D49201120138BA9401120138FD95E3
:1013F300011201384B98011201385D99011201382D
:10140300A89A01120138B89B01120138D59B011229
:101413000138109C01120138329C01120138959C4D
:101423000112013856A101120138EBA10112013852
:101433003CA20112013863A201120138B5A20112C4
:101443000138D3A2011201382DA30112013816A4C9
:10145300011201388CA50112013810A601120138BE
:101463007BD20312013885D203120138C8D203128A
:101473000138E3D20312013873D3031201389BD32B
:1014830003120138D8D3031201380FD403120138E1
:1014930038D403120138ADD403120138C2D4031275
:1014A3000138D7D40312013808D5031201381CD5EB
:1014B3000312013841D5031201387BD503120138D9
:1014C300A7D5031201382AD60312013873D60312A3
:1014D30001389DD603120138C8D603120138CE98BD
:1014E3000412013887D802120138B5D80212013824
:1014F30003DA02120138E3DA0212013802DB0212C4
:1015030001387FDB02120138C2DB0212013818DD19
:1015130002120138D9DD0212013860E002120138EB
:1015230001E102120138F7E102120138F4E202127A
:1015330001384EE402120138D9E402120138FD8F5A
:1015430004120138669004120138BA90041201386B
:10155300E19004120138129104120138F0D60312FB
:1015630001385DD703120138A4D703120138BCD860
:1015730003120138B8D9031201389BDA0312013878
:10158300F09D03120138329E03120138049F0312A7
:101593000138DD9F03120138D7A003120138B9A126
:1015A3000312013822A203120138D8A20312013810
:1015B3004CA303120138B8A303120138E1A30312A9
:1015C30001385BA403120138F4A40312013859A5AE
:1015D300031201386EA503120138B4A503120138B2
:1015E300CDA50312013832A60312013835A6031222
:1015F300013895F203120138BDF203120138FBF2F0
:1016030003120138B9F30312013820F4031201382D
:101613003CF40312013864F40312013894F4031206
:101623000138A3F40312013820F50312013846F5FB
:1016330003120138EF8F02120138CD9102120138E3
:10164300FF93021201383B9402120138689402128C
:1016530001385295021201389D9502120138E8951E
:1016630002120138FA95021201383A960212013831
:101673006F9602120138BD9602120138EC960212DF
:1016830001380F97021201385C9702120138E19773
:1016930002120138FB99021201383A9C02120138F6
:1016A3007B9C021201381D9E021201385E9E0212BB
:1016B3000138D19E02120138C07200120138BE7384
:1016C30000120138577A00120138787C0012013871
:1016D300437E00120138AB7F0012013877A6011256
:1016E300013826A70112013853A70112013899A71F
:1016F30001120138D9A8011201386FAA0112013869
:10170300E9AA0112013804AB011201387FAB0112BF
:101713000138D9AC0112013839AE011201383FAF9B
:1017230001120138A0B001120138B9B00112013819
:1017330017B10112013805B20112013838B2011292
:101743000138A8B20112013822B3011201386CB377
:101753000112013836B4011201380BB501120138F8
:10176300EAB50112013875B601120138E3B6011268
:10177300013857B70112013882B70112013841B855
:1017830001120138A6B901120138C3B90112013897
:10179300E2B901120138D3BA01120138F8BA0112C1
:1017A300013822BB011201389DBB01120138F7BB7E
:1017B3000112013860BD011201380EBE0112013859
:1017C3004FBE01120138B3CA0212013801CB021213
:1017D30001380DCB02120138EBCB021201381CCCBD
:1017E300021201384DCC02120138CDCC021201385D
:1017F30005CD0212013857CD0212013894CD0212E1
:101803000138B1CF02120138D7D102120138C2D345
:1018130002120138ACD50212013899310012013895
:101823008ED301120138BED30112013897DA0112A7
:1018330001381CDC0112013819E20112013801E3FD
:10184300011201383EE30112013861E3011201384C
:1018530092E3011201389BE301120138A5E301125F
:10186300013893E40112013889E5011201387FBE82
:10187300011201387EC20112013884C201120138FB
:10188300BFC901120138D8CE0112013808E803128A
:1018930001389EE803120138B4E8031201382AE93B
:1018A300031201389EE903120138DCE903120138FF
:1018B30050EA03120138C9EA03120138D2EA0312CB
:1018C3000138DEEA03120138F3EA0312013831EB7F
:1018D3000312013847EB03120138A6EB0312013858
:1018E3005DDB031201386ADB0312013884DB031268
:1018F3000138C3DB0312013801DC0312013866DC53
:10190300031201387BDC0312013886DC0312013831
:1019130093DC03120138AADC03120138B8DC03128A
:101923000138C3DC03120138CFDC03120138DEDCDB
:1019330003120138E9DC031201380CDD031201380C
:10194300B3DD03120138C3DD03120138DDDD0312F9
:101953000138FADD0312013816DE031201383BDECB
:101963000312013846DE031201385BDE031201382D
:101973006FDE03120138D0DE03120138D6DE031204
:101983000138DCDE03120138E2DE03120138FADE2D
:10199300031201382DDF0312013889BC021201380A
:1019A3000DBD02120138BCBD021201381BBF021269
:1019B30001383CC10212013828C2021201385DC24B
:1019C300021201387FC2021201382EC302120138FB
:1019D30026C5021201384FC502120138E1C50212B1
:1019E300013813C60212013820C60212013877C625
:1019F300021201389DC6021201380AC902120138C7
:101A03000DCA0212013865CA0212013818AE021259
:101A1300013822AF0212013809B00212013813B0A3
:101A23000212013835B00212013841B002120138F6
:101A3300DAB10212013809B20212013825B30212D7
:101A430001387EB302120138E4B402120138C3B57F
:101A5300021201381FB6021201388CB60212013885
:101A6300C7B60212013806B702120138BFB9021213
:101A73000138D9B90212013865BA0212013873BAB2
:101A830002120138CCBA02120138DABA0212013852
:101A93004DBB02120138B1BB02120138FBBB02126B
:101AA30001385AE5021201387CE502120138A2E737
:101AB30002120138B7EA02120138CFEB02120138E1
:101AC30082EC0212013864ED02120138008804121C
:101AD3000138258804120138978804120138FAADB9
:101AE3000312013803AE031201380CAE031201389E
:101AF300E3AE0312013894B003120138CAB00312E3
:101B0300013804B1031201383AB10312013874B138
:101B130003120138A8B103120138D4B103120138FA
:101B23001DB20312013857B203120138A0B20312D7
:101B33000138F8B2031201382DB30312013888B308
:101B430003120138C2B30312013813B4031201386C
:101B530049B40312013883B403120138B1B4031238
:101B63000138D4B403120138BBA004120138E7A032
:101B73000412013842A1041201384CA104120138A5
:101B83005CA104120138F0A30412013878A40412F2
:101B9300013842A404120138D57F00E066701008B2
:101BA300A3E066700A08A3E066700408A3E0662257
:101BB300C3E7960809E7960809E7960809E7962216
:101BC300C3E09608A3E09608A3E09608A3E0962254
:101BD300C008C3E096F50808A3E096420808A3E00E
:101BE30096420808A3E09645087001D3D00822085E
:101BF3000808EAC0E0EBC0E086F0E7A4FA1809861B
:101C0300F0E7A42AFA180986F0E7A42AFA18098645
:101C1300F0E7A42AFA1986F0E7A4FBE5F02AFA19FB
:101C23000886F0E7A42BFBE5F03AFA190886F0E7FB
:101C3300A42BFBE5F03AFA18180986F0E7A4C5F0DF
:101C43002BFBE43AFA1908E7C5F0C6A426F6E5F03B
:101C53003BFBE43AFA1886F0E7A4F6E5F00826F62B
:101C6300E43B08F6E43A08F6D0E0FBD0E0FA22E4DD
:101C7300CFC0E0E4CEC0E0E4CDC0E0E4CCC0E0758A
:101C8300F020C3E633F608E633F608E633F608E653
:101C930033F6181818EC33FCED33FDEE33FEEF3357
:101CA300FFC3EC9709ED9709EE9709EF97191919F7
:101CB300400FFFEC97FC09ED97FD09EE97FE19190C
:101CC30006D5F0BEECF709EDF709EEF709EFF719C2
:101CD3001919D0E0FCD0E0FDD0E0FED0E0FF226097
:101CE30016080808C6C313C618C613C618C613C6F3
:101CF30018C613C6D5E0EA22700908080822601640
:101D0300181818C6C333C608C633C608C633C60870
:101D1300C633C6D5E0EA22E627F60809E637F60811
:101D230009E637F60809E637F622E026F608A3E0C7
:101D330036F608A3E036F608A3E036F622E026F0EE
:101D430008A3E036F008A3E036F008A3E036F0225B
:101D5300C3E697F60809E697F60809E697F6080931
:101D6300E697F622C3E096F008A3E096F008A3E016
:101D730096F008A3E096F022E657F60809E657F630
:101D83000809E657F60809E657F622E056F608A3CF
:101D9300E056F608A3E056F608A3E056F622E0560E
:101DA300F008A3E056F008A3E056F008A3E056F0CD
:101DB30022E647F60809E647F60809E647F6080962
:101DC300E647F622E0F608A3E0F608A3E0F608A348
:101DD300E0F622E6F008A3E6F008A3E6F008A3E69F
:101DE300F022E0FAA3E0FBA3E0FCA3E0FD22EAF08B
:101DF300A3EBF0A3ECF0A3EDF022CAC0E0E6F0A35E
:101E030008DAFAD0E0FA22CAC0E0E0A3C582CCC562
:101E130082C583CDC583F0A3C582CCC582C583CDDE
:101E2300C583DAE6D0E0CA22C3E498F8E499F9124C
:101E33001E6C8026C3E49AFAE49BFBE920E7E912CF
:101E43001E6CE498F8E499F922C3E498F8E499F94C
:101E5300121E6CE498F8E499F9C3E49AFAE49BFB44
:101E630022EB20E7CFE920E7E0B90010BB0008E848
:101E73008AF084F8AAF022E4FBC8FA22EB70227BF2
:101E830010C833C8C933C9335007C39AC3DBF280C0
:101E9300069A50012ADBEAC833F4C8C933F4C9FAF5
:101EA3002275F008E4C833C8C933C933C99AC99B3A
:101EB3005004C92AC93BD5F0ECFBC833F4C8E4C9C4
:101EC300FA22600D08C6A2E713C618C613C6D5E0EA
:101ED300F322600C08C6C313C618C613C6D5E0F4B4
:101EE30022700422600D18C6C333C608C633C6D594
:101EF300E0F41822251810AF08F5184002151980D0
:101F030008F51840021519D2AF22C0D0251810AF1A
:101F130008F518500205198008F51850020519D262
:101F2300AFD0D0222518F58210AF08F5184002155E
:101F3300198008F51840021519D2AF851983222597
:101F430018F582E43519F58322E4732518C582C098
:101F5300E0E51934FFC583C0E0E518C3958224F892
:101F630010AF0885831985821880088583198582B7
:101F730018D2AFCEF0A3E520F0A37808E608F0A3CB
:101F8300DEFAEFF0A3E58124FAF8E608F0A3E60809
:101F9300F0A3E608F0A30808E608F0A3E608F0A318
:101FA30015811581D0E0FED0E0F8158115811581EA
:101FB300E8C0E0EEC0E0222518C582C0E0E5193490
:101FC300FFC583C0E0E518C3958224F910AF0885E7
:101FD30083198582188008858319858218D2AFCE2C
:101FE300F0A3E520F0A37808E608F0A3DEFAEFF00B
:101FF300A3E58124FBF8E608F0A3E608F0A30808AC
:10200300E608F0A3E608F0A315811581D0E0FED021
:10201300E0F815811581E8C0E0EEC0E02285198360
:10202300851882E0A3FEE0A3F5207808E0A3F60874
:10203300DFFAE0A3FFE0A3C0E0E0A3C0E0E0A3C0B9
:10204300E0E0A3C0E0E0A3C0E010AF0885821885FC
:1020530083198008858218858319D2AFD083D082F3
:10206300020135851983851882E0A3FEE0A3F520DC
:102073007808E0A3F608DFFAE0A3FFE0A3C0E0E0FE
:10208300A3C0E0E0A3C0E0E0A3C0E010AF088582F6
:10209300188583198008858218858319D2AFD08368
:1020A300D08222C0D02518C582C0E0E51934FFC50F
:1020B30083C0E0E518C3958224F310AF0885831924
:1020C3008582188008858319858218D2AFC8F0A34A
:1020D300E9F0A3EAF0A3EBF0A37908E709F0A3D8AA
:1020E300FAECF0A3EDF0A3EEF0A3EFF0A3D0E0F051
:1020F300A3D0E0F0A3D0E0F0A3E520F0A3E5F0F057
:10210300A322851983851882E0C0E0A3E0F9A3E048
:10211300FAA3E0FBA37808E0F608A3DFFAE0FCA348
:10212300E0FDA3E0FEA3E0FFA3E0C0E0A3E0C0E086
:10213300A3E0F5D0A3E0F520A3E0A3F5F010AF08EA
:102143008583198582188008858319858218D2AF03
:10215300D082D083D0E0F8D0E032740480067402D9
:1021630080027401C0E0F404121F27D0E0121DFDA9
:10217300227404800474028000CCC0E0EDC0E0E56A
:1021830018C39CCCAD1950011D10AF068C188D19C6
:1021930080068C188D19D2AF121E0AD0E0FDD0E054
:1021A300FC22D083D082E9C0E0E493A3C386F0C5C8
:1021B300F095F0F908E493A386F0C5F095F0700B61
:1021C300E493A3C3994005E9048002A3E475F002F4
:1021D300A42582F582E5F03583F583D0E0F9E49315
:1021E300A3C0E0E493C0E022D083D082ECC0E0ED52
:1021F300C0E0E493A3FCE493A3FDED4C600D122235
:1022030037EC24FFFCED34FFFD80EFE493A3FCE403
:1022130093A3FDED4C600D122276EC24FFFCED340C
:10222300FFFD80EFD0E0FDD0E0FCE493A3C0E0E449
:1022330093C0E022C0E0C3E4939608740193961818
:10224300400FE49366700808740193661870007079
:1022530019A3A3C3E49396087401939618A3A34008
:102263000DD0E0D0E0D0E0022227A3A3A3A3A3A331
:10227300D0E022C0E0C0F088F0E4936670080874F0
:10228300019366187000A8F0A3A3700BD0F0D0E000
:0E229300D0E0D0E0022227A3A3D0F0D0E022BA
:1022A400C2AF02000022C0E074F21220A6A2AFE482
:1022B40033FED2AFE589A2E05003120E66758900A1
:1022C400C2C5EEF8EEA2E092AF7F01022105C0E0A4
:1022D40074F21220A6A2AFE433FED2AFE58AA2E6DE
:1022E4004006E58AA2E75003120E66758A00758AD5
:1022F40000C2EBEEF8EEA2E092AF7F01022105C02E
:10230400E0C0D0E8C0E0E9C0E0A2AFE433F8D2AF67
:10231400758B00C2E8E8F9E8A2E092AFD0E0F9D00A
:10232400E0F8D0D0D0E032C0E0C0D0E8C0E0E9C0EE
:10233400E0A2AFE433F8D2AFC2C7751A00E8F9E8F7
:10234400A2E092AFD0E0F9D0E0F8D0D0D0E032747F
:10235400F5121FBAEAFEEBFFEE2434F8EF3400F96D
:1023640088088909EE2435F582EF3400F583E0F816
:10237400EE2437F582EF3400F583E0F50AEC850AA4
:10238400F0A4FCAAF0850AF0EDA42AFDE82CF8E4F8
:102394003DF97A257B00121E6CEA85088285098343
:1023A400F0F8740758F97401B900028004C333D9F2
:1023B400FCFAE8131313541FF8EE28F8EF3400F96D
:1023C400E8245DF582E93400F583E05A6008EE24E0
:1023D40034F582EF802CEE2434F582EF3400F5835B
:1023E400E0C0E0EE2436F582EF3400F583E0F5F04A
:1023F400D0E084A8F0EE28F8EF3400F9E82438F5AA
:1024040082E93400F583E0F97F0402206674F51252
:102414001FBAEAFEEBFFEE2434F582EF3400F583B5
:10242400E0C0E0EE2435F582EF3400F583D0E0F02F
:102434008E828F83A3A3A3A3A3A3A3C082C0838EEE
:10244400828F83A3A3A3A3A3E0F8A3E0F9D083D04E
:1024540082E0C398F508A3E099F509EE247FF5829C
:10246400EF3400F583E064017069EE2480F582EFB7
:102474003400F583E0F8A3E0F98E828F83A3A3A34D
:10248400A3A3A3A3E0FCA3E0FD8E828F83A3A3A355
:10249400A3A3E0FAA3E0FBC3EA9CEB9D5010C3ECBA
:1024A40098ED99402EC3EA98EB995027800EC3EA21
:1024B40098EB994007C3EC98ED9940177C107D0880
:1024C400EEFAEFFB121778EE247FF582EF3400F575
:1024D40083E4F0EE2434F8EF3400F9E8FCE9FDEE8F
:1024E4002435F582EF3400F583E0F8EE2437F582E5
:1024F400EF3400F583E0F50AE508850AF0A4F50851
:10250400AAF0850AF0E509A42AF509E82508F8E403
:102514003509F97A257B00121E6CEA8C828D83F0D2
:10252400F8740758F97401B900028004C333D9FC64
:10253400FAE8131313541FF8EE28F8EF3400F9E8FF
:10254400245DF582E93400F583E05A6008EE243412
:10255400F582EF802CEE2434F582EF3400F583E02D
:10256400C0E0EE2436F582EF3400F583E0F5F0D0D8
:10257400E084A8F0EE28F8EF3400F9E82438F58276
:10258400E93400F583E0F912318B02240CC082C0D7
:1025940083851882851983E0F8A3E0F9C3EA9CEBEC
:1025A4009D5010C3EC98ED99401BC3EA98EB9950E9
:1025B40014800EC3EA98EB994007C3EC98ED994058
:1025C40004790180027900D083D08222EAC39CFA84
:1025D400EB9DFB2274EF121FBA9006D6E0640860EC
:1025E40005E06407702A9061C8E06024900704E065
:1025F400F4601DE0F875F003A4C8AAF02AF9740683
:1026040028FE740739FF8E828F83A3A3A3E070038F
:10261400022708906060E0C0E0EE2468F582EF34A1
:1026240000F583D0E0F0750C79750D087508007518
:102634000900E5D914F50AE5D95403F50E601774B9
:1026440003650E605CE50A6010EE2467F582EF34E2
:1026540000F583E070030226ED900874E0640160E5
:102664002AEE2482F582EF3400F583E060047804D6
:1026740080027800850A08E508C398FA95E0FB1201
:1026840016468A088B09EA4509700512197C80747C
:10269400EE2482F582EF3400F583E070048A0C8B1B
:1026A4000DE50A6012850C82850D83F50BE5D9F0E2
:1026B400A3150BE50B70F6EE2482F582EF3400F5DA
:1026C40083E0604474FC250AF50A780C122161AC9D
:1026D4000AA90EEEFAEFFB1218147402121F0DE988
:1026E4007026AA08AB09120F68793D8E828F83A3E6
:1026F400A3A3A3E0FA7B0012151AEEFAEFFB12175C
:1027040090121826790080747403650E6056850A49
:10271400107511007810122161AC0CAD0DAA08AB34
:10272400091217F07402121F0DEE2468F582EF34BB
:1027340000F583E064807004747F8001E0F50C7818
:102744000C122165E50EF50C780C122165A90AAC72
:1027540008AD09900704E0FA7B001214DE7402123B
:102764001F0D80139006D6E06408600BAC0CAD0D11
:10277400EEFAEFFB12188012198879017F0A022001
:102784006674F5121FBA74FC121EF7EAFEEBFF8999
:1027940008A2AFE433F509C2AF806AEE2463F8EF10
:1027A4003400F97A007B00A2AFE433F50AC2AF88A3
:1027B400828983E0FCA3E0FDEC4D603A8882898342
:1027C400E0FAA3E0FB8A828B83E0FCA3E0FD88822D
:1027D4008983ECF0A3EDF08A828B83E4F0A3F08884
:1027E400828983E0FCA3E0FDEC4D700A8882898332
:1027F400A3A3E4F0A3F0E50AA2E092AF120F68905D
:102804000817E004F0EE2463F582EF3400F583E06A
:10281400F8A3E0F9E849603DEE2463F582EF340063
:10282400F583E02402FAA3E03400FBEA2402F50A6B
:10283400EB3400F50B780A1221618A828B83E0FC69
:10284400A3E0F9EEFAEFFB1217B47402121F0DE9BC
:10285400700302279F900817E06063900818E0F85F
:10286400900817E0C398500C7402650870509008E3
:1028740019E0604A8E828F83A3A3A3A3E085188204
:10288400851983F0A3E4F0900817E0F87402121F8E
:1028940042E8F0A3E4F0900817E0F8900816E02866
:1028A400F07402121F42AC82AD83851882851983AD
:1028B400AA82AB8379011214EA900817E4F0E509BF
:1028C400A2E092AF7404121F0D02240C85218785A7
:1028D40022C622C0E0C0D0E8C0E0E9C0E0EAC0E01F
:1028E400EBC0E0ECC0E0EDC0E0EEC0E0C008C00921
:1028F400C00AC00BC082C083C0F0A2AFE433FEC2E2
:10290400AF759B00906182E0A2E05012E591A2E0D5
:10291400500C7591FE7401652170031225D8E0A254
:10292400E55051E591A2E5504B7591DF9006D6E054
:1029340064076005E06408702374016521703579CB
:1029440001900704E0FA75F003A4CAA8F028FB7408
:10295400062AFA74073BFB1227858018E0640D7081
:10296400139006F8E004F064287002E4F07A00E0C2
:10297400F912198E906182E0A2E64003022A1EE554
:1029840091A2E64003022A1E7591BF9006D6E06428
:102994000570081218B61218C280031218BC7521EB
:1029A4000012191CE99006D7F079001219101216BA
:1029B400EE7A017B009006D5E0F9120ADC907803E8
:1029C400E064427055900878E014F0704DC2AF1284
:1029D40029D600782AD0E0F618D0E0F6E59F54070F
:1029E40070057509FF800375097FC4C0E07829E686
:1029F400F50808E65509F509740B7808121ED5D0B8
:102A0400E02508F8906270E0A2E740F8E8C333904C
:102A14006272F0906270E0D2E0F0906181E0A2E333
:102A24005009E5E9A2E3500375E9F7A3E0A2E750F2
:102A340009E591A2E7500375917FEEA2E092AFD031
:102A4400F0D083D082D00BD00AD009D008D0E0FED9
:102A5400D0E0FDD0E0FCD0E0FBD0E0FAD0E0F9D04B
:102A6400E0F8D0D0D0E032C0E0C0D0C082C08390C3
:102A74006183E0A2E05009E5BFA2E0500375BFFE08
:102A8400E0A2E15009E5BFA2E1500375BFFDE0A259
:102A9400E25009E5BFA2E2500375BFFBE0A2E35098
:102AA40009E5BFA2E3500375BFF7E0A2E45009E5CE
:102AB400BFA2E4500375BFEFE0A2E55009E5BFA251
:102AC400E5500375BFDFE0A2E65009E5BFA2E6507A
:102AD4000375BFBFD083D0828088C0E0C0D0E8C077
:102AE400E0E9C0E0EAC0E0EBC0E0ECC0E0EDC0E04B
:102AF400C0F0E5A7A2E6500FE5A1A2E6500953A74E
:102B0400BF75A1BF122B43E5A7A2E5500CE5A1A216
:102B1400E5500653A7DF75A1DFE5A7A2E15009E55B
:102B2400A1A2E1500375A1FDE5A7A2E2500CE5A125
:102B3400A2E2500653A7FB75A1FBD0F0022A5474FD
:102B4400F8121FBA7521019006D6E06406701512BA
:102B540018448A828B83A3A3A3A3A3A3E0FAA3E0CC
:102B6400FB1218A4A2AFE433FED2AF9006DCE064FB
:102B74000170187A207B009006D5E0F9120B727A66
:102B8400207B009006D5E0F9120AE2906182E0D23F
:102B9400E6F0900875E0602185C62280169006DB79
:102BA400E064017008E5C654F84405F5C653BEFC5C
:102BB4001228D07401652160E4EEA2E092AF7F0197
:102BC400022066008E238F2485822885832785181A
:102BD40082851983E0CEA3E0CF852882852783EB05
:102BE400C9EAC8EDCBECCA75F010C3E833C8E933C1
:102BF400C9EA33CAEB33CBC3EA9EF526EB9FF5252E
:102C0400B35004AB25AA26EC33CCED33CDD5F0DAA2
:102C1400AE23AF242274E9121FBA74F8121EF7858A
:102C24001882851983ECF0A3EDF08A088B099006CD
:102C3400D6E024F7C394055006750801022DB0129E
:102C440018448A0A8B0BAE0AAF0BEE4F7003022DA9
:102C5400ADAC08AD097402121F42AA82AB831218EC
:102C6400D48E828F83A3A3750CFF750DFF750EFFA1
:102C7400750F00780C121D8E7402121F427510FF1E
:102C84007511FF7512FF7513007810121D8E780CE4
:102C94007910121BB3502A780C7910121D53750841
:102CA400017509C8750A00750B007808790C121BA8
:102CB400B35052850C08850D09850E0A850F0B80CB
:102CC400507514017515C875160075170085100820
:102CD40085110985120A85130B7808790C121D5386
:102CE40078147908121BB3401C7508007509007527
:102CF4000A00750B0178087910121D537808790CB5
:102D0400121D1A800C750801750900750A00750BEF
:102D14000074097808121CFB750C19F50DF50EF5F5
:102D24000F7808790C121C728E828F83A3A3A3A33D
:102D3400A3A3E0F8A3E0F97AD07B03121E6C880CFD
:102D4400890DE4F50EF50F7808790C121D1A740636
:102D5400121F42E0F8A3E0F97AD07B03121E6CE85C
:102D6400FA8A0CE4F50D7808790C121BB350077835
:102D740008790C121D539006D6E06408600AE064DA
:102D8400066005E06405702D750C0D780C79081249
:102D94001BB34021750CF4750DFF750EFF750FFF05
:102DA4007808790C121D1A800C75080075090075D5
:102DB4000A00750B00851882851983E0F8A3E0F5F5
:102DC4008388827808121DD67408121F0D7F1002A2
:102DD400206674F7121FBA1218E6900873E06401B3
:102DE4007010906245E4F0A3F053F4F343FE0C53E7
:102DF40090F3121892E5C654804449F5C6E59E54F2
:102E04007F644970F8906185740FF0900871E0F464
:102E14007002A3E0604E900872E0600814601B1416
:102E2400602E8040750801750900900871E07808EB
:102E3400121EE4E508F45280802A75080175090021
:102E4400900871E07808121EE4E508F452908014AA
:102E5400750801750900900871E07808121EE4E510
:102E640008F452A079007F0202206674F7121FBA98
:102E7400E9FEEAFF74016E700C7A807B009006D53F
:102E8400E0F9120ADC90319CE493F46008E493F9CD
:102E94001216E2800953C680E59E547F70FA121818
:102EA40098900873E0640170031216FA900871E0B8
:102EB400F47002A3E0604B900872E0600814601A9A
:102EC40014602C803D750801750900900871E07844
:102ED40008121EE4E508428080287508017509007F
:102EE400900871E07808121EE4E50842908013759A
:102EF4000801750900900871E07808121EE4E508DD
:102F040042A01218E61218448A088B09A808A909D5
:102F1400E8496015E5E170FCE82414F582E9340021
:102F2400F583E0F46003E0F5E174016F700A7A015F
:102F34009006D5E0F9120B3C022E6A74ED121FBA0A
:102F44008A088B098C0A8D0B7413121F42780C1299
:102F54001DC77808790C121BB37510017511C8755B
:102F6400120075130050127808790C121D53781052
:102F74007908121BB350168010780C7908121D536F
:102F84007810790C121BB340047901800279007F18
:102F94000C02206674ED121FBA8A088B098C0A8D04
:102FA4000B7413121F42780C121DC7780C79081287
:102FB4001BB340117808790C121D53AA08AB09AC55
:102FC4000AAD0B802275100075110075120075137F
:102FD400017810790C121D5378107908121D1AAA61
:102FE40010AB11AC12AD1380A68A828B837508FFD7
:102FF4007509FF750AFF750B007808121DA17F047F
:1030040002206674F5121FBA8C828D837808121D13
:10301400C78A828B837808121D67EA2404F8EB348C
:1030240000F98C828D83A3A3A3A3E0FCA3E0FD8815
:10303400828983C3E09CF0A3E09DF088828983C3E6
:10304400E09420A3E0944E40268A828B837508FF87
:103054007509FF750AFF750BFF7808121D408A82F7
:103064008B83A3A3A3A3E02420F0A3E0344EF002B7
:103074002FED74F5121FBAE9FE90082BE0FAA3E0D5
:10308400FBEEC333F8E433F9748828F58274883985
:10309400F583E02AF508A3E03BF5097808122161DD
:1030A4007A407B427C0F7D00122BC87402121F0DE4
:1030B4008A088B098C0A8D0B74107808121CE2AAFA
:1030C40008AB097F0402206674F1121FBA8A0C8BC4
:1030D4000D8C0E8D0F740F121F42E0FAA3E0FB74E7
:1030E40011121F42E0F508A3E0F5097808122161E6
:1030F400EA2401F508EB3400F509E4F50AF50B7848
:103104000C7908121BF2750871750902780C79089C
:10311400121BF2AA0CAB0DAC0EAD0F122BC874022D
:10312400121F0D8B09EA450960047A0180027A00B6
:10313400EC2AFCED3400FD7413121F42E0F8A3E006
:10314400F9E8FEE9FFECF8EDF97A717B02121E6CE6
:10315400880889098E828F837808121DD6ECF8EDD1
:10316400F97A717B02121E6C8A088B09740578083F
:10317400121EE48E828F83A3A3A3A3E508F0A3E524
:1031840009F07F08022066C082C083E9906000F0E5
:10319400D083D08222020135FFFFFFFFFFFFFFFF34
:1031A40074ED121F4E746C121EF71209EC7C007D34
:1031B400007E007F007410121F42ECF0A3EDF0A318
:1031C400EEF0A3EFF0908B3F7808121DC774101235
:1031D4001F427808121BC35014908B377808121DB5
:1031E400C77410121F427808121D4080D87900124B
:1031F40009F27B017A017910120A467906120A4C07
:10320400120A52E9F5127B007A007900120A46127A
:103214000A0AE9F50F120A16E9F50E120A22E9F56F
:103224000D120A2EE9F50C7A7F79001209BC790097
:103234001209DA7A6879001209BC1209E67C007D69
:10324400007E007F007410121F42ECF0A3EDF0A387
:10325400EEF0A3EFF0908B477808121DC77410129C
:103264001F427808121BC35014908B377808121D24
:10327400C77410121F427808121D4080D8750801C7
:103284007808122165750800780812216579007C98
:10329400897D077A007B80120A647402121F0DE98B
:1032A400700302382A7CC07D007A977B0A120A7068
:1032B400E9700302382679031209F879121209C257
:1032C4007904120986790112098C79031209927919
:1032D400031209987903120A767900120A7C79009C
:1032E400120A10A90E120A1CA90D120A28A90C12FE
:1032F4000A34750A00750B00750800E508C39404C8
:1033040040248508107511007402121F42E0F879F8
:10331400002403F8E93400F9C3E51098E51199A2F3
:10332400D265D033503A7457250AF582740B350BA5
:10333400F583E0C0E08508107511008518828519B1
:1033440083E5822510F582E5833511F583D0E0F01D
:103354000508E50A2401F50AE50B3400F50B809B0A
:10336400750900780912216575090178091221652A
:103374007403121F42E0F5097809122165740312DF
:103384001F42E0F97405121F42E0FC7D007406122E
:103394001F42AA82AB83120A5E7403121F0DE975E1
:1033A4000800E508C39404402485081075110074CE
:1033B40002121F42E0F879002403F8E93400F9C34B
:1033C400E51098E51199A2D265D033503A74572587
:1033D4000AF582740B350BF583E0C0E0850810759F
:1033E4001100851882851983E5822510F582E5830D
:1033F4003511F583D0E0F00508E50A2401F50AE566
:103404000B3400F50B809B75090078091221657552
:10341400090178091221657403121F42E0F5097845
:10342400091221657403121F42E0F97405121F4248
:10343400E0FC7D007406121F42AA82AB83120A5E6E
:103444007403121F0DE91209E01209FE8A108B1190
:10345400AE10AF11E510A9107414121F42AA82AB6A
:1034640083120A0479021209A4799C1209B07950D2
:103474001209AA79001209B61209E079011209D4D5
:103484007901120A3A120A40750800E508C3940447
:1034940040248508107511007402121F42E0F87967
:1034A400002403F8E93400F9C3E51098E51199A262
:1034B400D265D033503A7457250AF582740B350B14
:1034C400F583E0C0E0850810751100851882851920
:1034D40083E5822510F582E5833511F583D0E0F08C
:1034E4000508E50A2401F50AE50B3400F50B809B79
:1034F4007509007809122165750901780912216599
:103504007403121F42E0F50978091221657403124D
:103514001F42E0F97405121F42E0FC7D007406129C
:103524001F42AA82AB83120A5E7403121F0DE9754F
:103534000800E508C394044024850810751100743C
:1035440002121F42E0F879002403F8E93400F9C3B9
:10355400E51098E51199A2D265D033503A745725F5
:103564000AF582740B350BF583E0C0E0850810750D
:103574001100851882851983E5822510F582E5837B
:103584003511F583D0E0F00508E50A2401F50AE5D4
:103594000B3400F50B809B750900780912216575C1
:1035A400090178091221657403121F42E0F50978B4
:1035B400091221657403121F42E0F97405121F42B7
:1035C400E0FC7D007406121F42AA82AB83120A5EDD
:1035D4007403121F0DE9750800E508C39404402420
:1035E4008508107511007402121F42E0F879002456
:1035F40003F8E93400F9C3E51098E51199A2D265FE
:10360400D033503A7457250AF582740B350BF58381
:10361400E0C0E0850810751100851882851983E5DE
:10362400822510F582E5833511F583D0E0F0050895
:10363400E50A2401F50AE50B3400F50B809B7509B6
:10364400007809122165750901780912216574034E
:10365400121F42E0F50978091221657403121F4212
:10366400E0F97405121F42E0FC7D007406121F424B
:10367400AA82AB83120A5E7403121F0DE91209FEBB
:103684008A108B11A810A911E8FEE9FFC3E894037E
:10369400E9940040E8EEF97414121F42AA82AB8345
:1036A400120A041209C8E9F509750800E508C3946B
:1036B4000440248508107511007402121F42E0F8BA
:1036C40079002403F8E93400F9C3E51098E5119969
:1036D400A2D265D033503A7457250AF582740B355B
:1036E4000BF583E0C0E0850810751100851882850C
:1036F4001983E5822510F582E5833511F583D0E041
:10370400F00508E50A2401F50AE50B3400F50B8001
:103714009B7401121F42E0F51078101221657401A8
:10372400121F42E0F97403121F42E0FC7D0074048E
:10373400121F42AA82AB83120A587401121F0D127F
:1037440009FE8A108B11A810A911E8FEE9FFC3E84D
:103754009403E9940040E8EEF97414121F42AA821B
:10376400AB83120A041209C8E9F509750800E508D3
:10377400C3940440248508107511007402121F427A
:10378400E0F879002403F8E93400F9C3E51098E57A
:103794001199A2D265D033503A7457250AF5827430
:1037A4000B350BF583E0C0E0850810751100851812
:1037B40082851983E5822510F582E5833511F58329
:1037C400D0E0F00508E50A2401F50AE50B3400F51C
:1037D4000B809B751000781012216575100178100C
:1037E4001221657403121F42E0F51078101221654E
:1037F4007403121F42E0F97405121F42E0FC7D00BD
:103804007406121F42AA82AB83120A5E7403121F4B
:103814000DE97900120A3A1209E01209C8E979009F
:1038240080067902800279017494121F0D7F0B02C5
:10383400202074F7121F4E8C828D83E0F87900E407
:10384400C8F98C828D83A3E0FE7F00E82EF8E93F5F
:10385400F98A828B83E8F0A3E9F08C828D83A3A399
:10386400A3A3E0F87900E4C8F98C828D83A3A3A311
:10387400A3A3E0FE7F00E82EF8E93FF98A828B8358
:10388400A3A3E8F0A3E9F08C828D83A3A3A3A3A34D
:10389400A3A3A3E0F87900E4C8F98C828D83A3A3E1
:1038A400A3A3A3A3A3A3A3E0FE7F00E82EF8E93F0C
:1038B400F98A828B83A3A3A3A3E8F0A3E9F0EC2401
:1038C4000CF582ED3400F583E0F87900E4C8F9ECF6
:1038D400240DF582ED3400F583E0FE7F00E82EF838
:1038E400E93FF98A828B83A3A3A3A3A3A3E8F0A34C
:1038F400E9F079007F0102202074F3121F4E74EC6A
:10390400121EF78908E5089002ACF07C047D007A69
:103914001F7B0012113CE9F5097405121F42740162
:10392400F0740E121F427401F0A37400F0740412B8
:103934001F427401F0740C121F42742FF0A374011F
:10394400F0740A121F42743FF0A37401F074081259
:103954001F427404F0A37400F07406121F427458DA
:10396400F0A37402F07405121F42AC82AD83790196
:103974007A057B03120FF8E9740E121F42AC82AD74
:103984008379027A067B03120FF8E97C867D0B7932
:10399400157A087B03120FF8E97C9B7D0B79177A63
:1039A400077B03120FF8E97404121F42AC82AD8343
:1039B40079017A107B03120FF8E9740C121F42ACE0
:1039C40082AD8379027A117B03120FF8E9740A122B
:1039D4001F42AC82AD8379027A127B03120FF8E99D
:1039E4007408121F42AC82AD8379027A137B0312EE
:1039F4000FF8E97406121F42AC82AD8379027A147F
:103A04007B03120FF8E97CB27D0B7A047900121261
:103A1400B6E97E407F06EEFCEFFD7A067B001211CC
:103A24003CE9EEFCEFFD7A077B0012113CE9EEFC69
:103A3400EFFD7A087B0012113CE9EEFCEFFD7A09F8
:103A44007B0012113CE97A007B007C007D0074103D
:103A5400121F42EAF0A3EBF0A3ECF0A3EDF0740321
:103A6400121F427401F07402121F427401F07401B7
:103A7400121F427400F08518828519837401F07452
:103A840010121F42AC82AD8379047A087B04120CB5
:103A9400A4E97403121F42AC82AD8379017A007BDE
:103AA40004120CA4E97402121F42AC82AD837901A2
:103AB4007A027B04120CA4E97401121F42AC82AD99
:103AC4008379017A037B04120CA4E9851882851991
:103AD40083AC82AD8379017A067B04120CA4E9904D
:103AE4008B53121DE51212BCE9908B53121DE51283
:103AF40013CAE9120C8CE9908B53121DE5120F3E88
:103B0400E9908B53121DE5120EDEE9908B53121DC2
:103B1400E5120C62E97A007903120E78E9120E0CB0
:103B24007ACC7B0B120F44E9F50A7ACE7B0B120E8A
:103B3400E4E9F50B7AD07B0B120C68E9F50C7AD228
:103B44007B0B12100A75F30075F40075F50075FD12
:103B5400FF75FEFF75FF1F75800075900075A0004E
:103B64007A017B009002ACE0F9120ADCE9741412C9
:103B74001F0D7F0502202074EC121F4E74F8121ED4
:103B8400F78909EAFEEBFFEE5400F8EF5480F9E8F8
:103B94004960329002ACE0F9120AC48A0C8B0DA879
:103BA4000CA90D880A890BE849600FAA0AAB0B120D
:103BB4000BEAAA0AAB0B120AB2E9EE6400FAEF644C
:103BC40080FB024599EE5480601B9002EEE0600A8F
:103BD400C2AF75C9AB75C95B80FEEE6480FAEF6451
:103BE40000FB024599EEA2E050227AC87B0B12102A
:103BF40004E9F5087A357B03120CC2120D7C120F0E
:103C040008EE6401FAEF6400FB024599EE5400F8F3
:103C1400EF5404F9E84960167C107D007AC77B02F2
:103C2400120C50EE6400FAEF6404FB024599EE5462
:103C34000460569002AFE0602B120C02900BB8E0C7
:103C4400F50CA3E0F50DE4F50EF50F780C12215DEB
:103C54007A047B009002ACE0F9120B667404121F24
:103C64000DE9801A7D037C0079007A107BAA120C7E
:103C74004A7D017C0079017A107BAA120C4AEE6419
:103C840004FAEF6400FB024599EE5400F8EF540186
:103C9400F9E8497003023DC29002B0E07003023DAE
:103CA400B79002EAE0640160089002EAE0640270FE
:103CB40023908B5F1221747A007B019002ACE0F9AF
:103CC400120B667404121F0DE9EE6400FAEF64012E
:103CD400FB0245999002EA7403F01209C8E99003C3
:103CE40034F01209FE9002F2EAF0A3EBF0900334F0
:103CF400E0A2E4400E9002F2E064007004A3E064E9
:103D04000470261209E0908B631221747A007B01FF
:103D14009002ACE0F9120B667404121F0DE9EE6414
:103D240000FAEF6401FB024599900334E0A2E150EC
:103D3400539002F2C082C083900BC6E0F8A3E0F96E
:103D4400D083D082C3E098A3E099500D1209FE906D
:103D540002F2EAF0A3EBF080D8900BC6E0F8A3E0FF
:103D6400F9E8F97AF47B02120A04900BC6E0F8A38E
:103D7400E0F99002F2C3E098F0A3E099F07AF47BC2
:103D840002120C08900BC2E0F50CA3E0F50DE4F56B
:103D94000EF50F780C12215D7A007B019002ACE0E5
:103DA400F9120B667404121F0DE99002EA7400F014
:103DB4001209E0EE6400FAEF6401FB024599EE5447
:103DC40000F8EF5408F9E849602C120BD2E97901A4
:103DD400120A3A908B671221747A007B019002AC2C
:103DE400E0F9120B667404121F0DE9EE6400FAEF99
:103DF4006408FB024599EE5400F8EF5402F9E849CF
:103E04007003023F189002B1E064016003023F0DA9
:103E14009002EAE0640160089002EAE0640370231F
:103E2400908B5F1221747A007B029002ACE0F9124D
:103E34000B667404121F0DE9EE6400FAEF6402FBD2
:103E44000245999002EA7402F09002EDE0700F903E
:103E540002E8E0FAA3E0FB7900120C0E801D900248
:103E6400E8E0FAA3E0FBEA2401F8EB3400F990025D
:103E7400E8E8F0A3E9F07901120C0E9002EDE0708D
:103E840020908B5F1221747A007B029002ACE0F9DF
:103E9400120B667404121F0DE99002ED7401F08098
:103EA400689002E8C3E0940EA3E09400A2D265D027
:103EB4003340389002EA7400F09002E87400F0A3F2
:103EC4007400F0900BC4E0F50CA3E0F50DE4F50EDE
:103ED400F50F780C12215D7A007B029002ACE0F9B8
:103EE400120B667404121F0DE98018908B6B12215B
:103EF400747A007B029002ACE0F9120B667404122F
:103F04001F0DE99002ED7400F0EE6400FAEF640214
:103F1400FB024599EE5400F8EF5440F9E849700368
:103F24000240489002B5E0700BEE6400FAEF644082
:103F3400FB0245999002EAE0640160089002EAE01D
:103F440064037023908B6F1221747A007B4090027B
:103F5400ACE0F9120B667404121F0DE9EE6400FA6A
:103F6400EF6440FB0245999002EA7402F09002E685
:103F7400E0F97401299002E6F07402121F42AA8249
:103F8400AB83120D88E99002E7E070267C307D0057
:103F940079FF7AB67B02120AA09002B674AAF09056
:103FA40002B774BBF09002B874BBF09002E7E0244F
:103FB40003F07402121F42E0C0E09002E7E0F879D7
:103FC4000074B628F582740239F583D0E0F09002CB
:103FD400E7E02401F07403121F42E0C0E09002E71E
:103FE400E0F8790074B628F582740239F583D0E0DC
:103FF400F09002E7E02401F09002E6E0C394084068
:10400400209002E67400F0908B4B1221747A007BAE
:10401400209002ACE0F9120B667404121F0DE980C3
:1040240018908B731221747A007B409002ACE0F9F3
:10403400120B667404121F0DE9EE6400FAEF64407B
:10404400FB024599EE5400F8EF5420F9E849700357
:104054000241FD9002B5E0700BEE6400FAEF6420BB
:10406400FB0245999002EAE0640160089002EAE0EC
:1040740064037023908B6F1221747A007B2090026A
:10408400ACE0F9120B667404121F0DE9EE6400FA39
:10409400EF6420FB024599908C0FC082C083851881
:1040A40082851983AC82AD83D083D0827402121EC0
:1040B4000A9002E6E0F97401299002E6F08518827C
:1040C400851983AA82AB83120F1AE9851882851990
:1040D40083E0C0E09002E7E0F8790074B628F58246
:1040E400740239F583D0E0F09002E7E02401F07423
:1040F40001121F42E0C0E09002E7E0F8790074B6D4
:1041040028F582740239F583D0E0F09002E7E024C8
:1041140001F09002E6E0C3940850030241DA9002F1
:10412400E7E0F8790074B628F582740239F58374EF
:104134000DF09002E7E02401F09002E7E0F8790046
:1041440074B628F582740239F583740AF09002E794
:10415400E02401F07C137D007AB67B02120C507AC5
:10416400007B007C007D007404121F42EAF0A3EB84
:10417400F0A3ECF0A3EDF0908B5F780C121DC774E4
:1041840004121F42780C121BC35014908B37780C06
:10419400121DC77404121F42780C121D4080D87C73
:1041A400127D007AC97B02120C509002E67400F072
:1041B4009002E77400F09002EA7400F0908B77129A
:1041C40021747A007B409002ACE0F9120B6674040F
:1041D400121F0DE98018908B731221747A007B20D2
:1041E4009002ACE0F9120B667404121F0DE9EE6440
:1041F40000FAEF6420FB024599EE54027003024278
:10420400B0120B128A108B118C128D1385100C8531
:10421400110D85120E85130F7418780C121CE2E52B
:104224000C900BA2F085100C85110D85120E8513D0
:104234000F7410780C121CE2E50C900BA3F085109F
:104244000C85110DE4E50DF50CE50C900BA4F0A81C
:1042540010A911E510900BA5F0908C15E0900BA619
:10426400F07508FD74386508F50AE50A900BA7F0A7
:10427400E508F4F50AE50A900BA8F07C9B7D0B7920
:10428400177A077B03120FF8E9908B5F1221747A77
:10429400027B009002ACE0F9120B667404121F0D4D
:1042A400E9EE6402FAEF6400FB024599EE540870EB
:1042B4000302437C9002B3E070030243579002EA86
:1042C400E0640360089002EAE064027023908B5F6C
:1042D4001221747A087B009002ACE0F9120B667428
:1042E40004121F0DE9EE6408FAEF6400FB0245991D
:1042F4009002EA7401F09002ECE0F9120E12E9F572
:10430400089002ECE064027029120C1A9002EC741A
:1043140000F09002EA7400F0900BBA1221747A084B
:104324007B009002ACE0F9120B667404121F0DE9D5
:10433400803B9002ECE02401F0908B7B1221747A94
:10434400087B009002ACE0F9120B667404121F0D96
:10435400E9801A7D047C0079007A207BAA120C4A39
:104364007D017C0079017A207BAA120C4AEE640854
:10437400FAEF6400FB024599EE5410606C9002AEB3
:10438400E0603E120E8AE964027005120C14800982
:10439400120E8AE97003120E90900BB6E0F50CA38E
:1043A400E0F50DE4F50EF50F780C12215D7A107B23
:1043B400009002ACE0F9120B667404121F0DE98040
:1043C4001D120E967D067C0079007A307BAA120CB1
:1043D4004A7D017C0079017A307BAA120C4AEE6492
:1043E40010FAEF6400FB024599EE54207003024476
:1043F400879002B2E0605A9002EBE060319002EBE9
:104404007400F0120C20900BBEE0F50CA3E0F50D47
:10441400E4F50EF50F780C12215D7A207B009002F2
:10442400ACE0F9120B667404121F0DE9804A900285
:10443400EB7401F0120DA0908B7F1221747A207B13
:10444400009002ACE0F9120B667404121F0DE980AF
:10445400277D047C0079007A407BAA120C4A7D01F6
:104464007C0079017A407BAA120C4A7D107C007989
:10447400037A407BAA120C4AEE6420FAEF6400FB34
:10448400024599EE54407003024556120DFAE9F5BF
:10449400089002B4E0700302452FE50870269002EC
:1044A400EFE0F9120E00120DE2908B8B1221747A58
:1044B400407B009002ACE0F9120B667404121F0DED
:1044C400E902454C9002F0E0600E9002EFE0F91230
:1044D4000E009002F07400F074026508702F120C44
:1044E40026900BC0E024C4F50CA3E034FFF50DE4E2
:1044F400F50EF50F780C12215D7A407B009002AC2A
:10450400E0F9120B667404121F0DE9803B120DF4DE
:10451400E9908B8B1221747A407B009002ACE0F915
:10452400120B667404121F0DE9801D120DE87D063E
:104534007C0079007A507BAA120C4A7D017C0079B8
:10454400017A507BAA120C4AEE6440FAEF6400FB35
:104554008043EE5400F8EF5410F9E8496033750ACB
:1045640058750B02780A122161750A04750B0078DC
:104574000A12216179027C3F7D017A2F7B0112109E
:10458400407404121F0DE9EE6400FAEF6410FB801E
:10459400047A007B007408121F0D7F0C0220207423
:1045A400F7121F4EEAFEEBFF8E828F83E064C07029
:1045B400148E828F83A3A3A3E0FA8E828F83A3A396
:1045C400E0F9120BF07F0102202074F7121F4E74E1
:1045D400FC121EF7E9FEEAFF851882851983740030
:1045E400F0EFA2E0400302468F9002EE7401F090D7
:1045F4008B831221747A807B009002ACE0F9120B59
:10460400667404121F0DE99002F1E0706F9002AD20
:10461400E06405603E7403121F42AC82AD837A05E8
:104624007B03120FFEE97403121F42E0700A740147
:10463400121F427401F080087401121F427400F0CA
:104644007401121F42AC82AD8379017A057B031297
:104654000FF8E99002ADE0640570307402121F4255
:104664007401F0121010E97402121F42AC82AD837F
:1046740079017A057B03120FF8E9800FEFA2E0506D
:104684000A851882851983E0D2E2F0EFA2E1500A8C
:10469400851882851983E0D2E0F0EFA2E2500A8502
:1046A4001882851983E0D2E1F0EFA2E0400690027F
:1046B400EE7400F0851882851983AC82AD837A018B
:1046C4007900121046E97404121F0D7F01022020A4
:1046D400C082C0839002B0E060069002B07400F023
:1046E4009002B5E060069002B57400F09002B3E069
:1046F4006009120E0C9002B37400F09002B1E060F5
:10470400069002B17400F0D083D08202013574F4B3
:10471400121F4E74E2121EF7E9FEEE1460161470B6
:10472400030248CB1470030248E824FE70030248D5
:10473400D50248EB851882851983AC82AD837A044F
:104744007B03120FFEE97508087509007808122129
:10475400617402121F42AC82AD837418121F42AA04
:1047640082AB83120A887402121F0D7405121F4251
:10477400E0C0E07407121F42D0E0F07404121F423C
:10478400E0C0E07406121F42D0E0F07403121F422E
:10479400E0C0E07405121F42D0E0F07404121F421E
:1047A4007400F07403121F427400F0851882851996
:1047B40083AC82AD837A087900120C92E9908C0D57
:1047C400C082C0837408121F42AC82AD83D083D0F0
:1047D40082740E121E0A7F00750905E509C3940050
:1047E400A2D265D03350030248B8E509F83395E006
:1047F400F97416121F42E58228F582E58339F583A0
:10480400E0F508E508C3940A506B7C0B7D8CEFF847
:104814007900E875F002A4C8AAF075F000A42AFA99
:1048240075F002E9A42AF97408121F42E58228FAF5
:10483400E58339FB121B927910EFFA7B00EA75F0DD
:1048440002A4CAA8F075F000A428F875F002EBA43D
:1048540028FB7408121F42E5822AF582E5833BF5A2
:1048640083A3AC82AD8385080A750B00AA0AAB0B3F
:10487400120B9680357910EFFA7B00EA75F002A4EA
:10488400CAA8F075F000A428F875F002EBA428FB80
:104894007408121F42E5822AFCE5833BFD85080A61
:1048A400750B00AA0AAB0B120B960F74FF2509F5C2
:1048B400090247DF7408121F42AC82AD837A0C7977
:1048C40002120C92E980207A017901120E78E980B3
:1048D400167A007901120E78E99002EA7400F01257
:1048E4000C328003120BF6EE9002ADF0741E121F10
:1048F4000D7F04022020C082C08374FD121EF78540
:104904001882851983AA82AB83120D94E9601285FB
:104914001882851983AC82AD837A037900120C5610
:10492400E97403121F0DD083D08202013574F4128E
:104934001F4E74D1121EF7EAFEEBFF7404121F42DD
:104944007400F0A37400F07402121F427400F0A308
:104954007400F08518828519837400F0A37400F044
:104964008518828519838582088583097808122130
:10497400617404121F42AC82AD837406121F42AAF2
:1049840082AB831209CE7402121F0DEEFCEFFD748C
:1049940006121F42AA82AB83120BD8E97404121FB9
:1049A40042E0F508A3E0F50974087808121EC5E58D
:1049B40008740F121F42E508F07404121F42E0F855
:1049C400A3E0F9E8C0E0740E121F42D0E0F07402D4
:1049D400121F42E0F508A3E0F50974087808121ED6
:1049E400C5E5087411121F42E508F07402121F4253
:1049F400E0F8A3E0F9E8C0E07410121F42D0E0F040
:104A0400851882851983E0F508A3E0F50974087810
:104A140008121EC5E5087413121F42E508F0851834
:104A240082851983E0F8A3E0F9E8C0E07412121F4C
:104A340042D0E0F07406121F42E0F508A3E0F50945
:104A440074087808121EC5E5087415121F42E5089B
:104A5400F07406121F42E0F8A3E0F9E8C0E0741411
:104A6400121F42D0E0F07408121F42E0F508A3E0E0
:104A7400F50974087808121EC5E5087417121F4258
:104A8400E508F07408121F42E0F8A3E0F9E8C0E07A
:104A94007416121F42D0E0F0740A121F42E0F508A7
:104AA400A3E0F50974087808121EC5E50874191204
:104AB4001F42E508F0740A121F42E0F8A3E0F9E887
:104AC400C0E07418121F42D0E0F0740C121F42E0D0
:104AD400F508A3E0F50974087808121EC5E5087402
:104AE4001B121F42E508F0740C121F42E0F8A3E009
:104AF400F9E8C0E0741A121F42D0E0F0741C121FCF
:104B04004274AAF0741D121F4274BBF0741E121F6B
:104B14004274AAF075080E750900780812216174B0
:104B240010121F42AC82AD837421121F42AA82ABC1
:104B340083120A887402121F0D8A0A8B0B850A08D5
:104B4400850B09742D121F42740DF0742E121F422E
:104B5400740AF07C137D00741C121F42AA82AB837A
:104B6400120C50742F121F0D7F0402202074F012B7
:104B74001F4E748C121EF7890B8A08908AC6C08255
:104B8400C0837404121F42AC82AD83D083D082747C
:104B940008121E0A908AF6C082C083746C121F42E7
:104BA400AC82AD83D083D0827408121E0A908AEE40
:104BB400C082C0837464121F42AC82AD83D083D0A0
:104BC400827408121E0A908AE6C082C083745C1242
:104BD4001F42AC82AD83D083D0827408121E0A9027
:104BE4008ADEC082C0837454121F42AC82AD83D06B
:104BF40083D0827408121E0A908A7EC082C0837495
:104C04004C121F42AC82AD83D083D0827408121E32
:104C14000A908ACEC082C0837444121F42AC82AD13
:104C240083D083D0827408121E0A908AB6C082C0D0
:104C340083743C121F42AC82AD83D083D08274084B
:104C4400121E0A908AAEC082C0837434121F42AC12
:104C540082AD83D083D0827408121E0A908AA6C0C3
:104C640082C083742C121F42AC82AD83D083D08265
:104C74007408121E0A908A9EC082C0837424121F74
:104C840042AC82AD83D083D0827408121E0A908A0B
:104C940096C082C083741C121F42AC82AD83D08341
:104CA400D0827408121E0A908A8EC082C083741443
:104CB400121F42AC82AD83D083D0827408121E0AC4
:104CC400908A86C082C083740C121F42AC82AD836A
:104CD400D083D0827408121E0A7404121F42AE825A
:104CE400AF83E508603914604214604B14605414B7
:104CF400605C14606414606C14607414607C1470E0
:104D040003024D89147003024D94147003024D9FE5
:104D1400147003024DAA147003024DB5024DC07401
:104D240004121F42AE82AF83024DC9746C121F423B
:104D3400AE82AF83024DC97464121F42AE82AF8348
:104D4400024DC9745C121F42AE82AF8380777454E3
:104D5400121F42AE82AF83806C744C121F42AE822B
:104D6400AF8380617444121F42AE82AF8380567455
:104D74003C121F42AE82AF83804B7434121F42AE8A
:104D840082AF838040742C121F42AE82AF83803581
:104D94007424121F42AE82AF83802A741C121F42F5
:104DA400AE82AF83801F7414121F42AE82AF838021
:104DB40014740C121F42AE82AF8380097404121F54
:104DC40042AE82AF83E50B7015120BAEE9EEFAEF3B
:104DD400FB120BCC7A017944120BC0024F79120BEF
:104DE400AEE9EEFAEFFB120BCC7A0079BE120BC0DF
:104DF400120BC6E9F509120BC6E9F50AE5086003CA
:104E0400024EA79002E77400F07C307D0079FF7AAF
:104E1400B67B02120AA09002E7E0F8790074B62883
:104E2400F582740239F58374AAF09002E7E0240154
:104E3400F09002E7E0F8790074B628F5827402393C
:104E4400F58374BBF09002E7E02401F09002E7E000
:104E5400F8790074B628F582740239F58374BBF0CE
:104E64009002E7E02401F0E5099002E7E0F8790018
:104E740074B628F582740239F583E509F09002E7E7
:104E8400E02401F0E50A9002E7E0F8790074B6281E
:104E9400F582740239F583E50AF09002E7E0240113
:104EA400F0803AE5099002E7E0F8790074B628F555
:104EB40082740239F583E509F09002E7E02401F0F9
:104EC400E50A9002E7E0F8790074B628F5827402E6
:104ED40039F583E50AF09002E7E02401F0740D65EA
:104EE400086003024F799002E7E0F8790074B6286D
:104EF400F582740239F583740DF09002E7E0240121
:104F0400F09002E7E0F8790074B628F5827402396B
:104F1400F583740AF09002E7E02401F07C117D002F
:104F24007AB67B02120C507A007B007C007D0085EF
:104F34001882851983EAF0A3EBF0A3ECF0A3EDF05B
:104F4400908B5F780C121DC7851882851983780CA5
:104F5400121BC35015908B37780C121DC78518820D
:104F6400851983780C121D4080D67C107D007AC789
:104F74007B02120C507474121F0D7F08022020C093
:104F840082C08374FA121EF7851882851983AA8257
:104F9400AB83120E9CE96012851882851983AC825A
:104FA400AD837A067900120F38E97406121F0DD00A
:104FB40083D082020135C082C08374F5121EF77457
:104FC40007121F42AA82AB83120E18E9605C85188F
:104FD4008285198374AAF07401121F4274BBF074A1
:104FE40002121F4274CCF07409121F42E0C0E07434
:104FF40003121F42D0E0F0740A121F42E0C0E074B2
:1050040004121F42D0E0F07405121F42740DF074B4
:1050140006121F42740AF07C077D008518828519E8
:1050240083AA82AB83120C50804A85188285198327
:1050340074AAF07401121F4274BBF07402121F426E
:1050440074CCF07403121F427476F07404121F427D
:105054007476F07405121F42740DF07406121F4228
:10506400740AF07C077D00851882851983AA82ABB7
:1050740083120C50740B121F0DD083D082020135A1
:10508400C082C08374FC121EF7851882851983AA16
:1050940082AB83120DA6E96012851882851983AC50
:1050A40082AD837A047900120C5CE97404121F0D3A
:1050B400D083D082020135C082C08374FA121EF7F5
:1050C400851882851983AA82AB83120DEEE96012DA
:1050D400851882851983AC82AD837A067900120D16
:1050E40076E97406121F0DD083D08202013574F75D
:1050F400121F4E74FF121EF7E9FE14600514605966
:105104008061851882851983AA82AB837901120F85
:105114004AE9851882851983E0701B9002B0E0602B
:10512400429002B07400F07A007B019002ACE0F986
:10513400120ADCE9802D9002B0E0700D7A007B0148
:105144009002ACE0F9120ADCE9851882851983E043
:105154009002B0F0120980800A7AC27B0B790212A5
:105164000F4AE97401121F0D7F01022020C082C082
:10517400839002B5E0702A9002B57401F09002E7C2
:105184007400F09002E67400F0908B871221747A18
:10519400007B409002ACE0F9120B667404121F0D00
:1051A400E9D083D08202013574F7121F4E74FF12C6
:1051B4001EF7E9FE14600514606080688518828516
:1051C4001983AA82AB837901120EF0E985188285CE
:1051D4001983E070199002B3E060139002B3740075
:1051E400F07A087B009002ACE0F9120ADCE9851839
:1051F40082851983E06401702B9002B3E0702590DE
:1052040002B37401F09002EC7400F07A087B009011
:1052140002ACE0F9120ADCE9800A7ABA7B0B790263
:10522400120EF0E97401121F0D7F0102202074F0A8
:10523400121F4E74F8121EF7890A7401650A60037E
:105244000252F1851882851983AA82AB83790112EF
:105254000C74E9851882851983E0FA7B00740112C5
:105264001F42E0F87900E4C8F9EA28F8EB39F9E8D4
:10527400FEE9FF7402121F42E0FA7B007403121F5E
:1052840042E0F87900E4C8F9EA28F8EB39F988082B
:1052940089097404121F42E0FA7B007405121F424C
:1052A400E0F87900E4C8F9EA28F8EB39F9880E89BE
:1052B4000F7406121F42E0FA7B007407121F42E0CB
:1052C400F87900E4C8F9EA28F8EB39F9880C890D73
:1052D400780C122161780E1221617902AC08AD09B3
:1052E400EEFAEFFB1210407404121F0DE97402650C
:1052F4000A7004121010E97408121F0D7F080220AE
:105304002074F4121F4E74FA121EF7EAFEEBFF8C9F
:10531400088D097412121F42E0F50AA3E0F50BEEA2
:10532400851882851983F0EEF8EFF9E4E9F8C0E016
:105334007401121F42D0E0F0E5087402121F42E526
:1053440008F0A808A909E4E509A809E50974031205
:105354001F42E509F0E50A7404121F42E50AF0A8A9
:105364000AA90BE4E50BA80BE50B7405121F42E533
:105374000BF0851882851983AC82AD837A06790097
:10538400120C6EE97406121F0D7F0402202074F0C3
:10539400121F4E8A0A8B0B89088C0C8D0985090E05
:1053A400750F00AA0EAB0F120B248A0E8B0FAE0ED4
:1053B400AF0FEE4F700302545285090E750F00AC07
:1053C4000EAD0FA90CEEFAEFFB120AA0850A0E85AA
:1053D4000B0F780E1221EB0000060000AAF95310FF
:1053E400AA075420AA235430AA155440AA31545071
:1053F400AA3F544B54EEFCEFFDAA09A908120F3240
:10540400E98044EEFCEFFDAA09A908120C56E980D4
:1054140036EEFCEFFDAA09A908120F38E98028EE40
:10542400FCEFFDAA09A908120EEAE9801AEEFCEFC6
:10543400FDAA09A908120C5CE9800CEEFCEFFDAA98
:1054440009A908120D76E9EEFAEFFB120B2A7F0880
:1054540002202074F3121F4E8A088B09ECFEEDFF24
:10546400C3EE9415EF94004005750C148003EEF51B
:105474000C900339742EF0A37400F0E50C90033BF8
:10548400F0850C0A750B00780A122161AC08AD098D
:105494007A3C7B03120A887402121F0D79007C394E
:1054A4007D037A007B00121316E97F050220207425
:1054B400EE121F4E74FA121EF78A0A8B0B8909EC3E
:1054C400FEEDFF750800850A0C850B0D780C122182
:1054D400A50004108C57FC541D553C555D557E5554
:1054E4009F55D255F3550A563856F656175737571F
:1054F40061578C578C5763567401650970158E82F9
:105504008F83E0C39403500B8E828F83E0900E4709
:10551400F080037508180257B57402650970138E7C
:10552400828F83E0F8A3E0F9900E48E8F0A3E9F055
:1055340080037508180257B57401650970158E82C9
:105544008F83E0C39402500B8E828F83E090039B81
:10555400F080037508180257B57401650970158E3B
:10556400828F83E0C39405500B8E828F83E0900377
:105574009CF080037508180257B57401650970150D
:105584008E828F83E0C39402500B8E828F83E090CF
:10559400039DF080037508180257B57410650970EF
:1055A40027750C10750D00780C122161EEFCEFFDCF
:1055B4007A9E7B03120A887402121F0D8A0C8B0DCB
:1055C400850C82850D8380037508180257B5740114
:1055D400650970158E828F83E0C39402500B8E820E
:1055E4008F83E09003AEF080037508180257B574FA
:1055F400016509700B8E828F83E0900E4BF080035F
:105604007508180257B5740465097022908B4378A5
:105614000C121DC78E828F83780C121BC3500F8E01
:10562400828F83121DE59003B0121DF1800375086B
:10563400180257B5E509702112129EE97013120D74
:105644001CE9F50C7950120FF2E9F50D120D0A80E0
:105654000B9004437401F080037508180257B57465
:1056640007650960030256F0750E06750F00780E83
:105674001221618E828F83A3AC82AD837402121FC8
:1056840042AA82AB83120A8E7402121F0D8A108BF7
:105694001185100E85110F7C007D008518828519F7
:1056A40083AA82AB838E828F83E0F9120CB0E9F572
:1056B4000CE50CC3940A502F12129EE97015A90C24
:1056C400120D22E9F50D7950120FF2E9F50E120DC3
:1056D4000A801C750D007444250CF5827404350D84
:1056E400F5837401F08008750802800375081802B8
:1056F40057B57401650970158E828F83E0C39402D7
:10570400500B8E828F83E09003AFF08003750818EE
:105714000257B57401650970158E828F83E0C394B6
:105724000A500B8E828F83E0900E4AF08003750836
:1057340018807E74016509701F8E828F83E0C39484
:105744000740158E828F83E0C39411500B8E828F95
:1057540083E0900E4CF080597508188054740165EC
:10576400097020900442E0F50C8E828F83E090044F
:1057740042F0E50C703B900442E064017033120D7A
:105784000A802E7508188029C3E50A9427E50B942E
:1057940000501B7402650970158E828F83E0FCA390
:1057A400E0FDAA0AAB0B12113CE9F5088003750869
:1057B40002A9087406121F0D7F0A02202074EC123D
:1057C4001F4E74DA121EF7890D8A128B138C0A8D00
:1057D4000B743A121F42E0F50C908B04C082C08314
:1057E400851882851983AC82AD83D083D0827406F8
:1057F400121E0A851882851983AC82AD83AA12AB66
:1058040013A90D120CB0E9FEEEC3940A4003025929
:1058140060EEF9120CECE9FF900E47E064027004AC
:10582400740180027400F5087808122165AD0CEF4C
:10583400FCEEF9AA0AAB0B120D5E7401121F0D7C6B
:10584400147D0079007412121F42AA82AB83120ADB
:10585400A08A0E8B0F850E08850F097412121F4241
:10586400AC82AD837A1075F006EEA42424F9120FED
:10587400ECE970437C1079FF7412121F42AA82ABC8
:1058840083120B00E970307422121F42AC82AD8384
:105894007A0475F006EEA42425F9120FECE9F50854
:1058A4007412121F42AC82AD83EFA2E0E433F9AA72
:1058B4000AAB0B1211C6E97406121F42AC82AD8307
:1058C4007A0C74702EF9120FECE9707E7406121FB4
:1058D40042AA82AB83120CE0750E00E50EC3940459
:1058E4005068E50EA80E7900E875F003A4C8AAF084
:1058F40075F000A42AFA75F003E9A42AF9740612D3
:105904001F42E58228F508E58339F5098508828573
:105914000983E0F8A3E0F9E849602B85088285094A
:1059240083A3A3E0F5107511007810122161850896
:1059340082850983E0FCA3E0FDAA0AAB0B12142ABA
:105944007402121F0DE9050E8091EFA2E1500D9033
:10595400039AE0F9AA0AAB0B121430E97404650C3B
:10596400700F900E47E064027007AA0AAB0B120D89
:105974005879007426121F0D7F0C02202074F21235
:105984001F4E890BEAFEEBFF8C088D09750A0AE5A8
:105994000B600C146009146044146064025A25EE10
:1059A400FAEFFB120CFEE9F50AE50AC3940A5071FA
:1059B400E5084509606B750C06750D00780C12211D
:1059C40061EEFCEFFDAA08AB09120A887402121FEB
:1059D4000D8A0C8B0D850C82850D838044EEFAEFC5
:1059E400FB120CF8E9F50AE50AC3940A5033E508FA
:1059F4004509602DAA08AB09A90A120CF2E9802115
:105A0400EEFAEFFB120D04E9F50AE50AC3940A5015
:105A140010E5084509600AAA08AB09A90A120CF2A4
:105A2400E9A90A7F0602202074F2121F4E8A0C8B09
:105A34000DE9FE7F1574FF650C700474FF650D702D
:105A44002A750800E508C3940A5014EEFC7A027B18
:105A540000A908120CCEE960027F00050880E5EE7B
:105A640060637A467B0D121628805AAA0CAB0D127D
:105A7400160A8A0A8B0B850A08850B09E50845096D
:105A840060417C007D00E5082405FAE5093400FB4B
:105A9400850882850983A3A3A3A3E0F9120CB0E9C6
:105AA400F50AE50AC3940A500EEEFC7A027B00A9BB
:105AB4000A120CCEE97F00EE600BAA08AB09120DA6
:105AC4004680027F14EFF97F0602202074EE121F35
:105AD4004E8A0E8B0F8C0A8D0B7412121F42E0F546
:105AE4000CA3E0F50D75081574FF650E700474FFC2
:105AF400650F701E7E00EEC3940A5062AC0CAD0DAF
:105B0400AA0AAB0BEEF9120CD4E960037508000E77
:105B140080E4AA0EAB0F12160A8A108B11AE10AFD6
:105B240011EE4F60367C007D00EE2405FAEF340060
