:020000040000FA
:0600000002011D022AF7B7
:03002B000223B7F6
:0300330002238F16
:03005300022B6A13
:03006B0002233637
:03007B0002235EFF
:10008300022963E5C754F84401F5C779012200004A
:100093000080FB120086B90003020107E47921788E
:1000A30008B800028004F709D8FCE479297802B87B
:1000B30000028004F709D8FCE490028178F1790802
:1000C3008002F0A3D8FCD9FA781A90014D7A01BACC
:1000D30000028007E493A3F608DAF9900A71AA8272
:1000E300AB8390014E785179098015E493A3AC82D8
:1000F300AD838A828B83F0A3AA82AB838C828D83A8
:10010300D8E9D9E775824B75839E740412012F7564
:100113008291758300740012012F75D00075813FA1
:10012300751881751902759F00020096C09FF59F8F
:10013300E473D09F22D083D082C09FE493C0E07445
:100143000193C0E0740293F59F22019E09A409AABA
:1001530009B009B609BC09C209C809CE09D409DA2C
:1001630009E009E609EC09F209F80968FFFF037BD6
:10017300034CCD6C03AB0336567600680402CB47C1
:10018300A202180400058BC1010C04000000000347
:100193007F060CC92C979797038903264666006C44
:1001A300022000024004000000000244040000009A
:1001B3000002480400000000024C0400000000029A
:1001C3005004000000000254040000000002580420
:1001D30000000000025C040000000002BC040000F8
:1001E300000001EC0400004000037F060CC92C97BB
:1001F30097970402030D355D040904872D353D00EF
:10020300A3010000000001078601FE074105F1205C
:10021300283038077E01300746019A074704F12842
:100223003038076C04F1283038021602000101B29D
:1002330002FFFF0190040923A135016A02060001B0
:10024300600800000000000000000060044000009F
:10025300000162020000006004004000000B095628
:10026300756C7475726545676705122F013F01024E
:100273000A00020106030288FF45676700D007E80A
:1002830003E8037011E803E803D00760EA2A007A61
:100293000C0000B00CBC0CC20CC80CCE0C12416399
:1002A30063656C2E2044617461000A416363656C6D
:1002B3002E20436F6E662E000A0A416363656C2E1F
:1002C30020506572696F640002DE8A010000088CA9
:1002D300022E8C010000C30B10188A010000430397
:1002E30002348C030000460302328C010000C40B6D
:1002F300022E8C010000D00B10288A0300004C034F
:1003030002328C010000D10B022E8C010000DE0BA7
:1003130010388A030000DF0B02328C010000E00B6F
:10032300124261726F6D2E2044617461000A426152
:10033300726F6D2E20436F6E662E00024261726FE4
:100343006D2E2043616C6962722E000A0A4261724B
:100353006F6D2E20506572696F640002DE8A0100A2
:1003630000298C022E8C010000460C10688A0100C3
:10037300004D0302348C030000510302328C010050
:1003830000470C022E8C010000530C10788A0300E6
:1003930000570302328C010000540C022E8C010022
:1003A30000710C10988A030000720C02328C010059
:1003B30000730C022E8C010000610C10888A01006E
:1003C30000580302348C030000680302328C0100DE
:1003D30000620C12436F6E6E2E20506172616D735A
:1003E3000008436F6E6E2E20506172616D73205250
:1003F30065710008446973636F6E6E6563742052A0
:1004030065710002DE8A0100000B8C022E8C010054
:1004130000F90C10488A010000700302348C0300B9
:1004230000760302328C010000FA0C022E8C0100CC
:1004330000070D10F8890200007C0302328C0100D2
:1004430000080D022E8C010000190D10E88902002E
:1004530000840302328C0100001A0D0202023132C1
:100463003334353637383930313200020202020272
:1004730002010D000000100102DE8A0100001D8C44
:10048300022E8C010000810D02548C0100008503B3
:10049300022E8C010000820D02528C010000848B1D
:1004A300022E8C010000830D024C8C010000840D90
:1004B300022E8C010000920D02488C010000068B75
:1004C300022E8C010000930D02468C010000958BD7
:1004D300022E8C010000910D023E8C0100004E8B18
:1004E300022E8C010000940D023C8C010000D98780
:1004F300022E8C010000950D023A8C010000B88A8F
:10050300022E8C010000960D02368C010000970D1F
:1005130012447331386232302E2044617461000A10
:10052300447331386232302E20436F6E662E000AD8
:10053300D007447331386232302E20506572696FB0
:10054300640002DE8A010000208C022E8C01000070
:10055300360E10B8890100008F0302348C030000AB
:10056300910302328C010000370E022E8C01000031
:10057300450E10A889030000970302328C01000086
:10058300460E022E8C010000550E109889030000C0
:10059300560E02328C010000580E01E803053F108D
:1005A3000A124779726F2044617461000A477972B5
:1005B3006F20436F6E662E000A0A4779726F2050D0
:1005C3006572696F640002DE8A010000058C022EE9
:1005D3008C010000C70E1078890100005204023418
:1005E3008C030000580402328C010000C80E022E56
:1005F3008C010000D20E1068890300005E040232F1
:100603008C010000D30E022E8C010000DE0E105868
:1006130089030000DF0E02328C010000E00E0103AB
:100623000080700061801248756D69642E204461FA
:100633007461000A48756D69642E20436F6E662EDF
:10064300000AD00748756D69642E20506572696F82
:10065300640002DE8A010000118C022E8C0100006E
:100663004C0F103889010000C20402348C030000CF
:10067300C60402328C0100004D0F022E8C010000D3
:10068300590F102889030000CC0402328C010000AA
:100693005A0F022E8C010000670F10188903000007
:1006A300680F02328C0100006A0F1254656D702EC0
:1006B3002044617461000A54656D702E20436F6E8F
:1006C300662E000A1E54656D702E20506572696F88
:1006D300640002DE8A010000238C022E8C010000DC
:1006E300D00F10F888010000CD0402348C03000001
:1006F300D10402328C010000D10F022E8C010000C4
:10070300DC0F10E888030000D70402328C010000DC
:10071300DD0F022E8C010000E90F10D889030000C1
:10072300EA0F02328C010000EB0F124D61676E2E4F
:100733002044617461000A4D61676E2E20436F6E21
:10074300662E000A0A4D61676E2E20506572696F2E
:10075300640002DE8A010000268C022E8C01000058
:10076300501010B888010000D80402348C03000034
:10077300DE0402328C0100005110022E8C010000B5
:100783005C1010A888030000E40402328C0100000E
:100793005D10022E8C010000691010988803000080
:1007A3006A1002328C0100006B10124D70753630E6
:1007B30035302E2044617461000A4D707536303532
:1007C300302E20436F6E662E000AC8004D707536BA
:1007D3003035302E20506572696F640002DE8A0165
:1007E30000001A8C022E8C010000D01010788801B2
:1007F3000000E70402348C030000F50402328C018C
:100803000000D110022E8C010000DF101068880355
:100813000000FB0402328C010000E010022E8C0168
:100823000000EF10105888030000F01002328C0112
:100833000000F210FF000130750302010600000002
:1008430000000000000000000000000000000000A5
:10085300000000000000000000FFFF0600800CE81D
:1008630003104B6579205072657373205374617460
:10087300650002DE8A010000178C022E8C01000045
:10088300871102428C000000AB0502348C03000088
:10089300AC0502328C0100008811FF0000B4000097
:1008A30028002800283075A000A000A000A00000A8
:1008B300080008E001F00010001000100010001004
:1008C30000100050005000500010001000D007002E
:1008D30000000000000F0001000500307507001044
:1008E30000010081FF00000000FFE6120413EC1278
:1008F300FF02020208025000A0000000E80302DE2B
:100903008A010000148C022E8C0100001712023899
:100913008C010000E405022E8C0100001812024431
:100923008C010000FA05022E8C0100001912024A04
:100933008C010000FC05022E8C0100001A120250EB
:100943008C080000FD05022E8C0100001B12025AC8
:100953008C0100001C12FF0100FF2002DE8A01004F
:10096300000E8C022E8C0100008012025C8C0000B1
:1009730000000002348C0300004A06BC18BC18BCFB
:1009830018BC18BC18BC18BC18BC18BC18BC18BCC4
:1009930018BC18BC18501B681B4A1B120138FEF9FF
:1009A300021201384AFA02120138A0FA021201387F
:1009B30045FB02120138F9FB0212013818FC02123E
:1009C300013837FC0212013865FC0212013898FC29
:1009D3000212013811FD0212013897FD021201388B
:1009E30037FE02120138FCFE021201382EFF0212FA
:1009F300013863FF0212013891FF021201385BEFE5
:100A0300021201387AEF021201389DEF0212013807
:100A1300C4EF02120138EBEF0212013812F0021296
:100A2300013839F0021201385CF0021201387FF00C
:100A330002120138A2F002120138C5F00212013885
:100A4300F7F0021201381AF10212013844F10212CE
:100A53000138E0F10212013805F2021201382AF2DC
:100A6300021201384FF20212013874F202120138F5
:100A730099F202120138BEF202120138E5F20212B3
:100A8300013823F3021201384FF3021201387BF3CA
:100A930002120138A0F302120138D9F3021201380D
:100AA30000F40212013839F40212013860F4021220
:100AB300013899F402120138C0F402120138E5F446
:100AC300021201380AF50212013848F50212013800
:100AD3006BF50212013895F50212013874F6021211
:100AE30001381CF8021201386CF80212013899F926
:100AF30002120138B8F902120138DBF90212013887
:100B03000C9D03120138219D03120138799D0312B4
:100B13000138E09D03120138289E031201389E9E7E
:100B230003120138CD9E03120138DB9E03120138F4
:100B33003F9F031201387D9F03120138989F0312D0
:100B4300013830A003120138D9A0031201385CA187
:100B53000312013895A10312013820A203120138B0
:100B630077A203120138D6A203120138E8A20312B6
:100B730001380EA30312013817A30312013876A418
:100B830003120138188E04120138F78E041201384B
:100B930032F80312013877F803120138BDF8031253
:100BA300013850FA03120138E49604120138FF9613
:100BB300041201380F9704120138669704120138A2
:100BC3009A9C041201384AB3031201386AB3031220
:100BD30001386EB403120138BAB403120138DAB41F
:100BE300031201382DB5031201389AB503120138E7
:100BF300E0B50312013844B603120138F6B8031204
:100C030001380080041201383080041201386080FA
:100C1300041201382381041201387D810412013842
:100C2300E48604120138FC86041201385987041241
:100C330001389D8704120138CF87041201380688D2
:100C430004120138298804120138303200120138A5
:100C5300C238001201388939001201388F39001265
:100C630001380F3C00120138AF4300120138DA4358
:100C730000120138E0440012013812450012013815
:100C830012470012013849470012013889490012FE
:100C930001389B4D00120138D24D001201389C4E91
:100CA30000120138D34E001201380A4F00120138E6
:100CB300414F00120138C04F00120138E34F0012B8
:100CC3000138655000120138EB5000120138BE5153
:100CD300001201384B520012013810530012013830
:100CE3006B9804120138E19204120138D7D503122C
:100CF30001382AD60312013847D6031201381CD70C
:100D03000312013899D70312013876D80312013838
:100D1300EBD9031201389EBE03120138C3BE03127E
:100D2300013821BF031201381BDA031201386EDACE
:100D33000312013897DA0312013800DB031201387A
:100D43003EDC03120138F8DD031201383D9D041225
:100D530001386C53001201387A56001201383A58A0
:100D630000120138E5580012013889590012013880
:100D7300225A00120138515A001201382B5F001217
:100D83000138D65F00120138466100120138AE61A6
:100D93000012013862620012013824650012013822
:100DA300636500120138D7650012013836660012F8
:100DB3000138956600120138046700120138F7679D
:100DC300001201383D6800120138826800120138B0
:100DD300A56800120138206A00120138336A001234
:100DE30001383C6B001201387B6B00120138A76B92
:100DF30000120138FA6B001201381B6C0012013823
:100E03005F6C00120138B16E00120138F26E0012ED
:100E130001389D6F001201380870001201384571C6
:100E230000120138D79904120138B991041201381C
:100E33006D92041201381B9504120138FB950412BC
:100E43000138B29704120138D09704120138599827
:100E530004120138C09F041201388D900412013826
:100E63009D9004120138AE9004120138B39104121C
:100E73000138D5EF031201387BF00312013897F2E2
:100E83000312013894FA03120138F6FA03120138F7
:100E93006EFB0312013816FC0312013835FC0312F2
:100EA300013845FC0312013884FC03120138758BA9
:100EB30004120138AF8B04120138228C041201385A
:100EC3005C8C041201386E8C04120138A58C041258
:100ED3000138448504120138938504120138C5850D
:100EE30004120138568604120138D28604120138DE
:100EF300008A04120138298A04120138528A041222
:100F03000138128B04120138638B04120138738881
:100F130004120138A6880412013822890412013808
:100F2300428904120138A78904120138EF89041297
:100F33000138F28904120138DB9F04120138ED9F56
:100F430004120138F09F04120138538F0412013840
:100F5300A28F04120138CE8F04120138EE8F0412CF
:100F630001387B9004120138C98C041201381A8DA0
:100F730004120138618D04120138EB8D041201381B
:100F8300F87F0012013885F5031201387CF703124C
:100F93000138E8F7031201382FF80312013819FB5F
:100FA300011201386CFB0112013895FB0112013863
:100FB30053FC01120138BCFC01120138FAFD011285
:100FC3000138B4FF011201382199041201388D9AB6
:100FD3000412013835DE0312013888DE03120138AA
:100FE300B1DE031201381ADF0312013858E003128D
:100FF300013812E20312013896FC03120138FFFC98
:1010030003120138BDFD031201383CFE03120138FF
:10101300B6E903120138E8E903120138F0EA0312D2
:10102300013815EC03120138008003120138E68001
:101033000312013833810312013876810312013818
:10104300EB81031201384C8203120138C18203126F
:1010530001389D8303120138A884031201382985BE
:1010630003120138D0860312013866870312013850
:10107300D987031201385588031201386C8803128B
:101083000138A38903120138FD8903120138ECE703
:101093000112013884EC0112013858EF01120138B2
:1010A30081EF0112013898EF01120138C1EF0112EB
:1010B300013873F00112013859F20112013894F327
:1010C30001120138CAF80112013803F9011201387B
:1010D30047F90112013859FA01120138BF9E04126F
:1010E3000138439B04120138E58104120138FC8165
:1010F300041201382D820412013868820412013867
:10110300928204120138BC8204120138D382041281
:101113000138EA82041201380183041201382A8358
:10112300041201383D830412013853830412013839
:101133006683041201388D8304120138698A03120D
:1011430001386D8B03120138A58B03120138C88B4C
:1011530003120138D38B03120138F68B03120138C3
:10116300058D03120138DA8D03120138558E0312EF
:101173000138DD8E03120138188F031201384F8FA7
:1011830003120138DD8F03120138B69003120138C0
:10119300169103120138219103120138A091031211
:1011A3000138A39103120138A69103120138359235
:1011B300031201383892031201386892031201387E
:1011C300929203120138809303120138329403126E
:1011D3000138B7C303120138DFC3031201380DC44A
:1011E3000312013844C403120138A2C403120138A4
:1011F300EDC40312013838C50312013878C5031250
:101203000138BEC503120138ECC503120138A9C663
:1012130003120138B3C603120138C0C603120138E2
:10122300F3C603120138BFC703120138CBC7031239
:101233000138E3C703120138EDC7031201380D96D5
:10124300041201381B960412013833960412013834
:101253004B9604120138519F02120138FD9F02126E
:10126300013878A00212013899A102120138D5A1E0
:10127300021201387EA20212013865A3021201385C
:10128300C9A40212013820A502120138A1A5021235
:10129300013891A602120138DEA60212013864A7B2
:1012A3000212013896A702120138AAA902120138C4
:1012B300ECA9021201380AAA021201388DAA0212FD
:1012C300013861AB0212013829AC0212013827AC94
:1012D30003120138FAAC03120138A3AD031201382B
:1012E300F6AD03120138A6AE0312013832AF031272
:1012F30001381EB0031201384DB00312013860B13A
:1013030003120138A8B1031201387DB20312013868
:10131300B9B203120138D5B203120138C79D0412C2
:1013230001381DE60312013833E60312013859E68A
:101333000312013875E7031201387FE703120138FE
:10134300B4E803120138ACE90312013877B9031288
:101353000138A7BA03120138DABA0312013824BBE1
:1013630003120138EBBC031201380080021201386A
:101373006A8002120138C98102120138D98102122E
:1013830001380682021201385D8202120138068397
:10139300021201380D8402120138D7840212013877
:1013A3003786021201387A86021201381F87021229
:1013B30001386C8702120138928702120138A08922
:1013C30002120138A58902120138AA8B02120138D0
:1013D300F78B021201386A8C021201389D8C0212BB
:1013E30001383F8D02120138E88D02120138208E38
:1013F30002120138238E021201386B8E0212013859
:10140300AB8E02120138028F02120138B2F20312BC
:101413000138CAF20312013812F30312013828F318
:10142300031201386FF30312013883F403120138F6
:1014330010F5031201385BF503120138618C0112B8
:1014430001386D8C01120138A88C01120138ED8C22
:1014530001120138AD8D01120138338E01120138AA
:10146300988E01120138C48E01120138FD8E0112CB
:1014730001383B91011201381F9301120138059580
:101483000112013848960112013896980112013869
:10149300A89901120138F39A01120138039C011231
:1014A3000138209C011201385B9C011201387D9C9C
:1014B30001120138E09C01120138A1A10112013887
:1014C30036A20112013887A201120138AEA201121D
:1014D300013800A3011201381EA30112013878A3B9
:1014E3000112013861A401120138D7A50112013894
:1014F3005BA60112013874C8031201387EC80312B7
:101503000138C1C803120138DCC8031201386CC9A1
:101513000312013894C903120138D1C903120138E7
:1015230008CA0312013831CA03120138A6CA0312CA
:101533000138BBCA03120138D0CA0312013801CBE8
:101543000312013815CB031201383ACB03120138C9
:1015530074CB03120138A0CB03120138D8CB03128A
:10156300013857CC03120138A0CC03120138CACC7E
:1015730003120138F5CC0312013802940412013826
:101583005AD70212013888D702120138D6D802126C
:101593000138B6D902120138D5D90212013852DA0C
:1015A3000212013895DA02120138EBDB021201381C
:1015B300ACDC0212013833DF02120138D4DF02122D
:1015C3000138CAE002120138C7E10212013821E3EF
:1015D30002120138ACE30212013895FE03120138FE
:1015E300FEFE0312013852FF0312013879FF031282
:1015F3000138AAFF031201381DCD031201388ACD29
:1016030003120138D1CD03120138E9CE0312013898
:10161300E5CF03120138C8D003120138A394031293
:101623000138E59403120138B795031201389096F7
:10163300031201388A97031201386C980312013898
:10164300D598031201388B9903120138FF990312BD
:1016530001386B9A03120138949A031201380E9BD6
:1016630003120138A79B031201380C9C03120138A3
:10167300219C03120138679C03120138809C0312DA
:101683000138E59C03120138E89C03120138DCECB5
:101693000312013804ED0312013842ED031201383D
:1016A30000EE0312013867EE0312013883EE0312D2
:1016B3000138ABEE03120138DBEE03120138EAEE18
:1016C3000312013867EF031201388DEF031201385B
:1016D300EF8F02120138CD9102120138FF930212EB
:1016E30001383B9402120138689402120138529572
:1016F300021201389D9502120138E8950212013851
:10170300FA95021201383A96021201386F960212C4
:101713000138BD9602120138EC96021201380F9778
:10172300021201385C9702120138E1970212013864
:10173300FB99021201383A9C021201387B9C021277
:1017430001381D9E021201385E9E02120138D19E9D
:1017530002120138279F0212013845CA02120138CA
:1017630043CB02120138DCD102120138FDD302123D
:101773000138C8D50212013830D702120138C2A687
:101783000112013871A7011201389EA70112013815
:10179300E4A70112013824A901120138BAAA0112DF
:1017A300013834AB011201384FAB01120138CAAB17
:1017B3000112013824AD0112013884AE011201383F
:1017C3008AAF01120138EBB00112013804B10112E2
:1017D300013862B10112013850B20112013883B2EB
:1017E30001120138F3B2011201386DB3011201384D
:1017F300B7B30112013881B40112013856B5011291
:10180300013835B601120138C0B6011201382EB7BE
:1018130001120138A2B701120138CDB70112013804
:101823008CB801120138F1B9011201380EBA011254
:1018330001382DBA011201381EBB0112013843BB16
:10184300011201386DBB01120138E8BB01120138E6
:1018530042BC01120138ABBD0112013859BE01125D
:1018630001389ABE0112013871BC02120138BFBCA3
:1018730002120138CBBC02120138A9BD0212013891
:10188300DABD021201380BBE021201388BBE0212FE
:101893000138C3BE0212013815BF0212013852BF0C
:1018A300021201386FC10212013895C302120138C6
:1018B30080C5021201386AC70212013825320012AC
:1018C3000138D9D30112013809D401120138E2DAFF
:1018D3000112013867DC0112013864E20112013898
:1018E3004CE30112013889E301120138ACE3011220
:1018F3000138DDE301120138E6E301120138F0E3B8
:1019030001120138DEE401120138D4E50112013875
:10191300CABE01120138C9C201120138CFC2011275
:1019230001380ACA0112013823CF011201384FE2EC
:1019330003120138E5E203120138FBE20312013816
:1019430071E303120138E5E30312013823E40312C0
:10195300013897E40312013810E50312013819E541
:101963000312013825E5031201383AE50312013861
:1019730078E5031201388EE503120138EDE5031211
:1019830001388AD10312013897D103120138B1D13A
:1019930003120138F0D1031201382ED20312013899
:1019A30093D203120138A8D203120138B3D203121F
:1019B3000138C0D203120138D7D203120138E5D25D
:1019C30003120138F0D203120138FCD2031201389A
:1019D3000BD30312013816D30312013839D3031280
:1019E3000138E0D303120138F0D3031201380AD4CB
:1019F3000312013827D40312013843D403120138E8
:101A030068D40312013873D40312013888D4031243
:101A130001389CD403120138FDD40312013803D5D5
:101A23000312013809D5031201380FD50312013807
:101A330027D5031201385AD50312013847AE0212D3
:101A43000138CBAE021201387AAF02120138D9B095
:101A530002120138FAB202120138E6B30212013857
:101A63001BB4021201383DB402120138ECB4021265
:101A73000138E4B6021201380DB7021201389FB7DC
:101A830002120138D1B702120138DEB7021201384F
:101A930035B8021201385BB802120138C8BA021213
:101AA3000138CBBB0212013823BC02120138797111
:101AB300001201388372001201386A730012013870
:101AC300747300120138967300120138A273001266
:101AD30001383B75001201386A75001201388676A9
:101AE30000120138DF760012013845780012013800
:101AF300247900120138807900120138ED7900123F
:101B03000138287A00120138677A00120138207DE3
:101B1300001201383A7D00120138C67D00120138E7
:101B2300D47D001201382D7E001201383B7E001255
:101B33000138AE7E00120138127F001201385C7F3B
:101B4300001201382DE4021201384FE40212013869
:101B530075E6021201388AE902120138A2EA02127A
:101B6300013855EB0212013837EC021201389F831A
:101B730004120138C4830412013836840412013874
:101B8300ADA403120138B6A403120138BFA4031293
:101B9300013896A50312013847A7031201387DA720
:101BA30003120138B7A703120138EDA70312013856
:101BB30027A8031201385BA80312013887A8031270
:101BC3000138D0A8031201380AA90312013853A916
:101BD30003120138ABA903120138E0A9031201383B
:101BE3003BAA0312013875AA03120138C6AA0312CD
:101BF3000138FCAA0312013836AB0312013864AB77
:101C03000312013887AB03120138EF9B041201382A
:101C13001B9C04120138769C04120138809C041228
:101C23000138909C04120138249F04120138769FD6
:101C330004120138C4FF02120138A29F04E0667047
:101C43001008A3E066700A08A3E066700408A3E026
:101C53006622C3E7960809E7960809E7960809E7A5
:101C63009622C3E09608A3E09608A3E09608A3E0B3
:101C73009622C008C3E096F50808A3E09642080838
:101C8300A3E096420808A3E09645087001D3D00864
:101C930022080808EAC0E0EBC0E086F0E7A4FA18DF
:101CA3000986F0E7A42AFA180986F0E7A42AFA18A5
:101CB3000986F0E7A42AFA1986F0E7A4FBE5F02ADF
:101CC300FA190886F0E7A42BFBE5F03AFA1908861F
:101CD300F0E7A42BFBE5F03AFA18180986F0E7A41D
:101CE300C5F02BFBE43AFA1908E7C5F0C6A426F6BB
:101CF300E5F03BFBE43AFA1886F0E7A4F6E5F008D2
:101D030026F6E43B08F6E43A08F6D0E0FBD0E0FA26
:101D130022E4CFC0E0E4CEC0E0E4CDC0E0E4CCC038
:101D2300E075F020C3E633F608E633F608E633F64B
:101D330008E633F6181818EC33FCED33FDEE33FEEA
:101D4300EF33FFC3EC9709ED9709EE9709EF971966
:101D53001919400FFFEC97FC09ED97FD09EE97FE6B
:101D6300191906D5F0BEECF709EDF709EEF709EFFF
:101D7300F7191919D0E0FCD0E0FDD0E0FED0E0FF68
:101D8300226016080808C6C313C618C613C618C6A9
:101D930013C618C613C6D5E0EA227009080808223C
:101DA3006016181818C6C333C608C633C608C63328
:101DB300C608C633C6D5E0EA22E627F60809E637A1
:101DC300F60809E637F60809E637F622E026F608AC
:101DD300A3E036F608A3E036F608A3E036F622E0E1
:101DE30026F008A3E036F008A3E036F008A3E036B7
:101DF300F022C3E697F60809E697F60809E697F690
:101E03000809E697F622C3E096F008A3E096F008E7
:101E1300A3E096F008A3E096F022E657F60809E659
:101E230057F60809E657F60809E657F622E056F68C
:101E330008A3E056F608A3E056F608A3E056F622F8
:101E4300E056F008A3E056F008A3E056F008A3E03C
:101E530056F022E0F608A3E0F608A3E0F608A3E0B4
:101E6300F622E6F008A3E6F008A3E6F008A3E6F0FE
:101E730022E0FAA3E0FBA3E0FCA3E0FD22EAF0A347
:101E8300EBF0A3ECF0A3EDF022CAC0E0E6F0A30868
:101E9300DAFAD0E0FA22CAC0E0E0A3C582CCC58258
:101EA300C583CDC583F0A3C582CCC582C583CDC50B
:101EB30083DAE6D0E0CA22C3E498F8E499F9121E63
:101EC300FB8026C3E49AFAE49BFBE920E7E9121EB0
:101ED300FBE498F8E499F922C3E498F8E499F91239
:101EE3001EFBE498F8E499F9C3E49AFAE49BFB2215
:101EF300EB20E7CFE920E7E0B90010BB0008E88A50
:101F0300F084F8AAF022E4FBC8FA22EB70227B10DB
:101F1300C833C8C933C9335007C39AC3DBF2800639
:101F23009A50012ADBEAC833F4C8C933F4C9FA2248
:101F330075F008E4C833C8C933C933C99AC99B507B
:101F430004C92AC93BD5F0ECFBC833F4C8E4C9FA89
:101F530022600D08C6A2E713C618C613C6D5E0F360
:101F630022600C08C6C313C618C613C6D5E0F422F4
:101F7300700422600D18C6C333C608C633C6D5E045
:101F8300F41822251810AF08F51840021519800817
:101F9300F51840021519D2AF22C0D0251810AF088A
:101FA300F518500205198008F51850020519D2AF2B
:101FB300D0D0222518F58210AF08F5184002151964
:101FC3008008F51840021519D2AF85198322251808
:101FD300F582E43519F58322E4732518C582C0E040
:101FE300E51934FFC583C0E0E518C3958224F810D2
:101FF300AF0885831985821880088583198582181F
:10200300D2AFCEF0A3E520F0A37808E608F0A3DE74
:10201300FAEFF0A3E58124FAF8E608F0A3E608F066
:10202300A3E608F0A30808E608F0A3E608F0A31562
:10203300811581D0E0FED0E0F8158115811581E886
:10204300C0E0EEC0E0222518C582C0E0E51934FFE8
:10205300C583C0E0E518C3958224F910AF088583D2
:10206300198582188008858319858218D2AFCEF02E
:10207300A3E520F0A37808E608F0A3DEFAEFF0A3C7
:10208300E58124FBF8E608F0A3E608F0A30808E6D8
:1020930008F0A3E608F0A315811581D0E0FED0E097
:1020A300F815811581E8C0E0EEC0E022851983852B
:1020B3001882E0A3FEE0A3F5207808E0A3F608DF8A
:1020C300FAE0A3FFE0A3C0E0E0A3C0E0E0A3C0E028
:1020D300E0A3C0E0E0A3C0E010AF088582188583C9
:1020E300198008858218858319D2AFD083D08202E4
:1020F3000135851983851882E0A3FEE0A3F52078D6
:1021030008E0A3F608DFFAE0A3FFE0A3C0E0E0A342
:10211300C0E0E0A3C0E0E0A3C0E010AF08858218F0
:102123008583198008858218858319D2AFD083D01F
:102133008222C0D02518C582C0E0E51934FFC583CB
:10214300C0E0E518C3958224F310AF088583198591
:1021530082188008858319858218D2AFC8F0A3E955
:10216300F0A3EAF0A3EBF0A37908E709F0A3D8FA08
:10217300ECF0A3EDF0A3EEF0A3EFF0A3D0E0F0A317
:10218300D0E0F0A3D0E0F0A3E520F0A3E5F0F0A3C6
:1021930022851983851882E0C0E0A3E0F9A3E0FA61
:1021A300A3E0FBA37808E0F608A3DFFAE0FCA3E0D2
:1021B300FDA3E0FEA3E0FFA3E0C0E0A3E0C0E0A333
:1021C300E0F5D0A3E0F520A3E0A3F5F010AF088578
:1021D30083198582188008858319858218D2AFD028
:1021E30082D083D0E0F8D0E0327404800674028099
:1021F300027401C0E0F404121FB6D0E0121E8C2258
:102203007404800474028000CCC0E0EDC0E0E518E3
:10221300C39CCCAD1950011D10AF068C188D1980CD
:10222300068C188D19D2AF121E99D0E0FDD0E0FCB8
:1022330022D083D082E9C0E0E493A3C386F0C5F043
:1022430095F0F908E493A386F0C5F095F0700BE4DC
:1022530093A3C3994005E9048002A3E475F002A4A3
:102263002582F582E5F03583F583D0E0F9E493A385
:10227300C0E0E493C0E022D083D082ECC0E0EDC0A4
:10228300E0E493A3FCE493A3FDED4C600D1222C69E
:10229300EC24FFFCED34FFFD80EFE493A3FCE49317
:1022A300A3FDED4C600D122305EC24FFFCED34FF80
:1022B300FD80EFD0E0FDD0E0FCE493A3C0E0E49325
:1022C300C0E022C0E0C3E4939608740193961840DB
:1022D3000FE4936670080874019366187000701910
:1022E300A3A3C3E49396087401939618A3A3400D84
:1022F300D0E0D0E0D0E00222B6A3A3A3A3A3A3D04F
:10230300E022C0E0C0F088F0E4936670080874012E
:102313009366187000A8F0A3A3700BD0F0D0E0D0A0
:10232300E0D0E00222B6A3A3D0F0D0E022C2AF02F5
:10233300000022C0E074F2122135A2AFE433FED2D2
:10234300AFE589A2E05003120F26758900C2C5EEDE
:10235300F8EEA2E092AF7F01022194C0E074F21282
:102363002135A2AFE433FED2AFE58AA2E64006E50B
:102373008AA2E75003120F26758A00758A00C2EB02
:10238300EEF8EEA2E092AF7F01022194C0E0C0D04C
:10239300E8C0E0E9C0E0A2AFE433F8D2AF758B0048
:1023A300C2E8E8F9E8A2E092AFD0E0F9D0E0F8D0D3
:1023B300D0D0E032C0E0C0D0E8C0E0E9C0E0A2AFD6
:1023C300E433F8D2AFC2C7751A00E8F9E8A2E09285
:1023D300AFD0E0F9D0E0F8D0D0D0E03274F51220DD
:1023E30049EAFEEBFFEE2434F8EF3400F98808895C
:1023F30009EE2435F582EF3400F583E0F8EE243757
:10240300F582EF3400F583E0F50AEC850AF0A4FCCD
:10241300AAF0850AF0EDA42AFDE82CF8E43DF97A48
:10242300257B00121EFBEA850882850983F0F87478
:102433000758F97401B900028004C333D9FCFAE8E0
:10244300131313541FF8EE28F8EF3400F9E8245D52
:10245300F582E93400F583E05A6008EE2434F5820E
:10246300EF802CEE2434F582EF3400F583E0C0E0F6
:10247300EE2436F582EF3400F583E0F5F0D0E08406
:10248300A8F0EE28F8EF3400F9E82438F582E934AF
:1024930000F583E0F97F040220F574F5122049EA80
:1024A300FEEBFFEE2434F582EF3400F583E0C0E069
:1024B300EE2435F582EF3400F583D0E0F08E828F81
:1024C30083A3A3A3A3A3A3A3C082C0838E828F836A
:1024D300A3A3A3A3A3E0F8A3E0F9D083D082E0C32E
:1024E30098F508A3E099F509EE247FF582EF34000F
:1024F300F583E064017069EE2480F582EF3400F522
:1025030083E0F8A3E0F98E828F83A3A3A3A3A3A3FD
:10251300A3E0FCA3E0FD8E828F83A3A3A3A3A3E088
:10252300FAA3E0FBC3EA9CEB9D5010C3EC98ED9932
:10253300402EC3EA98EB995027800EC3EA98EB9993
:102543004007C3EC98ED9940177C0D7D08EEFAEF38
:10255300FB12181AEE247FF582EF3400F583E4F0C2
:10256300EE2434F8EF3400F9E8FCE9FDEE2435F508
:1025730082EF3400F583E0F8EE2437F582EF340080
:10258300F583E0F50AE508850AF0A4F508AAF085C5
:102593000AF0E509A42AF509E82508F8E43509F95C
:1025A3007A257B00121EFBEA8C828D83F0F8740778
:1025B30058F97401B900028004C333D9FCFAE81353
:1025C3001313541FF8EE28F8EF3400F9E8245DF5EF
:1025D30082E93400F583E05A6008EE2434F582EF93
:1025E300802CEE2434F582EF3400F583E0C0E0EE76
:1025F3002436F582EF3400F583E0F5F0D0E084A8CB
:10260300F0EE28F8EF3400F9E82438F582E93400D5
:10261300F583E0F9123217022498C082C08385182B
:1026230082851983E0F8A3E0F9C3EA9CEB9D50107F
:10263300C3EC98ED99401BC3EA98EB995014800EB4
:10264300C3EA98EB994007C3EC98ED9940047901EC
:1026530080027900D083D08222EAC39CFAEB9DFBEF
:102663002274EF1220499006D3E064086005E06409
:1026730007702A9061C8E06024900701E0F4601DB0
:10268300E0F875F003A4C8AAF02AF9740328FE74CD
:102693000739FF8E828F83A3A3A3E07003022794DD
:1026A300906060E0C0E0EE2468F582EF3400F583CB
:1026B300D0E0F0750C76750D08750800750900E516
:1026C300D914F50AE5D95403F50E60177403650EA2
:1026D300605CE50A6010EE2467F582EF3400F58351
:1026E300E07003022779900871E06401602AEE2408
:1026F30082F582EF3400F583E06004780480027889
:1027030000850A08E508C398FA95E0FB1216E28AE9
:10271300088B09EA45097005121A1E8074EE24829B
:10272300F582EF3400F583E070048A0C8B0DE50A23
:102733006012850C82850D83F50BE5D9F0A3150B8B
:10274300E50B70F6EE2482F582EF3400F583E0604A
:102753004474FC250AF50A780C1221F0AC0AA90E80
:10276300EEFAEFFB1218B67402121F9CE97026AA48
:1027730008AB09120FFE793D8E828F83A3A3A3A317
:10278300E0FA7B001215B6EEFAEFFB1218321218BC
:10279300C8790080747403650E6056850A1075113C
:1027A3000078101221F0AC0CAD0DAA08AB09121879
:1027B300927402121F9CEE2468F582EF3400F583B5
:1027C300E064807004747F8001E0F50C780C1221C2
:1027D300F4E50EF50C780C1221F4A90AAC08AD0946
:1027E300900701E0FA7B0012157A7402121F9C8095
:1027F300139006D3E06408600BAC0CAD0DEEFAEF5A
:10280300FB121922121A2A79017F0A0220F574F5A4
:1028130012204974FC121F86EAFEEBFF8908A2AF5F
:10282300E433F509C2AF806AEE2463F8EF3400F9AC
:102833007A007B00A2AFE433F50AC2AF88828983B2
:10284300E0FCA3E0FDEC4D603A88828983E0FAA3C3
:10285300E0FB8A828B83E0FCA3E0FD88828983EC22
:10286300F0A3EDF08A828B83E4F0A3F0888289835E
:10287300E0FCA3E0FDEC4D700A88828983A3A3E406
:10288300F0A3F0E50AA2E092AF120FFE900814E065
:1028930004F0EE2463F582EF3400F583E0F8A3E05F
:1028A300F9E849603DEE2463F582EF3400F583E0F7
:1028B3002402FAA3E03400FBEA2402F50AEB340015
:1028C300F50B780A1221F08A828B83E0FCA3E0F9EE
:1028D300EEFAEFFB1218567402121F9CE970030202
:1028E300282B900814E06063900815E0F890081412
:1028F300E0C398500C740265087050900816E060AD
:102903004A8E828F83A3A3A3A3E0851882851983AC
:10291300F0A3E4F0900814E0F87402121FD1E8F079
:10292300A3E4F0900814E0F8900813E028F0740290
:10293300121FD1AC82AD83851882851983AA82AB1D
:10294300837901121586900814E4F0E509A2E09258
:10295300AF7404121F9C0224988521878522C62206
:10296300C0E0C0D0E8C0E0E9C0E0EAC0E0EBC0E00E
:10297300ECC0E0EDC0E0EEC0E0C008C009C00AC092
:102983000BC082C083C0F0A2AFE433FEC2AF759B1D
:1029930000906182E0A2E05012E591A2E0500C7534
:1029A30091FE740165217003122664E0A2E5505183
:1029B300E591A2E5504B7591DF9006D3E064076083
:1029C30005E064087023740165217035790190076F
:1029D30001E0FA75F003A4CAA8F028FB74032AFAED
:1029E30074073BFB1228118018E0640D70139006E6
:1029F300F5E004F064287002E4F07A00E0F9121ABA
:102A030030906182E0A2E64003022AAAE591A2E6A1
:102A13004003022AAA7591BF9006D3E064057008AB
:102A2300121958121964800312195E7521001219C4
:102A3300BEE99006D4F079001219B21217907A0108
:102A43007B009006D2E0F9120B5A907803E06442BF
:102A53007055900875E014F0704DC2AF122A6200F1
:102A6300782AD0E0F618D0E0F6E59F540770057594
:102A730009FF800375097FC4C0E07829E6F50808DB
:102A8300E65509F509740B7808121F64D0E0250890
:102A9300F8906270E0A2E740F8E8C333906272F006
:102AA300906270E0D2E0F0906181E0A2E35009E52A
:102AB300E9A2E3500375E9F7A3E0A2E75009E59122
:102AC300A2E7500375917FEEA2E092AFD0F0D083DE
:102AD300D082D00BD00AD009D008D0E0FED0E0FDE0
:102AE300D0E0FCD0E0FBD0E0FAD0E0F9D0E0F8D0C1
:102AF300D0D0E032C0E0C0D0C082C083906183E018
:102B0300A2E05009E5BFA2E0500375BFFEE0A2E1D9
:102B13005009E5BFA2E1500375BFFDE0A2E25009F1
:102B2300E5BFA2E2500375BFFBE0A2E35009E5BF96
:102B3300A2E3500375BFF7E0A2E45009E5BFA2E4A6
:102B4300500375BFEFE0A2E55009E5BFA2E55003CE
:102B530075BFDFE0A2E65009E5BFA2E6500375BFEB
:102B6300BFD083D0828088C0E0C0D0E8C0E0E9C095
:102B7300E0EAC0E0EBC0E0ECC0E0EDC0E0C0F0E5AF
:102B8300A7A2E6500FE5A1A2E6500953A7BF75A17E
:102B9300BF122BCFE5A7A2E5500CE5A1A2E5500695
:102BA30053A7DF75A1DFE5A7A2E15009E5A1A2E1E3
:102BB300500375A1FDE5A7A2E2500CE5A1A2E250E6
:102BC3000653A7FB75A1FBD0F0022AE074F812208C
:102BD300497521019006D3E0640670151218E68A40
:102BE300828B83A3A3A3A3A3A3E0FAA3E0FB1219FD
:102BF30046A2AFE433FED2AF9006D9E06401701869
:102C03007A207B009006D2E0F9120BEA7A207B004F
:102C13009006D2E0F9120B60906182E0D2E6F09068
:102C23000872E0602185C62280169006D8E0640110
:102C33007008E5C654F84405F5C653BEFC12295C7A
:102C43007401652160E4EEA2E092AF7F010220F5FA
:102C5300008E238F248582288583278518828519F2
:102C630083E0CEA3E0CF852882852783EBC9EAC81A
:102C7300EDCBECCA75F010C3E833C8E933C9EA33C6
:102C8300CAEB33CBC3EA9EF526EB9FF525B350047D
:102C9300AB25AA26EC33CCED33CDD5F0DAAE23AF9A
:102CA300242274E912204974F8121F86851882853C
:102CB3001983ECF0A3EDF08A088B099006D3E02486
:102CC300F7C394055006750801022E3C1218E68AD4
:102CD3000A8B0BAE0AAF0BEE4F7003022E39AC0812
:102CE300AD097402121FD1AA82AB831219768E82A8
:102CF3008F83A3A3750CFF750DFF750EFF750F0072
:102D0300780C121E307402121FD17510FF7511FF5B
:102D13007512FF7513007810121E30780C7910129B
:102D23001C55502A780C7910121DF5750801750988
:102D3300C8750A00750B007808790C121C5550529F
:102D4300850C08850D09850E0A850F0B80507514B7
:102D5300017515C8751600751700851008851109CA
:102D630085120A85130B7808790C121DF5781479EE
:102D730008121C55401C750800750900750A00757A
:102D83000B0178087910121DF57808790C121DBC17
:102D9300800C750801750900750A00750B0074092C
:102DA3007808121D9D750C19F50DF50EF50F7808B1
:102DB300790C121D148E828F83A3A3A3A3A3A3E074
:102DC300F8A3E0F97AD07B03121EFB880C890DE48B
:102DD300F50EF50F7808790C121DBC7406121FD17D
:102DE300E0F8A3E0F97AD07B03121EFBE8FA8A0C21
:102DF300E4F50D7808790C121C5550077808790C06
:102E0300121DF59006D3E06408600AE064066005CD
:102E1300E06405702D750C0D780C7908121C554073
:102E230021750CF4750DFF750EFF750FFF7808798A
:102E33000C121DBC800C750800750900750A00751D
:102E43000B00851882851983E0F8A3E0F583888257
:102E53007808121E657408121F9C7F100220F574F7
:102E6300F7122049121988900870E06401701090DD
:102E73006245E4F0A3F053F4F343FE0C5390F312D2
:102E83001934E5C654804449F5C6E59E547F644928
:102E930070F8906185740FF090086EE0F47002A3EF
:102EA300E0604E90086FE0600814601B14602E8091
:102EB3004075080175090090086EE07808121F73C9
:102EC300E508F45280802A75080175090090086EA0
:102ED300E07808121F73E508F45290801475080116
:102EE30075090090086EE07808121F73E508F45224
:102EF300A079007F020220F574F7122049E9FEEA67
:102F0300FF74016E700C7A807B009006D2E0F91298
:102F13000B5A903228E493F46008E493F91217846F
:102F2300800953C680E59E547F70FA12193A9008BF
:102F330070E06401700312179C90086EE0F4700255
:102F4300A3E0604B90086FE0600814601A14602CD3
:102F5300803D75080175090090086EE07808121F1E
:102F630073E5084280802875080175090090086E92
:102F7300E07808121F73E508429080137508017505
:102F8300090090086EE07808121F73E50842A0124A
:102F930019881218E68A088B09A808A909E8496064
:102FA30015E5E170FCE82414F582E93400F583E0CB
:102FB300F46003E0F5E174016F700A7A019006D2C0
:102FC300E0F9120BB4022EF674ED1220498A088B35
:102FD300098C0A8D0B7413121FD1780C121E5678AC
:102FE30008790C121C557510017511C875120075FE
:102FF300130050127808790C121DF5781079081215
:103003001C5550168010780C7908121DF57810792C
:103013000C121C5540047901800279007F0C0220B8
:10302300F574ED1220498A088B098C0A8D0B7413F1
:10303300121FD1780C121E56780C7908121C5540B9
:10304300117808790C121DF5AA08AB09AC0AAD0B6F
:103053008022751000751100751200751301781028
:10306300790C121DF578107908121DBCAA10AB114A
:10307300AC12AD1380A68A828B837508FF7509FF96
:10308300750AFF750B007808121E437F040220F5B2
:1030930074F51220498C828D837808121E568A8219
:1030A3008B837808121E09EA2404F8EB3400F98CA8
:1030B300828D83A3A3A3A3E0FCA3E0FD888289837D
:1030C300C3E09CF0A3E09DF088828983C3E0942051
:1030D300A3E0944E40268A828B837508FF7509FF0F
:1030E300750AFF750BFF7808121DE28A828B83A392
:1030F300A3A3A3E02420F0A3E0344EF002307974BC
:10310300F5122049E9FE900828E0FAA3E0FBEEC39C
:1031130033F8E433F9742828F582748839F583E0A9
:103123002AF508A3E03BF50978081221F07A407BE1
:10313300427C0F7D00122C547402121F9C8A088B50
:10314300098C0A8D0B74107808121D84AA08AB0928
:103153007F040220F574F11220498A0C8B0D8C0E2A
:103163008D0F740F121FD1E0FAA3E0FB7411121F2D
:10317300D1E0F508A3E0F50978081221F0EA24016B
:10318300F508EB3400F509E4F50AF50B780C79083A
:10319300121C94750871750902780C7908121C9435
:1031A300AA0CAB0DAC0EAD0F122C547402121F9C63
:1031B3008B09EA450960047A0180027A00EC2AFC53
:1031C300ED3400FD7413121FD1E0F8A3E0F9E8FE1B
:1031D300E9FFECF8EDF97A717B02121EFB8808898E
:1031E300098E828F837808121E65ECF8EDF97A71E7
:1031F3007B02121EFB8A088B0974057808121F7361
:103203008E828F83A3A3A3A3E508F0A3E509F07F30
:10321300080220F5C082C083E9906000F0D083D01B
:103223008222020135FFFFFFFFFFFFFFFF74ED1254
:103233001FDD746C121F86120A6A7C007D007E00FB
:103243007F007410121FD1ECF0A3EDF0A3EEF0A3F6
:10325300EFF0908BC57808121E567410121FD178A8
:1032630008121C655014908BB17808121E56741006
:10327300121FD17808121DE280D87900120A707BE0
:10328300017A017910120AC47906120ACA120AD005
:10329300E9F5127B007A007900120AC4120A88E960
:1032A300F50F120A94E9F50E120AA0E9F50D120AB8
:1032B300ACE9F50C7A7F7900120A3A7900120A58C0
:1032C3007A687900120A3A120A647C007D007E0053
:1032D3007F007410121FD1ECF0A3EDF0A3EEF0A366
:1032E300EFF0908BC97808121E567410121FD17814
:1032F30008121C655014908BB17808121E56741076
:10330300121FD17808121DE280D8750801780812BF
:1033130021F475080078081221F479007C897D076F
:103323007A007B80120AE27402121F9CE970030286
:1033330038B67CC07D007A947B0A120AEEE97003EA
:103343000238B27903120A767912120A407904120A
:103353000A047901120A0A7903120A107903120A7C
:10336300167903120AF47900120AFA7900120A8E06
:10337300A90E120A9AA90D120AA6A90C120AB2756D
:103383000A00750B00750800E508C3940440248502
:1033930008107511007402121FD1E0F8790024039C
:1033A300F8E93400F9C3E51098E51199A2D265D084
:1033B30033503A7454250AF582740B350BF583E0C8
:1033C300C0E0850810751100851882851983E58290
:1033D3002510F582E5833511F583D0E0F00508E586
:1033E3000A2401F50AE50B3400F50B809B750900EF
:1033F30078091221F475090178091221F474031272
:103403001FD1E0F50978091221F47403121FD1E0EA
:10341300F97405121FD1E0FC7D007406121FD1AAB6
:1034230082AB83120ADC7403121F9CE9750800E562
:1034330008C3940440248508107511007402121FF8
:10344300D1E0F879002403F8E93400F9C3E51098D2
:10345300E51199A2D265D033503A7454250AF58206
:10346300740B350BF583E0C0E085081075110085FA
:103473001882851983E5822510F582E5833511F5D8
:1034830083D0E0F00508E50A2401F50AE50B3400D2
:10349300F50B809B75090078091221F475090178F1
:1034A300091221F47403121FD1E0F50978091221DE
:1034B300F47403121FD1E0F97405121FD1E0FC7DEF
:1034C300007406121FD1AA82AB83120ADC740312A2
:1034D3001F9CE9120A5E120A7C8A108B11AE10AF90
:1034E30011E510A9107414121FD1AA82AB83120A1A
:1034F300827902120A22799C120A2E7950120A2822
:103503007900120A34120A5E7901120A5279011201
:103513000AB8120ABE750800E508C394044024855E
:1035230008107511007402121FD1E0F8790024030A
:10353300F8E93400F9C3E51098E51199A2D265D0F2
:1035430033503A7454250AF582740B350BF583E036
:10355300C0E0850810751100851882851983E582FE
:103563002510F582E5833511F583D0E0F00508E5F4
:103573000A2401F50AE50B3400F50B809B7509005D
:1035830078091221F475090178091221F4740312E0
:103593001FD1E0F50978091221F47403121FD1E059
:1035A300F97405121FD1E0FC7D007406121FD1AA25
:1035B30082AB83120ADC7403121F9CE9750800E5D1
:1035C30008C3940440248508107511007402121F67
:1035D300D1E0F879002403F8E93400F9C3E5109841
:1035E300E51199A2D265D033503A7454250AF58275
:1035F300740B350BF583E0C0E08508107511008569
:103603001882851983E5822510F582E5833511F546
:1036130083D0E0F00508E50A2401F50AE50B340040
:10362300F50B809B75090078091221F4750901785F
:10363300091221F47403121FD1E0F509780912214C
:10364300F47403121FD1E0F97405121FD1E0FC7D5D
:10365300007406121FD1AA82AB83120ADC74031210
:103663001F9CE9750800E508C394044024850810ED
:103673007511007402121FD1E0F879002403F8E9F0
:103683003400F9C3E51098E51199A2D265D03350FF
:103693003A7454250AF582740B350BF583E0C0E0C8
:1036A300850810751100851882851983E582251018
:1036B300F582E5833511F583D0E0F00508E50A24AA
:1036C30001F50AE50B3400F50B809B7509007809B9
:1036D3001221F475090178091221F47403121FD120
:1036E300E0F50978091221F47403121FD1E0F9748B
:1036F30005121FD1E0FC7D007406121FD1AA82AB14
:1037030083120ADC7403121F9CE9120A7C8A108B51
:1037130011A810A911E8FEE9FFC3E89403E9940096
:1037230040E8EEF97414121FD1AA82AB83120A8205
:10373300120A46E9F509750800E508C39404402414
:103743008508107511007402121FD1E0F879002466
:1037530003F8E93400F9C3E51098E51199A2D2659D
:10376300D033503A7454250AF582740B350BF58324
:10377300E0C0E0850810751100851882851983E57E
:10378300822510F582E5833511F583D0E0F0050835
:10379300E50A2401F50AE50B3400F50B809B74015F
:1037A300121FD1E0F51078101221F47401121FD109
:1037B300E0F97403121FD1E0FC7D007404121FD1E1
:1037C300AA82AB83120AD67401121F9C120A7C8A46
:1037D300108B11A810A911E8FEE9FFC3E89403E9CF
:1037E300940040E8EEF97414121FD1AA82AB83123D
:1037F3000A82120A46E9F509750800E508C394042C
:1038030040248508107511007402121FD1E0F87965
:10381300002403F8E93400F9C3E51098E51199A2EF
:10382300D265D033503A7454250AF582740B350BA4
:10383300F583E0C0E08508107511008518828519AD
:1038430083E5822510F582E5833511F583D0E0F019
:103853000508E50A2401F50AE50B3400F50B809B06
:1038630075100078101221F475100178101221F4EC
:103873007403121FD1E0F51078101221F4740312AF
:103883001FD1E0F97405121FD1E0FC7D007406120C
:103893001FD1AA82AB83120ADC7403121F9CE9793D
:1038A30000120AB8120A5E120A46E9790080067904
:1038B30002800279017494121F9C7F0B0220AF7463
:1038C300F7121FDD8C828D83E0F87900E4C8F98C50
:1038D300828D83A3E0FE7F00E82EF8E93FF98A8218
:1038E3008B83E8F0A3E9F08C828D83A3A3A3A3E0E9
:1038F300F87900E4C8F98C828D83A3A3A3A3A3E082
:10390300FE7F00E82EF8E93FF98A828B83A3A3E8C0
:10391300F0A3E9F08C828D83A3A3A3A3A3A3A3A302
:10392300E0F87900E4C8F98C828D83A3A3A3A3A351
:10393300A3A3A3A3E0FE7F00E82EF8E93FF98A8260
:103943008B83A3A3A3A3E8F0A3E9F0EC240CF582F3
:10395300ED3400F583E0F87900E4C8F9EC240DF5C3
:1039630082ED3400F583E0FE7F00E82EF8E93FF9AD
:103973008A828B83A3A3A3A3A3A3E8F0A3E9F0798B
:10398300007F010220AF43FD0202013574F2121FD2
:10399300DD74EC121F868908E5089002ACF07C0404
:1039A3007D007A1F7B001211D2E9F5097405121FFD
:1039B300D17401F0740E121FD17401F0A37400F0DE
:1039C3007404121FD17401F0740C121FD1742FF000
:1039D300A37401F0740A121FD1743FF0A37401F0B1
:1039E3007408121FD17404F0A37400F07406121F3C
:1039F300D17458F0A37402F07405121FD1AC82ADD8
:103A03008379017A057B0312108EE9740E121FD19C
:103A1300AC82AD8379027A067B0312108EE97C8334
:103A23007D0B79157A087B0312108EE97C987D0B48
:103A330079077A077B0312108EE97404121FD1AC45
:103A430082AD8379017A107B0312108EE9740C1214
:103A53001FD1AC82AD8379027A117B0312108EE9F8
:103A6300740A121FD1AC82AD8379027A127B0312DE
:103A7300108EE97408121FD1AC82AD8379027A13D8
:103A83007B0312108EE97406121FD1AC82AD8379C9
:103A9300027A147B0312108EE97C9F7D0B7A0479E2
:103AA3000012134CE97E407F06EEFCEFFD7A067BA5
:103AB300001211D2E9EEFCEFFD7A077B001211D25E
:103AC300E9EEFCEFFD7A087B001211D2E9EEFCEF80
:103AD300FD7A097B001211D2E97A007B007C007D1C
:103AE300007410121FD1EAF0A3EBF0A3ECF0A3EDE6
:103AF300F07403121FD17401F07402121FD1740108
:103B0300F07401121FD17400F08518828519837433
:103B130001F07410121FD1AC82AD8379047A087B53
:103B230004120D52E97403121FD1AC82AD837901E3
:103B33007A007B04120D52E97402121FD1AC82ADDC
:103B43008379017A027B04120D52E97401121FD1A9
:103B5300AC82AD8379017A037B04120D52E9851897
:103B630082851983AC82AD8379017A067B04120DB9
:103B730052E9908BDD121E74121352E9908BDD1201
:103B83001E74121460E9120D16E9908BDD121E7477
:103B9300120FD4E9908BDD121E74120D28E9908B5D
:103BA300DD121E74120F9EE9908BDD121E74120C2F
:103BB300ECE97A007903120F38E9120EAE7AB97B79
:103BC3000B120FDAE9F50A7ABB7B0B120D2EE9F51E
:103BD3000B7ABD7B0B120FA4E9F50C7ABF7B0B129A
:103BE3000CF2E9F50D7AC17B0B1210A0120C567979
:103BF3000112155CE97A017B009002ACE0F9120B2B
:103C03005AE97414121F9C7F060220AF74F0121F2E
:103C1300DD74F0121F868909EAFEEBFFEE5400F80B
:103C2300EF5480F9E84960329002ACE0F9120B429C
:103C33008A0C8B0DA80CA90D880A890BE849600F23
:103C4300AA0AAB0B120C68AA0AAB0B120B30E9EEF3
:103C53006400FAEF6480FB0243A5EE5480601B907E
:103C630002E1E0600AC2AF75C9AB75C95B80FEEEC5
:103C73006480FAEF6400FB0243A5EEA2E0501C7AD5
:103C8300B57B0B12109AE9F5087A287B03120D70A5
:103C9300EE6401FAEF6400FB0243A5EE5400F8EF73
:103CA3005404F9E84960167C107D007AC77B021240
:103CB3000CDAEE6400FAEF6404FB0243A5EE54024F
:103CC3007003023D509002AEE0605A120F02E964A5
:103CD30002702F120CA4900BA7E024EDF50CA3E0C7
:103CE30034FEF50DE4F50EF50F780C1221EC7A0293
:103CF3007B009002ACE0F9120BDE7404121F9CE906
:103D03008040120F02E9703A120EF0908BD9122202
:103D1300037A027B009002ACE0F9120BDE7404120A
:103D23001F9CE9801D120EF67D047C0079007A0049
:103D33007BAA120CD47D017C0079017A007BAA1244
:103D43000CD4EE6402FAEF6400FB0243A5EE5404C4
:103D530060569002B0E0602B120C80900BA5E0F54A
:103D63000CA3E0F50DE4F50EF50F780C1221EC7AB7
:103D7300047B009002ACE0F9120BDE7404121F9C6A
:103D8300E9801A7D037C0079007A107BAA120CD497
:103D93007D017C0079017A107BAA120CD4EE6404B5
:103DA300FAEF6400FB0243A5EE5400F8EF5401F967
:103DB300E8497003023EE09002B1E07003023ED591
:103DC3009002DDE0640160089002DDE0640270238C
:103DD300908BD51222037A007B019002ACE0F9129A
:103DE3000BDE7404121F9CE9EE6400FAEF6401FB1E
:103DF3000243A59002DD7403F0120A46E9900327FB
:103E0300F0120A7C9002E5EAF0A3EBF0900327E0BE
:103E1300A2E4400E9002E5E064007004A3E06404B1
:103E23007026120A5E908BD11222037A007B0190D6
:103E330002ACE0F9120BDE7404121F9CE9EE64007D
:103E4300FAEF6401FB0243A5900327E0A2E150537C
:103E53009002E5C082C083900BB3E0F8A3E0F9D0F1
:103E630083D082C3E098A3E099500D120A7C90029C
:103E7300E5EAF0A3EBF080D8900BB3E0F8A3E0F908
:103E8300E8F97AE77B02120A82900BB3E0F8A3E029
:103E9300F99002E5C3E098F0A3E099F07AE77B029A
:103EA300120C86900BAFE0F50CA3E0F50DE4F50ED4
:103EB300F50F780C1221EC7A007B019002ACE0F94B
:103EC300120BDE7404121F9CE99002DD7400F012E1
:103ED3000A5EEE6400FAEF6401FB0243A5EE5400B0
:103EE300F8EF5408F9E849602C120C4AE9790112F9
:103EF3000AB8908BCD1222037A007B019002ACE0CA
:103F0300F9120BDE7404121F9CE9EE6400FAEF64ED
:103F130008FB0243A5EE5400F8EF5402F9E8497098
:103F2300030240369002B2E06401600302402B902A
:103F330002DDE0640160089002DDE0640370239019
:103F43008BD51222037A007B029002ACE0F9120BAC
:103F5300DE7404121F9CE9EE6400FAEF6402FB02B4
:103F630043A59002DD7402F09002E0E0700F90022E
:103F7300DBE0FAA3E0FB7900120C8C801D9002DBDE
:103F8300E0FAA3E0FBEA2401F8EB3400F99002DB4A
:103F9300E8F0A3E9F07901120C8C9002E0E07020C4
:103FA300908BD51222037A007B029002ACE0F912C7
:103FB3000BDE7404121F9CE99002E07401F0806828
:103FC3009002DBC3E0940EA3E09400A2D265D03349
:103FD30040389002DD7400F09002DB7400F0A374AB
:103FE30000F0900BB1E0F50CA3E0F50DE4F50EF550
:103FF3000F780C1221EC7A007B029002ACE0F912EC
:104003000BDE7404121F9CE98018908B9D1222030F
:104013007A007B029002ACE0F9120BDE7404121FEB
:104023009CE99002E07400F0EE6400FAEF6402FB96
:104033000243A5EE5400F8EF5420F9E849606C9070
:1040430002DDE0640160089002DDE0640370239008
:104053008B991222037A007B209002ACE0F9120BB9
:10406300DE7404121F9CE9EE6400FAEF6420FB0285
:1040730043A59002DD7402F09088D8C082C0838586
:104083001882851983AC82AD83D083D082741012D9
:104093001E99851882851983AA82AB83120E2AE999
:1040A300EE6400FAEF6420FB0243A5EE54087003AC
:1040B3000241889002B4E070030241639002DDE0A4
:1040C300640360089002DDE064027023908BD512D4
:1040D30022037A087B009002ACE0F9120BDE740431
:1040E300121F9CE9EE6408FAEF6400FB0243A590FB
:1040F30002DD7401F09002DFE0F9120EB4E9F50875
:104103009002DFE064027037120C989002DF7400B3
:10411300F09002DD7400F0900BA9E0F50CA3E0F53C
:104123000DE4F50EF50F780C1221EC7A087B009064
:1041330002ACE0F9120BDE7404121F9CE9803B9081
:1041430002DFE02401F0908B891222037A087B00BE
:104153009002ACE0F9120BDE7404121F9CE9801A82
:104163007D047C0079007A207BAA120CD47D017C2B
:104173000079017A207BAA120CD4EE6408FAEF646A
:1041830000FB0243A5EE5410606C9002AFE0603E6A
:10419300120F4AE964027005120C928009120F4A49
:1041A300E97003120F50900BA3E0F50CA3E0F50D9B
:1041B300E4F50EF50F780C1221EC7A107B009002D7
:1041C300ACE0F9120BDE7404121F9CE9801D120F80
:1041D300567D067C0079007A307BAA120CD47D01CF
:1041E3007C0079017A307BAA120CD4EE6410FAEFCA
:1041F3006400FB0243A5EE54207003024293900235
:10420300B3E0605A9002DEE060319002DE7400F0A9
:10421300120C9E900BABE0F50CA3E0F50DE4F50E4C
:10422300F50F780C1221EC7A207B009002ACE0F9B8
:10423300120BDE7404121F9CE9804A9002DE7401A3
:10424300F0120E42908B8D1222037A207B00900293
:10425300ACE0F9120BDE7404121F9CE980277D0485
:104263007C0079007A407BAA120CD47D017C007912
:10427300017A407BAA120CD47D107C0079037A402A
:104283007BAA120CD4EE6420FAEF6400FB0243A570
:10429300EE54407003024362120E9CE9F50890024B
:1042A300B5E0700302433BE50870269002E2E0F9B3
:1042B300120EA2120E84908BE11222037A407B002D
:1042C3009002ACE0F9120BDE7404121F9CE9024366
:1042D300589002E3E0600E9002E2E0F9120EA29021
:1042E30002E37400F074026508702F120CAA900B9D
:1042F300ADE024C4F50CA3E034FFF50DE4F50EF5B1
:104303000F780C1221EC7A407B009002ACE0F9129A
:104313000BDE7404121F9CE9803B120E96E9908B0E
:10432300E11222037A407B009002ACE0F9120BDE2B
:104333007404121F9CE9801D120E8A7D067C00798D
:10434300007A507BAA120CD47D017C0079017A504B
:104353007BAA120CD4EE6440FAEF6400FB8043EEB8
:104363005400F8EF5410F9E8496033750A58750B97
:1043730002780A1221F0750A04750B00780A1221DB
:10438300F079027C3F7D017A2F7B011210D67404F1
:10439300121F9CE9EE6400FAEF6410FB80047A00BC
:1043A3007B007410121F9C7F080220AF74F7121F4A
:1043B300DDEAFEEBFF8E828F83E064C070148E8291
:1043C3008F83A3A3A3E0FA8E828F83A3A3E0F912C2
:1043D3000C6E7F010220AF74F7121FDD74FC121FF5
:1043E30086E9FEEAFF8518828519837400F0EFA23F
:1043F300E0400302449B9002E17401F0908BBD12F4
:1044030022037A807B009002ACE0F9120BDE740485
:10441300121F9CE99002E4E0706F9002ADE0640526
:10442300603E7403121FD1AC82AD837A057B031205
:104433001094E97403121FD1E0700A7401121FD1A2
:104443007401F080087401121FD17400F07401121A
:104453001FD1AC82AD8379017A057B0312108EE9FB
:104463009002ADE0640570307402121FD17401F044
:104473001210A6E97402121FD1AC82AD8379017ABE
:10448300057B0312108EE9800FEFA2E0500A851816
:1044930082851983E0D2E2F0EFA2E1500A85188207
:1044A300851983E0D2E0F0EFA2E2500A85188285F5
:1044B3001983E0D2E1F0EFA2E040069002E174003C
:1044C300F0851882851983AC82AD837A0179001255
:1044D30010DCE97404121F9C7F010220AFC082C06C
:1044E300839002B1E060069002B17400F09002B4D0
:1044F300E06009120EAE9002B47400F09002B2E0D4
:1045030060069002B27400F0D083D0820201357449
:10451300F4121FDD74E2121F86E9FEEE1460161416
:1045230070030246CB14700302470024FE7003029B
:1045330046D5024703851882851983AC82AD837AF9
:10454300047B03121094E9750808750900780812B2
:1045530021F07402121FD1AC82AD837418121FD1E3
:10456300AA82AB83120B067402121F9C7405121FDE
:10457300D1E0C0E07407121FD1D0E0F07404121F21
:10458300D1E0C0E07406121FD1D0E0F07403121F13
:10459300D1E0C0E07405121FD1D0E0F07404121F03
:1045A300D17400F07403121FD17400F08518828552
:1045B3001983AC82AD837A087900120D1CE9908CC3
:1045C30058C082C0837408121FD1AC82AD83D083DC
:1045D300D082740E121E997F00750905E509C394F4
:1045E30000A2D265D03350030246B8E509F83395EB
:1045F300E0F97416121FD1E58228F582E58339F5B7
:1046030083E0F508E508C3940A506B7C4E7D8CEF7C
:10461300F87900E875F002A4C8AAF075F000A42A9E
:10462300FA75F002E9A42AF97408121FD1E5822869
:10463300FAE58339FB121C347910EFFA7B00EA7533
:10464300F002A4CAA8F075F000A428F875F002EBF4
:10465300A428FB7408121FD1E5822AF582E5833B67
:10466300F583A3AC82AD8385080A750B00AA0AAB58
:104673000B120C0E80357910EFFA7B00EA75F0020D
:10468300A4CAA8F075F000A428F875F002EBA428DA
:10469300FB7408121FD1E5822AFCE5833BFD8508E4
:1046A3000A750B00AA0AAB0B120C0E0F74FF250937
:1046B300F5090245DF7408121FD1AC82AD837A0C71
:1046C3007902120D1CE980387A017901120F38E959
:1046D300802E908BB51222037A007B109002ACE0FF
:1046E300F9120BDE7404121F9CE97A007901120F90
:1046F30038E99002DD7400F0120CB68003120C74DA
:10470300EE9002ADF0741E121F9C7F040220AFC016
:1047130082C08374FD121F86851882851983AA823D
:10472300AB83120E36E96012851882851983AC8239
:10473300AD837A037900120CE0E97403121F9CD055
:1047430083D08202013574F4121FDD74D1121F86E7
:10475300EAFEEBFF7404121FD17400F0A37400F09F
:104763007402121FD17400F0A37400F085188285BF
:1047730019837400F0A37400F0851882851983856A
:10478300820885830978081221F07404121FD1ACC2
:1047930082AD837406121FD1AA82AB83120A4C74B2
:1047A30002121F9CEEFCEFFD7406121FD1AA82AB0E
:1047B30083120C50E97404121FD1E0F508A3E0F54D
:1047C3000974087808121F54E508740F121FD1E505
:1047D30008F07404121FD1E0F8A3E0F9E8C0E07414
:1047E3000E121FD1D0E0F07402121FD1E0F508A31E
:1047F300E0F50974087808121F54E5087411121FB4
:10480300D1E508F07402121FD1E0F8A3E0F9E8C083
:10481300E07410121FD1D0E0F0851882851983E06F
:10482300F508A3E0F50974087808121F54E5087425
:1048330013121FD1E508F0851882851983E0F8A3C8
:10484300E0F9E8C0E07412121FD1D0E0F074061250
:104853001FD1E0F508A3E0F50974087808121F5486
:10486300E5087415121FD1E508F07406121FD1E094
:10487300F8A3E0F9E8C0E07414121FD1D0E0F0749B
:1048830008121FD1E0F508A3E0F5097408780812AF
:104893001F54E5087417121FD1E508F07408121F9E
:1048A300D1E0F8A3E0F9E8C0E07416121FD1D0E01C
:1048B300F0740A121FD1E0F508A3E0F50974087833
:1048C30008121F54E5087419121FD1E508F0740A81
:1048D300121FD1E0F8A3E0F9E8C0E07418121FD169
:1048E300D0E0F0740C121FD1E0F508A3E0F50974D1
:1048F300087808121F54E508741B121FD1E508F04D
:10490300740C121FD1E0F8A3E0F9E8C0E0741A12A6
:104913001FD1D0E0F0741C121FD174AAF0741D12C1
:104923001FD174BBF0741E121FD174AAF075080E48
:1049330075090078081221F07410121FD1AC82ADF2
:10494300837421121FD1AA82AB83120B0674021245
:104953001F9C8A0A8B0B850A08850B09742D121F6D
:10496300D1740DF0742E121FD1740AF07C137D00E4
:10497300741C121FD1AA82AB83120CDA742F121F7C
:104983009C7F040220AF74F0121FDD748C121F860B
:10499300890B8A08908B16C082C0837404121FD1BE
:1049A300AC82AD83D083D0827408121E99908B366B
:1049B300C082C083746C121FD1AC82AD83D083D00C
:1049C300827408121E99908B3EC082C08374641255
:1049D3001FD1AC82AD83D083D0827408121E99900C
:1049E3008B46C082C083745C121FD1AC82AD83D06E
:1049F30083D0827408121E99908AFEC082C0837489
:104A030054121FD1AC82AD83D083D0827408121E9E
:104A130099908B2EC082C083744C121FD1AC82AD8F
:104A230083D083D0827408121E99908B26C082C0D3
:104A3300837444121FD1AC82AD83D083D0827408B7
:104A4300121E99908B1EC082C083743C121FD1AC7E
:104A530082AD83D083D0827408121E99908B0EC0CE
:104A630082C0837434121FD1AC82AD83D083D082D1
:104A73007408121E99908AF6C082C083742C121F88
:104A8300D1AC82AD83D083D0827408121E99908AF0
:104A9300D6C082C0837424121FD1AC82AD83D0836D
:104AA300D0827408121E99908ACEC082C083741C6F
:104AB300121FD1AC82AD83D083D0827408121E99A9
:104AC300908AC6C082C0837414121FD1AC82AD8396
:104AD300D083D0827408121E99908AE6C082C08364
:104AE300740C121FD1AC82AD83D083D082740812B0
:104AF3001E997404121FD1AE82AF83E50860391486
:104B0300604214604B14605414605C14606414605D
:104B13006C14607414607C147003024BA114700352
:104B2300024BAC147003024BB7147003024BC21454
:104B33007003024BCD024BD87404121FD1AE82AF67
:104B430083024BE1746C121FD1AE82AF83024BE13F
:104B53007464121FD1AE82AF83024BE1745C121FE7
:104B6300D1AE82AF8380777454121FD1AE82AF83EC
:104B7300806C744C121FD1AE82AF83806174441277
:104B83001FD1AE82AF838056743C121FD1AE82AF69
:104B930083804B7434121FD1AE82AF838040742C58
:104BA300121FD1AE82AF8380357424121FD1AE821F
:104BB300AF83802A741C121FD1AE82AF83801F740F
:104BC30014121FD1AE82AF838014740C121FD1AEA6
:104BD30082AF8380097404121FD1AE82AF83E50BC9
:104BE3007015120C26E9EEFAEFFB120C447A0179E8
:104BF30044120C38024D91120C26E9EEFAEFFB1227
:104C03000C447A0079BE120C38120C3EE9F50912F5
:104C13000C3EE9F50AE5086003024CBF9002DA7422
:104C230000F07C247D0079FF7AB67B02120B1E9084
:104C330002DAE0F8790074B628F582740239F58354
:104C430074AAF09002DAE02401F09002DAE0F87935
:104C53000074B628F582740239F58374BBF09002B0
:104C6300DAE02401F09002DAE0F8790074B628F56E
:104C730082740239F58374BBF09002DAE02401F008
:104C8300E5099002DAE0F8790074B628F582740237
:104C930039F583E509F09002DAE02401F0E50A90A2
:104CA30002DAE0F8790074B628F582740239F583E4
:104CB300E50AF09002DAE02401F0803AE509900277
:104CC300DAE0F8790074B628F582740239F583E5E1
:104CD30009F09002DAE02401F0E50A9002DAE0F844
:104CE300790074B628F582740239F583E50AF090E9
:104CF30002DAE02401F0740D65086003024D91901F
:104D030002DAE0F8790074B628F582740239F58383
:104D1300740DF09002DAE02401F09002DAE0F87901
:104D23000074B628F582740239F583740AF0900290
:104D3300DAE02401F07C117D007AB67B02120CDAF2
:104D43007A007B007C007D00851882851983EAF058
:104D5300A3EBF0A3ECF0A3EDF0908BD5780C121E2F
:104D630056851882851983780C121C655015908B13
:104D7300B1780C121E56851882851983780C121D82
:104D8300E280D67C107D007AC77B02120CDA747441
:104D9300121F9C7F080220AFC082C08374FA121FC7
:104DA30086851882851983AA82AB83120F5CE9601A
:104DB30012851882851983AC82AD837A0679001235
:104DC3000FCEE97406121F9CD083D082020135C036
:104DD30082C08374F5121F867407121FD1AA82AB97
:104DE30083120EBAE9605C85188285198374AAF070
:104DF3007401121FD174BBF07402121FD174CCF072
:104E03007409121FD1E0C0E07403121FD1D0E0F087
:104E1300740A121FD1E0C0E07404121FD1D0E0F075
:104E23007405121FD1740DF07406121FD1740AF0A9
:104E33007C077D00851882851983AA82AB83120CB7
:104E4300DA804A85188285198374AAF07401121FC7
:104E5300D174BBF07402121FD174CCF07403121F0F
:104E6300D17476F07404121FD17476F07405121F96
:104E7300D1740DF07406121FD1740AF07C077D0003
:104E8300851882851983AA82AB83120CDA740B12FC
:104E93001F9CD083D082020135C082C08374FC1270
:104EA3001F86851882851983AA82AB83120E48E96F
:104EB3006012851882851983AC82AD837A047900E8
:104EC300120CE6E97404121F9CD083D082020135D0
:104ED300C082C08374FC121F86851882851983AA39
:104EE30082AB83120EFCE96012851882851983ACAC
:104EF30082AD837A047900120FC8E97404121F9CEF
:104F0300D083D082020135C082C08374FA121F8617
:104F1300851882851983AA82AB83120E90E96012E9
:104F2300851882851983AC82AD837A067900120EC7
:104F330024E97406121F9CD083D08202013574F7D2
:104F4300121FDD74FF121F86E9FE146005146059F9
:104F53008061851882851983AA82AB837901120F38
:104F6300E0E9851882851983E0701B9002B1E06047
:104F7300429002B17400F07A007B019002ACE0F938
:104F8300120B5AE9802D9002B1E0700D7A007B017B
:104F93009002ACE0F9120B5AE9851882851983E077
:104FA3009002B1F01209FE800A7AAF7B0B790212EC
:104FB3000FE0E97401121F9C7F010220AFC082C081
:104FC30083908BB91222037A007B209002ACE0F924
:104FD300120BDE7404121F9CE9D083D082020135C8
:104FE30074F7121FDD74FF121F86E9FE14600514A7
:104FF300605C8064851882851983AA82AB837901FA
:10500300120D34E9851882851983E0701B9002B272
:10501300E060459002B27400F07A007B029002AC2B
:10502300E0F9120B5AE98030851882851983E06410
:105033000170259002B2E0701F9002B27401F07A01
:10504300007B029002ACE0F9120B5AE9800A7AB1B4
:105053007B0B7902120D34E97401121F9C7F01024C
:1050630020AF74F7121FDD74FF121F86E9FE146070
:10507300051460608068851882851983AA82AB83D2
:105083007901120FB0E9851882851983E0701990B0
:1050930002B4E060139002B47400F07A087B0090CD
:1050A30002ACE0F9120B5AE9851882851983E06492
:1050B30001702B9002B4E070259002B47401F0905B
:1050C30002DF7400F07A087B009002ACE0F9120B67
:1050D3005AE9800A7AA97B0B7902120FB0E97401AD
:1050E300121F9C7F010220AF74F0121FDD74F812AF
:1050F3001F86890A7401650A60030251AA85188212
:10510300851983AA82AB837901120CFEE985188283
:10511300851983E0FA7B007401121FD1E0F879004E
:10512300E4C8F9EA28F8EB39F9E8FEE9FF7402125A
:105133001FD1E0FA7B007403121FD1E0F87900E479
:10514300C8F9EA28F8EB39F9880889097404121FA9
:10515300D1E0FA7B007405121FD1E0F87900E4C8AE
:10516300F9EA28F8EB39F9880E890F7406121FD172
:10517300E0FA7B007407121FD1E0F87900E4C8F964
:10518300EA28F8EB39F9880C890D780C1221F078AC
:105193000E1221F07902AC08AD09EEFAEFFB121002
:1051A300D67404121F9CE97402650A70041210A6D7
:1051B300E97408121F9C7F080220AF74F4121FDDEC
:1051C30074FA121F86EAFEEBFF8C088D0974121223
:1051D3001FD1E0F50AA3E0F50BEE8518828519834C
:1051E300F0EEF8EFF9E4E9F8C0E07401121FD1D052
:1051F300E0F0E5087402121FD1E508F0A808A90938
:10520300E4E509A809E5097403121FD1E509F0E5EE
:105213000A7404121FD1E50AF0A80AA90BE4E50BEE
:10522300A80BE50B7405121FD1E50BF085188285D9
:105233001983AC82AD837A067900120CF8E97406FF
:10524300121F9C7F040220AF74F0121FDD8A0A8BA9
:105253000B89088C0C8D0985090E750F00AA0EABFE
:105263000F120B9C8A0E8B0FAE0EAF0FEE4F700317
:1052730002530B85090E750F00AC0EAD0FA90CEE92
:10528300FAEFFB120B1E850A0E850B0F780E122206
:105293007A0000060000AAB25210AAC05220AADC6B
:1052A3005230AACE5240AAEA5250AAF8520453EE00
:1052B300FCEFFDAA09A908120FC8E98044EEFCEF30
:1052C300FDAA09A908120CE0E98036EEFCEFFDAA5D
:1052D30009A908120FCEE98028EEFCEFFDAA09A95F
:1052E30008120FAAE9801AEEFCEFFDAA09A9081219
:1052F3000CE6E9800CEEFCEFFDAA09A908120E24C6
:10530300E9EEFAEFFB120BA27F080220AF74F3124F
:105313001FDD8A088B09ECFEEDFFC3EE9415EF94B5
:10532300004005750C148003EEF50C90032C742ECD
:10533300F0A37400F0E50C90032EF0850C0A750BB6
:1053430000780A1221F0AC08AD097A2F7B03120B07
:10535300067402121F9C79007C2C7D037A007B006B
:105363001213ACE97F050220AF74EE121FDD74FA4D
:10537300121F868A0A8B0B8909ECFEEDFF75080064
:10538300850A0C850B0D780C122234000410455647
:10539300B553D653F5531654375458548B54AC5411
:1053A300C354F154AF55D055F0551A56455645568A
:1053B3001C557401650970158E828F83E0C39403B5
:1053C300500B8E828F83E0900EC0F0800375081817
:1053D30002566E7402650970138E828F83E0F8A300
:1053E300E0F9900EC1E8F0A3E9F080037508180214
:1053F300566E7401650970158E828F83E0C3940223
:10540300500B8E828F83E0900399F0800375081808
:1054130002566E7401650970158E828F83E0C39402
:1054230005500B8E828F83E090039AF080037508FA
:105433001802566E7401650970158E828F83E0C35E
:105443009402500B8E828F83E090039BF080037550
:10545300081802566E741065097027750C10750DC7
:1054630000780C1221F0EEFCEFFD7A9C7B03120B0B
:10547300067402121F9C8A0C8B0D850C82850D838A
:10548300800375081802566E7401650970158E82C3
:105493008F83E0C39402500B8E828F83E09003AC22
:1054A300F0800375081802566E74016509700B8E3F
:1054B300828F83E0900EC4F0800375081802566E45
:1054C300740465097022908B91780C121E568E829B
:1054D3008F83780C121C65500F8E828F83121E747B
:1054E3009003AE121E80800375081802566EE509FC
:1054F3007021121334E97013120DCAE9F50C7950B7
:10550300121088E9F50D120DB8800B900441740157
:10551300F0800375081802566E740765096003026C
:1055230055A9750E06750F00780E1221F08E828F25
:1055330083A3AC82AD837402121FD1AA82AB831200
:105543000B0C7402121F9C8A108B1185100E85118F
:105553000F7C007D00851882851983AA82AB838E18
:10556300828F83E0F9120D5EE9F50CE50CC3940A12
:10557300502F121334E97015A90C120DD0E9F50D53
:105583007950121088E9F50E120DB8801C750D00C4
:105593007442250CF5827404350DF5837401F08093
:1055A30008750802800375081802566E74016509B0
:1055B30070158E828F83E0C39402500B8E828F838B
:1055C300E09003ADF0800375081802566E74016510
:1055D3000970158E828F83E0C3940A500B8E828FDD
:1055E30083E0900EC3F08003750818807E74016514
:1055F30009701F8E828F83E0C3940740158E828FBC
:1056030083E0C39411500B8E828F83E0900EC5F01C
:1056130080597508188054740165097020900440FE
:10562300E0F50C8E828F83E0900440F0E50C703B34
:10563300900440E064017033120DB8802E75081891
:105643008029C3E50A9427E50B9400501B74026577
:105653000970158E828F83E0FCA3E0FDAA0AAB0BD1
:105663001211D2E9F5088003750802A9087406121D
:105673001F9C7F0A0220AF74EC121FDD74DA121F25
:1056830086890D8A128B138C0A8D0B743A121FD1E3
:10569300E0F50C908B72C082C083851882851983D4
:1056A300AC82AD83D083D0827406121E9985188292
:1056B300851983AC82AD83AA12AB13A90D120D5EBB
:1056C300E9FEEEC3940A4003025819EEF9120D9A4B
:1056D300E9FF900EC0E0640270047401800274005C
:1056E300F50878081221F4AD0CEFFCEEF9AA0AAB29
:1056F3000B120E0C7401121F9C7C147D0079007434
:1057030012121FD1AA82AB83120B1E8A0E8B0F8536
:105713000E08850F097412121FD1AC82AD837A1063
:1057230075F006EEA42424F9121082E970437C106C
:1057330079FF7412121FD1AA82AB83120B7EE97018
:10574300307422121FD1AC82AD837A0475F006EE59
:10575300A42425F9121082E9F5087412121FD1ACA2
:1057630082AD83EFA2E0E433F9AA0AAB0B12125C19
:10577300E97406121FD1AC82AD837A0C74702EF9D2
:10578300121082E9707E7406121FD1AA82AB8312B3
:105793000D8E750E00E50EC394045068E50EA80E39
:1057A3007900E875F003A4C8AAF075F000A42AFAFA
:1057B30075F003E9A42AF97406121FD1E58228F5CE
:1057C30008E58339F509850882850983E0F8A3E0B4
:1057D300F9E849602B850882850983A3A3E0F510C6
:1057E30075110078101221F0850882850983E0FC89
:1057F300A3E0FDAA0AAB0B1214C07402121F9CE9AA
:10580300050E8091EFA2E1500D900398E0F9AA0AEA
:10581300AB0B1214C6E97404650C700F900EC0E054
:1058230064027007AA0AAB0B120E067900742612E3
:105833001F9C7F0C0220AF74F2121FDD890BEAFE5E
:10584300EBFF8C088D09750A0AE50B600C146009DF
:105853001460441460640258DEEEFAEFFB120DACE0
:10586300E9F50AE50AC3940A5071E5084509606B36
:10587300750C06750D00780C1221F0EEFCEFFDAAF5
:1058830008AB09120B067402121F9C8A0C8B0D8540
:105893000C82850D838044EEFAEFFB120DA6E9F529
:1058A3000AE50AC3940A5033E5084509602DAA089E
:1058B300AB09A90A120DA0E98021EEFAEFFB120D44
:1058C300B2E9F50AE50AC3940A5010E508450960F0
:1058D3000AAA08AB09A90A120DA0E9A90A7F0602C0
:1058E30020AF74F2121FDD8A0C8B0DE9FE7F157455
:1058F300FF650C700474FF650D702A750800E508D8
:10590300C3940A5014EEFC7A027B00A908120D7CA2
:10591300E960027F00050880E5EE60637AF47B0DA1
:105923001216C4805AAA0CAB0D1216A68A0A8B0B48
:10593300850A08850B09E508450960417C007D005F
:10594300E5082405FAE5093400FB85088285098307
:10595300A3A3A3A3E0F9120D5EE9F50AE50AC39434
:105963000A500EEEFC7A027B00A90A120D7CE97F35
:1059730000EE600BAA08AB09120DF480027F14EF4E
:10598300F97F060220AF74EE121FDD8A0E8B0F8C97
:105993000A8D0B7412121FD1E0F50CA3E0F50D75FF
:1059A300081574FF650E700474FF650F701E7E008A
:1059B300EEC3940A5062AC0CAD0DAA0AAB0BEEF920
:1059C300120D82E960037508000E80E4AA0EAB0F86
:1059D3001216A68A108B11AE10AF11EE4F60367CF3
:1059E300007D00EE2405FAEF3400FB8E828F83A343
:1059F300A3A3A3E0F9120D5EE9F509E509C3940A2F
:105A03005016AC0CAD0DAA0AAB0BA909120D82E915
:105A13007508008003750814A9087F0A0220AF7473
:105A2300F7121FDDEAFEEBFF9003B2EEF0A3EFF0F7
:105A3300900398E0FC7D007A267B001211D2E9F5F1
:105A430008900398E0F912143C7F010220AF74F22E
:105A5300121FDD74EC121F868A0A8B0B850A82855E
:105A63000B83A3A3E024FA7003025EB124FD700349
:105A7300025D27147003025B4414601024FD70035D
:105A8300025CCF147003025D67025F1FAE0AAF0BA7
:105A93009003B2E0F8A3E0F9E84960699003B2E04B
:105AA300F8A3E0F5838882E0F8A3E0F9E8496055BC
:105AB300EE240CF582EF3400F583E0F50878081244
:105AC30021F4EE240BF582EF3400F583E0F98E82A6
:105AD3008F83A3A3A3A3A3A3A3A3A3E0FCA3E0FD9A
:105AE300EE2403FAEF3400FB9003B2E0F8A3E0F5F1
:105AF300838882E0F8A3E0F5838882121FDB7401B8
:105B0300121F9C80398E828F83A3A3A3A3A3A3A375
:105B1300A3A31222079003AE121E7412126E740214
:105B2300121F9CE9601879018E828F83A3A3A3A31C
