:020000040000FA
:0600000002011D022A634B
:03002B000223238A
:030033000222FBAB
:03005300022AD6A8
:03006B000222A2CC
:03007B000222CA94
:100083000228CFE5C754F84401F5C77901220000DF
:100093000080FB120086B90003020107E47921788E
:1000A30008B800028004F709D8FCE479297802B87B
:1000B30000028004F709D8FCE490028178F57908FE
:1000C3008002F0A3D8FCD9FA781A90014D7A01BACC
:1000D30000028007E493A3F608DAF9900A75AA826E
:1000E300AB8390014E78D379088015E493A3AC8257
:1000F300AD838A828B83F0A3AA82AB838C828D83A8
:10010300D8E9D9E77582857583FF740212012F75CB
:100113008291758300740012012F75D00075813FA1
:10012300751881751902759F00020096C09FF59F8F
:10013300E473D09F22D083D082C09FE493C0E07445
:100143000193C0E0740293F59F2201200926092C34
:1001530009320938093E0944094A09500956095C1C
:1001630009620968096E0974097A0968FFFF037B4C
:10017300034CCD6C03AB0336567600680402CB47C1
:10018300A202180400058BC1010C04000000000347
:100193007F060CC92C979797038903264666006C44
:1001A300022000024004000000000244040000009A
:1001B3000002480400000000024C0400000000029A
:1001C3005004000000000254040000000002580420
:1001D30000000000025C040000000002BC040000F8
:1001E300000001EC0400004000037F060CC92C97BB
:1001F30097970402030D355D040904872D353D00EF
:10020300A3010000000001078601FE074105F1205C
:10021300283038077E01300746019A074704F12842
:100223003038076C04F1283038021602000101B29D
:1002330002FFFF0190040923A135016A02060001B0
:10024300600800000000000000000060044000009F
:10025300000162020000006004004000000B095628
:10026300756C7475726545676705122F013F01024E
:100273000A000201061302454501020304050607AD
:1002830008090A0B0C0D0E0F1045676700D007E82D
:100293000370110100E803E803D00760EA2A00F6BF
:1002A3000B0000260C320C380C3E0C1241636365C4
:1002B3006C2E2044617461000A416363656C2E20D7
:1002C300436F6E662E000A0A416363656C2E2050ED
:1002D3006572696F640002FD8B010000D28B02F32B
:1002E3008B010000D50B10288A010000510302EF97
:1002F3008B030000540302F18B010000D60B02F3C1
:100303008B010000E20B10388A0300005A0302F14C
:100313008B010000E30B02F38B010000F00B10488C
:100323008A030000F10B02F18B010000F20B124271
:1003330061726F6D2E2044617461000A4261726FB5
:100343006D2E20436F6E662E00024261726F6D2E1A
:100353002043616C6962722E000A0A4261726F6DFA
:100363002E20506572696F640002FD8B010000CF7F
:100373008B02F38B010000580C1048890100005BCD
:100383000302EF8B0300005F0302F18B01000059AE
:100393000C02F38B010000650C1028890300006533
:1003A3000302F18B010000660C02F38B0100008352
:1003B3000C100889030000840C02F18B01000085F6
:1003C3000C02F38B010000730C1018890100006606
:1003D3000302EF8B030000760302F18B010000742C
:1003E3000C12436F6E6E2E20506172616D730008A4
:1003F300436F6E6E2E20506172616D732052657172
:100403000008446973636F6E6E656374205265718F
:100413000002FD8B010000C98B02F38B0100000B6E
:100423000D10D8880100007E0302EF8B03000084C7
:100433000302F18B0100000C0D02F38B0100001984
:100443000D10C8880200008A0302F18B0100001A14
:100453000D02F38B0100002B0D10B88802000092EF
:100463000302F18B0100002C0D02020231323334FE
:1004730035363738393031320002020202020201C6
:100483000D000000100102FD8B010000B78B02F389
:100493008B010000930D02ED8B010000930302F327
:1004A3008B010000940D02F98B0100002E8B02F3E7
:1004B3008B010000950D02FF8B010000960D02F3E6
:1004C3008B010000A40D02768A010000D68A02F394
:1004D3008B010000A50D02058C010000338B02F394
:1004E3008B010000A30D02DB8B0100001C8B02F3C8
:1004F3008B010000A60D02DD8B010000D98702F3FA
:100503008B010000A70D02078C010000688A02F32B
:100513008B010000A80D02098C010000A90D01E860
:1005230003053F100A124779726F2044617461001A
:100533000A4779726F20436F6E662E000A0A477965
:10054300726F20506572696F640002FD8B010000B9
:10055300C38B02F38B0100004F0E1038880100009B
:10056300550402EF8B0300005B0402F18B010000D2
:10057300500E02F38B0100005A0E1048880300004E
:10058300610402F18B0100005B0E02F38B0100009A
:10059300660E105888030000670E02F18B010000FD
:1005A300680E010361801248756D69642E204461F1
:1005B3007461000A48756D69642E20436F6E662E60
:1005C300000AD00748756D69642E20506572696F03
:1005D300640002FD8B010000C68B02F38B01000057
:1005E300D00E103889010000C50402EF8B03000010
:1005F300C90402F18B010000D10E02F38B0100004C
:10060300DD0E109888030000CF0402F18B01000077
:10061300DE0E02F38B010000EB0E10A8880300002E
:10062300EC0E02F18B010000EE0E01481254656DD1
:10063300702E2044617461000A54656D702E20434E
:100643006F6E662E000A1E54656D702E2050657203
:10065300696F640002FD8B010000D58B02F38B01EF
:100663000000560F10588A010000D10402EF8B03DB
:100673000000D50402F18B010000570F02F38B0138
:100683000000620F10088A030000DB0402F18B01F3
:100693000000630F02F38B0100006F0F10F8890352
:1006A3000000700F02F18B010000710F124D6167A2
:1006B3006E2E2044617461000A4D61676E2E2043E3
:1006C3006F6E662E000A0A4D61676E2E20506572AA
:1006D300696F640002FD8B010000CC8B02F38B0178
:1006E3000000D60F10D889010000DC0402EF8B0351
:1006F3000000E20402F18B010000D70F02F38B012B
:100703000000E20F10C889030000E80402F18B0126
:100713000000E30F02F38B010000EF0F10B8890311
:100723000000F00F02F18B010000F10F124D707504
:10073300363035302E2044617461000A4D707536B1
:100743003035302E20436F6E662E000AC8004D7080
:1007530075363035302E20506572696F640002FDA6
:100763008B010000C08B02F38B0100005610109820
:1007730089010000EB0402EF8B030000F90402F18E
:100783008B010000571002F38B01000065101088E5
:1007930089030000FF0402F18B010000661002F3DD
:1007A3008B0100007510107889030000761002F1A8
:1007B3008B0100007810FF00013075030201060071
:1007C3000000000000000000000000000000000026
:1007D3000000000000000000000000FFFF06008092
:1007E3000CE803104B6579205072657373205374C2
:1007F3006174650002FD8B010000BD8B02F38B0168
:1008030000000D1102F78B000000AF0502EF8B0310
:100813000000B00502F18B0100000E11FF0000B4CF
:10082300000028002800283075A000A000A000A028
:100833000000080008E001F0001000100010001094
:10084300001000100050005000500010001000D0A5
:10085300070000000000000F0001000500307507CD
:10086300001000010081FF00000000FF4A1268121F
:100873005012FF02020208025000A0000000E80329
:1008830002FD8B010000BA8B02F38B0100009D1166
:1008930002EB8B010000E80502F38B0100009E11BF
:1008A30002E98B010000FE0502F38B0100009F119A
:1008B30002E78B010000000602F38B010000A01188
:1008C30002E58B080000010602F38B010000A11171
:1008D30002E18B010000A211FF0100FF2002FD8B4A
:1008E300010000D88B02F38B010000061202DF8B9C
:1008F300000000000002EF8B0300004E06141814E2
:100903001814181418141814181418141814181484
:1009130018141814181418A81AC01AA21A12013895
:10092300C4C20312013810C30312013866C3031291
:1009330001380BC403120138BFC403120138DEC4EB
:1009430003120138FDC4031201382BC50312013809
:100953005EC503120138D7C5031201385DC6031201
:100963000138FDC603120138C2C703120138F4C7A8
:100973000312013829C80312013857C8031201387A
:10098300C9EF02120138E8EF021201380BF002122C
:10099300013832F00212013859F00212013880F0A6
:1009A30002120138A7F002120138CAF0021201380C
:1009B300EDF00212013810F10212013833F1021284
:1009C300013865F10212013888F102120138B2F1DF
:1009D300021201384EF20212013873F20212013888
:1009E30098F202120138BDF202120138E2F2021249
:1009F300013807F3021201382CF30212013853F3C2
:100A03000212013891F302120138BDF302120138C8
:100A1300E9F3021201380EF40212013847F402120C
:100A230001386EF402120138A7F402120138CEF431
:100A33000212013807F5021201382EF502120138AD
:100A430053F50212013878F502120138B6F5021295
:100A53000138D9F50212013803F602120138E2F621
:100A6300021201388AF802120138DAF80212013848
:100A730007FA0212013826FA0212013849FA021261
:100A8300013859A6031201386EA603120138C6A60F
:100A9300031201382DA70312013875A70312013879
:100AA300EBA7031201381AA80312013828A803126E
:100AB30001388CA803120138CAA803120138E5A82B
:100AC300031201387DA90312013826AA0312013843
:100AD300A9AA03120138E2AA031201386DAB03126B
:100AE3000138C4AB0312013823AC0312013835AC0F
:100AF300031201385BAC0312013864AC03120138F2
:100B0300C3AD031201389B93041201387A94041283
:100B130001388FFD03120138D4FD031201381AFE88
:100B230003120138ADFF031201383F9B0412013851
:100B33005A9B041201386A9B04120138C19B0412A8
:100B43000138F5A00412013897BC03120138B7BC71
:100B530003120138BBBD0312013807BE031201386B
:100B630027BE031201387ABE03120138E7BE03120F
:100B730001382DBF0312013891BF0312013843C25C
:100B8300031201380184041201383184041201383C
:100B93006184041201382485041201387E8504120D
:100BA3000138818C04120138998C04120138F68CB7
:100BB300041201383A8D041201386C8D0412013885
:100BC300A38D04120138C68D041201389C31001222
:100BD30001382E3800120138F53800120138583B1D
:100BE30000120138EB440012013816450012013897
:100BF3001C46001201385A460012013842480012BE
:100C03000138794800120138B94A00120138CB4E35
:100C130000120138024F00120138CC4F0012013884
:100C23000350001201383A5000120138B950001233
:100C33000138F450001201387A51001201384D5234
:100C430000120138DA52001201389F5300120138A2
:100C5300C69C041201383C97041201384EDF03127C
:100C63000138A1DF03120138BEDF0312013893E01C
:100C73000312013810E103120138EDE103120138C8
:100C830062E3031201386CFA0212013891FA02127C
:100C93000138EFFA0212013898A104120138FB530C
:100CA30000120138095700120138C95800120138DF
:100CB300745900120138185A00120138B15A00123F
:100CC3000138E05A00120138BA5F0012013865603A
:100CD30000120138D561001201383D62001201385B
:100CE300F16200120138B36500120138F265001297
:100CF3000138666600120138C566001201382467A0
:100D03000012013893670012013886680012013817
:100D1300CC680012013811690012013834690012DD
:100D23000138AF6A00120138C26A00120138CB6B76
:100D3300001201380A6C00120138366C00120138B7
:100D4300896C00120138AA6C00120138EE6C001293
:100D53000138406F00120138816F001201382C7086
:100D630000120138977000120138D4710012013853
:100D73007C9D04120138E58A04120138168B041293
:100D830001383A8B041201380D8C0412013876991C
:100D930004120138569A041201380D9C04120138CA
:100DA3002B9C04120138B49C04120138DC7F00121E
:100DB3000138109604120138209604120138319636
:100DC3000412013836970412013832F50312013840
:100DD300D8F503120138F4F7031201380080041226
:100DE3000138628004120138DA80041201388281EA
:100DF30004120138A18104120138B18104120138AF
:100E0300F08104120138F89004120138329104126F
:100E13000138A59104120138DF9104120138F191D0
:100E2300041201382892041201384589041201384A
:100E3300948904120138C68904120138578A0412AE
:100E43000138D38A04120138108E04120138438EFC
:100E530004120138BF8E04120138DF8E04120138E8
:100E6300448F041201388C8F041201388F8F0412BF
:100E73000138DDA304120138EFA304120138F2A3F1
:100E830004120138D694041201382595041201384E
:100E9300519504120138719504120138FE9504121C
:100EA30001384C92041201389D9204120138E492E5
:100EB300041201386E9304120138F87F00120138CE
:100EC300E2FA03120138D9FC0312013845FD03127B
:100ED30001388CFD031201388AC803120138DDC8BA
:100EE3000312013806C903120138C4C903120138B9
:100EF3002DCA031201386BCB0312013825CD03121F
:100F03000138A39403120138D19403120138D19606
:100F130003120138D198031201388C990312013856
:100F23003E9D03120138A99D03120138E89E041265
:100F33000138329E0412013892E303120138E5E3CB
:100F4300031201380EE40312013877E40312013867
:100F5300B5E5031201386FE7031201380282041268
:100F630001386B8204120138298304120138A883E3
:100F73000412013813EF0312013845EF031201384D
:100F83004DF00312013872F103120138008003128D
:100F93000138E68003120138338103120138768168
:100FA30003120138EB81031201384C82031201381A
:100FB300C182031201389D8303120138A8840312EE
:100FC3000138298503120138D08603120138668758
:100FD30003120138D98703120138558803120138E7
:100FE3006C8803120138A38903120138FD890312A7
:100FF3000138A1E70112013839EC011201380DEF74
:101003000112013836EF011201384DEF0112013898
:1010130076EF0112013828F0011201380EF20112A5
:10102300013849F3011201387FF801120138B8F889
:1010330001120138FCF8011201380EFA01120138CD
:10104300A6A2041201389E9F04120138E6850412F9
:101053000138FD85041201382E8604120138698691
:1010630004120138938604120138BD860412013834
:10107300D48604120138EB86041201380287041265
:1010830001382B87041201383E8704120138548734
:10109300041201386787041201388E87041201385D
:1010A300698A031201386D8B03120138A58B031271
:1010B3000138C88B03120138D38B03120138F68B26
:1010C30003120138058D03120138DA8D031201383A
:1010D300558E03120138DD8E03120138188F031267
:1010E30001384F8F03120138DD8F03120138B69098
:1010F30003120138169103120138219103120138AA
:10110300A09103120138A39103120138A69103128F
:10111300013835920312013838920312013868926C
:10112300031201389292031201388093031201389B
:1011330032940312013862CD031201388ACD0312AF
:101143000138B8CD03120138EFCD031201384DCE6B
:101153000312013898CE03120138E3CE031201388B
:1011630023CF0312013869CF0312013897CF03123B
:10117300013854D0031201385ED0031201386BD00A
:10118300031201389ED0031201386AD103120138C9
:1011930076D1031201388ED10312013898D103128C
:1011A3000138689A04120138769A041201388E9A2B
:1011B30004120138A69A04120138279F021201383B
:1011C300D39F021201384EA0021201386FA10212FE
:1011D3000138ABA10212013854A2021201383BA319
:1011E300021201389FA402120138F6A40212013838
:1011F30077A50212013867A602120138B4A60212BB
:1012030001383AA7021201386CA70212013880A9EB
:1012130002120138C2A902120138E0A902120138F0
:1012230063AA0212013837AB02120138FFAB021274
:10123300013874B50312013847B603120138F0B60A
:101243000312013843B703120138F3B7031201380D
:101253007FB8031201386BB9031201389AB903122C
:101263000138ADBA03120138F5BA03120138CABB0B
:101273000312013806BC0312013822BC03120138E1
:1012830022A2041201387AEB0312013890EB031205
:101293000138B6EB03120138D2EC03120138DCEC4F
:1012A3000312013811EE0312013809EF031201385A
:1012B300CEFA01120138FEFB0112013831FC011292
:1012C30001387BFC0112013842FE01120138008013
:1012D300021201386A8002120138C98102120138F0
:1012E300D981021201380682021201385D8202128C
:1012F30001380683021201380D8402120138D784A3
:10130300021201383786021201387A860212013836
:101313001F87021201386C8702120138928702126A
:101323000138A08902120138A58902120138AA8B5B
:1013330002120138F78B021201386A8C021201384B
:101343009D8C021201383F8D02120138E88D021282
:101353000138208E02120138238E021201386B8E5F
:1013630002120138AB8E02120138028F02120138C9
:101373000FF80312013827F8031201386FF803122C
:10138300013885F803120138CCF803120138E0F96B
:10139300031201386DFA03120138B8FA0312013847
:1013A300168C01120138228C011201385D8C011256
:1013B3000138A28C01120138628D01120138E88DC7
:1013C300011201384D8E01120138798E0112013854
:1013D300B28E01120138F09001120138D492011239
:1013E3000138BA9401120138FD95011201384B9866
:1013F300011201385D9901120138A89A01120138CE
:10140300B89B01120138D59B01120138109C0112BF
:101413000138329C01120138959C0112013856A102
:1014230001120138EBA1011201383CA2011201386B
:1014330063A201120138B5A201120138D3A201122D
:1014430001382DA30112013816A4011201388CA50D
:101453000112013810A6011201381FD203120138FC
:1014630029D2031201386CD20312013887D2031236
:10147300013817D3031201383FD3031201387CD349
:1014830003120138B3D303120138DCD3031201383A
:1014930051D40312013866D4031201387BD40312EA
:1014A3000138ACD403120138C0D403120138E5D497
:1014B300031201381FD5031201384BD5031201382B
:1014C300CED50312013817D60312013841D60312C1
:1014D30001386CD6031201385D9804120138C8D75D
:1014E30002120138F6D70212013844D90212013828
:1014F30024DA0212013843DA02120138C0DA021286
:10150300013803DB0212013859DC021201381ADDFB
:1015130002120138A1DF0212013842E0021201383F
:1015230038E10212013835E2021201388FE3021268
:1015330001381AE4021201389D8F04120138069013
:10154300041201385A9004120138819004120138B0
:10155300B2900412013894D60312013801D7031252
:10156300013848D70312013860D8031201385CD917
:10157300031201383FDA03120138F09D03120138D8
:10158300329E03120138049F03120138DD9F0312B8
:101593000138D7A003120138B9A10312013822A2DE
:1015A30003120138D8A2031201384CA303120138E5
:1015B300B8A303120138E1A3031201385BA4031299
:1015C3000138F4A40312013859A5031201386EA59A
:1015D30003120138B4A503120138CDA50312013853
:1015E30032A60312013835A60312013839F2031269
:1015F300013861F2031201389FF2031201385DF3DF
:1016030003120138C4F303120138E0F30312013863
:1016130008F40312013838F40312013847F40312B3
:101623000138C4F403120138EAF403120138EF8FCE
:1016330002120138CD9102120138FF9302120138D0
:101643003B94021201386894021201385295021237
:1016530001389D9502120138E89502120138FA9576
:10166300021201383A96021201386F9602120138BB
:10167300BD9602120138EC96021201380F9702123E
:1016830001385C9702120138E19702120138FB9985
:10169300021201383A9C021201387B9C0212013873
:1016A3001D9E021201385E9E02120138D19E021263
:1016B3000138B3CA02120138B1CB021201384AD23F
:1016C300021201386BD40212013836D602120138E5
:1016D3009ED70212013877A60112013826A70112FC
:1016E300013853A70112013899A701120138D9A86B
:1016F300011201386FAA01120138E9AA0112013857
:1017030004AB011201387FAB01120138D9AC0112CD
:10171300013839AE011201383FAF01120138A0B0D0
:1017230001120138B9B00112013817B101120138A1
:1017330005B20112013838B201120138A8B2011200
:10174300013822B3011201386CB30112013836B4E7
:10175300011201380BB501120138EAB50112013843
:1017630075B601120138E3B60112013857B70112F9
:10177300013882B70112013841B801120138A6B904
:1017830001120138C3B901120138E2B9011201385B
:10179300D3BA01120138F8BA0112013822BB01127F
:1017A30001389DBB01120138F7BB0112013860BD3E
:1017B300011201380EBE011201384FBE0112013869
:1017C3000872001201385672001201386272001258
:1017D3000138407300120138717300120138A2738B
:1017E300001201382274001201385A7400120138B1
:1017F300AC7400120138E974001201380677001244
:1018030001382C7900120138177B00120138017D51
:10181300001201389131001201388ED301120138C0
:10182300BED30112013897DA011201381CDC011210
:10183300013819E20112013801E3011201383EE3D4
:101843000112013861E30112013892E301120138F8
:101853009BE301120138A5E30112013893E401125D
:10186300013889E5011201387FBE011201387EC2B9
:101873000112013884C201120138BFC901120138B3
:10188300D8CE01120138ACE70312013842E8031243
:10189300013858E803120138CEE80312013842E94F
:1018A3000312013880E903120138F4E90312013805
:1018B3006DEA0312013876EA0312013882EA031251
:1018C300013897EA03120138D5EA03120138EBEA2B
:1018D300031201384AEB0312013801DB031201380A
:1018E3000EDB0312013828DB0312013867DB031216
:1018F3000138A5DB031201380ADC031201381FDCAF
:10190300031201382ADC0312013837DC03120138D1
:101913004EDC031201385CDC0312013867DC03126E
:10192300013873DC0312013882DC031201388DDCC9
:1019330003120138B0DC0312013857DD03120138FA
:1019430067DD0312013881DD031201389EDD0312C6
:101953000138BADD03120138DFDD03120138EADD95
:1019630003120138FFDD0312013813DE03120138BD
:1019730074DE031201387ADE0312013880DE0312AB
:10198300013886DE031201389EDE03120138D1DEF0
:101993000312013889BC021201380DBD021201384D
:1019A300BCBD021201381BBF021201383CC1021236
:1019B300013828C2021201385DC2021201387FC207
:1019C300021201382EC30212013826C50212013851
:1019D3004FC502120138E1C50212013813C60212C3
:1019E300013820C60212013877C6021201389DC69B
:1019F300021201380AC9021201380DCA0212013853
:101A030065CA0212013818AE0212013822AF02125F
:101A1300013809B00212013813B00212013835B08F
:101A23000212013841B002120138DAB10212013850
:101A330009B20212013825B3021201387EB3021231
:101A43000138E4B402120138C3B5021201381FB6DB
:101A5300021201388CB602120138C7B602120138DD
:101A630006B702120138BFB902120138D9B90212FE
:101A7300013865BA0212013873BA02120138CCBABE
:101A830002120138DABA021201384DBB02120138D0
:101A9300B1BB02120138FBBB021201389BE40212F4
:101AA3000138BDE402120138E3E602120138F8E915
:101AB3000212013810EB02120138C3EB0212013893
:101AC300A5EC02120138A08704120138C58704125D
:101AD3000138378804120138FAAD0312013803AE16
:101AE300031201380CAE03120138E3AE03120138BE
:101AF30094B003120138CAB00312013804B10312BF
:101B030001383AB10312013874B103120138A8B194
:101B130003120138D4B1031201381DB20312013884
:101B230057B203120138A0B203120138F8B20312FC
:101B330001382DB30312013888B303120138C2B33D
:101B43000312013813B40312013849B403120138E4
:101B530083B403120138B1B403120138D4B40312AD
:101B630001384AA00412013876A004120138D1A02A
:101B730004120138DBA004120138EBA0041201386F
:101B83000BA30412013893A3041201385DA30412BA
:101B93000138BFA304E066701008A3E066700A086A
:101BA300A3E066700408A3E06622C3E7960809E78A
:101BB300960809E7960809E79622C3E09608A3E08A
:101BC3009608A3E09608A3E09622C008C3E096F522
:101BD3000808A3E096420808A3E096420808A3E099
:101BE3009645087001D3D00822080808EAC0E0EB44
:101BF300C0E086F0E7A4FA180986F0E7A42AFA18E9
:101C03000986F0E7A42AFA180986F0E7A42AFA1944
:101C130086F0E7A4FBE5F02AFA190886F0E7A42B7F
:101C2300FBE5F03AFA190886F0E7A42BFBE5F03A56
:101C3300FA18180986F0E7A4C5F02BFBE43AFA1961
:101C430008E7C5F0C6A426F6E5F03BFBE43AFA182C
:101C530086F0E7A4F6E5F00826F6E43B08F6E43A56
:101C630008F6D0E0FBD0E0FA22E4CFC0E0E4CEC037
:101C7300E0E4CDC0E0E4CCC0E075F020C3E633F689
:101C830008E633F608E633F608E633F6181818ECD8
:101C930033FCED33FDEE33FEEF33FFC3EC9709ED79
:101CA3009709EE9709EF97191919400FFFEC97FC65
:101CB30009ED97FD09EE97FE191906D5F0BEECF76D
:101CC30009EDF709EEF709EFF7191919D0E0FCD080
:101CD300E0FDD0E0FED0E0FF226016080808C6C38E
:101CE30013C618C613C618C613C618C613C6D5E03E
:101CF300EA227009080808226016181818C6C333A8
:101D0300C608C633C608C633C608C633C6D5E0EA16
:101D130022E627F60809E637F60809E637F6080942
:101D2300E637F622E026F608A3E036F608A3E03607
:101D3300F608A3E036F622E026F008A3E036F00822
:101D4300A3E036F008A3E036F022C3E697F60809CD
:101D5300E697F60809E697F60809E697F622C3E040
:101D630096F008A3E096F008A3E096F008A3E096A7
:101D7300F022E657F60809E657F60809E657F6088B
:101D830009E657F622E056F608A3E056F608A3E064
:101D930056F608A3E056F622E056F008A3E056F004
:101DA30008A3E056F008A3E056F022E647F6080938
:101DB300E647F60809E647F60809E647F622E0F69D
:101DC30008A3E0F608A3E0F608A3E0F622E6F0088D
:101DD300A3E6F008A3E6F008A3E6F022E0FAA3E006
:101DE300FBA3E0FCA3E0FD22EAF0A3EBF0A3ECF0FD
:101DF300A3EDF022CAC0E0E6F0A308DAFAD0E0FAD5
:101E030022CAC0E0E0A3C582CCC582C583CDC58309
:101E1300F0A3C582CCC582C583CDC583DAE6D0E005
:101E2300CA22C3E498F8E499F9121E668026C3E433
:101E33009AFAE49BFBE920E7E9121E66E498F8E4CA
:101E430099F922C3E498F8E499F9121E66E498F824
:101E5300E499F9C3E49AFAE49BFB22EB20E7CFE988
:101E630020E7E0B90010BB0008E88AF084F8AAF084
:101E730022E4FBC8FA22EB70227B10C833C8C933B3
:101E8300C9335007C39AC3DBF280069A50012ADB99
:101E9300EAC833F4C8C933F4C9FA2275F008E4C8B0
:101EA30033C8C933C933C99AC99B5004C92AC93B2A
:101EB300D5F0ECFBC833F4C8E4C9FA22600D08C6B8
:101EC300A2E713C618C613C6D5E0F322600C08C6F2
:101ED300C313C618C613C6D5E0F422700422600DDE
:101EE30018C6C333C608C633C6D5E0F4182225186E
:101EF30010AF08F518400215198008F518400215AF
:101F030019D2AF22C0D0251810AF08F5185002051A
:101F1300198008F51850020519D2AFD0D022251820
:101F2300F58210AF08F518400215198008F518401E
:101F3300021519D2AF851983222518F582E43519C4
:101F4300F58322E4732518C582C0E0E51934FFC583
:101F530083C0E0E518C3958224F810AF0885831980
:101F63008582188008858319858218D2AFCEF0A3A5
:101F7300E520F0A37808E608F0A3DEFAEFF0A3E586
:101F83008124FAF8E608F0A3E608F0A3E608F0A334
:101F93000808E608F0A3E608F0A315811581D0E050
:101FA300FED0E0F8158115811581E8C0E0EEC0E0B0
:101FB300222518C582C0E0E51934FFC583C0E0E5DA
:101FC30018C3958224F910AF088583198582188078
:101FD30008858319858218D2AFCEF0A3E520F0A33C
:101FE3007808E608F0A3DEFAEFF0A3E58124FBF816
:101FF300E608F0A3E608F0A30808E608F0A3E6085D
:10200300F0A315811581D0E0FED0E0F8158115818C
:10201300E8C0E0EEC0E022851983851882E0A3FEC4
:10202300E0A3F5207808E0A3F608DFFAE0A3FFE0D9
:10203300A3C0E0E0A3C0E0E0A3C0E0E0A3C0E0E011
:10204300A3C0E010AF0885821885831980088582B4
:1020530018858319D2AFD083D082020135851983C5
:10206300851882E0A3FEE0A3F5207808E0A3F60834
:10207300DFFAE0A3FFE0A3C0E0E0A3C0E0E0A3C079
:10208300E0E0A3C0E010AF088582188583198008BB
:10209300858218858319D2AFD083D08222C0D02500
:1020A30018C582C0E0E51934FFC583C0E0E518C355
:1020B300958224F310AF08858319858218800885DB
:1020C3008319858218D2AFC8F0A3E9F0A3EAF0A37D
:1020D300EBF0A37908E709F0A3D8FAECF0A3EDF04D
:1020E300A3EEF0A3EFF0A3D0E0F0A3D0E0F0A3D0F1
:1020F300E0F0A3E520F0A3E5F0F0A32285198385A2
:102103001882E0C0E0A3E0F9A3E0FAA3E0FBA37820
:1021130008E0F608A3DFFAE0FCA3E0FDA3E0FEA3DA
:10212300E0FFA3E0C0E0A3E0C0E0A3E0F5D0A3E0BC
:10213300F520A3E0A3F5F010AF0885831985821875
:102143008008858319858218D2AFD082D083D0E0EE
:10215300F8D0E03274048006740280027401C0E097
:10216300F404121F21D0E0121DF7227404800474BA
:10217300028000CCC0E0EDC0E0E518C39CCCAD19F3
:1021830050011D10AF068C188D1980068C188D19FF
:10219300D2AF121E04D0E0FDD0E0FC22D083D08267
:1021A300E9C0E0E493A3C386F0C5F095F0F908E431
:1021B30093A386F0C5F095F0700BE493A3C3994005
:1021C30005E9048002A3E475F002A42582F582E503
:1021D300F03583F583D0E0F9E493A3C0E0E493C042
:1021E300E022D083D082ECC0E0EDC0E0E493A3FC16
:1021F300E493A3FDED4C600D122231EC24FFFCEDC2
:1022030034FFFD80EFE493A3FCE493A3FDED4C6066
:102213000D122270EC24FFFCED34FFFD80EFD0E0C3
:10222300FDD0E0FCE493A3C0E0E493C0E022C0E06F
:10223300C3E49396087401939618400FE493667071
:102243000808740193661870007019A3A3C3E4937C
:1022530096087401939618A3A3400DD0E0D0E0D064
:10226300E0022221A3A3A3A3A3A3D0E022C0E0C042
:10227300F088F0E4936670080874019366187000A0
:10228300A8F0A3A3700BD0F0D0E0D0E0D0E00222FE
:0822930021A3A3D0F0D0E0224A
:10229C00C2AF02000022C0E074F21220A0A2AFE490
:1022AC0033FED2AFE589A2E05003120E60758900AF
:1022BC00C2C5EEF8EEA2E092AF7F010220FFC0E0B3
:1022CC0074F21220A0A2AFE433FED2AFE58AA2E6EC
:1022DC004006E58AA2E75003120E60758A00758AE3
:1022EC0000C2EBEEF8EEA2E092AF7F010220FFC03D
:1022FC00E0C0D0E8C0E0E9C0E0A2AFE433F8D2AF70
:10230C00758B00C2E8E8F9E8A2E092AFD0E0F9D012
:10231C00E0F8D0D0D0E032C0E0C0D0E8C0E0E9C0F6
:10232C00E0A2AFE433F8D2AFC2C7751A00E8F9E8FF
:10233C00A2E092AFD0E0F9D0E0F8D0D0D0E0327487
:10234C00F5121FB4EAFEEBFFEE2434F8EF3400F97B
:10235C0088088909EE2435F582EF3400F583E0F81E
:10236C00EE2437F582EF3400F583E0F50AEC850AAC
:10237C00F0A4FCAAF0850AF0EDA42AFDE82CF8E400
:10238C003DF97A257B00121E66EA85088285098351
:10239C00F0F8740758F97401B900028004C333D9FA
:1023AC00FCFAE8131313541FF8EE28F8EF3400F975
:1023BC00E8245DF582E93400F583E05A6008EE24E8
:1023CC0034F582EF802CEE2434F582EF3400F58363
:1023DC00E0C0E0EE2436F582EF3400F583E0F5F052
:1023EC00D0E084A8F0EE28F8EF3400F9E82438F5B2
:1023FC0082E93400F583E0F97F0402206074F51261
:10240C001FB4EAFEEBFFEE2434F582EF3400F583C3
:10241C00E0C0E0EE2435F582EF3400F583D0E0F037
:10242C008E828F83A3A3A3A3A3A3A3C082C0838EF6
:10243C00828F83A3A3A3A3A3E0F8A3E0F9D083D056
:10244C0082E0C398F508A3E099F509EE247FF582A4
:10245C00EF3400F583E064017069EE2480F582EFBF
:10246C003400F583E0F8A3E0F98E828F83A3A3A355
:10247C00A3A3A3A3E0FCA3E0FD8E828F83A3A3A35D
:10248C00A3A3E0FAA3E0FBC3EA9CEB9D5010C3ECC2
:10249C0098ED99402EC3EA98EB995027800EC3EA29
:1024AC0098EB994007C3EC98ED9940177C117D0887
:1024BC00EEFAEFFB121772EE247FF582EF3400F583
:1024CC0083E4F0EE2434F8EF3400F9E8FCE9FDEE97
:1024DC002435F582EF3400F583E0F8EE2437F582ED
:1024EC00EF3400F583E0F50AE508850AF0A4F50859
:1024FC00AAF0850AF0E509A42AF509E82508F8E40C
:10250C003509F97A257B00121E66EA8C828D83F0E0
:10251C00F8740758F97401B900028004C333D9FC6C
:10252C00FAE8131313541FF8EE28F8EF3400F9E807
:10253C00245DF582E93400F583E05A6008EE24341A
:10254C00F582EF802CEE2434F582EF3400F583E035
:10255C00C0E0EE2436F582EF3400F583E0F5F0D0E0
:10256C00E084A8F0EE28F8EF3400F9E82438F5827E
:10257C00E93400F583E0F9123183022404C082C0EF
:10258C0083851882851983E0F8A3E0F9C3EA9CEBF4
:10259C009D5010C3EC98ED99401BC3EA98EB9950F1
:1025AC0014800EC3EA98EB994007C3EC98ED994060
:1025BC0004790180027900D083D08222EAC39CFA8C
:1025CC00EB9DFB2274EF121FB49006D7E0640860F9
:1025DC0005E06407702A9061C8E06024900705E06C
:1025EC00F4601DE0F875F003A4C8AAF02AF974078A
:1025FC0028FE740739FF8E828F83A3A3A3E0700398
:10260C00022700906060E0C0E0EE2468F582EF34B1
:10261C0000F583D0E0F0750C7A750D08750800751F
:10262C000900E5D914F50AE5D95403F50E601774C1
:10263C0003650E605CE50A6010EE2467F582EF34EA
:10264C0000F583E070030226E5900875E0640160F4
:10265C002AEE2482F582EF3400F583E060047804DE
:10266C0080027800850A08E508C398FA95E0FB1209
:10267C0016408A088B09EA45097005121976807490
:10268C00EE2482F582EF3400F583E070048A0C8B23
:10269C000DE50A6012850C82850D83F50BE5D9F0EA
:1026AC00A3150BE50B70F6EE2482F582EF3400F5E2
:1026BC0083E0604474FC250AF50A780C12215BACAB
:1026CC000AA90EEEFAEFFB12180E7402121F07E99C
:1026DC007026AA08AB09120F62793D8E828F83A3F4
:1026EC00A3A3A3E0FA7B00121514EEFAEFFB12176A
:1026FC008A121820790080747403650E6056850A5E
:10270C0010751100781012215BAC0CAD0DAA08AB42
:10271C00091217EA7402121F07EE2468F582EF34CF
:10272C0000F583E064807004747F8001E0F50C7820
:10273C000C12215FE50EF50C780C12215FA90AAC86
:10274C0008AD09900705E0FA7B001214D874021248
:10275C001F0780139006D7E06408600BAC0CAD0D1E
:10276C00EEFAEFFB12187A12198279017F0A022015
:10277C006074F5121FB474FC121EF1EAFEEBFF89B3
:10278C0008A2AFE433F509C2AF806AEE2463F8EF18
:10279C003400F97A007B00A2AFE433F50AC2AF88AB
:1027AC00828983E0FCA3E0FDEC4D603A888289834A
:1027BC00E0FAA3E0FB8A828B83E0FCA3E0FD888235
:1027CC008983ECF0A3EDF08A828B83E4F0A3F0888C
:1027DC00828983E0FCA3E0FDEC4D700A888289833A
:1027EC00A3A3E4F0A3F0E50AA2E092AF120F62906B
:1027FC000818E004F0EE2463F582EF3400F583E072
:10280C00F8A3E0F9E849603DEE2463F582EF34006B
:10281C00F583E02402FAA3E03400FBEA2402F50A73
:10282C00EB3400F50B780A12215B8A828B83E0FC77
:10283C00A3E0F9EEFAEFFB1217AE7402121F07E9D0
:10284C007003022797900818E06063900819E0F86D
:10285C00900818E0C398500C7402650870509008EA
:10286C001AE0604A8E828F83A3A3A3A3E08518820B
:10287C00851983F0A3E4F0900818E0F87402121F95
:10288C003CE8F0A3E4F0900818E0F8900817E02872
:10289C00F07402121F3CAC82AD83851882851983BB
:1028AC00AA82AB8379011214E4900818E4F0E509CC
:1028BC00A2E092AF7404121F0702240485218785BD
:1028CC0022C622C0E0C0D0E8C0E0E9C0E0EAC0E027
:1028DC00EBC0E0ECC0E0EDC0E0EEC0E0C008C00929
:1028EC00C00AC00BC082C083C0F0A2AFE433FEC2EA
:1028FC00AF759B00906182E0A2E05012E591A2E0DE
:10290C00500C7591FE7401652170031225D0E0A264
:10291C00E55051E591A2E5504B7591DF9006D7E05B
:10292C0064076005E06408702374016521703579D3
:10293C0001900705E0FA75F003A4CAA8F028FB740F
:10294C00072AFA74073BFB12277D8018E0640D7090
:10295C00139006F9E004F064287002E4F07A00E0C9
:10296C00F9121988906182E0A2E64003022A16E56A
:10297C0091A2E64003022A167591BF9006D7E06437
:10298C000570081218B01218BC80031218B6752105
:10299C0000121916E99006D8F0790012190A1216CD
:1029AC00E87A017B009006D6E0F9120ADC907803F5
:1029BC00E064427055900879E014F0704DC2AF128B
:1029CC0029CE00782AD0E0F618D0E0F6E59F54071F
:1029DC0070057509FF800375097FC4C0E07829E68E
:1029EC00F50808E65509F509740B7808121ECFD0C6
:1029FC00E02508F8906270E0A2E740F8E8C3339055
:102A0C006272F0906270E0D2E0F0906181E0A2E33B
:102A1C005009E5E9A2E3500375E9F7A3E0A2E750FA
:102A2C0009E591A2E7500375917FEEA2E092AFD039
:102A3C00F0D083D082D00BD00AD009D008D0E0FEE1
:102A4C00D0E0FDD0E0FCD0E0FBD0E0FAD0E0F9D053
:102A5C00E0F8D0D0D0E032C0E0C0D0C082C08390CB
:102A6C006183E0A2E05009E5BFA2E0500375BFFE10
:102A7C00E0A2E15009E5BFA2E1500375BFFDE0A261
:102A8C00E25009E5BFA2E2500375BFFBE0A2E350A0
:102A9C0009E5BFA2E3500375BFF7E0A2E45009E5D6
:102AAC00BFA2E4500375BFEFE0A2E55009E5BFA259
:102ABC00E5500375BFDFE0A2E65009E5BFA2E65082
:102ACC000375BFBFD083D0828088C0E0C0D0E8C07F
:102ADC00E0E9C0E0EAC0E0EBC0E0ECC0E0EDC0E053
:102AEC00C0F0E5A7A2E6500FE5A1A2E6500953A756
:102AFC00BF75A1BF122B3BE5A7A2E5500CE5A1A227
:102B0C00E5500653A7DF75A1DFE5A7A2E15009E563
:102B1C00A1A2E1500375A1FDE5A7A2E2500CE5A12D
:102B2C00A2E2500653A7FB75A1FBD0F0022A4C740D
:102B3C00F8121FB47521019006D7E06406701512C7
:102B4C00183E8A828B83A3A3A3A3A3A3E0FAA3E0DA
:102B5C00FB12189EA2AFE433FED2AF9006DDE06408
:102B6C000170187A207B009006D6E0F9120B6C7A73
:102B7C00207B009006D6E0F9120AE2906182E0D246
:102B8C00E6F0900876E0602185C62280169006DC7F
:102B9C00E064017008E5C654F84405F5C653BEFC64
:102BAC001228C87401652160E4EEA2E092AF7F01A7
:102BBC00022060008E238F24858228858327851828
:102BCC0082851983E0CEA3E0CF852882852783EB0D
:102BDC00C9EAC8EDCBECCA75F010C3E833C8E933C9
:102BEC00C9EA33CAEB33CBC3EA9EF526EB9FF52536
:102BFC00B35004AB25AA26EC33CCED33CDD5F0DAAB
:102C0C00AE23AF242274E9121FB474F8121EF1859E
:102C1C001882851983ECF0A3EDF08A088B099006D5
:102C2C00D7E024F7C394055006750801022DA812AD
:102C3C00183E8A0A8B0BAE0AAF0BEE4F7003022DB7
:102C4C00A5AC08AD097402121F3CAA82AB83121802
:102C5C00CE8E828F83A3A3750CFF750DFF750EFFAF
:102C6C00750F00780C121D887402121F3C7510FF32
:102C7C007511FF7512FF7513007810121D88780CF2
:102C8C007910121BAD502A780C7910121D4D750855
:102C9C00017509C8750A00750B007808790C121BB0
:102CAC00AD5052850C08850D09850E0A850F0B80D9
:102CBC00507514017515C875160075170085100828
:102CCC0085110985120A85130B7808790C121D4D94
:102CDC0078147908121BAD401C7508007509007535
:102CEC000A00750B0178087910121D4D7808790CC3
:102CFC00121D14800C750801750900750A00750BFE
:102D0C000074097808121CF5750C19F50DF50EF503
:102D1C000F7808790C121C6C8E828F83A3A3A3A34B
:102D2C00A3A3E0F8A3E0F97AD07B03121E66880C0B
:102D3C00890DE4F50EF50F7808790C121D14740644
:102D4C00121F3CE0F8A3E0F97AD07B03121E66E870
:102D5C00FA8A0CE4F50D7808790C121BAD50077843
:102D6C0008790C121D4D9006D7E06408600AE064E7
:102D7C00066005E06405702D750C0D780C79081251
:102D8C001BAD4021750CF4750DFF750EFF750FFF13
:102D9C007808790C121D14800C75080075090075E3
:102DAC000A00750B00851882851983E0F8A3E0F5FD
:102DBC008388827808121DD07408121F077F1002B6
:102DCC00206074F7121FB41218E0900874E06401CC
:102DDC007010906245E4F0A3F053F4F343FE0C53EF
:102DEC0090F312188CE5C654804449F5C6E59E5400
:102DFC007F644970F8906185740FF0900872E0F46C
:102E0C007002A3E0604E900873E0600814601B141D
:102E1C00602E8040750801750900900872E07808F2
:102E2C00121EDEE508F45280802A7508017509002F
:102E3C00900872E07808121EDEE508F452908014B7
:102E4C00750801750900900872E07808121EDEE51D
:102E5C0008F452A079007F0202206074F7121FB4AC
:102E6C00E9FEEAFF74016E700C7A807B009006D646
:102E7C00E0F9120ADC903194E493F46008E493F9DD
:102E8C001216DC800953C680E59E547F70FA121826
:102E9C0092900874E0640170031216F4900872E0CA
:102EAC00F47002A3E0604B900873E0600814601AA1
:102EBC0014602C803D750801750900900872E0784B
:102ECC0008121EDEE508428080287508017509008D
:102EDC00900872E07808121EDEE5084290801375A7
:102EEC000801750900900872E07808121EDEE508EA
:102EFC0042A01218E012183E8A088B09A808A909EA
:102F0C00E8496015E5E170FCE82414F582E9340029
:102F1C00F583E0F46003E0F5E174016F700A7A0167
:102F2C009006D6E0F9120B36022E6274ED121FB425
:102F3C008A088B098C0A8D0B7413121F3C780C12A7
:102F4C001DC17808790C121BAD7510017511C8756F
:102F5C00120075130050127808790C121D4D781060
:102F6C007908121BAD50168010780C7908121D4D83
:102F7C007810790C121BAD40047901800279007F26
:102F8C000C02206074ED121FB48A088B098C0A8D18
:102F9C000B7413121F3C780C121DC1780C7908129B
:102FAC001BAD40117808790C121D4DAA08AB09AC69
:102FBC000AAD0B8022751000751100751200751387
:102FCC00017810790C121D4D78107908121D14AA75
:102FDC0010AB11AC12AD1380A68A828B837508FFDF
:102FEC007509FF750AFF750B007808121D9B7F048D
:102FFC0002206074F5121FB48C828D837808121D28
:10300C00C18A828B837808121D61EA2404F8EB34A0
:10301C0000F98C828D83A3A3A3A3E0FCA3E0FD881D
:10302C00828983C3E09CF0A3E09DF088828983C3EE
:10303C00E09420A3E0944E40268A828B837508FF8F
:10304C007509FF750AFF750BFF7808121D3A8A8205
:10305C008B83A3A3A3A3E02420F0A3E0344EF002BF
:10306C002FE574F5121FB4E9FE90082CE0FAA3E0EA
:10307C00FBEEC333F8E433F9748828F5827488398D
:10308C00F583E02AF508A3E03BF509780812215BEB
:10309C007A407B427C0F7D00122BC07402121F07FA
:1030AC008A088B098C0A8D0B74107808121CDCAA08
:1030BC0008AB097F0402206074F1121FB48A0C8BD8
:1030CC000D8C0E8D0F740F121F3CE0FAA3E0FB74F5
:1030DC0011121F3CE0F508A3E0F509780812215BFA
:1030EC00EA2401F508EB3400F509E4F50AF50B7850
:1030FC000C7908121BEC750871750902780C7908AB
:10310C00121BECAA0CAB0DAC0EAD0F122BC0740243
:10311C00121F078B09EA450960047A0180027A00C4
:10312C00EC2AFCED3400FD7413121F3CE0F8A3E014
:10313C00F9E8FEE9FFECF8EDF97A717B02121E66F4
:10314C00880889098E828F837808121DD0ECF8EDDF
:10315C00F97A717B02121E668A088B09740578084D
:10316C00121EDE8E828F83A3A3A3A3E508F0A3E532
:10317C0009F07F08022060C082C083E9906000F0F3
:10318C00D083D08222020135FFFFFFFFFFFFFFFF3C
:10319C0074ED121F48746C121EF11209EC7C007D48
:1031AC00007E007F007410121F3CECF0A3EDF0A326
:1031BC00EEF0A3EFF0908B3F7808121DC174101243
:1031CC001F3C7808121BBD5014908B377808121DC9
:1031DC00C17410121F3C7808121D3A80D879001265
:1031EC0009F27B017A017910120A467906120A4C0F
:1031FC00120A52E9F5127B007A007900120A461283
:10320C000A0AE9F50F120A16E9F50E120A22E9F577
:10321C000D120A2EE9F50C7A7F79001209BC79009F
:10322C001209DA7A6879001209BC1209E67C007D71
:10323C00007E007F007410121F3CECF0A3EDF0A395
:10324C00EEF0A3EFF0908B477808121DC1741012AA
:10325C001F3C7808121BBD5014908B377808121D38
:10326C00C17410121F3C7808121D3A80D8750801E1
:10327C00780812215F750800780812215F79007CAC
:10328C00897D077A007B80120A647402121F07E999
:10329C0070030238227CC07D007A987B0A120A7077
:1032AC00E9700302381E79031209F879121209C267
:1032BC007904120986790112098C79031209927921
:1032CC00031209987903120A767900120A7C7900A4
:1032DC00120A10A90E120A1CA90D120A28A90C1206
:1032EC000A34750A00750B00750800E508C39404D0
:1032FC0040248508107511007402121F3CE0F87907
:10330C00002403F8E93400F9C3E51098E51199A2FB
:10331C00D265D033503A7458250AF582740B350BAC
:10332C00F583E0C0E08508107511008518828519B9
:10333C0083E5822510F582E5833511F583D0E0F025
:10334C000508E50A2401F50AE50B3400F50B809B12
:10335C00750900780912215F750901780912215F3E
:10336C007403121F3CE0F509780912215F740312F3
:10337C001F3CE0F97405121F3CE0FC7D0074061242
:10338C001F3CAA82AB83120A5E7403121F07E975F5
:10339C000800E508C39404402485081075110074D6
:1033AC0002121F3CE0F879002403F8E93400F9C359
:1033BC00E51098E51199A2D265D033503A7458258E
:1033CC000AF582740B350BF583E0C0E085081075A7
:1033DC001100851882851983E5822510F582E58315
:1033EC003511F583D0E0F00508E50A2401F50AE56E
:1033FC000B3400F50B809B750900780912215F7561
:10340C000901780912215F7403121F3CE0F5097859
:10341C000912215F7403121F3CE0F97405121F3C62
:10342C00E0FC7D007406121F3CAA82AB83120A5E7C
:10343C007403121F07E91209E01209FE8A108B119E
:10344C00AE10AF11E510A9107414121F3CAA82AB78
:10345C0083120A0479021209A4799C1209B07950DA
:10346C001209AA79001209B61209E079011209D4DD
:10347C007901120A3A120A40750800E508C394044F
:10348C0040248508107511007402121F3CE0F87975
:10349C00002403F8E93400F9C3E51098E51199A26A
:1034AC00D265D033503A7458250AF582740B350B1B
:1034BC00F583E0C0E0850810751100851882851928
:1034CC0083E5822510F582E5833511F583D0E0F094
:1034DC000508E50A2401F50AE50B3400F50B809B81
:1034EC00750900780912215F750901780912215FAD
:1034FC007403121F3CE0F509780912215F74031262
:10350C001F3CE0F97405121F3CE0FC7D00740612B0
:10351C001F3CAA82AB83120A5E7403121F07E97563
:10352C000800E508C3940440248508107511007444
:10353C0002121F3CE0F879002403F8E93400F9C3C7
:10354C00E51098E51199A2D265D033503A745825FC
:10355C000AF582740B350BF583E0C0E08508107515
:10356C001100851882851983E5822510F582E58383
:10357C003511F583D0E0F00508E50A2401F50AE5DC
:10358C000B3400F50B809B750900780912215F75CF
:10359C000901780912215F7403121F3CE0F50978C8
:1035AC000912215F7403121F3CE0F97405121F3CD1
:1035BC00E0FC7D007406121F3CAA82AB83120A5EEB
:1035CC007403121F07E9750800E508C3940440242E
:1035DC008508107511007402121F3CE0F879002464
:1035EC0003F8E93400F9C3E51098E51199A2D26506
:1035FC00D033503A7458250AF582740B350BF58389
:10360C00E0C0E0850810751100851882851983E5E6
:10361C00822510F582E5833511F583D0E0F005089D
:10362C00E50A2401F50AE50B3400F50B809B7509BE
:10363C0000780912215F750901780912215F740362
:10364C00121F3CE0F509780912215F7403121F3C2C
:10365C00E0F97405121F3CE0FC7D007406121F3C5F
:10366C00AA82AB83120A5E7403121F07E91209FEC9
:10367C008A108B11A810A911E8FEE9FFC3E8940386
:10368C00E9940040E8EEF97414121F3CAA82AB8353
:10369C00120A041209C8E9F509750800E508C39473
:1036AC000440248508107511007402121F3CE0F8C8
:1036BC0079002403F8E93400F9C3E51098E5119971
:1036CC00A2D265D033503A7458250AF582740B3562
:1036DC000BF583E0C0E08508107511008518828514
:1036EC001983E5822510F582E5833511F583D0E049
:1036FC00F00508E50A2401F50AE50B3400F50B800A
:10370C009B7401121F3CE0F510781012215F7401BC
:10371C00121F3CE0F97403121F3CE0FC7D007404A2
:10372C00121F3CAA82AB83120A587401121F071293
:10373C0009FE8A108B11A810A911E8FEE9FFC3E855
:10374C009403E9940040E8EEF97414121F3CAA8229
:10375C00AB83120A041209C8E9F509750800E508DB
:10376C00C3940440248508107511007402121F3C88
:10377C00E0F879002403F8E93400F9C3E51098E582
:10378C001199A2D265D033503A7458250AF5827437
:10379C000B350BF583E0C0E085081075110085181A
:1037AC0082851983E5822510F582E5833511F58331
:1037BC00D0E0F00508E50A2401F50AE50B3400F524
:1037CC000B809B751000781012215F75100178101A
:1037DC0012215F7403121F3CE0F510781012215F68
:1037EC007403121F3CE0F97405121F3CE0FC7D00D1
:1037FC007406121F3CAA82AB83120A5E7403121F5A
:10380C0007E97900120A3A1209E01209C8E97900AD
:10381C0080067902800279017494121F077F0B02D3
:10382C00201A74F7121F488C828D83E0F87900E41B
:10383C00C8F98C828D83A3E0FE7F00E82EF8E93F67
:10384C00F98A828B83E8F0A3E9F08C828D83A3A3A1
:10385C00A3A3E0F87900E4C8F98C828D83A3A3A319
:10386C00A3A3E0FE7F00E82EF8E93FF98A828B8360
:10387C00A3A3E8F0A3E9F08C828D83A3A3A3A3A355
:10388C00A3A3A3E0F87900E4C8F98C828D83A3A3E9
:10389C00A3A3A3A3A3A3A3E0FE7F00E82EF8E93F14
:1038AC00F98A828B83A3A3A3A3E8F0A3E9F0EC2409
:1038BC000CF582ED3400F583E0F87900E4C8F9ECFE
:1038CC00240DF582ED3400F583E0FE7F00E82EF840
:1038DC00E93FF98A828B83A3A3A3A3A3A3E8F0A354
:1038EC00E9F079007F0102201A74F3121F4874EC7E
:1038FC00121EF18908E5089002ACF07C047D007A78
:10390C001F7B00121136E9F5097405121F3C740176
:10391C00F0740E121F3C7401F0A37400F0740412C6
:10392C001F3C7401F0740C121F3C742FF0A3740133
:10393C00F0740A121F3C743FF0A37401F074081267
:10394C001F3C7404F0A37400F07406121F3C7458EE
:10395C00F0A37402F07405121F3CAC82AD837901A4
:10396C007A057B03120FF2E9740E121F3CAC82AD88
:10397C008379027A067B03120FF2E97C877D0B793F
:10398C00157A087B03120FF2E97C9C7D0B79177A70
:10399C00077B03120FF2E97404121F3CAC82AD8357
:1039AC0079017A107B03120FF2E9740C121F3CACF4
:1039BC0082AD8379027A117B03120FF2E9740A1239
:1039CC001F3CAC82AD8379027A127B03120FF2E9B1
:1039DC007408121F3CAC82AD8379027A137B0312FC
:1039EC000FF2E97406121F3CAC82AD8379027A1493
:1039FC007B03120FF2E97CB37D0B7A04790012126F
:103A0C00B0E97E407F06EEFCEFFD7A067B001211DA
:103A1C0036E9EEFCEFFD7A077B00121136E9EEFC7D
:103A2C00EFFD7A087B00121136E9EEFCEFFD7A0906
:103A3C007B00121136E97A007B007C007D0074104B
:103A4C00121F3CEAF0A3EBF0A3ECF0A3EDF074032F
:103A5C00121F3C7401F07402121F3C7401F07401CB
:103A6C00121F3C7400F08518828519837401F07460
:103A7C0010121F3CAC82AD8379047A087B04120CC3
:103A8C009EE97403121F3CAC82AD8379017A007BF2
:103A9C0004120C9EE97402121F3CAC82AD837901B6
:103AAC007A027B04120C9EE97401121F3CAC82ADAD
:103ABC008379017A037B04120C9EE985188285199F
:103ACC0083AC82AD8379017A067B04120C9EE9905B
:103ADC008B53121DDF1212B6E9908B53121DDF129D
:103AEC0013C4E9120C86E9908B53121DDF120F38A8
:103AFC00E9908B53121DDF120ED8E9908B53121DD7
:103B0C00DF120C5CE97A007903120E72E9120E06D0
:103B1C007ACD7B0B120F3EE9F50A7ACF7B0B120E96
:103B2C00DEE9F50B7AD17B0B120C62E9F50C7AD33A
:103B3C007B0B1210047A017B009002ACE0F9120AA4
:103B4C00DCE97414121F077F0502201A74F0121F8F
:103B5C004874F8121EF18909EAFEEBFFEE5400F8E6
:103B6C00EF5480F9E84960329002ACE0F9120AC4D3
:103B7C008A0C8B0DA80CA90D880A890BE849600FDB
:103B8C00AA0AAB0B120BE4AA0AAB0B120AB2E9EEAF
:103B9C006400FAEF6480FB0244E1EE5480601B90F9
:103BAC0002EFE0600AC2AF75C9AB75C95B80FEEE6F
:103BBC006480FAEF6400FB0244E1EEA2E050227A4A
:103BCC00C97B0B120FFEE9F5087A367B03120CBC8D
:103BDC00120D76120F02EE6401FAEF6400FB024440
:103BEC00E1EE5400F8EF5404F9E84960167C107DBE
:103BFC00007AC87B02120C4AEE6400FAEF6404FBF4
:103C0C000244E1EE540460569002AFE0602B120BBC
:103C1C00FC900BB9E0F50CA3E0F50DE4F50EF50FF7
:103C2C00780C1221577A047B009002ACE0F9120B4D
:103C3C00607404121F07E9801A7D037C0079007AF6
:103C4C00107BAA120C447D017C0079017A107BAAAE
:103C5C00120C44EE6404FAEF6400FB0244E1EE54EF
:103C6C0000F8EF5401F9E8497003023D9F9002B04F
:103C7C00E07003023D949002EBE064016008900256
:103C8C00EBE064027023908B5F12216E7A007B0153
:103C9C009002ACE0F9120B607404121F07E9EE6499
:103CAC0000FAEF6401FB0244E19002EB7403F012A2
:103CBC0009C8E9900335F01209FE9002F3EAF0A36B
:103CCC00EBF0900335E0A2E4400E9002F3E06400C8
:103CDC007004A3E0640470261209E0908B63122137
:103CEC006E7A007B019002ACE0F9120B6074041246
:103CFC001F07E9EE6400FAEF6401FB0244E1900354
:103D0C0035E0A2E150539002F3C082C083900BC700
:103D1C00E0F8A3E0F9D083D082C3E098A3E09950F7
:103D2C000D1209FE9002F3EAF0A3EBF080D8900B91
:103D3C00C7E0F8A3E0F9E8F97AF57B02120A0490DF
:103D4C000BC7E0F8A3E0F99002F3C3E098F0A3E00E
:103D5C0099F07AF57B02120C02900BC3E0F50CA3E0
:103D6C00E0F50DE4F50EF50F780C1221577A007B77
:103D7C00019002ACE0F9120B607404121F07E99079
:103D8C0002EB7400F01209E0EE6400FAEF6401FB40
:103D9C000244E1EE5400F8EF5408F9E849602C12A3
:103DAC000BCCE97901120A3A908B6712216E7A00DA
:103DBC007B019002ACE0F9120B607404121F07E94E
:103DCC00EE6400FAEF6408FB0244E1EE5400F8EFF5
:103DDC005402F9E8497003023EF59002B1E0640127
:103DEC006003023EEA9002EBE0640160089002EB93
:103DFC00E064037023908B5F12216E7A007B02903B
:103E0C0002ACE0F9120B607404121F07E9EE6400B7
:103E1C00FAEF6402FB0244E19002EB7402F09002B0
:103E2C00EEE0700F9002E9E0FAA3E0FB7900120CCF
:103E3C0008801D9002E9E0FAA3E0FBEA2401F8EB0C
:103E4C003400F99002E9E8F0A3E9F07901120C08CA
:103E5C009002EEE07020908B5F12216E7A007B0254
:103E6C009002ACE0F9120B607404121F07E9900287
:103E7C00EE7401F080689002E9C3E0940EA3E09424
:103E8C0000A2D265D03340389002EB7400F090025F
:103E9C00E97400F0A37400F0900BC5E0F50CA3E0FE
:103EAC00F50DE4F50EF50F780C1221577A007B0214
:103EBC009002ACE0F9120B607404121F07E9801831
:103ECC00908B6B12216E7A007B029002ACE0F9129F
:103EDC000B607404121F07E99002EE7400F0EE649C
:103EEC0000FAEF6402FB0244E1EE5400F8EF544098
:103EFC00F9E84970030240259002B5E0700BEE64BE
:103F0C0000FAEF6440FB0244E19002EBE0640160D4
:103F1C00089002EBE064037023908B6F12216E7A91
:103F2C00007B409002ACE0F9120B607404121F0786
:103F3C00E9EE6400FAEF6440FB0244E19002EB749A
:103F4C0002F09002E7E0F97401299002E7F07402A4
:103F5C00121F3CAA82AB83120D82E99002E8E0703A
:103F6C00267C307D0079FF7AB77B02120AA0900282
:103F7C00B774AAF09002B874BBF09002B974BBF09D
:103F8C009002E8E02403F07402121F3CE0C0E090C1
:103F9C0002E8E0F8790074B728F582740239F583E9
:103FAC00D0E0F09002E8E02401F07403121F3CE032
:103FBC00C0E09002E8E0F8790074B728F58274024A
:103FCC0039F583D0E0F09002E8E02401F09002E7AC
:103FDC00E0C3940840209002E77400F0908B4B12E1
:103FEC00216E7A007B209002ACE0F9120B60740415
:103FFC00121F07E98018908B7312216E7A007B4098
:10400C009002ACE0F9120B607404121F07E9EE6425
:10401C0000FAEF6440FB0244E1EE5400F8EF542048
:10402C00F9E84970030241DA9002B5E0700BEE64D6
:10403C0000FAEF6420FB0244E19002EBE0640160C3
:10404C00089002EBE064037023908B6F12216E7A60
:10405C00007B209002ACE0F9120B607404121F0775
:10406C00E9EE6400FAEF6420FB0244E1908C0FC08F
:10407C0082C083851882851983AC82AD83D083D0AE
:10408C00827402121E049002E7E0F9740129900276
:10409C00E7F0851882851983AA82AB83120F14E985
:1040AC00851882851983E0C0E09002E8E0F8790079
:1040BC0074B728F582740239F583D0E0F09002E8E9
:1040CC00E02401F07401121F3CE0C0E09002E8E033
:1040DC00F8790074B728F582740239F583D0E0F0D2
:1040EC009002E8E02401F09002E7E0C3940850034A
:1040FC000241B79002E8E0F8790074B728F58274B1
:10410C000239F583740DF09002E8E02401F090027E
:10411C00E8E0F8790074B728F582740239F58374F5
:10412C000AF09002E8E02401F07C137D007AB77B62
:10413C0002120C4A7A007B007C007D007404121F72
:10414C003CEAF0A3EBF0A3ECF0A3EDF0908B5F78DE
:10415C000C121DC17404121F3C780C121BBD5014A0
:10416C00908B37780C121DC17404121F3C780C1202
:10417C001D3A80D87C127D007ACA7B02120C4A90C0
:10418C0002E77400F09002E87400F09002EB740007
:10419C00F0908B7712216E7A007B409002ACE0F9A4
:1041AC00120B607404121F07E98018908B73122194
:1041BC006E7A007B209002ACE0F9120B6074041252
:1041CC001F07E9EE6400FAEF6420FB0244E1EE54B1
:1041DC000260199002B6E0FC7D007AB77B02120CEB
:1041EC004AEE6402FAEF6400FB0244E1EE540870FC
:1041FC00030242C49002B3E0700302429F9002EBB0
:10420C00E0640360089002EBE064027023908B5F23
:10421C0012216E7A087B009002ACE0F9120B6074EC
:10422C0004121F07E9EE6408FAEF6400FB0244E194
:10423C009002EB7401F09002EDE0F9120E0CE9F52E
:10424C00089002EDE064027029120C149002ED74D7
:10425C0000F09002EB7400F0900BBB12216E7A0808
:10426C007B009002ACE0F9120B607404121F07E99A
:10427C00803B9002EDE02401F0908B7B12216E7A52
:10428C00087B009002ACE0F9120B607404121F075B
:10429C00E9801A7D047C0079007A207BAA120C44F8
:1042AC007D017C0079017A207BAA120C44EE640813
:1042BC00FAEF6400FB0244E1EE5410606C9002AE25
:1042CC00E0603E120E84E964027005120C0E800947
:1042DC00120E84E97003120E8A900BB7E0F50CA352
:1042EC00E0F50DE4F50EF50F780C1221577A107BE2
:1042FC00009002ACE0F9120B607404121F07E98005
:10430C001D120E907D067C0079007A307BAA120C6F
:10431C00447D017C0079017A307BAA120C44EE6456
:10432C0010FAEF6400FB0244E1EE542070030243E8
:10433C00CF9002B2E0605A9002ECE060319002EC57
:10434C007400F0120C1A900BBFE0F50CA3E0F50D05
:10435C00E4F50EF50F780C1221577A207B009002B1
:10436C00ACE0F9120B607404121F07E9804A90024A
:10437C00EC7401F0120D9A908B7F12216E7A207BD7
:10438C00009002ACE0F9120B607404121F07E98074
:10439C00277D047C0079007A407BAA120C447D01B5
:1043AC007C0079017A407BAA120C447D107C007948
:1043BC00037A407BAA120C44EE6420FAEF6400FBF3
:1043CC000244E1EE5440700302449E120DF4E9F5F0
:1043DC00089002B4E07003024477E508702690025E
:1043EC00F0E0F9120DFA120DDC908B8B12216E7A23
:1043FC00407B009002ACE0F9120B607404121F07B2
:10440C00E90244949002F1E0600E9002F0E0F9129F
:10441C000DFA9002F17400F074026508702F120C02
:10442C0020900BC1E024C4F50CA3E034FFF50DE49F
:10443C00F50EF50F780C1221577A407B009002ACE8
:10444C00E0F9120B607404121F07E9803B120DEEA9
:10445C00E9908B8B12216E7A407B009002ACE0F9D4
:10446C00120B607404121F07E9801D120DE27D0609
:10447C007C0079007A507BAA120C447D017C007977
:10448C00017A507BAA120C44EE6440FAEF6400FBF4
:10449C008043EE5400F8EF5410F9E8496033750A84
:1044AC0058750B02780A12215B750A04750B00789B
:1044BC000A12215B79027C3F7D017A2F7B0112105D
:1044CC003A7404121F07E9EE6400FAEF6410FB80E3
:1044DC00047A007B007408121F077F0802201A74EC
:1044EC00F7121F48EAFEEBFF8E828F83E064C070E8
:1044FC00148E828F83A3A3A3E0FA8E828F83A3A34F
:10450C00E0F9120BEA7F0102201A74F7121F4874AB
:10451C00FC121EF1E9FEEAFF8518828519837400EE
:10452C00F0EFA2E040030245D79002EF7401F09047
:10453C008B8312216E7A807B009002ACE0F9120B17
:10454C00607404121F07E99002F2E0706F9002ADE4
:10455C00E06405603E7403121F3CAC82AD837A05A7
:10456C007B03120FF8E97403121F3CE0700A74010C
:10457C00121F3C7401F080087401121F3C7400F08F
:10458C007401121F3CAC82AD8379017A057B031256
:10459C000FF2E99002ADE0640570307402121F3C1A
:1045AC007401F012100AE97402121F3CAC82AD8344
:1045BC0079017A057B03120FF2E9800FEFA2E0502C
:1045CC000A851882851983E0D2E2F0EFA2E1500A45
:1045DC00851882851983E0D2E0F0EFA2E2500A85BB
:1045EC001882851983E0D2E1F0EFA2E04006900238
:1045FC00EF7400F0851882851983AC82AD837A0143
:10460C007900121040E97404121F077F0102201A6E
:10461C00C082C0839002B0E060069002B07400F0DB
:10462C009002B5E060069002B57400F09002B3E021
:10463C006009120E069002B37400F09002B1E060B3
:10464C00069002B17400F0D083D08202013574F46C
:10465C00121F4874E2121EF1E9FEEE14601614707B
:10466C000302481314700302483024FE70030248FE
:10467C001D024833851882851983AC82AD837A0478
:10468C007B03120FF8E975080875090078081221E8
:10469C005B7402121F3CAC82AD837418121F3CAACF
:1046AC0082AB83120A887402121F077405121F3C16
:1046BC00E0C0E07407121F3CD0E0F07404121F3C01
:1046CC00E0C0E07406121F3CD0E0F07403121F3CF3
:1046DC00E0C0E07405121F3CD0E0F07404121F3CE3
:1046EC007400F07403121F3C7400F0851882851955
:1046FC0083AC82AD837A087900120C8CE9908C0D16
:10470C00C082C0837408121F3CAC82AD83D083D0AE
:10471C0082740E121E047F00750905E509C394000E
:10472C00A2D265D0335003024800E509F83395E076
:10473C00F97416121F3CE58228F582E58339F5835E
:10474C00E0F508E508C3940A506B7C0B7D8CEFF800
:10475C007900E875F002A4C8AAF075F000A42AFA52
:10476C0075F002E9A42AF97408121F3CE58228FAB4
:10477C00E58339FB121B8C7910EFFA7B00EA75F09C
:10478C0002A4CAA8F075F000A428F875F002EBA4F6
:10479C0028FB7408121F3CE5822AF582E5833BF561
:1047AC0083A3AC82AD8385080A750B00AA0AAB0BF8
:1047BC00120B9080357910EFFA7B00EA75F002A4A9
:1047CC00CAA8F075F000A428F875F002EBA428FB39
:1047DC007408121F3CE5822AFCE5833BFD85080A20
:1047EC00750B00AA0AAB0B120B900F74FF2509F581
:1047FC00090247277408121F3CAC82AD837A0C79EE
:10480C0002120C8CE980207A017901120E72E98077
:10481C00167A007901120E72E99002EB7400F01214
:10482C000C2C8003120BF0EE9002ADF0741E121FD4
:10483C00077F0402201AC082C08374FD121EF1850A
:10484C001882851983AA82AB83120D8EE9601285BA
:10485C001882851983AC82AD837A037900120C50CF
:10486C00E97403121F07D083D08202013574F4124D
:10487C001F4874D1121EF1EAFEEBFF7404121F3CA8
:10488C007400F0A37400F07402121F3C7400F0A3C7
:10489C007400F08518828519837400F0A37400F0FD
:1048AC0085188285198385820885830978081221E9
:1048BC005B7404121F3CAC82AD837406121F3CAABD
:1048CC0082AB831209CE7402121F07EEFCEFFD744B
:1048DC0006121F3CAA82AB83120BD2E97404121F7E
:1048EC003CE0F508A3E0F50974087808121EBFE552
:1048FC0008740F121F3CE508F07404121F3CE0F81A
:10490C00A3E0F9E8C0E0740E121F3CD0E0F0740292
:10491C00121F3CE0F508A3E0F50974087808121E94
:10492C00BFE5087411121F3CE508F07402121F3C1D
:10493C00E0F8A3E0F9E8C0E07410121F3CD0E0F0FE
:10494C00851882851983E0F508A3E0F509740878C9
:10495C0008121EBFE5087413121F3CE508F08518F9
:10496C0082851983E0F8A3E0F9E8C0E07412121F05
:10497C003CD0E0F07406121F3CE0F508A3E0F5090A
:10498C0074087808121EBFE5087415121F3CE50860
:10499C00F07406121F3CE0F8A3E0F9E8C0E07414D0
:1049AC00121F3CD0E0F07408121F3CE0F508A3E0A5
:1049BC00F50974087808121EBFE5087417121F3C1D
:1049CC00E508F07408121F3CE0F8A3E0F9E8C0E039
:1049DC007416121F3CD0E0F0740A121F3CE0F5086C
:1049EC00A3E0F50974087808121EBFE508741912C3
:1049FC001F3CE508F0740A121F3CE0F8A3E0F9E84C
:104A0C00C0E07418121F3CD0E0F0740C121F3CE094
:104A1C00F508A3E0F50974087808121EBFE50874C0
:104A2C001B121F3CE508F0740C121F3CE0F8A3E0CD
:104A3C00F9E8C0E0741A121F3CD0E0F0741C121F8D
:104A4C003C74AAF0741D121F3C74BBF0741E121F30
:104A5C003C74AAF075080E750900780812215B7475
:104A6C0010121F3CAC82AD837421121F3CAA82AB86
:104A7C0083120A887402121F078A0A8B0B850A0894
:104A8C00850B09742D121F3C740DF0742E121F3CF3
:104A9C00740AF07C137D00741C121F3CAA82AB8339
:104AAC00120C4A742F121F077F0402201A74F01282
:104ABC001F48748C121EF1890B8A08908AC6C0821A
:104ACC00C0837404121F3CAC82AD83D083D082743B
:104ADC0008121E04908AF6C082C083746C121F3CAC
:104AEC00AC82AD83D083D0827408121E04908AEEFF
:104AFC00C082C0837464121F3CAC82AD83D083D05F
:104B0C00827408121E04908AE6C082C083745C1200
:104B1C001F3CAC82AD83D083D0827408121E0490EB
:104B2C008ADEC082C0837454121F3CAC82AD83D029
:104B3C0083D0827408121E04908A7EC082C0837453
:104B4C004C121F3CAC82AD83D083D0827408121EF1
:104B5C0004908ACEC082C0837444121F3CAC82ADD8
:104B6C0083D083D0827408121E04908AB6C082C08F
:104B7C0083743C121F3CAC82AD83D083D08274080A
:104B8C00121E04908AAEC082C0837434121F3CACD7
:104B9C0082AD83D083D0827408121E04908AA6C082
:104BAC0082C083742C121F3CAC82AD83D083D08224
:104BBC007408121E04908A9EC082C0837424121F33
:104BCC003CAC82AD83D083D0827408121E04908AD0
:104BDC0096C082C083741C121F3CAC82AD83D08300
:104BEC00D0827408121E04908A8EC082C083741402
:104BFC00121F3CAC82AD83D083D0827408121E0489
:104C0C00908A86C082C083740C121F3CAC82AD8328
:104C1C00D083D0827408121E047404121F3CAE821E
:104C2C00AF83E508603914604214604B146054146F
:104C3C00605C14606414606C14607414607C147098
:104C4C0003024CD1147003024CDC147003024CE7C9
:104C5C00147003024CF2147003024CFD024D0874E4
:104C6C0004121F3CAE82AF83024D11746C121F3CB8
:104C7C00AE82AF83024D117464121F3CAE82AF83BF
:104C8C00024D11745C121F3CAE82AF83807774545A
:104C9C00121F3CAE82AF83806C744C121F3CAE82F0
:104CAC00AF8380617444121F3CAE82AF8380567414
:104CBC003C121F3CAE82AF83804B7434121F3CAE4F
:104CCC0082AF838040742C121F3CAE82AF83803540
:104CDC007424121F3CAE82AF83802A741C121F3CBA
:104CEC00AE82AF83801F7414121F3CAE82AF8380E0
:104CFC0014740C121F3CAE82AF8380097404121F13
:104D0C003CAE82AF83E50B7015120BA8E9EEFAEFFF
:104D1C00FB120BC67A017944120BBA024EC1120B6C
:104D2C00A8E9EEFAEFFB120BC67A0079BE120BBAA9
:104D3C00120BC0E9F509120BC0E9F50AE50860038E
:104D4C00024DEF9002E87400F07C307D0079FF7A20
:104D5C00B77B02120AA09002E8E0F8790074B72839
:104D6C00F582740239F58374AAF09002E8E024010C
:104D7C00F09002E8E0F8790074B728F582740239F3
:104D8C00F58374BBF09002E8E02401F09002E8E0B7
:104D9C00F8790074B728F582740239F58374BBF086
:104DAC009002E8E02401F0E5099002E8E0F87900CF
:104DBC0074B728F582740239F583E509F09002E89E
:104DCC00E02401F0E50A9002E8E0F8790074B728D5
:104DDC00F582740239F583E50AF09002E8E02401CB
:104DEC00F0803AE5099002E8E0F8790074B728F50C
:104DFC0082740239F583E509F09002E8E02401F0B1
:104E0C00E50A9002E8E0F8790074B728F58274029C
:104E1C0039F583E50AF09002E8E02401F0740D65A1
:104E2C00086003024EC19002E8E0F8790074B728DC
:104E3C00F582740239F583740DF09002E8E02401D8
:104E4C00F09002E8E0F8790074B728F58274023922
:104E5C00F583740AF09002E8E02401F07C117D00E7
:104E6C007AB77B02120C4A7A007B007C007D0085AD
:104E7C001882851983EAF0A3EBF0A3ECF0A3EDF014
:104E8C00908B5F780C121DC1851882851983780C64
:104E9C00121BBD5015908B37780C121DC1851882D2
:104EAC00851983780C121D3A80D67C107D007AC847
:104EBC007B02120C4A7474121F077F0802201AC05E
:104ECC0082C08374FA121EF1851882851983AA8216
:104EDC00AB83120E96E96012851882851983AC8219
:104EEC00AD837A067900120F32E97406121F07D0CF
:104EFC0083D082020135C082C08374F5121EF17416
:104F0C0007121F3CAA82AB83120E12E9605C851853
:104F1C008285198374AAF07401121F3C74BBF0745F
:104F2C0002121F3C74CCF07409121F3CE0C0E074F8
:104F3C0003121F3CD0E0F0740A121F3CE0C0E07476
:104F4C0004121F3CD0E0F07405121F3C740DF07479
:104F5C0006121F3C740AF07C077D008518828519A7
:104F6C0083AA82AB83120C4A804A851882851983E6
:104F7C0074AAF07401121F3C74BBF07402121F3C33
:104F8C0074CCF07403121F3C7476F07404121F3C42
:104F9C007476F07405121F3C740DF07406121F3CED
:104FAC00740AF07C077D00851882851983AA82AB70
:104FBC0083120C4A740B121F07D083D08202013566
:104FCC00C082C08374FC121EF1851882851983AAD5
:104FDC0082AB83120DA0E96012851882851983AC0F
:104FEC0082AD837A047900120C56E97404121F07FF
:104FFC00D083D082020135C082C08374FA121EF1B4
:10500C00851882851983AA82AB83120DE8E9601298
:10501C00851882851983AC82AD837A067900120DCE
:10502C0070E97406121F07D083D08202013574F721
:10503C00121F4874FF121EF1E9FE1460051460592A
:10504C008061851882851983AA82AB837901120F3E
:10505C0044E9851882851983E0701B9002B0E060EA
:10506C00429002B07400F07A007B019002ACE0F93F
:10507C00120ADCE9802D9002B0E0700D7A007B0101
:10508C009002ACE0F9120ADCE9851882851983E0FC
:10509C009002B0F0120980800A7AC37B0B7902125D
:1050AC000F44E97401121F077F0102201AC082C04D
:1050BC00839002B5E0702A9002B57401F09002E87A
:1050CC007400F09002E77400F0908B8712216E7AD6
:1050DC00007B409002ACE0F9120B607404121F07C5
:1050EC00E9D083D08202013574F7121F4874FF1285
:1050FC001EF1E9FE146005146060806885188285D5
:10510C001983AA82AB837901120EEAE9851882858C
:10511C001983E070199002B3E060139002B374002D
:10512C00F07A087B009002ACE0F9120ADCE98518F1
:10513C0082851983E06401702B9002B3E070259096
:10514C0002B37401F09002ED7400F07A087B0090C9
:10515C0002ACE0F9120ADCE9800A7ABB7B0B79021B
:10516C00120EEAE97401121F077F0102201A74F073
:10517C00121F4874F8121EF1890A7401650A600343
:10518C00025239851882851983AA82AB8379011260
:10519C000C6EE9851882851983E0FA7B0074011284
:1051AC001F3CE0F87900E4C8F9EA28F8EB39F9E893
:1051BC00FEE9FF7402121F3CE0FA7B007403121F1D
:1051CC003CE0F87900E4C8F9EA28F8EB39F98808EA
:1051DC0089097404121F3CE0FA7B007405121F3C11
:1051EC00E0F87900E4C8F9EA28F8EB39F9880E8977
:1051FC000F7406121F3CE0FA7B007407121F3CE090
:10520C00F87900E4C8F9EA28F8EB39F9880C890D2B
:10521C00780C12215B780E12215B7902AC08AD0977
:10522C00EEFAEFFB12103A7404121F07E9740265D0
:10523C000A700412100AE97408121F077F08022072
:10524C001A74F4121F4874FA121EF1EAFEEBFF8C6A
:10525C00088D097412121F3CE0F50AA3E0F50BEE61
:10526C00851882851983F0EEF8EFF9E4E9F8C0E0CF
:10527C007401121F3CD0E0F0E5087402121F3CE5EB
:10528C0008F0A808A909E4E509A809E509740312BE
:10529C001F3CE509F0E50A7404121F3CE50AF0A86E
:1052AC000AA90BE4E50BA80BE50B7405121F3CE5F2
:1052BC000BF0851882851983AC82AD837A06790050
:1052CC00120C68E97406121F077F0402201A74F08E
:1052DC00121F488A0A8B0B89088C0C8D0985090EC4
:1052EC00750F00AA0EAB0F120B1E8A0E8B0FAE0E93
:1052FC00AF0FEE4F700302539A85090E750F00AC79
:10530C000EAD0FA90CEEFAEFFB120AA0850A0E8562
:10531C000B0F780E1221E50000060000AA41531075
:10532C00AA4F5320AA6B5330AA5D5340AA7953500D
:10533C00AA87539353EEFCEFFDAA09A908120F2C70
:10534C00E98044EEFCEFFDAA09A908120C50E98093
:10535C0036EEFCEFFDAA09A908120F32E98028EEFF
:10536C00FCEFFDAA09A908120EE4E9801AEEFCEF85
:10537C00FDAA09A908120C56E9800CEEFCEFFDAA57
:10538C0009A908120D70E9EEFAEFFB120B247F0845
:10539C0002201A74F3121F488A088B09ECFEEDFFE9
:1053AC00C3EE9415EF94004005750C148003EEF5D4
:1053BC000C90033A742EF0A37400F0E50C90033CAF
:1053CC00F0850C0A750B00780A12215BAC08AD094C
:1053DC007A3D7B03120A887402121F0779007C3A0B
:1053EC007D037A007B00121310E97F0502201A74EA
:1053FC00EE121F4874FA121EF18A0A8B0B8909EC03
:10540C00FEEDFF750800850A0C850B0D780C12213A
:10541C009F000410D456445465548454A554C65467
:10542C00E7541A553B55525580553E565F567F569C
:10543C00A956D456D456AB557401650970158E8295
:10544C008F83E0C39403500B8E828F83E0900E48C1
:10545C00F080037508180256FD7402650970138EEE
:10546C00828F83E0F8A3E0F9900E49E8F0A3E9F00D
:10547C0080037508180256FD7401650970158E823B
:10548C008F83E0C39402500B8E828F83E090039C39
:10549C00F080037508180256FD7401650970158EAD
:1054AC00828F83E0C39405500B8E828F83E0900330
:1054BC009DF080037508180256FD7401650970157E
:1054CC008E828F83E0C39402500B8E828F83E09088
:1054DC00039EF080037508180256FD741065097060
:1054EC0027750C10750D00780C12215BEEFCEFFD8E
:1054FC007A9F7B03120A887402121F078A0C8B0D89
:10550C00850C82850D8380037508180256FD740185
:10551C00650970158E828F83E0C39402500B8E82C6
:10552C008F83E09003AFF080037508180256FD746A
:10553C00016509700B8E828F83E0900E4CF0800316
:10554C007508180256FD740465097022908B437817
:10555C000C121DC18E828F83780C121BBD500F8EC6
:10556C00828F83121DDF9003B1121DEB800375082F
:10557C00180256FDE5097021121298E97013120DEC
:10558C0016E9F50C7950120FECE9F50D120D0480AB
:10559C000B9004447401F080037508180256FD74D6
:1055AC000765096003025638750E06750F00780EF4
:1055BC0012215B8E828F83A3AC82AD837402121F87
:1055CC003CAA82AB83120A8E7402121F078A108BBC
:1055DC001185100E85110F7C007D008518828519B0
:1055EC0083AA82AB838E828F83E0F9120CAAE9F531
:1055FC000CE50CC3940A502F121298E97015A90CE3
:10560C00120D1CE9F50D7950120FECE9F50E120D87
:10561C0004801C750D007445250CF5827404350D41
:10562C00F5837401F0800875080280037508180270
:10563C0056FD7401650970158E828F83E0C3940248
:10564C00500B8E828F83E09003B0F08003750818A6
:10565C000256FD7401650970158E828F83E0C39428
:10566C000A500B8E828F83E0900E4BF080037508EE
:10567C0018807E74016509701F8E828F83E0C3943D
:10568C000740158E828F83E0C39411500B8E828F4E
:10569C0083E0900E4DF080597508188054740165A4
:1056AC00097020900443E0F50C8E828F83E0900407
:1056BC0043F0E50C703B900443E064017033120D31
:1056CC0004802E7508188029C3E50A9427E50B94ED
:1056DC0000501B7402650970158E828F83E0FCA349
:1056EC00E0FDAA0AAB0B121136E9F5088003750828
:1056FC0002A9087406121F077F0A02201A74EC1202
:10570C001F4874DA121EF1890D8A128B138C0A8DC4
:10571C000B743A121F3CE0F50C908B04C082C083D2
:10572C00851882851983AC82AD83D083D0827406B0
:10573C00121E04851882851983AC82AD83AA12AB24
:10574C0013A90D120CAAE9FEEEC3940A40030258E9
:10575C00A8EEF9120CE6E9FF900E48E06402700422
:10576C00740180027400F508780812215FAD0CEF0B
:10577C00FCEEF9AA0AAB0B120D587401121F077C30
:10578C00147D0079007412121F3CAA82AB83120A9A
:10579C00A08A0E8B0F850E08850F097412121F3C00
:1057AC00AC82AD837A1075F006EEA42424F9120FA6
:1057BC00E6E970437C1079FF7412121F3CAA82AB8D
:1057CC0083120B00E970307422121F3CAC82AD8343
:1057DC007A0475F006EEA42425F9120FE6E9F50813
:1057EC007412121F3CAC82AD83EFA2E0E433F9AA31
:1057FC000AAB0B1211C0E97406121F3CAC82AD83CC
:10580C007A0C74702EF9120FE6E9707E7406121F72
:10581C003CAA82AB83120CDA750E00E50EC394041D
:10582C005068E50EA80E7900E875F003A4C8AAF03C
:10583C0075F000A42AFA75F003E9A42AF97406128B
:10584C001F3CE58228F508E58339F5098508828532
:10585C000983E0F8A3E0F9E849602B850882850903
:10586C0083A3A3E0F510751100781012215B850855
:10587C0082850983E0FCA3E0FDAA0AAB0B12142479
:10588C007402121F07E9050E8091EFA2E1500D90F2
:10589C00039BE0F9AA0AAB0B12142AE97404650CF9
:1058AC00700F900E48E064027007AA0AAB0B120D41
:1058BC005279007426121F077F0C02201A74F21200
:1058CC001F48890BEAFEEBFF8C088D09750A0AE567
:1058DC000B600C14600914604414606402596DEE82
:1058EC00FAEFFB120CF8E9F50AE50AC3940A5071B9
:1058FC00E5084509606B750C06750D00780C1221D6
:10590C005BEEFCEFFDAA08AB09120A887402121FA9
:10591C00078A0C8B0D850C82850D838044EEFAEF83
:10592C00FB120CF2E9F50AE50AC3940A5033E508B8
:10593C004509602DAA08AB09A90A120CECE98021D3
:10594C00EEFAEFFB120CFEE9F50AE50AC3940A50D5
:10595C0010E5084509600AAA08AB09A90A120CEC63
:10596C00E9A90A7F0602201A74F2121F488A0C8BCE
:10597C000DE9FE7F1574FF650C700474FF650D70E6
:10598C002A750800E508C3940A5014EEFC7A027BD1
:10599C0000A908120CC8E960027F00050880E5EE3A
:1059AC0060637A407B0D121622805AAA0CAB0D1242
:1059BC0016048A0A8B0B850A08850B09E50845092C
:1059CC0060417C007D00E5082405FAE5093400FB04
:1059DC00850882850983A3A3A3A3E0F9120CAAE985
:1059EC00F50AE50AC3940A500EEEFC7A027B00A974
:1059FC000A120CC8E97F00EE600BAA08AB09120D65
:105A0C004080027F14EFF97F0602201A74EE121FF9
:105A1C00488A0E8B0F8C0A8D0B7412121F3CE0F50A
:105A2C000CA3E0F50D75081574FF650E700474FF7A
:105A3C00650F701E7E00EEC3940A5062AC0CAD0D67
:105A4C00AA0AAB0BEEF9120CCEE960037508000E36
:105A5C0080E4AA0EAB0F1216048A108B11AE10AF95
:105A6C0011EE4F60367C007D00EE2405FAEF340019
:105A7C00FB8E828F83A3A3A3A3E0F9120CAAE9F5F2
:105A8C0009E509C3940A5016AC0CAD0DAA0AAB0B70
:105A9C00A909120CCEE97508008003750814A90831
:105AAC007F0A02201A74F7121F48EAFEEBFF9003DC
:105ABC00B5EEF0A3EFF090039BE0FC7D007A267B23
:105ACC0000121136E9F50890039BE0F91213A07F40
:105ADC000102201A74F2121F4874EC121EF18A0A89
:105AEC008B0B850A82850B83A3A3E024FA70030237
:105AFC005F4024FD7003025DB6147003025BD31487
:105B0C00601024FD7003025D5E147003025DF602EA
:105B1C005FAEAE0AAF0B9003B5E0F8A3E0F9E8492D
