:020000040000FA
:0600000002011D022B4F5E
:03002B0002240F9D
:030033000223E7BE
:03005300022BC2BB
:03006B0002238EDF
:03007B000223B6A7
:100083000229BBE5C754F84401F5C77901220000F2
:100093000080FB120086B90003020107E47921788E
:1000A30008B800028004F709D8FCE479297802B87B
:1000B30000028004F709D8FCE490028178F3790800
:1000C3008002F0A3D8FCD9FA781A90014D7A01BACC
:1000D30000028007E493A3F608DAF9900A73AA8270
:1000E300AB8390014E786379098015E493A3AC82C6
:1000F300AD838A828B83F0A3AA82AB838C828D83A8
:10010300D8E9D9E77582697583AA740412012F753A
:100113008291758300740012012F75D00075813FA1
:10012300751881751902759F00020096C09FF59F8F
:10013300E473D09F22D083D082C09FE493C0E07445
:100143000193C0E0740293F59F2201B009B609BC84
:1001530009C209C809CE09D409DA09E009E609EC9C
:1001630009F209F809FE09040A0A0A68FFFF037B7A
:10017300034CCD6C03AB0336567600680402CB47C1
:10018300A202180400058BC1010C04000000000347
:100193007F060CC92C979797038903264666006C44
:1001A300022000024004000000000244040000009A
:1001B3000002480400000000024C0400000000029A
:1001C3005004000000000254040000000002580420
:1001D30000000000025C040000000002BC040000F8
:1001E300000001EC0400004000037F060CC92C97BB
:1001F30097970402030D355D040904872D353D00EF
:10020300A3010000000001078601FE074105F1205C
:10021300283038077E01300746019A074704F12842
:100223003038076C04F1283038021602000101B29D
:1002330002FFFF0190040923A135016A02060001B0
:10024300600800000000000000000060044000009F
:10025300000162020000006004004000000B095628
:10026300756C7475726545676705122F013F01024E
:100273000A000201061302454501020304050607AD
:1002830008090A0B0C0D0E0F1045676700D007E82D
:1002930003E8037011E803E803D00760EA2A008645
:1002A3000C0000BC0CC80CCE0CD40CDA0C1241634D
:1002B30063656C2E2044617461000A416363656C5D
:1002C3002E20436F6E662E000A0A416363656C2E0F
:1002D30020506572696F6400025C8C010000458CDC
:1002E30002588C010000D50B10588A01000043030B
:1002F30002548C030000460302568C010000D60B07
:1003030002588C010000E20B10688A0300004C03C2
:1003130002568C010000E30B02588C010000F00B25
:1003230010788A030000F10B02568C010000F20BD7
:10033300124261726F6D2E2044617461000A426142
:10034300726F6D2E20436F6E662E00024261726FD4
:100353006D2E2043616C6962722E000A0A4261723B
:100363006F6D2E20506572696F6400025C8C010012
:10037300003C8C02588C010000580C10A88A010024
:10038300004D0302548C030000510302568C0100FC
:1003930000590C02588C010000650C10B88A030048
:1003A30000570302568C010000660C02588C0100B2
:1003B30000830C10388A030000840C02568C010061
:1003C30000850C02588C010000730C10888A010010
:1003D30000580302548C030000680302568C01008A
:1003E30000740C12436F6E6E2E20506172616D7338
:1003F3000008436F6E6E2E20506172616D73205240
:1004030065710008446973636F6E6E65637420528F
:10041300657100025C8C010000248C02588C010081
:10042300000B0D10188A010000700302548C0300A6
:1004330000760302568C0100000C0D02588C01005B
:1004430000190D10088A0200007C0302568C01007B
:10045300001A0D02588C0100002B0D10F8890200C0
:1004630000840302568C0100002C0D02020231327B
:100473003334353637383930313200020202020262
:1004830002010D0000001001025C8C010000368C9B
:1004930002588C010000930D027A8C010000850341
:1004A30002588C010000940D02768C010000948B9D
:1004B30002588C010000950D02748C010000960D0A
:1004C30002588C010000A40D02728C010000EE8A18
:1004D30002588C010000A50D02708C010000AD8B49
:1004E30002588C010000A30D026C8C0100006A8B82
:1004F30002588C010000A60D026A8C010000D98706
:1005030002588C010000A70D02688C010000C88A04
:1005130002588C010000A80D02668C010000A90D91
:1005230012447331386232302E2044617461000A00
:10053300447331386232302E20436F6E662E000AC8
:10054300D007447331386232302E20506572696FA0
:100553006400025C8C0100003F8C02588C01000097
:10056300480E10C8890100008F0302548C03000059
:10057300910302568C010000490E02588C010000C1
:10058300570E10B889030000970302568C01000030
:10059300580E02588C010000670E10A88903000052
:1005A300680E02568C0100006A0E01E803053F1035
:1005B3000A124779726F2044617461000A477972A5
:1005C3006F20436F6E662E000A0A4779726F2050C0
:1005D3006572696F6400025C8C010000218C025813
:1005E3008C010000D90E10888901000052040254C6
:1005F3008C030000580402568C010000DA0E0258E6
:100603008C010000E40E1078890300005E0402569A
:100613008C010000E50E02588C010000F00E1068FA
:1006230089030000F10E02568C010000F20E010353
:100633000080700061801248756D69642E204461EA
:100643007461000A48756D69642E20436F6E662ECF
:10065300000AD00748756D69642E20506572696F72
:100663006400025C8C010000338C02588C01000092
:100673005E0F104889010000C30402548C0300007C
:10068300C70402568C0100005F0F02588C01000062
:100693006B0F103889030000CD0402568C01000053
:1006A3006C0F02588C010000790F10288903000099
:1006B3007A0F02568C0100007C0F01481254656DBD
:1006C300702E2044617461000A54656D702E2043BE
:1006D3006F6E662E000A1E54656D702E2050657273
:1006E300696F6400025C8C010000428C02588C012B
:1006F3000000E40F100889010000CF0402548C03AA
:100703000000D30402568C010000E50F02588C014F
:100713000000F00F10F888030000D90402568C0182
:100723000000F10F02588C010000FD0F10E8880350
:100733000000FE0F02568C010000FF0F124D61678F
:100743006E2E2044617461000A4D61676E2E204352
:100753006F6E662E000A0A4D61676E2E2050657219
:10076300696F6400025C8C010000278C02588C01C5
:100773000000641010C888010000DA0402548C03DE
:100783000000E00402568C010000651002588C0141
:100793000000701010B888030000E60402568C01B4
:1007A3000000711002588C0100007D1010A888030E
:1007B30000007E1002568C0100007F10124D7075F0
:1007C300363035302E2044617461000A4D70753621
:1007D3003035302E20436F6E662E000AC8004D70F0
:1007E30075363035302E20506572696F6400025CB7
:1007F3008C010000398C02588C010000E410108831
:1008030088010000E90402548C030000F704025637
:100813008C010000E51002588C010000F3101078E1
:1008230088030000FD0402568C010000F4100258F6
:100833008C010000031110688803000004110256A4
:100843008C0100000611FF00013075030201060050
:100853000000000000000000000000000000000095
:100863000000000000000000000000FFFF06008001
:100873000CE803104B657920507265737320537431
:1008830061746500025C8C010000308C02588C019D
:1008930000009B1102648C000000AD0502548C0320
:1008A3000000AE0502568C0100009C11FF0000B44D
:1008B300000028002800283075A000A000A000A098
:1008C3000000080008E001F0001000100010001004
:1008D300001000100050005000500010001000D015
:1008E300070000000000000F00010005003075073D
:1008F300001000010081FF00000000FF28134613D1
:100903002E13FF02020208025000A0000000E803B9
:10091300025C8C0100002D8C02588C0100002B120C
:1009230002528C010000E60502588C0100002C12D3
:1009330002508C010000FC0502588C0100002D12AE
:10094300024E8C010000FE0502588C0100002E129D
:10095300024C8C080000FF0502588C0100002F1286
:10096300024A8C0100003012FF0100FF20025C8C60
:100973000100002A8C02588C010000941202488C5A
:10098300000000000002548C0300004C06FE18FE19
:1009930018FE18FE18FE18FE18FE18FE18FE18FEA4
:1009A30018FE18FE18FE18921BAA1B8C1B12013886
:1009B300F8C20312013844C3031201389AC3031265
:1009C30001383FC403120138F3C40312013812C5BE
:1009D3000312013831C5031201385FC50312013810
:1009E30092C5031201380BC60312013891C60312D4
:1009F300013831C703120138F6C70312013828C87A
:100A0300031201385DC8031201388BC80312013881
:100A130099F202120138B8F202120138DBF2021223
:100A2300013802F30212013829F30212013850F39C
:100A33000212013877F3021201389AF302120138D5
:100A4300BDF302120138E0F30212013803F402127B
:100A5300013835F40212013858F40212013882F4D5
:100A6300021201381EF50212013843F50212013851
:100A730068F5021201388DF502120138B2F502123F
:100A83000138D7F502120138FCF50212013823F6BA
:100A93000212013861F6021201388DF60212013892
:100AA300B9F602120138DEF60212013817F7021204
:100AB30001383EF70212013877F7021201389EF728
:100AC30002120138D7F702120138FEF70212013879
:100AD30023F80212013848F80212013886F802128C
:100AE3000138A9F802120138D3F802120138B2F919
:100AF300021201385AFB02120138AAFB0212013812
:100B0300D7FC02120138F6FC0212013819FD021259
:100B130001388DA603120138A2A603120138FAA6E2
:100B23000312013861A703120138A9A70312013880
:100B33001FA8031201384EA8031201385CA8031240
:100B43000138C0A803120138FEA80312013819A9FD
:100B530003120138B1A9031201385AAA031201384A
:100B6300DDAA0312013816AB03120138A1AB03123D
:100B73000138F8AB0312013857AC0312013869ACE2
:100B8300031201388FAC0312013898AC03120138F9
:100B9300F7AD03120138BB7E001201389A7F0012B1
:100BA3000138B08504120138F585041201383B86FB
:100BB30004120138CE8704120138BBA30412013892
:100BC300D6A304120138E6A3041201383DA404128B
:100BD3000138B8A804120138CBBC03120138EBBCAE
:100BE30003120138EFBD031201383BBE0312013873
:100BF3005BBE03120138AEBE031201381BBF0312E2
:100C0300013861BF03120138C5BF0312013877C22F
:100C130003120138138C04120138438C0412013877
:100C2300738C04120138368D04120138908D04122E
:100C33000138C39404120138DB9404120138389547
:100C4300041201387C9504120138AE950412013860
:100C5300E59504120138089604120138883200120F
:100C630001381A3900120138E139001201385E3CAB
:100C730000120138C34500120138EE450012013855
:100C8300F4460012013826470012013826490012A3
:100C930001385D49001201389D4B00120138AF4FF6
:100CA30000120138E64F00120138B050001201382B
:100CB300E750001201381E5100120138555100123D
:100CC3000138D45100120138F7510012013879521A
:100CD30000120138FF5200120138D25300120138BA
:100CE3005F540012013824550012013889A40412FC
:100CF3000138B89F0412013839E5031201388CE535
:100D030003120138A9E5031201387EE60312013804
:100D1300FBE603120138D8E7031201384DE9031249
:100D23000138E5CD031201380ACE0312013868CE2B
:100D33000312013897ED03120138EAED031201386B
:100D430013EE031201387CEE03120138BAEF0312DB
:100D5300013874F1031201385BA90412013880557C
:100D6300001201388E58001201384E5A0012013811
:100D7300F95A001201389D5B00120138365C0012EB
:100D83000138655C001201383F6100120138EA61E5
:100D9300001201385A6300120138C263001201388D
:100DA3007664001201383867001201387767001241
:100DB3000138EB67001201384A6800120138A9684C
:100DC300001201381869001201380B6A0012013849
:100DD300516A00120138966A00120138B96A00128A
:100DE3000138346C00120138476C00120138506D21
:100DF300001201388F6D00120138BB6D00120138EB
:100E03000E6E001201382F6E00120138736E00123D
:100E13000138C57000120138067100120138B17132
:100E2300001201381C720012013859730012013884
:100E33003FA504120138F88D04120138298E0412DB
:100E430001384D8E04120138508F04120138F2A17B
:100E530004120138D2A20412013837FF03120138F9
:100E630055FF03120138DEFF0312013814AC0412DC
:100E730001388C9E041201389C9E04120138AD9EE9
:100E830004120138B29F04120138008004120138A1
:100E9300A68004120138C282041201381288041297
:100EA3000138748804120138EC88041201389489DB
:100EB30004120138B38904120138C38904120138BA
:100EC300028A04120138AF9A04120138E99A041213
:100ED30001385C9B04120138969B04120138A89BCD
:100EE30004120138DF9B04120138239304120138E2
:100EF300729304120138A493041201383594041236
:100F03000138B19404120138DF97041201380898AC
:100F130004120138319804120138F198041201388F
:100F2300429904120138529604120138859604122C
:100F3300013801970412013821970412013886976A
:100F430004120138CE9704120138D19704120138E4
:100F53002FAC0412013841AC0412013844AC041222
:100F63000138529D04120138A19D04120138CD9D10
:100F730004120138ED9D041201387A9E04120138DF
:100F8300039C04120138549C041201389B9C0412E4
:100F93000138259D04120138F87F001201383CFD09
:100FA3000212013833FF021201389FFF0212013887
:100FB300E6FF02120138FED20312013851D30312A5
:100FC30001387AD30312013838D403120138A1D47B
:100FD30003120138DFD50312013899D70312013800
:100FE300A39403120138D19403120138D19603124A
:100FF3000138D19803120138C09903120138729D48
:1010030003120138DD9D03120138F5A504120138DE
:10101300ABA6041201387DE903120138D0E90312AB
:101023000138F9E90312013862EA03120138A0EB2F
:10103300031201385AED03120138148A04120138DD
:101043007D8A041201383B8B04120138BA8B0412D7
:10105300013818F9031201384AF90312013852FA18
:101063000312013877FB03120138008003120138A1
:10107300E6800312013833810312013876810312AB
:101083000138EB81031201384C8203120138C1820B
:10109300031201389D8303120138A8840312013817
:1010A300298503120138D08603120138668703129B
:1010B3000138D987031201385588031201386C8827
:1010C30003120138A38903120138FD890312013881
:1010D3000CE801120138A4EC0112013878EF011277
:1010E3000138A1EF01120138B8EF01120138E1EF25
:1010F3000112013893F00112013879F2011201381B
:10110300B4F301120138EAF80112013823F901128C
:10111300013867F90112013879FA01120138DDAAA1
:101123000412013861A704120138C48F0412013874
:10113300DB8F041201380C9004120138479004121B
:1011430001387190041201389B9004120138B29057
:1011530004120138C99004120138E09004120138D6
:101163000991041201381C910412013832910412BE
:1011730001384591041201386C9104120138698ACF
:10118300031201386D8B03120138A58B031201384A
:10119300C88B03120138D38B03120138F68B031269
:1011A3000138058D03120138DA8D03120138558E8B
:1011B30003120138DD8E03120138188F0312013830
:1011C3004F8F03120138DD8F03120138B6900312DB
:1011D3000138169103120138219103120138A091AD
:1011E30003120138A39103120138A69103120138A7
:1011F30035920312013838920312013868920312B0
:101203000138929203120138809303120138329409
:101213000312013839FB0112013861FB0112013855
:101223008FFB01120138C6FB0112013824FC0112A5
:1012330001386FFC01120138BAFC01120138FAFCC3
:101243000112013840FD011201386EFD011201380F
:101253002BFE0112013835FE0112013842FE011244
:10126300013875FE0112013841FF011201384DFFAB
:101273000112013865FF011201386FFF01120138B5
:10128300E4A204120138F2A2041201380AA30412E0
:10129300013822A304120138519F02120138FD9F25
:1012A3000212013878A00212013899A10212013802
:1012B300D5A1021201387EA20212013865A30212DF
:1012C3000138C9A40212013820A502120138A1A5D0
:1012D3000212013891A602120138DEA60212013869
:1012E30064A70212013896A702120138AAA90212B2
:1012F3000138ECA9021201380AAA021201388DAA98
:101303000212013861AB0212013829AC0212013812
:10131300A8B5031201387BB60312013824B70312B0
:10132300013877B70312013827B803120138B3B86D
:10133300031201389FB903120138CEB903120138E1
:10134300E1BA0312013829BB03120138FEBB0312B1
:1013530001383ABC0312013856BC03120138E5A91F
:10136300041201387FF50312013895F50312013891
:10137300BBF503120138D7F603120138E1F6031265
:10138300013816F8031201380EF903120138BEC8EA
:1013930003120138EEC90312013821CA03120138BE
:1013A3006BCA0312013832CC0312013800800212D7
:1013B30001386A8002120138C98102120138D981C9
:1013C300021201380682021201385D8202120138CC
:1013D3000683021201380D8402120138D7840212E7
:1013E30001383786021201387A86021201381F87C4
:1013F300021201386C8702120138928702120138F7
:10140300A08902120138A58902120138AA8B02129F
:101413000138F78B021201386A8C021201389D8C55
:10142300021201383F8D02120138E88D0212013891
:10143300208E02120138238E021201386B8E0212A3
:101443000138AB8E02120138028F02120138DD829D
:1014530004120138F582041201383D830412013865
:101463005383041201389A8304120138AE840412A0
:1014730001383B8504120138868504120138818CBA
:10148300011201388D8C01120138C88C0112013808
:101493000D8D01120138CD8D01120138538E0112C9
:1014A3000138B88E01120138E48E011201381D8F04
:1014B300011201385B91011201383F930112013887
:1014C300259501120138689601120138B698011268
:1014D3000138C89901120138139B01120138239C6A
:1014E30001120138409C011201387B9C0112013822
:1014F3009D9C01120138009D01120138C1A1011206
:10150300013856A201120138A7A201120138CEA256
:101513000112013820A3011201383EA30112013840
:1015230098A30112013881A401120138F7A5011211
:1015330001387BA601120138D6D703120138E0D750
:101543000312013823D8031201383ED8031201389D
:10155300CED803120138F6D80312013833D9031257
:1015630001386AD90312013893D90312013808DA12
:10157300031201381DDA0312013832DA031201387B
:1015830063DA0312013877DA031201389CDA0312A3
:101593000138D6DA0312013802DB031201383ADBD1
:1015A30003120138B9DB0312013802DC03120138DC
:1015B3002CDC0312013857DC03120138D9A00412C2
:1015C3000138C6E502120138F4E50212013842E798
:1015D3000212013822E80212013841E802120138EE
:1015E300BEE80212013801E90212013857EA021279
:1015F300013818EB021201389FED0212013840EE58
:101603000212013836EF0212013833F002120138A8
:101613008DF10212013818F20212013854990412A2
:101623000138BD9904120138119A04120138389A0D
:1016330004120138699A041201387FDC031201385D
:10164300ECDC0312013833DD031201384BDE0312E5
:10165300013847DF031201382AE003120138249EC0
:1016630003120138669E03120138389F03120138B2
:1016730011A0031201380BA103120138EDA10312CB
:10168300013856A2031201380CA30312013880A3B8
:1016930003120138ECA30312013815A40312013815
:1016A3008FA40312013828A5031201388DA5031254
:1016B3000138A2A503120138E8A50312013801A6D7
:1016C3000312013866A60312013869A60312013812
:1016D3003EFC0312013866FC03120138A4FC03121A
:1016E300013862FD03120138C9FD03120138E5FD1B
:1016F300031201380DFE031201383DFE03120138B7
:101703004CFE03120138C9FE03120138EFFE031227
:101713000138EF8F02120138CD9102120138FF9385
:10172300021201383B940212013868940212013804
:101733005295021201389D9502120138E895021262
:101743000138FA95021201383A96021201386F965F
:1017530002120138BD9602120138EC9602120138CA
:101763000F97021201385C9702120138E1970212B7
:101773000138FB99021201383A9C021201387B9C12
:10178300021201381D9E021201385E9E02120138B8
:10179300D19E02120138279F02120138B1D80212DA
:1017A3000138AFD90212013848E00212013869E268
:1017B3000212013834E4021201389CE502120138A6
:1017C300E2A60112013891A701120138BEA7011246
:1017D300013804A80112013844A901120138DAAA18
:1017E3000112013854AB011201386FAB01120138F9
:1017F300EAAB0112013844AD01120138A4AE011263
:101803000138AAAF011201380BB10112013824B11A
:101813000112013882B10112013870B2011201388C
:10182300A3B20112013813B3011201388DB30112AF
:101833000138D7B301120138A1B40112013876B5CA
:101843000112013855B601120138E0B60112013810
:101853004EB701120138C2B701120138EDB70112B8
:101863000138ACB80112013811BA011201382EBA8D
:10187300011201384DBA011201383EBB0112013881
:1018830063BB011201388DBB0112013808BC011280
:10189300013862BC01120138CBBD0112013879BE97
:1018A30001120138BABE01120138DDCA0212013831
:1018B3002BCB0212013837CB0212013815CC02129E
:1018C300013846CC0212013877CC02120138F7CC2A
:1018D300021201382FCD0212013881CD02120138D4
:1018E300BECD02120138DBCF0212013801D202123F
:1018F3000138ECD302120138D6D5021201387D32F9
:1019030000120138F9D30112013829D40112013828
:1019130002DB0112013887DC0112013884E2011273
:1019230001386CE301120138A9E301120138CCE359
:1019330001120138FDE30112013806E401120138F6
:1019430010E401120138FEE401120138F4E501123A
:101953000138EABE01120138E9C201120138EFC2AF
:10196300011201382ACA0112013843CF011201388A
:10197300B1F10312013847F2031201385DF2031289
:101983000138D3F20312013847F30312013885F308
:1019930003120138F9F30312013872F40312013808
:1019A3007BF40312013887F4031201389CF4031209
:1019B3000138DAF403120138F0F4031201384FF559
:1019C30003120138ECE003120138F9E00312013885
:1019D30013E10312013852E10312013890E10312BB
:1019E3000138F5E1031201380AE20312013815E266
:1019F3000312013822E20312013839E203120138DB
:101A030047E20312013852E2031201385EE2031285
:101A130001386DE20312013878E2031201389BE2C8
:101A23000312013842E30312013852E3031201386F
:101A33006CE30312013889E303120138A5E30312AF
:101A43000138CAE303120138D5E303120138EAE38C
:101A530003120138FEE3031201385FE40312013875
:101A630065E4031201386BE40312013871E40312D5
:101A7300013889E403120138BCE403120138B3BC12
:101A83000212013837BD02120138E6BD02120138D5
:101A930045BF0212013866C10212013852C2021256
:101AA300013887C202120138A9C20212013858C391
:101AB3000212013850C50212013879C502120138E9
:101AC3000BC6021201383DC6021201384AC6021281
:101AD3000138A1C602120138C7C60212013834C93F
:101AE3000212013837CA021201388FCA02120138B2
:101AF30042AE021201384CAF0212013833B0021267
:101B030001383DB0021201385FB0021201386BB0E8
:101B13000212013804B20212013833B20212013840
:101B23004FB302120138A8B3021201380EB50212E4
:101B33000138EDB50212013849B602120138B6B6C2
:101B430002120138F1B60212013830B7021201381D
:101B5300E9B90212013803BA021201388FBA02122C
:101B630001389DBA02120138F6BA0212013804BBD9
:101B73000212013877BB02120138DBBB02120138B3
:101B830025BC021201388D7300120138AF730012A5
:101B93000138D57500120138EA7800120138027A4B
:101BA30000120138B57A00120138977B0012013810
:101BB3007E9104120138A391041201381592041284
:101BC30001382EAE0312013837AE0312013840AE8E
:101BD3000312013817AF03120138C8B003120138DA
:101BE300FEB00312013838B1031201386EB103128B
:101BF3000138A8B103120138DCB10312013808B26D
:101C03000312013851B2031201388BB203120138A7
:101C1300D4B2031201382CB30312013861B3031297
:101C23000138BCB303120138F6B30312013847B4C9
:101C3300031201387DB403120138B7B4031201381B
:101C4300E5B40312013808B5031201380DA80412D4
:101C5300013839A80412013894A8041201389EA847
:101C630004120138AEA80412013842AB0412013841
:101C7300CAAB0412013894AB04120138F6AB04E08A
:101C830066701008A3E066700A08A3E06670040893
:101C9300A3E06622C3E7960809E7960809E79608D2
:101CA30009E79622C3E09608A3E09608A3E0960806
:101CB300A3E09622C008C3E096F50808A3E0964285
:101CC3000808A3E096420808A3E09645087001D3EC
:101CD300D00822080808EAC0E0EBC0E086F0E7A4D9
:101CE300FA180986F0E7A42AFA180986F0E7A42A65
:101CF300FA180986F0E7A42AFA1986F0E7A4FBE5A7
:101D0300F02AFA190886F0E7A42BFBE5F03AFA1952
:101D13000886F0E7A42BFBE5F03AFA18180986F0D9
:101D2300E7A4C5F02BFBE43AFA1908E7C5F0C6A40B
:101D330026F6E5F03BFBE43AFA1886F0E7A4F6E56D
:101D4300F00826F6E43B08F6E43A08F6D0E0FBD0C8
:101D5300E0FA22E4CFC0E0E4CEC0E0E4CDC0E0E4AA
:101D6300CCC0E075F020C3E633F608E633F608E6A8
:101D730033F608E633F6181818EC33FCED33FDEEB2
:101D830033FEEF33FFC3EC9709ED9709EE9709EFA5
:101D930097191919400FFFEC97FC09ED97FD09EE10
:101DA30097FE191906D5F0BEECF709EDF709EEF722
:101DB30009EFF7191919D0E0FCD0E0FDD0E0FED00F
:101DC300E0FF226016080808C6C313C618C613C668
:101DD30018C613C618C613C6D5E0EA227009080848
:101DE30008226016181818C6C333C608C633C608B7
:101DF300C633C608C633C6D5E0EA22E627F6080985
:101E0300E637F60809E637F60809E637F622E0264C
:101E1300F608A3E036F608A3E036F608A3E036F6A4
:101E230022E026F008A3E036F008A3E036F008A38A
:101E3300E036F022C3E697F60809E697F60809E6C6
:101E430097F60809E697F622C3E096F008A3E09612
:101E5300F008A3E096F008A3E096F022E657F60810
:101E630009E657F60809E657F60809E657F622E0A9
:101E730056F608A3E056F608A3E056F608A3E05684
:101E8300F622E056F008A3E056F008A3E056F00867
:101E9300A3E056F022E647F60809E647F60809E606
:101EA30047F60809E647F622E0F608A3E0F608A39A
:101EB300E0F608A3E0F622E6F008A3E6F008A3E6BE
:101EC300F008A3E6F022E0FAA3E0FBA3E0FCA3E022
:101ED300FD22EAF0A3EBF0A3ECF0A3EDF022CAC0DD
:101EE300E0E6F0A308DAFAD0E0FA22CAC0E0E0A301
:101EF300C582CCC582C583CDC583F0A3C582CCC5BD
:101F030082C583CDC583DAE6D0E0CA22C3E498F85C
:101F1300E499F9121F508026C3E49AFAE49BFBE983
:101F230020E7E9121F50E498F8E499F922C3E498F2
:101F3300F8E499F9121F50E498F8E499F9C3E49A84
:101F4300FAE49BFB22EB20E7CFE920E7E0B900109E
:101F5300BB0008E88AF084F8AAF022E4FBC8FA225E
:101F6300EB70227B10C833C8C933C9335007C39AF7
:101F7300C3DBF280069A50012ADBEAC833F4C8C9EE
:101F830033F4C9FA2275F008E4C833C8C933C93336
:101F9300C99AC99B5004C92AC93BD5F0ECFBC83385
:101FA300F4C8E4C9FA22600D08C6A2E713C618C62E
:101FB30013C6D5E0F322600C08C6C313C618C613B4
:101FC300C6D5E0F422700422600D18C6C333C608D8
:101FD300C633C6D5E0F41822251810AF08F518400B
:101FE3000215198008F51840021519D2AF22C0D086
:101FF300251810AF08F518500205198008F5185078
:10200300020519D2AFD0D0222518F58210AF08F5FA
:1020130018400215198008F51840021519D2AF852A
:102023001983222518F582E43519F58322E47325F3
:1020330018C582C0E0E51934FFC583C0E0E518C3C5
:10204300958224F810AF0885831985821880088546
:102053008319858218D2AFCEF0A3E520F0A37808C8
:10206300E608F0A3DEFAEFF0A3E58124FAF8E60828
:10207300F0A3E608F0A3E608F0A30808E608F0A337
:10208300E608F0A315811581D0E0FED0E0F81581B4
:1020930015811581E8C0E0EEC0E0222518C582C095
:1020A300E0E51934FFC583C0E0E518C3958224F940
:1020B30010AF088583198582188008858319858266
:1020C30018D2AFCEF0A3E520F0A37808E608F0A37A
:1020D300DEFAEFF0A3E58124FBF8E608F0A3E608B7
:1020E300F0A30808E608F0A3E608F0A3158115811C
:1020F300D0E0FED0E0F815811581E8C0E0EEC0E045
:1021030022851983851882E0A3FEE0A3F5207808D1
:10211300E0A3F608DFFAE0A3FFE0A3C0E0E0A3C07A
:10212300E0E0A3C0E0E0A3C0E0E0A3C0E010AF089C
:102133008582188583198008858218858319D2AF13
:10214300D083D082020135851983851882E0A3FEEE
:10215300E0A3F5207808E0A3F608DFFAE0A3FFE0A8
:10216300A3C0E0E0A3C0E0E0A3C0E0E0A3C0E010B0
:10217300AF0885821885831980088582188583199D
:10218300D2AFD083D08222C0D02518C582C0E0E56B
:102193001934FFC583C0E0E518C3958224F310AF5B
:1021A300088583198582188008858319858218D24A
:1021B300AFC8F0A3E9F0A3EAF0A3EBF0A37908E733
:1021C30009F0A3D8FAECF0A3EDF0A3EEF0A3EFF03F
:1021D300A3D0E0F0A3D0E0F0A3D0E0F0A3E520F09B
:1021E300A3E5F0F0A322851983851882E0C0E0A35C
:1021F300E0F9A3E0FAA3E0FBA37808E0F608A3DF85
:10220300FAE0FCA3E0FDA3E0FEA3E0FFA3E0C0E04F
:10221300A3E0C0E0A3E0F5D0A3E0F520A3E0A3F59D
:10222300F010AF0885831985821880088583198586
:102233008218D2AFD082D083D0E0F8D0E0327404D9
:102243008006740280027401C0E0F40412200BD0F3
:10225300E0121EE1227404800474028000CCC0E00A
:10226300EDC0E0E518C39CCCAD1950011D10AF06BD
:102273008C188D1980068C188D19D2AF121EEED0D2
:10228300E0FDD0E0FC22D083D082E9C0E0E493A358
:10229300C386F0C5F095F0F908E493A386F0C5F082
:1022A30095F0700BE493A3C3994005E9048002A35E
:1022B300E475F002A42582F582E5F03583F583D039
:1022C300E0F9E493A3C0E0E493C0E022D083D0829A
:1022D300ECC0E0EDC0E0E493A3FCE493A3FDED4C7C
:1022E300600D12231BEC24FFFCED34FFFD80EFE4B3
:1022F30093A3FCE493A3FDED4C600D12235AEC244D
:10230300FFFCED34FFFD80EFD0E0FDD0E0FCE49373
:10231300A3C0E0E493C0E022C0E0C3E49396087452
:1023230001939618400FE49366700808740193664E
:102333001870007019A3A3C3E493960874019396CD
:1023430018A3A3400DD0E0D0E0D0E002230BA3A359
:10235300A3A3A3A3D0E022C0E0C0F088F0E4936677
:1023630070080874019366187000A8F0A3A3700B9B
:10237300D0F0D0E0D0E0D0E002230BA3A3D0F0D084
:02238300E02256
:10238800C2AF02000022C0E074F212218AA2AFE4B8
:1023980033FED2AFE589A2E05003120F3E758900E3
:1023A800C2C5EEF8EEA2E092AF7F010221E9C0E0DB
:1023B80074F212218AA2AFE433FED2AFE58AA2E614
:1023C8004006E58AA2E75003120F3E758A00758A17
:1023D80000C2EBEEF8EEA2E092AF7F010221E9C065
:1023E800E0C0D0E8C0E0E9C0E0A2AFE433F8D2AF83
:1023F800758B00C2E8E8F9E8A2E092AFD0E0F9D026
:10240800E0F8D0D0D0E032C0E0C0D0E8C0E0E9C009
:10241800E0A2AFE433F8D2AFC2C7751A00E8F9E812
:10242800A2E092AFD0E0F9D0E0F8D0D0D0E032749A
:10243800F512209EEAFEEBFFEE2434F8EF3400F9A3
:1024480088088909EE2435F582EF3400F583E0F831
:10245800EE2437F582EF3400F583E0F50AEC850ABF
:10246800F0A4FCAAF0850AF0EDA42AFDE82CF8E413
:102478003DF97A257B00121F50EA85088285098379
:10248800F0F8740758F97401B900028004C333D90D
:10249800FCFAE8131313541FF8EE28F8EF3400F988
:1024A800E8245DF582E93400F583E05A6008EE24FB
:1024B80034F582EF802CEE2434F582EF3400F58376
:1024C800E0C0E0EE2436F582EF3400F583E0F5F065
:1024D800D0E084A8F0EE28F8EF3400F9E82438F5C5
:1024E80082E93400F583E0F97F0402214A74F51289
:1024F800209EEAFEEBFFEE2434F582EF3400F583EC
:10250800E0C0E0EE2435F582EF3400F583D0E0F04A
:102518008E828F83A3A3A3A3A3A3A3C082C0838E09
:10252800828F83A3A3A3A3A3E0F8A3E0F9D083D069
:1025380082E0C398F508A3E099F509EE247FF582B7
:10254800EF3400F583E064017069EE2480F582EFD2
:102558003400F583E0F8A3E0F98E828F83A3A3A368
:10256800A3A3A3A3E0FCA3E0FD8E828F83A3A3A370
:10257800A3A3E0FAA3E0FBC3EA9CEB9D5010C3ECD5
:1025880098ED99402EC3EA98EB995027800EC3EA3C
:1025980098EB994007C3EC98ED9940177C0F7D089C
:1025A800EEFAEFFB12185CEE247FF582EF3400F5AB
:1025B80083E4F0EE2434F8EF3400F9E8FCE9FDEEAA
:1025C8002435F582EF3400F583E0F8EE2437F58200
:1025D800EF3400F583E0F50AE508850AF0A4F5086C
:1025E800AAF0850AF0E509A42AF509E82508F8E41F
:1025F8003509F97A257B00121F50EA8C828D83F009
:10260800F8740758F97401B900028004C333D9FC7F
:10261800FAE8131313541FF8EE28F8EF3400F9E81A
:10262800245DF582E93400F583E05A6008EE24342D
:10263800F582EF802CEE2434F582EF3400F583E048
:10264800C0E0EE2436F582EF3400F583E0F5F0D0F3
:10265800E084A8F0EE28F8EF3400F9E82438F58291
:10266800E93400F583E0F912326F0224F0C082C029
:1026780083851882851983E0F8A3E0F9C3EA9CEB07
:102688009D5010C3EC98ED99401BC3EA98EB995004
:1026980014800EC3EA98EB994007C3EC98ED994073
:1026A80004790180027900D083D08222EAC39CFA9F
:1026B800EB9DFB2274EF12209E9006D5E064086023
:1026C80005E06407702A9061C8E06024900703E081
:1026D800F4601DE0F875F003A4C8AAF02AF974059F
:1026E80028FE740739FF8E828F83A3A3A3E07003AB
:1026F8000227EC906060E0C0E0EE2468F582EF34D9
:1027080000F583D0E0F0750C78750D087508007534
:102718000900E5D914F50AE5D95403F50E601774D4
:1027280003650E605CE50A6010EE2467F582EF34FD
:1027380000F583E070030227D1900873E06401601C
:102748002AEE2482F582EF3400F583E060047804F1
:1027580080027800850A08E508C398FA95E0FB121C
:1027680017248A088B09EA45097005121A608074D3
:10277800EE2482F582EF3400F583E070048A0C8B36
:102788000DE50A6012850C82850D83F50BE5D9F0FD
:10279800A3150BE50B70F6EE2482F582EF3400F5F5
:1027A80083E0604474FC250AF50A780C122245ACD3
:1027B8000AA90EEEFAEFFB1218F87402121FF1E9DB
:1027C8007026AA08AB09121040793D8E828F83A328
:1027D800A3A3A3E0FA7B001215F8EEFAEFFB121898
:1027E8007412190A790080747403650E6056850A9C
:1027F800107511007810122245AC0CAD0DAA08AB6B
:10280800091218D47402121FF1EE2468F582EF340D
:1028180000F583E064807004747F8001E0F50C7833
:102828000C122249E50EF50C780C122249A90AACC3
:1028380008AD09900703E0FA7B001215BC74021278
:102848001FF180139006D5E06408600BAC0CAD0D49
:10285800EEFAEFFB121964121A6C79017F0A022151
:102868004A74F512209E74FC121FDBEAFEEBFF8906
:1028780008A2AFE433F509C2AF806AEE2463F8EF2B
:102888003400F97A007B00A2AFE433F50AC2AF88BE
:10289800828983E0FCA3E0FDEC4D603A888289835D
:1028A800E0FAA3E0FB8A828B83E0FCA3E0FD888248
:1028B8008983ECF0A3EDF08A828B83E4F0A3F0889F
:1028C800828983E0FCA3E0FDEC4D700A888289834D
:1028D800A3A3E4F0A3F0E50AA2E092AF121040909F
:1028E8000816E004F0EE2463F582EF3400F583E087
:1028F800F8A3E0F9E849603DEE2463F582EF34007F
:10290800F583E02402FAA3E03400FBEA2402F50A86
:10291800EB3400F50B780A1222458A828B83E0FC9F
:10292800A3E0F9EEFAEFFB1218987402121FF1E90E
:102938007003022883900816E06063900817E0F897
:10294800900816E0C398500C7402650870509008FF
:1029580018E0604A8E828F83A3A3A3A3E085188220
:10296800851983F0A3E4F0900816E0F874021220A9
:1029780026E8F0A3E4F0900816E0F8900815E0289F
:10298800F07402122026AC82AD83851882851983E3
:10299800AA82AB8379011215C8900816E4F0E509FC
:1029A800A2E092AF7404121FF10224F085218785FA
:1029B80022C622C0E0C0D0E8C0E0E9C0E0EAC0E03A
:1029C800EBC0E0ECC0E0EDC0E0EEC0E0C008C0093C
:1029D800C00AC00BC082C083C0F0A2AFE433FEC2FD
:1029E800AF759B00906182E0A2E05012E591A2E0F1
:1029F800500C7591FE7401652170031226BCE0A28B
:102A0800E55051E591A2E5504B7591DF9006D5E070
:102A180064076005E06408702374016521703579E6
:102A280001900703E0FA75F003A4CAA8F028FB7424
:102A3800052AFA74073BFB1228698018E0640D70B8
:102A4800139006F7E004F064287002E4F07A00E0DE
:102A5800F9121A72906182E0A2E64003022B02E5A5
:102A680091A2E64003022B027591BF9006D5E0645F
:102A780005700812199A1219A680031219A0752157
:102A880000121A00E99006D6F079001219F412170C
:102A9800D27A017B009006D4E0F9120B6C9078038F
:102AA800E064427055900877E014F0704DC2AF12A0
:102AB8002ABA00782AD0E0F618D0E0F6E59F540745
:102AC80070057509FF800375097FC4C0E07829E6A1
:102AD800F50808E65509F509740B7808121FB9D0EE
:102AE800E02508F8906270E0A2E740F8E8C3339068
:102AF8006272F0906270E0D2E0F0906181E0A2E34F
:102B08005009E5E9A2E3500375E9F7A3E0A2E7500D
:102B180009E591A2E7500375917FEEA2E092AFD04C
:102B2800F0D083D082D00BD00AD009D008D0E0FEF4
:102B3800D0E0FDD0E0FCD0E0FBD0E0FAD0E0F9D066
:102B4800E0F8D0D0D0E032C0E0C0D0C082C08390DE
:102B58006183E0A2E05009E5BFA2E0500375BFFE23
:102B6800E0A2E15009E5BFA2E1500375BFFDE0A274
:102B7800E25009E5BFA2E2500375BFFBE0A2E350B3
:102B880009E5BFA2E3500375BFF7E0A2E45009E5E9
:102B9800BFA2E4500375BFEFE0A2E55009E5BFA26C
:102BA800E5500375BFDFE0A2E65009E5BFA2E65095
:102BB8000375BFBFD083D0828088C0E0C0D0E8C092
:102BC800E0E9C0E0EAC0E0EBC0E0ECC0E0EDC0E066
:102BD800C0F0E5A7A2E6500FE5A1A2E6500953A769
:102BE800BF75A1BF122C27E5A7A2E5500CE5A1A24D
:102BF800E5500653A7DF75A1DFE5A7A2E15009E577
:102C0800A1A2E1500375A1FDE5A7A2E2500CE5A140
:102C1800A2E2500653A7FB75A1FBD0F0022B387433
:102C2800F812209E7521019006D5E06406701512F1
:102C380019288A828B83A3A3A3A3A3A3E0FAA3E002
:102C4800FB121988A2AFE433FED2AF9006DBE06432
:102C58000170187A207B009006D4E0F9120BFC7AF8
:102C6800207B009006D4E0F9120B72906182E0D2CA
:102C7800E6F0900874E0602185C62280169006DA96
:102C8800E064017008E5C654F84405F5C653BEFC77
:102C98001229B47401652160E4EEA2E092AF7F01CD
:102CA80002214A008E238F24858228858327851850
:102CB80082851983E0CEA3E0CF852882852783EB20
:102CC800C9EAC8EDCBECCA75F010C3E833C8E933DC
:102CD800C9EA33CAEB33CBC3EA9EF526EB9FF52549
:102CE800B35004AB25AA26EC33CCED33CDD5F0DABE
:102CF800AE23AF242274E912209E74F8121FDB85DC
:102D08001882851983ECF0A3EDF08A088B099006E8
:102D1800D5E024F7C394055006750801022E9412D5
:102D280019288A0A8B0BAE0AAF0BEE4F7003022EDE
:102D380091AC08AD097402122026AA82AB8312193D
:102D4800B88E828F83A3A3750CFF750DFF750EFFD8
:102D5800750F00780C121E7274021220267510FF6F
:102D68007511FF7512FF7513007810121E72780C1A
:102D78007910121C97502A780C7910121E37750892
:102D8800017509C8750A00750B007808790C121CC2
:102D9800975052850C08850D09850E0A850F0B8002
:102DA800507514017515C87516007517008510083B
:102DB80085110985120A85130B7808790C121E37BC
:102DC80078147908121C97401C750800750900755D
:102DD8000A00750B0178087910121E377808790CEB
:102DE800121DFE800C750801750900750A00750B27
:102DF8000074097808121DDF750C19F50DF50EF52C
:102E08000F7808790C121D568E828F83A3A3A3A373
:102E1800A3A3E0F8A3E0F97AD07B03121F50880C33
:102E2800890DE4F50EF50F7808790C121DFE74066D
:102E3800122026E0F8A3E0F97AD07B03121F50E8AD
:102E4800FA8A0CE4F50D7808790C121C975007786B
:102E580008790C121E379006D5E06408600AE06411
:102E6800066005E06405702D750C0D780C79081264
:102E78001C974021750CF4750DFF750EFF750FFF3B
:102E88007808790C121DFE800C750800750900750C
:102E98000A00750B00851882851983E0F8A3E0F510
:102EA8008388827808121EBA7408121FF17F1002F4
:102EB800214A74F712209E1219CA900872E0640120
:102EC8007010906245E4F0A3F053F4F343FE0C5302
:102ED80090F3121976E5C654804449F5C6E59E5428
:102EE8007F644970F8906185740FF0900870E0F481
:102EF8007002A3E0604E900871E0600814601B1433
:102F0800602E8040750801750900900870E0780807
:102F1800121FC8E508F45280802A75080175090057
:102F2800900870E07808121FC8E508F452908014E1
:102F3800750801750900900870E07808121FC8E547
:102F480008F452A079007F0202214A74F712209EE9
:102F5800E9FEEAFF74016E700C7A807B009006D45B
:102F6800E0F9120B6C903280E493F46008E493F972
:102F78001217C6800953C680E59E547F70FA12194D
:102F88007C900872E0640170031217DE900870E00C
:102F9800F47002A3E0604B900871E0600814601AB6
:102FA80014602C803D750801750900900870E07860
:102FB80008121FC8E50842808028750801750900B5
:102FC800900870E07808121FC8E5084290801375D1
:102FD8000801750900900870E07808121FC8E50814
:102FE80042A01219CA1219288A088B09A808A90927
:102FF800E8496015E5E170FCE82414F582E934003D
:10300800F583E0F46003E0F5E174016F700A7A017A
:103018009006D4E0F9120BC6022F4E74ED12209ED2
:103028008A088B098C0A8D0B7413122026780C12CF
:103038001EAB7808790C121C977510017511C875AC
:10304800120075130050127808790C121E37781088
:103058007908121C9750168010780C7908121E37C0
:103068007810790C121C9740047901800279007F4E
:103078000C02214A74ED12209E8A088B098C0A8D55
:103088000B7413122026780C121EAB780C790812D8
:103098001C9740117808790C121E37AA08AB09ACA6
:1030A8000AAD0B802275100075110075120075139A
:1030B800017810790C121E3778107908121DFEAAB3
:1030C80010AB11AC12AD1380A68A828B837508FFF2
:1030D8007509FF750AFF750B007808121E857F04B5
:1030E80002214A74F512209E8C828D837808121E64
:1030F800AB8A828B837808121E4BEA2404F8EB34DF
:1031080000F98C828D83A3A3A3A3E0FCA3E0FD8830
:10311800828983C3E09CF0A3E09DF088828983C301
:10312800E09420A3E0944E40268A828B837508FFA2
:103138007509FF750AFF750BFF7808121E248A822D
:103148008B83A3A3A3A3E02420F0A3E0344EF002D2
:1031580030D174F512209EE9FE90082AE0FAA3E027
:10316800FBEEC333F8E433F9743828F582748839F0
:10317800F583E02AF508A3E03BF509780812224513
:103188007A407B427C0F7D00122CAC7402121FF136
:103198008A088B098C0A8D0B74107808121DC6AA30
:1031A80008AB097F0402214A74F112209E8A0C8B15
:1031B8000D8C0E8D0F740F122026E0FAA3E0FB741D
:1031C80011122026E0F508A3E0F509780812224537
:1031D800EA2401F508EB3400F509E4F50AF50B7863
:1031E8000C7908121CD6750871750902780C7908D3
:1031F800121CD6AA0CAB0DAC0EAD0F122CAC74027F
:10320800121FF18B09EA450960047A0180027A00ED
:10321800EC2AFCED3400FD7413122026E0F8A3E03C
:10322800F9E8FEE9FFECF8EDF97A717B02121F501C
:10323800880889098E828F837808121EBAECF8ED07
:10324800F97A717B02121F508A088B097405780875
:10325800121FC88E828F83A3A3A3A3E508F0A3E55A
:1032680009F07F0802214AC082C083E9906000F01B
:10327800D083D08222020135FFFFFFFFFFFFFFFF4F
:1032880074ED122032746C121FDB120A7C7C007DF4
:10329800007E007F007410122026ECF0A3EDF0A34E
:1032A800EEF0A3EFF0908BCD7808121EAB741012DD
:1032B80020267808121CA75014908BDD7808121E5F
:1032C800AB74101220267808121E2480D8790012B8
:1032D8000A827B017A017910120AD67906120ADC71
:1032E800120AE2E9F5127B007A007900120AD61276
:1032F8000A9AE9F50F120AA6E9F50E120AB2E9F5DB
:103308000D120ABEE9F50C7A7F7900120A4C790091
:10331800120A6A7A687900120A4C120A767C007DD1
:10332800007E007F007410122026ECF0A3EDF0A3BD
:10333800EEF0A3EFF0908BD17808121EAB74101248
:1033480020267808121CA75014908BDD7808121ECE
:10335800AB74101220267808121E2480D875080134
:103368007808122249750800780812224979007CE9
:10337800897D077A007B80120AF47402121FF1E932
:10338800700302390E7CC07D007A967B0A120B000E
:10339800E9700302390A7903120A887912120A526B
:1033A8007904120A167901120A1C7903120A227981
:1033B80003120A287903120B067900120B0C790004
:1033C800120AA0A90E120AACA90D120AB8A90C1269
:1033D8000AC4750A00750B00750800E508C3940453
:1033E80040248508107511007402122026E0F8792F
:1033F800002403F8E93400F9C3E51098E51199A20F
:10340800D265D033503A7456250AF582740B350BC1
:10341800F583E0C0E08508107511008518828519CC
:1034280083E5822510F582E5833511F583D0E0F038
:103438000508E50A2401F50AE50B3400F50B809B25
:10344800750900780912224975090178091222497B
:103458007403122026E0F509780912224974031230
:103468002026E0F97405122026E0FC7D007406127F
:103478002026AA82AB83120AEE7403121FF1E975A3
:103488000800E508C39404402485081075110074E9
:1034980002122026E0F879002403F8E93400F9C381
:1034A800E51098E51199A2D265D033503A745625A3
:1034B8000AF582740B350BF583E0C0E085081075BA
:1034C8001100851882851983E5822510F582E58328
:1034D8003511F583D0E0F00508E50A2401F50AE581
:1034E8000B3400F50B809B75090078091222497589
:1034F800090178091222497403122026E0F5097897
:10350800091222497403122026E0F97405122026B4
:10351800E0FC7D007406122026AA82AB83120AEE14
:103528007403121FF1E9120A70120A8E8A108B11A5
:10353800AE10AF11E510A9107414122026AA82ABA0
:1035480083120A947902120A34799C120A4079503B
:10355800120A3A7900120A46120A707901120A64AC
:103568007901120ACA120AD0750800E508C3940442
:1035780040248508107511007402122026E0F8799D
:10358800002403F8E93400F9C3E51098E51199A27D
:10359800D265D033503A7456250AF582740B350B30
:1035A800F583E0C0E085081075110085188285193B
:1035B80083E5822510F582E5833511F583D0E0F0A7
:1035C8000508E50A2401F50AE50B3400F50B809B94
:1035D80075090078091222497509017809122249EA
:1035E8007403122026E0F50978091222497403129F
:1035F8002026E0F97405122026E0FC7D00740612EE
:103608002026AA82AB83120AEE7403121FF1E97511
:103618000800E508C3940440248508107511007457
:1036280002122026E0F879002403F8E93400F9C3EF
:10363800E51098E51199A2D265D033503A74562511
:103648000AF582740B350BF583E0C0E08508107528
:103658001100851882851983E5822510F582E58396
:103668003511F583D0E0F00508E50A2401F50AE5EF
:103678000B3400F50B809B750900780912224975F7
:10368800090178091222497403122026E0F5097805
:10369800091222497403122026E0F9740512202623
:1036A800E0FC7D007406122026AA82AB83120AEE83
:1036B8007403121FF1E9750800E508C39404402457
:1036C8008508107511007402122026E0F87900248C
:1036D80003F8E93400F9C3E51098E51199A2D26519
:1036E800D033503A7456250AF582740B350BF5839E
:1036F800E0C0E0850810751100851882851983E5FA
:10370800822510F582E5833511F583D0E0F00508B0
:10371800E50A2401F50AE50B3400F50B809B7509D1
:10372800007809122249750901780912224974039F
:10373800122026E0F509780912224974031220267E
:10374800E0F97405122026E0FC7D0074061220269C
:10375800AA82AB83120AEE7403121FF1E9120A8ED1
:103768008A108B11A810A911E8FEE9FFC3E8940399
:10377800E9940040E8EEF97414122026AA82AB837B
:10378800120A94120A58E9F509750800E508C39465
:103798000440248508107511007402122026E0F8F0
:1037A80079002403F8E93400F9C3E51098E5119984
:1037B800A2D265D033503A7456250AF582740B3577
:1037C8000BF583E0C0E08508107511008518828527
:1037D8001983E5822510F582E5833511F583D0E05C
:1037E800F00508E50A2401F50AE50B3400F50B801D
:1037F8009B7401122026E0F51078101222497401FA
:10380800122026E0F97403122026E0FC7D007404DF
:10381800122026AA82AB83120AE87401121FF11241
:103828000A8E8A108B11A810A911E8FEE9FFC3E8D7
:103838009403E9940040E8EEF97414122026AA8251
:10384800AB83120A94120A58E9F509750800E508CD
:10385800C3940440248508107511007402122026B0
:10386800E0F879002403F8E93400F9C3E51098E595
:103878001199A2D265D033503A7456250AF582744C
:103888000B350BF583E0C0E085081075110085182D
:1038980082851983E5822510F582E5833511F58344
:1038A800D0E0F00508E50A2401F50AE50B3400F537
:1038B8000B809B7510007810122249751001781042
:1038C8001222497403122026E0F5107810122249BA
:1038D8007403122026E0F97405122026E0FC7D000E
:1038E8007406122026AA82AB83120AEE7403121FF2
:1038F800F1E97900120ACA120A70120A58E9790025
:1039080080067902800279017494121FF17F0B02FC
:10391800210474F71220328C828D83E0F87900E458
:10392800C8F98C828D83A3E0FE7F00E82EF8E93F7A
:10393800F98A828B83E8F0A3E9F08C828D83A3A3B4
:10394800A3A3E0F87900E4C8F98C828D83A3A3A32C
:10395800A3A3E0FE7F00E82EF8E93FF98A828B8373
:10396800A3A3E8F0A3E9F08C828D83A3A3A3A3A368
:10397800A3A3A3E0F87900E4C8F98C828D83A3A3FC
:10398800A3A3A3A3A3A3A3E0FE7F00E82EF8E93F27
:10399800F98A828B83A3A3A3A3E8F0A3E9F0EC241C
:1039A8000CF582ED3400F583E0F87900E4C8F9EC11
:1039B800240DF582ED3400F583E0FE7F00E82EF853
:1039C800E93FF98A828B83A3A3A3A3A3A3E8F0A367
:1039D800E9F079007F0102210474F212203274ECBC
:1039E800121FDB8908E5089002ACF07C047D007AA0
:1039F8001F7B00121214E9F50974051220267401C0
:103A0800F0740E1220267401F0A37400F0740412EE
:103A180020267401F0740C122026742FF0A3740170
:103A2800F0740A122026743FF0A37401F07408128F
:103A380020267404F0A37400F0740612202674582B
:103A4800F0A37402F07405122026AC82AD837901CC
:103A58007A057B031210D0E9740E122026AC82ADD1
:103A68008379027A067B031210D0E97C857D0B7975
:103A7800157A087B031210D0E97C9A7D0B79177AA6
:103A8800077B031210D0E97404122026AC82AD83A0
:103A980079017A107B031210D0E9740C122026AC3D
:103AA80082AD8379027A117B031210D0E9740A126D
:103AB8002026AC82AD8379027A127B031210D0E9FA
:103AC8007408122026AC82AD8379027A137B031224
:103AD80010D0E97406122026AC82AD8379027A14DC
:103AE8007B031210D0E97CB17D0B7A0479001213A4
:103AF8008EE97E407F06EEFCEFFD7A067B0012120F
:103B080014E9EEFCEFFD7A077B00121214E9EEFCD3
:103B1800EFFD7A087B00121214E9EEFCEFFD7A093A
:103B28007B00121214E97A007B007C007D0074107F
:103B3800122026EAF0A3EBF0A3ECF0A3EDF0740357
:103B48001220267401F074021220267401F0740108
:103B58001220267400F08518828519837401F07488
:103B680010122026AC82AD8379047A087B04120DEA
:103B78005EE97403122026AC82AD8379017A007B5A
:103B880004120D5EE97402122026AC82AD8379011D
:103B98007A027B04120D5EE97401122026AC82AD14
:103BA8008379017A037B04120D5EE98518828519F1
:103BB80083AC82AD8379017A067B04120D5EE990AD
:103BC8008BD5121EC9121394E9908BD5121EC912F7
:103BD80014A2E9120D22E9908BD5121EC9121016F3
:103BE800E9908BD5121EC9120D34E9908BD5121E9F
:103BF800C9120FB6E9908BD5121EC9120CF8E97AD2
:103C0800007903120F50E9120EC67ACB7B0B121003
:103C18001CE9F50A7ACD7B0B120D3AE9F50B7ACF40
:103C28007B0B120FBCE9F50C7AD17B0B120CFEE969
:103C3800F50D7AD37B0B1210E2790112159EE97A01
:103C4800017B009002ACE0F9120B6CE97414121FAE
:103C5800F17F0602210474F012203274DC121FDB9B
:103C68008909EAFEEBFFEE5400F8EF5480F9E849C1
:103C780060329002ACE0F9120B548A0C8B0DA80C40
:103C8800A90D880A890BE849600FAA0AAB0B120C28
:103C980074AA0AAB0B120B42E9EE6400FAEF6480D7
:103CA800FB0245B9EE5480601B9002E1E0600AC255
:103CB800AF75C9AB75C95B80FEEE6480FAEF64002E
:103CC800FB0245B9EEA2E050227AC77B0B1210DC4A
:103CD800E9F5087A287B03120D7C120E36120FE0E4
:103CE800EE6401FAEF6400FB0245B9EE5400F8EF08
:103CF8005404F9E84960167C107D007AC77B0212EB
:103D08000CE6EE6400FAEF6404FB0245B9EE5402D7
:103D18007003023DA59002AEE0605A120F1AE964E2
:103D280002702F120CB0900BB9E024EDF50CA3E053
:103D380034FEF50DE4F50EF50F780C1222417A02E7
:103D48007B009002ACE0F9120BF07404121FF1E949
:103D58008040120F1AE9703A120F08908BF5122260
:103D6800587A027B009002ACE0F9120BF07404124E
:103D78001FF1E9801D120F0E7D047C0079007A0086
:103D88007BAA120CE07D017C0079017A007BAA12E3
:103D98000CE0EE6402FAEF6400FB0245B9EE54044D
:103DA80060569002B0E0602B120C8C900BB7E0F5D7
:103DB8000CA3E0F50DE4F50EF50F780C1222417A0C
:103DC800047B009002ACE0F9120BF07404121FF1AE
:103DD800E9801A7D037C0079007A107BAA120CE036
:103DE8007D017C0079017A107BAA120CE0EE640454
:103DF800FAEF6400FB0245B9EE5400F8EF5401F9FC
:103E0800E8497003023F359002B1E07003023F2A8F
:103E18009002DDE0640160089002DDE06402702336
:103E2800908BF11222587A007B019002ACE0F912D3
:103E38000BF07404121FF1E9EE6400FAEF6401FB61
:103E48000245B99002DD7403F0120A58E99003277D
:103E5800F0120A8E9002E5EAF0A3EBF0900327E057
:103E6800A2E4400E9002E5E064007004A3E064045C
:103E78007026120A70908BED1222587A007B0190FE
:103E880002ACE0F9120BF07404121FF1E9EE6400C1
:103E9800FAEF6401FB0245B9900327E0A2E1505311
:103EA8009002E5C082C083900BC5E0F8A3E0F9D08A
:103EB80083D082C3E098A3E099500D120A8E900235
:103EC800E5EAF0A3EBF080D8900BC5E0F8A3E0F9A1
:103ED800E8F97AE77B02120A94900BC5E0F8A3E0B0
:103EE800F99002E5C3E098F0A3E099F07AE77B0245
:103EF800120C92900BC1E0F50CA3E0F50DE4F50E61
:103F0800F50F780C1222417A007B019002ACE0F99F
:103F1800120BF07404121FF1E99002DD7400F01224
:103F28000A70EE6400FAEF6401FB0245B9EE540032
:103F3800F8EF5408F9E849602C120C5CE979011291
:103F48000ACA908BE91222587A007B019002ACE0F1
:103F5800F9120BF07404121FF1E9EE6400FAEF6431
:103F680008FB0245B9EE5400F8EF5402F9E849702D
:103F78000302408B9002B2E064016003024080902B
:103F880002DDE0640160089002DDE06403702390C4
:103F98008BF11222587A007B029002ACE0F9120BE6
:103FA800F07404121FF1E9EE6400FAEF6402FB02F8
:103FB80045B99002DD7402F09002E0E0700F9002C3
:103FC800DBE0FAA3E0FB7900120C98801D9002DB7D
:103FD800E0FAA3E0FBEA2401F8EB3400F99002DBF5
:103FE800E8F0A3E9F07901120C989002E0E0702063
:103FF800908BF11222587A007B029002ACE0F91201
:104008000BF07404121FF1E99002E07401F080686B
:104018009002DBC3E0940EA3E09400A2D265D033F3
:1040280040389002DD7400F09002DB7400F0A37455
:1040380000F0900BC3E0F50CA3E0F50DE4F50EF5E8
:104048000F780C1222417A007B029002ACE0F91240
:104058000BF07404121FF1E98018908BA1122258FA
:104068007A007B029002ACE0F9120BF07404121F84
:10407800F1E99002E07400F0EE6400FAEF6402FBEC
:104088000245B9EE5400F8EF5420F9E849700302EC
:10409800418D9088D8C082C0837414122026AC82C7
:1040A800AD83D083D0827410121EEE7414122026B1
:1040B800AA82AB83120FF2E97C247D0079FF7AB6DD
:1040C8007B02120B309002B674AAF09002B774BB50
:1040D800F09002B874BBF0750A10750B00780A12DC
:1040E80022457416122026AC82AD837AB97B02125F
:1040F8000B187402121FF19002C9740DF09002CAD5
:10410800740AF07C0B7D007AB67B02120CE67A000A
:104118007B007C007D00851882851983EAF0A3EB7B
:10412800F0A3ECF0A3EDF0908B9D780C121EAB85FC
:104138001882851983780C121CA75015908BDD788E
:104148000C121EAB851882851983780C121E2480E8
:10415800D67C0A7D007AC17B02120CE69002DD74DF
:1041680000F0908B991222587A007B409002ACE0C4
:10417800F9120BF07404121FF1E9EE6400FAEF640F
:1041880020FB0245B9EE5400F8EF5440F9E84970B5
:10419800030242C29002DDE0640160089002DDE0A3
:1041A80064037023908BBD1222587A007B409002E2
:1041B800ACE0F9120BF07404121FF1E9EE6400FA96
:1041C800EF6440FB0245B99002DD7402F090882844
:1041D800C082C0837404122026AC82AD83D083D001
:1041E800827410121EEE7404122026AA82AB831267
:1041F8000E42E97C247D0079FF7AB67B02120B30EF
:104208009002B674AAF09002B774BBF09002B8742A
:10421800BBF0750A10750B00780A12224574061255
:104228002026AC82AD837AB97B02120B1874021275
:104238001FF19002C9740DF09002CA740AF07C0B49
:104248007D007AB67B02120CE67A007B007C007D4A
:1042580000851882851983EAF0A3EBF0A3ECF0A39C
:10426800EDF0908BF1780C121EAB851882851983BE
:10427800780C121CA75015908BDD780C121EAB859C
:104288001882851983780C121E2480D67C0A7D003A
:104298007AC17B02120CE6908BA91222587A007B15
:1042A800209002ACE0F9120BF07404121FF1E9EE51
:1042B8006400FAEF6440FB0245B9EE54087003024B
:1042C800439C9002B4E070030243779002DDE064FF
:1042D8000360089002DDE064027023908BF11222E3
:1042E800587A087B009002ACE0F9120BF0740412C3
:1042F8001FF1E9EE6408FAEF6400FB0245B9900289
:10430800DD7401F09002DFE0F9120ECCE9F50890B7
:1043180002DFE064027037120CA49002DF7400F030
:104328009002DD7400F0900BBBE0F50CA3E0F50DF6
:10433800E4F50EF50F780C1222417A087B00900202
:10434800ACE0F9120BF07404121FF1E9803B900203
:10435800DFE02401F0908BE51222587A087B009068
:1043680002ACE0F9120BF07404121FF1E9801A7D17
:10437800047C0079007A207BAA120CE07D017C0085
:1043880079017A207BAA120CE0EE6408FAEF640047
:10439800FB0245B9EE5410606C9002AFE0603E122B
:1043A8000F62E964027005120C9E8009120F62E91F
:1043B8007003120F68900BB5E0F50CA3E0F50DE45F
:1043C800F50EF50F780C1222417A107B009002ACA2
:1043D800E0F9120BF07404121FF1E9801D120F6E40
:1043E8007D067C0079007A307BAA120CE07D017C86
:1043F8000079017A307BAA120CE0EE6410FAEF64BF
:1044080000FB0245B9EE542070030244A79002B3A2
:10441800E0605A9002DEE060319002DE7400F01233
:104428000CAA900BBDE0F50CA3E0F50DE4F50EF534
:104438000F780C1222417A207B009002ACE0F9122E
:104448000BF07404121FF1E9804A9002DE7401F047
:10445800120E5A908BC91222587A207B009002AC17
:10446800E0F9120BF07404121FF1E980277D047C37
:104478000079007A407BAA120CE07D017C0079016A
:104488007A407BAA120CE07D107C0079037A407B8D
:10449800AA120CE0EE6420FAEF6400FB0245B9EEC4
:1044A80054407003024576120EB4E9F5089002B53F
:1044B800E0700302454FE50870269002E2E0F91229
:1044C8000EBA120E9C908C1D1222587A407B0090D6
:1044D80002ACE0F9120BF07404121FF1E902456C0A
:1044E8009002E3E0600E9002E2E0F9120EBA900248
:1044F800E37400F074026508702F120CB6900BBFBD
:10450800E024C4F50CA3E034FFF50DE4F50EF50F37
:10451800780C1222417A407B009002ACE0F9120B31
:10452800F07404121FF1E9803B120EAEE9908C1D65
:104538001222587A407B009002ACE0F9120BF0741A
:1045480004121FF1E9801D120EA27D067C0079007D
:104558007A507BAA120CE07D017C0079017A507BAD
:10456800AA120CE0EE6440FAEF6400FB8043EE54BC
:1045780000F8EF5410F9E8496033750A58750B02D2
:10458800780A122245750A04750B00780A1222452A
:1045980079027C3F7D017A2F7B0112111874041275
:1045A8001FF1E9EE6400FAEF6410FB80047A007BE7
:1045B800007424121FF17F0802210474F7122032BC
:1045C800EAFEEBFF8E828F83E064C070148E828FC8
:1045D80083A3A3A3E0FA8E828F83A3A3E0F9120C2E
:1045E8007A7F0102210474F712203274FC121FDB57
:1045F800E9FEEAFF8518828519837400F0EFA2E0CE
:1046080040030246AF9002E17401F0908BC512227C
:10461800587A807B009002ACE0F9120BF074041217
:104628001FF1E99002E4E0706F9002ADE06405606C
:104638003E7403122026AC82AD837A057B031210E8
:10464800D6E97403122026E0700A74011220267439
:1046580001F0800874011220267400F07401122001
:1046680026AC82AD8379017A057B031210D0E990DC
:1046780002ADE06405703074021220267401F01255
:1046880010E8E97402122026AC82AD8379017A051C
:104698007B031210D0E9800FEFA2E0500A85188240
:1046A800851983E0D2E2F0EFA2E1500A85188285ED
:1046B8001983E0D2E0F0EFA2E2500A85188285194A
:1046C80083E0D2E1F0EFA2E040069002E17400F04E
:1046D800851882851983AC82AD837A01790012111D
:1046E8001EE97404121FF17F01022104C082C083F5
:1046F8009002B1E060069002B17400F09002B4E05C
:104708006009120EC69002B47400F09002B2E06024
:10471800069002B27400F0D083D08202013574F49E
:1047280012203274E2121FDBE9FEEE1460161470D8
:10473800030248DF14700302491424FE7003024880
:10474800E9024917851882851983AC82AD837A04FA
:104758007B031210D6E9750808750900780812223B
:10476800457402122026AC82AD837418122026AA42
:1047780082AB83120B187402121FF17405122026E3
:10478800E0C0E07407122026D0E0F074041220265E
:10479800E0C0E07406122026D0E0F0740312202650
:1047A800E0C0E07405122026D0E0F0740412202640
:1047B8007400F074031220267400F085188285199D
:1047C80083AC82AD837A087900120D28E9908C7841
:1047D800C082C0837408122026AC82AD83D083D0F7
:1047E80082740E121EEE7F00750905E509C3940058
:1047F800A2D265D03350030248CCE509F83395E0DE
:10480800F97416122026E58228F582E58339F583A6
:10481800E0F508E508C3940A506B7C6E7D8CEFF8D0
:104828007900E875F002A4C8AAF075F000A42AFA85
:1048380075F002E9A42AF97408122026E58228FAFC
:10484800E58339FB121C767910EFFA7B00EA75F0E4
:1048580002A4CAA8F075F000A428F875F002EBA429
:1048680028FB7408122026E5822AF582E5833BF5A9
:1048780083A3AC82AD8385080A750B00AA0AAB0B2B
:10488800120C2080357910EFFA7B00EA75F002A44B
:10489800CAA8F075F000A428F875F002EBA428FB6C
:1048A8007408122026E5822AFCE5833BFD85080A68
:1048B800750B00AA0AAB0B120C200F74FF2509F523
:1048C800090247F37408122026AC82AD837A0C796A
:1048D80002120D28E980387A017901120F50E98017
:1048E8002E908BC11222587A007B109002ACE0F90E
:1048F800120BF07404121FF1E97A007901120F50BB
:10490800E99002DD7400F0120CC28003120C80EEF4
:104918009002ADF0741E121FF17F04022104C082C0
:10492800C08374FD121FDB851882851983AA82ABA8
:1049380083120E4EE96012851882851983AC82AD08
:10494800837A037900120CECE97403121FF1D08307
:10495800D08202013574F412203274D1121FDBEABE
:10496800FEEBFF74041220267400F0A37400F074A8
:10497800021220267400F0A37400F08518828519AD
:10498800837400F0A37400F08518828519838582EA
:104998000885830978081222457404122026AC82FF
:1049A800AD837406122026AA82AB83120A5E7402B3
:1049B800121FF1EEFCEFFD7406122026AA82AB83CB
:1049C800120C62E97404122026E0F508A3E0F50948
:1049D80074087808121FA9E508740F122026E50844
:1049E800F07404122026E0F8A3E0F9E8C0E0740EA1
:1049F800122026D0E0F07402122026E0F508A3E089
:104A0800F50974087808121FA9E508741112202600
:104A1800E508F07402122026E0F8A3E0F9E8C0E007
:104A28007410122026D0E0F0851882851983E0F5ED
:104A380008A3E0F50974087808121FA9E50874139B
:104A4800122026E508F0851882851983E0F8A3E08E
:104A5800F9E8C0E07412122026D0E0F074061220A3
:104A680026E0F508A3E0F50974087808121FA9E5FF
:104A7800087415122026E508F07406122026E0F8BE
:104A8800A3E0F9E8C0E07414122026D0E0F074081E
:104A9800122026E0F508A3E0F50974087808121F2B
:104AA800A9E5087417122026E508F07408122026D4
:104AB800E0F8A3E0F9E8C0E07416122026D0E0F090
:104AC800740A122026E0F508A3E0F50974087808AE
:104AD800121FA9E5087419122026E508F0740A12B5
:104AE8002026E0F8A3E0F9E8C0E07418122026D0E8
:104AF800E0F0740C122026E0F508A3E0F50974082C
:104B08007808121FA9E508741B122026E508F0741E
:104B18000C122026E0F8A3E0F9E8C0E0741A12208D
:104B280026D0E0F0741C12202674AAF0741D1220FE
:104B38002674BBF0741E12202674AAF075080E7530
:104B4800090078081222457410122026AC82AD8321
:104B58007421122026AA82AB83120B187402121F2A
:104B6800F18A0A8B0B850A08850B09742D122026F9
:104B7800740DF0742E122026740AF07C137D0074D4
:104B88001C122026AA82AB83120CE6742F121FF186
:104B98007F0402210474F0122032748C121FDB8906
:104BA8000B8A08908B56C082C0837404122026ACEE
:104BB80082AD83D083D0827408121EEE908B0EC013
:104BC80082C083746C122026AC82AD83D083D082DD
:104BD8007408121EEE908B46C082C0837464122043
:104BE80026AC82AD83D083D0827408121EEE908BDF
:104BF8004EC082C083745C122026AC82AD83D08301
:104C0800D0827408121EEE908B3EC082C08374540A
:104C1800122026AC82AD83D083D0827408121EEE97
:104C2800908B2EC082C083744C122026AC82AD8338
:104C3800D083D0827408121EEE908B1EC082C0836F
:104C48007444122026AC82AD83D083D082740812BB
:104C58001EEE908B06C082C083743C122026AC8264
:104C6800AD83D083D0827408121EEE908AFEC08273
:104C7800C0837434122026AC82AD83D083D0827472
:104C880008121EEE908AE6C082C083742C12202679
:104C9800AC82AD83D083D0827408121EEE908B361E
:104CA800C082C0837424122026AC82AD83D083D006
:104CB800827408121EEE908AD6C082C083741C12B9
:104CC8002026AC82AD83D083D0827408121EEE9069
:104CD8008ADEC082C0837414122026AC82AD83D0D1
:104CE80083D0827408121EEE908AF6C082C0837444
:104CF8000C122026AC82AD83D083D0827408121E99
:104D0800EE7404122026AE82AF83E5086039146081
:104D18004214604B14605414605C14606414606C3A
:104D280014607414607C147003024DB5147003028F
:104D38004DC0147003024DCB147003024DD614708D
:104D480003024DE1024DEC7404122026AE82AF83BB
:104D5800024DF5746C122026AE82AF83024DF574B5
:104D680064122026AE82AF83024DF5745C122026B1
:104D7800AE82AF8380777454122026AE82AF8380D0
:104D88006C744C122026AE82AF838061744412206A
:104D980026AE82AF838056743C122026AE82AF8343
:104DA800804B7434122026AE82AF838040742C125C
:104DB8002026AE82AF8380357424122026AE82AFBF
:104DC80083802A741C122026AE82AF83801F74143D
:104DD800122026AE82AF838014740C122026AE8275
:104DE800AF8380097404122026AE82AF83E50B706E
:104DF80015120C38E9EEFAEFFB120C567A017944D9
:104E0800120C4A024FA5120C38E9EEFAEFFB120C0D
:104E1800567A0079BE120C4A120C50E9F509120CA8
:104E280050E9F50AE5086003024ED39002DA7400EF
:104E3800F07C247D0079FF7AB67B02120B30900259
:104E4800DAE0F8790074B628F582740239F58374CB
:104E5800AAF09002DAE02401F09002DAE0F8790092
:104E680074B628F582740239F58374BBF09002DABF
:104E7800E02401F09002DAE0F8790074B628F582AF
:104E8800740239F58374BBF09002DAE02401F0E58E
:104E9800099002DAE0F8790074B628F582740239CC
:104EA800F583E509F09002DAE02401F0E50A9002C2
:104EB800DAE0F8790074B628F582740239F583E5EA
:104EC8000AF09002DAE02401F0803AE5099002DA6B
:104ED800E0F8790074B628F582740239F583E5099B
:104EE800F09002DAE02401F0E50A9002DAE0F879BD
:104EF8000074B628F582740239F583E50AF0900249
:104F0800DAE02401F0740D65086003024FA59002F1
:104F1800DAE0F8790074B628F582740239F58374FA
:104F28000DF09002DAE02401F09002DAE0F879005E
:104F380074B628F582740239F583740AF09002DA9F
:104F4800E02401F07C117D007AB67B02120CE67A2F
:104F5800007B007C007D00851882851983EAF0A318
:104F6800EBF0A3ECF0A3EDF0908BF1780C121EABF4
:104F7800851882851983780C121CA75015908BDD33
:104F8800780C121EAB851882851983780C121E24A2
:104F980080D67C107D007AC77B02120CE6747412EE
:104FA8001FF17F08022104C082C08374FA121FDB3C
:104FB800851882851983AA82AB83120F74E960125F
:104FC800851882851983AC82AD837A067900121020
:104FD80010E97406121FF1D083D082020135C08215
:104FE800C08374F5121FDB7407122026AA82AB83D4
:104FF800120ED2E9605C85188285198374AAF07450
:105008000112202674BBF0740212202674CCF074AE
:1050180009122026E0C0E07403122026D0E0F074C4
:105028000A122026E0C0E07404122026D0E0F074B2
:1050380005122026740DF07406122026740AF07CDE
:10504800077D00851882851983AA82AB83120CE636
:10505800804A85188285198374AAF0740112202663
:1050680074BBF0740212202674CCF074031220264C
:105078007476F074041220267476F07405122026D3
:10508800740DF07406122026740AF07C077D0085E2
:105098001882851983AA82AB83120CE6740B121F3F
:1050A800F1D083D082020135C082C08374FC121F04
:1050B800DB851882851983AA82AB83120E60E960AA
:1050C80012851882851983AC82AD837A047900121F
:1050D8000CF2E97404121FF1D083D082020135C0AA
:1050E80082C08374FC121FDB851882851983AA820B
:1050F800AB83120F14E96012851882851983AC827C
:10510800AD837A04790012100AE97404121FF1D0F1
:1051180083D082020135C082C08374FA121FDB85F6
:105128001882851983AA82AB83120EA8E9601285BA
:105138001882851983AC82AD837A067900120E3005
:10514800E97406121FF1D083D08202013574F71278
:10515800203274FF121FDBE9FE14600514605980C9
:1051680061851882851983AA82AB8379011210227E
:10517800E9851882851983E0701B9002B1E06042CE
:105188009002B17400F07A007B019002ACE0F91251
:105198000B6CE9802D9002B1E0700D7A007B0190D4
:1051A80002ACE0F9120B6CE9851882851983E0904E
:1051B80002B1F0120A10800A7AC17B0B7902121030
:1051C80022E97401121FF17F01022104C082C08309
:1051D800908BA51222587A007B409002ACE0F9121D
:1051E8000BF07404121FF1E9D083D08202013574E8
:1051F800F712203274FF121FDBE9FE1460051460F9
:105208005C8064851882851983AA82AB8379011230
:105218000D40E9851882851983E0701B9002B2E081
:1052280060459002B27400F07A007B029002ACE014
:10523800F9120B6CE98030851882851983E06401C6
:1052480070259002B2E0701F9002B27401F07A00EB
:105258007B029002ACE0F9120B6CE9800A7AC37BFE
:105268000B7902120D40E97401121FF17F0102212E
:105278000474F712203274FF121FDBE9FE14600574
:105288001460608068851882851983AA82AB837947
:1052980001120FC8E9851882851983E070199002F8
:1052A800B4E060139002B47400F07A087B009002B6
:1052B800ACE0F9120B6CE9851882851983E064016A
:1052C800702B9002B4E070259002B47401F0900243
:1052D800DF7400F07A087B009002ACE0F9120B6CE6
:1052E800E9800A7ABB7B0B7902120FC8E9740112B4
:1052F8001FF17F0102210474F012203274F8121F8A
:10530800DB890A7401650A60030253BE8518828529
:105318001983AA82AB837901120D0AE9851882855F
:105328001983E0FA7B007401122026E0F87900E482
:10533800C8F9EA28F8EB39F9E8FEE9FF7402122007
:1053480026E0FA7B007403122026E0F87900E4C80E
:10535800F9EA28F8EB39F988088909740412202633
:10536800E0FA7B007405122026E0F87900E4C8F919
:10537800EA28F8EB39F9880E890F7406122026E01E
:10538800FA7B007407122026E0F87900E4C8F9EAED
:1053980028F8EB39F9880C890D780C122245780E1B
:1053A8001222457902AC08AD09EEFAEFFB1211188A
:1053B8007404121FF1E97402650A70041210E8E916
:1053C8007408121FF17F0802210474F41220327449
:1053D800FA121FDBEAFEEBFF8C088D09741212200B
:1053E80026E0F50AA3E0F50BEE851882851983F00F
:1053F800EEF8EFF9E4E9F8C0E07401122026D0E0F5
:10540800F0E5087402122026E508F0A808A909E4C6
:10541800E509A809E5097403122026E509F0E50A5B
:105428007404122026E50AF0A80AA90BE4E50BA8E3
:105438000BE50B7405122026E50BF08518828519FB
:1054480083AC82AD837A067900120D04E9740612E2
:105458001FF17F0402210474F01220328A0A8B0B98
:1054680089088C0C8D0985090E750F00AA0EAB0FE3
:10547800120BAE8A0E8B0FAE0EAF0FEE4F700302FB
:10548800551F85090E750F00AC0EAD0FA90CEEFA6D
:10549800EFFB120B30850A0E850B0F780E1222CF08
:1054A8000000060000AAC65410AAD45420AAF0543A
:1054B80030AAE25440AAFE5450AA0C551855EEFCE6
:1054C800EFFDAA09A90812100AE98044EEFCEFFDD5
:1054D800AA09A908120CECE98036EEFCEFFDAA092E
:1054E800A908121010E98028EEFCEFFDAA09A90806
:1054F800120FC2E9801AEEFCEFFDAA09A908120CE6
:10550800F2E9800CEEFCEFFDAA09A908120E30E9B9
:10551800EEFAEFFB120BB47F0802210474F3122099
:10552800328A088B09ECFEEDFFC3EE9415EF940068
:105538004005750C148003EEF50C90032C742EF0C6
:10554800A37400F0E50C90032EF0850C0A750B008F
:10555800780A122245AC08AD097A2F7B03120B1882
:105568007402121FF179007C2C7D037A007B0012F3
:1055780013EEE97F0502210474EE12203274FA1248
:105588001FDB8A0A8B0B8909ECFEEDFF7508008585
:105598000A0C850B0D780C1222890004105958C981
:1055A80055EA5509562A564B566C569F56C056D73B
:1055B800560557C357E45704582E58595859583068
:1055C800577401650970158E828F83E0C394035068
:1055D8000B8E828F83E0900ED2F08003750818023C
:1055E80058827402650970138E828F83E0F8A3E0F5
:1055F800F9900ED3E8F0A3E9F08003750818025873
:10560800827401650970158E828F83E0C3940250FD
:105618000B8E828F83E0900399F08003750818023F
:1056280058827401650970158E828F83E0C39405D2
:10563800500B8E828F83E090039AF08003750818D0
:105648000258827401650970158E828F83E0C394B5
:1056580002500B8E828F83E090039BF080037508C5
:1056680018025882741065097027750C10750D00A2
:10567800780C122245EEFCEFFD7A9C7B03120B1886
:105688007402121FF18A0C8B0D850C82850D8380A4
:10569800037508180258827401650970158E828F87
:1056A80083E0C39402500B8E828F83E09003ACF0AA
:1056B800800375081802588274016509700B8E8280
:1056C8008F83E0900ED6F080037508180258827414
:1056D8000465097022908BB1780C121EAB8E828FF4
:1056E80083780C121CA7500F8E828F83121EC990CC
:1056F80003AE121ED58003750818025882E509709A
:1057080021121376E97013120DD6E9F50C795012AF
:1057180010CAE9F50D120DC4800B9004417401F014
:1057280080037508180258827407650960030257D8
:10573800BD750E06750F00780E1222458E828F8376
:10574800A3AC82AD837402122026AA82AB83120B0B
:105758001E7402121FF18A108B1185100E85110F0D
:105768007C007D00851882851983AA82AB838E828E
:105778008F83E0F9120D6AE9F50CE50CC3940A5021
:105788002F121376E97015A90C120DDCE9F50D79C5
:10579800501210CAE9F50E120DC4801C750D007464
:1057A80042250CF5827404350DF5837401F08008E8
:1057B800750802800375081802588274016509701B
:1057C800158E828F83E0C39402500B8E828F83E004
:1057D8009003ADF0800375081802588274016509BA
:1057E80070158E828F83E0C3940A500B8E828F834C
:1057F800E0900ED5F08003750818807E7401650965
:10580800701F8E828F83E0C3940740158E828F832A
:10581800E0C39411500B8E828F83E0900ED7F080F6
:10582800597508188054740165097020900440E087
:10583800F50C8E828F83E0900440F0E50C703B906D
:105848000440E064017033120DC4802E750818807E
:1058580029C3E50A9427E50B9400501B74026509D7
:1058680070158E828F83E0FCA3E0FDAA0AAB0B12B1
:105878001214E9F5088003750802A9087406121FB6
:10588800F17F0A02210474EC12203274DA121FDB51
:10589800890D8A128B138C0A8D0B743A122026E01C
:1058A800F50C908B76C082C083851882851983ACED
:1058B80082AD83D083D0827406121EEE851882854D
:1058C8001983AC82AD83AA12AB13A90D120D6AE934
:1058D800FEEEC3940A4003025A2DEEF9120DA6E912
:1058E800FF900ED2E064027004740180027400F527
:1058F800087808122249AD0CEFFCEEF9AA0AAB0BA6
:10590800120E187401121FF17C147D0079007412B4
:10591800122026AA82AB83120B308A0E8B0F850EBB
:1059280008850F097412122026AC82AD837A10758F
:10593800F006EEA42424F91210C4E970437C10790F
:10594800FF7412122026AA82AB83120B90E97030E2
:105958007422122026AC82AD837A0475F006EEA478
:105968002425F91210C4E9F5087412122026AC8215
:10597800AD83EFA2E0E433F9AA0AAB0B12129EE959
:105988007406122026AC82AD837A0C74702EF9123C
:1059980010C4E9707E7406122026AA82AB83120D09
:1059A8009A750E00E50EC394045068E50EA80E79AA
:1059B80000E875F003A4C8AAF075F000A42AFA75E7
:1059C800F003E9A42AF97406122026E58228F508CE
:1059D800E58339F509850882850983E0F8A3E0F9AC
:1059E800E849602B850882850983A3A3E0F5107533
:1059F80011007810122245850882850983E0FCA3EE
:105A0800E0FDAA0AAB0B1215027402121FF1E90598
:105A18000E8091EFA2E1500D900398E0F9AA0AAB2D
:105A28000B121508E97404650C700F900ED2E0642F
:105A3800027007AA0AAB0B120E1279007426121F05
:105A4800F17F0C02210474F2122032890BEAFEEB7A
:105A5800FF8C088D09750A0AE50B600C146009149F
:105A68006044146064025AF2EEFAEFFB120DB8E9D2
:105A7800F50AE50AC3940A5071E5084509606B7593
:105A88000C06750D00780C122245EEFCEFFDAA08F5
:105A9800AB09120B187402121FF18A0C8B0D850CBE
:105AA80082850D838044EEFAEFFB120DB2E9F50A08
:105AB800E50AC3940A5033E5084509602DAA08ABE6
:105AC80009A90A120DACE98021EEFAEFFB120DBE0E
:105AD800E9F50AE50AC3940A5010E5084509600A81
:105AE800AA08AB09A90A120DACE9A90A7F06022186
:105AF8000474F21220328A0C8B0DE9FE7F1574FFB4
:105B0800650C700474FF650D702A750800E508C3FC
:105B1800940A5014EEFC7A027B00A908120D88E959
:105B280060027F00050880E5EE60637A007B0E1254
