:020000040000FA
:0600000002011D022AF7B7
:03002B000223B7F6
:0300330002238F16
:03005300022B6A13
:03006B0002233637
:03007B0002235EFF
:10008300022963E5C754F84401F5C779012200004A
:100093000080FB120086B90003020107E47921788E
:1000A30008B800028004F709D8FCE479297802B87B
:1000B30000028004F709D8FCE490028178F0790803
:1000C3008002F0A3D8FCD9FA781A90014D7A01BACC
:1000D30000028007E493A3F608DAF9900A70AA8273
:1000E300AB8390014E785079098015E493A3AC82D9
:1000F300AD838A828B83F0A3AA82AB838C828D83A8
:10010300D8E9D9E775822375839D740412012F758D
:100113008291758300740012012F75D00075813FA1
:10012300751881751902759F00020096C09FF59F8F
:10013300E473D09F22D083D082C09FE493C0E07445
:100143000193C0E0740293F59F22019D09A309A9BD
:1001530009AF09B509BB09C109C709CD09D309D934
:1001630009DF09E509EB09F109F70968FFFF037BDB
:10017300034CCD6C03AB0336567600680402CB47C1
:10018300A202180400058BC1010C04000000000347
:100193007F060CC92C979797038903264666006C44
:1001A300022000024004000000000244040000009A
:1001B3000002480400000000024C0400000000029A
:1001C3005004000000000254040000000002580420
:1001D30000000000025C040000000002BC040000F8
:1001E300000001EC0400004000037F060CC92C97BB
:1001F30097970402030D355D040904872D353D00EF
:10020300A3010000000001078601FE074105F1205C
:10021300283038077E01300746019A074704F12842
:100223003038076C04F1283038021602000101B29D
:1002330002FFFF0190040923A135016A02060001B0
:10024300600800000000000000000060044000009F
:10025300000162020000006004004000000B095628
:10026300756C7475726545676705122F013F01024E
:100273000A00020106030288FF45676700D007E80A
:1002830003E8037011E803E803D00760EA2A007962
:100293000C0000B50CC10CCD0CD30CD90C1241636E
:1002A30063656C2E2044617461000A416363656C6D
:1002B3002E20436F6E662E000A0A416363656C2E1F
:1002C30020506572696F640002CE8A010000F88BCA
:1002D300021E8C010000C20B10088A0100004303B8
:1002E30002248C030000460302228C010000C30B8E
:1002F300021E8C010000CF0B10188A0300004C0370
:1003030002228C010000D00B021E8C010000DD0BC9
:1003130010288A030000DE0B02228C010000DF0B91
:10032300124261726F6D2E2044617461000A426152
:10033300726F6D2E20436F6E662E00024261726FE4
:100343006D2E2043616C6962722E000A0A4261724B
:100353006F6D2E20506572696F640002CE8A0100B2
:1003630000198C021E8C010000450C10588A0100F4
:10037300004D0302248C030000510302228C010070
:1003830000460C021E8C010000520C10688A030008
:1003930000570302228C010000530C021E8C010043
:1003A30000700C10888A030000710C02228C01007B
:1003B30000720C021E8C010000600C10788A010090
:1003C30000580302248C030000680302228C0100FE
:1003D30000610C12436F6E6E2E20506172616D735B
:1003E3000008436F6E6E2E20506172616D73205250
:1003F30065710008446973636F6E6E6563742052A0
:1004030065710002CE8A010000FB8B021E8C010085
:1004130000F80C10388A010000700302248C0300DA
:1004230000760302228C010000F90C021E8C0100ED
:1004330000060D10E8890200007C0302228C0100F3
:1004430000070D021E8C010000180D10D889020050
:1004530000840302228C010000190D0202023132D2
:100463003334353637383930313200020202020272
:1004730002010D000000100102CE8A0100000D8C64
:10048300021E8C010000800D02468C0100008503D2
:10049300021E8C010000810D02448C010000748B4C
:1004A300021E8C010000820D02428C010000830DAC
:1004B300021E8C010000910D023C8C010000368B62
:1004C300021E8C010000920D02388C010000958BF6
:1004D300021E8C010000900D022E8C0100003E8B49
:1004E300021E8C010000930D022C8C010000D987A1
:1004F300021E8C010000940D022A8C010000A88AC0
:10050300021E8C010000950D02268C010000960D41
:1005130012447331386232302E2044617461000A10
:10052300447331386232302E20436F6E662E000AD8
:10053300D007447331386232302E20506572696FB0
:10054300640002CE8A010000108C021E8C010000A0
:10055300350E10A8890100008F0302248C030000CC
:10056300910302228C010000360E021E8C01000052
:10057300440E109889030000970302228C010000A7
:10058300450E021E8C010000540E108889030000E2
:10059300550E02228C010000570E01E803053F109F
:1005A3000A124779726F2044617461000A477972B5
:1005B3006F20436F6E662E000A0A4779726F2050D0
:1005C3006572696F640002CE8A010000F58B021E1A
:1005D3008C010000C60E1068890100005204022439
:1005E3008C030000580402228C010000C70E021E77
:1005F3008C010000D10E1058890300005E04022212
:100603008C010000D20E021E8C010000DD0E10488A
:1006130089030000DE0E02228C010000DF0E0300BE
:1006230080700061801248756D69642E2044617486
:1006330061000A48756D69642E20436F6E662E0053
:100643000AD00748756D69642E20506572696F641E
:100653000002CE8A010000018C021E8C0100004AB8
:100663000F102889010000C10402248C030000C577
:100673000402228C0100004B0F021E8C0100005764
:100683000F101889030000CB0402228C01000058CC
:100693000F021E8C010000650F100889030000661D
:1006A3000F02228C010000680F1254656D702E201A
:1006B30044617461000A54656D702E20436F6E6649
:1006C3002E000A1E54656D702E20506572696F648A
:1006D3000002CE8A010000138C021E8C010000CEA2
:1006E3000F10E888010000CC0402248C030000D022
:1006F3000402228C010000CF0F021E8C010000DADD
:100703000F10D888030000D60402228C010000DBFE
:100713000F021E8C010000E70F10C889030000E8D8
:100723000F02228C010000E90F124D61676E2E202B
:1007330044617461000A4D61676E2E20436F6E66DB
:100743002E000A0A4D61676E2E20506572696F6430
:100753000002CE8A010000168C021E8C0100004E9E
:100763001010A888010000D70402248C030000DDC8
:100773000402228C0100004F10021E8C0100005A5B
:1007830010109888030000E30402228C0100005B30
:1007930010021E8C01000067101088880300006897
:1007A3001002228C0100006910124D70753630352D
:1007B300302E2044617461000A4D70753630353037
:1007C3002E20436F6E662E000AC8004D70753630BA
:1007D30035302E20506572696F640002CE8A0100A5
:1007E300000A8C021E8C010000CE101068880100E4
:1007F30000E60402248C030000F40402228C0100AE
:1008030000CF10021E8C010000DD10105888030079
:1008130000FA0402228C010000DE10021E8C01008B
:1008230000ED10104888030000EE1002228C010036
:1008330000F010FF00013075030201060000000004
:1008430000000000000000000000000000000000A5
:100853000000000000000000FFFF0600800CE8031A
:10086300104B6579205072657373205374617465FE
:100873000002CE8A010000078C021E8C0100008555
:100883001102328C000000AA0502248C030000AB85
:100893000502228C0100008611FF0000B40000282D
:1008A300002800283075A000A000A000A0000008C8
:1008B3000008E001F000100010001000100010000C
:1008C300100050005000500010001000D00700002E
:1008D300000000000F000100050030750700100044
:1008E300010081FF00000000FFE5120313EB12FF7C
:1008F30002020208025000A0000000E80302CE8AB0
:10090300010000048C021E8C010000151202288CC9
:10091300010000E305021E8C010000161202348C54
:10092300010000F905021E8C0100001712023A8C27
:10093300010000FB05021E8C010000181202408C0E
:10094300080000FC05021E8C0100001912024C8CE9
:100953000100001A12FF0100FF2002CE8A010000ED
:10096300FE8B021E8C0100007E12024A8C000000E6
:10097300000002248C0300004906BB18BB18BB18F7
:10098300BB18BB18BB18BB18BB18BB18BB18BB18CC
:10099300BB18BB184F1B671B491B120138FEF9021A
:1009A3001201384AFA02120138A0FA02120138453C
:1009B300FB02120138F9FB0212013818FC02120182
:1009C3003837FC0212013865FC0212013898FC0228
:1009D30012013811FD0212013897FD021201383756
:1009E300FE02120138FCFE021201382EFF02120130
:1009F3003863FF0212013891FF021201385BEF02E4
:100A03001201387AEF021201389DEF02120138C445
:100A1300EF02120138EBEF0212013812F002120159
:100A23003839F0021201385CF0021201387FF0020B
:100A3300120138A2F002120138C5F002120138F790
:100A4300F0021201381AF10212013844F1021201C4
:100A530038E0F10212013805F2021201382AF202DB
:100A63001201384FF20212013874F202120138995E
:100A7300F202120138BEF202120138E5F20212014B
:100A83003823F3021201384FF3021201387BF302C9
:100A9300120138A0F302120138D9F302120138000F
:100AA300F40212013839F40212013860F40212011F
:100AB3003899F402120138C0F402120138E5F40245
:100AC3001201380AF50212013848F5021201386B97
:100AD300F50212013895F50212013874F60212017B
:100AE300381CF8021201386CF80212013899F90225
:100AF300120138B8F902120138DBF9021201380C7D
:100B03009D03120138219D03120138799D031201BF
:100B130038E09D03120138289E031201389E9E037C
:100B2300120138CD9E03120138DB9E031201383FB8
:100B33009F031201387D9F03120138989F0312010E
:100B43003830A003120138D9A0031201385CA10385
:100B530012013895A10312013820A203120138773C
:100B6300A203120138D6A203120138E8A20312012C
:100B7300380EA30312013817A30312013876A40316
:100B8300120138188E04120138F78E04120138321C
:100B9300F80312013877F803120138BDF803120184
:100BA3003850FA03120138BC9504120138D7950462
:100BB300120138E795041201383E96041201387287
:100BC3009B041201384AB3031201386AB3031201BA
:100BD300386EB403120138BAB403120138DAB4031D
:100BE3001201382DB5031201389AB503120138E00A
:100BF300B50312013844B603120138F6B8031201E3
:100C030038008004120138308004120138608004F7
:100C13001201382381041201387D8104120138E462
:100C23008604120138FC8604120138598704120124
:100C3300389D8704120138CF8704120138068804CF
:100C4300120138298804120138303200120138C2E7
:100C530038001201388939001201388F3900120126
:100C6300380F3C001201382D43001201385843005D
:100C73001201385E44001201389044001201389684
:100C83004600120138CD46001201380D4900120109
:100C9300381F4D00120138564D00120138204E0006
:100CA300120138574E001201388E4E00120138C51A
:100CB3004E00120138F74E00120138764F00120130
:100CC30038BB4F001201383D500012013867500005
:100CD300120138ED5000120138C051001201384D95
:100CE30052001201381253001201384397041201C3
:100CF30038B99104120138D7D5031201382AD60323
:100D030012013847D6031201381CD7031201389950
:100D1300D70312013876D803120138EBD903120135
:100D2300389EBE03120138C3BE0312013821BF032C
:100D330012013835DE0312013888DE03120138B19F
:100D4300DE031201381ADF0312013858E0031201DF
:100D53003812E203120138159C041201386E530055
:100D63001201387C56001201383C5800120138E752
:100D730058001201388B5900120138245A0012010D
:100D830038535A001201382D5F00120138D85F0022
:100D9300120138486100120138B061001201386451
:100DA30062001201382665001201386565001201E0
:100DB30038D9650012013838660012013897660089
:100DC300120138066700120138F967001201383F33
:100DD3006800120138846800120138A76800120104
:100DE30038226A00120138356A001201383E6B005E
:100DF3001201387D6B00120138A96B00120138FC17
:100E03006B001201381D6C00120138616C00120175
:100E130038B36E00120138F46E001201389F6F0070
:100E23001201380A70001201384771001201386547
:100E33009904120138F39304120138D39404120174
:100E4300388A9604120138A896041201383197049F
:100E53001201387A9E041201388D90041201389DD4
:100E63009004120138AE9004120138B391041201B8
:100E730038D5EF031201387BF00312013897F203E0
:100E830012013894FA03120138F6FA031201386E8C
:100E9300FB0312013816FC0312013835FC0312015F
:100EA3003845FC0312013884FC03120138758B04A6
:100EB300120138AF8B04120138228C041201385C02
:100EC3008C041201386E8C04120138A58C041201B3
:100ED30038448504120138938504120138C585040A
:100EE300120138568604120138D2860412013800E2
:100EF3008A04120138298A04120138528A04120121
:100F030038128B04120138638B041201387388047E
:100F1300120138A6880412013822890412013842CA
:100F23008904120138A78904120138EF89041201D8
:100F330038F28904120138959E04120138A79E04E1
:100F4300120138AA9E04120138538F04120138A2E9
:100F53008F04120138CE8F04120138EE8F04120170
:100F6300387B9004120138C98C041201381A8D049D
:100F7300120138618D04120138EB8D04120138F827
:100F83007F0012013885F5031201387CF703120143
:100F930038E8F7031201382FF80312013809FB016F
:100FA3001201385CFB0112013885FB011201384341
:100FB300FC01120138ACFC01120138EAFD011201F7
:100FC30038A4FF01120138F99704120138AF9804CD
:100FD3001201381BDA031201386EDA031201389753
:100FE300DA0312013800DB031201383EDC0312017D
:100FF30038F8DD0312013896FC03120138FFFC03B5
:10100300120138BDFD031201383CFE03120138B64C
:10101300E903120138E8E903120138F0EA03120187
:101023003815EC03120138008003120138E68003FF
:10103300120138338103120138768103120138EB30
:1010430081031201384C8203120138C18203120159
:10105300389D8303120138A88403120138298503BC
:10106300120138D08603120138668703120138D97A
:1010730087031201385588031201386C8803120163
:1010830038A38903120138FD8903120138DCE70113
:1010930012013874EC0112013848EF011201387162
:1010A300EF0112013888EF01120138B1EF0112018B
:1010B3003863F00112013849F20112013884F30157
:1010C300120138BAF801120138F3F8011201383766
:1010D300F90112013849FA01120138979D041201EE
:1010E300381B9A04120138E58104120138FC81048B
:1010F3001201382D820412013868820412013892D9
:101103008204120138BC8204120138D38204120112
:1011130038EA82041201380183041201382A830455
:101123001201383D830412013853830412013866D7
:1011330083041201388D8304120138698A03120172
:10114300386D8B03120138A58B03120138C88B034A
:10115300120138D38B03120138F68B0312013805C1
:101163008D03120138DA8D03120138558E031201F3
:1011730038DD8E03120138188F031201384F8F03A5
:10118300120138DD8F03120138B6900312013816AD
:101193009103120138219103120138A09103120126
:1011A30038A39103120138A6910312013835920333
:1011B30012013838920312013868920312013892EF
:1011C30092031201388093031201383294031201FF
:1011D30038B7C303120138DFC3031201380DC40348
:1011E30012013844C403120138A2C403120138EDBA
:1011F300C40312013838C50312013878C50312013C
:1012030038BEC503120138ECC503120138A9C60361
:10121300120138B3C603120138C0C603120138F3F2
:10122300C603120138BFC703120138CBC70312012B
:1012330038E3C703120138EDC703120138E59404FC
:10124300120138F394041201380B95041201382368
:101253009504120138519F02120138FD9F021201B9
:101263003878A00212013899A102120138D5A102DF
:101273001201387EA20212013865A302120138C995
:10128300A40212013820A502120138A1A5021201FD
:101293003891A602120138DEA60212013864A702B1
:1012A30012013896A702120138AAA902120138ECDA
:1012B300A9021201380AAA021201388DAA021201E8
:1012C3003861AB0212013829AC0212013827AC0392
:1012D300120138FAAC03120138A3AD03120138F638
:1012E300AD03120138A6AE0312013832AF03120167
:1012F300381EB0031201384DB00312013860B10338
:10130300120138A8B1031201387DB203120138B9B2
:10131300B203120138D5B2031201389F9C041201A3
:10132300381DE60312013833E60312013859E60388
:1013330012013875E7031201387FE703120138B44D
:10134300E803120138ACE90312013877B90312013B
:1013530038A7BA03120138DABA0312013824BB03DF
:10136300120138EBBC031201380080021201386A03
:101373008002120138C98102120138D98102120197
:10138300380682021201385D820212013806830296
:101393001201380D8402120138D784021201383742
:1013A30086021201387A86021201381F870212015F
:1013B300386C8702120138928702120138A0890221
:1013C300120138A58902120138AA8B02120138F7DB
:1013D3008B021201386A8C021201389D8C021201B1
:1013E300383F8D02120138E88D02120138208E0237
:1013F300120138238E021201386B8E02120138ABB0
:101403008E02120138028F02120138B2F203120166
:1014130038CAF20312013812F30312013828F30316
:101423001201386FF30312013883F40312013810E9
:10143300F5031201385BF503120138518C011201D7
:10144300385D8C01120138988C01120138DD8C0152
:101453001201389D8D01120138238E011201388843
:101463008E01120138B48E01120138ED8E01120182
:10147300382B91011201380F9301120138F59401B1
:1014830012013838960112013886980112013898F2
:101493009901120138E39A01120138F39B011201F9
:1014A30038109C011201384B9C011201386D9C01CC
:1014B300120138D09C0112013891A1011201382682
:1014C300A20112013877A2011201389EA201120172
:1014D30038F0A2011201380EA30112013868A301EA
:1014E30012013851A401120138C7A5011201384B6A
:1014F300A60112013874C8031201387EC803120111
:1015030038C1C803120138DCC8031201386CC9039F
:1015130012013894C903120138D1C90312013808E2
:10152300CA0312013831CA03120138A6CA031201D1
:1015330038BBCA03120138D0CA0312013801CB03E6
:1015430012013815CB031201383ACB031201387458
:10155300CB03120138A0CB03120138D8CB031201FD
:101563003857CC03120138A0CC03120138CACC037C
:10157300120138F5CC03120138DA92041201385AF9
:10158300D70212013888D702120138D6D8021201C5
:1015930038B6D902120138D5D90212013852DA020B
:1015A30012013895DA02120138EBDB02120138AC72
:1015B300DC0212013833DF02120138D4DF021201D8
:1015C30038CAE002120138C7E10212013821E302EE
:1015D300120138ACE30212013895FE03120138FE02
:1015E300FE0312013852FF0312013879FF0312017F
:1015F30038AAFF031201381DCD031201388ACD0327
:10160300120138D1CD03120138E9CE03120138E5B6
:10161300CF03120138C8D003120138A39403120177
:1016230038E59403120138B79503120138909603F5
:101633001201388A97031201386C9803120138D5C6
:1016430098031201388B9903120138FF9903120191
:10165300386B9A03120138949A031201380E9B03D4
:10166300120138A79B031201380C9C031201382185
:101673009C03120138679C03120138809C031201FA
:1016830038E59C03120138E89C03120138DCEC03B3
:1016930012013804ED0312013842ED031201380040
:1016A300EE0312013867EE0312013883EE031201D1
:1016B30038ABEE03120138DBEE03120138EAEE0316
:1016C30012013867EF031201388DEF03120138EF6F
:1016D3008F02120138CD9102120138FF93021201D9
:1016E300383B940212013868940212013852950271
:1016F3001201389D9502120138E89502120138FA59
:1017030095021201383A96021201386F96021201BD
:1017130038BD9602120138EC96021201380F970277
:101723001201385C9702120138E19702120138FB6B
:1017330099021201383A9C021201387B9C02120171
:10174300381D9E021201385E9E02120138D19E029C
:10175300120138279F0212013845CA021201384389
:10176300CB02120138DCD102120138FDD30212017F
:1017730038C8D50212013830D702120138B2A60197
:1017830012013861A7011201388EA701120138D462
:10179300A70112013814A901120138AAAA011201E2
:1017A3003824AB011201383FAB01120138BAAB0147
:1017B30012013814AD0112013874AE011201387AE6
:1017C300AF01120138DBB001120138F4B00112018C
:1017D3003852B10112013840B20112013873B2011B
:1017E300120138E3B2011201385DB301120138A7C7
:1017F300B30112013871B40112013846B501120167
:101803003825B601120138B0B6011201381EB701EE
:1018130012013892B701120138BDB7011201387CA9
:10182300B801120138E1B901120138FEB901120100
:10183300381DBA011201380EBB0112013833BB0146
:101843001201385DBB01120138D8BB0112013832D5
:10185300BC011201389BBD0112013849BE011201BE
:10186300388ABE0112013871BC02120138BFBC02B2
:10187300120138CBBC02120138A9BD02120138DAB9
:10188300BD021201380BBE021201388BBE021201D7
:1018930038C3BE0212013815BF0212013852BF020B
:1018A3001201386FC10212013895C3021201388048
:1018B300C5021201386AC70212013825320012012B
:1018C30038C9D301120138F9D301120138D2DA0130
:1018D30012013857DC0112013854E2011201383C7D
:1018E300E30112013879E3011201389CE30112018B
:1018F30038CDE301120138D6E301120138E0E301E8
:10190300120138CEE401120138C4E501120138BADC
:10191300BE01120138B9C201120138BFC20112015E
:1019230038FAC90112013813CF011201384FE2030B
:10193300120138E5E203120138FBE20312013871A8
:10194300E303120138E5E30312013823E403120130
:101953003897E40312013810E50312013819E5033F
:1019630012013825E5031201383AE50312013878EC
:10197300E5031201388EE503120138EDE503120188
:10198300388AD10312013897D103120138B1D10338
:10199300120138F0D1031201382ED2031201389309
:1019A300D203120138A8D203120138B3D2031201B1
:1019B30038C0D203120138D7D203120138E5D2035B
:1019C300120138F0D203120138FCD2031201380B92
:1019D300D30312013816D30312013839D30312018A
:1019E30038E0D303120138F0D3031201380AD403C9
:1019F30012013827D40312013843D4031201386883
:101A0300D40312013873D40312013888D4031201AA
:101A1300389CD403120138FDD40312013803D503D3
:101A230012013809D5031201380FD50312013827E3
:101A3300D5031201385AD50312013847AE021201F9
:101A430038CBAE021201387AAF02120138D9B00294
:101A5300120138FAB202120138E6B3021201381B3E
:101A6300B4021201383DB402120138ECB40212017F
:101A730038E4B6021201380DB7021201389FB702DB
:101A8300120138D1B702120138DEB702120138351C
:101A9300B8021201385BB802120138C8BA02120147
:101AA30038CBBB0212013823BC021201387B710010
:101AB3001201388572001201386C730012013876F6
:101AC3007300120138987300120138A473001201D5
:101AD300383D75001201386C7500120138887600A4
:101AE300120138E1760012013847780012013826D6
:101AF3007900120138827900120138EF790012015E
:101B0300382A7A00120138697A00120138227D00DE
:101B13001201383C7D00120138C87D00120138D60D
:101B23007D001201382F7E001201383D7E00120124
:101B330038B07E00120138147F001201385E7F0036
:101B43001201382DE4021201384FE40212013875F4
:101B5300E6021201388AE902120138A2EA021201EE
:101B63003855EB0212013837EC021201389F830417
:101B7300120138C48304120138368404120138ADCB
:101B8300A403120138B6A403120138BFA40312013F
:101B93003896A50312013847A7031201387DA7031E
:101BA300120138B7A703120138EDA7031201382732
:101BB300A8031201385BA80312013887A803120196
:101BC30038D0A8031201380AA90312013853A90314
:101BD300120138ABA903120138E0A9031201383B03
:101BE300AA0312013875AA03120138C6AA03120107
:101BF30038FCAA0312013836AB0312013864AB0375
:101C030012013887AB03120138C79A04120138F363
:101C13009A041201384E9B04120138589B04120196
:101C230038689B04120138FC9D041201384E9E044F
:101C3300120138C4FF02120138E1FF01E06670109F
:101C430008A3E066700A08A3E066700408A3E066D0
:101C530022C3E7960809E7960809E7960809E79675
:101C630022C3E09608A3E09608A3E09608A3E096B3
:101C730022C008C3E096F50808A3E096420808A32B
:101C8300E096420808A3E09645087001D3D00822E5
:101C9300080808EAC0E0EBC0E086F0E7A4FA1809F8
:101CA30086F0E7A42AFA180986F0E7A42AFA1809A5
:101CB30086F0E7A42AFA1986F0E7A4FBE5F02AFAEE
:101CC300190886F0E7A42BFBE5F03AFA190886F029
:101CD300E7A42BFBE5F03AFA18180986F0E7A4C548
:101CE300F02BFBE43AFA1908E7C5F0C6A426F6E59B
:101CF300F03BFBE43AFA1886F0E7A4F6E5F0082691
:101D0300F6E43B08F6E43A08F6D0E0FBD0E0FA222A
:101D1300E4CFC0E0E4CEC0E0E4CDC0E0E4CCC0E07A
:101D230075F020C3E633F608E633F608E633F60823
:101D3300E633F6181818EC33FCED33FDEE33FEEF03
:101D430033FFC3EC9709ED9709EE9709EF9719193C
:101D530019400FFFEC97FC09ED97FD09EE97FE196B
:101D63001906D5F0BEECF709EDF709EEF709EFF721
:101D7300191919D0E0FCD0E0FDD0E0FED0E0FF223D
:101D83006016080808C6C313C618C613C618C613B8
:101D9300C618C613C6D5E0EA2270090808082260EF
:101DA30016181818C6C333C608C633C608C633C6C2
:101DB30008C633C6D5E0EA22E627F60809E637F671
:101DC3000809E637F60809E637F622E026F608A3FF
:101DD300E036F608A3E036F608A3E036F622E0265E
:101DE300F008A3E036F008A3E036F008A3E036F0ED
:101DF30022C3E697F60809E697F60809E697F60878
:101E030009E697F622C3E096F008A3E096F008A34C
:101E1300E096F008A3E096F022E657F60809E657A5
:101E2300F60809E657F60809E657F622E056F608DB
:101E3300A3E056F608A3E056F608A3E056F622E020
:101E430056F008A3E056F008A3E056F008A3E056C6
:101E5300F022E0F608A3E0F608A3E0F608A3E0F614
:101E630022E6F008A3E6F008A3E6F008A3E6F022D2
:101E7300E0FAA3E0FBA3E0FCA3E0FD22EAF0A3EB7E
:101E8300F0A3ECF0A3EDF022CAC0E0E6F0A308DA79
:101E9300FAD0E0FA22CAC0E0E0A3C582CCC582C56D
:101EA30083CDC583F0A3C582CCC582C583CDC5834D
:101EB300DAE6D0E0CA22C3E498F8E499F9121EFAEC
:101EC3008026C3E49AFAE49BFBE920E7E9121EFAB1
:101ED300E498F8E499F922C3E498F8E499F9121E16
:101EE300FAE498F8E499F9C3E49AFAE49BFB22EB49
:101EF30020E7CFE920E7E0B90010BB0008E88AF04B
:101F030084F8AAF022E4FBC8FA22EB70227B10C803
:101F130033C8C933C9335007C39AC3DBF280069A67
:101F230050012ADBEAC833F4C8C933F4C9FA22756D
:101F3300F008E4C833C8C933C933C99AC99B5004EC
:101F4300C92AC93BD5F0ECFBC833F4C8E4C9FA226B
:101F5300600D08C6A2E713C618C613C6D5E0F32260
:101F6300600C08C6C313C618C613C6D5E0F42270A6
:101F73000422600D18C6C333C608C633C6D5E0F4C1
:101F83001822251810AF08F518400215198008F516
:101F93001840021519D2AF22C0D0251810AF08F58A
:101FA30018500205198008F51850020519D2AFD050
:101FB300D0222518F58210AF08F5184002151980B4
:101FC30008F51840021519D2AF851983222518F593
:101FD30082E43519F58322E4732518C582C0E0E550
:101FE3001934FFC583C0E0E518C3958224F810AF08
:101FF300088583198582188008858319858218D2FC
:10200300AFCEF0A3E520F0A37808E608F0A3DEFA4C
:10201300EFF0A3E58124FAF8E608F0A3E608F0A3BD
:10202300E608F0A30808E608F0A3E608F0A3158184
:102033001581D0E0FED0E0F8158115811581E8C047
:10204300E0EEC0E0222518C582C0E0E51934FFC5E3
:1020530083C0E0E518C3958224F910AF088583197E
:102063008582188008858319858218D2AFCEF0A3A4
:10207300E520F0A37808E608F0A3DEFAEFF0A3E585
:102083008124FBF8E608F0A3E608F0A30808E608B5
:10209300F0A3E608F0A315811581D0E0FED0E0F8A7
:1020A30015811581E8C0E0EEC0E02285198385180B
:1020B30082E0A3FEE0A3F5207808E0A3F608DFFAA8
:1020C300E0A3FFE0A3C0E0E0A3C0E0E0A3C0E0E042
:1020D300A3C0E0E0A3C0E010AF0885821885831990
:1020E3008008858218858319D2AFD083D0820201FC
:1020F30035851983851882E0A3FEE0A3F5207808CF
:10210300E0A3F608DFFAE0A3FFE0A3C0E0E0A3C08A
:10211300E0E0A3C0E0E0A3C0E010AF08858218852B
:1021230083198008858218858319D2AFD083D08222
:1021330022C0D02518C582C0E0E51934FFC583C08D
:10214300E0E518C3958224F310AF088583198582CF
:10215300188008858319858218D2AFC8F0A3E9F0E7
:10216300A3EAF0A3EBF0A37908E709F0A3D8FAEC0C
:10217300F0A3EDF0A3EEF0A3EFF0A3D0E0F0A3D033
:10218300E0F0A3D0E0F0A3E520F0A3E5F0F0A32274
:10219300851983851882E0C0E0A3E0F9A3E0FAA3E0
:1021A300E0FBA37808E0F608A3DFFAE0FCA3E0FD78
:1021B300A3E0FEA3E0FFA3E0C0E0A3E0C0E0A3E050
:1021C300F5D0A3E0F520A3E0A3F5F010AF088583D5
:1021D300198582188008858319858218D2AFD08229
:1021E300D083D0E0F8D0E032740480067402800219
:1021F3007401C0E0F404121FB5D0E0121E8B2274E8
:1022030004800474028000CCC0E0EDC0E0E518C394
:102213009CCCAD1950011D10AF068C188D1980068A
:102223008C188D19D2AF121E98D0E0FDD0E0FC229D
:10223300D083D082E9C0E0E493A3C386F0C5F095D0
:10224300F0F908E493A386F0C5F095F0700BE493DE
:10225300A3C3994005E9048002A3E475F002A42511
:1022630082F582E5F03583F583D0E0F9E493A3C0EA
:10227300E0E493C0E022D083D082ECC0E0EDC0E084
:10228300E493A3FCE493A3FDED4C600D1222C5EC93
:1022930024FFFCED34FFFD80EFE493A3FCE493A360
:1022A300FDED4C600D122304EC24FFFCED34FFFD27
:1022B30080EFD0E0FDD0E0FCE493A3C0E0E493C062
:1022C300E022C0E0C3E49396087401939618400F8C
:1022D300E49366700808740193661870007019A37C
:1022E300A3C3E49396087401939618A3A3400DD057
:1022F300E0D0E0D0E00222B5A3A3A3A3A3A3D0E040
:1023030022C0E0C0F088F0E493667008087401937B
:1023130066187000A8F0A3A3700BD0F0D0E0D0E053
:0C232300D0E00222B5A3A3D0F0D0E0224D
:10233000C2AF02000022C0E074F2122134A2AFE466
:1023400033FED2AFE589A2E05003120F2575890054
:10235000C2C5EEF8EEA2E092AF7F01022193C0E089
:1023600074F2122134A2AFE433FED2AFE58AA2E6C2
:102370004006E58AA2E75003120F25758A00758A88
:1023800000C2EBEEF8EEA2E092AF7F01022193C013
:10239000E0C0D0E8C0E0E9C0E0A2AFE433F8D2AFDB
:1023A000758B00C2E8E8F9E8A2E092AFD0E0F9D07E
:1023B000E0F8D0D0D0E032C0E0C0D0E8C0E0E9C062
:1023C000E0A2AFE433F8D2AFC2C7751A00E8F9E86B
:1023D000A2E092AFD0E0F9D0E0F8D0D0D0E03274F3
:1023E000F5122048EAFEEBFFEE2434F8EF3400F952
:1023F00088088909EE2435F582EF3400F583E0F88A
:10240000EE2437F582EF3400F583E0F50AEC850A17
:10241000F0A4FCAAF0850AF0EDA42AFDE82CF8E46B
:102420003DF97A257B00121EFAEA85088285098328
:10243000F0F8740758F97401B900028004C333D965
:10244000FCFAE8131313541FF8EE28F8EF3400F9E0
:10245000E8245DF582E93400F583E05A6008EE2453
:1024600034F582EF802CEE2434F582EF3400F583CE
:10247000E0C0E0EE2436F582EF3400F583E0F5F0BD
:10248000D0E084A8F0EE28F8EF3400F9E82438F51D
:1024900082E93400F583E0F97F040220F474F51238
:1024A0002048EAFEEBFFEE2434F582EF3400F5839A
:1024B000E0C0E0EE2435F582EF3400F583D0E0F0A3
:1024C0008E828F83A3A3A3A3A3A3A3C082C0838E62
:1024D000828F83A3A3A3A3A3E0F8A3E0F9D083D0C2
:1024E00082E0C398F508A3E099F509EE247FF58210
:1024F000EF3400F583E064017069EE2480F582EF2B
:102500003400F583E0F8A3E0F98E828F83A3A3A3C0
:10251000A3A3A3A3E0FCA3E0FD8E828F83A3A3A3C8
:10252000A3A3E0FAA3E0FBC3EA9CEB9D5010C3EC2D
:1025300098ED99402EC3EA98EB995027800EC3EA94
:1025400098EB994007C3EC98ED9940177C0C7D08F7
:10255000EEFAEFFB121819EE247FF582EF3400F546
:1025600083E4F0EE2434F8EF3400F9E8FCE9FDEE02
:102570002435F582EF3400F583E0F8EE2437F58258
:10258000EF3400F583E0F50AE508850AF0A4F508C4
:10259000AAF0850AF0E509A42AF509E82508F8E477
:1025A0003509F97A257B00121EFAEA8C828D83F0B8
:1025B000F8740758F97401B900028004C333D9FCD8
:1025C000FAE8131313541FF8EE28F8EF3400F9E873
:1025D000245DF582E93400F583E05A6008EE243486
:1025E000F582EF802CEE2434F582EF3400F583E0A1
:1025F000C0E0EE2436F582EF3400F583E0F5F0D04C
:10260000E084A8F0EE28F8EF3400F9E82438F582E9
:10261000E93400F583E0F9123217022498C082C031
:1026200083851882851983E0F8A3E0F9C3EA9CEB5F
:102630009D5010C3EC98ED99401BC3EA98EB99505C
:1026400014800EC3EA98EB994007C3EC98ED9940CB
:1026500004790180027900D083D08222EAC39CFAF7
:10266000EB9DFB2274EF1220489006D2E0640860D4
:1026700005E06407702A9061C8E06024900700E0DC
:10268000F4601DE0F875F003A4C8AAF02AF97402FA
:1026900028FE740739FF8E828F83A3A3A3E0700303
:1026A000022794906060E0C0E0EE2468F582EF3489
:1026B00000F583D0E0F0750C75750D087508007590
:1026C0000900E5D914F50AE5D95403F50E6017742D
:1026D00003650E605CE50A6010EE2467F582EF3456
:1026E00000F583E07003022779900870E0640160D0
:1026F0002AEE2482F582EF3400F583E0600478044A
:1027000080027800850A08E508C398FA95E0FB1274
:1027100016E18A088B09EA45097005121A1D8074B2
:10272000EE2482F582EF3400F583E070048A0C8B8E
:102730000DE50A6012850C82850D83F50BE5D9F055
:10274000A3150BE50B70F6EE2482F582EF3400F54D
:1027500083E0604474FC250AF50A780C1221EFAC82
:102760000AA90EEEFAEFFB1218B57402121F9BE9CC
:102770007026AA08AB09120FFD793D8E828F83A3C4
:10278000A3A3A3E0FA7B001215B5EEFAEFFB121833
:10279000311218C7790080747403650E6056850A7B
:1027A0001075110078101221EFAC0CAD0DAA08AB1A
:1027B000091218917402121F9BEE2468F582EF34FF
:1027C00000F583E064807004747F8001E0F50C788C
:1027D0000C1221F3E50EF50C780C1221F3A90AACCA
:1027E00008AD09900700E0FA7B0012157974021217
:1027F0001F9B80139006D2E06408600BAC0CAD0DFB
:10280000EEFAEFFB121921121A2979017F0A022030
:10281000F474F512204874FC121F85EAFEEBFF8960
:1028200008A2AFE433F509C2AF806AEE2463F8EF83
:102830003400F97A007B00A2AFE433F50AC2AF8816
:10284000828983E0FCA3E0FDEC4D603A88828983B5
:10285000E0FAA3E0FB8A828B83E0FCA3E0FD8882A0
:102860008983ECF0A3EDF08A828B83E4F0A3F088F7
:10287000828983E0FCA3E0FDEC4D700A88828983A5
:10288000A3A3E4F0A3F0E50AA2E092AF120FFD903B
:102890000813E004F0EE2463F582EF3400F583E0E2
:1028A000F8A3E0F9E849603DEE2463F582EF3400D7
:1028B000F583E02402FAA3E03400FBEA2402F50ADF
:1028C000EB3400F50B780A1221EF8A828B83E0FC4F
:1028D000A3E0F9EEFAEFFB1218557402121F9BE900
:1028E000700302282B900813E06063900814E0F84E
:1028F000900813E0C398500C74026508705090085B
:1029000015E0604A8E828F83A3A3A3A3E08518827B
:10291000851983F0A3E4F0900813E0F87402121F05
:10292000D0E8F0A3E4F0900813E0F8900812E02853
:10293000F07402121FD0AC82AD8385188285198392
:10294000AA82AB837901121585900813E4F0E5099A
:10295000A2E092AF7404121F9B0224988521878500
:1029600022C622C0E0C0D0E8C0E0E9C0E0EAC0E092
:10297000EBC0E0ECC0E0EDC0E0EEC0E0C008C00994
:10298000C00AC00BC082C083C0F0A2AFE433FEC255
:10299000AF759B00906182E0A2E05012E591A2E049
:1029A000500C7591FE740165217003122664E0A23B
:1029B000E55051E591A2E5504B7591DF9006D2E0CC
:1029C00064076005E064087023740165217035793F
:1029D00001900700E0FA75F003A4CAA8F028FB7480
:1029E000022AFA74073BFB1228118018E0640D706C
:1029F000139006F4E004F064287002E4F07A00E03A
:102A0000F9121A2F906182E0A2E64003022AAAE599
:102A100091A2E64003022AAA7591BF9006D2E06413
:102A2000057008121957121963800312195D752178
:102A3000001219BDE99006D3F079001219B11217EE
:102A40008F7A017B009006D1E0F9120B5990780340
:102A5000E064427055900874E014F0704DC2AF12FB
:102A60002A6200782AD0E0F618D0E0F6E59F5407F5
:102A700070057509FF800375097FC4C0E07829E6F9
:102A8000F50808E65509F509740B7808121F63D09C
:102A9000E02508F8906270E0A2E740F8E8C33390C0
:102AA0006272F0906270E0D2E0F0906181E0A2E3A7
:102AB0005009E5E9A2E3500375E9F7A3E0A2E75066
:102AC00009E591A2E7500375917FEEA2E092AFD0A5
:102AD000F0D083D082D00BD00AD009D008D0E0FE4D
:102AE000D0E0FDD0E0FCD0E0FBD0E0FAD0E0F9D0BF
:102AF000E0F8D0D0D0E032C0E0C0D0C082C0839037
:102B00006183E0A2E05009E5BFA2E0500375BFFE7B
:102B1000E0A2E15009E5BFA2E1500375BFFDE0A2CC
:102B2000E25009E5BFA2E2500375BFFBE0A2E3500B
:102B300009E5BFA2E3500375BFF7E0A2E45009E541
:102B4000BFA2E4500375BFEFE0A2E55009E5BFA2C4
:102B5000E5500375BFDFE0A2E65009E5BFA2E650ED
:102B60000375BFBFD083D0828088C0E0C0D0E8C0EA
:102B7000E0E9C0E0EAC0E0EBC0E0ECC0E0EDC0E0BE
:102B8000C0F0E5A7A2E6500FE5A1A2E6500953A7C1
:102B9000BF75A1BF122BCFE5A7A2E5500CE5A1A2FE
:102BA000E5500653A7DF75A1DFE5A7A2E15009E5CF
:102BB000A1A2E1500375A1FDE5A7A2E2500CE5A199
:102BC000A2E2500653A7FB75A1FBD0F0022AE074E5
:102BD000F81220487521019006D2E06406701512A3
:102BE00018E58A828B83A3A3A3A3A3A3E0FAA3E09F
:102BF000FB121945A2AFE433FED2AF9006D8E064D1
:102C00000170187A207B009006D1E0F9120BE97A66
:102C1000207B009006D1E0F9120B5F906182E0D238
:102C2000E6F0900871E0602185C62280169006D7F4
:102C3000E064017008E5C654F84405F5C653BEFCCF
:102C400012295C7401652160E4EEA2E092AF7F017D
:102C50000220F4008E238F248582288583278518FF
:102C600082851983E0CEA3E0CF852882852783EB78
:102C7000C9EAC8EDCBECCA75F010C3E833C8E93334
:102C8000C9EA33CAEB33CBC3EA9EF526EB9FF525A1
:102C9000B35004AB25AA26EC33CCED33CDD5F0DA16
:102CA000AE23AF242274E912204874F8121F8585E0
:102CB0001882851983ECF0A3EDF08A088B09900641
:102CC000D2E024F7C394055006750801022E3C1289
:102CD00018E58A0A8B0BAE0AAF0BEE4F7003022E7B
:102CE00039AC08AD097402121FD0AA82AB83121945
:102CF000758E828F83A3A3750CFF750DFF750EFF74
:102D0000750F00780C121E2F7402121FD07510FF61
:102D10007511FF7512FF7513007810121E2F780CB5
:102D20007910121C54502A780C7910121DF4750871
:102D3000017509C8750A00750B007808790C121C1A
:102D4000545052850C08850D09850E0A850F0B809D
:102D5000507514017515C875160075170085100893
:102D600085110985120A85130B7808790C121DF458
:102D700078147908121C54401C75080075090075F8
:102D80000A00750B0178087910121DF47808790C87
:102D9000121DBB800C750801750900750A00750BC2
:102DA0000074097808121D9C750C19F50DF50EF5C7
:102DB0000F7808790C121D138E828F83A3A3A3A30F
:102DC000A3A3E0F8A3E0F97AD07B03121EFA880CE3
:102DD000890DE4F50EF50F7808790C121DBB740609
:102DE000121FD0E0F8A3E0F97AD07B03121EFAE8B4
:102DF000FA8A0CE4F50D7808790C121C5450077807
:102E000008790C121DF49006D2E06408600AE064B0
:102E1000066005E06405702D750C0D780C790812BC
:102E20001C544021750CF4750DFF750EFF750FFFD6
:102E30007808790C121DBB800C75080075090075A7
:102E40000A00750B00851882851983E0F8A3E0F568
:102E50008388827808121E647408121F9B7F1002F8
:102E600020F474F712204812198790086FE064016B
:102E70007010906245E4F0A3F053F4F343FE0C535A
:102E800090F3121933E5C654804449F5C6E59E54C3
:102E90007F644970F8906185740FF090086DE0F4DC
:102EA0007002A3E0604E90086EE0600814601B148E
:102EB000602E804075080175090090086DE0780863
:102EC000121F72E508F45280802A75080175090006
:102ED00090086DE07808121F72E508F45290801493
:102EE00075080175090090086DE07808121F72E5F9
:102EF00008F452A079007F020220F474F7122048EF
:102F0000E9FEEAFF74016E700C7A807B009006D1B6
:102F1000E0F9120B59903228E493F46008E493F935
:102F2000121783800953C680E59E547F70FA1219E8
:102F30003990086FE06401700312179B90086DE0F0
:102F4000F47002A3E0604B90086EE0600814601A11
:102F500014602C803D75080175090090086DE078BB
:102F600008121F72E5084280802875080175090063
:102F700090086DE07808121F72E508429080137582
:102F8000080175090090086DE07808121F72E508C5
:102F900042A01219871218E58A088B09A808A90906
:102FA000E8496015E5E170FCE82414F582E9340095
:102FB000F583E0F46003E0F5E174016F700A7A01D3
:102FC0009006D1E0F9120BB3022EF674ED122048F0
:102FD0008A088B098C0A8D0B7413121FD0780C127F
:102FE0001E557808790C121C547510017511C8759E
:102FF000120075130050127808790C121DF4781025
:103000007908121C5450168010780C7908121DF49F
:103010007810790C121C5440047901800279007FE9
:103020000C0220F474ED1220488A088B098C0A8D5A
:103030000B7413121FD0780C121E55780C790812DD
:103040001C5440117808790C121DF4AA08AB09AC85
:103050000AAD0B80227510007511007512007513F2
:10306000017810790C121DF478107908121DBBAA92
:1030700010AB11AC12AD1380A68A828B837508FF4A
:103080007509FF750AFF750B007808121E427F0450
:103090000220F474F51220488C828D837808121E69
:1030A000558A828B837808121E08EA2404F8EB34D0
:1030B00000F98C828D83A3A3A3A3E0FCA3E0FD8889
:1030C000828983C3E09CF0A3E09DF088828983C35A
:1030D000E09420A3E0944E40268A828B837508FFFB
:1030E0007509FF750AFF750BFF7808121DE18A82CA
:1030F0008B83A3A3A3A3E02420F0A3E0344EF0022B
:10310000307974F5122048E9FE900827E0FAA3E030
:10311000FBEEC333F8E433F9742828F58274883958
:10312000F583E02AF508A3E03BF50978081221EFC2
:103130007A407B427C0F7D00122C547402121F9B3C
:103140008A088B098C0A8D0B74107808121D83AACB
:1031500008AB097F040220F474F11220488A0C8B1A
:103160000D8C0E8D0F740F121FD0E0FAA3E0FB74CC
:1031700011121FD0E0F508A3E0F50978081221EF3D
:10318000EA2401F508EB3400F509E4F50AF50B78BB
:103190000C7908121C93750871750902780C79086E
:1031A000121C93AA0CAB0DAC0EAD0F122C54740272
:1031B000121F9B8B09EA450960047A0180027A009C
:1031C000EC2AFCED3400FD7413121FD0E0F8A3E0EC
:1031D000F9E8FEE9FFECF8EDF97A717B02121EFACC
:1031E000880889098E828F837808121E64ECF8EDB6
:1031F000F97A717B02121EFA8A088B097405780825
:10320000121F728E828F83A3A3A3A3E508F0A3E508
:1032100009F07F080220F4C082C083E9906000F0CA
:10322000D083D08222020135FFFFFFFFFFFFFFFFA7
:1032300074ED121FDC746C121F85120A697C007D0C
:10324000007E007F007410121FD0ECF0A3EDF0A3FD
:10325000EEF0A3EFF0908BB97808121E557410129F
:103260001FD07808121C645014908B9D7808121E91
:10327000557410121FD07808121DE180D879001201
:103280000A6F7B017A017910120AC37906120AC902
:10329000120ACFE9F5127B007A007900120AC312F4
:1032A0000A87E9F50F120A93E9F50E120A9FE9F56C
:1032B0000D120AABE9F50C7A7F7900120A39790010
:1032C000120A577A687900120A39120A637C007D63
:1032D000007E007F007410121FD0ECF0A3EDF0A36D
:1032E000EEF0A3EFF0908BCD7808121E55741012FB
:1032F0001FD07808121C645014908B9D7808121E01
:10330000557410121FD07808121DE180D87508017D
:1033100078081221F375080078081221F379007CEF
:10332000897D077A007B80120AE17402121F9BE9F3
:1033300070030238B67CC07D007A937B0A120AEDD6
:10334000E970030238B27903120A757912120A3F42
:103350007904120A037901120A097903120A0F7912
:1033600003120A157903120AF37900120AF9790097
:10337000120A8DA90E120A99A90D120AA5A90C12FA
:103380000AB1750A00750B00750800E508C39404BE
:1033900040248508107511007402121FD0E0F879DE
:1033A000002403F8E93400F9C3E51098E51199A267
:1033B000D265D033503A7453250AF582740B350B1D
:1033C000F583E0C0E0850810751100851882851925
:1033D00083E5822510F582E5833511F583D0E0F091
:1033E0000508E50A2401F50AE50B3400F50B809B7E
:1033F00075090078091221F375090178091221F382
:103400007403121FD0E0F50978091221F374031236
:103410001FD0E0F97405121FD0E0FC7D0074061285
:103420001FD0AA82AB83120ADB7403121F9BE975BB
:103430000800E508C3940440248508107511007441
:1034400002121FD0E0F879002403F8E93400F9C330
:10345000E51098E51199A2D265D033503A745325FE
:103460000AF582740B350BF583E0C0E08508107512
:103470001100851882851983E5822510F582E58380
:103480003511F583D0E0F00508E50A2401F50AE5D9
:103490000B3400F50B809B75090078091221F37538
:1034A000090178091221F37403121FD0E0F509789D
:1034B000091221F37403121FD0E0F97405121FD012
:1034C000E0FC7D007406121FD0AA82AB83120ADBD7
:1034D0007403121F9BE9120A5D120A7B8A108B117A
:1034E000AE10AF11E510A9107414121FD0AA82AB50
:1034F00083120A817902120A21799C120A2D7950CD
:10350000120A277900120A33120A5D7901120A5150
:103510007901120AB7120ABD750800E508C39404C0
:1035200040248508107511007402121FD0E0F8794C
:10353000002403F8E93400F9C3E51098E51199A2D5
:10354000D265D033503A7453250AF582740B350B8B
:10355000F583E0C0E0850810751100851882851993
:1035600083E5822510F582E5833511F583D0E0F0FF
:103570000508E50A2401F50AE50B3400F50B809BEC
:1035800075090078091221F375090178091221F3F0
:103590007403121FD0E0F50978091221F3740312A5
:1035A0001FD0E0F97405121FD0E0FC7D00740612F4
:1035B0001FD0AA82AB83120ADB7403121F9BE9752A
:1035C0000800E508C39404402485081075110074B0
:1035D00002121FD0E0F879002403F8E93400F9C39F
:1035E000E51098E51199A2D265D033503A7453256D
:1035F0000AF582740B350BF583E0C0E08508107581
:103600001100851882851983E5822510F582E583EE
:103610003511F583D0E0F00508E50A2401F50AE547
:103620000B3400F50B809B75090078091221F375A6
:10363000090178091221F37403121FD0E0F509780B
:10364000091221F37403121FD0E0F97405121FD080
:10365000E0FC7D007406121FD0AA82AB83120ADB45
:103660007403121F9BE9750800E508C39404402405
:103670008508107511007402121FD0E0F87900243B
:1036800003F8E93400F9C3E51098E51199A2D26571
:10369000D033503A7453250AF582740B350BF583F9
:1036A000E0C0E0850810751100851882851983E552
:1036B000822510F582E5833511F583D0E0F0050809
:1036C000E50A2401F50AE50B3400F50B809B75092A
:1036D0000078091221F375090178091221F37403A6
:1036E000121FD0E0F50978091221F37403121FD0DC
:1036F000E0F97405121FD0E0FC7D007406121FD0A3
:10370000AA82AB83120ADB7403121F9BE9120A7BA5
:103710008A108B11A810A911E8FEE9FFC3E89403F1
:10372000E9940040E8EEF97414121FD0AA82AB832A
:10373000120A81120A45E9F509750800E508C394E3
:103740000440248508107511007402121FD0E0F89F
:1037500079002403F8E93400F9C3E51098E51199DC
:10376000A2D265D033503A7453250AF582740B35D2
:103770000BF583E0C0E0850810751100851882857F
:103780001983E5822510F582E5833511F583D0E0B4
:10379000F00508E50A2401F50AE50B3400F50B8075
:1037A0009B7401121FD0E0F51078101221F3740100
:1037B000121FD0E0F97403121FD0E0FC7D007404E6
:1037C000121FD0AA82AB83120AD57401121F9B125A
:1037D0000A7B8A108B11A810A911E8FEE9FFC3E843
:1037E0009403E9940040E8EEF97414121FD0AA8201
:1037F000AB83120A81120A45E9F509750800E5084C
:10380000C3940440248508107511007402121FD05F
:10381000E0F879002403F8E93400F9C3E51098E5ED
:103820001199A2D265D033503A7453250AF58274A7
:103830000B350BF583E0C0E0850810751100851885
:1038400082851983E5822510F582E5833511F5839C
:10385000D0E0F00508E50A2401F50AE50B3400F58F
:103860000B809B75100078101221F37510017810F1
:103870001221F37403121FD0E0F51078101221F317
:103880007403121FD0E0F97405121FD0E0FC7D0014
:103890007406121FD0AA82AB83120ADB7403121FB4
:1038A0009BE97900120AB7120A5D120A45E979000C
:1038B00080067902800279017494121F9B7F0B02AB
:1038C00020AE74F7121FDC8C828D83E0F87900E45F
:1038D000C8F98C828D83A3E0FE7F00E82EF8E93FD3
:1038E000F98A828B83E8F0A3E9F08C828D83A3A30D
:1038F000A3A3E0F87900E4C8F98C828D83A3A3A385
:10390000A3A3E0FE7F00E82EF8E93FF98A828B83CB
:10391000A3A3E8F0A3E9F08C828D83A3A3A3A3A3C0
:10392000A3A3A3E0F87900E4C8F98C828D83A3A354
:10393000A3A3A3A3A3A3A3E0FE7F00E82EF8E93F7F
:10394000F98A828B83A3A3A3A3E8F0A3E9F0EC2474
:103950000CF582ED3400F583E0F87900E4C8F9EC69
:10396000240DF582ED3400F583E0FE7F00E82EF8AB
:10397000E93FF98A828B83A3A3A3A3A3A3E8F0A3BF
:10398000E9F079007F010220AE43FD0202013574A7
:10399000F2121FDC74EC121F858908E5089002AC56
:1039A000F07C047D007A1F7B001211D1E9F50974C7
:1039B00005121FD07401F0740E121FD07401F0A311
:1039C0007400F07404121FD07401F0740C121FD034
:1039D000742FF0A37401F0740A121FD0743FF0A387
:1039E0007401F07408121FD07404F0A37400F07412
:1039F00006121FD07458F0A37402F07405121FD081
:103A0000AC82AD8379017A057B0312108DE9740EC7
:103A1000121FD0AC82AD8379027A067B0312108D1F
:103A2000E97C827D0B79157A087B0312108DE97C85
:103A3000977D0B79077A077B0312108DE9740412C6
:103A40001FD0AC82AD8379017A107B0312108DE90F
:103A5000740C121FD0AC82AD8379027A117B0312F1
:103A6000108DE9740A121FD0AC82AD8379027A12EC
:103A70007B0312108DE97408121FD0AC82AD8379DC
:103A8000027A137B0312108DE97406121FD0AC82E8
:103A9000AD8379027A147B0312108DE97C9E7D0B35
:103AA0007A04790012134BE97E407F06EEFCEFFDAD
:103AB0007A067B001211D1E9EEFCEFFD7A077B005C
:103AC0001211D1E9EEFCEFFD7A087B001211D1E969
:103AD000EEFCEFFD7A097B001211D1E97A007B0040
:103AE0007C007D007410121FD0EAF0A3EBF0A3EC71
:103AF000F0A3EDF07403121FD07401F07402121FD2
:103B0000D07401F07401121FD07400F08518828502
:103B100019837401F07410121FD0AC82AD83790444
:103B20007A087B04120D5DE97403121FD0AC82ADDC
:103B30008379017A007B04120D5DE97402121FD0B3
:103B4000AC82AD8379017A027B04120D5DE97401C8
:103B5000121FD0AC82AD8379017A037B04120D5D14
:103B6000E9851882851983AC82AD8379017A067B59
:103B700004120D5DE9908BC9121E73121351E99066
:103B80008BC9121E7312145FE9120D21E9908BC9C3
:103B9000121E73120FD3E9908BC9121E73120D33CC
:103BA000E9908BC9121E73120F9DE9908BC9121EEA
:103BB00073120CF7E97A007903120F37E9120EAD90
:103BC0007AB87B0B120FD9E9F50A7ABA7B0B120D82
:103BD00039E9F50B7ABC7B0B120FA3E9F50C7ABE21
:103BE0007B0B120CFDE9F50D7AC07B0B12109F12B6
:103BF0000C55790112155BE97A017B009002ACE06B
:103C0000F9120B59E97414121F9B7F060220AE743F
:103C1000F0121FDC8909EAFEEBFFEE5400F8EF54C6
:103C200080F9E84960329002ACE0F9120B418A0C4D
:103C30008B0DA80CA90D880A890BE849600FAA0A08
:103C4000AB0B120C67AA0AAB0B120B2FE9EE640048
:103C5000FAEF6480FB024328EE5480601B9002E17F
:103C6000E0600AC2AF75C9AB75C95B80FEEE6480C7
:103C7000FAEF6400FB024328EEA2E0501C7AB47B0A
:103C80000B121099E9F5087A287B03120D7BEE647C
:103C900001FAEF6400FB024328EE5400F8EF5404ED
:103CA000F9E84960167C107D007AC77B02120CE5AA
:103CB000EE6400FAEF6404FB024328EE5402700342
:103CC000023D4B9002AEE0605A120F01E9640270AF
:103CD0002F120CA3900BA6E024EDF50CA3E034FE0C
:103CE000F50DE4F50EF50F780C1221EB7A027B004E
:103CF0009002ACE0F9120BDD7404121F9BE98040C6
:103D0000120F01E9703A120EEF908BC51222027A5F
:103D1000027B009002ACE0F9120BDD7404121F9BD1
:103D2000E9801D120EF57D047C0079007A007BAAE3
:103D3000120CDF7D017C0079017A007BAA120CDF76
:103D4000EE6402FAEF6400FB024328EE540460566E
:103D50009002B0E0602B120C7F900BA4E0F50CA356
:103D6000E0F50DE4F50EF50F780C1221EB7A047BEB
:103D7000009002ACE0F9120BDD7404121F9BE98085
:103D80001A7D037C0079007A107BAA120CDF7D017A
:103D90007C0079017A107BAA120CDFEE6404FAEF42
:103DA0006400FB024328EE5400F8EF5401F9E8499F
:103DB0007003023EDB9002B1E07003023ED090023D
:103DC000DDE0640160089002DDE064027023908B06
:103DD000C11222027A007B019002ACE0F9120BDDE5
:103DE0007404121F9BE9EE6400FAEF6401FB0243C6
:103DF000289002DD7403F0120A45E9900327F012BF
:103E00000A7B9002E5EAF0A3EBF0900327E0A2E43E
:103E1000400E9002E5E064007004A3E064047026A4
:103E2000120A5D908BBD1222027A007B019002ACD7
:103E3000E0F9120BDD7404121F9BE9EE6400FAEF47
:103E40006401FB024328900327E0A2E15053900253
:103E5000E5C082C083900BB2E0F8A3E0F9D083D034
:103E600082C3E098A3E099500D120A7B9002E5EA24
:103E7000F0A3EBF080D8900BB2E0F8A3E0F9E8F9FA
:103E80007AE77B02120A81900BB2E0F8A3E0F99086
:103E900002E5C3E098F0A3E099F07AE77B02120C08
:103EA00085900BAEE0F50CA3E0F50DE4F50EF50FF3
:103EB000780C1221EB7A007B019002ACE0F9120B36
:103EC000DD7404121F9BE99002DD7400F0120A5D9C
:103ED000EE6400FAEF6401FB024328EE5400F8EFB1
:103EE0005408F9E849602C120C49E97901120AB723
:103EF000908B891222027A007B019002ACE0F912C9
:103F00000BDD7404121F9BE9EE6400FAEF6408FBFA
:103F1000024328EE5400F8EF5402F9E84970030216
:103F200040319002B2E0640160030240269002DD5D
:103F3000E0640160089002DDE064037023908BC1AF
:103F40001222027A007B029002ACE0F9120BDD74BF
:103F500004121F9BE9EE6400FAEF6402FB0243289F
:103F60009002DD7402F09002E0E0700F9002DBE05E
:103F7000FAA3E0FB7900120C8B801D9002DBE0FAC3
:103F8000A3E0FBEA2401F8EB3400F99002DBE8F04F
:103F9000A3E9F07901120C8B9002E0E07020908B85
:103FA000C11222027A007B029002ACE0F9120BDD12
:103FB0007404121F9BE99002E07401F08068900283
:103FC000DBC3E0940EA3E09400A2D265D033403866
:103FD0009002DD7400F09002DB7400F0A37400F036
:103FE000900BB0E0F50CA3E0F50DE4F50EF50F78BD
:103FF0000C1221EB7A007B029002ACE0F9120BDD8F
:104000007404121F9BE98018908BAD1222027A0073
:104010007B029002ACE0F9120BDD7404121F9BE9E5
:104020009002E07400F0EE6400FAEF6402FB0243D9
:1040300028EE5408700302410B9002B4E0700302B2
:1040400040E69002DDE0640360089002DDE0640277
:104050007023908BC11222027A087B009002ACE0A0
:10406000F9120BDD7404121F9BE9EE6408FAEF6489
:1040700000FB0243289002DD7401F09002DFE0F9BA
:10408000120EB3E9F5089002DFE064027037120CFB
:10409000979002DF7400F09002DD7400F0900BA89E
:1040A000E0F50CA3E0F50DE4F50EF50F780C122108
:1040B000EB7A087B009002ACE0F9120BDD7404127D
:1040C0001F9BE9803B9002DFE02401F0908B7D1282
:1040D00022027A087B009002ACE0F9120BDD740436
:1040E000121F9BE9801A7D047C0079007A207BAA4C
:1040F000120CDF7D017C0079017A207BAA120CDF93
:10410000EE6408FAEF6400FB024328EE5410606C82
:104110009002AFE0603E120F49E964027005120C94
:10412000918009120F49E97003120F4F900BA2E022
:10413000F50CA3E0F50DE4F50EF50F780C1221EB6C
:104140007A107B009002ACE0F9120BDD7404121FB0
:104150009BE9801D120F557D067C0079007A307B2B
:10416000AA120CDF7D017C0079017A307BAA120C47
:10417000DFEE6410FAEF6400FB024328EE54207077
:10418000030242169002B3E0605A9002DEE0603112
:104190009002DE7400F0120C9D900BAAE0F50CA3C7
:1041A000E0F50DE4F50EF50F780C1221EB7A207B8B
:1041B000009002ACE0F9120BDD7404121F9BE98041
:1041C0004A9002DE7401F0120E41908B811222029D
:1041D0007A207B009002ACE0F9120BDD7404121F10
:1041E0009BE980277D047C0079007A407BAA120C31
:1041F000DF7D017C0079017A407BAA120CDF7D1003
:104200007C0079037A407BAA120CDFEE6420FAEF7F
:104210006400FB024328EE544070030242E5120E94
:104220009BE9F5089002B5E070030242BEE5087014
:10423000269002E2E0F9120EA1120E83908BB112C9
:1042400022027A407B009002ACE0F9120BDD74048C
:10425000121F9BE90242DB9002E3E0600E9002E253
:10426000E0F9120EA19002E37400F0740265087088
:104270002F120CA9900BACE024C4F50CA3E034FF82
:10428000F50DE4F50EF50F780C1221EB7A407B006A
:104290009002ACE0F9120BDD7404121F9BE9803B25
:1042A000120E95E9908BB11222027A407B009002A7
:1042B000ACE0F9120BDD7404121F9BE9801D120E95
:1042C000897D067C0079007A507BAA120CDF7D0183
:1042D0007C0079017A507BAA120CDFEE6440FAEF81
:1042E0006400FB8043EE5400F8EF5410F9E8496095
:1042F00033750A58750B02780A1221EF750A047596
:104300000B00780A1221EF79027C3F7D017A2F7B26
:10431000011210D57404121F9BE9EE6400FAEF64D9
:1043200010FB80047A007B007F080220AE74F71235
:104330001FDCEAFEEBFF8E828F83E064C070148E78
:10434000828F83A3A3A3E0FA8E828F83A3A3E0F9D5
:10435000120C6D7F010220AE74F7121FDC74FC1288
:104360001F85E9FEEAFF8518828519837400F0EF46
:10437000A2E040030244199002E17401F0908B9195
:104380001222027A807B009002ACE0F9120BDD74FD
:1043900004121F9BE99002E4E0706F9002ADE064AC
:1043A00005603E7403121FD0AC82AD837A057B0397
:1043B000121093E97403121FD0E0700A7401121FE7
:1043C000D07401F080087401121FD07400F07401E1
:1043D000121FD0AC82AD8379017A057B0312108D58
:1043E000E99002ADE0640570307402121FD07401D0
:1043F000F01210A5E97402121FD0AC82AD837901CE
:104400007A057B0312108DE9800FEFA2E0500A8538
:104410001882851983E0D2E2F0EFA2E1500A8518F4
:1044200082851983E0D2E0F0EFA2E2500A8518827B
:10443000851983E0D2E1F0EFA2E040069002E1743A
:1044400000F0851882851983AC82AD837A017900EA
:104450001210DBE97404121F9B7F010220AEC082A0
:10446000C0839002B1E060069002B17400F0900247
:10447000B4E06009120EAD9002B47400F09002B284
:10448000E060069002B27400F0D083D08202013561
:1044900074F4121FDC74E2121F85E9FEEE1460163C
:1044A00014700302464914700302468424FE70030C
:1044B000024653024687851882851983AC82AD83F4
:1044C0007A047B03121093E97508087509007808CF
:1044D0001221EF7402121FD0AC82AD837418121F28
:1044E000D0AA82AB83120B057402121F9B740512B3
:1044F0001FD0E0C0E07407121FD0D0E0F0740412A7
:104500001FD0E0C0E07406121FD0D0E0F074031298
:104510001FD0E0C0E07405121FD0D0E0F074041288
:104520001FD07400F07403121FD07400F08518823D
:10453000851983AC82AD837A087900120D27E99042
:104540008C3EC082C0837408121FD0AC82AD83D071
:1045500083D082740E121E987F00750905E509C389
:104560009400A2D265D0335003024636E509F833F1
:1045700095E0F97416121FD0E58228F582E583399B
:10458000F583E0F508E508C3940A506B7C367D8C12
:10459000EFF87900E875F002A4C8AAF075F000A45D
:1045A0002AFA75F002E9A42AF97408121FD0E582EC
:1045B00028FAE58339FB121C337910EFFA7B00EA05
:1045C00075F002A4CAA8F075F000A428F875F002EE
:1045D000EBA428FB7408121FD0E5822AF582E5833C
:1045E0003BF583A3AC82AD8385080A750B00AA0A4C
:1045F000AB0B120C0D80357910EFFA7B00EA75F0E9
:1046000002A4CAA8F075F000A428F875F002EBA483
:1046100028FB7408121FD0E5822AFCE5833BFD8548
:10462000080A750B00AA0AAB0B120C0D0F74FF25BC
:1046300009F50902455D7408121FD0AC82AD837A7A
:104640000C7902120D27E9803E7A017901120F37A9
:10465000E98034908BA51222027A007B109002AC84
:10466000E0F9120BDD7404121F9BE97A0079011244
:104670000F37E99002DD7400F0120CAF120CC71274
:104680000CBB8003120C73EE9002ADF0741E121F6F
:104690009B7F040220AEC082C08374FD121F8585FB
:1046A0001882851983AA82AB83120E35E9601285C0
:1046B0001882851983AC82AD837A037900120CEBE2
:1046C000E97403121F9BD083D08202013574F41267
:1046D0001FDC74D1121F85EAFEEBFF7404121FD099
:1046E0007400F0A37400F07402121FD07400F0A3E1
:1046F0007400F08518828519837400F0A37400F0AB
:104700008518828519838582088583097808122196
:10471000EF7404121FD0AC82AD837406121FD0AAAE
:1047200082AB83120A4B7402121F9BEEFCEFFD74E6
:1047300006121FD0AA82AB83120C4FE97404121F19
:10474000D0E0F508A3E0F50974087808121F53E5D6
:1047500008740F121FD0E508F07404121FD0E0F89F
:10476000A3E0F9E8C0E0740E121FD0D0E0F07402AC
:10477000121FD0E0F508A3E0F50974087808121FAD
:1047800053E5087411121FD0E508F07402121FD00F
:10479000E0F8A3E0F9E8C0E07410121FD0D0E0F018
:1047A000851882851983E0F508A3E0F50974087877
:1047B00008121F53E5087413121FD0E508F085187E
:1047C00082851983E0F8A3E0F9E8C0E07412121FB3
:1047D000D0D0E0F07406121FD0E0F508A3E0F50990
:1047E00074087808121F53E5087415121FD0E508E5
:1047F000F07406121FD0E0F8A3E0F9E8C0E07414EA
:10480000121FD0D0E0F07408121FD0E0F508A3E02A
:10481000F50974087808121F53E5087417121FD0A1
:10482000E508F07408121FD0E0F8A3E0F9E8C0E052
:104830007416121FD0D0E0F0740A121FD0E0F508F1
:10484000A3E0F50974087808121F53E508741912DB
:104850001FD0E508F0740A121FD0E0F8A3E0F9E8D1
:10486000C0E07418121FD0D0E0F0740C121FD0E01A
:10487000F508A3E0F50974087808121F53E50874D9
:104880001B121FD0E508F0740C121FD0E0F8A3E053
:10489000F9E8C0E0741A121FD0D0E0F0741C121FA7
:1048A000D074AAF0741D121FD074BBF0741E121FB6
:1048B000D074AAF075080E75090078081221EF74FB
:1048C00010121FD0AC82AD837421121FD0AA82AB0C
:1048D00083120B057402121F9B8A0A8B0B850A0830
:1048E000850B09742D121FD0740DF0742E121FD079
:1048F000740AF07C137D00741C121FD0AA82AB8353
:10490000120CE5742F121F9B7F040220AE74F0126C
:104910001FDC748C121F85890B8A08908B26C0823D
:10492000C0837404121FD0AC82AD83D083D0827454
:1049300008121E98908B2EC082C083746C121FD0F8
:10494000AC82AD83D083D0827408121E98908B16EF
:10495000C082C0837464121FD0AC82AD83D083D078
:10496000827408121E98908B0EC082C083745C12F1
:104970001FD0AC82AD83D083D0827408121E989071
:104980008B06C082C0837454121FD0AC82AD83D01A
:1049900083D0827408121E98908AFEC082C08374ED
:1049A0004C121FD0AC82AD83D083D0827408121E0B
:1049B00098908AF6C082C0837444121FD0AC82AD36
:1049C00083D083D0827408121E98908AEEC082C071
:1049D00083743C121FD0AC82AD83D083D082740824
:1049E000121E98908ADEC082C0837434121FD0AC2D
:1049F00082AD83D083D0827408121E98908AD6C06C
:104A000082C083742C121FD0AC82AD83D083D0823D
:104A10007408121E98908AC6C082C0837424121F24
:104A2000D0AC82AD83D083D0827408121E98908A55
:104A3000BEC082C083741C121FD0AC82AD83D083F1
:104A4000D0827408121E98908AB6C082C0837414F3
:104A5000121FD0AC82AD83D083D0827408121E980E
:104A6000908B1EC082C083740C121FD0AC82AD83A9
:104A7000D083D0827408121E987404121FD0AE82A4
:104A8000AF83E508603914604214604B146054141D
:104A9000605C14606414606C14607414607C147046
:104AA00003024B25147003024B30147003024B3B7E
:104AB000147003024B46147003024B51024B5C749A
:104AC00004121FD0AE82AF83024B65746C121FD0EC
:104AD000AE82AF83024B657464121FD0AE82AF8387
:104AE000024B65745C121FD0AE82AF838077745422
:104AF000121FD0AE82AF83806C744C121FD0AE8276
:104B0000AF8380617444121FD0AE82AF838056742D
:104B10003C121FD0AE82AF83804B7434121FD0AED4
:104B200082AF838040742C121FD0AE82AF83803559
:104B30007424121FD0AE82AF83802A741C121FD03F
:104B4000AE82AF83801F7414121FD0AE82AF8380F9
:104B500014740C121FD0AE82AF8380097404121F2C
:104B6000D0AE82AF83E50B7015120C25E9EEFAEF9B
:104B7000FB120C437A017944120C37024D15120CCA
:104B800025E9EEFAEFFB120C437A0079BE120C37DE
:104B9000120C3DE9F509120C3DE9F50AE508600340
:104BA000024C439002DA7400F07C247D0079FF7A95
:104BB000B67B02120B1D9002DAE0F8790074B62879
:104BC000F582740239F58374AAF09002DAE02401C8
:104BD000F09002DAE0F8790074B628F582740239B0
:104BE000F58374BBF09002DAE02401F09002DAE081
:104BF000F8790074B628F582740239F58374BBF035
:104C00009002DAE02401F0E5099002DAE0F8790098
:104C100074B628F582740239F583E509F09002DA5A
:104C2000E02401F0E50A9002DAE0F8790074B62891
:104C3000F582740239F583E50AF09002DAE0240186
:104C4000F0803AE5099002DAE0F8790074B628F5C8
:104C500082740239F583E509F09002DAE02401F06C
:104C6000E50A9002DAE0F8790074B628F582740259
:104C700039F583E50AF09002DAE02401F0740D655D
:104C8000086003024D159002DAE0F8790074B62846
:104C9000F582740239F583740DF09002DAE0240194
:104CA000F09002DAE0F8790074B628F582740239DF
:104CB000F583740AF09002DAE02401F07C117D00A3
:104CC0007AB67B02120CE57A007B007C007D0085C1
:104CD0001882851983EAF0A3EBF0A3ECF0A3EDF0C2
:104CE000908BC1780C121E55851882851983780C1B
:104CF000121C645015908B9D780C121E55851882DD
:104D0000851983780C121DE180D67C107D007AC74E
:104D10007B02120CE57474121F9B7F080220AEC048
:104D200082C08374FA121F85851882851983AA822E
:104D3000AB83120F5BE96012851882851983AC8200
:104D4000AD837A067900120FCDE97406121F9BD04D
:104D500083D082020135C082C08374F5121F85742E
:104D600007121FD0AA82AB83120EB9E9605C8518C6
:104D70008285198374AAF07401121FD074BBF07479
:104D800002121FD074CCF07409121FD0E0C0E0747E
:104D900003121FD0D0E0F0740A121FD0E0C0E074FC
:104DA00004121FD0D0E0F07405121FD0740DF074FF
:104DB00006121FD0740AF07C077D008518828519C1
:104DC00083AA82AB83120CE5804A851882851983F9
:104DD00074AAF07401121FD074BBF07402121FD0B9
:104DE00074CCF07403121FD07476F07404121FD0C8
:104DF0007476F07405121FD0740DF07406121FD073
:104E0000740AF07C077D00851882851983AA82AB1D
:104E100083120CE5740B121F9BD083D082020135E4
:104E2000C082C08374FC121F85851882851983AAED
:104E300082AB83120E47E96012851882851983AC14
:104E400082AD837A047900120CF1E97404121F9B7D
:104E5000D083D082020135C082C08374FC121F85CA
:104E6000851882851983AA82AB83120EFBE9601232
:104E7000851882851983AC82AD837A047900120F7C
:104E8000C7E97404121F9BD083D082020135C0820F
:104E9000C08374FA121F85851882851983AA82AB94
:104EA00083120E8FE96012851882851983AC82AD5A
:104EB000837A067900120E2FE97406121F9BD083A5
:104EC000D082020135C082C0839002B1E07021908F
:104ED00002B17401F01209FD908BD11222027A0006
:104EE0007B089002ACE0F9120BDD7404121F9BE901
:104EF000D083D08202013574F7121FDC74FF121FB9
:104F000085E9FE1460051460598061851882851951
:104F100083AA82AB837901120FDFE9851882851994
:104F200083E0701B9002B1E060429002B17400F027
:104F30007A007B019002ACE0F9120B59E9802D90C8
:104F400002B1E0700D7A007B019002ACE0F9120B27
:104F500059E9851882851983E09002B1F01209FDA4
:104F6000800A7AAE7B0B7902120FDFE97401121FFF
:104F70009B7F010220AEC082C0839002B2E07034F9
:104F80009002E07400F09002B27401F09002DB74C1
:104F900000F0A37400F09002DA7400F0908BA91274
:104FA00022027A007B029002ACE0F9120BDD74045D
:104FB000121F9BE9D083D08202013574F7121FDCE7
:104FC00074FF121F85E9FE14600514605C8064851F
:104FD0001882851983AA82AB837901120D3FE98576
:104FE0001882851983E0701B9002B2E06045900240
:104FF000B27400F07A007B029002ACE0F9120B5917
:10500000E98030851882851983E06401702590025B
:10501000B2E0701F9002B27401F07A007B0290023D
:10502000ACE0F9120B59E9800A7AB07B0B790212D5
:105030000D3FE97401121F9B7F010220AEC082C0A8
:10504000839002B4E070199002B47401F09002DF12
:105050007400F07A087B009002ACE0F9120B59E979
:10506000D083D08202013574F7121FDC74FF121F47
:1050700085E9FE14600514606080688518828519D2
:1050800083AA82AB837901120FAFE9851882851953
:1050900083E070199002B4E060139002B47400F0E1
:1050A0007A087B009002ACE0F9120B59E98518826E
:1050B000851983E06401702B9002B4E070259002A2
:1050C000B47401F09002DF7400F07A087B00900263
:1050D000ACE0F9120B59E9800A7AA87B0B7902122D
:1050E0000FAFE97401121F9B7F010220AE74F01212
:1050F0001FDC74F8121F85890A7401650A600302B7
:1051000051AC851882851983AA82AB837901120D6F
:1051100009E9851882851983E0FA7B007401121F62
:10512000D0E0F87900E4C8F9EA28F8EB39F9E8FEAC
:10513000E9FF7402121FD0E0FA7B007403121FD043
:10514000E0F87900E4C8F9EA28F8EB39F988088929
:10515000097404121FD0E0FA7B007405121FD0E01E
:10516000F87900E4C8F9EA28F8EB39F9880E890FD4
:105170007406121FD0E0FA7B007407121FD0E0F80B
:105180007900E4C8F9EA28F8EB39F9880C890D7838
:105190000C1221EF780E1221EF7902AC08AD09EE66
:1051A000FAEFFB1210D57404121F9BE97402650A12
:1051B00070041210A5E97408121F9B7F080220AE2C
:1051C00074F4121FDC74FA121F85EAFEEBFF8C08E0
:1051D0008D097412121FD0E0F50AA3E0F50BEE85DD
:1051E0001882851983F0EEF8EFF9E4E9F8C0E0746D
:1051F00001121FD0D0E0F0E5087402121FD0E508BC
:10520000F0A808A909E4E509A809E5097403121F33
:10521000D0E509F0E50A7404121FD0E50AF0A80AE7
:10522000A90BE4E50BA80BE50B7405121FD0E50BE9
:10523000F0851882851983AC82AD837A06790012D5
:105240000D03E97406121F9B7F040220AE74F01256
:105250001FDC8A0A8B0B89088C0C8D0985090E7559
:105260000F00AA0EAB0F120B9B8A0E8B0FAE0EAF68
:105270000FEE4F700302530D85090E750F00AC0E33
:10528000AD0FA90CEEFAEFFB120B1D850A0E850B74
:105290000F780E1222790000060000AAB45210AA5C
:1052A000C25220AADE5230AAD05240AAEC5250AAD2
:1052B000FA520653EEFCEFFDAA09A908120FC7E93E
:1052C0008044EEFCEFFDAA09A908120CEBE9803638
:1052D000EEFCEFFDAA09A908120FCDE98028EEFC2B
:1052E000EFFDAA09A908120FA9E9801AEEFCEFFD4B
:1052F000AA09A908120CF1E9800CEEFCEFFDAA093D
:10530000A908120E2FE9EEFAEFFB120BA17F08029B
:1053100020AE74F3121FDC8A088B09ECFEEDFFC38C
:10532000EE9415EF94004005750C148003EEF50C17
:1053300090032C742EF0A37400F0E50C90032EF073
:10534000850C0A750B00780A1221EFAC08AD097ABA
:105350002F7B03120B057402121F9B79007C2C7D9E
:10536000037A007B001213ABE97F050220AE74EED6
:10537000121FDC74FA121F858A0A8B0B8909ECFE56
:10538000EDFF750800850A0C850B0D780C12223391
:105390000004104756B753D853F753185439545A8A
:1053A000548D54AE54C554F354B155D255F2551CD6
:1053B00056475647561E557401650970158E828FE3
:1053C00083E0C39403500B8E828F83E0900EBFF076
:1053D00080037508180256707402650970138E8276
:1053E0008F83E0F8A3E0F9900EC0E8F0A3E9F08025
:1053F000037508180256707401650970158E828F46
:1054000083E0C39402500B8E828F83E0900399F067
:1054100080037508180256707401650970158E8234
:105420008F83E0C39405500B8E828F83E090039AA4
:10543000F080037508180256707401650970158EA6
:10544000828F83E0C39402500B8E828F83E090039F
:105450009BF0800375081802567074106509702758
:10546000750C10750D00780C1221EFEEFCEFFD7A33
:105470009C7B03120B057402121F9B8A0C8B0D85FB
:105480000C82850D838003750818025670740165BF
:105490000970158E828F83E0C39402500B8E828F29
:1054A00083E09003ACF08003750818025670740115
:1054B0006509700B8E828F83E0900EC3F0800375B8
:1054C0000818025670740465097022908B85780C58
:1054D000121E558E828F83780C121C64500F8E82A0
:1054E0008F83121E739003AE121E7F8003750818FF
:1054F000025670E5097021121333E97013120DD5AD
:10550000E9F50C7950121087E9F50D120DC3800BE7
:105510009004417401F080037508180256707407F6
:10552000650960030255AB750E06750F00780E1203
:1055300021EF8E828F83A3AC82AD837402121FD0C1
:10554000AA82AB83120B0B7402121F9B8A108B1161
:1055500085100E85110F7C007D00851882851983CA
:10556000AA82AB838E828F83E0F9120D69E9F50C74
:10557000E50CC3940A502F121333E97015A90C12CD
:105580000DDBE9F50D7950121087E9F50E120DC308
:10559000801C750D007442250CF5827404350DF5E0
:1055A000837401F08008750802800375081802569C
:1055B000707401650970158E828F83E0C394025068
:1055C0000B8E828F83E09003ADF080037508180284
:1055D00056707401650970158E828F83E0C3940A3A
:1055E000500B8E828F83E0900EC2F08003750818F6
:1055F000807E74016509701F8E828F83E0C39407DB
:1056000040158E828F83E0C39411500B8E828F835E
:10561000E0900EC4F0805975081880547401650933
:105620007020900440E0F50C8E828F83E09004405F
:10563000F0E50C703B900440E064017033120DC340
:10564000802E7508188029C3E50A9427E50B94007D
:10565000501B7402650970158E828F83E0FCA3E0F5
:10566000FDAA0AAB0B1211D1E9F5088003750802F7
:10567000A9087406121F9B7F0A0220AE74EC121F49
:10568000DC74DA121F85890D8A128B138C0A8D0B3C
:10569000743A121FD0E0F50C908B62C082C08385F3
:1056A0001882851983AC82AD83D083D082740612B0
:1056B0001E98851882851983AC82AD83AA12AB131C
:1056C000A90D120D69E9FEEEC3940A400302581BAE
:1056D000EEF9120DA5E9FF900EBFE06402700474AC
:1056E0000180027400F50878081221F3AD0CEFFC7C
:1056F000EEF9AA0AAB0B120E177401121F9B7C1451
:105700007D0079007412121FD0AA82AB83120B1D88
:105710008A0E8B0F850E08850F097412121FD0ACEC
:1057200082AD837A1075F006EEA42424F91210815C
:10573000E970437C1079FF7412121FD0AA82AB83E8
:10574000120B7DE970307422121FD0AC82AD837AC7
:105750000475F006EEA42425F9121081E9F5087409
:1057600012121FD0AC82AD83EFA2E0E433F9AA0A93
:10577000AB0B12125BE97406121FD0AC82AD837AB8
:105780000C74702EF9121081E9707E7406121FD00D
:10579000AA82AB83120D99750E00E50EC3940450D6
:1057A00068E50EA80E7900E875F003A4C8AAF075A4
:1057B000F000A42AFA75F003E9A42AF97406121F6E
:1057C000D0E58228F508E58339F509850882850941
:1057D00083E0F8A3E0F9E849602B85088285098316
:1057E000A3A3E0F51075110078101221EF8508824F
:1057F000850983E0FCA3E0FDAA0AAB0B1214BF7479
:1058000002121F9BE9050E8091EFA2E1500D90035B
:1058100098E0F9AA0AAB0B1214C5E97404650C7080
:105820000F900EBFE064027007AA0AAB0B120E11B4
:1058300079007426121F9B7F0C0220AE74F2121F97
:10584000DC890BEAFEEBFF8C088D09750A0AE50B73
:10585000600C1460091460441460640258E0EEFAAD
:10586000EFFB120DB7E9F50AE50AC3940A5071E59A
:10587000084509606B750C06750D00780C1221EF58
:10588000EEFCEFFDAA08AB09120B057402121F9B78
:105890008A0C8B0D850C82850D838044EEFAEFFB1C
:1058A000120DB1E9F50AE50AC3940A5033E508453B
:1058B00009602DAA08AB09A90A120DABE98021EEF7
:1058C000FAEFFB120DBDE9F50AE50AC3940A501080
:1058D000E5084509600AAA08AB09A90A120DABE957
:1058E000A90A7F060220AE74F2121FDC8A0C8B0D0F
:1058F000E9FE7F1574FF650C700474FF650D702A56
:10590000750800E508C3940A5014EEFC7A027B0087
:10591000A908120D87E960027F00050880E5EE60A6
:10592000637AFF7B0D1216C3805AAA0CAB0D1216B8
:10593000A58A0A8B0B850A08850B09E508450960CD
:10594000417C007D00E5082405FAE5093400FB856B
:105950000882850983A3A3A3A3E0F9120D69E9F5E1
:105960000AE50AC3940A500EEEFC7A027B00A90AEB
:10597000120D87E97F00EE600BAA08AB09120DFF3C
:1059800080027F14EFF97F060220AE74EE121FDC56
:105990008A0E8B0F8C0A8D0B7412121FD0E0F50C3F
:1059A000A3E0F50D75081574FF650E700474FF65AE
:1059B0000F701E7E00EEC3940A5062AC0CAD0DAAAF
:1059C0000AAB0BEEF9120D8DE960037508000E802D
:1059D000E4AA0EAB0F1216A58A108B11AE10AF11F0
:1059E000EE4F60367C007D00EE2405FAEF3400FBBC
:1059F0008E828F83A3A3A3A3E0F9120D69E9F509B1
:105A0000E509C3940A5016AC0CAD0DAA0AAB0BA95C
:105A100009120D8DE97508008003750814A9087F27
:105A20000A0220AE74F7121FDCEAFEEBFF9003B20D
:105A3000EEF0A3EFF0900398E0FC7D007A267B0067
:105A40001211D1E9F508900398E0F912143B7F0197
:105A50000220AE74F2121FDC74EC121F858A0A8BCE
:105A60000B850A82850B83A3A3E024FA7003025EF0
:105A7000B324FD7003025D29147003025B461460B9
:105A80001024FD7003025CD1147003025D69025F93
:105A900021AE0AAF0B9003B2E0F8A3E0F9E8496049
:105AA000699003B2E0F8A3E0F5838882E0F8A3E010
:105AB000F9E8496055EE240CF582EF3400F583E0F7
:105AC000F50878081221F3EE240BF582EF3400F587
:105AD00083E0F98E828F83A3A3A3A3A3A3A3A3A38D
:105AE000E0FCA3E0FDEE2403FAEF3400FB9003B2E8
:105AF000E0F8A3E0F5838882E0F8A3E0F5838882EC
:105B0000121FDA7401121F9B80398E828F83A3A328
:105B1000A3A3A3A3A3A3A31222069003AE121E73F2
:105B200012126D7402121F9BE9601879018E828F28
