:020000040000FA
:0600000002011D022AEBC3
:03002B000223AB02
:0300330002238322
:03005300022B5E1F
:03006B0002232A43
:03007B000223520B
:10008300022957E5C754F84401F5C7790122000056
:100093000080FB120086B90003020107E47921788E
:1000A30008B800028004F709D8FCE479297802B87B
:1000B30000028004F709D8FCE490028178EF790804
:1000C3008002F0A3D8FCD9FA781A90014D7A01BACC
:1000D30000028007E493A3F608DAF9900A6FAA8274
:1000E300AB8390014E785079098015E493A3AC82D9
:1000F300AD838A828B83F0A3AA82AB838C828D83A8
:10010300D8E9D9E775827D75837F740012012F7555
:100113008291758300740012012F75D00075813FA1
:10012300751881751902759F00020096C09FF59F8F
:10013300E473D09F22D083D082C09FE493C0E07445
:100143000193C0E0740293F59F22019D09A309A9BD
:1001530009AF09B509BB09C109C709CD09D309D934
:1001630009DF09E509EB09F109F70968FFFF037BDB
:10017300034CCD6C03AB0336567600680402CB47C1
:10018300A202180400058BC1010C04000000000347
:100193007F060CC92C979797038903264666006C44
:1001A300022000024004000000000244040000009A
:1001B3000002480400000000024C0400000000029A
:1001C3005004000000000254040000000002580420
:1001D30000000000025C040000000002BC040000F8
:1001E300000001EC0400004000037F060CC92C97BB
:1001F30097970402030D355D040904872D353D00EF
:10020300A3010000000001078601FE074105F1205C
:10021300283038077E01300746019A074704F12842
:100223003038076C04F1283038021602000101B29D
:1002330002FFFF0190040923A135016A02060001B0
:10024300600800000000000000000060044000009F
:10025300000162020000006004004000000B095628
:10026300756C74757265456767051250002003024B
:100273000A00020106030288FF45676700D007E80A
:1002830003E8037011E803E803D00760EA2A007962
:100293000C0000B50CBB0CC10CC70CCD0C12416398
:1002A30063656C2E2044617461000A416363656C6D
:1002B3002E20436F6E662E000A0A416363656C2E1F
:1002C30020506572696F640002EE8A010000F08BB2
:1002D30002168C010000C10B10E8890100004203E3
:1002E30002208C0300004503021A8C010000C20B9C
:1002F30002168C010000CE0B10F8890300004B039B
:10030300021A8C010000CF0B02168C010000DC0BDB
:1003130010088A030000DD0B021A8C010000DE0BBB
:10032300124261726F6D2E2044617461000A426152
:10033300726F6D2E20436F6E662E00024261726FE4
:100343006D2E2043616C6962722E000A0A4261724B
:100353006F6D2E20506572696F640002EE8A010092
:1003630000F38B02168C010000440C10388A010044
:10037300004C0302208C0300005003021A8C01007E
:1003830000450C02168C010000510C10488A030032
:10039300005603021A8C010000520C02168C010055
:1003A300006F0C10688A030000700C021A8C0100A5
:1003B30000710C02168C0100005F0C10588A0100BA
:1003C30000570302208C0300006703021A8C01000C
:1003D30000600C12436F6E6E2E20506172616D735C
:1003E3000008436F6E6E2E20506172616D73205250
:1003F30065710008446973636F6E6E6563742052A0
:1004030065710002EE8A010000F68B02168C010072
:1004130000F70C10788A0100006F0302208C0300A0
:10042300007503021A8C010000F80C02168C0100FF
:1004330000050D10C8890200007B03021A8C01001D
:1004430000060D02168C010000170D10B88902007A
:10045300008303021A8C010000180D0202023132DC
:100463003334353637383930313200020202020272
:1004730002010D000000100102EE8A010000088C49
:1004830002168C0100007F0D02368C0100008403EC
:1004930002168C010000800D02348C010000748B65
:1004A30002168C010000810D02308C010000820DC8
:1004B30002168C010000900D022E8C010000368B79
:1004C30002168C010000910D02268C010000AD8BF9
:1004D30002168C0100008F0D02248C0100004A8B50
:1004E30002168C010000920D02228C010000D987B4
:1004F30002168C010000930D021E8C010000A88AD5
:1005030002168C010000940D021C8C010000950D55
:1005130012447331386232302E2044617461000A10
:10052300447331386232302E20436F6E662E000AD8
:10053300D007447331386232302E20506572696FB0
:10054300640002EE8A010000118C02168C01000087
:10055300340E1038890100008E0302208C03000042
:100563009003021A8C010000350E02168C01000064
:10057300430E1028890300009603021A8C01000021
:10058300440E02168C010000530E1018890300005C
:10059300540E021A8C010000560E01E803053F10A9
:1005A3000A124779726F2044617461000A477972B5
:1005B3006F20436F6E662E000A0A4779726F2050D0
:1005C3006572696F640002EE8A010000ED8B02160A
:1005D3008C010000C50E1028880100005104022080
:1005E3008C0300005704021A8C010000C60E021689
:1005F3008C010000D00E1058890300005D04021A1C
:100603008C010000D10E02168C010000DC0E10A834
:1006130089030000DD0E021A8C010000DE0E0300C8
:1006230080700061801248756D69642E2044617486
:1006330061000A48756D69642E20436F6E662E0053
:100643000AD00748756D69642E20506572696F641E
:100653000002EE8A010000F98B02168C01000049AA
:100663000F105888010000C00402208C030000C44E
:1006730004021A8C0100004A0F02168C0100005676
:100683000F106888030000CA04021A8C0100005787
:100693000F02168C010000640F10788803000065B8
:1006A3000F021A8C010000670F1254656D702E2023
:1006B30044617461000A54656D702E20436F6E6649
:1006C3002E000A1E54656D702E20506572696F648A
:1006D3000002EE8A0100000B8C02168C010000CD93
:1006E3000F109888010000CB0402208C030000CF78
:1006F30004021A8C010000CE0F02168C010000D9EF
:100703000F10A888030000D504021A8C010000DA38
:100713000F02168C010000E60F10B888030000E7F3
:100723000F021A8C010000E80F124D61676E2E2034
:1007330044617461000A4D61676E2E20436F6E66DB
:100743002E000A0A4D61676E2E20506572696F6430
:100753000002EE8A0100000E8C02168C0100004D8F
:100763001010D888010000D60402208C030000DC9E
:1007730004021A8C0100004E1002168C010000596D
:100783001010E888030000E204021A8C0100005AEA
:100793001002168C010000661010188A030000670F
:1007A30010021A8C0100006810124D707536303536
:1007B300302E2044617461000A4D70753630353037
:1007C3002E20436F6E662E000AC8004D70753630BA
:1007D30035302E20506572696F640002EE8A010085
:1007E30000058C02168C010000CD101068890100F1
:1007F30000E50402208C030000F304021A8C0100BC
:1008030000CE1002168C010000DC10107889030062
:1008130000F904021A8C010000DD1002168C01009D
:1008230000EC10108889030000ED10021A8C0100FF
:1008330000EF10FF00013075030201060000000005
:1008430000000000000000000000000000000000A5
:100853000000000000000000FFFF0600800CE8031A
:10086300104B6579205072657373205374617465FE
:100873000002EE8A010000028C02168C0100008443
:1008830011022A8C000000A90502208C030000AA93
:1008930005021A8C0100008511FF0000B400002836
:1008A300002800283075A000A000A000A0000008C8
:1008B3000008E001F000100010001000100010000C
:1008C300100050005000500010001000D00700002E
:1008D300000000000F000100050030750700100044
:1008E300010081FF00000000FFD912F712DF12FFA1
:1008F30002020208025000A0000000E80302EE8A90
:10090300010000FF8B02168C0100001412022C8CD4
:10091300010000E20502168C010000151202328C60
:10092300010000F80502168C010000161202388C33
:10093300010000FA0502168C0100001712023C8C1C
:10094300080000FB0502168C0100001812023E8C01
:100953000100001912FF0100FF2002EE8A010000CE
:10096300FC8B02168C0100007D1202408C000000FB
:10097300000002208C0300004806AF18AF18AF1820
:10098300AF18AF18AF18AF18AF18AF18AF18AF182C
:10099300AF18AF18431B5B1B3D1B1201384AB3034F
:1009A30012013896B303120138ECB30312013891E4
:1009B300B40312013845B50312013864B5031201BB
:1009C3003883B503120138B1B503120138E4B50316
:1009D3001201385DB603120138E3B60312013883FE
:1009E300B70312013848B8031201387AB803120169
:1009F30038AFB803120138DDB80312013865EE02CF
:100A030012013884EE02120138A7EE02120138CE29
:100A1300EE02120138F5EE021201381CEF02120148
:100A23003843EF0212013866EF0212013889EF02F0
:100A3300120138ACEF02120138CFEF021201380174
:100A4300F00212013824F0021201384EF0021201B2
:100A530038EAF0021201380FF10212013834F102C0
:100A630012013859F1021201387EF102120138A342
:100A7300F102120138C8F102120138EFF10212013A
:100A8300382DF20212013859F20212013885F202AE
:100A9300120138AAF202120138E3F2021201380AF3
:100AA300F30212013843F3021201386AF30212010E
:100AB30038A3F302120138CAF302120138EFF3022A
:100AC30012013814F40212013852F402120138757B
:100AD300F4021201389FF4021201387EF50212016A
:100AE3003826F70212013876F702120138A3F8020A
:100AF300120138C2F802120138E5F8021201380C6B
:100B03009D03120138219D03120138799D031201BF
:100B130038E09D03120138289E031201389E9E037C
:100B2300120138CD9E03120138DB9E031201383FB8
:100B33009F031201387D9F03120138989F0312010E
:100B43003830A003120138D9A0031201385CA10385
:100B530012013895A10312013820A203120138773C
:100B6300A203120138D6A203120138E8A20312012C
:100B7300380EA30312013817A30312013876A40316
:100B83001201388E8D041201386D8E041201388AD9
:100B9300F703120138CFF70312013815F8031201D6
:100BA30038A8F9031201383295041201384D95041F
:100BB3001201385D9504120138B495041201382FDF
:100BC3009A0412013808F90212013828F9021201B5
:100BD300382CFA0212013878FA0212013898FA0214
:100BE300120138EBFA0212013858FB021201389E47
:100BF300FB0212013802FC02120138B4FE02120198
:100C030038EDFD031201381DFE031201384DFE03BA
:100C130012013810FF031201386AFF03120138FF73
:100C230084041201381785041201387485041201F3
:100C330038B88504120138EA850412013821860484
:100C4300120138448604120138243200120138B6E6
:100C530038001201388639001201388C390012012C
:100C6300380C3C001201389F4200120138CA42007E
:100C7300120138D04300120138024400120138EA4D
:100C830045001201382146001201381C48001201A8
:100C9300382E4C00120138654C001201382F4D00DC
:100CA300120138664D001201389D4D00120138D4EF
:100CB3004D00120138064E00120138854E00120114
:100CC30038074F001201388D4F0012013860500071
:100CD300120138ED5000120138B2510012013800F0
:100CE30096041201382F91041201382FD5031201F3
:100CF3003882D5031201389FD50312013874D60305
:100D0300120138F1D603120138CED703120138434A
:100D1300D90312013801FB0112013826FB0112012C
:100D23003861FB011201388DDD03120138E0DD0368
:100D330012013809DE0312013872DE03120138B0E2
:100D4300DF031201386AE103120138D29A04120157
:100D5300380E52001201381C5500120138DC5600BF
:100D63001201388757001201382B5800120138C47A
:100D73005800120138F35800120138CD5D001201FA
:100D830038785E00120138E85F00120138506000C5
:100D9300120138046100120138C6630012013805DC
:100DA3006400120138796400120138D8640012011A
:100DB30038376500120138A66500120138996600BC
:100DC300120138DF66001201382467001201384728
:100DD3006700120138C26800120138D56800120199
:100DE30038DE69001201381D6A00120138496A00B1
:100DF3001201389C6A00120138BD6A0012013801E1
:100E03006B00120138536D00120138946D0012010A
:100E1300383F6E00120138AA6E00120138E76F00E6
:100E230012013822980412013869930412013849D7
:100E3300940412013835FF0212013853FF021201E4
:100E430038DCFF02120138EB9C04120138039004D2
:100E53001201381390041201382490041201382926
:100E630091041201382DEF03120138D3EF0312015D
:100E730038EFF103120138ECF9031201384EFA038B
:100E8300120138C6FA031201386EFB031201388DC2
:100E9300FB031201389DFB03120138DCFB03120133
:100EA30038EB8A04120138258B04120138988B041D
:100EB300120138D28B04120138E48B041201381B5F
:100EC3008C041201385F8304120138AE83041201CB
:100ED30038E08304120138718404120138ED84046C
:100EE3001201381B88041201384488041201386D3A
:100EF30088041201382D89041201387E89041201F5
:100F0300388E8604120138C186041201383D8704E5
:100F13001201385D8704120138C287041201380AAE
:100F230088041201380D8804120138069D04120149
:100F330038189D041201381B9D04120138C98E0410
:100F4300120138188F04120138448F0412013864D7
:100F53008F04120138F18F041201383F8C041201FF
:100F630038908C04120138D78C04120138618D0437
:100F7300120138F87F00120138DDF403120138D46E
:100F8300F60312013840F70312013887F703120101
:100F93003837BE031201388ABE03120138B3BE03C9
:100FA30012013871BF03120138DABF031201381876
:100FB300C103120138D2C203120138B696041201DA
:100FC300386C970412013873D903120138C6D90358
:100FD300120138EFD90312013858DA031201389697
:100FE300DB0312013850DD03120138EEFB0312015B
:100FF3003857FC0312013815FD0312013894FD0321
:101003001201380EE90312013840E903120138488E
:10101300EA031201386DEB03120138008003120159
:1010230038E68003120138338103120138768103D5
:10103300120138EB81031201384C8203120138C1CB
:1010430082031201389D8303120138A8840312011D
:1010530038298503120138D08603120138668703C5
:10106300120138D987031201385588031201386CED
:101073008803120138A38903120138FD8903120181
:1010830038D4E7011201386CEC0112013840EF014A
:1010930012013869EF0112013880EF01120138A9FA
:1010A300EF011201385BF00112013841F201120124
:1010B300387CF301120138B2F801120138EBF80160
:1010C3001201382FF90112013841FA01120138E0F7
:1010D3009B04120138D898041201380080041201CD
:1010E30038178004120138488004120138838004C1
:1010F300120138AD8004120138D78004120138EE92
:1011030080041201380581041201381C8104120184
:10111300384581041201385881041201386E810464
:10112300120138818104120138A88104120138693F
:101133008A031201386D8B03120138A58B03120148
:1011430038C88B03120138D38B03120138F68B0393
:10115300120138058D03120138DA8D031201385557
:101163008E03120138DD8E03120138188F0312012A
:10117300384F8F03120138DD8F03120138B6900305
:10118300120138169103120138219103120138A07C
:101193009103120138A39103120138A6910312019E
:1011A30038359203120138389203120138689203DA
:1011B30012013892920312013880930312013832DC
:1011C30094031201380FC30312013837C30312010A
:1011D3003865C3031201389CC303120138FAC303F1
:1011E30012013845C40312013890C403120138D0E8
:1011F300C40312013816C50312013844C503120192
:101203003801C6031201380BC60312013818C6038E
:101213001201384BC60312013817C70312013823D2
:10122300C7031201383BC70312013845C703120134
:10123300385B9404120138699404120138819404D0
:10124300120138999404120138EF8F021201389B6E
:1012530090021201381691021201383792021201DC
:10126300387392021201381C93021201380394025C
:10127300120138679502120138BE95021201383FF8
:1012830096021201382F97021201387C970212013D
:1012930038029802120138349802120138489A022F
:1012A3001201388A9A02120138A89A021201382BC5
:1012B3009B02120138FF9B02120138C79C021201E4
:1012C3003827AC03120138FAAC03120138A3AD037B
:1012D300120138F6AD03120138A6AE0312013832FB
:1012E300AF031201381EB0031201384DB0031201CF
:1012F3003860B103120138A8B1031201387DB2037B
:10130300120138B9B203120138D5B2031201385CA5
:101313009B0412013875E5031201388BE5031201B2
:1013230038B1E503120138CDE603120138D7E603DD
:101333001201380CE80312013804E90312013810D2
:10134300B90312013840BA0312013873BA03120108
:1013530038BDBA0312013884BC031201380080027D
:101363001201386A8002120138C98102120138D988
:1013730081021201380682021201385D82021201D3
:10138300380683021201380D8402120138D7840211
:101393001201383786021201387A86021201381F89
:1013A30087021201386C87021201389287021201F8
:1013B30038A08902120138A58902120138AA8B02CA
:1013C300120138F78B021201386A8C021201389D20
:1013D3008C021201383F8D02120138E88D0212018E
:1013E30038208E02120138238E021201386B8E02CE
:1013F300120138AB8E02120138028F021201380A31
:10140300F20312013822F2031201386AF2031201C5
:101413003880F203120138C7F203120138DBF303F9
:1014230012013868F403120138B3F4031201384986
:101433008C01120138558C01120138908C01120174
:1014430038D58C01120138958D011201381B8E019C
:10145300120138808E01120138AC8E01120138E579
:101463008E011201382391011201380793011201F1
:1014730038ED94011201383096011201387E98013B
:10148300120138909901120138DB9A01120138EBED
:101493009B01120138089C01120138439C0112017F
:1014A30038659C01120138C89C0112013889A101D9
:1014B3001201381EA2011201386FA20112013896DF
:1014C300A201120138E8A20112013806A301120198
:1014D3003860A30112013849A401120138BFA501E4
:1014E30012013843A601120138CCC703120138D6C2
:1014F300C70312013819C80312013834C803120193
:1015030038C4C803120138ECC80312013829C903CF
:1015130012013860C90312013889C903120138FE68
:10152300C90312013813CA0312013828CA0312016E
:101533003859CA031201386DCA0312013892CA031B
:10154300120138CCCA03120138F8CA031201383029
:10155300CB03120138AFCB03120138F8CB031201CE
:101563003822CC031201384DCC03120138509204B7
:1015730012013864D60212013892D602120138E001
:10158300D702120138C0D802120138DFD802120183
:10159300385CD9021201389FD902120138F5DA02F8
:1015A300120138B6DB021201383DDE02120138DEC9
:1015B300DE02120138D4DF02120138D1E002120137
:1015C300382BE202120138B6E20212013890890484
:1015D300120138F989041201384D8A041201387452
:1015E3008A04120138A58A0412013875CC0312014A
:1015F30038E2CC0312013829CD0312013841CE035E
:101603001201383DCF0312013820D003120138A351
:101613009403120138E59403120138B795031201BC
:10162300389096031201388A97031201386C980395
:10163300120138D598031201388B9903120138FF30
:1016430099031201386B9A03120138949A03120119
:10165300380E9B03120138A79B031201380C9C031D
:10166300120138219C03120138679C031201388050
:101673009C03120138E59C03120138E89C03120114
:101683003834EC031201385CEC031201389AEC0392
:1016930012013858ED03120138BFED03120138DB94
:1016A300ED0312013803EE0312013833EE03120186
:1016B3003842EE03120138BFEE03120138E5EE03A0
:1016C3001201381B7000120138F971001201382B16
:1016D3007400120138677400120138947400120107
:1016E300387E7500120138C975001201381476006E
:1016F3001201382676001201386676001201389BF3
:101703007600120138E976001201381877001201C9
:10171300383B77001201388877001201380D7800C2
:10172300120138277A00120138667C00120138A7AB
:101733007C00120138497E001201388A7E001201B2
:1017430038FD7E00120138537F001201384FC90261
:101753001201384DCA02120138E6D00212013807CD
:10176300D302120138D2D4021201383AD60212013E
:1017730038AAA60112013859A70112013886A70118
:10178300120138CCA7011201380CA901120138A2A9
:10179300AA011201381CAB0112013837AB01120147
:1017A30038B2AB011201380CAD011201386CAE0135
:1017B30012013872AF01120138D3B001120138ECB3
:1017C300B0011201384AB10112013838B2011201D5
:1017D300386BB201120138DBB20112013855B30183
:1017E3001201389FB30112013869B4011201383E66
:1017F300B5011201381DB601120138A8B601120154
:101803003816B7011201388AB701120138B5B7018A
:1018130012013874B801120138D9B901120138F62E
:10182300B90112013815BA0112013806BB011201C0
:10183300382BBB0112013855BB01120138D0BB0153
:101843001201382ABC0112013893BD01120138413B
:10185300BE0112013882BE011201387BBB021201A4
:1018630038C9BB02120138D5BB02120138B3BC021E
:10187300120138E4BC0212013815BD021201389579
:10188300BD02120138CDBD021201381FBE02120182
:10189300385CBE0212013879C0021201389FC202BD
:1018A3001201388AC40212013874C60212013819AF
:1018B3003200120138C1D301120138F1D3011201F0
:1018C30038CADA011201384FDC011201384CE20147
:1018D30012013834E30112013871E3011201389423
:1018E300E301120138C5E301120138CEE30112010D
:1018F30038D8E301120138C6E401120138BCE5010E
:10190300120138B2BE01120138B1C201120138B757
:10191300C201120138F2C9011201380BCF011201C1
:1019230038A7E1031201383DE20312013853E20301
:10193300120138C9E2031201383DE3031201387B77
:10194300E303120138EFE30312013868E4031201E1
:101953003871E4031201387DE40312013892E40381
:10196300120138D0E403120138E6E40312013845CA
:10197300E503120138E2D003120138EFD00312015C
:101983003809D10312013848D10312013886D10333
:10199300120138EBD10312013800D2031201380BC4
:1019A300D20312013818D2031201382FD2031201C5
:1019B300383DD20312013848D20312013854D203FE
:1019C30012013863D2031201386ED2031201389127
:1019D300D20312013838D30312013848D30312015A
:1019E3003862D3031201387FD3031201389BD30328
:1019F300120138C0D303120138CBD303120138E0EC
:101A0300D303120138F4D30312013855D40312015E
:101A1300385BD40312013861D40312013867D4034D
:101A23001201387FD403120138B2D40312013851A2
:101A3300AD02120138D5AD0212013884AE02120193
:101A430038E3AF0212013804B202120138F0B202D5
:101A530012013825B30212013847B302120138F6D6
:101A6300B302120138EEB50212013817B6021201A1
:101A730038A9B602120138DBB602120138E8B60201
:101A83001201383FB70212013865B702120138D28A
:101A9300B902120138D5BA021201382DBB02120164
:101AA30038E09E02120138EA9F02120138D1A002E7
:101AB300120138DBA002120138FDA002120138091D
:101AC300A102120138A2A202120138D1A20212010C
:101AD30038EDA30212013846A402120138ACA50264
:101AE3001201388BA602120138E7A60212013854FC
:101AF300A7021201388FA702120138CEA7021201E2
:101B03003887AA02120138A1AA021201382DAB02AA
:101B13001201383BAB0212013894AB02120138A216
:101B2300AB0212013815AC0212013879AC02120172
:101B330038C3AC0212013837E30212013859E30209
:101B43001201387FE50212013894E802120138AC21
:101B5300E9021201385FEA0212013841EB02120175
:101B630038BA8104120138DF81041201385182042A
:101B7300120138ADA403120138B6A403120138BF11
:101B8300A40312013896A50312013847A7031201D3
:101B9300387DA703120138B7A703120138EDA70355
:101BA30012013827A8031201385BA80312013887F2
:101BB300A803120138D0A8031201380AA90312019D
:101BC3003853A903120138ABA903120138E0A90362
:101BD3001201383BAA0312013875AA03120138C651
:101BE300AA03120138FCAA0312013836AB0312010F
:101BF3003864AB0312013887AB03120138849904AC
:101C0300120138B099041201380B9A0412013815E5
:101C13009A04120138259A04120138459C041201D2
:101C230038D2FF03120138979C04120138CD9C046B
:101C3300E066701008A3E066700A08A3E06670040B
:101C430008A3E06622C3E7960809E7960809E79622
:101C53000809E79622C3E09608A3E09608A3E09656
:101C630008A3E09622C008C3E096F50808A3E0960F
:101C7300420808A3E096420808A3E09645087001CD
:101C8300D3D00822080808EAC0E0EBC0E086F0E7FA
:101C9300A4FA180986F0E7A42AFA180986F0E7A43B
:101CA3002AFA180986F0E7A42AFA1986F0E7A4FBB2
:101CB300E5F02AFA190886F0E7A42BFBE5F03AFAD7
:101CC300190886F0E7A42BFBE5F03AFA1818098601
:101CD300F0E7A4C5F02BFBE43AFA1908E7C5F0C610
:101CE300A426F6E5F03BFBE43AFA1886F0E7A4F6FF
:101CF300E5F00826F6E43B08F6E43A08F6D0E0FB04
:101D0300D0E0FA22E4CFC0E0E4CEC0E0E4CDC0E00E
:101D1300E4CCC0E075F020C3E633F608E633F608FA
:101D2300E633F608E633F6181818EC33FCED33FD0A
:101D3300EE33FEEF33FFC3EC9709ED9709EE9709F6
:101D4300EF97191919400FFFEC97FC09ED97FD095F
:101D5300EE97FE191906D5F0BEECF709EDF709EE7B
:101D6300F709EFF7191919D0E0FCD0E0FDD0E0FE38
:101D7300D0E0FF226016080808C6C313C618C613AE
:101D8300C618C613C618C613C6D5E0EA22700908DA
:101D93000808226016181818C6C333C608C633C607
:101DA30008C633C608C633C6D5E0EA22E627F608D6
:101DB30009E637F60809E637F60809E637F622E0BA
:101DC30026F608A3E036F608A3E036F608A3E036C5
:101DD300F622E026F008A3E036F008A3E036F00888
:101DE300A3E036F022C3E697F60809E697F608095A
:101DF300E697F60809E697F622C3E096F008A3E013
:101E030096F008A3E096F008A3E096F022E657F6D2
:101E13000809E657F60809E657F60809E657F622D1
:101E2300E056F608A3E056F608A3E056F608A3E04A
:101E330056F622E056F008A3E056F008A3E056F069
:101E430008A3E056F022E0F608A3E0F608A3E0F6C4
:101E530008A3E0F622E6F008A3E6F008A3E6F008FC
:101E6300A3E6F022E0FAA3E0FBA3E0FCA3E0FD225B
:101E7300EAF0A3EBF0A3ECF0A3EDF022CAC0E0E696
:101E8300F0A308DAFAD0E0FA22CAC0E0E0A3C582E0
:101E9300CCC582C583CDC583F0A3C582CCC582C51D
:101EA30083CDC583DAE6D0E0CA22C3E498F8E49987
:101EB300F9121EEE8026C3E49AFAE49BFBE920E7BD
:101EC300E9121EEEE498F8E499F922C3E498F8E4E1
:101ED30099F9121EEEE498F8E499F9C3E49AFAE446
:101EE3009BFB22EB20E7CFE920E7E0B90010BB0022
:101EF30008E88AF084F8AAF022E4FBC8FA22EB701F
:101F0300227B10C833C8C933C9335007C39AC3DB14
:101F1300F280069A50012ADBEAC833F4C8C933F4C5
:101F2300C9FA2275F008E4C833C8C933C933C99A5A
:101F3300C99B5004C92AC93BD5F0ECFBC833F4C88C
:101F4300E4C9FA22600D08C6A2E713C618C613C671
:101F5300D5E0F322600C08C6C313C618C613C6D552
:101F6300E0F422700422600D18C6C333C608C633DA
:101F7300C6D5E0F41822251810AF08F5184002154D
:101F8300198008F51840021519D2AF22C0D02518C0
:101F930010AF08F518500205198008F5185002050E
:101FA30019D2AFD0D0222518F58210AF08F518400A
:101FB3000215198008F51840021519D2AF85198347
:101FC300222518F582E43519F58322E4732518C513
:101FD30082C0E0E51934FFC583C0E0E518C39582EC
:101FE30024F810AF08858319858218800885831922
:101FF300858218D2AFCEF0A3E520F0A37808E608D7
:10200300F0A3DEFAEFF0A3E58124FAF8E608F0A3E3
:10201300E608F0A3E608F0A30808E608F0A3E6083C
:10202300F0A315811581D0E0FED0E0F8158115816C
:102033001581E8C0E0EEC0E0222518C582C0E0E5C6
:102043001934FFC583C0E0E518C3958224F910AFA6
:10205300088583198582188008858319858218D29B
:10206300AFCEF0A3E520F0A37808E608F0A3DEFAEC
:10207300EFF0A3E58124FBF8E608F0A3E608F0A35C
:102083000808E608F0A3E608F0A315811581D0E05F
:10209300FED0E0F815811581E8C0E0EEC0E02285AE
:1020A3001983851882E0A3FEE0A3F5207808E0A356
:1020B300F608DFFAE0A3FFE0A3C0E0E0A3C0E0E09E
:1020C300A3C0E0E0A3C0E0E0A3C0E010AF088582B6
:1020D300188583198008858218858319D2AFD08328
:1020E300D082020135851983851882E0A3FEE0A31F
:1020F300F5207808E0A3F608DFFAE0A3FFE0A3C029
:10210300E0E0A3C0E0E0A3C0E0E0A3C0E010AF08BC
:102113008582188583198008858218858319D2AF33
:10212300D083D08222C0D02518C582C0E0E51934FF
:10213300FFC583C0E0E518C3958224F310AF08857B
:1021430083198582188008858319858218D2AFC8C0
:10215300F0A3E9F0A3EAF0A3EBF0A37908E709F011
:10216300A3D8FAECF0A3EDF0A3EEF0A3EFF0A3D025
:10217300E0F0A3D0E0F0A3D0E0F0A3E520F0A3E5E6
:10218300F0F0A322851983851882E0C0E0A3E0F96B
:10219300A3E0FAA3E0FBA37808E0F608A3DFFAE0E4
:1021A300FCA3E0FDA3E0FEA3E0FFA3E0C0E0A3E007
:1021B300C0E0A3E0F5D0A3E0F520A3E0A3F5F01081
:1021C300AF0885831985821880088583198582184D
:1021D300D2AFD082D083D0E0F8D0E032740480064E
:1021E300740280027401C0E0F404121FA9D0E0124B
:1021F3001E7F227404800474028000CCC0E0EDC012
:10220300E0E518C39CCCAD1950011D10AF068C1826
:102213008D1980068C188D19D2AF121E8CD0E0FD5B
:10222300D0E0FC22D083D082E9C0E0E493A3C3864C
:10223300F0C5F095F0F908E493A386F0C5F095F0A6
:10224300700BE493A3C3994005E9048002A3E475EA
:10225300F002A42582F582E5F03583F583D0E0F919
:10226300E493A3C0E0E493C0E022D083D082ECC027
:10227300E0EDC0E0E493A3FCE493A3FDED4C600D1B
:102283001222B9EC24FFFCED34FFFD80EFE493A3AD
:10229300FCE493A3FDED4C600D1222F8EC24FFFC4B
:1022A300ED34FFFD80EFD0E0FDD0E0FCE493A3C06C
:1022B300E0E493C0E022C0E0C3E493960874019382
:1022C3009618400FE49366700808740193661870BB
:1022D300007019A3A3C3E49396087401939618A3FB
:1022E300A3400DD0E0D0E0D0E00222A9A3A3A3A392
:1022F300A3A3D0E022C0E0C0F088F0E493667008A6
:102303000874019366187000A8F0A3A3700BD0F0B3
:10231300D0E0D0E0D0E00222A9A3A3D0F0D0E02205
:10232400C2AF02000022C0E074F2122128A2AFE47E
:1023340033FED2AFE589A2E05003120F197589006C
:10234400C2C5EEF8EEA2E092AF7F01022187C0E0A1
:1023540074F2122128A2AFE433FED2AFE58AA2E6DA
:102364004006E58AA2E75003120F19758A00758AA0
:1023740000C2EBEEF8EEA2E092AF7F01022187C02B
:10238400E0C0D0E8C0E0E9C0E0A2AFE433F8D2AFE7
:10239400758B00C2E8E8F9E8A2E092AFD0E0F9D08A
:1023A400E0F8D0D0D0E032C0E0C0D0E8C0E0E9C06E
:1023B400E0A2AFE433F8D2AFC2C7751A00E8F9E877
:1023C400A2E092AFD0E0F9D0E0F8D0D0D0E03274FF
:1023D400F512203CEAFEEBFFEE2434F8EF3400F96A
:1023E40088088909EE2435F582EF3400F583E0F896
:1023F400EE2437F582EF3400F583E0F50AEC850A24
:10240400F0A4FCAAF0850AF0EDA42AFDE82CF8E477
:102414003DF97A257B00121EEEEA85088285098340
:10242400F0F8740758F97401B900028004C333D971
:10243400FCFAE8131313541FF8EE28F8EF3400F9EC
:10244400E8245DF582E93400F583E05A6008EE245F
:1024540034F582EF802CEE2434F582EF3400F583DA
:10246400E0C0E0EE2436F582EF3400F583E0F5F0C9
:10247400D0E084A8F0EE28F8EF3400F9E82438F529
:1024840082E93400F583E0F97F040220E874F51250
:10249400203CEAFEEBFFEE2434F582EF3400F583B2
:1024A400E0C0E0EE2435F582EF3400F583D0E0F0AF
:1024B4008E828F83A3A3A3A3A3A3A3C082C0838E6E
:1024C400828F83A3A3A3A3A3E0F8A3E0F9D083D0CE
:1024D40082E0C398F508A3E099F509EE247FF5821C
:1024E400EF3400F583E064017069EE2480F582EF37
:1024F4003400F583E0F8A3E0F98E828F83A3A3A3CD
:10250400A3A3A3A3E0FCA3E0FD8E828F83A3A3A3D4
:10251400A3A3E0FAA3E0FBC3EA9CEB9D5010C3EC39
:1025240098ED99402EC3EA98EB995027800EC3EAA0
:1025340098EB994007C3EC98ED9940177C0B7D0804
:10254400EEFAEFFB12180DEE247FF582EF3400F55E
:1025540083E4F0EE2434F8EF3400F9E8FCE9FDEE0E
:102564002435F582EF3400F583E0F8EE2437F58264
:10257400EF3400F583E0F50AE508850AF0A4F508D0
:10258400AAF0850AF0E509A42AF509E82508F8E483
:102594003509F97A257B00121EEEEA8C828D83F0D0
:1025A400F8740758F97401B900028004C333D9FCE4
:1025B400FAE8131313541FF8EE28F8EF3400F9E87F
:1025C400245DF582E93400F583E05A6008EE243492
:1025D400F582EF802CEE2434F582EF3400F583E0AD
:1025E400C0E0EE2436F582EF3400F583E0F5F0D058
:1025F400E084A8F0EE28F8EF3400F9E82438F582F6
:10260400E93400F583E0F912320B02248CC082C055
:1026140083851882851983E0F8A3E0F9C3EA9CEB6B
:102624009D5010C3EC98ED99401BC3EA98EB995068
:1026340014800EC3EA98EB994007C3EC98ED9940D7
:1026440004790180027900D083D08222EAC39CFA03
:10265400EB9DFB2274EF12203C9006D1E0640860ED
:1026640005E06407702A9061C8E060249006FFE0EA
:10267400F4601DE0F875F003A4C8AAF02AF9740107
:1026840028FE740739FF8E828F83A3A3A3E070030F
:10269400022788906060E0C0E0EE2468F582EF34A1
:1026A40000F583D0E0F0750C74750D08750800759D
:1026B4000900E5D914F50AE5D95403F50E60177439
:1026C40003650E605CE50A6010EE2467F582EF3462
:1026D40000F583E0700302276D90086FE0640160E9
:1026E4002AEE2482F582EF3400F583E06004780456
:1026F40080027800850A08E508C398FA95E0FB1281
:1027040016D58A088B09EA45097005121A118074D6
:10271400EE2482F582EF3400F583E070048A0C8B9A
:102724000DE50A6012850C82850D83F50BE5D9F061
:10273400A3150BE50B70F6EE2482F582EF3400F559
:1027440083E0604474FC250AF50A780C1221E3AC9A
:102754000AA90EEEFAEFFB1218A97402121F8FE9F0
:102764007026AA08AB09120FF1793D8E828F83A3DC
:10277400A3A3A3E0FA7B001215A9EEFAEFFB12184B
:10278400251218BB790080747403650E6056850A9F
:102794001075110078101221E3AC0CAD0DAA08AB32
:1027A400091218857402121F8FEE2468F582EF3423
:1027B40000F583E064807004747F8001E0F50C7898
:1027C4000C1221E7E50EF50C780C1221E7A90AACEE
:1027D40008AD099006FFE0FA7B0012156D74021231
:1027E4001F8F80139006D1E06408600BAC0CAD0D14
:1027F400EEFAEFFB121915121A1D79017F0A022055
:10280400E874F512203C74FC121F79EAFEEBFF8990
:1028140008A2AFE433F509C2AF806AEE2463F8EF8F
:102824003400F97A007B00A2AFE433F50AC2AF8822
:10283400828983E0FCA3E0FDEC4D603A88828983C1
:10284400E0FAA3E0FB8A828B83E0FCA3E0FD8882AC
:102854008983ECF0A3EDF08A828B83E4F0A3F08803
:10286400828983E0FCA3E0FDEC4D700A88828983B1
:10287400A3A3E4F0A3F0E50AA2E092AF120FF19053
:102884000812E004F0EE2463F582EF3400F583E0EF
:10289400F8A3E0F9E849603DEE2463F582EF3400E3
:1028A400F583E02402FAA3E03400FBEA2402F50AEB
:1028B400EB3400F50B780A1221E38A828B83E0FC67
:1028C400A3E0F9EEFAEFFB1218497402121F8FE924
:1028D400700302281F900812E06063900813E0F868
:1028E400900812E0C398500C740265087050900868
:1028F40014E0604A8E828F83A3A3A3A3E085188289
:10290400851983F0A3E4F0900812E0F87402121F12
:10291400C4E8F0A3E4F0900812E0F8900811E0286D
:10292400F07402121FC4AC82AD83851882851983AA
:10293400AA82AB837901121579900812E4F0E509B3
:10294400A2E092AF7404121F8F02248C8521878524
:1029540022C622C0E0C0D0E8C0E0E9C0E0EAC0E09E
:10296400EBC0E0ECC0E0EDC0E0EEC0E0C008C009A0
:10297400C00AC00BC082C083C0F0A2AFE433FEC261
:10298400AF759B00906182E0A2E05012E591A2E055
:10299400500C7591FE740165217003122658E0A253
:1029A400E55051E591A2E5504B7591DF9006D1E0D9
:1029B40064076005E064087023740165217035794B
:1029C400019006FFE0FA75F003A4CAA8F028FB748E
:1029D400012AFA74073BFB1228058018E0640D7085
:1029E400139006F3E004F064287002E4F07A00E047
:1029F400F9121A23906182E0A2E64003022A9EE5BE
:102A040091A2E64003022A9E7591BF9006D1E0642C
:102A140005700812194B12195780031219517521A8
:102A2400001219B1E99006D2F079001219A5121713
:102A3400837A017B009006D0E0F9120B5990780359
:102A4400E064427055900873E014F0704DC2AF1208
:102A54002A5600782AD0E0F618D0E0F6E59F54070D
:102A640070057509FF800375097FC4C0E07829E605
:102A7400F50808E65509F509740B7808121F57D0B4
:102A8400E02508F8906270E0A2E740F8E8C33390CC
:102A94006272F0906270E0D2E0F0906181E0A2E3B3
:102AA4005009E5E9A2E3500375E9F7A3E0A2E75072
:102AB40009E591A2E7500375917FEEA2E092AFD0B1
:102AC400F0D083D082D00BD00AD009D008D0E0FE59
:102AD400D0E0FDD0E0FCD0E0FBD0E0FAD0E0F9D0CB
:102AE400E0F8D0D0D0E032C0E0C0D0C082C0839043
:102AF4006183E0A2E05009E5BFA2E0500375BFFE88
:102B0400E0A2E15009E5BFA2E1500375BFFDE0A2D8
:102B1400E25009E5BFA2E2500375BFFBE0A2E35017
:102B240009E5BFA2E3500375BFF7E0A2E45009E54D
:102B3400BFA2E4500375BFEFE0A2E55009E5BFA2D0
:102B4400E5500375BFDFE0A2E65009E5BFA2E650F9
:102B54000375BFBFD083D0828088C0E0C0D0E8C0F6
:102B6400E0E9C0E0EAC0E0EBC0E0ECC0E0EDC0E0CA
:102B7400C0F0E5A7A2E6500FE5A1A2E6500953A7CD
:102B8400BF75A1BF122BC3E5A7A2E5500CE5A1A216
:102B9400E5500653A7DF75A1DFE5A7A2E15009E5DB
:102BA400A1A2E1500375A1FDE5A7A2E2500CE5A1A5
:102BB400A2E2500653A7FB75A1FBD0F0022AD474FD
:102BC400F812203C7521019006D1E06406701512BC
:102BD40018D98A828B83A3A3A3A3A3A3E0FAA3E0B7
:102BE400FB121939A2AFE433FED2AF9006D7E064EA
:102BF4000170187A207B009006D0E0F9120BE97A74
:102C0400207B009006D0E0F9120B5F906182E0D245
:102C1400E6F0900870E0602185C62280169006D602
:102C2400E064017008E5C654F84405F5C653BEFCDB
:102C34001229507401652160E4EEA2E092AF7F0195
:102C44000220E8008E238F24858228858327851817
:102C540082851983E0CEA3E0CF852882852783EB84
:102C6400C9EAC8EDCBECCA75F010C3E833C8E93340
:102C7400C9EA33CAEB33CBC3EA9EF526EB9FF525AD
:102C8400B35004AB25AA26EC33CCED33CDD5F0DA22
:102C9400AE23AF242274E912203C74F8121F798504
:102CA4001882851983ECF0A3EDF08A088B0990064D
:102CB400D1E024F7C394055006750801022E3012A2
:102CC40018D98A0A8B0BAE0AAF0BEE4F7003022E93
:102CD4002DAC08AD097402121FC4AA82AB83121969
:102CE400698E828F83A3A3750CFF750DFF750EFF8C
:102CF400750F00780C121E237402121FC47510FF86
:102D04007511FF7512FF7513007810121E23780CCD
:102D14007910121C48502A780C7910121DE8750895
:102D2400017509C8750A00750B007808790C121C26
:102D3400485052850C08850D09850E0A850F0B80B5
:102D4400507514017515C87516007517008510089F
:102D540085110985120A85130B7808790C121DE870
:102D640078147908121C48401C7508007509007510
:102D74000A00750B0178087910121DE87808790C9F
:102D8400121DAF800C750801750900750A00750BDA
:102D94000074097808121D90750C19F50DF50EF5DF
:102DA4000F7808790C121D078E828F83A3A3A3A327
:102DB400A3A3E0F8A3E0F97AD07B03121EEE880CFB
:102DC400890DE4F50EF50F7808790C121DAF740621
:102DD400121FC4E0F8A3E0F97AD07B03121EEEE8D8
:102DE400FA8A0CE4F50D7808790C121C485007781F
:102DF40008790C121DE89006D1E06408600AE064CA
:102E0400066005E06405702D750C0D780C790812C8
:102E14001C484021750CF4750DFF750EFF750FFFEE
:102E24007808790C121DAF800C75080075090075BF
:102E34000A00750B00851882851983E0F8A3E0F574
:102E44008388827808121E587408121F8F7F10021C
:102E540020E874F712203C12197B90086EE064019C
:102E64007010906245E4F0A3F053F4F343FE0C5366
:102E740090F3121927E5C654804449F5C6E59E54DB
:102E84007F644970F8906185740FF090086CE0F4E9
:102E94007002A3E0604E90086DE0600814601B149B
:102EA400602E804075080175090090086CE0780870
:102EB400121F66E508F45280802A7508017509001E
:102EC40090086CE07808121F66E508F452908014AC
:102ED40075080175090090086CE07808121F66E512
:102EE40008F452A079007F020220E874F712203C13
:102EF400E9FEEAFF74016E700C7A807B009006D0C4
:102F0400E0F9120B5990321CE493F46008E493F94D
:102F1400121777800953C680E59E547F70FA121900
:102F24002D90086EE06401700312178F90086CE016
:102F3400F47002A3E0604B90086DE0600814601A1E
:102F440014602C803D75080175090090086CE078C8
:102F540008121F66E508428080287508017509007B
:102F640090086CE07808121F66E50842908013759B
:102F7400080175090090086CE07808121F66E508DE
:102F840042A012197B1218D98A088B09A808A9092A
:102F9400E8496015E5E170FCE82414F582E93400A1
:102FA400F583E0F46003E0F5E174016F700A7A01DF
:102FB4009006D0E0F9120BB3022EEA74ED12203C15
:102FC4008A088B098C0A8D0B7413121FC4780C1297
:102FD4001E497808790C121C487510017511C875C2
:102FE400120075130050127808790C121DE878103D
:102FF4007908121C4850168010780C7908121DE8C4
:103004007810790C121C4840047901800279007F01
:103014000C0220E874ED12203C8A088B098C0A8D7E
:103024000B7413121FC4780C121E49780C79081201
:103034001C4840117808790C121DE8AA08AB09ACA9
:103044000AAD0B80227510007511007512007513FE
:10305400017810790C121DE878107908121DAFAAB6
:1030640010AB11AC12AD1380A68A828B837508FF56
:103074007509FF750AFF750B007808121E367F0468
:103084000220E874F512203C8C828D837808121E8D
:10309400498A828B837808121DFCEA2404F8EB34F5
:1030A40000F98C828D83A3A3A3A3E0FCA3E0FD8895
:1030B400828983C3E09CF0A3E09DF088828983C366
:1030C400E09420A3E0944E40268A828B837508FF07
:1030D4007509FF750AFF750BFF7808121DD58A82E2
:1030E4008B83A3A3A3A3E02420F0A3E0344EF00237
:1030F400306D74F512203CE9FE900826E0FAA3E056
:10310400FBEEC333F8E433F9743828F58274883954
:10311400F583E02AF508A3E03BF50978081221E3DA
:103124007A407B427C0F7D00122C487402121F8F60
:103134008A088B098C0A8D0B74107808121D77AAE3
:1031440008AB097F040220E874F112203C8A0C8B3E
:103154000D8C0E8D0F740F121FC4E0FAA3E0FB74E4
:1031640011121FC4E0F508A3E0F50978081221E361
:10317400EA2401F508EB3400F509E4F50AF50B78C7
:103184000C7908121C87750871750902780C790886
:10319400121C87AA0CAB0DAC0EAD0F122C48740296
:1031A400121F8F8B09EA450960047A0180027A00B4
:1031B400EC2AFCED3400FD7413121FC4E0F8A3E004
:1031C400F9E8FEE9FFECF8EDF97A717B02121EEEE4
:1031D400880889098E828F837808121E58ECF8EDCE
:1031E400F97A717B02121EEE8A088B09740578083D
:1031F400121F668E828F83A3A3A3A3E508F0A3E521
:1032040009F07F080220E8C082C083E9906000F0E2
:10321400D083D08222020135FFFFFFFFFFFFFFFFB3
:1032240074ED121FD0746C121F79120A697C007D30
:10323400007E007F007410121FC4ECF0A3EDF0A315
:10324400EEF0A3EFF0908B797808121E49741012F7
:103254001FC47808121C585014908BBD7808121E95
:10326400497410121FC47808121DD580D879001231
:103274000A6F7B017A017910120AC37906120AC90E
:10328400120ACFE9F5127B007A007900120AC31200
:103294000A87E9F50F120A93E9F50E120A9FE9F578
:1032A4000D120AABE9F50C7A7F7900120A3979001C
:1032B400120A577A687900120A39120A637C007D6F
:1032C400007E007F007410121FC4ECF0A3EDF0A385
:1032D400EEF0A3EFF0908BC57808121E497410121B
:1032E4001FC47808121C585014908BBD7808121E05
:1032F400497410121FC47808121DD580D8750801AE
:1033040078081221E775080078081221E779007C13
:10331400897D077A007B80120AE17402121F8FE90B
:1033240070030238AA7CC07D007A927B0A120AEDEF
:10333400E970030238A67903120A757912120A3F5A
:103344007904120A037901120A097903120A0F791E
:1033540003120A157903120AF37900120AF97900A3
:10336400120A8DA90E120A99A90D120AA5A90C1206
:103374000AB1750A00750B00750800E508C39404CA
:1033840040248508107511007402121FC4E0F879F6
:10339400002403F8E93400F9C3E51098E51199A273
:1033A400D265D033503A7452250AF582740B350B2A
:1033B400F583E0C0E0850810751100851882851931
:1033C40083E5822510F582E5833511F583D0E0F09D
:1033D4000508E50A2401F50AE50B3400F50B809B8A
:1033E40075090078091221E775090178091221E7A6
:1033F4007403121FC4E0F50978091221E77403125B
:103404001FC4E0F97405121FC4E0FC7D00740612A9
:103414001FC4AA82AB83120ADB7403121F8FE975DF
:103424000800E508C394044024850810751100744D
:1034340002121FC4E0F879002403F8E93400F9C348
:10344400E51098E51199A2D265D033503A7452250B
:103454000AF582740B350BF583E0C0E0850810751E
:103464001100851882851983E5822510F582E5838C
:103474003511F583D0E0F00508E50A2401F50AE5E5
:103484000B3400F50B809B75090078091221E77550
:10349400090178091221E77403121FC4E0F50978C1
:1034A400091221E77403121FC4E0F97405121FC442
:1034B400E0FC7D007406121FC4AA82AB83120ADBEF
:1034C4007403121F8FE9120A5D120A7B8A108B1192
:1034D400AE10AF11E510A9107414121FC4AA82AB68
:1034E40083120A817902120A21799C120A2D7950D9
:1034F400120A277900120A33120A5D7901120A515D
:103504007901120AB7120ABD750800E508C39404CC
:1035140040248508107511007402121FC4E0F87964
:10352400002403F8E93400F9C3E51098E51199A2E1
:10353400D265D033503A7452250AF582740B350B98
:10354400F583E0C0E085081075110085188285199F
:1035540083E5822510F582E5833511F583D0E0F00B
:103564000508E50A2401F50AE50B3400F50B809BF8
:1035740075090078091221E775090178091221E714
:103584007403121FC4E0F50978091221E7740312C9
:103594001FC4E0F97405121FC4E0FC7D0074061218
:1035A4001FC4AA82AB83120ADB7403121F8FE9754E
:1035B4000800E508C39404402485081075110074BC
:1035C40002121FC4E0F879002403F8E93400F9C3B7
:1035D400E51098E51199A2D265D033503A7452257A
:1035E4000AF582740B350BF583E0C0E0850810758D
:1035F4001100851882851983E5822510F582E583FB
:103604003511F583D0E0F00508E50A2401F50AE553
:103614000B3400F50B809B75090078091221E775BE
:10362400090178091221E77403121FC4E0F509782F
:10363400091221E77403121FC4E0F97405121FC4B0
:10364400E0FC7D007406121FC4AA82AB83120ADB5D
:103654007403121F8FE9750800E508C3940440241D
:103664008508107511007402121FC4E0F879002453
:1036740003F8E93400F9C3E51098E51199A2D2657D
:10368400D033503A7452250AF582740B350BF58306
:10369400E0C0E0850810751100851882851983E55E
:1036A400822510F582E5833511F583D0E0F0050815
:1036B400E50A2401F50AE50B3400F50B809B750936
:1036C4000078091221E775090178091221E77403CA
:1036D400121FC4E0F50978091221E77403121FC40C
:1036E400E0F97405121FC4E0FC7D007406121FC4C7
:1036F400AA82AB83120ADB7403121F8FE9120A7BBE
:103704008A108B11A810A911E8FEE9FFC3E89403FD
:10371400E9940040E8EEF97414121FC4AA82AB8342
:10372400120A81120A45E9F509750800E508C394EF
:103734000440248508107511007402121FC4E0F8B7
:1037440079002403F8E93400F9C3E51098E51199E8
:10375400A2D265D033503A7452250AF582740B35DF
:103764000BF583E0C0E0850810751100851882858B
:103774001983E5822510F582E5833511F583D0E0C0
:10378400F00508E50A2401F50AE50B3400F50B8081
:103794009B7401121FC4E0F51078101221E7740124
:1037A400121FC4E0F97403121FC4E0FC7D0074040A
:1037B400121FC4AA82AB83120AD57401121F8F127E
:1037C4000A7B8A108B11A810A911E8FEE9FFC3E84F
:1037D4009403E9940040E8EEF97414121FC4AA8219
:1037E400AB83120A81120A45E9F509750800E50858
:1037F400C3940440248508107511007402121FC478
:10380400E0F879002403F8E93400F9C3E51098E5F9
:103814001199A2D265D033503A7452250AF58274B4
:103824000B350BF583E0C0E0850810751100851891
:1038340082851983E5822510F582E5833511F583A8
:10384400D0E0F00508E50A2401F50AE50B3400F59B
:103854000B809B75100078101221E7751001781009
:103864001221E77403121FC4E0F51078101221E747
:103874007403121FC4E0F97405121FC4E0FC7D0038
:103884007406121FC4AA82AB83120ADB7403121FCC
:103894008FE97900120AB7120A5D120A45E9790024
:1038A40080067902800279017494121F8F7F0B02C3
:1038B40020A274F7121FD0EC4D70057901023981F2
:1038C4008C828D83E0F87900E4C8F98C828D83A31F
:1038D400E0FE7F00E82EF8E93FF98A828B83E8F066
:1038E400A3E9F08C828D83A3A3A3A3E0F87900E479
:1038F400C8F98C828D83A3A3A3A3A3E0FE7F00E871
:103904002EF8E93FF98A828B83A3A3E8F0A3E9F0B8
:103914008C828D83A3A3A3A3A3A3A3A3E0F879001C
:10392400E4C8F98C828D83A3A3A3A3A3A3A3A3A315
:10393400E0FE7F00E82EF8E93FF98A828B83A3A397
:10394400A3A3E8F0A3E9F0EC240CF582ED3400F530
:1039540083E0F87900E4C8F9EC240DF582ED340035
:10396400F583E0FE7F00E82EF8E93FF98A828B8335
:10397400A3A3A3A3A3A3E8F0A3E9F079007F010222
:1039840020A243FD0202013574F2121FD074EC121E
:103994001F798908E5089002ACF07C087D007A1F45
:1039A4007B001211C5E9F5097405121FC47401F0F6
:1039B400740E121FC47401F0A37400F07404121F77
:1039C400C47401F0740C121FC47450F0A37400F09A
:1039D400740A121FC47420F0A37403F07408121F35
:1039E400C47400F0A37400F07406121FC47458F079
:1039F400A37402F07405121FC4AC82AD8379017AFA
:103A0400057B03121081E9740E121FC4AC82AD83CE
:103A140079027A067B03121081E97C817D0B79158A
:103A24007A087B03121081E97C967D0B79077A076B
:103A34007B03121081E97404121FC4AC82AD837934
:103A4400017A107B03121081E9740C121FC4AC823A
:103A5400AD8379027A117B03121081E9740A121F73
:103A6400C4AC82AD8379027A127B03121081E974AB
:103A740008121FC4AC82AD8379027A137B0312103F
:103A840081E97406121FC4AC82AD8379027A147B77
:103A940003121081E97C9D7D0B7A04790012133F97
:103AA400E97E407F06EEFCEFFD7A067B001211C52D
:103AB400E9EEFCEFFD7A077B001211C5E9EEFCEF9D
:103AC400FD7A087B001211C5E9EEFCEFFD7A097B53
:103AD400001211C5E97A007B007C007D007410128D
:103AE4001FC4EAF0A3EBF0A3ECF0A3EDF07403120F
:103AF4001FC47401F07402121FC47401F074011223
:103B04001FC47400F08518828519837401F0741041
:103B1400121FC4AC82AD8379047A087B04120D5160
:103B2400E97403121FC4AC82AD8379017A007B046B
:103B3400120D51E97402121FC4AC82AD8379017A6B
:103B4400027B04120D51E97401121FC4AC82AD83CF
:103B540079017A037B04120D51E985188285198352
:103B6400AC82AD8379017A067B04120D51E9908B06
:103B74009D121E67121345E9908B9D121E67121445
:103B840053E9120D15E9908B9D121E67120FC7E9B8
:103B9400908B9D121E67120D27E9908B9D121E6754
:103BA400120F91E9908B9D121E67120CEBE97A00BB
:103BB4007903120F2BE9120EA17AB77B0B120FCDEA
:103BC400E9F50A7AB97B0B120D2DE9F50B7ABB7B6B
:103BD4000B120F97E9F50C7ABD7B0B120CF1E9F58A
:103BE4000D7ABF7B0B121093120C55790112154FED
:103BF400E97A017B009002ACE0F9120B59E97414E4
:103C0400121F8F7F060220A274F0121FD08909EAC6
:103C1400FEEBFFEE5400F8EF5480F9E8496032906F
:103C240002ACE0F9120B418A0C8B0DA80CA90D888B
:103C34000A890BE849600FAA0AAB0B120C67AA0A9F
:103C4400AB0B120B2FE9EE6400FAEF6480FB024227
:103C54009AEE5480601B9002E1E0600AC2AF75C91D
:103C6400AB75C95B80FEEE6480FAEF6400FB024230
:103C74009AEEA2E0501C7AB37B0B12108DE9F50882
:103C84007A277B03120D6FEE6401FAEF6400FB02E6
:103C9400429AEE5400F8EF5404F9E84960167C1097
:103CA4007D007AC77B02120CD9EE6400FAEF64043B
:103CB400FB02429AEE54027003023D489002AEE0C9
:103CC400605A120EF5E96402702F120CA3900BA532
:103CD400E024EDF50CA3E034FEF50DE4F50EF50F4C
:103CE400780C1221DF7A027B009002ACE0F9120B0F
:103CF400DD7404121F8FE98040120EF5E9703A1248
:103D04000EE3908BA51221F67A027B009002ACE0C0
:103D1400F9120BDD7404121F8FE9801D120EE97D68
:103D2400047C0079007A007BAA120CD37D017C000C
:103D340079017A007BAA120CD3EE6402FAEF6400D4
:103D4400FB02429AEE540460569002B0E0602B12DB
:103D54000C7F900BA3E0F50CA3E0F50DE4F50EF554
:103D64000F780C1221DF7A047B009002ACE0F91288
:103D74000BDD7404121F8FE9801A7D037C00790027
:103D84007A107BAA120CD37D017C0079017A107B16
:103D9400AA120CD3EE6404FAEF6400FB02429AEE1A
:103DA4005400F8EF5401F9E8497003023E8C900284
:103DB400B1E07003023E819002DDE064016008908E
:103DC40002DDE064027023908B851221F67A007B79
:103DD400019002ACE0F9120BDD7404121F8FE9EEBE
:103DE4006400FAEF6401FB02429A9002DD7403F06E
:103DF400120A7B9002E5EAF0A3EBF09002E5C082A0
:103E0400C083900BB1E0F8A3E0F9D083D082C3E083
:103E140098A3E0995023908B7D1221F67A007B01C0
:103E24009002ACE0F9120BDD7404121F8FE9EE640A
:103E340000FAEF6401FB02429A900BB1E0F8A3E0B0
:103E4400F9E8F97AE77B02120A817AE77B02120C1D
:103E540085900BADE0F50CA3E0F50DE4F50EF50F40
:103E6400780C1221DF7A007B019002ACE0F9120B8E
:103E7400DD7404121F8FE99002DD7400F0EE64001B
:103E8400FAEF6401FB02429AEE5400F8EF5408F989
:103E9400E849602C120C49E97901120AB7908B8128
:103EA4001221F67A007B019002ACE0F9120BDD746A
:103EB40004121F8FE9EE6400FAEF6408FB02429AD1
:103EC400EE5400F8EF5402F9E8497003023FE2901F
:103ED40002B2E064016003023FD79002DDE06401B6
:103EE40060089002DDE064037023908B851221F654
:103EF4007A007B029002ACE0F9120BDD7404121F0D
:103F04008FE9EE6400FAEF6402FB02429A9002DD4C
:103F14007402F09002E0E0700F9002DBE0FAA3E09C
:103F2400FB7900120C8B801D9002DBE0FAA3E0FB0E
:103F3400EA2401F8EB3400F99002DBE8F0A3E9F09D
:103F44007901120C8B9002E0E07020908B85122195
:103F5400F67A007B029002ACE0F9120BDD740412D5
:103F64001F8FE99002E07401F080689002DBC3E0E7
:103F7400940EA3E09400A2D265D03340389002DDC1
:103F84007400F09002DB7400F0A37400F0900BAFA7
:103F9400E0F50CA3E0F50DE4F50EF50F780C122115
:103FA400DF7A007B029002ACE0F9120BDD7404129C
:103FB4001F8FE98018908B951221F67A007B02906E
:103FC40002ACE0F9120BDD7404121F8FE99002E0D9
:103FD4007400F0EE6400FAEF6402FB02429AEE54BD
:103FE4000870030240BC9002B4E070030240979052
:103FF40002DDE0640360089002DDE0640270239057
:104004008B851221F67A087B009002ACE0F9120B42
:10401400DD7404121F8FE9EE6408FAEF6400FB02FA
:10402400429A9002DD7401F09002DFE0F9120EA7CB
:10403400E9F5089002DFE064027037120C979002F1
:10404400DF7400F09002DD7400F0900BA7E0F50C33
:10405400A3E0F50DE4F50EF50F780C1221DF7A08D4
:104064007B009002ACE0F9120BDD7404121F8FE99F
:10407400803B9002DFE02401F0908BA11221F67ABC
:10408400087B009002ACE0F9120BDD7404121F8F60
:10409400E9801A7D047C0079007A207BAA120CD373
:1040A4007D017C0079017A207BAA120CD3EE64088E
:1040B400FAEF6400FB02429AEE5410606C9002AF77
:1040C400E0603E120F3DE964027005120C91800914
:1040D400120F3DE97003120F43900BA1E0F50CA3FE
:1040E400E0F50DE4F50EF50F780C1221DF7A107B64
:1040F400009002ACE0F9120BDD7404121F8FE9800A
:104104001D120F497D067C0079007A307BAA120CBF
:10411400D37D017C0079017A307BAA120CD3EE6442
:1041240010FAEF6400FB02429AEE5420700302413D
:10413400C79002B3E0605A9002DEE060319002DE84
:104144007400F0120C9D900BA9E0F50CA3E0F50DA2
:10415400E4F50EF50F780C1221DF7A207B00900233
:10416400ACE0F9120BDD7404121F8FE9804A90024F
:10417400DE7401F0120E35908BB51221F67A207B95
:10418400009002ACE0F9120BDD7404121F8FE98079
:10419400277D047C0079007A407BAA120CD37D0130
:1041A4007C0079017A407BAA120CD37D107C0079C3
:1041B400037A407BAA120CD3EE6420FAEF6400FB6E
:1041C40002429AEE54407003024296120E8FE9F5B1
:1041D400089002B5E0700302426FE5087026900271
:1041E400E2E0F9120E95120E77908BC11221F67A45
:1041F400407B009002ACE0F9120BDD7404121F8FB7
:10420400E902428C9002E3E0600E9002E2E0F912CF
:104214000E959002E37400F074026508702F120C7E
:10422400A9900BABE024C4F50CA3E034FFF50DE436
:10423400F50EF50F780C1221DF7A407B009002AC6A
:10424400E0F9120BDD7404121F8FE9803B120E8912
:10425400E9908BC11221F67A407B009002ACE0F920
:10426400120BDD7404121F8FE9801D120E7D7D0672
:104274007C0079007A507BAA120CD37D017C0079F2
:10428400017A507BAA120CD3EE6440FAEF6400FB6F
:1042940080047A007B007F080220A274F7121FD0EA
:1042A400EAFEEBFF8E828F83E064C070148E828FEF
:1042B40083A3A3A3E0FA8E828F83A3A3E0F9120C55
:1042C4006D7F010220A274F7121FD074FC121F79B3
:1042D400E9FEEAFF8518828519837400F0EFA2E0F5
:1042E400400302438B9002E17401F0908BB91221D8
:1042F400F67A807B009002ACE0F9120BDD740412B4
:104304001F8FE99002E4E0706F9002ADE0640560F5
:104314003E7403121FC4AC82AD837A057B03121072
:1043240087E97403121FC4E0700A7401121FC47475
:1043340001F080087401121FC47400F07401121F8C
:10434400C4AC82AD8379017A057B03121081E990B4
:1043540002ADE0640570307402121FC47401F012DF
:104364001099E97402121FC4AC82AD8379017A05F5
:104374007B03121081E9800FEFA2E0500A851882B6
:10438400851983E0D2E2F0EFA2E1500A8518828514
:104394001983E0D2E0F0EFA2E2500A851882851971
:1043A40083E0D2E1F0EFA2E040069002E17400F075
:1043B400851882851983AC82AD837A017900121045
:1043C400CFE97404121F8F7F010220A2C082C08330
:1043D4009002B1E060069002B17400F09002B4E083
:1043E4006009120EA19002B47400F09002B2E06071
:1043F400069002B27400F0D083D08202013574F4C6
:10440400121FD074E2121F79E9FEEE1460161470C4
:10441400030245BB1470030245D824FE7003024511
:10442400C50245DB851882851983AC82AD837A0485
:104434007B03121087E975080875090078081221B2
:10444400E37402121FC4AC82AD837418121FC4AA91
:1044540082AB83120B057402121F8F7405121FC4E2
:10446400E0C0E07407121FC4D0E0F07404121FC44B
:10447400E0C0E07406121FC4D0E0F07403121FC43D
:10448400E0C0E07405121FC4D0E0F07404121FC42D
:104494007400F07403121FC47400F0851882851927
:1044A40083AC82AD837A087900120D1BE9908C44A9
:1044B400C082C0837408121FC4AC82AD83D083D081
:1044C40082740E121E8C7F00750905E509C39400E1
:1044D400A2D265D03350030245A8E509F83395E02C
:1044E400F97416121FC4E58228F582E58339F58331
:1044F400E0F508E508C3940A506B7C427D8CEFF824
:104504007900E875F002A4C8AAF075F000A42AFAAC
:1045140075F002E9A42AF97408121FC4E58228FA86
:10452400E58339FB121C277910EFFA7B00EA75F05A
:1045340002A4CAA8F075F000A428F875F002EBA450
:1045440028FB7408121FC4E5822AF582E5833BF533
:1045540083A3AC82AD8385080A750B00AA0AAB0B52
:10456400120C0D80357910EFFA7B00EA75F002A485
:10457400CAA8F075F000A428F875F002EBA428FB93
:104584007408121FC4E5822AFCE5833BFD85080AF2
:10459400750B00AA0AAB0B120C0D0F74FF2509F55D
:1045A400090244CF7408121FC4AC82AD837A0C791B
:1045B40002120D1BE980207A017901120F2BE98088
:1045C400167A007901120F2BE99002DD7400F012C3
:1045D4000CAF8003120C73EE9002ADF0741E121F28
:1045E4008F7F040220A2C082C08374FD121F7985CC
:1045F4001882851983AA82AB83120E29E960128579
:104604001882851983AC82AD837A037900120CDF9A
:10461400E97403121F8FD083D08202013574F4121F
:104624001FD074D1121F79EAFEEBFF851882851919
:104634008385820885830978081221E37404121F94
:10464400C4AC82AD837406121FC4AA82AB83120A5F
:104654004B7402121F8FEEFCEFFD7406121FC4AAE6
:1046640082AB83120C4FE97404121FC4E0F508A353
:10467400E0F50974087808121F47E508740F121F43
:10468400C4E508F07404121FC4E0F8A3E0F9E8C01C
:10469400E0740E121FC4D0E0F07402121FC4E0F5DF
:1046A40008A3E0F50974087808121F47E508741197
:1046B400121FC4E508F07402121FC4E0F8A3E0F965
:1046C400E8C0E07410121FC4D0E0F0851882851988
:1046D40083E0F508A3E0F50974087808121F47E59C
:1046E400087413121FC4E508F0851882851983E045
:1046F400F8A3E0F9E8C0E07412121FC4D0E0F0742B
:1047040008121FC4E0F8A3E0F9E8C0E07415121F12
:10471400C4D0E0F07406121FC4E0F8A3E0F9E8C0C6
:10472400E07414121FC4D0E0F0740C121FC4E0F83B
:10473400A3E0F9E8C0E07417121FC4D0E0F0740AD3
:10474400121FC4E0F8A3E0F9E8C0E07416121FC415
:10475400D0E0F07410121FC4E0F8A3E0F9E8C0E060
:104764007419121FC4D0E0F0740E121FC4E0F8A331
:10477400E0F9E8C0E07418121FC4D0E0F074141219
:104784001FC4E0F8A3E0F9E8C0E0741B121FC4D012
:10479400E0F07412121FC4E0F8A3E0F9E8C0E0747A
:1047A4001A121FC4D0E0F0741C121FC474AAF0744F
:1047B4001D121FC474BBF0741E121FC474AAF075BA
:1047C400080E75090078081221E37410121FC4AC96
:1047D40082AD837421121FC4AA82AB83120B0574A9
:1047E40002121F8F8A0A8B0B850A08850B09742D08
:1047F400121FC4740DF0742E121FC4740AF07C13BB
:104804007D00741C121FC4AA82AB83120CD9742FAE
:10481400121F8F7F040220A274F0121FD0748C1216
:104824001F79890B8A08908AB6C082C083740412E7
:104834001FC4AC82AD83D083D0827408121E8C90C6
:104844008ABEC082C083746C121FC4AC82AD83D094
:1048540083D0827408121E8C908AC6C082C083746E
:1048640064121FC4AC82AD83D083D0827408121E3C
:104874008C908ACEC082C083745C121FC4AC82AD9B
:1048840083D083D0827408121E8C908AD6C082C0D2
:10489400837454121FC4AC82AD83D083D082740855
:1048A400121E8C908ADEC082C083744C121FC4AC6A
:1048B40082AD83D083D0827408121E8C908AE6C0A5
:1048C40082C0837444121FC4AC82AD83D083D0826F
:1048D4007408121E8C908B2EC082C083743C121FED
:1048E400C4AC82AD83D083D0827408121E8C908AAB
:1048F400F6C082C0837434121FC4AC82AD83D083EB
:10490400D0827408121E8C908AFEC082C083742CDC
:10491400121FC4AC82AD83D083D0827408121E8C63
:10492400908B06C082C0837424121FC4AC82AD83F2
:10493400D083D0827408121E8C908B0EC082C083E8
:10494400741C121FC4AC82AD83D083D0827408124D
:104954001E8C908B16C082C0837414121FC4AC8248
:10496400AD83D083D0827408121E8C908B1EC082BB
:10497400C083740C121FC4AC82AD83D083D0827404
:1049840008121E8C7404121FC4AE82AF83E5086043
:104994003914604214604B14605414605C146064F5
:1049A40014606C14607414607C147003024A341430
:1049B4007003024A3F147003024A4A147003024A05
:1049C40055147003024A60024A6B7404121FC4AE89
:1049D40082AF83024A74746C121FC4AE82AF830226
:1049E4004A747464121FC4AE82AF83024A74745C46
:1049F400121FC4AE82AF8380777454121FC4AE8278
:104A0400AF83806C744C121FC4AE82AF8380617418
:104A140044121FC4AE82AF838056743C121FC4AECE
:104A240082AF83804B7434121FC4AE82AF83804044
:104A3400742C121FC4AE82AF8380357424121FC439
:104A4400AE82AF83802A741C121FC4AE82AF8380EF
:104A54001F7414121FC4AE82AF838014740C121F0F
:104A6400C4AE82AF8380097404121FC4AE82AF83C4
:104A7400E50B7015120C25E9EEFAEFFB120C437AE4
:104A8400017944120C37024C24120C25E9EEFAEF9A
:104A9400FB120C437A0079BE120C37120C3DE9F577
:104AA40009120C3DE9F50AE5086003024B52900235
:104AB400DA7400F07C247D0079FF7AB67B02120B55
:104AC4001D9002DAE0F8790074B628F58274023990
:104AD400F58374AAF09002DAE02401F09002DAE09F
:104AE400F8790074B628F582740239F58374BBF042
:104AF4009002DAE02401F09002DAE0F8790074B66A
:104B040028F582740239F58374BBF09002DAE0244C
:104B140001F0E5099002DAE0F8790074B628F5822C
:104B2400740239F583E509F09002DAE02401F0E536
:104B34000A9002DAE0F8790074B628F58274023932
:104B4400F583E50AF09002DAE02401F0803AE50901
:104B54009002DAE0F8790074B628F582740239F527
:104B640083E509F09002DAE02401F0E50A9002DA24
:104B7400E0F8790074B628F582740239F583E50A01
:104B8400F09002DAE02401F0740D65086003024C31
:104B9400249002DAE0F8790074B628F582740239B8
:104BA400F58374FFF09002DAE02401F09002DAE079
:104BB400F8790074B628F582740239F58374FFF02D
:104BC4009002DAE02401F07C117D007AB67B0212B7
:104BD4000CD97A007B007C007D00851882851983BE
:104BE400EAF0A3EBF0A3ECF0A3EDF0908B85780C46
:104BF400121E49851882851983780C121C58501589
:104C0400908BBD780C121E49851882851983780C07
:104C1400121DD580D67C107D007AC77B02120CD978
:104C24007474121F8F7F080220A2C082C08374FA9A
:104C3400121F79851882851983AA82AB83120F4FBC
:104C4400E96012851882851983AC82AD837A06796E
:104C540000120FC1E97406121F8FD083D0820201A3
:104C640035C082C08374F5121F797407121FC4AA59
:104C740082AB83120EADE9605C851882851983745A
:104C8400AAF07401121FC474BBF07402121FC4741E
:104C9400CCF07409121FC4E0C0E07403121FC4D026
:104CA400E0F0740A121FC4E0C0E07404121FC4D000
:104CB400E0F07405121FC474FFF07406121FC4746C
:104CC400FFF07C077D00851882851983AA82AB8357
:104CD400120CD9804A85188285198374AAF074014C
:104CE400121FC474BBF07402121FC474CCF074039A
:104CF400121FC47476F07404121FC47476F0740521
:104D0400121FC474FFF07406121FC474FFF07C07F2
:104D14007D00851882851983AA82AB83120CD9740D
:104D24000B121F8FD083D082020135C082C08374DE
:104D3400FC121F79851882851983AA82AB83120E0F
:104D44003BE96012851882851983AC82AD837A04AD
:104D54007900120CE5E97404121F8FD083D082020B
:104D64000135C082C08374FC121F798518828519AD
:104D740083AA82AB83120EEFE9601285188285192B
:104D840083AC82AD837A047900120FBBE9740412F8
:104D94001F8FD083D082020135C082C08374FA127F
:104DA4001F79851882851983AA82AB83120E83E941
:104DB4006012851882851983AC82AD837A067900E6
:104DC400120E23E97406121F8FD083D0820201359C
:104DD400C082C0839002B1E070219002B17401F0EE
:104DE4001209FD908B891221F67A007B089002AC9F
:104DF400E0F9120BDD7404121F8FE9D083D0820214
:104E0400013574F7121FD074FF121F79E9FE146084
:104E1400051460598061851882851983AA82AB8341
:104E24007901120FD3E9851882851983E0701B90EC
:104E340002B1E060429002B17400F07A007B01900C
:104E440002ACE0F9120B59E9802D9002B1E0700D2B
:104E54007A007B019002ACE0F9120B59E9851882C3
:104E6400851983E09002B1F01209FD800A7AAD7BC6
:104E74000B7902120FD3E97401121F8F7F010220F4
:104E8400A274F7121FD074FF121F79E9FE14600593
:104E940014605C8064851882851983AA82AB837947
:104EA40001120D33E9851882851983E0701B900285
:104EB400B2E060459002B27400F07A007B02900286
:104EC400ACE0F9120B59E98030851882851983E02A
:104ED400640170259002B2E0701F9002B27401F078
:104EE4007A007B029002ACE0F9120B59E9800A7A4D
:104EF400AF7B0B7902120D33E97401121F8F7F010E
:104F04000220A274F7121FD074FF121F79E9FE1455
:104F140060051460608068851882851983AA82AB55
:104F2400837901120FA3E9851882851983E070192A
:104F34009002B4E060139002B47400F07A087B002D
:104F44009002ACE0F9120B59E9851882851983E0C7
:104F54006401702B9002B4E070259002B47401F0E7
:104F64009002DF7400F07A087B009002ACE0F91242
:104F74000B59E9800A7AA77B0B7902120FA3E97413
:104F840001121F8F7F010220A274F0121FD074F847
:104F9400121F79890A7401650A600302504C85184E
:104FA40082851983AA82AB837901120CFDE98518E5
:104FB40082851983E0FA7B007401121FC4E0F8793A
:104FC40000E4C8F9EA28F8EB39F9E8FEE9FF7402CD
:104FD400121FC4E0FA7B007403121FC4E0F87900C6
:104FE400E4C8F9EA28F8EB39F98808890974041245
:104FF4001FC4E0FA7B007405121FC4E0F87900E4D2
:10500400C8F9EA28F8EB39F9880E890F7406121FDB
:10501400C4E0FA7B007407121FC4E0F87900E4C806
:10502400F9EA28F8EB39F9880C890D780C1221E398
:10503400780E1221E37902AC08AD09EEFAEFFB1207
:1050440010C97404121F8FE97402650A70041210E7
:1050540099E97408121F8F7F080220A274F4121FAA
:10506400D074FA121F79EAFEEBFF8C088D097412D2
:10507400121FC4E0F50AA3E0F50BEE85188285192A
:1050840083F0EEF8EFF9E4E9F8C0E07401121FC40C
:10509400D0E0F0E5087402121FC4E508F0A808A9DE
:1050A40009E4E509A809E5097403121FC4E509F038
:1050B400E50A7404121FC4E50AF0A80AA90BE4E582
:1050C4000BA80BE50B7405121FC4E50BF0851882C1
:1050D400851983AC82AD837A067900120CF7E974E2
:1050E40006121F8F7F040220A274F0121FD08A0AB6
:1050F4008B0B89088C0C8D0985090E750F00AA0E7F
:10510400AB0F120B9B8A0E8B0FAE0EAF0FEE4F70D0
:10511400030251AD85090E750F00AC0EAD0FA90C3D
:10512400EEFAEFFB120B1D850A0E850B0F780E129B
:10513400226D0000060000AA545110AA625120AA50
:105144007E5130AA705140AA8C5150AA9A51A6514E
:10515400EEFCEFFDAA09A908120FBBE98044EEFC9E
:10516400EFFDAA09A908120CDFE98036EEFCEFFD79
:10517400AA09A908120FC1E98028EEFCEFFDAA09CB
:10518400A908120F9DE9801AEEFCEFFDAA09A908EF
:10519400120CE5E9800CEEFCEFFDAA09A908120E39
:1051A40023E9EEFAEFFB120BA17F080220A274F3AD
:1051B400121FD08A088B09ECFEEDFFC3EE9415EFA5
:1051C40094004005750C148003EEF50C90032B74C9
:1051D4002EF0A37400F0E50C90032DF0850C0A75F5
:1051E4000B00780A1221E3AC08AD097A2E7B031276
:1051F4000B057402121F8F79007C2B7D037A007BD0
:105204000012139FE97F050220A274EE121FD074CE
:10521400FA121F798A0A8B0B8909ECFEEDFF7508D7
:1052240000850A0C850B0D780C122227000410E768
:1052340054575278529752B852D952FA522D534E6B
:105244005365539353515472549254BC54E754E7E6
:1052540054BE537401650970158E828F83E0C39424
:1052640003500B8E828F83E0900EBEF0800375088E
:10527400180255107402650970138E828F83E0F84A
:10528400A3E0F9900EBFE8F0A3E9F08003750818D5
:105294000255107401650970158E828F83E0C394E2
:1052A40002500B8E828F83E0900398F08003750880
:1052B400180255107401650970158E828F83E0C33E
:1052C4009405500B8E828F83E0900399F0800375D0
:1052D40008180255107401650970158E828F83E0D9
:1052E400C39402500B8E828F83E090039AF0800364
:1052F400750818025510741065097027750C10751F
:105304000D00780C1221E3EEFCEFFD7A9B7B031277
:105314000B057402121F8F8A0C8B0D850C82850D70
:105324008380037508180255107401650970158E81
:10533400828F83E0C39402500B8E828F83E09003AC
:10534400ABF0800375081802551074016509700BE1
:105354008E828F83E0900EC2F08003750818025588
:1053640010740465097022908BA9780C121E498E62
:10537400828F83780C121C58500F8E828F83121EDA
:10538400679003AD121E738003750818025510E56B
:10539400097021121327E97013120DC9E9F50C796C
:1053A4005012107BE9F50D120DB7800B9004407478
:1053B40001F080037508180255107407650960032D
:1053C40002544B750E06750F00780E1221E38E827F
:1053D4008F83A3AC82AD837402121FC4AA82AB83F1
:1053E400120B0B7402121F8F8A108B1185100E85FD
:1053F400110F7C007D00851882851983AA82AB83F6
:105404008E828F83E0F9120D5DE9F50CE50CC394EF
:105414000A502F121327E97015A90C120DCFE9F5C4
:105424000D795012107BE9F50E120DB7801C750D25
:10543400007441250CF5827404350DF5837401F074
:1054440080087508028003750818025510740165F8
:105454000970158E828F83E0C39402500B8E828F65
:1054640083E09003ACF080037508180255107401B2
:10547400650970158E828F83E0C3940A500B8E8267
:105484008F83E0900EC1F08003750818807E74014C
:105494006509701F8E828F83E0C3940740158E8246
:1054A4008F83E0C39411500B8E828F83E0900EC3E0
:1054B400F0805975081880547401650970209004AF
:1054C4003FE0F50C8E828F83E090043FF0E50C7092
:1054D4003B90043FE064017033120DB7802E7508D1
:1054E400188029C3E50A9427E50B9400501B740225
:1054F400650970158E828F83E0FCA3E0FDAA0AABD8
:105504000B1211C5E9F5088003750802A908740691
:10551400121F8F7F0A0220A274EC121FD074DA12B9
:105524001F79890D8A128B138C0A8D0B743A121F02
:10553400C4E0F50C908B68C082C0838518828519FD
:1055440083AC82AD83D083D0827406121E8C8518FE
:1055540082851983AC82AD83AA12AB13A90D120DF7
:105564005DE9FEEEC3940A40030256BBEEF9120D48
:1055740099E9FF900EBEE064027004740180027425
:1055840000F50878081221E7AD0CEFFCEEF9AA0A41
:10559400AB0B120E0B7401121F8F7C147D0079006B
:1055A4007412121FC4AA82AB83120B1D8A0E8B0FB6
:1055B400850E08850F097412121FC4AC82AD837A5C
:1055C4001075F006EEA42424F9121075E970437CDA
:1055D4001079FF7412121FC4AA82AB83120B7DE9E7
:1055E40070307422121FC4AC82AD837A0475F00645
:1055F400EEA42425F9121075E9F5087412121FC4DB
:10560400AC82AD83EFA2E0E433F9AA0AAB0B121229
:105614004FE97406121FC4AC82AD837A0C74702EE9
:10562400F9121075E9707E7406121FC4AA82AB8346
:10563400120D8D750E00E50EC394045068E50EA896
:105644000E7900E875F003A4C8AAF075F000A42A46
:10565400FA75F003E9A42AF97406121FC4E5822836
:10566400F508E58339F509850882850983E0F8A3FF
:10567400E0F9E849602B850882850983A3A3E0F556
:105684001075110078101221E3850882850983E0E2
:10569400FCA3E0FDAA0AAB0B1214B37402121F8F11
:1056A400E9050E8091EFA2E1500D900397E0F9AA6D
:1056B4000AAB0B1214B9E97404650C700F900EBE9A
:1056C400E064027007AA0AAB0B120E057900742677
:1056D400121F8F7F0C0220A274F2121FD0890BEAD2
:1056E400FEEBFF8C088D09750A0AE50B600C14604B
:1056F40009146044146064025780EEFAEFFB120D43
:10570400ABE9F50AE50AC3940A5071E50845096056
:105714006B750C06750D00780C1221E3EEFCEFFDA1
:10572400AA08AB09120B057402121F8F8A0C8B0D89
:10573400850C82850D838044EEFAEFFB120DA5E9FA
:10574400F50AE50AC3940A5033E5084509602DAA11
:1057540008AB09A90A120D9FE98021EEFAEFFB12AA
:105764000DB1E9F50AE50AC3940A5010E5084509A4
:10577400600AAA08AB09A90A120D9FE9A90A7F06C3
:105784000220A274F2121FD08A0C8B0DE9FE7F1541
:1057940074FF650C700474FF650D702A750800E5CC
:1057A40008C3940A5014EEFC7A027B00A908120D77
:1057B4007BE960027F00050880E5EE60637AF37B95
:1057C4000D1216B7805AAA0CAB0D1216998A0A8BC1
:1057D4000B850A08850B09E508450960417C007DB5
:1057E40000E5082405FAE5093400FB8508828509EB
:1057F40083A3A3A3A3E0F9120D5DE9F50AE50AC3A7
:10580400940A500EEEFC7A027B00A90A120D7BE981
:105814007F00EE600BAA08AB09120DF380027F141F
:10582400EFF97F060220A274EE121FD08A0E8B0FAE
:105834008C0A8D0B7412121FC4E0F50CA3E0F50D55
:1058440075081574FF650E700474FF650F701E7E75
:1058540000EEC3940A5062AC0CAD0DAA0AAB0BEE79
:10586400F9120D81E960037508000E80E4AA0EABFD
:105874000F1216998A108B11AE10AF11EE4F6036CD
:105884007C007D00EE2405FAEF3400FB8E828F83CA
:10589400A3A3A3A3E0F9120D5DE9F509E509C394F7
:1058A4000A5016AC0CAD0DAA0AAB0BA909120D8156
:1058B400E97508008003750814A9087F0A0220A26C
:1058C40074F7121FD0EAFEEBFF9003B1EEF0A3EFE2
:1058D400F0900397E0FC7D007A267B001211C5E965
:1058E400F508900397E0F912142F7F010220A274A7
:1058F400F2121FD074EC121F798A0A8B0B850A826C
:10590400850B83A3A3E024FA7003025D5324FD7086
:1059140003025BC91470030259E614601024FD707D
:1059240003025B71147003025C09025DC1AE0AAF2D
:105934000B9003B1E0F8A3E0F9E84960699003B182
:10594400E0F8A3E0F5838882E0F8A3E0F9E8496091
:1059540055EE240CF582EF3400F583E0F508780861
:105964001221E7EE240BF582EF3400F583E0F98E83
:10597400828F83A3A3A3A3A3A3A3A3A3E0FCA3E075
:10598400FDEE2403FAEF3400FB9003B1E0F8A3E04A
:10599400F5838882E0F8A3E0F5838882121FCE7431
:1059A40001121F8F80398E828F83A3A3A3A3A3A385
:1059B400A3A3A31221FA9003AD121E6712126174FD
:1059C40002121F8FE9601879018E828F83A3A3A32B
:1059D400A3A3A3A3A3A3E0FAA3E0FB12125BE9022F
:1059E4005DC1AE0AAF0B8E828F83A3E06003025BBE
:1059F4001F8E828F83A3A3A3A3A3E0A2E04003028C
:105A04005B1F90044BE0F8A3E0F9E8496003025BF4
:105A14001F7C0E7D007900851882851983AA82ABCC
:105A240083120B1D8A088B09AA08AB09EE240CF516
:105A340082EF3400F583E0F8A3E0F9E849603B75B0
:105A4400080675090078081221E3EE240CF582EFAC
:105A54003400F583E02410FCA3E03400FD7402124A
:105A64001FC4AA82AB83120B057402121F8F8A080B
:105A74008B0985088285098380548E828F83A3A332
:105A8400A3E0FAA3E0FB1216998A0C8B0D850C088F
:105A9400850D09E50845096032750C06750D007819
:105AA4000C1221E3E5082405FCE5093400FD740229
:105AB400121FC4AA82AB83120B057402121F8F8AB1
:105AC4000C8B0D850C82850D838003025DC18E8253
:105AD4008F83A3A3A3A3A3E0A2E25004D2F0800285
:105AE400C2F0A2F0E433F87900740C121FC4E04849
:105AF400F0A3E049F0EEFCEFFD851882851983AA36
:105B040082AB83120D93E970127A027B00900397A3
:105B1400E0F9120B59E97900025DC39003B1E0F892
:105B2400A3E0F9E84960439003B1E0F8A3E0F5830A
