:020000040000FA
:0600000002011D022A733B
:03002B000223337A
:0300330002230B9A
:03005300022AE698
:03006B000222B2BC
:03007B000222DA84
:100083000228DFE5C754F84401F5C77901220000CF
:100093000080FB120086B90003020107E47921788E
:1000A30008B800028004F709D8FCE479297802B87B
:1000B30000028004F709D8FCE490028178F2790801
:1000C3008002F0A3D8FCD9FA781A90014D7A01BACC
:1000D30000028007E493A3F608DAF9900A72AA8271
:1000E300AB8390014E78D179088015E493A3AC8259
:1000F300AD838A828B83F0A3AA82AB838C828D83A8
:10010300D8E9D9E77582CB7583A3740412012F75DF
:100113008291758300740012012F75D00075813FA1
:10012300751881751902759F00020096C09FF59F8F
:10013300E473D09F22D083D082C09FE493C0E07445
:100143000193C0E0740293F59F22013C09420948E0
:10015300094E0954095A09600966096C097209783C
:10016300097E0984098A099009960968FFFF037BC0
:10017300034CCD6C03AB0336567600680402CB47C1
:10018300A202180400058BC1010C04000000000347
:100193007F060CC92C979797038903264666006C44
:1001A300022000024004000000000244040000009A
:1001B3000002480400000000024C0400000000029A
:1001C3005004000000000254040000000002580420
:1001D30000000000025C040000000002BC040000F8
:1001E300000001EC0400004000037F060CC92C97BB
:1001F30097970402030D355D040904872D353D00EF
:10020300A3010000000001078601FE074105F1205C
:10021300283038077E01300746019A074704F12842
:100223003038076C04F1283038021602000101B29D
:1002330002FFFF0190040923A135016A02060001B0
:10024300600800000000000000000060044000009F
:10025300000162020000006004004000000B095628
:10026300756C7475726545676705122F013F01024E
:100273000A000201061302454501020304050607AD
:1002830008090A0B0C0D0E0F1045676700D00770A5
:10029300110100E803E803D00760EA2A00180C0004
:1002A30000420C4E0C540C5A0C12416363656C2EC5
:1002B3002044617461000A416363656C2E20436FBF
:1002C3006E662E000A0A416363656C2E20506572C8
:1002D300696F640002F78B010000CD8B02F38B0181
:1002E3000000D00B10488A010000500302158C0354
:1002F3000000530302EF8B010000D10B02F38B01CB
:100303000000DD0B10588A030000590302EF8B0134
:100313000000DE0B02F38B010000EB0B1068890376
:100323000000EC0B02EF8B010000ED0B1242617237
:100333006F6D2E2044617461000A4261726F6D2EED
:1003430020436F6E662E00024261726F6D2E204352
:10035300616C6962722E000A0A4261726F6D2E200F
:10036300506572696F640002F78B010000BB8B025A
:10037300F38B010000530C1028890100005A03027B
:10038300158C0300005E0302EF8B010000540C0286
:10039300F38B010000600C10188903000064030252
:1003A300EF8B010000610C02F38B0100007E0C1047
:1003B300F8880300007F0C02EF8B010000800C0221
:1003C300F38B0100006E0C10088901000065030225
:1003D300158C030000750302EF8B0100006F0C12F4
:1003E300436F6E6E2E20506172616D730008436F10
:1003F3006E6E2E20506172616D732052657100081C
:10040300446973636F6E6E65637420526571000295
:10041300F78B010000C48B02F38B010000060D1063
:10042300C8880100007D0302158C030000830302CA
:10043300EF8B010000070D02F38B010000140D1078
:10044300B888020000890302EF8B010000150D023A
:10045300F38B010000260D10A8880200009103020F
:10046300EF8B010000270D0202023132333435369F
:1004730037383930313200020202020202010D0024
:100483000000100102F78B010000D68B02F38B01F1
:1004930000008E0D02098C010000920302F38B0110
:1004A30000008F0D02F18B0100002E8B02F38B01F4
:1004B3000000900D02ED8B010000910D02F38B0102
:1004C30000009F0D02E78B010000CE8A02F38B012F
:1004D3000000A00D02768A010000378B02F38B0126
:1004E30000009E0D02058C010000288B02F38B0196
:1004F3000000A10D02078C010000D98702F38B01D4
:100503000000A20D020B8C010000688A02F38B012C
:100513000000A30D020D8C010000A40D01E80305EA
:100523003F100A124779726F2044617461000A47D1
:1005330079726F20436F6E662E000A0A4779726FD5
:1005430020506572696F640002F78B010000C78B4E
:1005530002F38B0100004A0E103888010000540496
:1005630002158C0300005A0402EF8B0100004B0EAE
:1005730002F38B010000550E10488803000060044D
:1005830002EF8B010000560E02F38B010000610E97
:10059300105888030000620E02EF8B010000630E07
:1005A300010361801248756D69642E204461746192
:1005B300000A48756D69642E20436F6E662E000A2B
:1005C300D00748756D69642E20506572696F6400A9
:1005D30002F78B010000CA8B02F38B010000CB0EE4
:1005E300103889010000C20402158C030000C60400
:1005F30002EF8B010000CC0E02F38B010000D80E3A
:10060300109888030000CC0402EF8B010000D90E80
:1006130002F38B010000E60E10E888030000E70EEA
:1006230002EF8B010000E90E01481254656D702E34
:100633002044617461000A54656D702E20436F6E0F
:10064300662E000A1E54656D702E20506572696F08
:10065300640002F78B010000DC8B02F38B010000C6
:10066300510F10188A010000CE0402158C030000FC
:10067300D20402EF8B010000520F02F38B01000042
:100683005D0F10088A030000D80402EF8B010000FD
:100693005E0F02F38B0100006A0F10F8890300005C
:1006A3006B0F02EF8B0100006C0F124D61676E2E12
:1006B3002044617461000A4D61676E2E20436F6EA2
:1006C300662E000A0A4D61676E2E20506572696FAF
:1006D300640002F78B010000D98B02F38B01000049
:1006E300D10F10D889010000D90402158C03000032
:1006F300DF0402EF8B010000D20F02F38B01000035
:10070300DD0F10C889030000E50402EF8B01000030
:10071300DE0F02F38B010000EA0F10B8890300001B
:10072300EB0F02EF8B010000EC0F124D70753630AA
:1007330035302E2044617461000A4D7075363035B2
:10074300302E20436F6E662E000AC8004D7075363A
:100753003035302E20506572696F640002F78B01CB
:100763000000D38B02F38B01000051101098890114
:100773000000E80402158C030000F60402EF8B016D
:100783000000521002F38B010000601010888903EF
:100793000000FC0402EF8B010000611002F38B01E7
:1007A30000007010107889030000711002EF8B01B4
:1007B30000007310FF000130750302010600000002
:1007C3000000000000000000000000000000000026
:1007D300000000000000000000FFFF0600800CE89E
:1007E30003104B65792050726573732053746174E1
:1007F300650002F78B010000D08B02F38B01000030
:10080300081102FB8B000000AC0502158C030000ED
:10081300AD0502EF8B0100000911FF0000B40000D9
:1008230028002800283075A000A000A000A0000028
:10083300080008E001F00010001000100010001084
:1008430000100050005000500010001000D00700AE
:1008530000000000000F00010005003075070010C4
:1008630000010081FF00000000FF5A12781260129D
:10087300FF02020208025000A0000000E80302F792
:100883008B010000C18B02F38B010000981102EB76
:100893008B010000E50502F38B010000991102E9C9
:1008A3008B010000FB0502F38B0100009A1102E5A6
:1008B3008B010000FD0502F38B0100009B1102E395
:1008C3008B080000FE0502F38B0100009C1102E17E
:1008D3008B0100009D11FF0100FF2002F78B010037
:1008E30000BE8B02F38B010000011202DF8B0000BC
:1008F30000000002158C0300004B06241824182462
:100903001824182418241824182418241824182404
:100913001824182418B81AD01AB21A120138F496E7
:10092300041201382897041201386C970412013815
:10093300C197041201380F9804120138C4C203127C
:10094300013810C30312013866C3031201380BC404
:1009530003120138BFC403120138DEC40312013885
:10096300FDC4031201382BC5031201385EC50312FF
:100973000138D7C5031201385DC603120138FDC61D
:1009830003120138C2C703120138F4C70312013836
:1009930029C80312013857C8031201386FF2021233
:1009A30001388EF202120138B1F202120138D8F284
:1009B30002120138FFF20212013826F30212013843
:1009C3004DF30212013870F30212013893F302124D
:1009D3000138B6F302120138D9F3021201380BF4CD
:1009E300021201382EF40212013858F402120138AF
:1009F300F4F40212013819F5021201383EF502121D
:100A0300013863F50212013888F502120138ADF599
:100A130002120138D2F502120138F9F50212013837
:100A230037F60212013863F6021201388FF602120A
:100A33000138B4F602120138EDF60212013814F748
:100A4300021201384DF70212013874F7021201380D
:100A5300ADF702120138D4F702120138F9F7021286
:100A630001381EF8021201385CF8021201387FF8CF
:100A730002120138A9F80212013888F9021201386A
:100A830030FB0212013880FB02120138ADFC021266
:100A93000138CCFC02120138EFFC0212013859A6CE
:100AA300031201386EA603120138C6A603120138D9
:100AB3002DA70312013875A703120138EBA7031200
:100AC30001381AA80312013828A8031201388CA888
:100AD30003120138CAA803120138E5A8031201382A
:100AE3007DA90312013826AA03120138A9AA031209
:100AF3000138E2AA031201386DAB03120138C4AB0B
:100B03000312013823AC0312013835AC0312013848
:100B13005BAC0312013864AC03120138C3AD03129A
:100B230001386E94041201384D9504120138A995C9
:100B33000412013800800412013845800412013880
:100B43008B80041201381E8204120138649C041243
:100B530001387F9C041201388F9C04120138E69CF3
:100B6300041201381AA20412013897BC0312013887
:100B7300B7BC03120138BBBD0312013807BE031211
:100B8300013827BE031201387ABE03120138E7BECB
:100B9300031201382DBF0312013891BF031201382C
:100BA30043C2031201386386041201389386041288
:100BB3000138C38604120138868704120138E0879E
:100BC30004120138657E001201387D7E001201385F
:100BD300DA7E001201381E7F00120138507F0012A6
:100BE3000138877F00120138AA7F00120138AC3127
:100BF300001201383E38001201380539001201385D
:100C0300833B001201385146001201387C46001222
:100C13000138824700120138C04700120138A84941
:100C230000120138E84B00120138FA4F0012013864
:100C3300315000120138FB500012013832510012BA
:100C43000138695100120138E8510012013823526A
:100C530000120138A952001201387C5300120138E6
:100C6300095400120138CE5400120138A19E041217
:100C7300013853990412013867E403120138BAE4C6
:100C830003120138D7E403120138ACE5031201382B
:100C930029E60312013806E7031201387BE8031241
:100CA30001388AC803120138AFC8031201380DC9CD
:100CB30003120138BDA2041201382A55001201386B
:100CC300385800120138F85900120138A35A00129B
:100CD3000138475B00120138E05B001201380F5CFA
:100CE30000120138E96000120138946100120138E2
:100CF3000463001201386C6300120138206400128F
:100D03000138E26600120138216700120138956745
:100D130000120138F46700120138536800120138D9
:100D2300C26800120138B56900120138FB6900126C
:100D33000138406A00120138636A00120138DE6B21
:100D430000120138F16B00120138FA6C00120138FD
:100D5300396D00120138656D00120138B86D00124B
:100D63000138D96D001201381D6E001201386F7001
:100D730000120138B070001201385B7100120138A3
:100D8300C67100120138037300120138EB9D04127F
:100D93000138478D04120138788D041201389C8D77
:100DA300041201386F8E04120138329D0412013887
:100DB300509D04120138D99D041201384AA504122A
:100DC30001382798041201383798041201384898DB
:100DD300041201384D990412013812FD0212013830
:100DE300B8FD02120138D4FF0212013862820412E4
:100DF3000138C482041201383C8304120138E483AD
:100E030004120138038404120138138404120138D4
:100E1300528404120138CB91041201380592041252
:100E23000138789204120138B29204120138C49244
:100E330004120138FB9204120138A78B0412013803
:100E4300F68B04120138288C04120138B98C041271
:100E53000138358D04120138E38E04120138168FE0
:100E630004120138928F04120138B28F0412013830
:100E73001790041201385F90041201386290041233
:100E8300013865A50412013877A5041201387AA543
:100E930004120138BA950412013809960412013874
:100EA300359604120138559604120138E29604125D
:100EB30001381F9304120138709304120138B79359
:100EC30004120138419404120138F87F00120138EA
:100ED3001EFD0312013815FF0312013881FF0312AF
:100EE3000138C8FF03120138A3CD03120138F6CD30
:100EF300031201381FCE03120138DDCE031201386D
:100F030046CF0312013884D0031201383ED20312B4
:100F13000138A39403120138D19403120138D196F6
:100F230003120138D198031201388C990312013846
:100F33003E9D03120138A99D031201380DA004122E
:100F43000138579F04120138ABE803120138FEE859
:100F53000312013827E90312013890E9031201381B
:100F6300CEEA0312013888EC0312013864840412B8
:100F73000138CD84041201388B85041201380A86A6
:100F8300041201382CF4031201385EF40312013801
:100F930066F5031201388BF6031201380080031241
:100FA3000138E68003120138338103120138768158
:100FB30003120138EB81031201384C82031201380A
:100FC300C182031201389D8303120138A8840312DE
:100FD3000138298503120138D08603120138668748
:100FE30003120138D98703120138558803120138D7
:100FF3006C8803120138A38903120138FD89031297
:101003000138A5E7011201383DEC0112013811EF57
:10101300011201383AEF0112013851EF0112013880
:101023007AEF011201382CF00112013812F2011289
:1010330001384DF30112013883F801120138BCF86D
:101043000112013800F90112013812FA01120138B4
:101053003FA404120138C3A00412013848880412C3
:1010630001385F8804120138908804120138CB8854
:1010730004120138F588041201381F89041201385B
:101083003689041201384D89041201386489041227
:1010930001388D8904120138A08904120138B689F8
:1010A30004120138C98904120138F0890412013885
:1010B300698A031201386D8B03120138A58B031261
:1010C3000138C88B03120138D38B03120138F68B16
:1010D30003120138058D03120138DA8D031201382A
:1010E300558E03120138DD8E03120138188F031257
:1010F30001384F8F03120138DD8F03120138B69088
:101103000312013816910312013821910312013899
:10111300A09103120138A39103120138A69103127F
:10112300013835920312013838920312013868925C
:10113300031201389292031201388093031201388B
:101143003294031201387BD203120138A3D2031263
:101153000138D1D20312013808D30312013866D300
:1011630003120138B1D303120138FCD3031201383F
:101173003CD40312013882D403120138B0D40312D1
:1011830001386DD50312013877D50312013884D5A0
:1011930003120138B7D50312013883D6031201387D
:1011A3008FD603120138A7D603120138B1D6031222
:1011B30001388D9B041201389B9B04120138B39BA9
:1011C30004120138CB9B04120138279F0212013805
:1011D300D39F021201384EA0021201386FA10212EE
:1011E3000138ABA10212013854A2021201383BA309
:1011F300021201389FA402120138F6A40212013828
:1012030077A50212013867A602120138B4A60212AA
:1012130001383AA7021201386CA70212013880A9DB
:1012230002120138C2A902120138E0A902120138E0
:1012330063AA0212013837AB02120138FFAB021264
:10124300013874B50312013847B603120138F0B6FA
:101253000312013843B703120138F3B703120138FD
:101263007FB8031201386BB9031201389AB903121C
:101273000138ADBA03120138F5BA03120138CABBFB
:101283000312013806BC0312013822BC03120138D1
:1012930047A30412013893F003120138A9F0031293
:1012A3000138CFF003120138EBF103120138F5F1E5
:1012B300031201382AF30312013822F4031201380E
:1012C300D2FA0112013802FC0112013835FC011275
:1012D30001387FFC0112013846FE011201380080FB
:1012E300021201386A8002120138C98102120138E0
:1012F300D981021201380682021201385D8202127C
:1013030001380683021201380D8402120138D78492
:10131300021201383786021201387A860212013826
:101323001F87021201386C8702120138928702125A
:101333000138A08902120138A58902120138AA8B4B
:1013430002120138F78B021201386A8C021201383B
:101353009D8C021201383F8D02120138E88D021272
:101363000138208E02120138238E021201386B8E4F
:1013730002120138AB8E02120138028F02120138B9
:101383004BFA0312013863FA03120138ABFA031262
:101393000138C1FA0312013808FB031201381CFC9F
:1013A30003120138A9FC03120138F4FC03120138BB
:1013B3001A8C01120138268C01120138618C01123A
:1013C3000138A68C01120138668D01120138EC8DAB
:1013D30001120138518E011201387D8E011201383C
:1013E300B68E01120138F49001120138D89201121D
:1013F3000138BE94011201380196011201384F9849
:1014030001120138619901120138AC9A01120138B5
:10141300BC9B01120138D99B01120138149C0112A3
:101423000138369C01120138999C011201385AA1E6
:1014330001120138EFA10112013840A20112013853
:1014430067A201120138B9A201120138D7A2011211
:10145300013831A3011201381AA40112013890A5F1
:101463000112013814A60112013838D703120138CA
:1014730042D70312013885D703120138A0D70312CC
:10148300013830D80312013858D80312013895D8DF
:1014930003120138CCD803120138F5D803120138EE
:1014A3006AD9031201387FD90312013894D9031280
:1014B3000138C5D903120138D9D903120138FED92D
:1014C3000312013838DA0312013864DA03120138DF
:1014D300E7DA0312013830DB031201385ADB031257
:1014E300013885DB03120138749A041201389CE534
:1014F30002120138CAE50212013818E70212013854
:10150300F8E70212013817E80212013894E80212D0
:101513000138D7E8021201382DEA02120138EEEA47
:101523000212013875ED0212013816EE021201386B
:101533000CEF0212013809F00212013863F10212B2
:101543000138EEF102120138709004120138D9907B
:10155300041201382D9104120138549104120138F8
:10156300859104120138ADDB031201381ADC031232
:10157300013861DC0312013879DD0312013875DEAD
:101583000312013858DF03120138F09D03120138AA
:10159300329E03120138049F03120138DD9F0312A8
:1015A3000138D7A003120138B9A10312013822A2CE
:1015B30003120138D8A2031201384CA303120138D5
:1015C300B8A303120138E1A3031201385BA4031289
:1015D3000138F4A40312013859A5031201386EA58A
:1015E30003120138B4A503120138CDA50312013843
:1015F30032A60312013835A60312013852F703123B
:1016030001387AF703120138B8F70312013876F874
:1016130003120138DDF803120138F9F80312013817
:1016230021F90312013851F90312013860F9031249
:101633000138DDF90312013803FA03120138EF8F81
:1016430002120138CD9102120138FF9302120138C0
:101653003B94021201386894021201385295021227
:1016630001389D9502120138E89502120138FA9566
:10167300021201383A96021201386F9602120138AB
:10168300BD9602120138EC96021201380F9702122E
:1016930001385C9702120138E19702120138FB9975
:1016A300021201383A9C021201387B9C0212013863
:1016B3001D9E021201385E9E02120138D19E021253
:1016C300013887D80212013885D9021201381EE089
:1016D300021201383FE2021201380AE40212013811
:1016E30072E5021201387BA6011201382AA7011202
:1016F300013857A7011201389DA701120138DDA84F
:101703000112013873AA01120138EDAA011201383E
:1017130008AB0112013883AB01120138DDAC0112B1
:1017230001383DAE0112013843AF01120138A4B0B4
:1017330001120138BDB0011201381BB10112013889
:1017430009B2011201383CB201120138ACB20112E4
:10175300013826B30112013870B3011201383AB4CB
:10176300011201380FB501120138EEB5011201382B
:1017730079B601120138E7B6011201385BB70112DD
:10178300013886B70112013845B801120138AAB9E8
:1017930001120138C7B901120138E6B90112013843
:1017A300D7BA01120138FCBA0112013826BB011263
:1017B3000138A1BB01120138FBBB0112013864BD22
:1017C3000112013812BE0112013853BE0112013851
:1017D300B3CA0212013801CB021201380DCB021237
:1017E3000138EBCB021201381CCC021201384DCC6C
:1017F30002120138CDCC0212013805CD0212013894
:1018030057CD0212013894CD02120138B1CF021222
:101813000138D7D102120138C2D302120138ACD534
:1018230002120138A1310012013892D3011201389A
:10183300C2D3011201389BDA0112013820DC0112F4
:1018430001381DE20112013805E30112013842E3B8
:101853000112013865E30112013896E301120138E0
:101863009FE301120138A9E30112013897E4011241
:1018730001388DE50112013883BE0112013882C29D
:101883000112013888C201120138C3C9011201389B
:10189300DCCE01120138C5EC031201385BED0312F3
:1018A300013871ED03120138E7ED031201385BEEE5
:1018B3000312013899EE031201380DEF03120138B8
:1018C30086EF031201388FEF031201389BEF0312E7
:1018D3000138B0EF03120138EEEF0312013804F0C0
:1018E3000312013863F0031201381AE003120138BE
:1018F30027E00312013841E00312013880E00312AC
:101903000138BEE00312013823E10312013838E144
:101913000312013843E10312013850E10312013885
:1019230067E10312013875E10312013880E1031204
:1019330001388CE1031201389BE103120138A6E15F
:1019430003120138C9E10312013870E203120138AE
:1019530080E2031201389AE203120138B7E203125C
:101963000138D3E203120138F8E20312013803E32A
:101973000312013818E3031201382CE30312013870
:101983008DE30312013893E30312013899E3031241
:1019930001389FE303120138B7E303120138EAE386
:1019A3000312013889BC021201380DBD021201383D
:1019B300BCBD021201381BBF021201383CC1021226
:1019C300013828C2021201385DC2021201387FC2F7
:1019D300021201382EC30212013826C50212013841
:1019E3004FC502120138E1C50212013813C60212B3
:1019F300013820C60212013877C6021201389DC68B
:101A0300021201380AC9021201380DCA0212013842
:101A130065CA0212013818AE0212013822AF02124F
:101A2300013809B00212013813B00212013835B07F
:101A33000212013841B002120138DAB10212013840
:101A430009B20212013825B3021201387EB3021221
:101A53000138E4B402120138C3B5021201381FB6CB
:101A6300021201388CB602120138C7B602120138CD
:101A730006B702120138BFB902120138D9B90212EE
:101A8300013865BA0212013873BA02120138CCBAAE
:101A930002120138DABA021201384DBB02120138C0
:101AA300B1BB02120138FBBB0212013837730012BB
:101AB30001385973001201387F7500120138947888
:101AC30000120138AC79001201385F7A0012013834
:101AD300417B00120138028A04120138278A04125A
:101AE3000138998A04120138FAAD0312013803AEA2
:101AF300031201380CAE03120138E3AE03120138AE
:101B030094B003120138CAB00312013804B10312AE
:101B130001383AB10312013874B103120138A8B184
:101B230003120138D4B1031201381DB20312013874
:101B330057B203120138A0B203120138F8B20312EC
:101B430001382DB30312013888B303120138C2B32D
:101B53000312013813B40312013849B403120138D4
:101B630083B403120138B1B403120138D4B403129D
:101B730001386FA1041201389BA104120138F6A1A8
:101B83000412013800A20412013810A20412013811
:101B9300A4A404120138CBFF03120138F6A40412E3
:101BA30001382CA504E066701008A3E066700A08EB
:101BB300A3E066700408A3E06622C3E7960809E77A
:101BC300960809E7960809E79622C3E09608A3E07A
:101BD3009608A3E09608A3E09622C008C3E096F512
:101BE3000808A3E096420808A3E096420808A3E089
:101BF3009645087001D3D00822080808EAC0E0EB34
:101C0300C0E086F0E7A4FA180986F0E7A42AFA18D8
:101C13000986F0E7A42AFA180986F0E7A42AFA1934
:101C230086F0E7A4FBE5F02AFA190886F0E7A42B6F
:101C3300FBE5F03AFA190886F0E7A42BFBE5F03A46
:101C4300FA18180986F0E7A4C5F02BFBE43AFA1951
:101C530008E7C5F0C6A426F6E5F03BFBE43AFA181C
:101C630086F0E7A4F6E5F00826F6E43B08F6E43A46
:101C730008F6D0E0FBD0E0FA22E4CFC0E0E4CEC027
:101C8300E0E4CDC0E0E4CCC0E075F020C3E633F679
:101C930008E633F608E633F608E633F6181818ECC8
:101CA30033FCED33FDEE33FEEF33FFC3EC9709ED69
:101CB3009709EE9709EF97191919400FFFEC97FC55
:101CC30009ED97FD09EE97FE191906D5F0BEECF75D
:101CD30009EDF709EEF709EFF7191919D0E0FCD070
:101CE300E0FDD0E0FED0E0FF226016080808C6C37E
:101CF30013C618C613C618C613C618C613C6D5E02E
:101D0300EA227009080808226016181818C6C33397
:101D1300C608C633C608C633C608C633C6D5E0EA06
:101D230022E627F60809E637F60809E637F6080932
:101D3300E637F622E026F608A3E036F608A3E036F7
:101D4300F608A3E036F622E026F008A3E036F00812
:101D5300A3E036F008A3E036F022C3E697F60809BD
:101D6300E697F60809E697F60809E697F622C3E030
:101D730096F008A3E096F008A3E096F008A3E09697
:101D8300F022E657F60809E657F60809E657F6087B
:101D930009E657F622E056F608A3E056F608A3E054
:101DA30056F608A3E056F622E056F008A3E056F0F4
:101DB30008A3E056F008A3E056F022E647F6080928
:101DC300E647F60809E647F60809E647F622E0F68D
:101DD30008A3E0F608A3E0F608A3E0F622E6F0087D
:101DE300A3E6F008A3E6F008A3E6F022E0FAA3E0F6
:101DF300FBA3E0FCA3E0FD22EAF0A3EBF0A3ECF0ED
:101E0300A3EDF022CAC0E0E6F0A308DAFAD0E0FAC4
:101E130022CAC0E0E0A3C582CCC582C583CDC583F9
:101E2300F0A3C582CCC582C583CDC583DAE6D0E0F5
:101E3300CA22C3E498F8E499F9121E768026C3E413
:101E43009AFAE49BFBE920E7E9121E76E498F8E4AA
:101E530099F922C3E498F8E499F9121E76E498F804
:101E6300E499F9C3E49AFAE49BFB22EB20E7CFE978
:101E730020E7E0B90010BB0008E88AF084F8AAF074
:101E830022E4FBC8FA22EB70227B10C833C8C933A3
:101E9300C9335007C39AC3DBF280069A50012ADB89
:101EA300EAC833F4C8C933F4C9FA2275F008E4C8A0
:101EB30033C8C933C933C99AC99B5004C92AC93B1A
:101EC300D5F0ECFBC833F4C8E4C9FA22600D08C6A8
:101ED300A2E713C618C613C6D5E0F322600C08C6E2
:101EE300C313C618C613C6D5E0F422700422600DCE
:101EF30018C6C333C608C633C6D5E0F4182225185E
:101F030010AF08F518400215198008F5184002159E
:101F130019D2AF22C0D0251810AF08F5185002050A
:101F2300198008F51850020519D2AFD0D022251810
:101F3300F58210AF08F518400215198008F518400E
:101F4300021519D2AF851983222518F582E43519B4
:101F5300F58322E4732518C582C0E0E51934FFC573
:101F630083C0E0E518C3958224F810AF0885831970
:101F73008582188008858319858218D2AFCEF0A395
:101F8300E520F0A37808E608F0A3DEFAEFF0A3E576
:101F93008124FAF8E608F0A3E608F0A3E608F0A324
:101FA3000808E608F0A3E608F0A315811581D0E040
:101FB300FED0E0F8158115811581E8C0E0EEC0E0A0
:101FC300222518C582C0E0E51934FFC583C0E0E5CA
:101FD30018C3958224F910AF088583198582188068
:101FE30008858319858218D2AFCEF0A3E520F0A32C
:101FF3007808E608F0A3DEFAEFF0A3E58124FBF806
:10200300E608F0A3E608F0A30808E608F0A3E6084C
:10201300F0A315811581D0E0FED0E0F8158115817C
:10202300E8C0E0EEC0E022851983851882E0A3FEB4
:10203300E0A3F5207808E0A3F608DFFAE0A3FFE0C9
:10204300A3C0E0E0A3C0E0E0A3C0E0E0A3C0E0E001
:10205300A3C0E010AF0885821885831980088582A4
:1020630018858319D2AFD083D082020135851983B5
:10207300851882E0A3FEE0A3F5207808E0A3F60824
:10208300DFFAE0A3FFE0A3C0E0E0A3C0E0E0A3C069
:10209300E0E0A3C0E010AF088582188583198008AB
:1020A300858218858319D2AFD083D08222C0D025F0
:1020B30018C582C0E0E51934FFC583C0E0E518C345
:1020C300958224F310AF08858319858218800885CB
:1020D3008319858218D2AFC8F0A3E9F0A3EAF0A36D
:1020E300EBF0A37908E709F0A3D8FAECF0A3EDF03D
:1020F300A3EEF0A3EFF0A3D0E0F0A3D0E0F0A3D0E1
:10210300E0F0A3E520F0A3E5F0F0A3228519838591
:102113001882E0C0E0A3E0F9A3E0FAA3E0FBA37810
:1021230008E0F608A3DFFAE0FCA3E0FDA3E0FEA3CA
:10213300E0FFA3E0C0E0A3E0C0E0A3E0F5D0A3E0AC
:10214300F520A3E0A3F5F010AF0885831985821865
:102153008008858319858218D2AFD082D083D0E0DE
:10216300F8D0E03274048006740280027401C0E087
:10217300F404121F31D0E0121E0722740480047489
:10218300028000CCC0E0EDC0E0E518C39CCCAD19E3
:1021930050011D10AF068C188D1980068C188D19EF
:1021A300D2AF121E14D0E0FDD0E0FC22D083D08247
:1021B300E9C0E0E493A3C386F0C5F095F0F908E421
:1021C30093A386F0C5F095F0700BE493A3C39940F5
:1021D30005E9048002A3E475F002A42582F582E5F3
:1021E300F03583F583D0E0F9E493A3C0E0E493C032
:1021F300E022D083D082ECC0E0EDC0E0E493A3FC06
:10220300E493A3FDED4C600D122241EC24FFFCEDA1
:1022130034FFFD80EFE493A3FCE493A3FDED4C6056
:102223000D122280EC24FFFCED34FFFD80EFD0E0A3
:10223300FDD0E0FCE493A3C0E0E493C0E022C0E05F
:10224300C3E49396087401939618400FE493667061
:102253000808740193661870007019A3A3C3E4936C
:1022630096087401939618A3A3400DD0E0D0E0D054
:10227300E0022231A3A3A3A3A3A3D0E022C0E0C022
:10228300F088F0E493667008087401936618700090
:10229300A8F0A3A3700BD0F0D0E0D0E0D0E00222EE
:0822A30031A3A3D0F0D0E0222A
:1022AC00C2AF02000022C0E074F21220B0A2AFE470
:1022BC0033FED2AFE589A2E05003120E707589008F
:1022CC00C2C5EEF8EEA2E092AF7F0102210FC0E092
:1022DC0074F21220B0A2AFE433FED2AFE58AA2E6CC
:1022EC004006E58AA2E75003120E70758A00758AC3
:1022FC0000C2EBEEF8EEA2E092AF7F0102210FC01C
:10230C00E0C0D0E8C0E0E9C0E0A2AFE433F8D2AF5F
:10231C00758B00C2E8E8F9E8A2E092AFD0E0F9D002
:10232C00E0F8D0D0D0E032C0E0C0D0E8C0E0E9C0E6
:10233C00E0A2AFE433F8D2AFC2C7751A00E8F9E8EF
:10234C00A2E092AFD0E0F9D0E0F8D0D0D0E0327477
:10235C00F5121FC4EAFEEBFFEE2434F8EF3400F95B
:10236C0088088909EE2435F582EF3400F583E0F80E
:10237C00EE2437F582EF3400F583E0F50AEC850A9C
:10238C00F0A4FCAAF0850AF0EDA42AFDE82CF8E4F0
:10239C003DF97A257B00121E76EA85088285098331
:1023AC00F0F8740758F97401B900028004C333D9EA
:1023BC00FCFAE8131313541FF8EE28F8EF3400F965
:1023CC00E8245DF582E93400F583E05A6008EE24D8
:1023DC0034F582EF802CEE2434F582EF3400F58353
:1023EC00E0C0E0EE2436F582EF3400F583E0F5F042
:1023FC00D0E084A8F0EE28F8EF3400F9E82438F5A2
:10240C0082E93400F583E0F97F0402207074F51240
:10241C001FC4EAFEEBFFEE2434F582EF3400F583A3
:10242C00E0C0E0EE2435F582EF3400F583D0E0F027
:10243C008E828F83A3A3A3A3A3A3A3C082C0838EE6
:10244C00828F83A3A3A3A3A3E0F8A3E0F9D083D046
:10245C0082E0C398F508A3E099F509EE247FF58294
:10246C00EF3400F583E064017069EE2480F582EFAF
:10247C003400F583E0F8A3E0F98E828F83A3A3A345
:10248C00A3A3A3A3E0FCA3E0FD8E828F83A3A3A34D
:10249C00A3A3E0FAA3E0FBC3EA9CEB9D5010C3ECB2
:1024AC0098ED99402EC3EA98EB995027800EC3EA19
:1024BC0098EB994007C3EC98ED9940177C0E7D087A
:1024CC00EEFAEFFB121782EE247FF582EF3400F563
:1024DC0083E4F0EE2434F8EF3400F9E8FCE9FDEE87
:1024EC002435F582EF3400F583E0F8EE2437F582DD
:1024FC00EF3400F583E0F50AE508850AF0A4F50849
:10250C00AAF0850AF0E509A42AF509E82508F8E4FB
:10251C003509F97A257B00121E76EA8C828D83F0C0
:10252C00F8740758F97401B900028004C333D9FC5C
:10253C00FAE8131313541FF8EE28F8EF3400F9E8F7
:10254C00245DF582E93400F583E05A6008EE24340A
:10255C00F582EF802CEE2434F582EF3400F583E025
:10256C00C0E0EE2436F582EF3400F583E0F5F0D0D0
:10257C00E084A8F0EE28F8EF3400F9E82438F5826E
:10258C00E93400F583E0F9123193022414C082C0BF
:10259C0083851882851983E0F8A3E0F9C3EA9CEBE4
:1025AC009D5010C3EC98ED99401BC3EA98EB9950E1
:1025BC0014800EC3EA98EB994007C3EC98ED994050
:1025CC0004790180027900D083D08222EAC39CFA7C
:1025DC00EB9DFB2274EF121FC49006D4E0640860DC
:1025EC0005E06407702A9061C8E06024900702E05F
:1025FC00F4601DE0F875F003A4C8AAF02AF974047D
:10260C0028FE740739FF8E828F83A3A3A3E0700387
:10261C00022710906060E0C0E0EE2468F582EF3491
:10262C0000F583D0E0F0750C77750D087508007512
:10263C000900E5D914F50AE5D95403F50E601774B1
:10264C0003650E605CE50A6010EE2467F582EF34DA
:10265C0000F583E070030226F5900872E0640160D7
:10266C002AEE2482F582EF3400F583E060047804CE
:10267C0080027800850A08E508C398FA95E0FB12F9
:10268C0016508A088B09EA45097005121986807460
:10269C00EE2482F582EF3400F583E070048A0C8B13
:1026AC000DE50A6012850C82850D83F50BE5D9F0DA
:1026BC00A3150BE50B70F6EE2482F582EF3400F5D2
:1026CC0083E0604474FC250AF50A780C12216BAC8B
:1026DC000AA90EEEFAEFFB12181E7402121F17E96C
:1026EC007026AA08AB09120F72793D8E828F83A3D4
:1026FC00A3A3A3E0FA7B00121524EEFAEFFB12174A
:10270C009A121830790080747403650E6056850A2D
:10271C0010751100781012216BAC0CAD0DAA08AB22
:10272C00091217FA7402121F17EE2468F582EF349F
:10273C0000F583E064807004747F8001E0F50C7810
:10274C000C12216FE50EF50C780C12216FA90AAC56
:10275C0008AD09900702E0FA7B001214E87402122B
:10276C001F1780139006D4E06408600BAC0CAD0D01
:10277C00EEFAEFFB12188A12199279017F0A0220E5
:10278C007074F5121FC474FC121F01EAFEEBFF8972
:10279C0008A2AFE433F509C2AF806AEE2463F8EF08
:1027AC003400F97A007B00A2AFE433F50AC2AF889B
:1027BC00828983E0FCA3E0FDEC4D603A888289833A
:1027CC00E0FAA3E0FB8A828B83E0FCA3E0FD888225
:1027DC008983ECF0A3EDF08A828B83E4F0A3F0887C
:1027EC00828983E0FCA3E0FDEC4D700A888289832A
:1027FC00A3A3E4F0A3F0E50AA2E092AF120F72904B
:10280C000815E004F0EE2463F582EF3400F583E064
:10281C00F8A3E0F9E849603DEE2463F582EF34005B
:10282C00F583E02402FAA3E03400FBEA2402F50A63
:10283C00EB3400F50B780A12216B8A828B83E0FC57
:10284C00A3E0F9EEFAEFFB1217BE7402121F17E9A0
:10285C0070030227A7900815E06063900816E0F853
:10286C00900815E0C398500C7402650870509008DD
:10287C0017E0604A8E828F83A3A3A3A3E0851882FE
:10288C00851983F0A3E4F0900815E0F87402121F88
:10289C004CE8F0A3E4F0900815E0F8900814E02858
:1028AC00F07402121F4CAC82AD838518828519839B
:1028BC00AA82AB8379011214F4900815E4F0E509AF
:1028CC00A2E092AF7404121F17022414852187858D
:1028DC0022C622C0E0C0D0E8C0E0E9C0E0EAC0E017
:1028EC00EBC0E0ECC0E0EDC0E0EEC0E0C008C00919
:1028FC00C00AC00BC082C083C0F0A2AFE433FEC2DA
:10290C00AF759B00906182E0A2E05012E591A2E0CD
:10291C00500C7591FE7401652170031225E0E0A244
:10292C00E55051E591A2E5504B7591DF9006D4E04E
:10293C0064076005E06408702374016521703579C3
:10294C0001900702E0FA75F003A4CAA8F028FB7402
:10295C00042AFA74073BFB12278D8018E0640D7073
:10296C00139006F6E004F064287002E4F07A00E0BC
:10297C00F9121998906182E0A2E64003022A26E53A
:10298C0091A2E64003022A267591BF9006D4E0641A
:10299C000570081218C01218CC80031218C67521C5
:1029AC0000121926E99006D5F0790012191A1216A0
:1029BC00F87A017B009006D3E0F9120AF8907803BC
:1029CC00E064427055900876E014F0704DC2AF127E
:1029DC0029DE00782AD0E0F618D0E0F6E59F5407FF
:1029EC0070057509FF800375097FC4C0E07829E67E
:1029FC00F50808E65509F509740B7808121EDFD0A6
:102A0C00E02508F8906270E0A2E740F8E8C3339044
:102A1C006272F0906270E0D2E0F0906181E0A2E32B
:102A2C005009E5E9A2E3500375E9F7A3E0A2E750EA
:102A3C0009E591A2E7500375917FEEA2E092AFD029
:102A4C00F0D083D082D00BD00AD009D008D0E0FED1
:102A5C00D0E0FDD0E0FCD0E0FBD0E0FAD0E0F9D043
:102A6C00E0F8D0D0D0E032C0E0C0D0C082C08390BB
:102A7C006183E0A2E05009E5BFA2E0500375BFFE00
:102A8C00E0A2E15009E5BFA2E1500375BFFDE0A251
:102A9C00E25009E5BFA2E2500375BFFBE0A2E35090
:102AAC0009E5BFA2E3500375BFF7E0A2E45009E5C6
:102ABC00BFA2E4500375BFEFE0A2E55009E5BFA249
:102ACC00E5500375BFDFE0A2E65009E5BFA2E65072
:102ADC000375BFBFD083D0828088C0E0C0D0E8C06F
:102AEC00E0E9C0E0EAC0E0EBC0E0ECC0E0EDC0E043
:102AFC00C0F0E5A7A2E6500FE5A1A2E6500953A746
:102B0C00BF75A1BF122B4BE5A7A2E5500CE5A1A206
:102B1C00E5500653A7DF75A1DFE5A7A2E15009E553
:102B2C00A1A2E1500375A1FDE5A7A2E2500CE5A11D
:102B3C00A2E2500653A7FB75A1FBD0F0022A5C74ED
:102B4C00F8121FC47521019006D4E06406701512AA
:102B5C00184E8A828B83A3A3A3A3A3A3E0FAA3E0BA
:102B6C00FB1218AEA2AFE433FED2AF9006DAE064EB
:102B7C000170187A207B009006D3E0F9120B8E7A44
:102B8C00207B009006D3E0F9120AFE906182E0D21D
:102B9C00E6F0900873E0602185C62280169006D975
:102BAC00E064017008E5C654F84405F5C653BEFC54
:102BBC001228D87401652160E4EEA2E092AF7F0187
:102BCC00022070008E238F24858228858327851808
:102BDC0082851983E0CEA3E0CF852882852783EBFD
:102BEC00C9EAC8EDCBECCA75F010C3E833C8E933B9
:102BFC00C9EA33CAEB33CBC3EA9EF526EB9FF52526
:102C0C00B35004AB25AA26EC33CCED33CDD5F0DA9A
:102C1C00AE23AF242274E9121FC474F8121F01856D
:102C2C001882851983ECF0A3EDF08A088B099006C5
:102C3C00D4E024F7C394055006750801022DB81290
:102C4C00184E8A0A8B0BAE0AAF0BEE4F7003022D97
:102C5C00B5AC08AD097402121F4CAA82AB831218D2
:102C6C00DE8E828F83A3A3750CFF750DFF750EFF8F
:102C7C00750F00780C121D987402121F4C7510FF02
:102C8C007511FF7512FF7513007810121D98780CD2
:102C9C007910121BBD502A780C7910121D5D750825
:102CAC00017509C8750A00750B007808790C121BA0
:102CBC00BD5052850C08850D09850E0A850F0B80B9
:102CCC00507514017515C875160075170085100818
:102CDC0085110985120A85130B7808790C121D5D74
:102CEC0078147908121BBD401C7508007509007515
:102CFC000A00750B0178087910121D5D7808790CA3
:102D0C00121D24800C750801750900750A00750BDD
:102D1C000074097808121D05750C19F50DF50EF5E2
:102D2C000F7808790C121C7C8E828F83A3A3A3A32B
:102D3C00A3A3E0F8A3E0F97AD07B03121E76880CEB
:102D4C00890DE4F50EF50F7808790C121D24740624
:102D5C00121F4CE0F8A3E0F97AD07B03121E76E840
:102D6C00FA8A0CE4F50D7808790C121BBD50077823
:102D7C0008790C121D5D9006D4E06408600AE064CA
:102D8C00066005E06405702D750C0D780C79081241
:102D9C001BBD4021750CF4750DFF750EFF750FFFF3
:102DAC007808790C121D24800C75080075090075C3
:102DBC000A00750B00851882851983E0F8A3E0F5ED
:102DCC008388827808121DE07408121F177F100286
:102DDC00207074F7121FC41218F0900871E064018F
:102DEC007010906245E4F0A3F053F4F343FE0C53DF
:102DFC0090F312189CE5C654804449F5C6E59E54E0
:102E0C007F644970F8906185740FF090086FE0F45E
:102E1C007002A3E0604E900870E0600814601B1410
:102E2C00602E804075080175090090086FE07808E5
:102E3C00121EEEE508F45280802A7508017509000F
:102E4C0090086FE07808121EEEE508F4529080149A
:102E5C0075080175090090086FE07808121EEEE500
:102E6C0008F452A079007F0202207074F7121FC47C
:102E7C00E9FEEAFF74016E700C7A807B009006D339
:102E8C00E0F9120AF89031A4E493F46008E493F9A1
:102E9C001216EC800953C680E59E547F70FA121806
:102EAC00A2900871E06401700312170490086FE09F
:102EBC00F47002A3E0604B900870E0600814601A94
:102ECC0014602C803D75080175090090086FE0783E
:102EDC0008121EEEE508428080287508017509006D
:102EEC0090086FE07808121EEEE50842908013758A
:102EFC00080175090090086FE07808121EEEE508CD
:102F0C0042A01218F012184E8A088B09A808A909B9
:102F1C00E8496015E5E170FCE82414F582E9340019
:102F2C00F583E0F46003E0F5E174016F700A7A0157
:102F3C009006D3E0F9120B58022E7274ED121FC4D6
:102F4C008A088B098C0A8D0B7413121F4C780C1287
:102F5C001DD17808790C121BBD7510017511C8753F
:102F6C00120075130050127808790C121D5D781040
:102F7C007908121BBD50168010780C7908121D5D53
:102F8C007810790C121BBD40047901800279007F06
:102F9C000C02207074ED121FC48A088B098C0A8DE8
:102FAC000B7413121F4C780C121DD1780C7908126B
:102FBC001BBD40117808790C121D5DAA08AB09AC39
:102FCC000AAD0B8022751000751100751200751377
:102FDC00017810790C121D5D78107908121D24AA45
:102FEC0010AB11AC12AD1380A68A828B837508FFCF
:102FFC007509FF750AFF750B007808121DAB7F046D
:10300C0002207074F5121FC48C828D837808121DF7
:10301C00D18A828B837808121D71EA2404F8EB3470
:10302C0000F98C828D83A3A3A3A3E0FCA3E0FD880D
:10303C00828983C3E09CF0A3E09DF088828983C3DE
:10304C00E09420A3E0944E40268A828B837508FF7F
:10305C007509FF750AFF750BFF7808121D4A8A82E5
:10306C008B83A3A3A3A3E02420F0A3E0344EF002AF
:10307C002FF574F5121FC4E9FE900829E0FAA3E0BD
:10308C00FBEEC333F8E433F9748828F5827488397D
:10309C00F583E02AF508A3E03BF509780812216BCB
:1030AC007A407B427C0F7D00122BD07402121F17CA
:1030BC008A088B098C0A8D0B74107808121CECAAE8
:1030CC0008AB097F0402207074F1121FC48A0C8BA8
:1030DC000D8C0E8D0F740F121F4CE0FAA3E0FB74D5
:1030EC0011121F4CE0F508A3E0F509780812216BCA
:1030FC00EA2401F508EB3400F509E4F50AF50B7840
:10310C000C7908121BFC750871750902780C79088A
:10311C00121BFCAA0CAB0DAC0EAD0F122BD0740213
:10312C00121F178B09EA450960047A0180027A00A4
:10313C00EC2AFCED3400FD7413121F4CE0F8A3E0F4
:10314C00F9E8FEE9FFECF8EDF97A717B02121E76D4
:10315C00880889098E828F837808121DE0ECF8EDBF
:10316C00F97A717B02121E768A088B09740578082D
:10317C00121EEE8E828F83A3A3A3A3E508F0A3E512
:10318C0009F07F08022070C082C083E9906000F0D3
:10319C00D083D08222020135FFFFFFFFFFFFFFFF2C
:1031AC0074ED121F58746C121F01120A087C007DFA
:1031BC00007E007F007410121F4CECF0A3EDF0A306
:1031CC00EEF0A3EFF0908B3F7808121DD174101223
:1031DC001F4C7808121BCD5014908B337808121D9D
:1031EC00D17410121F4C7808121D4A80D879001225
:1031FC000A0E7B017A017910120A627906120A68AA
:10320C00120A6EE9F5127B007A007900120A62123A
:10321C000A26E9F50F120A32E9F50E120A3EE9F513
:10322C000D120A4AE9F50C7A7F79001209D8790057
:10323C001209F67A6879001209D8120A027C007D0C
:10324C00007E007F007410121F4CECF0A3EDF0A375
:10325C00EEF0A3EFF0908B437808121DD17410128E
:10326C001F4C7808121BCD5014908B337808121D0C
:10327C00D17410121F4C7808121D4A80D8750801A1
:10328C00780812216F750800780812216F79007C7C
:10329C00897D077A007B80120A807402121F17E95D
:1032AC0070030238327CC07D007A957B0A120A8C3E
:1032BC00E9700302382E7903120A1479121209DE0E
:1032CC0079041209A279011209A879031209AE79BD
:1032DC00031209B47903120A927900120A98790040
:1032EC00120A2CA90E120A38A90D120A44A90C12A2
:1032FC000A50750A00750B00750800E508C39404A4
:10330C0040248508107511007402121F4CE0F879E6
:10331C00002403F8E93400F9C3E51098E51199A2EB
:10332C00D265D033503A7455250AF582740B350B9F
:10333C00F583E0C0E08508107511008518828519A9
:10334C0083E5822510F582E5833511F583D0E0F015
:10335C000508E50A2401F50AE50B3400F50B809B02
:10336C00750900780912216F750901780912216F0E
:10337C007403121F4CE0F509780912216F740312C3
:10338C001F4CE0F97405121F4CE0FC7D0074061212
:10339C001F4CAA82AB83120A7A7403121F17E975A9
:1033AC000800E508C39404402485081075110074C6
:1033BC0002121F4CE0F879002403F8E93400F9C339
:1033CC00E51098E51199A2D265D033503A74552581
:1033DC000AF582740B350BF583E0C0E08508107597
:1033EC001100851882851983E5822510F582E58305
:1033FC003511F583D0E0F00508E50A2401F50AE55E
:10340C000B3400F50B809B750900780912216F7540
:10341C000901780912216F7403121F4CE0F5097829
:10342C000912216F7403121F4CE0F97405121F4C22
:10343C00E0FC7D007406121F4CAA82AB83120A7A40
:10344C007403121F17E91209FC120A1A8A108B1145
:10345C00AE10AF11E510A9107414121F4CAA82AB58
:10346C0083120A2079021209C0799C1209CC795076
:10347C001209C679001209D21209FC79011209F05D
:10348C007901120A56120A5C750800E508C3940407
:10349C0040248508107511007402121F4CE0F87955
:1034AC00002403F8E93400F9C3E51098E51199A25A
:1034BC00D265D033503A7455250AF582740B350B0E
:1034CC00F583E0C0E0850810751100851882851918
:1034DC0083E5822510F582E5833511F583D0E0F084
:1034EC000508E50A2401F50AE50B3400F50B809B71
:1034FC00750900780912216F750901780912216F7D
:10350C007403121F4CE0F509780912216F74031231
:10351C001F4CE0F97405121F4CE0FC7D0074061280
:10352C001F4CAA82AB83120A7A7403121F17E97517
:10353C000800E508C3940440248508107511007434
:10354C0002121F4CE0F879002403F8E93400F9C3A7
:10355C00E51098E51199A2D265D033503A745525EF
:10356C000AF582740B350BF583E0C0E08508107505
:10357C001100851882851983E5822510F582E58373
:10358C003511F583D0E0F00508E50A2401F50AE5CC
:10359C000B3400F50B809B750900780912216F75AF
:1035AC000901780912216F7403121F4CE0F5097898
:1035BC000912216F7403121F4CE0F97405121F4C91
:1035CC00E0FC7D007406121F4CAA82AB83120A7AAF
:1035DC007403121F17E9750800E508C3940440240E
:1035EC008508107511007402121F4CE0F879002444
:1035FC0003F8E93400F9C3E51098E51199A2D265F6
:10360C00D033503A7455250AF582740B350BF5837B
:10361C00E0C0E0850810751100851882851983E5D6
:10362C00822510F582E5833511F583D0E0F005088D
:10363C00E50A2401F50AE50B3400F50B809B7509AE
:10364C0000780912216F750901780912216F740332
:10365C00121F4CE0F509780912216F7403121F4CEC
:10366C00E0F97405121F4CE0FC7D007406121F4C2F
:10367C00AA82AB83120A7A7403121F17E9120A1A70
:10368C008A108B11A810A911E8FEE9FFC3E8940376
:10369C00E9940040E8EEF97414121F4CAA82AB8333
:1036AC00120A201209E4E9F509750800E508C3942B
:1036BC000440248508107511007402121F4CE0F8A8
:1036CC0079002403F8E93400F9C3E51098E5119961
:1036DC00A2D265D033503A7455250AF582740B3555
:1036EC000BF583E0C0E08508107511008518828504
:1036FC001983E5822510F582E5833511F583D0E039
:10370C00F00508E50A2401F50AE50B3400F50B80F9
:10371C009B7401121F4CE0F510781012216F74018C
:10372C00121F4CE0F97403121F4CE0FC7D00740472
:10373C00121F4CAA82AB83120A747401121F171247
:10374C000A1A8A108B11A810A911E8FEE9FFC3E828
:10375C009403E9940040E8EEF97414121F4CAA8209
:10376C00AB83120A201209E4E9F509750800E50893
:10377C00C3940440248508107511007402121F4C68
:10378C00E0F879002403F8E93400F9C3E51098E572
:10379C001199A2D265D033503A7455250AF582742A
:1037AC000B350BF583E0C0E085081075110085180A
:1037BC0082851983E5822510F582E5833511F58321
:1037CC00D0E0F00508E50A2401F50AE50B3400F514
:1037DC000B809B751000781012216F7510017810FA
:1037EC0012216F7403121F4CE0F510781012216F28
:1037FC007403121F4CE0F97405121F4CE0FC7D00A1
:10380C007406121F4CAA82AB83120A7A7403121F1D
:10381C0017E97900120A561209FC1209E4E9790039
:10382C0080067902800279017494121F177F0B02B3
:10383C00202A74F7121F588C828D83E0F87900E4EB
:10384C00C8F98C828D83A3E0FE7F00E82EF8E93F57
:10385C00F98A828B83E8F0A3E9F08C828D83A3A391
:10386C00A3A3E0F87900E4C8F98C828D83A3A3A309
:10387C00A3A3E0FE7F00E82EF8E93FF98A828B8350
:10388C00A3A3E8F0A3E9F08C828D83A3A3A3A3A345
:10389C00A3A3A3E0F87900E4C8F98C828D83A3A3D9
:1038AC00A3A3A3A3A3A3A3E0FE7F00E82EF8E93F04
:1038BC00F98A828B83A3A3A3A3E8F0A3E9F0EC24F9
:1038CC000CF582ED3400F583E0F87900E4C8F9ECEE
:1038DC00240DF582ED3400F583E0FE7F00E82EF830
:1038EC00E93FF98A828B83A3A3A3A3A3A3E8F0A344
:1038FC00E9F079007F0102202A74F3121F5874EC4E
:10390C00121F018908E5089002ACF07C047D007A56
:10391C001F7B00121146E9F5097405121F4C740146
:10392C00F0740E121F4C7401F0A37400F0740412A6
:10393C001F4C7401F0740C121F4C742FF0A3740103
:10394C00F0740A121F4C743FF0A37401F074081247
:10395C001F4C7404F0A37400F07406121F4C7458BE
:10396C00F0A37402F07405121F4CAC82AD83790184
:10397C007A057B03121002E9740E121F4CAC82AD57
:10398C008379027A067B03121002E97C847D0B7921
:10399C00157A087B03121002E97C997D0B79177A52
:1039AC00077B03121002E97404121F4CAC82AD8326
:1039BC0079017A107B03121002E9740C121F4CACC3
:1039CC0082AD8379027A117B03121002E9740A1218
:1039DC001F4CAC82AD8379027A127B03121002E980
:1039EC007408121F4CAC82AD8379027A137B0312DC
:1039FC001002E97406121F4CAC82AD8379027A1462
:103A0C007B03121002E97CB07D0B7A047900121250
:103A1C00C0E97E407F06EEFCEFFD7A067B001211BA
:103A2C0046E9EEFCEFFD7A077B00121146E9EEFC4D
:103A3C00EFFD7A087B00121146E9EEFCEFFD7A09E6
:103A4C007B00121146E97A007B007C007D0074102B
:103A5C00121F4CEAF0A3EBF0A3ECF0A3EDF074030F
:103A6C00121F4C7401F07402121F4C7401F074019B
:103A7C00121F4C7400F08518828519837401F07440
:103A8C0010121F4CAC82AD8379047A087B04120CA3
:103A9C00BAE97403121F4CAC82AD8379017A007BB6
:103AAC0004120CBAE97402121F4CAC82AD8379017A
:103ABC007A027B04120CBAE97401121F4CAC82AD71
:103ACC008379017A037B04120CBAE9851882851973
:103ADC0083AC82AD8379017A067B04120CBAE9902F
:103AEC008B53121DEF1212C6E9908B53121DEF125D
:103AFC0013D4E9120CA2E9908B53121DEF120F484C
:103B0C00E9908B53121DEF120EE8E9908B53121DA6
:103B1C00EF120C78E97A007903120E82E9120E1674
:103B2C007AC87B0B120F4EE9F50A7ACA7B0B120E80
:103B3C00EEE9F50B7ACC7B0B120C7EE9F50C7ACE08
:103B4C007B0B12101475F30075F40075F50075FD00
:103B5C00FF75FEFF75FF1F75800075900075A00046
:103B6C007A017B009002ACE0F9120AF8E9741412A5
:103B7C001F177F0502202A74EC121F5874F8121FAD
:103B8C00018909EAFEEBFFEE5400F8EF5480F9E8E6
:103B9C004960329002ACE0F9120AE08A0C8B0DA855
:103BAC000CA90D880A890BE849600FAA0AAB0B1205
:103BBC000C06AA0AAB0B120ACEE9EE6400FAEF640B
:103BCC0080FB024647EE5480601B9002EDE0600AD9
:103BDC00C2AF75C9AB75C95B80FEEE6480FAEF6449
:103BEC0000FB024647EEA2E050227AC47B0B121077
:103BFC000EE9F5087A347B03120CD8120D92120FD1
:103C0C0012EE6401FAEF6400FB024647EE5400F832
:103C1C00EF5404F9E84960167C107D007AC67B02EB
:103C2C00120C66EE6400FAEF6404FB024647EE5495
:103C3C0000F8EF5401F9E8497003023D6F9002AFB0
:103C4C00E07003023D649002E9E0640160089002B8
:103C5C00E9E064027023908B5F12217E7A007B0175
:103C6C009002ACE0F9120B827404121F17E9EE6497
:103C7C0000FAEF6401FB0246479002E97403F0126C
:103C8C0009E4E9900333F0120A1A9002F1EAF0A366
:103C9C00EBF0900333E0A2E4400E9002F1E06400FC
:103CAC007004A3E0640470261209FC908B6312214B
:103CBC007E7A007B019002ACE0F9120B8274041244
:103CCC001F17E9EE6400FAEF6401FB02464790030C
:103CDC0033E0A2E150539002F1C082C083900BC23A
:103CEC00E0F8A3E0F9D083D082C3E098A3E0995028
:103CFC000D120A1A9002F1EAF0A3EBF080D8900BA7
:103D0C00C2E0F8A3E0F9E8F97AF37B02120A2090FA
:103D1C000BC2E0F8A3E0F99002F1C3E098F0A3E045
:103D2C0099F07AF37B02120C1E900BBEE0F50CA3FB
:103D3C00E0F50DE4F50EF50F780C1221677A007B97
:103D4C00019002ACE0F9120B827404121F17E99077
:103D5C0002E97400F01209FCEE6400FAEF6401FB56
:103D6C00024647EE5400F8EF5408F9E849602C126B
:103D7C000BEEE97901120A56908B6712217E7A00BC
:103D8C007B019002ACE0F9120B827404121F17E94C
:103D9C00EE6400FAEF6408FB024647EE540470032D
:103DAC00023EA87508CB900338E0900BA0F090036E
:103DBC0038E0703712091EE9F50879CC12092A7916
:103DCC004412092A908B6B12217E7A047B0090029C
:103DDC00ACE0F9120B827404121F17E990033874CB
:103DEC0001F0E508900BA1F0023E8F12091EE9F5D7
:103DFC000879CC12092A79BE12092A120924E9F58C
:103E0C000B120924E9F50A9003387400F0E50890C8
:103E1C000BA2F0E50B900BA3F0E50A900BA4F012AB
:103E2C000924E9900BA5F0120924E9900BA6F012D5
:103E3C000924E9900BA7F0120924E9900BA8F012C1
:103E4C000924E9900BA9F0120924E9900BAAF012AD
:103E5C000924E9900BABF079087AA37B0B1209309B
:103E6C00E9900BACF0908B6F12217E7A047B009062
:103E7C0002ACE0F9120B827404121F17E99003389C
:103E8C007400F07C997D0B79177A077B0312100272
:103E9C00E9EE6404FAEF6400FB024647EE5400F8C6
:103EAC00EF5402F9E8497003023FC69002B0E06497
:103EBC00016003023FBB9002E9E0640160089002DC
:103ECC00E9E064037023908B5F12217E7A007B0201
:103EDC009002ACE0F9120B827404121F17E9EE6425
:103EEC0000FAEF6402FB0246479002E97402F0907C
:103EFC0002ECE0700F9002E7E0FAA3E0FB7900120D
:103F0C000C24801D9002E7E0FAA3E0FBEA2401F800
:103F1C00EB3400F99002E7E8F0A3E9F07901120C18
:103F2C00249002ECE07020908B5F12217E7A007B53
:103F3C00029002ACE0F9120B827404121F17E99084
:103F4C0002EC7401F080689002E7C3E0940EA3E0E9
:103F5C009400A2D265D03340389002E97400F090FE
:103F6C0002E77400F0A37400F0900BC0E0F50CA312
:103F7C00E0F50DE4F50EF50F780C1221677A007B55
:103F8C00029002ACE0F9120B827404121F17E98044
:103F9C0018908B7312217E7A007B029002ACE0F9B0
:103FAC00120B827404121F17E99002EC7400F0EEED
:103FBC006400FAEF6402FB024647EE5400F8EF543B
:103FCC0040F9E84970030240F69002B4E0700BEE41
:103FDC006400FAEF6440FB0246479002E9E064019A
:103FEC0060089002E9E064037023908B7712217EC5
:103FFC007A007B409002ACE0F9120B827404121F21
:10400C0017E9EE6400FAEF6440FB0246479002E9C0
:10401C007402F09002E5E0F97401299002E5F07465
:10402C0002121F4CAA82AB83120D9EE99002E6E0AD
:10403C0070267C307D0079FF7AB57B02120ABC9029
:10404C0002B574AAF09002B674BBF09002B774BBC0
:10405C00F09002E6E02403F07402121F4CE0C0E082
:10406C009002E6E0F8790074B528F582740239F50F
:10407C0083D0E0F09002E6E02401F07403121F4CB0
:10408C00E0C0E09002E6E0F8790074B528F582749F
:10409C000239F583D0E0F09002E6E02401F09002C2
:1040AC00E5E0C3940840209002E57400F0908B4743
:1040BC0012217E7A007B209002ACE0F9120B827404
:1040CC0004121F17E98018908B7B12217E7A007BDB
:1040DC00409002ACE0F9120B827404121F17E9EE47
:1040EC006400FAEF6440FB024647EE5400F8EF54CC
:1040FC0020F9E84970030242AB9002B4E0700BEE79
:10410C006400FAEF6420FB0246479002E9E0640188
:10411C0060089002E9E064037023908B7712217E93
:10412C007A007B209002ACE0F9120B827404121F0F
:10413C0017E9EE6400FAEF6420FB024647908C13FB
:10414C00C082C083851882851983AC82AD83D083ED
:10415C00D0827402121E149002E5E0F974012990C9
:10416C0002E5F0851882851983AA82AB83120F248D
:10417C00E9851882851983E0C0E09002E6E0F879C1
:10418C000074B528F582740239F583D0E0F0900202
:10419C00E6E02401F07401121F4CE0C0E09002E64E
:1041AC00E0F8790074B528F582740239F583D0E013
:1041BC00F09002E6E02401F09002E5E0C394085090
:1041CC00030242889002E6E0F8790074B528F58283
:1041DC00740239F583740DF09002E6E02401F0903E
:1041EC0002E6E0F8790074B528F582740239F5839B
:1041FC00740AF09002E6E02401F07C137D007AB59D
:10420C007B02120C667A007B007C007D0074041229
:10421C001F4CEAF0A3EBF0A3ECF0A3EDF0908B5F56
:10422C00780C121DD17404121F4C780C121BCD503B
:10423C0014908B33780C121DD17404121F4C780C13
:10424C00121D4A80D87C127D007AC87B02120C6643
:10425C009002E57400F09002E67400F09002E974AC
:10426C0000F0908B7F12217E7A007B409002ACE0B4
:10427C00F9120B827404121F17E98018908B7B12B1
:10428C00217E7A007B209002ACE0F9120B82740440
:10429C00121F17E9EE6400FAEF6420FB024647EEAA
:1042AC005402700302435E120B2E8A108B118C1277
:1042BC008D1385100C85110D85120E85130F741836
:1042CC00780C121CECE50C900BA0F085100C8511F1
:1042DC000D85120E85130F7410780C121CECE50C66
:1042EC00900BA1F085100C85110DE4E50DF50CE596
:1042FC000C900BA2F0A810A911E510900BA3F09054
:10430C008C19E0900BA4F07508FD74386508F50A5B
:10431C00E50A900BA5F0E508F4F50AE50A900BA662
:10432C00F07C997D0B79177A077B03121002E990C8
:10433C008B5F12217E7A027B009002ACE0F9120BAB
:10434C00827404121F17E9EE6402FAEF6400FB0298
:10435C004647EE5408700302442A9002B2E0700300
:10436C000244059002E9E0640360089002E9E0640D
:10437C00027023908B5F12217E7A087B009002AC36
:10438C00E0F9120B827404121F17E9EE6408FAEFBD
:10439C006400FB0246479002E97401F09002EBE0E6
:1043AC00F9120E1CE9F5089002EBE0640270291278
:1043BC000C309002EB7400F09002E97400F0900B5A
:1043CC00B612217E7A087B009002ACE0F9120B82C7
:1043DC007404121F17E9803B9002EBE02401F0906B
:1043EC008B8312217E7A087B009002ACE0F9120BD1
:1043FC00827404121F17E9801A7D047C0079007AFC
:10440C00207BAA120C607D017C0079017A207BAAAA
:10441C00120C60EE6408FAEF6400FB024647EE549F
:10442C0010606C9002AEE0603E120E94E964027073
:10443C0005120C2A8009120E94E97003120E9A9040
:10444C000BB4E0F50CA3E0F50DE4F50EF50F780CCC
:10445C001221677A107B009002ACE0F9120B827487
:10446C0004121F17E9801D120EA07D067C00790036
:10447C007A307BAA120C607D017C0079017A307B4A
:10448C00AA120C60EE6410FAEF6400FB024647EED1
:10449C00542070030245359002B1E0605A9002EA54
:1044AC00E060319002EA7400F0120C36900BBAE026
:1044BC00F50CA3E0F50DE4F50EF50F780C12216761
:1044CC007A207B009002ACE0F9120B827404121F6C
:1044DC0017E9804A9002EA7401F0120DAA908B87BA
:1044EC0012217E7A207B009002ACE0F9120B8274D0
:1044FC0004121F17E980277D047C0079007A407B29
:10450C00AA120C607D017C0079017A407BAA120C06
:10451C00607D107C0079037A407BAA120C60EE64FB
:10452C0020FAEF6400FB024647EE5440700302464B
:10453C0004120E04E9F5089002B3E070030245DDA5
:10454C00E50870269002EEE0F9120E0A120DEC90BE
:10455C008B9312217E7A407B009002ACE0F9120B17
:10456C00827404121F17E90245FA9002EFE0600E04
:10457C009002EEE0F9120E0A9002EF7400F0740251
:10458C006508702F120C3C900BBCE024C4F50CA3F6
:10459C00E034FFF50DE4F50EF50F780C1221677A77
:1045AC00407B009002ACE0F9120B827404121F17CE
:1045BC00E9803B120DFEE9908B9312217E7A407BB1
:1045CC00009002ACE0F9120B827404121F17E98000
:1045DC001D120DF27D067C0079007A507BAA120C1C
:1045EC00607D017C0079017A507BAA120C60EE642C
:1045FC0040FAEF6400FB8043EE5400F8EF5410F9DE
:10460C00E8496033750A58750B02780A12216B75EC
:10461C000A04750B00780A12216B79027C3F7D012C
:10462C007A2F7B0112104A7404121F17E9EE6400F2
:10463C00FAEF6410FB80047A007B007408121F17D9
:10464C007F0C02202A74F7121F58EAFEEBFF8E82B1
:10465C008F83E064C070148E828F83A3A3A3E0FACF
:10466C008E828F83A3A3E0F9120C0C7F0102202A07
:10467C0074F7121F5874FC121F01E9FEEAFF85182B
:10468C00828519837400F0EFA2E0400302473D904D
:10469C0002ED7401F0908B8B12217E7A807B00905E
:1046AC0002ACE0F9120B827404121F17E99002F0AD
:1046BC00E0706F9002ADE06405603E7403121F4C15
:1046CC00AC82AD837A057B03121008E97403121FC8
:1046DC004CE0700A7401121F4C7401F080087401D4
:1046EC00121F4C7400F07401121F4CAC82AD837914
:1046FC00017A057B03121002E99002ADE0640570AB
:10470C00307402121F4C7401F012101AE974021268
:10471C001F4CAC82AD8379017A057B03121002E940
:10472C00800FEFA2E0500A851882851983E0D2E24F
:10473C00F0EFA2E1500A851882851983E0D2E0F0EF
:10474C00EFA2E2500A851882851983E0D2E1F0EFDE
:10475C00A2E040069002ED7400F085188285198362
:10476C00AC82AD837A017900121050E97404121FE7
:10477C00177F0102202AC082C0839002AFE060063E
:10478C009002AF7400F09002B4E060069002B47432
:10479C0000F09002B2E06009120E169002B27400A2
:1047AC00F09002B0E060069002B07400F0D083D0BC
:1047BC008202013574F4121F5874E2121F01E9FED3
:1047CC00EE146016147003024979147003024996B2
:1047DC0024FE700302498302499985188285198346
:1047EC00AC82AD837A047B03121008E97508087556
:1047FC000900780812216B7402121F4CAC82AD8335
:10480C007418121F4CAA82AB83120AA47402121FD2
:10481C00177405121F4CE0C0E07407121F4CD0E057
:10482C00F07404121F4CE0C0E07406121F4CD0E070
:10483C00F07403121F4CE0C0E07405121F4CD0E062
:10484C00F07404121F4C7400F07403121F4C7400AB
:10485C00F0851882851983AC82AD837A08790012B1
:10486C000CA8E9908C11C082C0837408121F4CAC48
:10487C0082AD83D083D082740E121E147F00750912
:10488C0005E509C39400A2D265D0335003024966F2
:10489C00E509F83395E0F97416121F4CE58228F5FA
:1048AC0082E58339F583E0F508E508C3940A506B7B
:1048BC007C0F7D8CEFF87900E875F002A4C8AAF0A3
:1048CC0075F000A42AFA75F002E9A42AF97408120A
:1048DC001F4CE58228FAE58339FB121B9C7910EFFB
:1048EC00FA7B00EA75F002A4CAA8F075F000A428BF
:1048FC00F875F002EBA428FB7408121F4CE5822A11
:10490C00F582E5833BF583A3AC82AD8385080A75FC
:10491C000B00AA0AAB0B120BB280357910EFFA7BA5
:10492C0000EA75F002A4CAA8F075F000A428F87586
:10493C00F002EBA428FB7408121F4CE5822AFCE55C
:10494C00833BFD85080A750B00AA0AAB0B120BB250
:10495C000F74FF2509F50902488D7408121F4CAC21
:10496C0082AD837A0C7902120CA8E980207A017945
:10497C0001120E82E980167A007901120E82E990FA
:10498C0002E97400F0120C488003120C12EE900233
:10499C00ADF0741E121F177F0402202A74F4121F2C
:1049AC005874D1121F01EAFEEBFF7404121F4C74F1
:1049BC0000F0A37400F07402121F4C7400F0A37486
:1049CC0000F08518828519837400F0A37400F085BB
:1049DC001882851983858208858309780812216BD2
:1049EC007404121F4CAC82AD837406121F4CAA8245
:1049FC00AB831209EA7402121F17EEFCEFFD74066A
:104A0C00121F4CAA82AB83120BF4E97404121F4CD4
:104A1C00E0F508A3E0F50974087808121ECFE50844
:104A2C00740F121F4CE508F07404121F4CE0F8A32D
:104A3C00E0F9E8C0E0740E121F4CD0E0F0740212E2
:104A4C001F4CE0F508A3E0F50974087808121ECF96
:104A5C00E5087411121F4CE508F07402121F4CE0AB
:104A6C00F8A3E0F9E8C0E07410121F4CD0E0F08518
:104A7C001882851983E0F508A3E0F5097408780815
:104A8C00121ECFE5087413121F4CE508F08518822E
:104A9C00851983E0F8A3E0F9E8C0E07412121F4C0A
:104AAC00D0E0F07406121F4CE0F508A3E0F5097491
:104ABC00087808121ECFE5087415121F4CE508F093
:104ACC007406121F4CE0F8A3E0F9E8C0E07414126D
:104ADC001F4CD0E0F07408121F4CE0F508A3E0F571
:104AEC000974087808121ECFE5087417121F4CE5DC
:104AFC0008F07408121F4CE0F8A3E0F9E8C0E07469
:104B0C0016121F4CD0E0F0740A121F4CE0F508A3EB
:104B1C00E0F50974087808121ECFE5087419121F05
:104B2C004CE508F0740A121F4CE0F8A3E0F9E8C059
:104B3C00E07418121F4CD0E0F0740C121F4CE0F50E
:104B4C0008A3E0F50974087808121ECFE508741B59
:104B5C00121F4CE508F0740C121F4CE0F8A3E0F99E
:104B6C00E8C0E0741A121F4CD0E0F0741C121F4CF9
:104B7C0074AAF0741D121F4C74BBF0741E121F4CDF
:104B8C0074AAF075080E750900780812216B741060
:104B9C00121F4CAC82AD837421121F4CAA82AB83C2
:104BAC00120AA47402121F178A0A8B0B850A088535
:104BBC000B09742D121F4C740DF0742E121F4C74B3
:104BCC000AF07C137D00741C121F4CAA82AB83125A
:104BDC000C66742F121F177F0402202A74F0121F08
:104BEC0058748C121F01890B8A08908AD6C082C017
:104BFC00837404121F4CAC82AD83D083D0827408B2
:104C0C00121E14908AF6C082C083746C121F4CACB6
:104C1C0082AD83D083D0827408121E14908AEEC0A9
:104C2C0082C0837464121F4CAC82AD83D083D0825B
:104C3C007408121E14908AE6C082C083745C121F22
:104C4C004CAC82AD83D083D0827408121E14908A2F
:104C5C00DEC082C0837454121F4CAC82AD83D083EF
:104C6C00D0827408121E14908A7EC082C083744C49
:104C7C00121F4CAC82AD83D083D0827408121E14E8
:104C8C00908AC6C082C0837444121F4CAC82AD8320
:104C9C00D083D0827408121E14908ABEC082C08346
:104CAC00743C121F4CAC82AD83D083D0827408123A
:104CBC001E14908AB6C082C0837434121F4CAC820E
:104CCC00AD83D083D0827408121E14908AAEC08239
:104CDC00C083742C121F4CAC82AD83D083D08274F1
:104CEC0008121E14908AA6C082C0837424121F4C12
:104CFC00AC82AD83D083D0827408121E14908A9E2D
:104D0C00C082C083741C121F4CAC82AD83D083D084
:104D1C00827408121E14908A96C082C08374141276
:104D2C001F4CAC82AD83D083D0827408121E1490B9
:104D3C008A8EC082C083740C121F4CAC82AD83D09F
:104D4C0083D0827408121E147404121F4CAE82AFEE
:104D5C0083E508603914604214604B14605414608D
:104D6C005C14606414606C14607414607C147003C4
:104D7C00024E00147003024E0B147003024E1614F4
:104D8C007003024E21147003024E2C024E37740431
:104D9C00121F4CAE82AF83024E40746C121F4CAE8D
:104DAC0082AF83024E407464121F4CAE82AF8302FA
:104DBC004E40745C121F4CAE82AF838077745412D9
:104DCC001F4CAE82AF83806C744C121F4CAE82AF02
:104DDC008380617444121F4CAE82AF838056743C46
:104DEC00121F4CAE82AF83804B7434121F4CAE82B8
:104DFC00AF838040742C121F4CAE82AF838035740D
:104E0C0024121F4CAE82AF83802A741C121F4CAE2E
:104E1C0082AF83801F7414121F4CAE82AF83801438
:104E2C00740C121F4CAE82AF8380097404121F4C99
:104E3C00AE82AF83E50B7015120BCAE9EEFAEFFBED
:104E4C00120BE87A017944120BDC024FF0120BCAF8
:104E5C00E9EEFAEFFB120BE87A0079BE120BDC12CA
:104E6C000BE2E9F509120BE2E9F50AE50860030229
:104E7C004F1E9002E67400F07C307D0079FF7AB50D
:104E8C007B02120ABC9002E6E0F8790074B528F5B2
:104E9C0082740239F58374AAF09002E6E02401F0E2
:104EAC009002E6E0F8790074B528F582740239F5C1
:104EBC008374BBF09002E6E02401F09002E6E0F887
:104ECC00790074B528F582740239F58374BBF090BF
:104EDC0002E6E02401F0E5099002E6E0F8790074BE
:104EEC00B528F582740239F583E509F09002E6E005
:104EFC002401F0E50A9002E6E0F8790074B528F593
:104F0C0082740239F583E50AF09002E6E02401F0A0
:104F1C00803AE5099002E6E0F8790074B528F5824C
:104F2C00740239F583E509F09002E6E02401F0E51E
:104F3C000A9002E6E0F8790074B528F5827402391B
:104F4C00F583E50AF09002E6E02401F0740D6508A3
:104F5C006003024FF09002E6E0F8790074B528F592
:104F6C0082740239F583740DF09002E6E02401F0AE
:104F7C009002E6E0F8790074B528F582740239F5F0
:104F8C0083740AF09002E6E02401F07C117D007A33
:104F9C00B57B02120C667A007B007C007D008518C4
:104FAC0082851983EAF0A3EBF0A3ECF0A3EDF0906B
:104FBC008B5F780C121DD1851882851983780C12A1
:104FCC001BCD5015908B33780C121DD18518828512
:104FDC001983780C121D4A80D67C107D007AC67B12
:104FEC0002120C667474121F177F0802202AC082EA
:104FFC00C08374FA121F01851882851983AA82ABAB
:10500C0083120EA6E96012851882851983AC82ADD5
:10501C00837A067900120F42E97406121F17D083A7
:10502C00D082020135C082C08374F5121F0174074F
:10503C00121F4CAA82AB83120E22E9605C85188287
:10504C0085198374AAF07401121F4C74BBF074029E
:10505C00121F4C74CCF07409121F4CE0C0E07403A6
:10506C00121F4CD0E0F0740A121F4CE0C0E0740424
:10507C00121F4CD0E0F07405121F4C740DF0740626
:10508C00121F4C740AF07C077D00851882851983E9
:10509C00AA82AB83120C66804A85188285198374A8
:1050AC00AAF07401121F4C74BBF07402121F4C74E2
:1050BC00CCF07403121F4C7476F07404121F4C74F1
:1050CC0076F07405121F4C740DF07406121F4C749C
:1050DC000AF07C077D00851882851983AA82AB8330
:1050EC00120C66740B121F17D083D082020135C0CC
:1050FC0082C08374FC121F01851882851983AA82D1
:10510C00AB83120DB0E96012851882851983AC82CD
:10511C00AD837A047900120C72E97404121F17D053
:10512C0083D082020135C082C08374FA121F0185BC
:10513C001882851983AA82AB83120DF8E960128557
:10514C001882851983AC82AD837A067900120D8C96
:10515C00E97406121F17D083D08202013574F7123E
:10516C001F5874FF121F01E9FE146005146059806A
:10517C0061851882851983AA82AB837901120F5439
:10518C00E9851882851983E0701B9002AFE06042BC
:10519C009002AF7400F07A007B019002ACE0F9123F
:1051AC000AF8E9802D9002AFE0700D7A007B019037
:1051BC0002ACE0F9120AF8E9851882851983E090AF
:1051CC0002AFF012099C800A7ABE7B0B7902120F97
:1051DC0054E97401121F177F0102202AC082C08378
:1051EC009002B4E0702A9002B47401F09002E6745C
:1051FC0000F09002E57400F0908B8F12217E7A0003
:10520C007B409002ACE0F9120B827404121F17E978
:10521C00D083D08202013574F7121F5874FF121F0D
:10522C0001E9FE1460051460608068851882851998
:10523C0083AA82AB837901120EFAE985188285194B
:10524C0083E070199002B2E060139002B27400F027
:10525C007A087B009002ACE0F9120AF8E985188212
:10526C00851983E06401702B9002B2E070259002E6
:10527C00B27401F09002EB7400F07A087B0090029B
:10528C00ACE0F9120AF8E9800A7AB67B0B790212C3
:10529C000EFAE97401121F177F0102202A74F01212
:1052AC001F5874F8121F01890A7401650A60030201
:1052BC005368851882851983AA82AB837901120CF5
:1052CC008AE9851882851983E0FA7B007401121F24
:1052DC004CE0F87900E4C8F9EA28F8EB39F9E8FE73
:1052EC00E9FF7402121F4CE0FA7B007403121F4C8E
:1052FC00E0F87900E4C8F9EA28F8EB39F98808896C
:10530C00097404121F4CE0FA7B007405121F4CE068
:10531C00F87900E4C8F9EA28F8EB39F9880E890F16
:10532C007406121F4CE0FA7B007407121F4CE0F855
:10533C007900E4C8F9EA28F8EB39F9880C890D787A
:10534C000C12216B780E12216B7902AC08AD09EEB0
:10535C00FAEFFB12104A7404121F17E97402650A63
:10536C00700412101AE97408121F177F0802202A01
:10537C0074F4121F5874FA121F01EAFEEBFF8C082A
:10538C008D097412121F4CE0F50AA3E0F50BEE85A3
:10539C001882851983F0EEF8EFF9E4E9F8C0E074AF
:1053AC0001121F4CD0E0F0E5087402121F4CE50806
:1053BC00F0A808A909E4E509A809E5097403121F76
:1053CC004CE509F0E50A7404121F4CE50AF0A80A32
:1053DC00A90BE4E50BA80BE50B7405121F4CE50BB0
:1053EC00F0851882851983AC82AD837A0679001218
:1053FC000C84E97406121F177F0402202A74F01221
:10540C001F588A0A8B0B89088C0C8D0985090E751F
:10541C000F00AA0EAB0F120B408A0E8B0FAE0EAF05
:10542C000FEE4F70030254C985090E750F00AC0EB8
:10543C00AD0FA90CEEFAEFFB120ABC850A0E850B18
:10544C000F780E1221F50000060000AA705410AA65
:10545C007E5420AA9A5430AA8C5440AAA85450AA1C
:10546C00B654C254EEFCEFFDAA09A908120F3CE990
:10547C008044EEFCEFFDAA09A908120C6CE98036F9
:10548C00EEFCEFFDAA09A908120F42E98028EEFCF8
:10549C00EFFDAA09A908120EF4E9801AEEFCEFFD43
:1054AC00AA09A908120C72E9800CEEFCEFFDAA09FE
:1054BC00A908120D8CE9EEFAEFFB120B467F0802DD
:1054CC00202A74F3121F588A088B09ECFEEDFFC3D7
:1054DC00EE9415EF94004005750C148003EEF50C5A
:1054EC00900339742EF0A37400F0E50C90033BF09C
:1054FC00850C0A750B00780A12216BAC08AD097A81
:10550C003C7B03120AA47402121F1779007C397DAC
:10551C00037A007B00121320E97F0502202A74EE27
:10552C00121F5874FA121F018A0A8B0B8909ECFEA0
:10553C00EDFF750800850A0C850B0D780C1221AF58
:10554C00000410035873559455B355D455F555169E
:10555C005649566A568156AF566D578E57AE57D828
:10556C005703580358DA567401650970158E828FEB
:10557C0083E0C39403500B8E828F83E0900E43F034
:10558C00800375081802582C7402650970138E82FA
:10559C008F83E0F8A3E0F9900E44E8F0A3E9F080E3
:1055AC000375081802582C7401650970158E828FCA
:1055BC0083E0C39402500B8E828F83E090039BF0A8
:1055CC00800375081802582C7401650970158E82B9
:1055DC008F83E0C39405500B8E828F83E090039CE5
:1055EC00F0800375081802582C7401650970158E2B
:1055FC00828F83E0C39402500B8E828F83E09003E2
:10560C009DF0800375081802582C741065097027DA
:10561C00750C10750D00780C12216BEEFCEFFD7AF9
:10562C009E7B03120AA47402121F178A0C8B0D8521
:10563C000C82850D83800375081802582C74016543
:10564C000970158E828F83E0C39402500B8E828F6B
:10565C0083E09003AEF0800375081802582C740197
:10566C006509700B8E828F83E0900E47F080037576
:10567C00081802582C740465097022908B4B780C16
:10568C00121DD18E828F83780C121BCD500F8E82FF
:10569C008F83121DEF9003B0121DFB800375081849
:1056AC0002582CE50970211212A8E97013120D3260
:1056BC00E9F50C7950120FFCE9F50D120D20800B59
:1056CC009004437401F0800375081802582C740779
:1056DC0065096003025767750E06750F00780E1288
:1056EC00216B8E828F83A3AC82AD837402121F4C0C
:1056FC00AA82AB83120AAA7402121F178A108B118A
:10570C0085100E85110F7C007D008518828519830C
:10571C00AA82AB838E828F83E0F9120CC6E9F50C5A
:10572C00E50CC3940A502F1212A8E97015A90C129B
:10573C000D38E9F50D7950120FFCE9F50E120D201C
:10574C00801C750D007444250CF5827404350DF520
:10575C00837401F0800875080280037508180258DC
:10576C002C7401650970158E828F83E0C3940250EE
:10577C000B8E828F83E09003AFF0800375081802C4
:10578C00582C7401650970158E828F83E0C3940ABE
:10579C00500B8E828F83E0900E46F08003750818B4
:1057AC00807E74016509701F8E828F83E0C394071D
:1057BC0040158E828F83E0C39411500B8E828F83A1
:1057CC00E0900E48F08059750818805474016509F2
:1057DC007020900442E0F50C8E828F83E09004429E
:1057EC00F0E50C703B900442E064017033120D2024
:1057FC00802E7508188029C3E50A9427E50B9400C0
:10580C00501B7402650970158E828F83E0FCA3E037
:10581C00FDAA0AAB0B121146E9F5088003750802C4
:10582C00A9087406121F177F0A02202A74EC121F93
:10583C005874DA121F01890D8A128B138C0A8D0B86
:10584C00743A121F4CE0F50C908B04C082C0838517
:10585C001882851983AC82AD83D083D082740612F2
:10586C001E14851882851983AC82AD83AA12AB13E2
:10587C00A90D120CC6E9FEEEC3940A40030259D7D7
:10588C00EEF9120D02E9FF900E43E064027004740D
:10589C000180027400F508780812216FAD0CEFFC42
:1058AC00EEF9AA0AAB0B120D747401121F177C14BB
:1058BC007D0079007412121F4CAA82AB83120ABCB1
:1058CC008A0E8B0F850E08850F097412121F4CACB3
:1058DC0082AD837A1075F006EEA42424F9120FF62B
:1058EC00E970437C1079FF7412121F4CAA82AB83AF
:1058FC00120B1CE970307422121F4CAC82AD837AEF
:10590C000475F006EEA42425F9120FF6E9F50874D7
:10591C0012121F4CAC82AD83EFA2E0E433F9AA0A59
:10592C00AB0B1211D0E97406121F4CAC82AD837A0A
:10593C000C74702EF9120FF6E9707E7406121F4C5F
:10594C00AA82AB83120CF6750E00E50EC3940450BC
:10595C0068E50EA80E7900E875F003A4C8AAF075E6
:10596C00F000A42AFA75F003E9A42AF97406121FB0
:10597C004CE58228F508E58339F509850882850907
:10598C0083E0F8A3E0F9E849602B85088285098358
:10599C00A3A3E0F510751100781012216B85088215
:1059AC00850983E0FCA3E0FDAA0AAB0B1214347446
:1059BC0002121F17E9050E8091EFA2E1500D900322
:1059CC009AE0F9AA0AAB0B12143AE97404650C704C
:1059DC000F900E43E064027007AA0AAB0B120D6E17
:1059EC0079007426121F177F0C02202A74F2121FE2
:1059FC0058890BEAFEEBFF8C088D09750A0AE50B3A
:105A0C00600C146009146044146064025A9CEEFA31
:105A1C00EFFB120D14E9F50AE50AC3940A5071E57F
:105A2C00084509606B750C06750D00780C12216B1E
:105A3C00EEFCEFFDAA08AB09120AA47402121F17A0
:105A4C008A0C8B0D850C82850D838044EEFAEFFB5E
:105A5C00120D0EE9F50AE50AC3940A5033E5084520
:105A6C0009602DAA08AB09A90A120D08E98021EEDC
:105A7C00FAEFFB120D1AE9F50AE50AC3940A501065
:105A8C00E5084509600AAA08AB09A90A120D08E93C
:105A9C00A90A7F0602202A74F2121F588A0C8B0D59
:105AAC00E9FE7F1574FF650C700474FF650D702A98
:105ABC00750800E508C3940A5014EEFC7A027B00CA
:105ACC00A908120CE4E960027F00050880E5EE608D
:105ADC00637A5C7B0D121632805AAA0CAB0D12162F
:105AEC00148A0A8B0B850A08850B09E508450960A1
:105AFC00417C007D00E5082405FAE5093400FB85AE
:105B0C000882850983A3A3A3A3E0F9120CC6E9F5C7
:105B1C000AE50AC3940A500EEEFC7A027B00A90A2D
