:020000040000FA
:0600000002011D022B3B72
:03002B000223FBB2
:030033000223D3D2
:03005300022BAECF
:03006B0002237AF3
:03007B000223A2BB
:100083000229A7E5C754F84401F5C7790122000006
:100093000080FB120086B90003020107E47921788E
:1000A30008B800028004F709D8FCE479297802B87B
:1000B30000028004F709D8FCE490028178F2790801
:1000C3008002F0A3D8FCD9FA781A90014D7A01BACC
:1000D30000028007E493A3F608DAF9900A72AA8271
:1000E300AB8390014E786479098015E493A3AC82C5
:1000F300AD838A828B83F0A3AA82AB838C828D83A8
:10010300D8E9D9E775820C7583AA740412012F7597
:100113008291758300740012012F75D00075813FA1
:10012300751881751902759F00020096C09FF59F8F
:10013300E473D09F22D083D082C09FE493C0E07445
:100143000193C0E0740293F59F2201B109B709BD81
:1001530009C309C909CF09D509DB09E109E709ED94
:1001630009F309F909FF09050A0B0A68FFFF037B75
:10017300034CCD6C03AB0336567600680402CB47C1
:10018300A202180400058BC1010C04000000000347
:100193007F060CC92C979797038903264666006C44
:1001A300022000024004000000000244040000009A
:1001B3000002480400000000024C0400000000029A
:1001C3005004000000000254040000000002580420
:1001D30000000000025C040000000002BC040000F8
:1001E300000001EC0400004000037F060CC92C97BB
:1001F30097970402030D355D040904872D353D00EF
:10020300A3010000000001078601FE074105F1205C
:10021300283038077E01300746019A074704F12842
:100223003038076C04F1283038021602000101B29D
:1002330002FFFF0190040923A135016A02060001B0
:10024300600800000000000000000060044000009F
:10025300000162020000006004004000000B095628
:10026300756C7475726545676705122F013F01024E
:100273000A000201061302454501020304050607AD
:1002830008090A0B0C0D0E0F1045676700D007E82D
:1002930003E8037011E803E803D00760EA2A008D3E
:1002A3000C0000C30CC90CCF0CD50CDB0C011241A4
:1002B3006363656C2E2044617461000A4163636566
:1002C3006C2E20436F6E662E000A0A416363656CD1
:1002D3002E20506572696F640002428C0100003D5C
:1002E3008C02EE8A010000D50B10288A010000431E
:1002F3000302468C030000460302748C010000D6FF
:100303000B02EE8A010000E20B10388A0300004C56
:100313000302748C010000E30B02EE8A010000F07B
:100323000B10488A030000F10B02748C010000F2E9
:100333000B124261726F6D2E2044617461000A4298
:1003430061726F6D2E20436F6E662E0002426172E2
:100353006F6D2E2043616C6962722E000A0A42613E
:10036300726F6D2E20506572696F640002428C01BA
:100373000000198C02EE8A010000580C10788A01E3
:1003830000004D0302468C030000510302748C01EC
:100393000000590C02EE8A010000650C10888A03E4
:1003A3000000570302748C010000660C02EE8A0100
:1003B3000000830C10A88A030000840C02748C01D3
:1003C3000000850C02EE8A010000730C10988A016C
:1003D3000000580302468C030000680302748C017A
:1003E3000000740C12436F6E6E2E20506172616DAB
:1003F300730008436F6E6E2E20506172616D73201F
:100403005265710008446973636F6E6E656374208F
:100413005265710002428C0100001F8C02EE8A01BA
:1004230000000B0D10588A010000700302468C0374
:100433000000760302748C0100000C0D02EE8A01A9
:100443000000190D10088A0200007C0302748C015D
:1004530000001A0D02EE8A0100002B0D10F889022C
:100463000000840302748C0100002C0D020202318F
:100473003233343536373839303132000202020232
:100483000202010D000000100102428C0100003144
:100493008C02EE8A010000930D026C8C0100008532
:1004A3000302EE8A010000940D026A8C010000949D
:1004B3008B02EE8A010000950D02648C0100009608
:1004C3000D02EE8A010000A40D02608C01000016EB
:1004D3008B02EE8A010000A50D025E8C010000A5CF
:1004E3008B02EE8A010000A30D02568C0100005E10
:1004F3008B02EE8A010000A60D02548C010000D984
:100503008702EE8A010000A70D02528C010000C889
:100513008A02EE8A010000A80D024E8C010000A998
:100523000D12447331386232302E204461746100FD
:100533000A447331386232302E20436F6E662E00C8
:100543000AD007447331386232302E205065726905
:100553006F640002428C010000348C02EE8A0100B9
:1005630000480E10C8890100008F0302468C030067
:1005730000910302748C010000490E02EE8A01000F
:1005830000570E10B889030000970302748C010012
:1005930000580E02EE8A010000670E10A8890300BE
:1005A30000680E02748C0100006A0E01E803053F27
:1005B300100A124779726F2044617461000A477907
:1005C300726F20436F6E662E000A0A4779726F209E
:1005D300506572696F640002428C0100001C8C023A
:1005E300EE8A010000D90E1088890100005204022E
:1005F300468C030000580402748C010000DA0E02DA
:10060300EE8A010000E40E1078890300005E040204
:10061300748C010000E50E02EE8A010000F00E105A
:100623006889030000F10E02748C010000F20E01D0
:10063300030080700061801248756D69642E204448
:10064300617461000A48756D69642E20436F6E669C
:100653002E000AD00748756D69642E2050657269B3
:100663006F640002428C010000288C02EE8A0100B4
:10067300005E0F104889010000C20402468C03008B
:1006830000C60402748C0100005F0F02EE8A0100B1
:10069300006B0F103889030000CC0402748C010036
:1006A300006C0F02EE8A010000790F102889030005
:1006B300007A0F02748C0100007C0F01481254650C
:1006C3006D702E2044617461000A54656D702E2094
:1006D300436F6E662E000A1E54656D702E205065A2
:1006E30072696F640002428C0100003A8C02EE8A48
:1006F300010000E40F100889010000CE0402468CBB
:10070300030000D20402748C010000E50F02EE8A9C
:10071300010000F00F10F888030000D80402748C65
:10072300010000F10F02EE8A010000FD0F10E888BE
:10073300030000FE0F02748C010000FF0F124D61D5
:10074300676E2E2044617461000A4D61676E2E202E
:10075300436F6E662E000A0A4D61676E2E20506548
:1007630072696F640002428C010000378C02EE8ACA
:10077300010000641010C888010000D90402468CEF
:10078300030000DF0402748C010000651002EE8A8E
:10079300010000701010B888030000E50402748C97
:1007A300010000711002EE8A0100007D1010A8887C
:1007B3000300007E1002748C0100007F10124D7044
:1007C30075363035302E2044617461000A4D7075E2
:1007D300363035302E20436F6E662E000AC8004D2A
:1007E3007075363035302E20506572696F640002A3
:1007F300428C0100002E8C02EE8A010000E41010EE
:100803008888010000E80402468C030000F6040215
:10081300748C010000E51002EE8A010000F3101051
:100823007888030000FC0402748C010000F41002B9
:10083300EE8A01000003111068880300000411020E
:10084300748C0100000611FF0001307503020106DC
:100853000000000000000000000000000000000095
:10086300000000000000000000000000FFFF060081
:10087300800CE803104B6579205072657373205325
:10088300746174650002428C0100002B8C02EE8AB5
:100893000100009B11025A8C000000AC0502468C3B
:1008A300030000AD0502748C0100009C11FF0000E1
:1008B300B4000028002800283075A000A000A00084
:1008C300A00000080008E001F00010001000100074
:1008D30010001000100050005000500010001000D5
:1008E300D0070000000000000F0001000500307574
:1008F30007001000010081FF00000000FF171335FF
:10090300131D13FF02020208025000A0000000E8BA
:100913000302428C010000258C02EE8A0100002BA9
:1009230012024A8C010000E50502EE8A0100002C48
:1009330012024C8C010000FB0502EE8A0100002D1F
:1009430012025C8C010000FD0502EE8A0100002EFC
:100953001202628C080000FE0502EE8A0100002FDD
:100963001202688C0100003012FF0100FF200242D6
:100973008C010000228C02EE8A01000094120272A4
:100983008C000000000002468C0300004B06ED18AB
:10099300ED18ED18ED18ED18ED18ED18ED18ED182C
:1009A300ED18ED18ED18ED18811B991B7B1B120137
:1009B3003802C3031201384EC303120138A4C30320
:1009C30012013849C403120138FDC4031201381C53
:1009D300C5031201383BC50312013869C50312016F
:1009E300389CC50312013815C6031201389BC60390
:1009F3001201383BC70312013800C8031201383211
:100A0300C80312013867C80312013895C8031201DD
:100A130038F4F00212013813F10212013836F102F0
:100A23001201385DF10212013884F102120138AB70
:100A3300F102120138D2F102120138F5F10212016A
:100A43003818F2021201383BF2021201385EF20248
:100A530012013890F202120138B3F202120138DDAA
:100A6300F20212013879F3021201389EF3021201E5
:100A730038C3F302120138E8F3021201380DF4020D
:100A830012013832F40212013857F4021201387E8F
:100A9300F402120138BCF402120138E8F402120124
:100AA3003814F50212013839F50212013872F502D1
:100AB30012013899F502120138D2F502120138F900
:100AC300F50212013832F60212013859F602120108
:100AD300387EF602120138A3F602120138E1F6025B
:100AE30012013804F7021201382EF7021201380DF1
:100AF300F802120138B5F90212013805FA0212019F
:100B03003832FB0212013851FB0212013874FB0226
:100B130012013897A603120138ACA6031201380458
:100B2300A7031201386BA703120138B3A7031201FD
:100B33003829A80312013858A80312013866A803FC
:100B4300120138CAA80312013808A9031201382375
:100B5300A903120138BBA90312013864AA031201C5
:100B630038E7AA0312013820AB03120138ABAB03F9
:100B730012013802AC0312013861AC03120138735D
:100B8300AC0312013899AC03120138A2AC03120171
:100B93003801AE03120138019B04120138E09B04B3
:100BA300120138808504120138C585041201380BFF
:100BB30086041201389E8704120138A5A20412018B
:100BC30038C0A204120138D0A20412013827A304AA
:100BD3001201385BA804120138D5BC03120138F5A1
:100BE300BC03120138F9BD0312013845BE031201DB
:100BF3003865BE03120138B8BE0312013825BF039E
:100C03001201386BBF03120138CFBF0312013881C1
:100C1300C203120138E18904120138118A04120156
:100C230038418A04120138048B041201385E8B04A4
:100C33001201387292041201388A9204120138E7C1
:100C430092041201382B93041201385D93041201AC
:100C530038949304120138B79304120138743200A4
:100C6300120138063900120138CD3900120138D388
:100C73003900120138533C0012013851450012016A
:100C8300387C4500120138824600120138B4460010
:100C9300120138B14800120138E84800120138281F
:100CA3004B001201383A4F00120138714F00120104
:100CB300383B5000120138725000120138A950001D
:100CC300120138E050001201385F5100120138E17F
:100CD30051001201386752001201383A53001201D1
:100CE30038C753001201388C54001201382CA40465
:100CF300120138A29E04120138F6E00312013849AA
:100D0300E10312013866E1031201383BE2031201E9
:100D130038B8E20312013895E3031201380AE503F8
:100D2300120138EFCD0312013814CE0312013872C9
:100D3300CE0312013854E903120138A7E903120163
:100D430038D0E90312013839EA0312013877EB038B
:100D530012013831ED03120138FEA804120138E8FC
:100D63005400120138F65700120138B65900120127
:100D730038615A00120138055B001201389E5B008E
:100D8300120138CD5B00120138A7600012013852FE
:100D93006100120138C262001201382A6300120195
:100DA30038DE6300120138A06600120138DF6600E6
:100DB300120138536700120138B26700120138116B
:100DC300680012013880680012013873690012014B
:100DD30038B96900120138FE6900120138216A002E
:100DE3001201389C6B00120138AF6B00120138B846
:100DF3006C00120138F76C00120138236D001201E8
:100E030038766D00120138976D00120138DB6D00E2
:100E13001201382D70001201386E7000120138195A
:100E23007100120138847100120138C1720012017D
:100E330038E2A404120138808D04120138B98E04FB
:100E4300120138DCA004120138BCA104120138736A
:100E5300A30412013891A3041201381AA404120145
:100E630038E4FF02120138769D04120138869D048E
:100E7300120138979D041201389C9E04120138F424
:100E8300FA031201389AFB03120138B6FD0312016B
:100E930038D1FD0312013833FE03120138ABFE03D0
:100EA30012013853FF0312013872FF031201388213
:100EB300FF03120138C1FF031201385E98041201C7
:100EC300389898041201380B990412013845990493
:100ED3001201385799041201388E9904120138D23D
:100EE3009004120138219104120138539104120124
:100EF30038E491041201386092041201388E95048B
:100F0300120138B79504120138E09504120138A094
:100F13009604120138F19604120138019404120167
:100F230038349404120138B09404120138D0940474
:100F33001201383595041201387D95041201388069
:100F430095041201386DAB041201387FAB04120112
:100F53003882AB041201383C9C041201388B9C0488
:100F6300120138B79C04120138D79C04120138646B
:100F73009D04120138B29904120138039A04120134
:100F8300384A9A04120138D49A04120138F87F00BF
:100F9300120138D38204120138CA8404120138368C
:100FA30085041201387D850412013808D303120128
:100FB300385BD30312013884D30312013842D403BC
:100FC300120138ABD403120138E9D503120138A357
:100FD300D703120138A39403120138A39603120115
:100FE30038A39803120138CA99031201387C9D0370
:100FF300120138E79D0312013898A5041201384EF7
:10100300A6041201383AE5031201388DE5031201F3
:1010130038B6E5031201381FE6031201385DE70312
:1010230012013817E903120138E287041201384B21
:1010330088041201380989041201388889041201CD
:1010430038D5F40312013807F5031201380FF603FC
:1010530012013834F703120138008003120138E615
:1010630080031201383381031201387681031201A0
:1010730038EB81031201384C8203120138C1820319
:101083001201389D8303120138A884031201382901
:101093008503120138D086031201386687031201D3
:1010A30038D987031201385588031201386C880335
:1010B300120138A38903120138FD89031201380490
:1010C300E8011201389CEC0112013870EF011201A2
:1010D3003899EF01120138B0EF01120138D9EF014D
:1010E3001201388BF00112013871F201120138AC90
:1010F300F301120138E2F8011201381BF901120160
:10110300385FF90112013871FA0112013880AA041B
:1011130012013804A704120138C68B04120138DD0A
:101123008B041201380E8C04120138498C0412010D
:1011330038738C041201389D8C04120138B48C046A
:10114300120138CB8C04120138E28C041201380BE3
:101153008D041201381E8D04120138348D041201DE
:1011630038478D041201386E8D04120138698A03E1
:101173001201386D8B03120138A58B03120138C895
:101183008B03120138D38B03120138F68B03120140
:1011930038058D03120138DA8D03120138558E0399
:1011A300120138DD8E03120138188F031201384FF4
:1011B3008F03120138DD8F03120138B69003120139
:1011C30038169103120138219103120138A09103BB
:1011D300120138A39103120138A691031201383585
:1011E30092031201383892031201386892031201F4
:1011F3003892920312013880930312013832940318
:1012030012013831FB0112013859FB0112013887F1
:10121300FB01120138BEFB011201381CFC01120153
:101223003867FC01120138B2FC01120138F2FC01EB
:1012330012013838FD0112013866FD01120138230D
:10124300FE011201382DFE011201383AFE0112018E
:10125300386DFE0112013839FF0112013845FF01D3
:101263001201385DFF0112013867FF01120138CE08
:10127300A104120138DCA104120138F4A104120103
:10128300380CA204120138519F02120138FD9F024B
:1012930012013878A00212013899A102120138D53F
:1012A300A1021201387EA20212013865A3021201C3
:1012B30038C9A40212013820A502120138A1A502DF
:1012C30012013891A602120138DEA6021201386417
:1012D300A70212013896A702120138AAA902120125
:1012E30038ECA9021201380AAA021201388DAA02A7
:1012F30012013861AB0212013829AC02120138B273
:10130300B50312013885B6031201382EB703120153
:101313003881B70312013831B803120138BDB8035D
:10132300120138A9B903120138D8B903120138EBF5
:10133300BA0312013833BB0312013808BC0312018C
:101343003844BC0312013860BC0312013888A90475
:101353001201383CF10312013852F10312013878BB
:10136300F10312013894F2031201389EF2031201C1
:1013730038D3F303120138CBF403120138C8C8037E
:10138300120138F8C9031201382BCA031201387548
:10139300CA031201383CCC03120138008002120147
:1013A300386A8002120138C98102120138D98102D8
:1013B3001201380682021201385D820212013806D8
:1013C30083021201380D8402120138D784021201FC
:1013D300383786021201387A86021201381F8702D3
:1013E3001201386C8702120138928702120138A069
:1013F3008902120138A58902120138AA8B0212014F
:1014030038F78B021201386A8C021201389D8C0264
:101413001201383F8D02120138E88D021201382083
:101423008E02120138238E021201386B8E021201D2
:1014330038AB8E02120138028F0212013800800489
:1014430012013818800412013860800412013876C2
:101453008004120138BD8004120138D181041201C5
:10146300385E8204120138A98204120138798C0192
:10147300120138858C01120138C08C011201380524
:101483008D01120138C58D011201384B8E011201F5
:1014930038B08E01120138DC8E01120138158F012C
:1014A3001201385391011201383793011201381D8B
:1014B3009501120138609601120138AE98011201AC
:1014C30038C099011201380B9B011201381B9C0192
:1014D300120138389C01120138739C0112013895AE
:1014E3009C01120138F89C01120138B9A1011201C3
:1014F300384EA2011201389FA201120138C6A2017F
:1015030012013818A30112013836A30112013890D1
:10151300A30112013879A401120138EFA5011201C8
:101523003873A601120138E0D703120138EAD70352
:101533001201382DD80312013848D803120138D8C4
:10154300D80312013800D9031201383DD90312011F
:101553003874D9031201389DD90312013812DA0302
:1015630012013827DA031201383CDA031201386D0D
:10157300DA0312013881DA03120138A6DA03120101
:1015830038E0DA031201380CDB0312013844DB03C1
:10159300120138C3DB031201380CDC0312013836A5
:1015A300DC0312013861DC03120138C39F0412010A
:1015B30038F5720012013823730012013871740078
:1015C300120138517500120138707500120138ED9F
:1015D3007500120138307600120138867700120147
:1015E30038477800120138CE7A001201386F7B0039
:1015F300120138657C00120138627D00120138BC8B
:101603007E00120138477F0012013803970412014C
:10161300386C9704120138C09704120138E7970415
:1016230012013818980412013889DC03120138F6C4
:10163300DC031201383DDD0312013855DE031201CC
:101643003851DF0312013834E0031201382E9E03B0
:10165300120138709E03120138429F031201381B96
:10166300A00312013815A103120138F7A1031201D7
:101673003860A20312013816A3031201388AA303A8
:10168300120138F6A3031201381FA403120138997B
:10169300A40312013832A50312013897A5031201DE
:1016A30038ACA503120138F2A5031201380BA603C7
:1016B30012013870A60312013873A603120138FB16
:1016C300F70312013823F80312013861F8031201FA
:1016D300381FF90312013886F903120138A2F903FE
:1016E300120138CAF903120138FAF9031201380951
:1016F300FA0312013886FA03120138ACFA03120115
:1017030038EF8F02120138CD9102120138FF930294
:101713001201383B940212013868940212013852C4
:1017230095021201389D9502120138E895021201C3
:1017330038FA95021201383A96021201386F96026E
:10174300120138BD9602120138EC96021201380FCD
:1017530097021201385C9702120138E197021201D5
:1017630038FB99021201383A9C021201387B9C0221
:101773001201381D9E021201385E9E02120138D1F9
:101783009E02120138279F02120138B1D8021201BA
:1017930038AFD90212013848E00212013869E20277
:1017A30012013834E4021201389CE502120138DADE
:1017B300A60112013889A701120138B6A701120147
:1017C30038FCA7011201383CA901120138D2AA0141
:1017D3001201384CAB0112013867AB01120138E238
:1017E300AB011201383CAD011201389CAE0112016C
:1017F30038A2AF0112013803B1011201381CB10143
:101803001201387AB10112013868B2011201389B12
:10181300B2011201380BB30112013885B301120171
:1018230038CFB30112013899B4011201386EB501F2
:101833001201384DB601120138D8B60112013846EB
:10184300B701120138BAB701120138E5B701120125
:1018530038A4B80112013809BA0112013826BA01B5
:1018630012013845BA0112013836BB011201385B47
:10187300BB0112013885BB0112013800BC01120102
:10188300385ABC01120138C3BD0112013871BE01BF
:10189300120138B2BE01120138DDCA021201382B1F
:1018A300CB0212013837CB0212013815CC021201D8
:1018B3003846CC0212013877CC02120138F7CC0239
:1018C3001201382FCD0212013881CD02120138BE28
:1018D300CD02120138DBCF0212013801D20212010C
:1018E30038ECD302120138D6D5021201386932001E
:1018F300120138F1D30112013821D401120138FA4F
:10190300DA011201387FDC011201387CE201120195
:101913003864E301120138A1E301120138C4E30181
:10192300120138F5E301120138FEE3011201380810
:10193300E401120138F6E401120138ECE501120169
:1019430038E2BE01120138E1C201120138E7C201D7
:1019530012013822CA011201383BCF011201386E3D
:10196300ED0312013804EE031201381AEE031201DB
:101973003890EE0312013804EF0312013842EF03EB
:10198300120138B6EF031201382FF0031201383871
:10199300F00312013844F00312013859F003120125
:1019A3003897F003120138ADF0031201380CF1033C
:1019B30012013897FB02120138A4FB02120138BE50
:1019C300FB02120138FDFB021201383BFC0212013B
:1019D30038A0FC02120138B5FC02120138C0FC0227
:1019E300120138CDFC02120138E4FC02120138F274
:1019F300FC02120138FDFC0212013809FD0212013A
:101A03003818FD0212013823FD0212013846FD0287
:101A1300120138EDFD02120138FDFD0212013817E3
:101A2300FE0212013834FE0212013850FE02120186
:101A33003875FE0212013880FE0212013895FE024B
:101A4300120138A9FE021201380AFF0212013810EE
:101A5300FF0212013816FF021201381CFF021201A5
:101A63003834FF0212013867FF02120138B3BC0297
:101A730012013837BD02120138E6BD0212013845A2
:101A8300BF0212013866C10212013852C2021201AA
:101A93003887C202120138A9C20212013858C302A0
:101AA30012013850C50212013879C5021201380BF0
:101AB300C6021201383DC6021201384AC60212019B
:101AC30038A1C602120138C7C60212013834C9024E
:101AD30012013837CA021201388FCA021201384282
:101AE300AE021201384CAF0212013833B0021201B8
:101AF300383DB0021201385FB0021201386BB002F8
:101B030012013804B20212013833B2021201384F03
:101B1300B302120138A8B3021201380EB502120142
:101B230038EDB50212013849B602120138B6B602D1
:101B3300120138F1B60212013830B702120138E946
:101B4300B90212013803BA021201388FBA02120124
:101B5300389DBA02120138F6BA0212013804BB02E8
:101B630012013877BB02120138DBBB0212013825A0
:101B7300BC02120138C6E502120138E8E50212017F
:101B8300380EE80212013823EB021201383BEC0253
:101B9300120138EEEC02120138D0ED021201382D99
:101BA3008F04120138528F04120138C48F041201BA
:101BB3003838AE0312013841AE031201384AAE037E
:101BC30012013821AF03120138D2B00312013808D1
:101BD300B10312013842B10312013878B103120183
:101BE30038B2B103120138E6B10312013812B2035D
:101BF3001201385BB20312013895B203120138DEC9
:101C0300B20312013836B3031201386BB303120166
:101C130038C6B30312013800B40312013851B403B8
:101C230012013887B403120138C1B403120138EF2B
:101C3300B40312013812B503120138B0A70412011C
:101C430038DCA70412013837A80412013841A8046C
:101C530012013851A804120138E5AA04120138C848
:101C63007F0012013837AB04120138D3FF03E0665B
:101C7300701008A3E066700A08A3E066700408A366
:101C8300E06622C3E7960809E7960809E79608097C
:101C9300E79622C3E09608A3E09608A3E09608A37C
:101CA300E09622C008C3E096F50808A3E096420830
:101CB30008A3E096420808A3E09645087001D3D034
:101CC3000822080808EAC0E0EBC0E086F0E7A4FABF
:101CD300180986F0E7A42AFA180986F0E7A42AFA75
:101CE300180986F0E7A42AFA1986F0E7A4FBE5F0C1
:101CF3002AFA190886F0E7A42BFBE5F03AFA19084B
:101D030086F0E7A42BFBE5F03AFA18180986F0E70A
:101D1300A4C5F02BFBE43AFA1908E7C5F0C6A426DC
:101D2300F6E5F03BFBE43AFA1886F0E7A4F6E5F0B3
:101D33000826F6E43B08F6E43A08F6D0E0FBD0E0E8
:101D4300FA22E4CFC0E0E4CEC0E0E4CDC0E0E4CCCE
:101D5300C0E075F020C3E633F608E633F608E63351
:101D6300F608E633F6181818EC33FCED33FDEE33C2
:101D7300FEEF33FFC3EC9709ED9709EE9709EF9751
:101D8300191919400FFFEC97FC09ED97FD09EE9720
:101D9300FE191906D5F0BEECF709EDF709EEF709C0
:101DA300EFF7191919D0E0FCD0E0FDD0E0FED0E048
:101DB300FF226016080808C6C313C618C613C61840
:101DC300C613C618C613C6D5E0EA22700908080868
:101DD300226016181818C6C333C608C633C608C609
:101DE30033C608C633C6D5E0EA22E627F60809E675
:101DF30037F60809E637F60809E637F622E026F64D
:101E030008A3E036F608A3E036F608A3E036F62288
:101E1300E026F008A3E036F008A3E036F008A3E0DC
:101E230036F022C3E697F60809E697F60809E6971F
:101E3300F60809E697F622C3E096F008A3E096F0C9
:101E430008A3E096F008A3E096F022E657F6080907
:101E5300E657F60809E657F60809E657F622E0566C
:101E6300F608A3E056F608A3E056F608A3E056F6F4
:101E730022E056F008A3E056F008A3E056F008A3CA
:101E8300E056F022E647F60809E647F60809E64772
:101E9300F60809E647F622E0F608A3E0F608A3E011
:101EA300F608A3E0F622E6F008A3E6F008A3E6F0BE
:101EB30008A3E6F022E0FAA3E0FBA3E0FCA3E0FD25
:101EC30022EAF0A3EBF0A3ECF0A3EDF022CAC0E00A
:101ED300E6F0A308DAFAD0E0FA22CAC0E0E0A3C52C
:101EE30082CCC582C583CDC583F0A3C582CCC58210
:101EF300C583CDC583DAE6D0E0CA22C3E498F8E40B
:101F030099F9121F3F8026C3E49AFAE49BFBE92068
:101F1300E7E9121F3FE498F8E499F922C3E498F83B
:101F2300E499F9121F3FE498F8E499F9C3E49AFAA3
:101F3300E49BFB22EB20E7CFE920E7E0B90010BBED
:101F43000008E88AF084F8AAF022E4FBC8FA22EB3E
:101F530070227B10C833C8C933C9335007C39AC32F
:101F6300DBF280069A50012ADBEAC833F4C8C9338E
:101F7300F4C9FA2275F008E4C833C8C933C933C9B0
:101F83009AC99B5004C92AC93BD5F0ECFBC833F46A
:101F9300C8E4C9FA22600D08C6A2E713C618C6131F
:101FA300C6D5E0F322600C08C6C313C618C613C611
:101FB300D5E0F422700422600D18C6C333C608C6E8
:101FC30033C6D5E0F41822251810AF08F5184002DF
:101FD30015198008F51840021519D2AF22C0D02573
:101FE3001810AF08F518500205198008F5185002AB
:101FF3000519D2AFD0D0222518F58210AF08F518F5
:10200300400215198008F51840021519D2AF851939
:1020130083222518F582E43519F58322E473251804
:10202300C582C0E0E51934FFC583C0E0E518C39558
:102033008224F810AF088583198582188008858368
:1020430019858218D2AFCEF0A3E520F0A37808E675
:1020530008F0A3DEFAEFF0A3E58124FAF8E608F02E
:10206300A3E608F0A3E608F0A30808E608F0A3E651
:1020730008F0A315811581D0E0FED0E0F815811595
:10208300811581E8C0E0EEC0E0222518C582C0E0DA
:10209300E51934FFC583C0E0E518C3958224F91020
:1020A300AF0885831985821880088583198582186E
:1020B300D2AFCEF0A3E520F0A37808E608F0A3DEC4
:1020C300FAEFF0A3E58124FBF8E608F0A3E608F0B5
:1020D300A30808E608F0A3E608F0A315811581D04C
:1020E300E0FED0E0F815811581E8C0E0EEC0E02203
:1020F300851983851882E0A3FEE0A3F5207808E024
:10210300A3F608DFFAE0A3FFE0A3C0E0E0A3C0E08A
:10211300E0A3C0E0E0A3C0E0E0A3C0E010AF088507
:1021230082188583198008858218858319D2AFD0D8
:1021330083D082020135851983851882E0A3FEE0EE
:10214300A3F5207808E0A3F608DFFAE0A3FFE0A3F5
:10215300C0E0E0A3C0E0E0A3C0E0E0A3C0E010AFB4
:10216300088582188583198008858218858319D28A
:10217300AFD083D08222C0D02518C582C0E0E51934
:1021830034FFC583C0E0E518C3958224F310AF087C
:102193008583198582188008858319858218D2AFB3
:1021A300C8F0A3E9F0A3EAF0A3EBF0A37908E709E9
:1021B300F0A3D8FAECF0A3EDF0A3EEF0A3EFF0A3B5
:1021C300D0E0F0A3D0E0F0A3D0E0F0A3E520F0A3AB
:1021D300E5F0F0A322851983851882E0C0E0A3E02F
:1021E300F9A3E0FAA3E0FBA37808E0F608A3DFFA7B
:1021F300E0FCA3E0FDA3E0FEA3E0FFA3E0C0E0A3B7
:10220300E0C0E0A3E0F5D0A3E0F520A3E0A3F5F060
:1022130010AF088583198582188008858319858204
:1022230018D2AFD082D083D0E0F8D0E032740480EB
:1022330006740280027401C0E0F404121FFAD0E0B5
:10224300121ED0227404800474028000CCC0E0ED1E
:10225300C0E0E518C39CCCAD1950011D10AF068C2E
:10226300188D1980068C188D19D2AF121EDDD0E09F
:10227300FDD0E0FC22D083D082E9C0E0E493A3C385
:1022830086F0C5F095F0F908E493A386F0C5F095C0
:10229300F0700BE493A3C3994005E9048002A3E41F
:1022A30075F002A42582F582E5F03583F583D0E04D
:1022B300F9E493A3C0E0E493C0E022D083D082EC9E
:1022C300C0E0EDC0E0E493A3FCE493A3FDED4C6018
:1022D3000D12230AEC24FFFCED34FFFD80EFE493A1
:1022E300A3FCE493A3FDED4C600D122349EC24FF02
:1022F300FCED34FFFD80EFD0E0FDD0E0FCE493A3E0
:10230300C0E0E493C0E022C0E0C3E4939608740104
:10231300939618400FE49366700808740193661847
:1023230070007019A3A3C3E49396087401939618DD
:10233300A3A3400DD0E0D0E0D0E00222FAA3A3A3F0
:10234300A3A3A3D0E022C0E0C0F088F0E4936670BA
:10235300080874019366187000A8F0A3A3700BD04B
:10236300F0D0E0D0E0D0E00222FAA3A3D0F0D0E096
:1023730022C2AF02000022C0E074F2122179A2AFA0
:10238300E433FED2AFE589A2E05003120F3375891F
:1023930000C2C5EEF8EEA2E092AF7F010221D8C0E1
:1023A300E074F2122179A2AFE433FED2AFE58AA240
:1023B300E64006E58AA2E75003120F33758A0075DB
:1023C3008A00C2EBEEF8EEA2E092AF7F010221D8C1
:1023D300C0E0C0D0E8C0E0E9C0E0A2AFE433F8D287
:1023E300AF758B00C2E8E8F9E8A2E092AFD0E0F95C
:1023F300D0E0F8D0D0D0E032C0E0C0D0E8C0E0E90F
:10240300C0E0A2AFE433F8D2AFC2C7751A00E8F94F
:10241300E8A2E092AFD0E0F9D0E0F8D0D0D0E0323B
:1024230074F512208DEAFEEBFFEE2434F8EF34004E
:10243300F988088909EE2435F582EF3400F583E045
:10244300F8EE2437F582EF3400F583E0F50AEC85E6
:102453000AF0A4FCAAF0850AF0EDA42AFDE82CF802
:10246300E43DF97A257B00121F3FEA85088285093E
:1024730083F0F8740758F97401B900028004C33378
:10248300D9FCFAE8131313541FF8EE28F8EF3400BD
:10249300F9E8245DF582E93400F583E05A6008EE3B
:1024A3002434F582EF802CEE2434F582EF3400F5EA
:1024B30083E0C0E0EE2436F582EF3400F583E0F5E7
:1024C300F0D0E084A8F0EE28F8EF3400F9E82438DF
:1024D300F582E93400F583E0F97F0402213974F5CC
:1024E30012208DEAFEEBFFEE2434F582EF3400F583
:1024F30083E0C0E0EE2435F582EF3400F583D0E0CD
:10250300F08E828F83A3A3A3A3A3A3A3C082C083BC
:102513008E828F83A3A3A3A3A3E0F8A3E0F9D083C0
:10252300D082E0C398F508A3E099F509EE247FF57E
:1025330082EF3400F583E064017069EE2480F58254
:10254300EF3400F583E0F8A3E0F98E828F83A3A331
:10255300A3A3A3A3A3E0FCA3E0FD8E828F83A3A385
:10256300A3A3A3E0FAA3E0FBC3EA9CEB9D5010C333
:10257300EC98ED99402EC3EA98EB995027800EC34F
:10258300EA98EB994007C3EC98ED9940177C0E7DD0
:1025930008EEFAEFFB12184BEE247FF582EF3400BE
:1025A300F583E4F0EE2434F8EF3400F9E8FCE9FDB8
:1025B300EE2435F582EF3400F583E0F8EE2437F5A9
:1025C30082EF3400F583E0F50AE508850AF0A4F507
:1025D30008AAF0850AF0E509A42AF509E82508F810
:1025E300E43509F97A257B00121F3FEA8C828D833B
:1025F300F0F8740758F97401B900028004C333D9A1
:10260300FCFAE8131313541FF8EE28F8EF3400F91B
:10261300E8245DF582E93400F583E05A6008EE248E
:1026230034F582EF802CEE2434F582EF3400F58309
:10263300E0C0E0EE2436F582EF3400F583E0F5F0F8
:10264300D0E084A8F0EE28F8EF3400F9E82438F558
:1026530082E93400F583E0F912325B0224DCC082A4
:10266300C083851882851983E0F8A3E0F9C3EA9C47
:10267300EB9D5010C3EC98ED99401BC3EA98EB997E
:102683005014800EC3EA98EB994007C3EC98ED9978
:102693004004790180027900D083D08222EAC39C6E
:1026A300FAEB9DFB2274EF12208D9006D4E06408B0
:1026B3006005E06407702A9061C8E0602490070217
:1026C300E0F4601DE0F875F003A4C8AAF02AF974D9
:1026D3000428FE740739FF8E828F83A3A3A3E070BF
:1026E300030227D8906060E0C0E0EE2468F582EF33
:1026F3003400F583D0E0F0750C77750D087508008C
:10270300750900E5D914F50AE5D95403F50E6017E8
:102713007403650E605CE50A6010EE2467F582EFD2
:102723003400F583E070030227BD900872E0640172
:10273300602AEE2482F582EF3400F583E0600478AA
:102743000480027800850A08E508C398FA95E0FB3F
:102753001217138A088B09EA45097005121A4F806C
:1027630074EE2482F582EF3400F583E070048A0C62
:102773008B0DE50A6012850C82850D83F50BE5D977
:10278300F0A3150BE50B70F6EE2482F582EF34000F
:10279300F583E0604474FC250AF50A780C122234B0
:1027A300AC0AA90EEEFAEFFB1218E77402121FE04F
:1027B300E97026AA08AB0912102F793D8E828F8308
:1027C300A3A3A3A3E0FA7B001215E7EEFAEFFB1233
:1027D30018631218F9790080747403650E605685C6
:1027E3000A107511007810122234AC0CAD0DAA0832
:1027F300AB091218C37402121FE0EE2468F582EFCE
:102803003400F583E064807004747F8001E0F50C8C
:10281300780C122238E50EF50C780C122238A90A2E
:10282300AC08AD09900702E0FA7B001215AB740205
:10283300121FE080139006D4E06408600BAC0CAD6B
:102843000DEEFAEFFB121953121A5B79017F0A029C
:10285300213974F512208D74FC121FCAEAFEEBFFB6
:102863008908A2AFE433F509C2AF806AEE2463F8A6
:10287300EF3400F97A007B00A2AFE433F50AC2AF6C
:1028830088828983E0FCA3E0FDEC4D603A8882896D
:1028930083E0FAA3E0FB8A828B83E0FCA3E0FD885C
:1028A300828983ECF0A3EDF08A828B83E4F0A3F0BA
:1028B30088828983E0FCA3E0FDEC4D700A8882895D
:1028C30083A3A3E4F0A3F0E50AA2E092AF12102FD2
:1028D300900815E004F0EE2463F582EF3400F583ED
:1028E300E0F8A3E0F9E849603DEE2463F582EF34B4
:1028F30000F583E02402FAA3E03400FBEA2402F5A6
:102903000AEB3400F50B780A1222348A828B83E0B7
:10291300FCA3E0F9EEFAEFFB1218877402121FE032
:10292300E9700302286F900815E06063900816E0D1
:10293300F8900815E0C398500C7402650870509025
:102943000817E0604A8E828F83A3A3A3A3E08518B0
:1029530082851983F0A3E4F0900815E0F87402125D
:102963002015E8F0A3E4F0900815E0F8900814E0CF
:1029730028F07402122015AC82AD83851882851964
:1029830083AA82AB8379011215B7900815E4F0E5A9
:1029930009A2E092AF7404121FE00224DC852187B0
:1029A3008522C622C0E0C0D0E8C0E0E9C0E0EAC0AA
:1029B300E0EBC0E0ECC0E0EDC0E0EEC0E0C008C07A
:1029C30009C00AC00BC082C083C0F0A2AFE433FECB
:1029D300C2AF759B00906182E0A2E05012E591A224
:1029E300E0500C7591FE7401652170031226A8E076
:1029F300A2E55051E591A2E5504B7591DF9006D4C5
:102A0300E064076005E06408702374016521703594
:102A13007901900702E0FA75F003A4CAA8F028FB35
:102A230074042AFA74073BFB1228558018E0640DDE
:102A330070139006F6E004F064287002E4F07A0064
:102A4300E0F9121A61906182E0A2E64003022AEEE5
:102A5300E591A2E64003022AEE7591BF9006D4E009
:102A630064057008121989121995800312198F755C
:102A730021001219EFE99006D5F079001219E3123B
:102A830017C17A017B009006D3E0F9120B6D9078A1
:102A930003E064427055900876E014F0704DC2AFC5
:102AA300122AA600782AD0E0F618D0E0F6E59F5463
:102AB3000770057509FF800375097FC4C0E0782995
:102AC300E6F50808E65509F509740B7808121FA8FE
:102AD300D0E02508F8906270E0A2E740F8E8C3333D
:102AE300906272F0906270E0D2E0F0906181E0A2B7
:102AF300E35009E5E9A2E3500375E9F7A3E0A2E790
:102B03005009E591A2E7500375917FEEA2E092AFE1
:102B1300D0F0D083D082D00BD00AD009D008D0E037
:102B2300FED0E0FDD0E0FCD0E0FBD0E0FAD0E0F94D
:102B3300D0E0F8D0D0D0E032C0E0C0D0C082C083B3
:102B4300906183E0A2E05009E5BFA2E0500375BFA6
:102B5300FEE0A2E15009E5BFA2E1500375BFFDE02D
:102B6300A2E25009E5BFA2E2500375BFFBE0A2E376
:102B73005009E5BFA2E3500375BFF7E0A2E4500993
:102B8300E5BFA2E4500375BFEFE0A2E55009E5BF3E
:102B9300A2E5500375BFDFE0A2E65009E5BFA2E658
:102BA300500375BFBFD083D0828088C0E0C0D0E817
:102BB300C0E0E9C0E0EAC0E0EBC0E0ECC0E0EDC09B
:102BC300E0C0F0E5A7A2E6500FE5A1A2E650095345
:102BD300A7BF75A1BF122C13E5A7A2E5500CE5A171
:102BE300A2E5500653A7DF75A1DFE5A7A2E15009CF
:102BF300E5A1A2E1500375A1FDE5A7A2E2500CE512
:102C0300A1A2E2500653A7FB75A1FBD0F0022B242F
:102C130074F812208D7521019006D4E064067015B6
:102C23001219178A828B83A3A3A3A3A3A3E0FAA3F6
:102C3300E0FB121977A2AFE433FED2AF9006DAE0DD
:102C4300640170187A207B009006D3E0F9120BFD23
:102C53007A207B009006D3E0F9120B73906182E037
:102C6300D2E6F0900873E0602185C62280169006B4
:102C7300D9E064017008E5C654F84405F5C653BEAF
:102C8300FC1229A07401652160E4EEA2E092AF7FFB
:102C930001022139008E238F24858228858327858D
:102CA3001882851983E0CEA3E0CF85288285278308
:102CB300EBC9EAC8EDCBECCA75F010C3E833C8E939
:102CC30033C9EA33CAEB33CBC3EA9EF526EB9FF550
:102CD30025B35004AB25AA26EC33CCED33CDD5F088
:102CE300DAAE23AF242274E912208D74F8121FCABE
:102CF300851882851983ECF0A3EDF08A088B09907F
:102D030006D4E024F7C394055006750801022E800B
:102D13001219178A0A8B0BAE0AAF0BEE4F70030220
:102D23002E7DAC08AD097402122015AA82AB831262
:102D330019A78E828F83A3A3750CFF750DFF750EE4
:102D4300FF750F00780C121E6174021220157510A6
:102D5300FF7511FF7512FF7513007810121E61784D
:102D63000C7910121C86502A780C7910121E2675C5
:102D730008017509C8750A00750B007808790C12EB
:102D83001C865052850C08850D09850E0A850F0B8C
:102D930080507514017515C87516007517008510D8
:102DA3000885110985120A85130B7808790C121E00
:102DB3002678147908121C86401C750800750900D2
:102DC300750A00750B0178087910121E26780879A8
:102DD3000C121DED800C750801750900750A00754C
:102DE3000B0074097808121DCE750C19F50DF50E3C
:102DF300F50F7808790C121D458E828F83A3A3A348
:102E0300A3A3A3E0F8A3E0F97AD07B03121F3F88C2
:102E13000C890DE4F50EF50F7808790C121DED748D
:102E230006122015E0F8A3E0F97AD07B03121F3FC6
:102E3300E8FA8A0CE4F50D7808790C121C86500721
:102E43007808790C121E269006D4E06408600AE024
:102E530064066005E06405702D750C0D780C790827
:102E6300121C864021750CF4750DFF750EFF750F4E
:102E7300FF7808790C121DED800C750800750900A8
:102E8300750A00750B00851882851983E0F8A3E0A5
:102E9300F58388827808121EA97408121FE07F1038
:102EA30002213974F712208D1219B9900871E06468
:102EB300017010906245E4F0A3F053F4F343FE0C69
:102EC3005390F3121965E5C654804449F5C6E59E4F
:102ED300547F644970F8906185740FF090086FE037
:102EE300F47002A3E0604E900870E0600814601B69
:102EF30014602E804075080175090090086FE07812
:102F030008121FB7E508F45280802A750801750975
:102F13000090086FE07808121FB7E508F45290801C
:102F23001475080175090090086FE07808121FB73F
:102F3300E508F452A079007F0202213974F71220C8
:102F43008DE9FEEAFF74016E700C7A807B009006B7
:102F5300D3E0F9120B6D90326CE493F46008E493C0
:102F6300F91217B5800953C680E59E547F70FA1293
:102F7300196B900871E0640170031217CD90086F0C
:102F8300E0F47002A3E0604B900870E06008146006
:102F93001A14602C803D75080175090090086FE0D4
:102FA3007808121FB7E50842808028750801750963
:102FB3000090086FE07808121FB7E508429080136D
:102FC30075080175090090086FE07808121FB7E5CE
:102FD3000842A01219B91219178A088B09A808A95F
:102FE30009E8496015E5E170FCE82414F582E93449
:102FF30000F583E0F46003E0F5E174016F700A7A91
:10300300019006D3E0F9120BC7022F3A74ED122098
:103013008D8A088B098C0A8D0B7413122015780C7A
:10302300121E9A7808790C121C867510017511C846
:1030330075120075130050127808790C121E267849
:10304300107908121C8650168010780C7908121E0D
:10305300267810790C121C864004790180027900CD
:103063007F0C02213974ED12208D8A088B098C0A9A
:103073008D0B7413122015780C121E9A780C790894
:10308300121C8640117808790C121E26AA08AB0977
:10309300AC0AAD0B80227510007511007512007516
:1030A30013017810790C121E2678107908121DED81
:1030B300AA10AB11AC12AD1380A68A828B8375085C
:1030C300FF7509FF750AFF750B007808121E747FE0
:1030D3000402213974F512208D8C828D83780812B5
:1030E3001E9A8A828B837808121E3AEA2404F8EB2C
:1030F3003400F98C828D83A3A3A3A3E0FCA3E0FD9A
:1031030088828983C3E09CF0A3E09DF08882898351
:10311300C3E09420A3E0944E40268A828B837508F3
:10312300FF7509FF750AFF750BFF7808121E138AD6
:10313300828B83A3A3A3A3E02420F0A3E0344EF067
:103143000230BD74F512208DE9FE900829E0FAA340
:10315300E0FBEEC333F8E433F9743828F58274885E
:1031630039F583E02AF508A3E03BF5097808122234
:10317300347A407B427C0F7D00122C987402121F1C
:10318300E08A088B098C0A8D0B74107808121DB520
:10319300AA08AB097F0402213974F112208D8A0C2D
:1031A3008B0D8C0E8D0F740F122015E0FAA3E0FB2C
:1031B3007411122015E0F508A3E0F509780812222E
:1031C30034EA2401F508EB3400F509E4F50AF50BBC
:1031D300780C7908121CC5750871750902780C7989
:1031E30008121CC5AA0CAB0DAC0EAD0F122C9874B3
:1031F30002121FE08B09EA450960047A0180027A12
:1032030000EC2AFCED3400FD7413122015E0F8A342
:10321300E0F9E8FEE9FFECF8EDF97A717B02121FA1
:103223003F880889098E828F837808121EA9ECF8DB
:10323300EDF97A717B02121F3F8A088B09740578B6
:1032430008121FB78E828F83A3A3A3A3E508F0A35D
:10325300E509F07F08022139C082C083E99060004C
:10326300F0D083D08222020135FFFFFFFFFFFFFF73
:10327300FF74ED122021746C121FCA120A7D7C00A8
:103283007D007E007F007410122015ECF0A3EDF09A
:10329300A3EEF0A3EFF0908BD57808121E9A74106A
:1032A3001220157808121C965014908BC1780812BE
:1032B3001E9A74101220157808121E1380D87900F4
:1032C300120A837B017A017910120AD77906120A4E
:1032D300DD120AE3E9F5127B007A007900120AD7BE
:1032E300120A9BE9F50F120AA7E9F50E120AB3E9D0
:1032F300F50D120ABFE9F50C7A7F7900120A4D79B0
:1033030000120A6B7A687900120A4D120A777C0060
:103313007D007E007F007410122015ECF0A3EDF009
:10332300A3EEF0A3EFF0908BD97808121E9A7410D5
:103333001220157808121C965014908BC17808122D
:103343001E9A74101220157808121E1380D875085F
:10335300017808122238750800780812223879009B
:103363007C897D077A007B80120AF57402121FE0C4
:10337300E970030238FA7CC07D007A957B0A120B50
:1033830001E970030238F67903120A897912120AE5
:10339300537904120A177901120A1D7903120A23B9
:1033A3007903120A297903120B077900120B0D799D
:1033B30000120AA1A90E120AADA90D120AB9A90C8D
:1033C300120AC5750A00750B00750800E508C39459
:1033D3000440248508107511007402122015E0F8CA
:1033E30079002403F8E93400F9C3E51098E511994D
:1033F300A2D265D033503A7455250AF582740B3541
:103403000BF583E0C0E085081075110085188285EF
:103413001983E5822510F582E5833511F583D0E024
:10342300F00508E50A2401F50AE50B3400F50B80E5
:103433009B7509007809122238750901780912224F
:10344300387403122015E0F5097809122238740341
:10345300122015E0F97405122015E0FC7D007406B6
:10346300122015AA82AB83120AEF7403121FE0E93C
:10347300750800E508C394044024850810751100FD
:103483007402122015E0F879002403F8E93400F9F6
:10349300C3E51098E51199A2D265D033503A74551B
:1034A300250AF582740B350BF583E0C0E08508101F
:1034B300751100851882851983E5822510F582E54B
:1034C300833511F583D0E0F00508E50A2401F50AF8
:1034D300E50B3400F50B809B75090078091222383F
:1034E30075090178091222387403122015E0F509D1
:1034F30078091222387403122015E0F9740512209A
:1035030015E0FC7D007406122015AA82AB83120A13
:10351300EF7403121FE0E9120A71120A8F8A108BEB
:1035230011AE10AF11E510A9107414122015AA8260
:10353300AB83120A957902120A35799C120A4179F2
:1035430050120A3B7900120A47120A717901120AD2
:10355300657901120ACB120AD1750800E508C394F4
:103563000440248508107511007402122015E0F838
:1035730079002403F8E93400F9C3E51098E51199BB
:10358300A2D265D033503A7455250AF582740B35AF
:103593000BF583E0C0E0850810751100851882855E
:1035A3001983E5822510F582E5833511F583D0E093
:1035B300F00508E50A2401F50AE50B3400F50B8054
:1035C3009B750900780912223875090178091222BE
:1035D300387403122015E0F50978091222387403B0
:1035E300122015E0F97405122015E0FC7D00740625
:1035F300122015AA82AB83120AEF7403121FE0E9AB
:10360300750800E508C3940440248508107511006B
:103613007402122015E0F879002403F8E93400F964
:10362300C3E51098E51199A2D265D033503A745589
:10363300250AF582740B350BF583E0C0E08508108D
:10364300751100851882851983E5822510F582E5B9
:10365300833511F583D0E0F00508E50A2401F50A66
:10366300E50B3400F50B809B7509007809122238AD
:1036730075090178091222387403122015E0F5093F
:1036830078091222387403122015E0F97405122008
:1036930015E0FC7D007406122015AA82AB83120A82
:1036A300EF7403121FE0E9750800E508C3940440B2
:1036B300248508107511007402122015E0F87900B2
:1036C3002403F8E93400F9C3E51098E51199A2D26F
:1036D30065D033503A7455250AF582740B350BF5D2
:1036E30083E0C0E085081075110085188285198371
:1036F300E5822510F582E5833511F583D0E0F005E9
:1037030008E50A2401F50AE50B3400F50B809B75E7
:1037130009007809122238750901780912223874D0
:1037230003122015E0F509780912223874031220D8
:1037330015E0F97405122015E0FC7D0074061220D3
:1037430015AA82AB83120AEF7403121FE0E9120A6F
:103753008F8A108B11A810A911E8FEE9FFC3E89422
:1037630003E9940040E8EEF97414122015AA82AB21
:1037730083120A95120A59E9F509750800E508C389
:10378300940440248508107511007402122015E07A
:10379300F879002403F8E93400F9C3E51098E5113A
:1037A30099A2D265D033503A7455250AF582740B29
:1037B300350BF583E0C0E08508107511008518828C
:1037C300851983E5822510F582E5833511F583D0CC
:1037D300E0F00508E50A2401F50AE50B3400F50BD2
:1037E300809B7401122015E0F510781012223874B2
:1037F30001122015E0F97403122015E0FC7D00741A
:1038030004122015AA82AB83120AE97401121FE085
:10381300120A8F8A108B11A810A911E8FEE9FFC3C1
:10382300E89403E9940040E8EEF97414122015AA11
:1038330082AB83120A95120A59E9F509750800E566
:1038430008C39404402485081075110074021220E3
:1038530015E0F879002403F8E93400F9C3E510987A
:10386300E51199A2D265D033503A7455250AF582F1
:10387300740B350BF583E0C0E085081075110085E6
:103883001882851983E5822510F582E5833511F5C4
:1038930083D0E0F00508E50A2401F50AE50B3400BE
:1038A300F50B809B75100078101222387510017883
:1038B300101222387403122015E0F510781012222A
:1038C300387403122015E0F97405122015E0FC7D0D
:1038D300007406122015AA82AB83120AEF74031236
:1038E3001FE0E97900120ACB120A71120A59E97929
:1038F3000080067902800279017494121FE07F0B25
:103903000220F374F71220218C828D83E0F8790072
:10391300E4C8F98C828D83A3E0FE7F00E82EF8E9EA
:103923003FF98A828B83E8F0A3E9F08C828D83A32D
:10393300A3A3A3E0F87900E4C8F98C828D83A3A341
:10394300A3A3A3E0FE7F00E82EF8E93FF98A828B68
:1039530083A3A3E8F0A3E9F08C828D83A3A3A3A39D
:10396300A3A3A3A3E0F87900E4C8F98C828D83A311
:10397300A3A3A3A3A3A3A3A3E0FE7F00E82EF8E9D8
:103983003FF98A828B83A3A3A3A3E8F0A3E9F0EC16
:10399300240CF582ED3400F583E0F87900E4C8F9EE
:1039A300EC240DF582ED3400F583E0FE7F00E82E74
:1039B300F8E93FF98A828B83A3A3A3A3A3A3E8F027
:1039C300A3E9F079007F010220F343FD02020135F0
:1039D30074F212202174EC121FCA8908E5089002C0
:1039E300ACF07C047D007A1F7B00121203E9F50919
:1039F30074051220157401F0740E1220157401F071
:103A0300A37400F074041220157401F0740C1220D6
:103A130015742FF0A37401F0740A122015743FF08B
:103A2300A37401F074081220157404F0A37400F059
:103A330074061220157458F0A37402F07405122052
:103A430015AC82AD8379017A057B031210BFE9744B
:103A53000E122015AC82AD8379027A067B03121015
:103A6300BFE97C847D0B79157A087B031210BFE9CB
:103A73007C997D0B79177A077B031210BFE97404D5
:103A8300122015AC82AD8379017A107B031210BF2B
:103A9300E9740C122015AC82AD8379027A117B0391
:103AA3001210BFE9740A122015AC82AD8379027A31
:103AB300127B031210BFE97408122015AC82AD8388
:103AC30079027A137B031210BFE97406122015AC36
:103AD30082AD8379027A147B031210BFE97CB07D37
:103AE3000B7A04790012137DE97E407F06EEFCEF2A
:103AF300FD7A067B00121203E9EEFCEFFD7A077BE9
:103B030000121203E9EEFCEFFD7A087B00121203A8
:103B1300E9EEFCEFFD7A097B00121203E97A007BE0
:103B2300007C007D007410122015EAF0A3EBF0A3D3
:103B3300ECF0A3EDF074031220157401F07402127B
:103B430020157401F074011220157400F085188299
:103B53008519837401F07410122015AC82AD83793A
:103B6300047A087B04120D5FE97403122015AC82FA
:103B7300AD8379017A007B04120D5FE97402122090
:103B830015AC82AD8379017A027B04120D5FE9746F
:103B930001122015AC82AD8379017A037B04120DE7
:103BA3005FE9851882851983AC82AD8379017A0632
:103BB3007B04120D5FE9908BED121EB8121383E99B
:103BC300908BED121EB8121491E9120D23E9908B1C
:103BD300ED121EB8121005E9908BED121EB8120DEE
:103BE30035E9908BED121EB8120FABE9908BED12F5
:103BF3001EB8120CF9E97A007903120F45E9120E87
:103C0300BB7ACA7B0B12100BE9F50A7ACC7B0B1239
:103C13000D3BE9F50B7ACE7B0B120FB1E9F50C7A6C
:103C2300D07B0B120CFFE9F50D7AD27B0B1210D16E
:103C3300120C69790112158DE97A017B009002ACAF
:103C4300E0F9120B6DE97414121FE07F060220F3F2
:103C530074F012202174DC121FCA8909EAFEEBFFFB
:103C6300EE5400F8EF5480F9E84960329002ACE07A
:103C7300F9120B558A0C8B0DA80CA90D880A890B18
:103C8300E849600FAA0AAB0B120C7BAA0AAB0B1212
:103C93000B43E9EE6400FAEF6480FB024547EE5400
:103CA30080601B9002E1E0600AC2AF75C9AB75C9C1
:103CB3005B80FEEE6480FAEF6400FB024547EEA2F0
:103CC300E050347AC67B0B1210CBE9F5087A287BD7
:103CD30003120D7D908BE91222477A007B2090021C
:103CE300ACE0F9120BF17404121FE0E9EE6401FA7F
:103CF300EF6400FB024547EE5400F8EF5404F9E883
:103D03004960167C107D007AC77B02120CE7EE64D3
:103D130000FAEF6404FB024547EE54027003023DD0
:103D2300AC9002AEE0605A120F0FE96402702F12DA
:103D33000CB7900BB8E024EDF50CA3E034FEF50DC1
:103D4300E4F50EF50F780C1222307A027B00900214
:103D5300ACE0F9120BF17404121FE0E98040120F7A
:103D63000FE9703A120EFD908BE51222477A027B1F
:103D7300009002ACE0F9120BF17404121FE0E98029
:103D83001D120F037D047C0079007A007BAA120CBC
:103D9300E17D017C0079017A007BAA120CE1EE64DB
:103DA30002FAEF6400FB024547EE540460569002AA
:103DB300B0E0602B120C93900BB6E0F50CA3E0F58A
:103DC3000DE4F50EF50F780C1222307A047B009087
:103DD30002ACE0F9120BF17404121FE0E9801A7DC2
:103DE300037C0079007A107BAA120CE17D017C0030
:103DF30079017A107BAA120CE1EE6404FAEF6400F5
:103E0300FB024547EE5400F8EF5401F9E84970030B
:103E1300023F3C9002B1E07003023F319002DDE0CB
:103E2300640160089002DDE064027023908BE1126C
:103E330022477A007B019002ACE0F9120BF1740483
:103E4300121FE0E9EE6400FAEF6401FB02454790BC
:103E530002DD7403F0120A59E9900327F0120A8F66
:103E63009002E5EAF0A3EBF0900327E0A2E4400E12
:103E73009002E5E064007004A3E064047026120A73
:103E830071908BDD1222477A007B019002ACE0F93E
:103E9300120BF17404121FE0E9EE6400FAEF6401FF
:103EA300FB024547900327E0A2E150539002E5C08F
:103EB30082C083900BC4E0F8A3E0F9D083D082C31F
:103EC300E098A3E099500D120A8F9002E5EAF0A35F
:103ED300EBF080D8900BC4E0F8A3E0F9E8F97AE7B7
:103EE3007B02120A95900BC4E0F8A3E0F99002E577
:103EF300C3E098F0A3E099F07AE77B02120C999063
:103F03000BC0E0F50CA3E0F50DE4F50EF50F780C0E
:103F13001222307A007B019002ACE0F9120BF174AB
:103F230004121FE0E99002DD7400F0120A71EE64DE
:103F330000FAEF6401FB024547EE5400F8EF540822
:103F4300F9E849602C120C5DE97901120ACB908BD8
:103F5300AD1222477A007B019002ACE0F9120BF11B
:103F63007404121FE0E9EE6400FAEF6408FB0245F3
:103F730047EE5400F8EF5402F9E849700302409207
:103F83009002B2E0640160030240879002DDE064C6
:103F93000160089002DDE064037023908BE112223C
:103FA300477A007B029002ACE0F9120BF174041221
:103FB3001FE0E9EE6400FAEF6402FB02454790025A
:103FC300DD7402F09002E0E0700F9002DBE0FAA3F0
:103FD300E0FB7900120C9F801D9002DBE0FAA3E066
:103FE300FBEA2401F8EB3400F99002DBE8F0A3E9E3
:103FF300F07901120C9F9002E0E07020908BE112A7
:1040030022477A007B029002ACE0F9120BF17404B0
:10401300121FE0E99002E07401F080689002DBC3B4
:10402300E0940EA3E09400A2D265D033403890020E
:10403300DD7400F09002DB7400F0A37400F0900BC9
:10404300C2E0F50CA3E0F50DE4F50EF50F780C12C4
:1040530022307A007B029002ACE0F9120BF1740477
:10406300121FE0E98018908BA91222477A007B0285
:104073009002ACE0F9120BF17404121FE0E9900214
:10408300E07400F0EE6400FAEF6402FB024547EED1
:104093005400F8EF5420F9E849700302412D908849
:1040A300D8C082C0837414122015AC82AD83D08330
:1040B300D0827410121EDD900BD4E0600F741412C2
:1040C3002015AA82AB83120E37E9800D74141220D7
:1040D30015AA82AB83120FE1E9750A10750B0078FC
:1040E3000A1222347416122015AC82AD837AA07B97
:1040F3000B120B197402121FE07C997D0B79177A4E
:10410300077B031210BFE9908BAD1222477A007B25
:10411300209002ACE0F9120BF17404121FE0E9EEF7
:104123006400FAEF6420FB024547EE5400F8EF54B5
:1041330040F9E84970030242509002DDE0640160F7
:10414300089002DDE064037023908B991222477A72
:10415300007B409002ACE0F9120BF17404121FE0F3
:10416300E9EE6400FAEF6440FB0245479002DD7418
:1041730002F0908828C082C0837404122015AC8298
:10418300AD83D083D0827410121EDD740412201507
:10419300AA82AB83120E37E97C247D0079FF7AB6BD
:1041A3007B02120B319002B674AAF09002B774BB73
:1041B300F09002B874BBF0750A10750B00780A1200
:1041C30022347406122015AC82AD837AB97B0212B5
:1041D3000B197402121FE09002C9740DF09002CA09
:1041E300740AF07C0B7D007AB67B02120CE77A002E
:1041F3007B007C007D00851882851983EAF0A3EBA0
:10420300F0A3ECF0A3EDF0908BE1780C121E9A85ED
:104213001882851983780C121C965015908BC178DF
:104223000C121E9A851882851983780C121E13802E
:10423300D67C0A7D007AC17B02120CE79002DD7402
:1042430000F0EE6400FAEF6440FB024547EE5408C9
:10425300700302432A9002B4E07003024305900204
:10426300DDE0640360089002DDE064027023908B5C
:10427300E11222477A087B009002ACE0F9120BF1BD
:104283007404121FE0E9EE6408FAEF6400FB0245D0
:10429300479002DD7401F09002DFE0F9120EC1E9EC
:1042A300F5089002DFE064027037120CAB9002DF76
:1042B3007400F09002DD7400F0900BBAE0F50CA3EB
:1042C300E0F50DE4F50EF50F780C1222307A087B39
:1042D300009002ACE0F9120BF17404121FE0E980C4
:1042E3003B9002DFE02401F0908B9D1222477A0875
:1042F3007B009002ACE0F9120BF17404121FE0E9A9
:10430300801A7D047C0079007A207BAA120CE17D5F
:10431300017C0079017A207BAA120CE1EE6408FA91
:10432300EF6400FB024547EE5410606C9002AFE06F
:10433300603E120F57E964027005120CA580091242
:104343000F57E97003120F5D900BB4E0F50CA3E077
:10435300F50DE4F50EF50F780C1222307A107B0080
:104363009002ACE0F9120BF17404121FE0E9801D16
:10437300120F637D067C0079007A307BAA120CE170
:104383007D017C0079017A307BAA120CE1EE641086
:10439300FAEF6400FB024547EE54207003024435F4
:1043A3009002B3E0605A9002DEE060319002DE7466
:1043B30000F0120CB1900BBCE0F50CA3E0F50DE49A
:1043C300F50EF50F780C1222307A207B009002ACA8
:1043D300E0F9120BF17404121FE0E9804A9002DE47
:1043E3007401F0120E4F908BCD1222477A207B007E
:1043F3009002ACE0F9120BF17404121FE0E980277C
:104403007D047C0079007A407BAA120CE17D017C5B
:104413000079017A407BAA120CE17D107C007903BC
:104423007A407BAA120CE1EE6420FAEF6400FB02EF
:104433004547EE54407003024504120EA9E9F508FE
:104443009002B5E070030244DDE50870269002E2B5
:10445300E0F9120EAF120E91908BF51222477A40BB
:104463007B009002ACE0F9120BF17404121FE0E937
:104473000244FA9002E3E0600E9002E2E0F9120EC9
:10448300AF9002E37400F074026508702F120CBD44
:10449300900BBEE024C4F50CA3E034FFF50DE4F566
:1044A3000EF50F780C1222307A407B009002ACE0BC
:1044B300F9120BF17404121FE0E9803B120EA3E919
:1044C300908BF51222477A407B009002ACE0F91200
:1044D3000BF17404121FE0E9801D120E977D067C18
:1044E3000079007A507BAA120CE17D017C007901EE
:1044F3007A507BAA120CE1EE6440FAEF6400FB8071
:1045030043EE5400F8EF5410F9E8496033750A5844
:10451300750B02780A122234750A04750B00780AA7
:1045230012223479027C3F7D017A2F7B011211071D
:104533007404121FE0E9EE6400FAEF6410FB8004D8
:104543007A007B007424121FE07F080220F374F7C3
:10455300122021EAFEEBFF8E828F83E064C0701489
:104563008E828F83A3A3A3E0FA8E828F83A3A3E01B
:10457300F9120C817F010220F374F712202174FCDD
:10458300121FCAE9FEEAFF8518828519837400F0B9
:10459300EFA2E0400302463D9002E17401F0908BEC
:1045A300C51222477A807B009002ACE0F9120BF12E
:1045B3007404121FE0E99002E4E0706F9002ADE032
:1045C3006405603E7403122015AC82AD837A057BCB
:1045D300031210C5E97403122015E0700A74011266
:1045E30020157401F0800874011220157400F07412
:1045F30001122015AC82AD8379017A057B03121079
:10460300BFE99002ADE064057030740212201574A6
:1046130001F01210D7E97402122015AC82AD837930
:10462300017A057B031210BFE9800FEFA2E0500A65
:10463300851882851983E0D2E2F0EFA2E1500A8562
:104643001882851983E0D2E0F0EFA2E2500A8518C0
:1046530082851983E0D2E1F0EFA2E040069002E107
:104663007400F0851882851983AC82AD837A017951
:104673000012110DE97404121FE07F010220F3C040
:1046830082C0839002B1E060069002B17400F090A2
:1046930002B4E06009120EBB9002B47400F0900201
:1046A300B2E060069002B27400F0D083D0820201BF
:1046B3003574F412202174E2121FCAE9FEEE14606D
:1046C3001614700302486D14700302489F24FE7091
:1046D300030248770248A2851882851983AC82AD0C
:1046E300837A047B031210C5E975080875090078FD
:1046F300081222347402122015AC82AD837418128E
:104703002015AA82AB83120B197402121FE07405E1
:10471300122015E0C0E07407122015D0E0F07404F5
:10472300122015E0C0E07406122015D0E0F07403E7
:10473300122015E0C0E07405122015D0E0F07404D7
:104743001220157400F074031220157400F08518FC
:1047530082851983AC82AD837A087900120D29E929
:10476300908C70C082C0837408122015AC82AD8314
:10477300D083D082740E121EDD7F00750905E50912
:10478300C39400A2D265D033500302485AE509F816
:104793003395E0F97416122015E58228F582E58336
:1047A30039F583E0F508E508C3940A506B7C667D10
:1047B3008CEFF87900E875F002A4C8AAF075F00050
:1047C300A42AFA75F002E9A42AF97408122015E55F
:1047D3008228FAE58339FB121C657910EFFA7B0016
:1047E300EA75F002A4CAA8F075F000A428F875F0E1
:1047F30002EBA428FB7408122015E5822AF582E552
:10480300833BF583A3AC82AD8385080A750B00AAAD
:104813000AAB0B120C2180357910EFFA7B00EA7595
:10482300F002A4CAA8F075F000A428F875F002EB12
:10483300A428FB7408122015E5822AFCE5833BFDBE
:1048430085080A750B00AA0AAB0B120C210F74FF23
:104853002509F5090247817408122015AC82AD833E
:104863007A0C7902120D29E980357A017901120F48
:1048730045E9802B908BC91222477A007B10900266
:10488300ACE0F9120BF17404121FE0E97A0079012C
:10489300120F45E99002DD7400F08003120C87EEDD
:1048A3009002ADF0741E121FE07F040220F3C08259
:1048B300C08374FD121FCA851882851983AA82AB2F
:1048C30083120E43E96012851882851983AC82AD89
:1048D300837A037900120CEDE97403121FE0D0838D
:1048E300D08202013574F412202174D1121FCAEA56
:1048F300FEEBFF74041220157400F0A37400F0742F
:10490300021220157400F0A37400F0851882851933
:10491300837400F0A37400F085188285198385825F
:104923000885830978081222347404122015AC8296
:10493300AD837406122015AA82AB83120A5F740238
:10494300121FE0EEFCEFFD7406122015AA82AB8362
:10495300120C63E97404122015E0F508A3E0F509CD
:1049630074087808121F98E508740F122015E508DB
:10497300F07404122015E0F8A3E0F9E8C0E0740E27
:10498300122015D0E0F07402122015E0F508A3E020
:10499300F50974087808121F98E508741112201598
:1049A300E508F07402122015E0F8A3E0F9E8C0E08E
:1049B3007410122015D0E0F0851882851983E0F574
:1049C30008A3E0F50974087808121F98E508741322
:1049D300122015E508F0851882851983E0F8A3E015
:1049E300F9E8C0E07412122015D0E0F0740612202A
:1049F30015E0F508A3E0F50974087808121F98E597
:104A0300087415122015E508F07406122015E0F855
:104A1300A3E0F9E8C0E07414122015D0E0F07408A4
:104A2300122015E0F508A3E0F50974087808121FB1
:104A330098E5087417122015E508F074081220157C
:104A4300E0F8A3E0F9E8C0E07416122015D0E0F016
:104A5300740A122015E0F508A3E0F5097408780834
:104A6300121F98E5087419122015E508F0740A124C
:104A73002015E0F8A3E0F9E8C0E07418122015D07F
:104A8300E0F0740C122015E0F508A3E0F5097408B2
:104A93007808121F98E508741B122015E508F074B6
:104AA3000C122015E0F8A3E0F9E8C0E0741A122014
:104AB30015D0E0F0741C12201574AAF0741D122096
:104AC3001574BBF0741E12201574AAF075080E75C8
:104AD300090078081222347410122015AC82AD83B9
:104AE3007421122015AA82AB83120B197402121FB0
:104AF300E08A0A8B0B850A08850B09742D12201591
:104B0300740DF0742E122015740AF07C137D00745A
:104B13001C122015AA82AB83120CE7742F121FE01C
:104B23007F040220F374F0122021748C121FCA89AF
:104B33000B8A08908B26C082C0837404122015ACA4
:104B430082AD83D083D0827408121EDD908B46C061
:104B530082C083746C122015AC82AD83D083D08263
:104B63007408121EDD908B4EC082C08374641220C1
:104B730015AC82AD83D083D0827408121EDD908B76
:104B830056C082C083745C122015AC82AD83D0837F
:104B9300D0827408121EDD908B0EC082C0837454C1
:104BA300122015AC82AD83D083D0827408121EDD2F
:104BB300908B3EC082C083744C122015AC82AD83AF
:104BC300D083D0827408121EDD908B36C082C083DE
:104BD3007444122015AC82AD83D083D08274081242
:104BE3001EDD908B2EC082C083743C122015AC82D4
:104BF300AD83D083D0827408121EDD908B1EC082D9
:104C0300C0837434122015AC82AD83D083D08274F8
:104C130008121EDD908B06C082C083742C122015EF
:104C2300AC82AD83D083D0827408121EDD908AE6F5
:104C3300C082C0837424122015AC82AD83D083D08C
:104C4300827408121EDD908ADEC082C083741C1237
:104C53002015AC82AD83D083D0827408121EDD9000
:104C63008AD6C082C0837414122015AC82AD83D05F
:104C730083D0827408121EDD908AF6C082C08374CA
:104C83000C122015AC82AD83D083D0827408121E1F
:104C9300DD7404122015AE82AF83E5086039146019
:104CA3004214604B14605414605C14606414606CB0
:104CB30014607414607C147003024D40147003027A
:104CC3004D4B147003024D56147003024D61147062
:104CD30003024D6C024D777404122015AE82AF832C
:104CE300024D80746C122015AE82AF83024D807426
:104CF30064122015AE82AF83024D80745C122015BE
:104D0300AE82AF8380777454122015AE82AF838056
:104D13006C744C122015AE82AF83806174441220F0
:104D230015AE82AF838056743C122015AE82AF83DA
:104D3300804B7434122015AE82AF838040742C12E2
:104D43002015AE82AF8380357424122015AE82AF56
:104D530083802A741C122015AE82AF83801F7414C3
:104D6300122015AE82AF838014740C122015AE820C
:104D7300AF8380097404122015AE82AF83E50B70F4
:104D830015120C39E9EEFAEFFB120C577A0179444C
:104D9300120C4B024F30120C39E9EEFAEFFB120CF6
:104DA300577A0079BE120C4B120C51E9F509120C1B
:104DB30051E9F50AE5086003024E5E9002DA7400D9
:104DC300F07C247D0079FF7AB67B02120B319002CE
:104DD300DAE0F8790074B628F582740239F5837441
:104DE300AAF09002DAE02401F09002DAE0F8790008
:104DF30074B628F582740239F58374BBF09002DA35
:104E0300E02401F09002DAE0F8790074B628F58224
:104E1300740239F58374BBF09002DAE02401F0E503
:104E2300099002DAE0F8790074B628F58274023941
:104E3300F583E509F09002DAE02401F0E50A900237
:104E4300DAE0F8790074B628F582740239F583E55F
:104E53000AF09002DAE02401F0803AE5099002DAE0
:104E6300E0F8790074B628F582740239F583E50910
:104E7300F09002DAE02401F0E50A9002DAE0F87932
:104E83000074B628F582740239F583E50AF09002BE
:104E9300DAE02401F0740D65086003024F309002DC
:104EA300DAE0F8790074B628F582740239F5837470
:104EB3000DF09002DAE02401F09002DAE0F87900D4
:104EC30074B628F582740239F583740AF09002DA15
:104ED300E02401F07C117D007AB67B02120CE77AA4
:104EE300007B007C007D00851882851983EAF0A38E
:104EF300EBF0A3ECF0A3EDF0908BE1780C121E9A8B
:104F0300851882851983780C121C965015908BC1D5
:104F1300780C121E9A851882851983780C121E1339
:104F230080D67C107D007AC77B02120CE774741262
:104F33001FE07F080220F3C082C08374FA121FCAE5
:104F4300851882851983AA82AB83120F69E96012DF
:104F5300851882851983AC82AD837A067900120F96
:104F6300FFE97406121FE0D083D082020135C082AC
:104F7300C08374F5121FCA7407122015AA82AB836B
:104F8300120EC7E9605C85188285198374AAF074D0
:104F93000112201574BBF0740212201574CCF07446
:104FA30009122015E0C0E07403122015D0E0F0745C
:104FB3000A122015E0C0E07404122015D0E0F0744A
:104FC30005122015740DF07406122015740AF07C76
:104FD300077D00851882851983AA82AB83120CE7AB
:104FE300804A85188285198374AAF07401122015EA
:104FF30074BBF0740212201574CCF07403122015E4
:105003007476F074041220157476F074051220156A
:10501300740DF07406122015740AF07C077D008568
:105023001882851983AA82AB83120CE7740B121FB3
:10503300E0D083D082020135C082C08374FC121F8A
:10504300CA851882851983AA82AB83120E55E9603B
:1050530012851882851983AC82AD837A0479001294
:105063000CF3E97404121FE0D083D082020135C02F
:1050730082C08374FC121FCA851882851983AA8291
:10508300AB83120F09E96012851882851983AC82FC
:10509300AD837A047900120FF9E97404121FE0D08A
:1050A30083D082020135C082C08374FA121FCA857D
:1050B3001882851983AA82AB83120E9DE96012853B
:1050C3001882851983AC82AD837A067900120E317A
:1050D300E97406121FE0D083D08202013574F712FF
:1050E300202174FF121FCAE9FE1460051460598061
:1050F30061851882851983AA82AB83790112101105
:10510300E9851882851983E0701B9002B1E0604243
:105113009002B17400F07A007B019002ACE0F912C6
:105123000B6DE9802D9002B1E0700D7A007B019048
:1051330002ACE0F9120B6DE9851882851983E090C2
:1051430002B1F0120A11800A7AC07B0B79021210A5
:1051530011E97401121FE07F010220F374F712209A
:105163002174FF121FCAE9FE14600514605C806499
:10517300851882851983AA82AB837901120D41E9CF
:10518300851882851983E0701B9002B2E060459018
:1051930002B27400F07A007B029002ACE0F9120BC9
:1051A3006DE98030851882851983E064017025904C
:1051B30002B2E0701F9002B27401F07A007B029099
:1051C30002ACE0F9120B6DE9800A7AC27B0B79021B
:1051D300120D41E97401121FE07F010220F374F7FD
:1051E30012202174FF121FCAE9FE146005146060C7
:1051F3008068851882851983AA82AB837901120F8F
:10520300BDE9851882851983E070199002B4E060C6
:10521300139002B47400F07A087B009002ACE0F9BA
:10522300120B6DE9851882851983E06401702B9058
:1052330002B4E070259002B47401F09002DF7400B0
:10524300F07A087B009002ACE0F9120B6DE9800A5A
:105253007ABA7B0B7902120FBDE97401121FE07F4A
:10526300010220F374F012202174F8121FCA890A74
:105273007401650A6003025326851882851983AA7F
:1052830082AB837901120D0BE9851882851983E0BE
:10529300FA7B007401122015E0F87900E4C8F9EAFA
:1052A30028F8EB39F9E8FEE9FF7402122015E0FA59
:1052B3007B007403122015E0F87900E4C8F9EA28AA
:1052C300F8EB39F9880889097404122015E0FA7B90
:1052D300007405122015E0F87900E4C8F9EA28F80B
:1052E300EB39F9880E890F7406122015E0FA7B005A
:1052F3007407122015E0F87900E4C8F9EA28F8EBFE
:1053030039F9880C890D780C122234780E12223464
:105313007902AC08AD09EEFAEFFB1211077404121F
:105323001FE0E97402650A70041210D7E9740812C9
:105333001FE07F080220F374F412202174FA121F75
:10534300CAEAFEEBFF8C088D097412122015E0F5F2
:105353000AA3E0F50BEE851882851983F0EEF8EFCA
:10536300F9E4E9F8C0E07401122015D0E0F0E50893
:105373007402122015E508F0A808A909E4E509A8B4
:1053830009E5097403122015E509F0E50A7404120E
:105393002015E50AF0A80AA90BE4E50BA80BE50B19
:1053A3007405122015E50BF0851882851983AC82EC
:1053B300AD837A067900120D05E97406121FE07FAA
:1053C300040220F374F01220218A0A8B0B89088CC3
:1053D3000C8D0985090E750F00AA0EAB0F120BAFCA
:1053E3008A0E8B0FAE0EAF0FEE4F700302548785FC
:1053F300090E750F00AC0EAD0FA90CEEFAEFFB1200
:105403000B31850A0E850B0F780E1222BE000006A3
:105413000000AA2E5410AA3C5420AA585430AA4A79
:105423005440AA665450AA74548054EEFCEFFDAA6B
:1054330009A908120FF9E98044EEFCEFFDAA09A9B6
:1054430008120CEDE98036EEFCEFFDAA09A908125B
:105453000FFFE98028EEFCEFFDAA09A908120FB798
:10546300E9801AEEFCEFFDAA09A908120CF3E98002
:105473000CEEFCEFFDAA09A908120E31E9EEFAEFD2
:10548300FB120BB57F080220F374F31220218A0864
:105493008B09ECFEEDFFC3EE9415EF940040057508
:1054A3000C148003EEF50C90032C742EF0A37400FF
:1054B300F0E50C90032EF0850C0A750B00780A12A8
:1054C3002234AC08AD097A2F7B03120B1974021234
:1054D3001FE079007C2C7D037A007B001213DDE949
:1054E3007F050220F374EE12202174FA121FCA8A78
:1054F3000A8B0B8909ECFEEDFF750800850A0C8504
:105503000B0D780C122278000410C15731555255F7
:1055130071559255B355D455075628563F566D5677
:105523002B574C576C579657C157C1579856740110
:10553300650970158E828F83E0C39403500B8E82AE
:105543008F83E0900ED2F080037508180257EA7437
:1055530002650970138E828F83E0F8A3E0F9900E41
:10556300D3E8F0A3E9F080037508180257EA740141
:10557300650970158E828F83E0C39402500B8E826F
:105583008F83E0900399F080037508180257EA743B
:1055930001650970158E828F83E0C39405500B8ECD
:1055A300828F83E090039AF080037508180257EA0C
:1055B3007401650970158E828F83E0C39402500BCA
:1055C3008E828F83E090039BF08003750818025747
:1055D300EA741065097027750C10750D00780C12AC
:1055E3002234EEFCEFFD7A9C7B03120B197402123A
:1055F3001FE08A0C8B0D850C82850D838003750853
:10560300180257EA7401650970158E828F83E0C30F
:105613009402500B8E828F83E09003ACF08003756D
:1056230008180257EA74016509700B8E828F83E0B4
:10563300900ED6F080037508180257EA74046509C2
:105643007022908BA1780C121E9A8E828F83780C15
:10565300121C96500F8E828F83121EB89003AE12C7
:105663001EC480037508180257EAE5097021121356
:1056730065E97013120DD7E9F50C79501210B9E9E9
:10568300F50D120DC5800B9004417401F080037574
:1056930008180257EA740765096003025725750E57
:1056A30006750F00780E1222348E828F83A3AC828C
:1056B300AD837402122015AA82AB83120B1F7402EE
:1056C300121FE08A108B1185100E85110F7C007D4F
:1056D30000851882851983AA82AB838E828F83E02B
:1056E300F9120D6BE9F50CE50CC3940A502F121354
:1056F30065E97015A90C120DDDE9F50D795012104D
:10570300B9E9F50E120DC5801C750D007442250C08
:10571300F5827404350DF5837401F0800875080271
:1057230080037508180257EA7401650970158E82A3
:105733008F83E0C39402500B8E828F83E09003AD7E
:10574300F080037508180257EA7401650970158E15
:10575300828F83E0C3940A500B8E828F83E0900E76
:10576300D5F08003750818807E74016509701F8E5B
:10577300828F83E0C3940740158E828F83E0C394A6
:1057830011500B8E828F83E0900ED7F080597508ED
:10579300188054740165097020900440E0F50C8E64
:1057A300828F83E0900440F0E50C703B900440E06E
:1057B30064017033120DC5802E7508188029C3E566
:1057C3000A9427E50B9400501B7402650970158E2B
:1057D300828F83E0FCA3E0FDAA0AAB0B121203E95C
:1057E300F5088003750802A9087406121FE07F0AF2
:1057F3000220F374EC12202174DA121FCA890D8A75
:10580300128B138C0A8D0B743A122015E0F50C9051
:105813008B82C082C083851882851983AC82AD8355
:10582300D083D0827406121EDD851882851983AC5D
:1058330082AD83AA12AB13A90D120D6BE9FEEEC361
:10584300940A4003025995EEF9120DA7E9FF900E51
:10585300D2E064027004740180027400F5087808D1
:10586300122238AD0CEFFCEEF9AA0AAB0B120E199B
:105873007401121FE07C147D00790074121220154C
:10588300AA82AB83120B318A0E8B0F850E08850F0C
:10589300097412122015AC82AD837A1075F006EEEE
:1058A300A42424F91210B3E970437C1079FF741215
:1058B300122015AA82AB83120B91E9703074221265
:1058C3002015AC82AD837A0475F006EEA42425F985
:1058D3001210B3E9F5087412122015AC82AD83EFF0
:1058E300A2E0E433F9AA0AAB0B12128DE974061293
:1058F3002015AC82AD837A0C74702EF91210B3E9C3
:10590300707E7406122015AA82AB83120D9B750E4E
:1059130000E50EC394045068E50EA80E7900E875FF
:10592300F003A4C8AAF075F000A42AFA75F003E9FD
:10593300A42AF97406122015E58228F508E58339AF
:10594300F509850882850983E0F8A3E0F9E8496051
:105953002B850882850983A3A3E0F51075110078D0
:1059630010122234850882850983E0FCA3E0FDAA96
:105973000AAB0B1214F17402121FE0E9050E8091B9
:10598300EFA2E1500D900398E0F9AA0AAB0B1214B1
:10599300F7E97404650C700F900ED2E0640270078F
:1059A300AA0AAB0B120E1379007426121FE07F0CA8
:1059B3000220F374F2122021890BEAFEEBFF8C081C
:1059C3008D09750A0AE50B600C1460091460441410
:1059D3006064025A5AEEFAEFFB120DB9E9F50AE5D3
:1059E3000AC3940A5071E5084509606B750C067586
:1059F3000D00780C122234EEFCEFFDAA08AB09125D
:105A03000B197402121FE08A0C8B0D850C82850D15
:105A1300838044EEFAEFFB120DB3E9F50AE50AC3FE
:105A2300940A5033E5084509602DAA08AB09A90A71
:105A3300120DADE98021EEFAEFFB120DBFE9F50A75
:105A4300E50AC3940A5010E5084509600AAA08ABA1
:105A530009A90A120DADE9A90A7F060220F374F21F
:105A63001220218A0C8B0DE9FE7F1574FF650C70E3
:105A73000474FF650D702A750800E508C3940A5085
:105A830014EEFC7A027B00A908120D89E960027FFB
:105A930000050880E5EE60637A017B0E1216F5803F
:105AA3005AAA0CAB0D1216D78A0A8B0B850A0885E6
:105AB3000B09E508450960417C007D00E5082405E4
:105AC300FAE5093400FB850882850983A3A3A3A310
:105AD300E0F9120D6BE9F50AE50AC3940A500EEEDC
:105AE300FC7A027B00A90A120D89E97F00EE600BA4
:105AF300AA08AB09120E0180027F14EFF97F060298
:105B030020F374EE1220218A0E8B0F8C0A8D0B74F6
:105B130012122015E0F50CA3E0F50D75081574FFBE
:105B2300650E700474FF650F701E7E00EEC3940A49
