:020000040000FA
:0600000002011D022B4F5E
:03002B0002240F9D
:030033000223E7BE
:03005300022BC2BB
:03006B0002238EDF
:03007B000223B6A7
:100083000229BBE5C754F84401F5C77901220000F2
:100093000080FB120086B90003020107E47921788E
:1000A30008B800028004F709D8FCE479297802B87B
:1000B30000028004F709D8FCE490028178F47908FF
:1000C3008002F0A3D8FCD9FA781A90014D7A01BACC
:1000D30000028007E493A3F608DAF9900A74AA826F
:1000E300AB8390014E786579098015E493A3AC82C4
:1000F300AD838A828B83F0A3AA82AB838C828D83A8
:10010300D8E9D9E775822F7583AA740412012F7574
:100113008291758300740012012F75D00075813FA1
:10012300751881751902759F00020096C09FF59F8F
:10013300E473D09F22D083D082C09FE493C0E07445
:100143000193C0E0740293F59F2201B209B809BE7E
:1001530009C409CA09D009D609DC09E209E809EE8C
:1001630009F409FA09000A060A0C0A68FFFF037B6F
:10017300034CCD6C03AB0336567600680402CB47C1
:10018300A202180400058BC1010C04000000000347
:100193007F060CC92C979797038903264666006C44
:1001A300022000024004000000000244040000009A
:1001B3000002480400000000024C0400000000029A
:1001C3005004000000000254040000000002580420
:1001D30000000000025C040000000002BC040000F8
:1001E300000001EC0400004000037F060CC92C97BB
:1001F30097970402030D355D040904872D353D00EF
:10020300A3010000000001078601FE074105F1205C
:10021300283038077E01300746019A074704F12842
:100223003038076C04F1283038021602000101B29D
:1002330002FFFF0190040923A135016A02060001B0
:10024300600800000000000000000060044000009F
:10025300000162020000006004004000000B095628
:10026300756C7475726545676705122F013F01024E
:100273000A000201061302454501020304050607AD
:1002830008090A0B0C0D0E0F1045676700D007E82D
:1002930003E80370110100E803E803D00760EA2ACA
:1002A30000880C0000BE0CCA0CD00CD60CDC0C125F
:1002B300416363656C2E2044617461000A4163638A
:1002C300656C2E20436F6E662E000A0A41636365D8
:1002D3006C2E20506572696F640002588C01000017
:1002E3001D8C02548C010000D80B10488A010000B9
:1002F300440302508C030000470302528C010000A8
:10030300D90B02548C010000E50B10588A0300003E
:100313004D0302528C010000E60B02548C010000D5
:10032300F30B10688A030000F40B02528C010000E7
:10033300F50B124261726F6D2E2044617461000AE5
:100343004261726F6D2E20436F6E662E0002426112
:10035300726F6D2E2043616C6962722E000A0A422D
:1003630061726F6D2E20506572696F640002588C44
:100373000100003E8C02548C0100005B0C10988A33
:100383000100004E0302508C030000520302528C02
:100393000100005C0C02548C010000680C10A88A58
:1003A300030000580302528C010000690C02548CB4
:1003B300010000860C10788A030000870C02528C1F
:1003C300010000880C02548C010000760C10B88ADE
:1003D300010000590302508C030000690302528C90
:1003E300010000770C12436F6E6E2E205061726114
:1003F3006D730008436F6E6E2E20506172616D73D2
:10040300205265710008446973636F6E6E6563748F
:10041300205265710002588C0100003B8C02548C01
:100423000100000E0D10188A010000710302508CA8
:10043300030000770302528C0100000F0D02548C5D
:100443000100001C0D10088A0200007D0302528C7B
:100453000100001D0D02548C0100002E0D10F889BF
:10046300020000850302528C0100002F0D020202DC
:100473003132333435363738393031320002020203
:10048300020202010D000000100102588C0100005D
:10049300298C02548C010000960D02768C01000019
:1004A300860302548C010000970D02728C01000038
:1004B300948B02548C010000980D02708C01000093
:1004C300990D02548C010000A70D026E8C010000EF
:1004D300468B02548C010000A80D026C8C010000B5
:1004E300A58B02548C010000A60D02688C0100004C
:1004F3006A8B02548C010000A90D02668C01000076
:10050300D98702548C010000AA0D02648C010000FB
:10051300C88A02548C010000AB0D02628C010000FA
:10052300AC0D12447331386232302E204461746151
:10053300000A447331386232302E20436F6E662EC8
:10054300000AD007447331386232302E205065726E
:10055300696F640002588C010000268C02548C01E0
:1005630000004B0E10C889010000900302508C0359
:100573000000920302528C0100004C0E02548C01C5
:1005830000005A0E10B889030000980302528C0130
:1005930000005B0E02548C0100006A0E10A8890350
:1005A30000006B0E02528C0100006D0E01E8030582
:1005B3003F100A124779726F2044617461000A4741
:1005C30079726F20436F6E662E000A0A4779726F45
:1005D30020506572696F640002588C010000208C02
:1005E30002548C010000DC0E1088890100005304C2
:1005F30002508C030000590402528C010000DD0EEE
:1006030002548C010000E70E1078890300005F0498
:1006130002528C010000E80E02548C010000F30E1C
:10062300106889030000F40E02528C010000F50EDD
:1006330001030080700061801248756D69642E208B
:1006430044617461000A48756D69642E20436F6EBE
:10065300662E000AD00748756D69642E20506572B6
:10066300696F640002588C0100002F8C02548C01C6
:100673000000610F104889010000C40402508C037C
:100683000000C80402528C010000620F02548C0166
:1006930000006E0F103889030000CE0402528C0153
:1006A30000006F0F02548C0100007C0F1028890397
:1006B30000007D0F02528C0100007F0F014812548D
:1006C300656D702E2044617461000A54656D702E4F
:1006D30020436F6E662E000A1E54656D702E2050E7
:1006E3006572696F640002588C010000358C0254F6
:1006F3008C010000E70F100889010000D0040250AC
:100703008C030000D40402528C010000E80F025451
:100713008C010000F30F10F888030000DA04025282
:100723008C010000F40F02548C010000001010E84B
:1007330088030000011002528C0100000210124DC8
:1007430061676E2E2044617461000A4D61676E2EED
:1007530020436F6E662E000A0A4D61676E2E20508D
:100763006572696F640002588C010000238C025487
:100773008C010000671010C888010000DB040250E0
:100783008C030000E10402528C0100006810025443
:100793008C010000731010B888030000E7040252B4
:1007A3008C010000741002548C010000801010A80A
:1007B30088030000811002528C0100008210124D48
:1007C3007075363035302E2044617461000A4D70E7
:1007D30075363035302E20436F6E662E000AC80002
:1007E3004D7075363035302E20506572696F640058
:1007F30002588C010000418C02548C010000E71068
:10080300108888010000EA0402508C030000F804F9
:1008130002528C010000E81002548C010000F61013
:10082300107888030000FE0402528C010000F710C8
:1008330002548C01000006111068880300000711A0
:1008430002528C0100000911FF00013075030201FF
:10085300060000000000000000000000000000008F
:1008630000000000000000000000000000FFFF0681
:1008730000800CE803104B65792050726573732078
:1008830053746174650002588C0100002C8C02546F
:100893008C0100009E1102608C000000AE05025026
:1008A3008C030000AF0502528C0100009F11FF0072
:1008B30000B4000028002800283075A000A000A084
:1008C30000A00000080008E001F000100010001074
:1008D30000100010001000500050005000100010D5
:1008E30000D0070000000000000F000100050030E9
:1008F3007507001000010081FF00000000FF2A13AC
:1009030048133013FF02020208025000A000000047
:10091300E80302588C010000328C02548C01000061
:100923002E12024E8C010000E70502548C010000D8
:100933002F12024C8C010000FD0502548C010000B3
:100943003012024A8C010000FF0502548C010000A2
:10095300311202488C080000000602548C0100008A
:10096300321202468C0100003312FF0100FF200205
:10097300588C010000388C02548C0100009712023D
:10098300448C000000000002508C0300004D060060
:10099300190019001900190019001900190019008C
:1009A300190019001900190019941BAC1B8E1B1296
:1009B3000138F8C20312013844C3031201389AC341
:1009C300031201383FC403120138F3C40312013880
:1009D30012C50312013831C5031201385FC5031272
:1009E300013892C5031201380BC60312013891C6B0
:1009F3000312013831C703120138F6C70312013855
:100A030028C8031201385DC8031201388BC80312CA
:100A1300013899F202120138B8F202120138DBF2FE
:100A23000212013802F30212013829F302120138CB
:100A330050F30212013877F3021201389AF30212CB
:100A43000138BDF302120138E0F30212013803F456
:100A53000212013835F40212013858F40212013837
:100A630082F4021201381EF50212013843F5021214
:100A7300013868F5021201388DF502120138B2F51A
:100A830002120138D7F502120138FCF502120138BF
:100A930023F60212013861F6021201388DF60212B2
:100AA3000138B9F602120138DEF60212013817F7DF
:100AB300021201383EF70212013877F702120138A9
:100AC3009EF702120138D7F702120138FEF702121D
:100AD300013823F80212013848F80212013886F867
:100AE30002120138A9F802120138D3F802120138B0
:100AF300B2F9021201385AFB02120138AAFB0212A0
:100B03000138D7FC02120138F6FC0212013819FD34
:100B1300021201388DA603120138A2A6031201386E
:100B2300FAA60312013861A703120138A9A7031219
:100B330001381FA8031201384EA8031201385CA81C
:100B430003120138C0A803120138FEA803120138AA
:100B530019A903120138B1A9031201385AAA0312C1
:100B63000138DDAA0312013816AB03120138A1AB19
:100B730003120138F8AB0312013857AC03120138E2
:100B830069AC031201388FAC0312013898AC03121D
:100B93000138F7AD03120138DD9B04120138BC9C08
:100BA30004120138B08504120138F58504120138A6
:100BB3003B8604120138CE870412013881A3041244
:100BC30001389CA304120138ACA30412013803A416
:100BD300041201387EA804120138CBBC0312013879
:100BE300EBBC03120138EFBD031201383BBE031205
:100BF30001385BBE03120138AEBE031201381BBFBE
:100C03000312013861BF03120138C5BF0312013853
:100C130077C203120138138C04120138438C041277
:100C23000138738C04120138368D04120138908D0B
:100C330004120138C39404120138DB9404120138FE
:100C43003895041201387C9504120138AE950412CC
:100C53000138E595041201380896041201388832E8
:100C6300001201381A3900120138E1390012013833
:100C73005E3C001201386B450012013896450012A4
:100C830001389C4600120138DA4600120138DA486E
:100C930000120138114900120138514B001201387A
:100CA300634F001201389A4F00120138645000124A
:100CB30001389B5000120138D250001201380951FB
:100CC30000120138885100120138B751001201385F
:100CD300395200120138BF520012013892530012E8
:100CE30001381F5400120138E454001201384FA494
:100CF300041201387E9F0412013839E503120138CA
:100D03008CE503120138A9E5031201387EE60312CC
:100D13000138FBE603120138D8E7031201384DE925
:100D230003120138E5CD031201380ACE031201384C
:100D330068CE0312013897ED03120138EAED03126E
:100D4300013813EE031201387CEE03120138BAEFB7
:100D53000312013874F10312013821A90412013876
:100D63004055001201384E58001201380E5A001235
:100D73000138B95A001201385D5B00120138F65B85
:100D830000120138255C00120138FF60001201389F
:100D9300AA61001201381A6300120138826300123B
:100DA3000138366400120138F866001201383767DB
:100DB30000120138AB67001201380A6800120138CB
:100DC300696800120138D86800120138CB69001233
:100DD3000138116A00120138566A00120138796A23
:100DE30000120138F46B00120138076C001201384D
:100DF300106D001201384F6D001201387B6D001227
:100E03000138CE6D00120138EF6D00120138336ED8
:100E130000120138857000120138C67000120138C3
:100E2300717100120138DC7100120138197300125C
:100E3300013805A504120138F88D04120138298EF2
:100E4300041201384D8E04120138508F04120138F8
:100E5300B8A10412013898A20412013837FF031213
:100E6300013855FF03120138DEFF03120138DAABF4
:100E730004120138529E04120138629E0412013892
:100E8300739E04120138789F041201380080041203
:100E93000138A68004120138C28204120138128874
:100EA30004120138748804120138EC8804120138E2
:100EB300948904120138B38904120138C3890412D6
:100EC3000138028A041201383A99041201387499DC
:100ED30004120138E79904120138219A04120138E7
:100EE300339A041201386A9A0412013823930412C4
:100EF3000138729304120138A49304120138359413
:100F030004120138B194041201387B7E00120138B7
:100F1300A47E00120138CD7E001201388D7F0012AD
:100F23000138DE7F0012013852960412013885968B
:100F33000412013801970412013821970412013871
:100F4300869704120138CE9704120138D197041200
:100F53000138F5AB0412013807AC041201380AACAE
:100F630004120138189D04120138679D04120138D8
:100F7300939D04120138B39D04120138409E04125C
:100F830001388E9A04120138DF9A04120138269B25
:100F930004120138B09B04120138F87F00120138A3
:100FA3003CFD0212013833FF021201389FFF021287
:100FB3000138E6FF02120138FED20312013851D381
:100FC300031201387AD30312013838D403120138DB
:100FD300A1D403120138DFD50312013899D70312C4
:100FE3000138A39403120138D19403120138D19626
:100FF30003120138D19803120138C0990312013842
:10100300729D03120138DD9D03120138BBA5041242
:10101300013871A6041201387DE903120138D0E9C1
:1010230003120138F9E90312013862EA03120138A5
:10103300A0EB031201385AED03120138148A04128B
:1010430001387D8A041201383B8B04120138BA8BB4
:101053000412013818F9031201384AF9031201384E
:1010630052FA0312013877FB03120138008003128E
:101073000138E68003120138338103120138768187
:1010830003120138EB81031201384C820312013839
:10109300C182031201389D8303120138A88403120D
:1010A3000138298503120138D08603120138668777
:1010B30003120138D9870312013855880312013806
:1010C3006C8803120138A38903120138FD890312C6
:1010D300013808E801120138A0EC0112013874EF5D
:1010E300011201389DEF01120138B4EF01120138EA
:1010F300DDEF011201388FF00112013875F2011290
:101103000138B0F301120138E6F8011201381FF972
:101113000112013863F90112013875FA011201381D
:10112300A3AA0412013827A704120138C48F04129A
:101133000138DB8F041201380C90041201384790F8
:10114300041201387190041201389B900412013883
:10115300B29004120138C99004120138E0900412CD
:1011630001380991041201381C910412013832919B
:10117300041201384591041201386C9104120138AC
:10118300698A031201386D8B03120138A58B031290
:101193000138C88B03120138D38B03120138F68B45
:1011A30003120138058D03120138DA8D0312013859
:1011B300558E03120138DD8E03120138188F031286
:1011C30001384F8F03120138DD8F03120138B690B7
:1011D30003120138169103120138219103120138C9
:1011E300A09103120138A39103120138A6910312AF
:1011F300013835920312013838920312013868928C
:1012030003120138929203120138809303120138BA
:1012130032940312013835FB011201385DFB0112D0
:1012230001388BFB01120138C2FB0112013820FC8B
:10123300011201386BFC01120138B6FC01120138AE
:10124300F6FC011201383CFD011201386AFD01125E
:10125300013827FE0112013831FE011201383EFE2A
:101263000112013871FE011201383DFF01120138EC
:1012730049FF0112013861FF011201386BFF0112AE
:101283000138AAA204120138B8A204120138D0A26C
:1012930004120138E8A204120138519F02120138E6
:1012A300FD9F0212013878A00212013899A102129F
:1012B3000138D5A1021201387EA20212013865A3BA
:1012C30002120138C9A40212013820A50212013802
:1012D300A1A50212013891A602120138DEA602125C
:1012E300013864A70212013896A702120138AAA98D
:1012F30002120138ECA9021201380AAA02120138BB
:101303008DAA0212013861AB0212013829AC021214
:101313000138A8B5031201387BB60312013824B78C
:101323000312013877B70312013827B803120138C3
:10133300B3B8031201389FB903120138CEB90312AF
:101343000138E1BA0312013829BB03120138FEBB8D
:10135300031201383ABC0312013856BC0312013898
:10136300ABA9041201387FF50312013895F5031276
:101373000138BBF503120138D7F603120138E1F641
:101383000312013816F8031201380EF9031201385B
:10139300BEC803120138EEC90312013821CA031271
:1013A30001386BCA0312013832CC031201380080B2
:1013B300021201386A8002120138C981021201380F
:1013C300D981021201380682021201385D820212AB
:1013D30001380683021201380D8402120138D784C2
:1013E300021201383786021201387A860212013856
:1013F3001F87021201386C8702120138928702128A
:101403000138A08902120138A58902120138AA8B7A
:1014130002120138F78B021201386A8C021201386A
:101423009D8C021201383F8D02120138E88D0212A1
:101433000138208E02120138238E021201386B8E7E
:1014430002120138AB8E02120138028F02120138E8
:10145300DD8204120138F582041201383D8304123F
:1014630001385383041201389A8304120138AE847D
:10147300041201383B8504120138868504120138B1
:101483007D8C01120138898C01120138C48C011240
:101493000138098D01120138C98D011201384F8EAF
:1014A30001120138B48E01120138E08E01120138A5
:1014B300198F011201385791011201383B93011220
:1014C3000138219501120138649601120138B2984E
:1014D30001120138C499011201380F9B011201381E
:1014E3001F9C011201383C9C01120138779C0112A8
:1014F3000138999C01120138FC9C01120138BDA1ED
:101503000112013852A201120138A3A201120138BB
:10151300CAA2011201381CA3011201383AA3011215
:10152300013894A3011201387DA401120138F3A5F7
:101533000112013877A601120138D6D703120138F8
:10154300E0D70312013823D8031201383ED803121F
:101553000138CED803120138F6D80312013833D933
:10156300031201386AD90312013893D903120138DF
:1015730008DA031201381DDA0312013832DA0312D2
:10158300013863DA0312013877DA031201389CDA7F
:1015930003120138D6DA0312013802DB03120138D1
:1015A3003ADB03120138B9DB0312013802DC031200
:1015B30001382CDC0312013857DC031201389FA0D9
:1015C30004120138C6E502120138F4E502120138AB
:1015D30042E70212013822E80212013841E80212FE
:1015E3000138BEE80212013801E90212013857EA54
:1015F3000212013818EB021201389FED0212013872
:1016030040EE0212013836EF0212013833F00212B3
:1016130001388DF10212013818F202120138DF97F6
:10162300041201384898041201389C9804120138B6
:10163300C39804120138F498041201387FDC0312B2
:101643000138ECDC0312013833DD031201384BDEC1
:101653000312013847DF031201382AE0031201386D
:10166300249E03120138669E03120138389F031229
:10167300013811A0031201380BA103120138EDA1A7
:101683000312013856A2031201380CA303120138C6
:1016930080A303120138ECA30312013815A403122B
:1016A30001388FA40312013828A5031201388DA530
:1016B30003120138A2A503120138E8A50312013869
:1016C30001A60312013866A60312013869A60312A4
:1016D30001383EFC0312013866FC03120138A4FCF6
:1016E3000312013862FD03120138C9FD03120138E8
:1016F300E5FD031201380DFE031201383DFE03120E
:1017030001384CFE03120138C9FE03120138EFFE03
:1017130003120138EF8F02120138CD910212013802
:10172300FF93021201383B940212013868940212AB
:1017330001385295021201389D9502120138E8953D
:1017430002120138FA95021201383A960212013850
:101753006F9602120138BD9602120138EC960212FE
:1017630001380F97021201385C9702120138E19792
:1017730002120138FB99021201383A9C0212013815
:101783007B9C021201381D9E021201385E9E0212DA
:101793000138D19E02120138279F02120138B1D8B5
:1017A30002120138AFD90212013848E0021201389F
:1017B30069E20212013834E4021201389CE5021294
:1017C3000138DEA6011201388DA701120138BAA72C
:1017D3000112013800A80112013840A90112013891
:1017E300D6AA0112013850AB011201386BAB0112BA
:1017F3000138E6AB0112013840AD01120138A0AE49
:1018030001120138A6AF0112013807B101120138E4
:1018130020B1011201387EB1011201386CB20112FC
:1018230001389FB2011201380FB30112013889B395
:1018330001120138D3B3011201389DB401120138EA
:1018430072B50112013851B601120138DCB601122A
:1018530001384AB701120138BEB701120138E9B79E
:1018630001120138A8B8011201380DBA011201386A
:101873002ABA0112013849BA011201383ABB0112DE
:1018830001385FBB0112013889BB0112013804BC66
:10189300011201385EBC01120138C7BD01120138C3
:1018A30075BE01120138B6BE01120138DDCA02123B
:1018B30001382BCB0212013837CB0212013815CC79
:1018C3000212013846CC0212013877CC02120138D9
:1018D300F7CC021201382FCD0212013881CD02124A
:1018E3000138BECD02120138DBCF0212013801D21A
:1018F30002120138ECD302120138D6D50212013894
:101903007D3200120138F5D30112013825D40112BA
:101913000138FEDA0112013883DC0112013880E25A
:101923000112013868E301120138A5E301120138FD
:10193300C8E301120138F9E30112013802E401128C
:1019430001380CE401120138FAE401120138F0E520
:1019530001120138E6BE01120138E5C20112013855
:10196300EBC20112013826CA011201383FCF01121E
:101973000138B1F10312013847F2031201385DF265
:1019830003120138D3F20312013847F3031201386B
:1019930085F303120138F9F30312013872F40312C9
:1019A30001387BF40312013887F4031201389CF4E5
:1019B30003120138DAF403120138F0F40312013888
:1019C3004FF503120138ECE003120138F9E003127A
:1019D300013813E10312013852E10312013890E197
:1019E30003120138F5E1031201380AE20312013848
:1019F30015E20312013822E20312013839E203121D
:101A0300013847E20312013852E2031201385EE261
:101A1300031201386DE20312013878E20312013830
:101A23009BE20312013842E30312013852E303122B
:101A330001386CE30312013889E303120138A5E38B
:101A430003120138CAE303120138D5E30312013844
:101A5300EAE303120138FEE3031201385FE40312E1
:101A6300013865E4031201386BE40312013871E4B1
:101A73000312013889E403120138BCE4031201386C
:101A8300B3BC0212013837BD02120138E6BD02129F
:101A9300013845BF0212013866C10212013852C231
:101AA3000212013887C202120138A9C20212013898
:101AB30058C30212013850C50212013879C5021207
:101AC30001380BC6021201383DC6021201384AC65C
:101AD30002120138A1C602120138C7C60212013828
:101AE30034C90212013837CA021201388FCA0212EE
:101AF300013842AE021201384CAF0212013833B042
:101B0300021201383DB0021201385FB002120138EF
:101B13006BB00212013804B20212013833B202125E
:101B230001384FB302120138A8B3021201380EB5BF
:101B330002120138EDB50212013849B6021201381A
:101B4300B6B602120138F1B60212013830B70212EA
:101B53000138E9B90212013803BA021201388FBA07
:101B6300021201389DBA02120138F6BA0212013884
:101B730004BB0212013877BB02120138DBBB02122D
:101B8300013825BC021201384D73001201386F73FE
:101B930000120138957500120138AA780012013835
:101BA300C27900120138757A00120138577B00128E
:101BB30001387E9104120138A39104120138159261
:101BC300041201382EAE0312013837AE0312013866
:101BD30040AE0312013817AF03120138C8B0031225
:101BE3000138FEB00312013838B1031201386EB167
:101BF30003120138A8B103120138DCB10312013812
:101C030008B20312013851B2031201388BB2031226
:101C13000138D4B2031201382CB30312013861B373
:101C230003120138BCB303120138F6B303120138AF
:101C330047B4031201387DB403120138B7B4031259
:101C43000138E5B40312013808B503120138D3A7EC
:101C530004120138FFA7041201385AA804120138EC
:101C630064A80412013874A80412013808AB0412E2
:101C7300013890AB041201385AAB04120138BCABE3
:101C830004E066701008A3E066700A08A3E06670BB
:101C93000408A3E06622C3E7960809E7960809E764
:101CA300960809E79622C3E09608A3E09608A3E006
:101CB3009608A3E09622C008C3E096F50808A3E0BF
:101CC30096420808A3E096420808A3E096450870E8
:101CD30001D3D00822080808EAC0E0EBC0E086F090
:101CE300E7A4FA180986F0E7A42AFA180986F0E7A8
:101CF300A42AFA180986F0E7A42AFA1986F0E7A4B9
:101D0300FBE5F02AFA190886F0E7A42BFBE5F03A85
:101D1300FA190886F0E7A42BFBE5F03AFA1818093C
:101D230086F0E7A4C5F02BFBE43AFA1908E7C5F0FF
:101D3300C6A426F6E5F03BFBE43AFA1886F0E7A4DE
:101D4300F6E5F00826F6E43B08F6E43A08F6D0E0B8
:101D5300FBD0E0FA22E4CFC0E0E4CEC0E0E4CDC0A3
:101D6300E0E4CCC0E075F020C3E633F608E633F6D2
:101D730008E633F608E633F6181818EC33FCED33AF
:101D8300FDEE33FEEF33FFC3EC9709ED9709EE97B2
:101D930009EF97191919400FFFEC97FC09ED97FD0F
:101DA30009EE97FE191906D5F0BEECF709EDF70910
:101DB300EEF709EFF7191919D0E0FCD0E0FDD0E0F8
:101DC300FED0E0FF226016080808C6C313C618C673
:101DD30013C618C613C618C613C6D5E0EA2270097F
:101DE300080808226016181818C6C333C608C63375
:101DF300C608C633C608C633C6D5E0EA22E627F6C8
:101E03000809E637F60809E637F60809E637F62241
:101E1300E026F608A3E036F608A3E036F608A3E0CA
:101E230036F622E026F008A3E036F008A3E036F009
:101E330008A3E036F022C3E697F60809E697F6080A
:101E430009E697F60809E697F622C3E096F008A399
:101E5300E096F008A3E096F008A3E096F022E65798
:101E6300F60809E657F60809E657F60809E657F6AD
:101E730022E056F608A3E056F608A3E056F608A3B8
:101E8300E056F622E056F008A3E056F008A3E05629
:101E9300F008A3E056F022E647F60809E647F608FD
:101EA30009E647F60809E647F622E0F608A3E0F656
:101EB30008A3E0F608A3E0F622E6F008A3E6F0089C
:101EC300A3E6F008A3E6F022E0FAA3E0FBA3E0FC1C
:101ED300A3E0FD22EAF0A3EBF0A3ECF0A3EDF022E4
:101EE300CAC0E0E6F0A308DAFAD0E0FA22CAC0E0FA
:101EF300E0A3C582CCC582C583CDC583F0A3C582CB
:101F0300CCC582C583CDC583DAE6D0E0CA22C3E45B
:101F130098F8E499F9121F528026C3E49AFAE49BD5
:101F2300FBE920E7E9121F52E498F8E499F922C388
:101F3300E498F8E499F9121F52E498F8E499F9C384
:101F4300E49AFAE49BFB22EB20E7CFE920E7E0B930
:101F53000010BB0008E88AF084F8AAF022E4FBC86A
:101F6300FA22EB70227B10C833C8C933C933500738
:101F7300C39AC3DBF280069A50012ADBEAC833F422
:101F8300C8C933F4C9FA2275F008E4C833C8C933A1
:101F9300C933C99AC99B5004C92AC93BD5F0ECFB84
:101FA300C833F4C8E4C9FA22600D08C6A2E713C611
:101FB30018C613C6D5E0F322600C08C6C313C618AF
:101FC300C613C6D5E0F422700422600D18C6C333CD
:101FD300C608C633C6D5E0F41822251810AF08F595
:101FE30018400215198008F51840021519D2AF22BE
:101FF300C0D0251810AF08F518500205198008F550
:102003001850020519D2AFD0D0222518F58210AF8F
:1020130008F518400215198008F51840021519D261
:10202300AF851983222518F582E43519F58322E457
:10203300732518C582C0E0E51934FFC583C0E0E508
:1020430018C3958224F810AF0885831985821880F8
:1020530008858319858218D2AFCEF0A3E520F0A3BB
:102063007808E608F0A3DEFAEFF0A3E58124FAF896
:10207300E608F0A3E608F0A3E608F0A30808E608DC
:10208300F0A3E608F0A315811581D0E0FED0E0F8B7
:10209300158115811581E8C0E0EEC0E0222518C541
:1020A30082C0E0E51934FFC583C0E0E518C395821B
:1020B30024F910AF08858319858218800885831950
:1020C300858218D2AFCEF0A3E520F0A37808E60806
:1020D300F0A3DEFAEFF0A3E58124FBF8E608F0A312
:1020E300E608F0A30808E608F0A3E608F0A31581C4
:1020F3001581D0E0FED0E0F815811581E8C0E0EE4F
:10210300C0E022851983851882E0A3FEE0A3F520B1
:102113007808E0A3F608DFFAE0A3FFE0A3C0E0E05D
:10212300A3C0E0E0A3C0E0E0A3C0E0E0A3C0E010F0
:10213300AF088582188583198008858218858319DD
:10214300D2AFD083D082020135851983851882E00E
:10215300A3FEE0A3F5207808E0A3F608DFFAE0A3E6
:10216300FFE0A3C0E0E0A3C0E0E0A3C0E0E0A3C0C1
:10217300E010AF0885821885831980088582188549
:102183008319D2AFD083D08222C0D02518C582C094
:10219300E0E51934FFC583C0E0E518C3958224F355
:1021A30010AF088583198582188008858319858275
:1021B30018D2AFC8F0A3E9F0A3EAF0A3EBF0A37938
:1021C30008E709F0A3D8FAECF0A3EDF0A3EEF0A32F
:1021D300EFF0A3D0E0F0A3D0E0F0A3D0E0F0A3E5CC
:1021E30020F0A3E5F0F0A322851983851882E0C0CF
:1021F300E0A3E0F9A3E0FAA3E0FBA37808E0F60884
:10220300A3DFFAE0FCA3E0FDA3E0FEA3E0FFA3E06D
:10221300C0E0A3E0C0E0A3E0F5D0A3E0F520A3E095
:10222300A3F5F010AF08858319858218800885838C
:1022330019858218D2AFD082D083D0E0F8D0E032B3
:1022430074048006740280027401C0E0F404122056
:102253000DD0E0121EE3227404800474028000CCCB
:10226300C0E0EDC0E0E518C39CCCAD1950011D10D2
:10227300AF068C188D1980068C188D19D2AF121EDB
:10228300F0D0E0FDD0E0FC22D083D082E9C0E0E4CE
:1022930093A3C386F0C5F095F0F908E493A386F001
:1022A300C5F095F0700BE493A3C3994005E904804E
:1022B30002A3E475F002A42582F582E5F03583F5E7
:1022C30083D0E0F9E493A3C0E0E493C0E022D08399
:1022D300D082ECC0E0EDC0E0E493A3FCE493A3FD63
:1022E300ED4C600D12231DEC24FFFCED34FFFD804B
:1022F300EFE493A3FCE493A3FDED4C600D12235C88
:10230300EC24FFFCED34FFFD80EFD0E0FDD0E0FCDA
:10231300E493A3C0E0E493C0E022C0E0C3E4939657
:10232300087401939618400FE493667008087401CB
:1023330093661870007019A3A3C3E49396087401FD
:10234300939618A3A3400DD0E0D0E0D0E002230D74
:10235300A3A3A3A3A3A3D0E022C0E0C0F088F0E42A
:10236300936670080874019366187000A8F0A3A31D
:10237300700BD0F0D0E0D0E0D0E002230DA3A3D0C7
:04238300F0D0E02294
:10238800C2AF02000022C0E074F212218CA2AFE4B6
:1023980033FED2AFE589A2E05003120F40758900E1
:1023A800C2C5EEF8EEA2E092AF7F010221EBC0E0D9
:1023B80074F212218CA2AFE433FED2AFE58AA2E612
:1023C8004006E58AA2E75003120F40758A00758A15
:1023D80000C2EBEEF8EEA2E092AF7F010221EBC063
:1023E800E0C0D0E8C0E0E9C0E0A2AFE433F8D2AF83
:1023F800758B00C2E8E8F9E8A2E092AFD0E0F9D026
:10240800E0F8D0D0D0E032C0E0C0D0E8C0E0E9C009
:10241800E0A2AFE433F8D2AFC2C7751A00E8F9E812
:10242800A2E092AFD0E0F9D0E0F8D0D0D0E032749A
:10243800F51220A0EAFEEBFFEE2434F8EF3400F9A1
:1024480088088909EE2435F582EF3400F583E0F831
:10245800EE2437F582EF3400F583E0F50AEC850ABF
:10246800F0A4FCAAF0850AF0EDA42AFDE82CF8E413
:102478003DF97A257B00121F52EA85088285098377
:10248800F0F8740758F97401B900028004C333D90D
:10249800FCFAE8131313541FF8EE28F8EF3400F988
:1024A800E8245DF582E93400F583E05A6008EE24FB
:1024B80034F582EF802CEE2434F582EF3400F58376
:1024C800E0C0E0EE2436F582EF3400F583E0F5F065
:1024D800D0E084A8F0EE28F8EF3400F9E82438F5C5
:1024E80082E93400F583E0F97F0402214C74F51287
:1024F80020A0EAFEEBFFEE2434F582EF3400F583EA
:10250800E0C0E0EE2435F582EF3400F583D0E0F04A
:102518008E828F83A3A3A3A3A3A3A3C082C0838E09
:10252800828F83A3A3A3A3A3E0F8A3E0F9D083D069
:1025380082E0C398F508A3E099F509EE247FF582B7
:10254800EF3400F583E064017069EE2480F582EFD2
:102558003400F583E0F8A3E0F98E828F83A3A3A368
:10256800A3A3A3A3E0FCA3E0FD8E828F83A3A3A370
:10257800A3A3E0FAA3E0FBC3EA9CEB9D5010C3ECD5
:1025880098ED99402EC3EA98EB995027800EC3EA3C
:1025980098EB994007C3EC98ED9940177C107D089B
:1025A800EEFAEFFB12185EEE247FF582EF3400F5A9
:1025B80083E4F0EE2434F8EF3400F9E8FCE9FDEEAA
:1025C8002435F582EF3400F583E0F8EE2437F58200
:1025D800EF3400F583E0F50AE508850AF0A4F5086C
:1025E800AAF0850AF0E509A42AF509E82508F8E41F
:1025F8003509F97A257B00121F52EA8C828D83F007
:10260800F8740758F97401B900028004C333D9FC7F
:10261800FAE8131313541FF8EE28F8EF3400F9E81A
:10262800245DF582E93400F583E05A6008EE24342D
:10263800F582EF802CEE2434F582EF3400F583E048
:10264800C0E0EE2436F582EF3400F583E0F5F0D0F3
:10265800E084A8F0EE28F8EF3400F9E82438F58291
:10266800E93400F583E0F912326F0224F0C082C029
:1026780083851882851983E0F8A3E0F9C3EA9CEB07
:102688009D5010C3EC98ED99401BC3EA98EB995004
:1026980014800EC3EA98EB994007C3EC98ED994073
:1026A80004790180027900D083D08222EAC39CFA9F
:1026B800EB9DFB2274EF1220A09006D6E064086020
:1026C80005E06407702A9061C8E06024900704E080
:1026D800F4601DE0F875F003A4C8AAF02AF974069E
:1026E80028FE740739FF8E828F83A3A3A3E07003AB
:1026F8000227EC906060E0C0E0EE2468F582EF34D9
:1027080000F583D0E0F0750C79750D087508007533
:102718000900E5D914F50AE5D95403F50E601774D4
:1027280003650E605CE50A6010EE2467F582EF34FD
:1027380000F583E070030227D1900874E06401601B
:102748002AEE2482F582EF3400F583E060047804F1
:1027580080027800850A08E508C398FA95E0FB121C
:1027680017268A088B09EA45097005121A628074CF
:10277800EE2482F582EF3400F583E070048A0C8B36
:102788000DE50A6012850C82850D83F50BE5D9F0FD
:10279800A3150BE50B70F6EE2482F582EF3400F5F5
:1027A80083E0604474FC250AF50A780C122247ACD1
:1027B8000AA90EEEFAEFFB1218FA7402121FF3E9D7
:1027C8007026AA08AB09121042793D8E828F83A326
:1027D800A3A3A3E0FA7B001215FAEEFAEFFB121896
:1027E8007612190C790080747403650E6056850A98
:1027F800107511007810122247AC0CAD0DAA08AB69
:10280800091218D67402121FF3EE2468F582EF3409
:1028180000F583E064807004747F8001E0F50C7833
:102828000C12224BE50EF50C780C12224BA90AACBF
:1028380008AD09900704E0FA7B001215BE74021275
:102848001FF380139006D6E06408600BAC0CAD0D46
:10285800EEFAEFFB121966121A6E79017F0A02214D
:102868004C74F51220A074FC121FDDEAFEEBFF8900
:1028780008A2AFE433F509C2AF806AEE2463F8EF2B
:102888003400F97A007B00A2AFE433F50AC2AF88BE
:10289800828983E0FCA3E0FDEC4D603A888289835D
:1028A800E0FAA3E0FB8A828B83E0FCA3E0FD888248
:1028B8008983ECF0A3EDF08A828B83E4F0A3F0889F
:1028C800828983E0FCA3E0FDEC4D700A888289834D
:1028D800A3A3E4F0A3F0E50AA2E092AF121042909D
:1028E8000817E004F0EE2463F582EF3400F583E086
:1028F800F8A3E0F9E849603DEE2463F582EF34007F
:10290800F583E02402FAA3E03400FBEA2402F50A86
:10291800EB3400F50B780A1222478A828B83E0FC9D
:10292800A3E0F9EEFAEFFB12189A7402121FF3E90A
:102938007003022883900817E06063900818E0F895
:10294800900817E0C398500C7402650870509008FE
:1029580019E0604A8E828F83A3A3A3A3E08518821F
:10296800851983F0A3E4F0900817E0F874021220A8
:1029780028E8F0A3E4F0900817E0F8900816E0289B
:10298800F07402122028AC82AD83851882851983E1
:10299800AA82AB8379011215CA900817E4F0E509F9
:1029A800A2E092AF7404121FF30224F085218785F8
:1029B80022C622C0E0C0D0E8C0E0E9C0E0EAC0E03A
:1029C800EBC0E0ECC0E0EDC0E0EEC0E0C008C0093C
:1029D800C00AC00BC082C083C0F0A2AFE433FEC2FD
:1029E800AF759B00906182E0A2E05012E591A2E0F1
:1029F800500C7591FE7401652170031226BCE0A28B
:102A0800E55051E591A2E5504B7591DF9006D6E06F
:102A180064076005E06408702374016521703579E6
:102A280001900704E0FA75F003A4CAA8F028FB7423
:102A3800062AFA74073BFB1228698018E0640D70B7
:102A4800139006F8E004F064287002E4F07A00E0DD
:102A5800F9121A74906182E0A2E64003022B02E5A3
:102A680091A2E64003022B027591BF9006D6E0645E
:102A780005700812199C1219A880031219A2752151
:102A880000121A02E99006D7F079001219F6121707
:102A9800D47A017B009006D5E0F9120B6E9078038A
:102AA800E064427055900878E014F0704DC2AF129F
:102AB8002ABA00782AD0E0F618D0E0F6E59F540745
:102AC80070057509FF800375097FC4C0E07829E6A1
:102AD800F50808E65509F509740B7808121FBBD0EC
:102AE800E02508F8906270E0A2E740F8E8C3339068
:102AF8006272F0906270E0D2E0F0906181E0A2E34F
:102B08005009E5E9A2E3500375E9F7A3E0A2E7500D
:102B180009E591A2E7500375917FEEA2E092AFD04C
:102B2800F0D083D082D00BD00AD009D008D0E0FEF4
:102B3800D0E0FDD0E0FCD0E0FBD0E0FAD0E0F9D066
:102B4800E0F8D0D0D0E032C0E0C0D0C082C08390DE
:102B58006183E0A2E05009E5BFA2E0500375BFFE23
:102B6800E0A2E15009E5BFA2E1500375BFFDE0A274
:102B7800E25009E5BFA2E2500375BFFBE0A2E350B3
:102B880009E5BFA2E3500375BFF7E0A2E45009E5E9
:102B9800BFA2E4500375BFEFE0A2E55009E5BFA26C
:102BA800E5500375BFDFE0A2E65009E5BFA2E65095
:102BB8000375BFBFD083D0828088C0E0C0D0E8C092
:102BC800E0E9C0E0EAC0E0EBC0E0ECC0E0EDC0E066
:102BD800C0F0E5A7A2E6500FE5A1A2E6500953A769
:102BE800BF75A1BF122C27E5A7A2E5500CE5A1A24D
:102BF800E5500653A7DF75A1DFE5A7A2E15009E577
:102C0800A1A2E1500375A1FDE5A7A2E2500CE5A140
:102C1800A2E2500653A7FB75A1FBD0F0022B387433
:102C2800F81220A07521019006D6E06406701512EE
:102C3800192A8A828B83A3A3A3A3A3A3E0FAA3E000
:102C4800FB12198AA2AFE433FED2AF9006DCE0642F
:102C58000170187A207B009006D5E0F9120BFE7AF5
:102C6800207B009006D5E0F9120B74906182E0D2C7
:102C7800E6F0900875E0602185C62280169006DB94
:102C8800E064017008E5C654F84405F5C653BEFC77
:102C98001229B47401652160E4EEA2E092AF7F01CD
:102CA80002214C008E238F2485822885832785184E
:102CB80082851983E0CEA3E0CF852882852783EB20
:102CC800C9EAC8EDCBECCA75F010C3E833C8E933DC
:102CD800C9EA33CAEB33CBC3EA9EF526EB9FF52549
:102CE800B35004AB25AA26EC33CCED33CDD5F0DABE
:102CF800AE23AF242274E91220A074F8121FDD85D8
:102D08001882851983ECF0A3EDF08A088B099006E8
:102D1800D6E024F7C394055006750801022E9412D4
:102D2800192A8A0A8B0BAE0AAF0BEE4F7003022EDC
:102D380091AC08AD097402122028AA82AB8312193B
:102D4800BA8E828F83A3A3750CFF750DFF750EFFD6
:102D5800750F00780C121E7474021220287510FF6B
:102D68007511FF7512FF7513007810121E74780C18
:102D78007910121C99502A780C7910121E3975088E
:102D8800017509C8750A00750B007808790C121CC2
:102D9800995052850C08850D09850E0A850F0B8000
:102DA800507514017515C87516007517008510083B
:102DB80085110985120A85130B7808790C121E39BA
:102DC80078147908121C99401C750800750900755B
:102DD8000A00750B0178087910121E397808790CE9
:102DE800121E00800C750801750900750A00750B24
:102DF8000074097808121DE1750C19F50DF50EF52A
:102E08000F7808790C121D588E828F83A3A3A3A371
:102E1800A3A3E0F8A3E0F97AD07B03121F52880C31
:102E2800890DE4F50EF50F7808790C121E0074066A
:102E3800122028E0F8A3E0F97AD07B03121F52E8A9
:102E4800FA8A0CE4F50D7808790C121C9950077869
:102E580008790C121E399006D6E06408600AE0640E
:102E6800066005E06405702D750C0D780C79081264
:102E78001C994021750CF4750DFF750EFF750FFF39
:102E88007808790C121E00800C7508007509007509
:102E98000A00750B00851882851983E0F8A3E0F510
:102EA8008388827808121EBC7408121FF37F1002F0
:102EB800214C74F71220A01219CC900873E0640119
:102EC8007010906245E4F0A3F053F4F343FE0C5302
:102ED80090F3121978E5C654804449F5C6E59E5426
:102EE8007F644970F8906185740FF0900871E0F480
:102EF8007002A3E0604E900872E0600814601B1432
:102F0800602E8040750801750900900871E0780806
:102F1800121FCAE508F45280802A75080175090055
:102F2800900871E07808121FCAE508F452908014DE
:102F3800750801750900900871E07808121FCAE544
:102F480008F452A079007F0202214C74F71220A0E5
:102F5800E9FEEAFF74016E700C7A807B009006D55A
:102F6800E0F9120B6E903280E493F46008E493F970
:102F78001217C8800953C680E59E547F70FA12194B
:102F88007E900873E0640170031217E0900871E006
:102F9800F47002A3E0604B900872E0600814601AB5
:102FA80014602C803D750801750900900871E0785F
:102FB80008121FCAE50842808028750801750900B3
:102FC800900871E07808121FCAE5084290801375CE
:102FD8000801750900900871E07808121FCAE50811
:102FE80042A01219CC12192A8A088B09A808A90923
:102FF800E8496015E5E170FCE82414F582E934003D
:10300800F583E0F46003E0F5E174016F700A7A017A
:103018009006D5E0F9120BC8022F4E74ED1220A0CD
:103028008A088B098C0A8D0B7413122028780C12CD
:103038001EAD7808790C121C997510017511C875A8
:10304800120075130050127808790C121E39781086
:103058007908121C9950168010780C7908121E39BC
:103068007810790C121C9940047901800279007F4C
:103078000C02214C74ED1220A08A088B098C0A8D51
:103088000B7413122028780C121EAD780C790812D4
:103098001C9940117808790C121E39AA08AB09ACA2
:1030A8000AAD0B802275100075110075120075139A
:1030B800017810790C121E3978107908121E00AAAE
:1030C80010AB11AC12AD1380A68A828B837508FFF2
:1030D8007509FF750AFF750B007808121E877F04B3
:1030E80002214C74F51220A08C828D837808121E60
:1030F800AD8A828B837808121E4DEA2404F8EB34DB
:1031080000F98C828D83A3A3A3A3E0FCA3E0FD8830
:10311800828983C3E09CF0A3E09DF088828983C301
:10312800E09420A3E0944E40268A828B837508FFA2
:103138007509FF750AFF750BFF7808121E268A822B
:103148008B83A3A3A3A3E02420F0A3E0344EF002D2
:1031580030D174F51220A0E9FE90082BE0FAA3E024
:10316800FBEEC333F8E433F9743828F582748839F0
:10317800F583E02AF508A3E03BF509780812224711
:103188007A407B427C0F7D00122CAC7402121FF334
:103198008A088B098C0A8D0B74107808121DC8AA2E
:1031A80008AB097F0402214C74F11220A08A0C8B11
:1031B8000D8C0E8D0F740F122028E0FAA3E0FB741B
:1031C80011122028E0F508A3E0F509780812224733
:1031D800EA2401F508EB3400F509E4F50AF50B7863
:1031E8000C7908121CD8750871750902780C7908D1
:1031F800121CD8AA0CAB0DAC0EAD0F122CAC74027D
:10320800121FF38B09EA450960047A0180027A00EB
:10321800EC2AFCED3400FD7413122028E0F8A3E03A
:10322800F9E8FEE9FFECF8EDF97A717B02121F521A
:10323800880889098E828F837808121EBCECF8ED05
:10324800F97A717B02121F528A088B097405780873
:10325800121FCA8E828F83A3A3A3A3E508F0A3E558
:1032680009F07F0802214CC082C083E9906000F019
:10327800D083D08222020135FFFFFFFFFFFFFFFF4F
:1032880074ED122034746C121FDD120A7E7C007DEE
:10329800007E007F007410122028ECF0A3EDF0A34C
:1032A800EEF0A3EFF0908BA97808121EAD741012FF
:1032B80020287808121CA95014908BC57808121E73
:1032C800AD74101220287808121E2680D8790012B2
:1032D8000A847B017A017910120AD87906120ADE6B
:1032E800120AE4E9F5127B007A007900120AD81272
:1032F8000A9CE9F50F120AA8E9F50E120AB4E9F5D5
:103308000D120AC0E9F50C7A7F7900120A4E79008D
:10331800120A6C7A687900120A4E120A787C007DCB
:10332800007E007F007410122028ECF0A3EDF0A3BB
:10333800EEF0A3EFF0908BA17808121EAD74101276
:1033480020287808121CA95014908BC57808121EE2
:10335800AD74101220287808121E2680D87508012E
:10336800780812224B750800780812224B79007CE5
:10337800897D077A007B80120AF67402121FF3E92E
:10338800700302390E7CC07D007A977B0A120B020B
:10339800E9700302390A7903120A8A7912120A5467
:1033A8007904120A187901120A1E7903120A24797B
:1033B80003120A2A7903120B087900120B0E7900FE
:1033C800120AA2A90E120AAEA90D120ABAA90C1263
:1033D8000AC6750A00750B00750800E508C3940451
:1033E80040248508107511007402122028E0F8792D
:1033F800002403F8E93400F9C3E51098E51199A20F
:10340800D265D033503A7457250AF582740B350BC0
:10341800F583E0C0E08508107511008518828519CC
:1034280083E5822510F582E5833511F583D0E0F038
:103438000508E50A2401F50AE50B3400F50B809B25
:10344800750900780912224B750901780912224B77
:103458007403122028E0F509780912224B7403122C
:103468002028E0F97405122028E0FC7D007406127B
:103478002028AA82AB83120AF07403121FF3E9759D
:103488000800E508C39404402485081075110074E9
:1034980002122028E0F879002403F8E93400F9C37F
:1034A800E51098E51199A2D265D033503A745725A2
:1034B8000AF582740B350BF583E0C0E085081075BA
:1034C8001100851882851983E5822510F582E58328
:1034D8003511F583D0E0F00508E50A2401F50AE581
:1034E8000B3400F50B809B750900780912224B7587
:1034F8000901780912224B7403122028E0F5097893
:103508000912224B7403122028E0F97405122028AE
:10351800E0FC7D007406122028AA82AB83120AF010
:103528007403121FF3E9120A72120A908A108B119F
:10353800AE10AF11E510A9107414122028AA82AB9E
:1035480083120A967902120A36799C120A42795035
:10355800120A3C7900120A48120A727901120A66A4
:103568007901120ACC120AD2750800E508C394043E
:1035780040248508107511007402122028E0F8799B
:10358800002403F8E93400F9C3E51098E51199A27D
:10359800D265D033503A7457250AF582740B350B2F
:1035A800F583E0C0E085081075110085188285193B
:1035B80083E5822510F582E5833511F583D0E0F0A7
:1035C8000508E50A2401F50AE50B3400F50B809B94
:1035D800750900780912224B750901780912224BE6
:1035E8007403122028E0F509780912224B7403129B
:1035F8002028E0F97405122028E0FC7D00740612EA
:103608002028AA82AB83120AF07403121FF3E9750B
:103618000800E508C3940440248508107511007457
:1036280002122028E0F879002403F8E93400F9C3ED
:10363800E51098E51199A2D265D033503A74572510
:103648000AF582740B350BF583E0C0E08508107528
:103658001100851882851983E5822510F582E58396
:103668003511F583D0E0F00508E50A2401F50AE5EF
:103678000B3400F50B809B750900780912224B75F5
:103688000901780912224B7403122028E0F5097801
:103698000912224B7403122028E0F974051220281D
:1036A800E0FC7D007406122028AA82AB83120AF07F
:1036B8007403121FF3E9750800E508C39404402455
:1036C8008508107511007402122028E0F87900248A
:1036D80003F8E93400F9C3E51098E51199A2D26519
:1036E800D033503A7457250AF582740B350BF5839D
:1036F800E0C0E0850810751100851882851983E5FA
:10370800822510F582E5833511F583D0E0F00508B0
:10371800E50A2401F50AE50B3400F50B809B7509D1
:1037280000780912224B750901780912224B74039B
:10373800122028E0F509780912224B740312202878
:10374800E0F97405122028E0FC7D00740612202898
:10375800AA82AB83120AF07403121FF3E9120A90CB
:103768008A108B11A810A911E8FEE9FFC3E8940399
:10377800E9940040E8EEF97414122028AA82AB8379
:10378800120A96120A5AE9F509750800E508C39461
:103798000440248508107511007402122028E0F8EE
:1037A80079002403F8E93400F9C3E51098E5119984
:1037B800A2D265D033503A7457250AF582740B3576
:1037C8000BF583E0C0E08508107511008518828527
:1037D8001983E5822510F582E5833511F583D0E05C
:1037E800F00508E50A2401F50AE50B3400F50B801D
:1037F8009B7401122028E0F510781012224B7401F6
:10380800122028E0F97403122028E0FC7D007404DB
:10381800122028AA82AB83120AEA7401121FF3123B
:103828000A908A108B11A810A911E8FEE9FFC3E8D5
:103838009403E9940040E8EEF97414122028AA824F
:10384800AB83120A96120A5AE9F509750800E508C9
:10385800C3940440248508107511007402122028AE
:10386800E0F879002403F8E93400F9C3E51098E595
:103878001199A2D265D033503A7457250AF582744B
:103888000B350BF583E0C0E085081075110085182D
:1038980082851983E5822510F582E5833511F58344
:1038A800D0E0F00508E50A2401F50AE50B3400F537
:1038B8000B809B751000781012224B751001781040
:1038C80012224B7403122028E0F510781012224BB4
:1038D8007403122028E0F97405122028E0FC7D000A
:1038E8007406122028AA82AB83120AF07403121FEE
:1038F800F3E97900120ACC120A72120A5AE979001D
:1039080080067902800279017494121FF37F0B02FA
:10391800210674F71220348C828D83E0F87900E454
:10392800C8F98C828D83A3E0FE7F00E82EF8E93F7A
:10393800F98A828B83E8F0A3E9F08C828D83A3A3B4
:10394800A3A3E0F87900E4C8F98C828D83A3A3A32C
:10395800A3A3E0FE7F00E82EF8E93FF98A828B8373
:10396800A3A3E8F0A3E9F08C828D83A3A3A3A3A368
:10397800A3A3A3E0F87900E4C8F98C828D83A3A3FC
:10398800A3A3A3A3A3A3A3E0FE7F00E82EF8E93F27
:10399800F98A828B83A3A3A3A3E8F0A3E9F0EC241C
:1039A8000CF582ED3400F583E0F87900E4C8F9EC11
:1039B800240DF582ED3400F583E0FE7F00E82EF853
:1039C800E93FF98A828B83A3A3A3A3A3A3E8F0A367
:1039D800E9F079007F0102210674F212203474ECB8
:1039E800121FDD8908E5089002ACF07C047D007A9E
:1039F8001F7B00121216E9F50974051220287401BC
:103A0800F0740E1220287401F0A37400F0740412EC
:103A180020287401F0740C122028742FF0A374016C
:103A2800F0740A122028743FF0A37401F07408128D
:103A380020287404F0A37400F07406122028745827
:103A4800F0A37402F07405122028AC82AD837901CA
:103A58007A057B031210D2E9740E122028AC82ADCD
:103A68008379027A067B031210D2E97C867D0B7972
:103A7800157A087B031210D2E97C9B7D0B79177AA3
:103A8800077B031210D2E97404122028AC82AD839C
:103A980079017A107B031210D2E9740C122028AC39
:103AA80082AD8379027A117B031210D2E9740A126B
:103AB8002028AC82AD8379027A127B031210D2E9F6
:103AC8007408122028AC82AD8379027A137B031222
:103AD80010D2E97406122028AC82AD8379027A14D8
:103AE8007B031210D2E97CB27D0B7A0479001213A1
:103AF80090E97E407F06EEFCEFFD7A067B0012120D
:103B080016E9EEFCEFFD7A077B00121216E9EEFCCF
:103B1800EFFD7A087B00121216E9EEFCEFFD7A0938
:103B28007B00121216E97A007B007C007D0074107D
:103B3800122028EAF0A3EBF0A3ECF0A3EDF0740355
:103B48001220287401F074021220287401F0740104
:103B58001220287400F08518828519837401F07486
:103B680010122028AC82AD8379047A087B04120DE8
:103B780060E97403122028AC82AD8379017A007B56
:103B880004120D60E97402122028AC82AD83790119
:103B98007A027B04120D60E97401122028AC82AD10
:103BA8008379017A037B04120D60E98518828519EF
:103BB80083AC82AD8379017A067B04120D60E990AB
:103BC8008BD1121ECB121396E9908BD1121ECB12F9
:103BD80014A4E9120D24E9908BD1121ECB121018EF
:103BE800E9908BD1121ECB120D36E9908BD1121EA3
:103BF800CB120FB8E9908BD1121ECB120CFAE97ACE
:103C0800007903120F52E9120EC87ACE7B0B1210FC
:103C18001EE9F50A7AD07B0B120D3CE9F50B7AD236
:103C28007B0B120FBEE9F50C7AD47B0B120D00E961
:103C3800F50D7AD67B0B1210E479011215A0E97AFA
:103C4800017B009002ACE0F9120B6EE97414121FAC
:103C5800F37F0602210674F012203474DC121FDD93
:103C68008909EAFEEBFFEE5400F8EF5480F9E849C1
:103C780060329002ACE0F9120B568A0C8B0DA80C3E
:103C8800A90D880A890BE849600FAA0AAB0B120C28
:103C980076AA0AAB0B120B44E9EE6400FAEF6480D3
:103CA800FB024561EE5480601B9002E2E0600AC2AC
:103CB800AF75C9AB75C95B80FEEE6480FAEF64002E
:103CC800FB024561EEA2E050227ACA7B0B1210DE9D
:103CD800E9F5087A297B03120D7E120E38120FE2DD
:103CE800EE6401FAEF6400FB024561EE5400F8EF60
:103CF8005404F9E84960167C107D007AC87B0212EA
:103D08000CE8EE6400FAEF6404FB024561EE54022D
:103D18007003023DA59002AEE0605A120F1CE964E0
:103D280002702F120CB2900BBAE024EDF50CA3E050
:103D380034FEF50DE4F50EF50F780C1222437A02E5
:103D48007B009002ACE0F9120BF27404121FF3E945
:103D58008040120F1CE9703A120F0A908BF1122260
:103D68005A7A027B009002ACE0F9120BF27404124A
:103D78001FF3E9801D120F107D047C0079007A0082
:103D88007BAA120CE27D017C0079017A007BAA12E1
:103D98000CE2EE6402FAEF6400FB024561EE5404A3
:103DA80060569002B0E0602B120C8E900BB8E0F5D4
:103DB8000CA3E0F50DE4F50EF50F780C1222437A0A
:103DC800047B009002ACE0F9120BF27404121FF3AA
:103DD800E9801A7D037C0079007A107BAA120CE234
:103DE8007D017C0079017A107BAA120CE2EE640452
:103DF800FAEF6400FB024561EE5400F8EF5401F954
:103E0800E8497003023F359002B1E07003023F2A8F
:103E18009002DEE0640160089002DEE06402702334
:103E2800908BED12225A7A007B019002ACE0F912D5
:103E38000BF27404121FF3E9EE6400FAEF6401FB5D
:103E48000245619002DE7403F0120A5AE9900328D1
:103E5800F0120A909002E6EAF0A3EBF0900328E053
:103E6800A2E4400E9002E6E064007004A3E064045B
:103E78007026120A72908BE912225A7A007B0190FE
:103E880002ACE0F9120BF27404121FF3E9EE6400BD
:103E9800FAEF6401FB024561900328E0A2E1505368
:103EA8009002E6C082C083900BC8E0F8A3E0F9D086
:103EB80083D082C3E098A3E099500D120A90900233
:103EC800E6EAF0A3EBF080D8900BC8E0F8A3E0F99D
:103ED800E8F97AE87B02120A96900BC8E0F8A3E0AA
:103EE800F99002E6C3E098F0A3E099F07AE87B0243
:103EF800120C94900BC4E0F50CA3E0F50DE4F50E5C
:103F0800F50F780C1222437A007B019002ACE0F99D
:103F1800120BF27404121FF3E99002DE7400F0121F
:103F28000A72EE6400FAEF6401FB024561EE540088
:103F3800F8EF5408F9E849602C120C5EE97901128F
:103F48000ACC908BE512225A7A007B019002ACE0F1
:103F5800F9120BF27404121FF3E9EE6400FAEF642D
:103F680008FB024561EE5400F8EF5402F9E8497085
:103F78000302408B9002B2E064016003024080902B
:103F880002DEE0640160089002DEE06403702390C2
:103F98008BED12225A7A007B029002ACE0F9120BE8
:103FA800F27404121FF3E9EE6400FAEF6402FB02F4
:103FB80045619002DE7402F09002E1E0700F900219
:103FC800DCE0FAA3E0FB7900120C9A801D9002DC79
:103FD800E0FAA3E0FBEA2401F8EB3400F99002DCF4
:103FE800E8F0A3E9F07901120C9A9002E1E0702060
:103FF800908BED12225A7A007B029002ACE0F91203
:104008000BF27404121FF3E99002E17401F0806866
:104018009002DCC3E0940EA3E09400A2D265D033F2
:1040280040389002DE7400F09002DC7400F0A37453
:1040380000F0900BC6E0F50CA3E0F50DE4F50EF5E5
:104048000F780C1222437A007B029002ACE0F9123E
:104058000BF27404121FF3E98018908BC912225ACC
:104068007A007B029002ACE0F9120BF27404121F82
:10407800F3E99002E17400F0EE6400FAEF6402FBE9
:10408800024561EE5400F8EF5420F9E84970030244
:10409800413E9002B6E0700BEE6400FAEF6420FB3C
:1040A8000245619088D8C082C0837414122028AC5D
:1040B80082AD83D083D0827410121EF07414122043
:1040C80028AA82AB83120FF4E97C247D0079FF7A59
:1040D800B77B02120B32750A10750B00780A122290
:1040E800477416122028AC82AD837AB77B02120B74
:1040F8001A7402121FF39002C7740DF09002C8746C
:104108000AF07C127D007AB77B02120CE89002DE7E
:104118007400F0908B9912225A7A007B409002AC7E
:10412800E0F9120BF27404121FF3E9EE6400FAEFDF
:104138006420FB024561EE5400F8EF5440F9E84969
:1041480070030242789002B6E0700BEE6400FAEF5A
:104158006440FB0245619002DEE064016008900261
:10416800DEE064037023908BB912225A7A007B40F8
:104178009002ACE0F9120BF27404121FF3E9EE643A
:1041880000FAEF6440FB0245619002DE7402F09091
:104198008828C082C0837404122028AC82AD83D0E2
:1041A80083D0827410121EF07404122028AA82ABE5
:1041B80083120E44E97C247D0079FF7AB77B0212D2
:1041C8000B329002B774AAF09002B874BBF0900258
:1041D800B974BBF0750A10750B00780A122247747F
:1041E80006122028AC82AD837ABA7B02120B1A74AD
:1041F80002121FF37C0B7D007AB77B02120CE87A5F
:10420800007B007C007D00851882851983EAF0A375
:10421800EBF0A3ECF0A3EDF0908BED780C121EAD53
:10422800851882851983780C121CA95015908BC5A6
:10423800780C121EAD851882851983780C121E26FB
:1042480080D67C087D007AC27B02120CE8908B9D98
:1042580012225A7A007B209002ACE0F9120BF27419
:1042680004121FF3E9EE6400FAEF6440FB024561B3
:10427800EE540870030243449002B4E07003024312
:104288001F9002DEE0640360089002DEE0640270C2
:1042980023908BED12225A7A087B009002ACE0F949
:1042A800120BF27404121FF3E9EE6408FAEF6400CB
:1042B800FB0245619002DE7401F09002E0E0F91221
:1042C8000ECEE9F5089002E0E064027029120CA60F
:1042D8009002E07400F09002DE7400F0900BBC12C3
:1042E800225A7A087B009002ACE0F9120BF27404AF
:1042F800121FF3E9803B9002E0E02401F0908BE18B
:1043080012225A7A087B009002ACE0F9120BF27480
:1043180004121FF3E9801A7D047C0079007A207B5F
:10432800AA120CE27D017C0079017A207BAA120C8A
:10433800E2EE6408FAEF6400FB024561EE54106097
:104348006C9002AFE0603E120F64E96402700512DF
:104358000CA08009120F64E97003120F6A900BB663
:10436800E0F50CA3E0F50DE4F50EF50F780C12223C
:10437800437A107B009002ACE0F9120BF27404123D
:104388001FF3E9801D120F707D067C0079007A30DA
:104398007BAA120CE27D017C0079017A307BAA129B
:1043A8000CE2EE6410FAEF6400FB024561EE542063
:1043B800700302444F9002B3E0605A9002DFE0605D
:1043C800319002DF7400F0120CAC900BC0E0F50CD9
:1043D800A3E0F50DE4F50EF50F780C1222437A20D0
:1043E8007B009002ACE0F9120BF27404121FF3E99F
:1043F800804A9002DF7401F0120E5C908BCD12227D
:104408005A7A207B009002ACE0F9120BF274041285
:104418001FF3E980277D047C0079007A407BAA128B
:104428000CE27D017C0079017A407BAA120CE27DC6
:10443800107C0079037A407BAA120CE2EE6420FA21
:10444800EF6400FB024561EE5440700302451E1202
:104458000EB6E9F5089002B5E070030244F7E508E6
:1044680070269002E3E0F9120EBC120E9E908BBDEE
:1044780012225A7A407B009002ACE0F9120BF274D7
:1044880004121FF3E90245149002E4E0600E900262
:10449800E3E0F9120EBC9002E47400F074026508BF
:1044A800702F120CB8900BC2E024C4F50CA3E034B2
:1044B800FFF50DE4F50EF50F780C1222437A407BD8
:1044C800009002ACE0F9120BF27404121FF3E980B9
:1044D8003B120EB0E9908BBD12225A7A407B0090B5
:1044E80002ACE0F9120BF27404121FF3E9801D12FA
:1044F8000EA47D067C0079007A507BAA120CE27D1E
:10450800017C0079017A507BAA120CE2EE6440FA31
:10451800EF6400FB8043EE5400F8EF5410F9E849CB
:104528006033750A58750B02780A122247750A0417
:10453800750B00780A12224779027C3F7D017A2F99
:104548007B0112111A7404121FF3E9EE6400FAEFEA
:104558006410FB80047A007B007424121FF37F0828
:1045680002210674F7122034EAFEEBFF8E828F8355
:10457800E064C070148E828F83A3A3A3E0FA8E82B6
:104588008F83A3A3E0F9120C7C7F0102210674F744
:1045980012203474FC121FDDE9FEEAFF85188285BB
:1045A80019837400F0EFA2E040030246579002E23C
:1045B8007401F0908BD512225A7A807B009002AC5D
:1045C800E0F9120BF27404121FF3E99002E5E070AF
:1045D8006F9002ADE06405603E7403122028AC823F
:1045E800AD837A057B031210D8E97403122028E002
:1045F800700A74011220287401F0800874011220D6
:10460800287400F07401122028AC82AD8379017AF5
:10461800057B031210D2E99002ADE0640570307496
:10462800021220287401F01210EAE97402122028FC
:10463800AC82AD8379017A057B031210D2E9800F31
:10464800EFA2E0500A851882851983E0D2E2F0EFE4
:10465800A2E1500A851882851983E0D2E0F0EFA222
:10466800E2500A851882851983E0D2E1F0EFA2E0D2
:1046780040069002E27400F0851882851983AC82A6
:10468800AD837A017900121120E97404121FF37FB7
:1046980001022106C082C0839002B1E06006900248
:1046A800B17400F09002B6E060069002B67400F0B3
:1046B8009002B4E06009120EC89002B47400F09041
:1046C80002B2E060069002B27400F0D083D0820299
:1046D800013574F412203474E2121FDDE9FEEE1481
:1046E80060161470030248931470030248C824FE2D
:1046F800700302489D0248CB851882851983AC82D5
:10470800AD837A047B031210D8E97508087509008F
:1047180078081222477402122028AC82AD837418DC
:10472800122028AA82AB83120B1A7402121FF37488
:1047380005122028E0C0E07407122028D0E0F074A9
:1047480004122028E0C0E07406122028D0E0F0749B
:1047580003122028E0C0E07405122028D0E0F0748D
:10476800041220287400F074031220287400F085C5
:104778001882851983AC82AD837A087900120D2AD4
:10478800E9908C74C082C0837408122028AC82AD72
:1047980083D083D082740E121EF07F00750905E560
:1047A80009C39400A2D265D0335003024880E509BA
:1047B800F83395E0F97416122028E58228F582E589
:1047C8008339F583E0F508E508C3940A506B7C6AE1
:1047D8007D8CEFF87900E875F002A4C8AAF075F0AE
:1047E80000A42AFA75F002E9A42AF974081220280C
:1047F800E58228FAE58339FB121C787910EFFA7BF9
:1048080000EA75F002A4CAA8F075F000A428F875AB
:10481800F002EBA428FB7408122028E5822AF5820E
:10482800E5833BF583A3AC82AD8385080A750B004D
:10483800AA0AAB0B120C2280357910EFFA7B00EA3A
:1048480075F002A4CAA8F075F000A428F875F00263
:10485800EBA428FB7408122028E5822AFCE5833B98
:10486800FD85080A750B00AA0AAB0B120C220F74FF
:10487800FF2509F5090247A77408122028AC82AD64
:10488800837A0C7902120D2AE980387A01790112AB
:104898000F52E9802E908BD912225A7A007B109001
:1048A80002ACE0F9120BF27404121FF3E97A0079F2
:1048B80001120F52E99002DE7400F0120CC480035A
:1048C800120C82EE9002ADF0741E121FF37F0402E8
:1048D8002106C082C08374FD121FDD8518828519E8
:1048E80083AA82AB83120E50E9601285188285195B
:1048F80083AC82AD837A037900120CEEE97403125B
:104908001FF3D083D08202013574F412203474D19D
:10491800121FDDEAFEEBFF74041220287400F0A3D6
:104928007400F074021220287400F0A37400F0855B
:1049380018828519837400F0A37400F085188285A5
:10494800198385820885830978081222477404121E
:104958002028AC82AD837406122028AA82AB831269
:104968000A607402121FF3EEFCEFFD740612202891
:10497800AA82AB83120C64E97404122028E0F508BB
:10498800A3E0F50974087808121FABE508740F1244
:104998002028E508F07404122028E0F8A3E0F9E8DC
:1049A800C0E0740E122028D0E0F07402122028E033
:1049B800F508A3E0F50974087808121FABE5087438
:1049C80011122028E508F07402122028E0F8A3E06C
:1049D800F9E8C0E07410122028D0E0F0851882852C
:1049E8001983E0F508A3E0F50974087808121FABED
:1049F800E5087413122028E508F0851882851983C4
:104A0800E0F8A3E0F9E8C0E07412122028D0E0F042
:104A18007406122028E0F508A3E0F5097408780860
:104A2800121FABE5087415122028E508F074061269
:104A38002028E0F8A3E0F9E8C0E07414122028D098
:104A4800E0F07408122028E0F508A3E0F5097408DE
:104A58007808121FABE5087417122028E508F074CF
:104A680008122028E0F8A3E0F9E8C0E07416122044
:104A780028D0E0F0740A122028E0F508A3E0F50930
:104A880074087808121FABE5087419122028E50885
:104A9800F0740A122028E0F8A3E0F9E8C0E07418DE
:104AA800122028D0E0F0740C122028E0F508A3E0CA
:104AB800F50974087808121FABE508741B12202842
:104AC800E508F0740C122028E0F8A3E0F9E8C0E04B
:104AD800741A122028D0E0F0741C12202874AAF04E
:104AE800741D12202874BBF0741E12202874AAF0BA
:104AF80075080E75090078081222477410122028CC
:104B0800AC82AD837421122028AA82AB83120B1ABF
:104B18007402121FF38A0A8B0B850A08850B097425
:104B28002D122028740DF0742E122028740AF07C9F
:104B3800137D00741C122028AA82AB83120CE8741F
:104B48002F121FF37F0402210674F0122034748C94
:104B5800121FDD890B8A08908B4EC082C0837404B3
:104B6800122028AC82AD83D083D0827408121EF044
:104B7800908B26C082C083746C122028AC82AD83CF
:104B8800D083D0827408121EF0908B16C082C08326
:104B98007464122028AC82AD83D083D0827408124A
:104BA8001EF0908B06C082C083745C122028AC82F1
:104BB800AD83D083D0827408121EF0908AF6C0822A
:104BC800C0837454122028AC82AD83D083D0827401
:104BD80008121EF0908AEEC082C083744C122028FE
:104BE800AC82AD83D083D0827408121EF0908AE61E
:104BF800C082C0837444122028AC82AD83D083D095
:104C0800827408121EF0908ADEC082C083743C123F
:104C18002028AC82AD83D083D0827408121EF09015
:104C28008B3EC082C0837434122028AC82AD83D0FE
:104C380083D0827408121EF0908B2EC082C08374B9
:104C48002C122028AC82AD83D083D0827408121E27
:104C5800F0908AD6C082C0837424122028AC82AD1A
:104C680083D083D0827408121EF0908AFEC082C05E
:104C780083741C122028AC82AD83D083D082740840
:104C8800121EF0908B36C082C0837414122028AC98
:104C980082AD83D083D0827408121EF0908B56C0E8
:104CA80082C083740C122028AC82AD83D083D0825A
:104CB8007408121EF07404122028AE82AF83E5082F
:104CC800603914604214604B14605414605C1460C2
:104CD8006414606C14607414607C147003024D6971
:104CE800147003024D74147003024D7F1470030294
:104CF8004D8A147003024D95024DA07404122028A9
:104D0800AE82AF83024DA9746C122028AE82AF83A5
:104D1800024DA97464122028AE82AF83024DA97493
:104D28005C122028AE82AF8380777454122028AE9C
:104D380082AF83806C744C122028AE82AF8380616E
:104D48007444122028AE82AF838056743C12202807
:104D5800AE82AF83804B7434122028AE82AF83803A
:104D680040742C122028AE82AF8380357424122020
:104D780028AE82AF83802A741C122028AE82AF83AB
:104D8800801F7414122028AE82AF838014740C1212
:104D98002028AE82AF8380097404122028AE82AF27
:104DA80083E50B7015120C3AE9EEFAEFFB120C587A
:104DB8007A017944120C4C024F59120C3AE9EEFA76
:104DC800EFFB120C587A0079BE120C4C120C52E907
:104DD800F509120C52E9F50AE5086003024E8790BE
:104DE80002DB7400F07C247D0079FF7AB77B021225
:104DF8000B329002DBE0F8790074B728F582740270
:104E080039F58374AAF09002DBE02401F09002DB0C
:104E1800E0F8790074B728F582740239F58374BB19
:104E2800F09002DBE02401F09002DBE0F8790074F6
:104E3800B728F582740239F58374BBF09002DBE081
:104E48002401F0E5099002DBE0F8790074B728F551
:104E580082740239F583E509F09002DBE02401F061
:104E6800E50A9002DBE0F8790074B728F58274024D
:104E780039F583E50AF09002DBE02401F0803AE599
:104E8800099002DBE0F8790074B728F582740239DA
:104E9800F583E509F09002DBE02401F0E50A9002D1
:104EA800DBE0F8790074B728F582740239F583E5F8
:104EB8000AF09002DBE02401F0740D65086003023B
:104EC8004F599002DBE0F8790074B728F582740234
:104ED80039F583740DF09002DBE02401F09002DBD9
:104EE800E0F8790074B728F582740239F583740AFA
:104EF800F09002DBE02401F07C117D007AB77B02A0
:104F0800120CE87A007B007C007D008518828519E8
:104F180083EAF0A3EBF0A3ECF0A3EDF0908BED782F
:104F28000C121EAD851882851983780C121CA950A5
:104F380015908BC5780C121EAD851882851983785B
:104F48000C121E2680D67C107D007AC87B02120CBB
:104F5800E87474121FF37F08022106C082C08374AC
:104F6800FA121FDD851882851983AA82AB83120F76
:104F780076E96012851882851983AC82AD837A063A
:104F88007900121012E97406121FF3D083D082023E
:104F98000135C082C08374F5121FDD740712202802
:104FA800AA82AB83120ED4E9605C851882851983C6
:104FB80074AAF0740112202874BBF074021220281D
:104FC80074CCF07409122028E0C0E0740312202881
:104FD800D0E0F0740A122028E0C0E07404122028FF
:104FE800D0E0F07405122028740DF0740612202801
:104FF800740AF07C077D00851882851983AA82AB24
:1050080083120CE8804A85188285198374AAF07483
:105018000112202874BBF0740212202874CCF0749A
:10502800031220287476F074041220287476F07421
:1050380005122028740DF07406122028740AF07CDA
:10504800077D00851882851983AA82AB83120CE834
:10505800740B121FF3D083D082020135C082C08343
:1050680074FC121FDD851882851983AA82AB83120E
:105078000E62E96012851882851983AC82AD837A45
:10508800047900120CF4E97404121FF3D083D0825F
:10509800020135C082C08374FC121FDD8518828529
:1050A8001983AA82AB83120F16E9601285188285CC
:1050B8001983AC82AD837A04790012100CE9740468
:1050C800121FF3D083D082020135C082C08374FAE4
:1050D800121FDD851882851983AA82AB83120EAA56
:1050E800E96012851882851983AC82AD837A0679C6
:1050F80000120E32E97406121FF3D083D082020127
:105108003574F712203474FF121FDDE9FE146005B0
:105118001460598061851882851983AA82AB8379C6
:1051280001121024E9851882851983E0701B90020A
:10513800B1E060429002B17400F07A007B01900205
:10514800ACE0F9120B6EE9802D9002B1E0700D7A97
:10515800007B019002ACE0F9120B6EE9851882859C
:105168001983E09002B1F0120A12800A7AC47B0B0C
:105178007902121024E97401121FF37F010221063B
:10518800C082C0839002B6E0701E9002B67401F02F
:10519800908BDD12225A7A007B409002ACE0F91223
:1051A8000BF27404121FF3E9D083D0820201357424
:1051B800F712203474FF121FDDE9FE146005146035
:1051C8005C8064851882851983AA82AB8379011271
:1051D8000D42E9851882851983E0701B9002B2E0C0
:1051E80060459002B27400F07A007B029002ACE055
:1051F800F9120B6EE98030851882851983E0640105
:1052080070259002B2E0701F9002B27401F07A002B
:105218007B029002ACE0F9120B6EE9800A7AC67B39
:105228000B7902120D42E97401121FF37F0102216A
:105238000674F712203474FF121FDDE9FE146005AE
:105248001460608068851882851983AA82AB837987
:1052580001120FCAE9851882851983E07019900236
:10526800B4E060139002B47400F07A087B009002F6
:10527800ACE0F9120B6EE9851882851983E06401A8
:10528800702B9002B4E070259002B47401F0900283
:10529800E07400F07A087B009002ACE0F9120B6E23
:1052A800E9800A7ABC7B0B7902120FCAE9740112F1
:1052B8001FF37F0102210674F012203474F8121FC4
:1052C800DD890A7401650A600302537E85188285A8
:1052D8001983AA82AB837901120D0CE9851882859E
:1052E8001983E0FA7B007401122028E0F87900E4C1
:1052F800C8F9EA28F8EB39F9E8FEE9FF7402122048
:1053080028E0FA7B007403122028E0F87900E4C84A
:10531800F9EA28F8EB39F988088909740412202871
:10532800E0FA7B007405122028E0F87900E4C8F957
:10533800EA28F8EB39F9880E890F7406122028E05C
:10534800FA7B007407122028E0F87900E4C8F9EA2B
:1053580028F8EB39F9880C890D780C122247780E59
:105368001222477902AC08AD09EEFAEFFB12111AC6
:105378007404121FF3E97402650A70041210EAE952
:105388007408121FF37F0802210674F41220347483
:10539800FA121FDDEAFEEBFF8C088D097412122049
:1053A80028E0F50AA3E0F50BEE851882851983F04D
:1053B800EEF8EFF9E4E9F8C0E07401122028D0E033
:1053C800F0E5087402122028E508F0A808A909E405
:1053D800E509A809E5097403122028E509F0E50A9A
:1053E8007404122028E50AF0A80AA90BE4E50BA822
:1053F8000BE50B7405122028E50BF085188285193A
:1054080083AC82AD837A067900120D06E974061220
:105418001FF37F0402210674F01220348A0A8B0BD2
:1054280089088C0C8D0985090E750F00AA0EAB0F23
:10543800120BB08A0E8B0FAE0EAF0FEE4F70030239
:1054480054DF85090E750F00AC0EAD0FA90CEEFAEE
:10545800EFFB120B32850A0E850B0F780E1222D144
:105468000000060000AA865410AA945420AAB0543A
:1054780030AAA25440AABE5450AACC54D854EEFC28
:10548800EFFDAA09A90812100CE98044EEFCEFFD13
:10549800AA09A908120CEEE98036EEFCEFFDAA096C
:1054A800A908121012E98028EEFCEFFDAA09A90844
:1054B800120FC4E9801AEEFCEFFDAA09A908120C24
:1054C800F4E9800CEEFCEFFDAA09A908120E32E9F6
:1054D800EEFAEFFB120BB67F0802210674F31220D6
:1054E800348A088B09ECFEEDFFC3EE9415EF9400A7
:1054F8004005750C148003EEF50C90032D742EF006
:10550800A37400F0E50C90032FF0850C0A750B00CE
:10551800780A122247AC08AD097A307B03120B1ABD
:105528007402121FF379007C2D7D037A007B001230
:1055380013F0E97F0502210674EE12203474FA1282
:105548001FDD8A0A8B0B8909ECFEEDFF75080085C3
:105558000A0C850B0D780C12228B0004101958893F
:1055680055AA55C955EA550B562C565F568056977D
:1055780056C5568357A457C457EE5719581958F0AB
:10558800567401650970158E828F83E0C3940350A9
:105598000B8E828F83E0900ED5F080037508180279
:1055A80058427402650970138E828F83E0F8A3E075
:1055B800F9900ED6E8F0A3E9F080037508180258B0
:1055C800427401650970158E828F83E0C39402507E
:1055D8000B8E828F83E090039AF08003750818027F
:1055E80058427401650970158E828F83E0C3940553
:1055F800500B8E828F83E090039BF0800375081810
:105608000258427401650970158E828F83E0C39435
:1056180002500B8E828F83E090039CF08003750804
:1056280018025842741065097027750C10750D0022
:10563800780C122247EEFCEFFD7A9D7B03120B1AC1
:105648007402121FF38A0C8B0D850C82850D8380E2
:10565800037508180258427401650970158E828F07
:1056680083E0C39402500B8E828F83E09003ADF0E9
:10567800800375081802584274016509700B8E8200
:105688008F83E0900ED9F080037508180258427491
:105698000465097022908BAD780C121EAD8E828F36
:1056A80083780C121CA9500F8E828F83121ECB9008
:1056B80003AF121ED78003750818025842E5097017
:1056C80021121378E97013120DD8E9F50C795012EC
:1056D80010CCE9F50D120DC6800B9004427401F050
:1056E8008003750818025842740765096003025759
:1056F8007D750E06750F00780E1222478E828F83F5
:10570800A3AC82AD837402122028AA82AB83120B49
:10571800207402121FF38A108B1185100E85110F49
:105728007C007D00851882851983AA82AB838E82CE
:105738008F83E0F9120D6CE9F50CE50CC3940A505F
:105748002F121378E97015A90C120DDEE9F50D7901
:10575800501210CCE9F50E120DC6801C750D0074A0
:1057680043250CF5827404350DF5837401F0800827
:10577800750802800375081802584274016509709B
:10578800158E828F83E0C39402500B8E828F83E044
:105798009003AEF080037508180258427401650939
:1057A80070158E828F83E0C3940A500B8E828F838C
:1057B800E0900ED8F08003750818807E74016509A2
:1057C800701F8E828F83E0C3940740158E828F836B
:1057D800E0C39411500B8E828F83E0900EDAF08034
:1057E800597508188054740165097020900441E0C7
:1057F800F50C8E828F83E0900441F0E50C703B90AD
:105808000441E064017033120DC6802E75081880BB
:1058180029C3E50A9427E50B9400501B7402650917
:1058280070158E828F83E0FCA3E0FDAA0AAB0B12F1
:105838001216E9F5088003750802A9087406121FF4
:10584800F37F0A02210674EC12203474DA121FDD89
:10585800890D8A128B138C0A8D0B743A122028E05A
:10586800F50C908B5EC082C083851882851983AC45
:1058780082AD83D083D0827406121EF0851882858B
:105888001983AC82AD83AA12AB13A90D120D6CE972
:10589800FEEEC3940A40030259EDEEF9120DA8E991
:1058A800FF900ED5E064027004740180027400F564
:1058B80008780812224BAD0CEFFCEEF9AA0AAB0BE4
:1058C800120E1A7401121FF37C147D0079007412F1
:1058D800122028AA82AB83120B328A0E8B0F850EF8
:1058E80008850F097412122028AC82AD837A1075CE
:1058F800F006EEA42424F91210C6E970437C10794E
:10590800FF7412122028AA82AB83120B92E970301E
:105918007422122028AC82AD837A0475F006EEA4B6
:105928002425F91210C6E9F5087412122028AC8251
:10593800AD83EFA2E0E433F9AA0AAB0B1212A0E997
:105948007406122028AC82AD837A0C74702EF9127A
:1059580010C6E9707E7406122028AA82AB83120D45
:105968009C750E00E50EC394045068E50EA80E79E8
:1059780000E875F003A4C8AAF075F000A42AFA7527
:10598800F003E9A42AF97406122028E58228F5080C
:10599800E58339F509850882850983E0F8A3E0F9EC
:1059A800E849602B850882850983A3A3E0F5107573
:1059B80011007810122247850882850983E0FCA32C
:1059C800E0FDAA0AAB0B1215047402121FF3E905D5
:1059D8000E8091EFA2E1500D900399E0F9AA0AAB6D
:1059E8000B12150AE97404650C700F900ED5E0646B
:1059F800027007AA0AAB0B120E1479007426121F44
:105A0800F37F0C02210674F2122034890BEAFEEBB4
:105A1800FF8C088D09750A0AE50B600C14600914DF
:105A28006044146064025AB2EEFAEFFB120DBAE950
:105A3800F50AE50AC3940A5071E5084509606B75D3
:105A48000C06750D00780C122247EEFCEFFDAA0833
:105A5800AB09120B1A7402121FF38A0C8B0D850CFA
:105A680082850D838044EEFAEFFB120DB4E9F50A46
:105A7800E50AC3940A5033E5084509602DAA08AB26
:105A880009A90A120DAEE98021EEFAEFFB120DC04A
:105A9800E9F50AE50AC3940A5010E5084509600AC1
:105AA800AA08AB09A90A120DAEE9A90A7F060221C4
:105AB8000674F21220348A0C8B0DE9FE7F1574FFF0
:105AC800650C700474FF650D702A750800E508C33D
:105AD800940A5014EEFC7A027B00A908120D8AE998
:105AE80060027F00050880E5EE60637A027B0E1293
:105AF8001708805AAA0CAB0D1216EA8A0A8B0B8576
:105B08000A08850B09E508450960417C007D00E528
:105B1800082405FAE5093400FB850882850983A372
:105B2800A3A3A3E0F9120D6CE9F50AE50AC3940AE8
