:020000040000FA
:0600000002011D02298728
:03002B0002224767
:0300330002221F87
:030053000229FA85
:03006B000221C6A9
:03007B000221EE71
:100083000227F3E5C754F84401F5C77901220000BC
:100093000080FB120086B90003020107E47921788E
:1000A30008B800028004F709D8FCE479297802B87B
:1000B30000028004F709D8FCE490028178B679083D
:1000C3008002F0A3D8FCD9FA781A90014D7A01BACC
:1000D30000028007E493A3F608DAF9900A36AA82AD
:1000E300AB8390014E78A479088015E493A3AC8286
:1000F300AD838A828B83F0A3AA82AB838C828D83A8
:10010300D8E9D9E775827C758386740412012F754B
:100113008291758300740012012F75D00075813FA1
:10012300751881751902759F00020096C09FF59F8F
:10013300E473D09F22D083D082C09FE493C0E07445
:100143000193C0E0740293F59F2201F108F708FDC3
:1001530008030909090F0915091B09210927092D95
:1001630009330939093F0945094B0968FFFF0B09A1
:1001730056756C74757265456767051250002003E8
:10018300020A00020106030288FF45676700D007E1
:10019300E803E8037017E803E803E803401FE30AF2
:1001A30000001F0B2B0B370B3D0B430B12416363FB
:1001B300656C2E2044617461000A416363656C2E93
:1001C30020436F6E662E000A0A416363656C2E201E
:1001D300506572696F640002AC840100009D840263
:1001E300B284010000970A10E581010000020302B6
:1001F300B684030000050302B484010000980A02D8
:10020300B284010000A40A10F5810300000B03026D
:10021300B484010000A50A02B284010000B20A10EE
:100223000582030000B30A02B484010000B40A1279
:100233004261726F6D2E2044617461000A426172E3
:100243006F6D2E20436F6E662E00024261726F6DDA
:100253002E2043616C6962722E000A0A4261726F3A
:100263006D2E20506572696F640002AC840100003A
:10027300888402B2840100001A0B10358201000049
:100283000C0302B684030000100302B484010000CF
:100293001B0B02B284010000270B104582030000F0
:1002A300160302B484010000280B02B2840100008B
:1002B300450B106582030000460B02B48401000065
:1002C300470B02B284010000350B10558201000078
:1002D300170302B684030000270302B4840100005D
:1002E300360B12436F6E6E2E20506172616D730078
:1002F30008436F6E6E2E20506172616D73205265DC
:10030300710008446973636F6E6E65637420526590
:10031300710002AC840100008B8402B284010000EE
:10032300CD0B1095820100002F0302B68403000059
:10033300350302B484010000CE0B02B28401000035
:10034300DB0B10A5820200003B0302B48401000012
:10035300DC0B02B284010000ED0B10B58202000039
:10036300430302B484010000EE0B02020202020204
:10037300020202010D000000100102AC8401000022
:10038300A38402B284010000550C02D28401000050
:10039300440302B284010000560C02D08401000021
:1003A300218402B284010000570C02CC84010000B6
:1003B300128402B284010000590C02CA84010000B5
:1003C300818002B2840100005A0C02C6840100003D
:1003D3001C8402B284010000580C02C48401000092
:1003E300178402B2840100005B0C02C08401000088
:1003F300938002B2840100005C0C02BE8401000001
:10040300558302B2840100005D0C02BC840100002C
:100413005E0C12447331386232302E2044617461B1
:10042300000A447331386232302E20436F6E662ED9
:10043300000AD007447331386232302E205065727F
:10044300696F640002AC84010000A68402B28401D7
:100453000000FD0C1015820100004E0302B6840358
:100463000000500302B484010000FE0C02B28401B8
:1004730000000C0D10C581030000560302B4840173
:1004830000000D0D02B2840100001C0D1015830342
:1004930000001D0D02B4840100001F0D01E80305D7
:1004A3003F100A124779726F2044617461000A4752
:1004B30079726F20436F6E662E000A0A4779726F56
:1004C30020506572696F640002AC8401000085846A
:1004D30002B2840100008E0D10E5800100001104BA
:1004E30002B684030000170402B4840100008F0DD8
:1004F30002B284010000990D10D5800300001D0491
:1005030002B4840100009A0D02B284010000A50D1B
:1005130010C580030000A60D02B484010000A70DDE
:100523000380000080700061801248756D69642E3D
:100533002044617461000A48756D69642E20436F1D
:100543006E662E000AD00748756D69642E205065CB
:1005530072696F640002AC84010000828402B28479
:10056300010000140E10B581010000800402B6845E
:10057300030000840402B484010000150E02B28457
:10058300010000210E10C5820300008A0402B48416
:10059300010000220E02B2840100002F0E10F5822A
:1005A300030000300E02B484010000320E125465C1
:1005B3006D702E2044617461000A54656D702E20A5
:1005C300436F6E662E000A1E54656D702E205065B3
:1005D30072696F640002AC84010000918402B284EA
:1005E300010000980E1005810100008B0402B684FF
:1005F3000300008F0402B484010000990E02B28448
:10060300010000A40E101581030000950402B484B8
:10061300010000A50E02B284010000B10E10258175
:10062300030000B20E02B484010000B30E124D6148
:10063300676E2E2044617461000A4D61676E2E203F
:10064300436F6E662E000A0A4D61676E2E20506559
:1006530072696F640002AC84010000A08402B2845A
:10066300010000180F104581010000960402B684B2
:100673000300009C0402B484010000190F02B28439
:10068300010000240F105581030000A20402B4846A
:10069300010000250F02B284010000310F106581B3
:1006A300030000320F02B484010000330F124D70B7
:1006B30075363035302E2044617461000A4D7075F3
:1006C300363035302E20436F6E662E000AC8004D3B
:1006D3007075363035302E20506572696F640002B4
:1006E300AC84010000A98402B284010000980F10B9
:1006F3008581010000A50402B684030000B1040251
:10070300B484010000990F02B284010000A70F1006
:100713009581030000B70402B484010000A80F020E
:10072300B284010000B70F10A581030000B80F02C7
:10073300B484010000BA0FFF000130750302010603
:1007430000000000000000000000000000000000A6
:10075300000000000000000000000000FFFF060092
:10076300800CE803104B6579205072657373205336
:10077300746174650002AC840100009A8402B2843F
:100783000100004F1002B884000000670502B68420
:10079300030000680502B484010000501002546590
:1007A30073742044617461000A5465737420436F49
:1007B3006E6669670002AC84010000978402B2840C
:1007C30001000088101025830300006E0502B48425
:1007D300010000891002B2840100009310103583D8
:1007E300030000760502B4840100009410FF0000AA
:1007F300B4000028002800283075A000A000A00045
:10080300A00000080008E001F00010001000100034
:100813001000100010005000500050001000100095
:10082300D0070000000000000F0001000500307534
:1008330007001000010081FF00000000FF7F119DF1
:10084300118511FF02020208025000A0000000E817
:100853000302AC84010000948402B2840100002FDF
:100863001102BA84010000A90502B284010000301C
:100873001102C284010000BF0502B28401000031ED
:100883001102C884010000C10502B28401000032D4
:100893001102CE84080000C20502B28401000033B5
:1008A3001102D6840100003411FF0100FF2002ACC5
:1008B300840100008E8402B284010000981102D8E2
:1008C30084000000000002B6840300000F065517E1
:1008D30055175517551755175517551755175517B5
:1008E3005517551755175517E919011AE319120129
:1008F300386B9C03120138B79C031201380D9D031A
:10090300120138B29D03120138669E031201388525
:100913009E03120138A49E03120138D29E031201D2
:1009230038059F031201387E9F0312013804A00388
:10093300120138A4A00312013869A1031201389BE4
:10094300A103120138D0A103120138FEA103120141
:10095300385BE8031201387AE803120138A1E8038F
:10096300120138C8E803120138EEE9031201381303
:10097300EA031201380080031201381580031201C3
:10098300386D8003120138D480031201381C8103AF
:10099300120138928103120138C18103120138CF49
:1009A3008103120138338203120138718203120169
:1009B300388C8203120138248303120138CD830358
:1009C3001201385084031201388984031201381448
:1009D30085031201386B8503120138CA850312019E
:1009E30038DC85031201380286031201380B8603B3
:1009F3001201386A870312013871F8031201385063
:100A0300F90312013883DF03120138C8DF0312012F
:100A1300380EE003120138A1E1031201380BFF0382
:100A230012013826FF0312013836FF031201388DF5
:100A3300FF031201382F84041201383E960312017A
:100A4300385E9603120138629703120138AE97039A
:100A5300120138CE97031201382198031201388E00
:100A63009803120138D498031201383899031201FC
:100A730038EA9B03120138D8FA0312013808FB0342
:100A830012013838FB0312013892FB031201389725
:100A9300F203120138AFF2031201380CF30312010F
:100AA3003850F30312013882F303120138B9F30308
:100AB300120138DCF303120138E69C01120138EC11
:100AC3009C011201386C9F0112013857A5011201D4
:100AD3003889A501120138B4A501120138BAA6015B
:100AE300120138ECA601120138D9A70112013810FE
:100AF300A80112013812AA0112013824AE01120111
:100B0300385BAE0112013825AF011201385CAF0129
:100B130012013893AF01120138CAAF01120138F143
:100B2300AF0112013870B001120138AAB0011201ED
:100B3300382CB10112013856B101120138DCB10170
:100B4300120138AFB2011201383CB301120138016E
:100B5300B401120138008004120138FAFB031201B8
:100B630038E3B90312013836BA0312013853BA0312
:100B730012013828BB03120138A5BB0312013882C6
:100B8300BC03120138F7BD03120138EEFA0112015A
:100B93003813FB011201384EFB0112013827BE0343
:100BA3001201387ABE03120138A3BE031201380CB6
:100BB300BF031201384AC00312013804C2031201F1
:100BC300386E8504120138C03000120138CE33006C
:100BD3001201388E3500120138393600120138DD22
:100BE3003600120138763700120138A5370012019A
:100BF300387F3C001201382A3D001201389A3E002A
:100C0300120138023F00120138B63F001201387852
:100C13004200120138B742001201382B430012017F
:100C2300388A4300120138E943001201385844005E
:100C33001201384B4500120138914500120138D694
:100C43004500120138F945001201387447001201BA
:100C530038874700120138904800120138CF480006
:100C6300120138FB48001201384E49001201386F57
:100C73004900120138B34900120138054C00120132
:100C830038464C00120138F14C001201385C4D001B
:100C9300120138994E00120138B68004120138BB94
:100CA300ED031201389BEE031201384CEF031201DE
:100CB30038B3F503120138D1F5031201385AF6039C
:100CC30012013804F703120138E4FF01120138ACB2
:100CD300F903120138BCF903120138CDF9031201EB
:100CE30038D2FA0312013826D703120138CCD703BE
:100CF300120138E8D903120138E5E103120138473C
:100D0300E203120138BFE20312013867E303120161
:100D13003886E30312013896E303120138D5E3035F
:100D230012013818E403120138FEF00312013838B7
:100D3300F103120138ABF103120138E5F10312019B
:100D4300382AF2031201383CF20312013873F2031A
:100D53001201385EEF03120138ADEF03120138DFE1
:100D6300EF0312013870F003120138ECF0031201A3
:100D730038C2CD03120138EBCD0312013814CE0370
:100D8300120138D4CE0312013825CF03120138F5EE
:100D9300D00312013826F40312013859F403120167
:100DA30038D5F403120138F5F4031201385AF50368
:100DB300120138A2F503120138A5F5031201388494
:100DC30087041201389687041201389987041201A7
:100DD300382AE40312013879E403120138A5E40345
:100DE300120138C5E40312013852E5031201384AEF
:100DF300E6031201383AEA031201388BEA031201BF
:100E030038D2EA031201385CEB03120138E9EB0331
:100E1300120138F87F00120138D6DC03120138CDF5
:100E2300DE0312013839DF0312013880DF031201B8
:100E33003858A703120138ABA703120138D4A7030C
:100E430012013892A803120138FBA80312013839A2
:100E5300AA03120138F3AB031201382282041201F0
:100E6300386C810412013841C20312013894C20361
:100E7300120138BDC20312013826C30312013864BC
:100E8300C4031201381EC6031201385CE6031201C3
:100E930038C5E60312013883E70312013802E80379
:100EA30012013807D10312013839D1031201384135
:100EB300D20312013866D30312013876DE0212011F
:100EC300385CDF02120138A9DF02120138ECDF02BD
:100ED30012013861E002120138C2E0021201383710
:100EE300E10212013813E2021201381EE302120179
:100EF300389FE30212013846E502120138DCE502AD
:100F03001201384FE602120138CBE602120138E231
:100F1300E60212013819E80212013873E8021201DD
:100F23003870C80112013808CD01120138DCCF0135
:100F330012013805D0011201381CD00112013845C5
:100F4300D001120138F7D001120138DDD2011201AC
:100F53003818D4011201384ED90112013887D9014A
:100F6300120138CBD901120138DDDA01120138F34D
:100F73008604120138D88204120138D28404120183
:100F8300383D7E00120138547E00120138857E0000
:100F9300120138C07E00120138EA7E0012013814B3
:100FA3007F001201382B7F00120138427F001201AB
:100FB30038597F00120138827F00120138957F0073
:100FC300120138AB7F00120138BE7F00120138E5F1
:100FD3007F00120138DFE802120138E3E90212014F
:100FE300381BEA021201383EEA0212013849EA02CA
:100FF3001201386CEA021201387BEB0212013850FD
:10100300EC02120138CBEC0212013853ED0212014B
:10101300388EED02120138C5ED0212013853EE028B
:101023001201382CEF021201388CEF0212013897AB
:10103300EF0212013816F00212013819F002120100
:10104300381CF002120138ABF002120138AEF00284
:10105300120138DEF00212013808F102120138F6EB
:10106300F102120138A8F20212013830AC03120166
:101073003858AC0312013886AC03120138BDAC03F7
:101083001201381BAD0312013866AD03120138B1EA
:10109300AD03120138F1AD0312013837AE0312016B
:1010A3003865AE0312013822AF031201382CAF03A7
:1010B30012013839AF031201386CAF03120138380B
:1010C300B00312013844B0031201385CB0031201BB
:1010D3003866B00312013834FE0312013842FE03AE
:1010E3001201385AFE0312013872FE03120138004E
:1010F3008002120138AC80021201382781021201EA
:10110300384882021201388482021201382D830288
:10111300120138148402120138788502120138CF83
:1011230085021201385086021201384087021201EB
:10113300388D87021201381388021201384588025C
:10114300120138598A021201389B8A02120138B9F6
:101153008A021201383C8B02120138108C021201F0
:1011630038D88C021201381B8F03120138EE8F031B
:10117300120138979003120138EA90031201389A4A
:1011830091031201382692031201381293031201BC
:10119300384193031201385494031201389C940389
:1011A300120138719503120138AD9503120138C944
:1011B3009503120138F8850412013829CA03120174
:1011C300383FCA0312013865CA0312013881CB03C1
:1011D3001201388BCB03120138C0CC03120138B88B
:1011E300CD0312013831A20312013861A3031201A6
:1011F3003894A303120138DEA303120138A5A50313
:101203001201389DDB0112013807DC011201386637
:10121300DD0112013876DD01120138A3DD0112016F
:1012230038FADD01120138A3DE01120138AADF0109
:1012330012013874E001120138D4E10112013817A8
:10124300E201120138BCE20112013809E301120183
:10125300382FE3011201383DE50112013842E5015F
:1012630012013847E70112013894E70112013807E8
:10127300E8011201383AE801120138DCE8011201F1
:101283003885E901120138BDE901120138C0E901CD
:1012930012013808EA0112013848EA011201389FA5
:1012A300EA0112013803DA031201381BDA031201CF
:1012B3003863DA0312013879DA03120138C0DA032A
:1012C300120138D4DB0312013861DC03120138AC9C
:1012D300DC03120138CD4E00120138D94E00120141
:1012E30038144F00120138594F00120138195000B9
:1012F3001201389F50001201380451001201383096
:101303005100120138695100120138A7530012012C
:10131300388B5500120138715700120138B4580048
:10132300120138025B00120138145C001201385FAD
:101333005D001201386F5E001201388C5E001201ED
:1013430038C75E00120138E95E001201384C5F00B5
:101353001201380D6400120138A26400120138F33F
:1013630064001201381A65001201386C650012011D
:10137300388A6500120138E46500120138CD660031
:10138300120138436800120138C76800120138EDB2
:10139300B003120138F7B0031201383AB103120156
:1013A3003855B103120138E5B1031201380DB20308
:1013B3001201384AB20312013881B203120138AA6A
:1013C300B2031201381FB30312013834B3031201FD
:1013D3003849B3031201387AB3031201388EB303C9
:1013E300120138B3B303120138EDB30312013819F4
:1013F300B40312013851B403120138D0B4031201FB
:101403003819B50312013843B5031201386EB50319
:101413001201381BFD0312013875C602120138A3ED
:10142300C602120138F1C702120138D1C8021201F3
:1014330038F0C8021201386DC902120138B0C9026E
:1014430012013806CB02120138C7CB021201384E03
:10145300CE02120138EFCE02120138E5CF0212019B
:1014630038E2D0021201383CD202120138C7D2024C
:1014730012013816F7031201387FF703120138D32C
:10148300F703120138FAF7031201382BF80312019C
:101493003882FB02120138EFFB0212013836FC02DC
:1014A3001201384EFD021201384AFE021201382D94
:1014B300FF0212013819F3021201385BF302120121
:1014C300382DF40212013806F50212013800F60233
:1014D300120138E2F6021201384BF7021201380109
:1014E300F80212013875F802120138E1F80212010C
:1014F300380AF90212013884F9021201381DFA027E
:1015030012013882FA0212013897FA02120138DD09
:10151300FA02120138F6FA021201385BFB021201D9
:10152300385EFB021201382DD40312013855D4035F
:1015330012013893D40312013851D503120138B87C
:10154300D503120138D4D503120138FCD503120197
:10155300382CD6031201383BD603120138B8D60310
:10156300120138DED6031201388CEB011201386AFE
:10157300ED011201389CEF01120138D8EF0112017D
:101583003805F001120138EFF0011201383AF10188
:1015930012013885F10112013897F101120138D790
:1015A300F1011201380CF2011201385AF201120151
:1015B3003889F201120138ACF201120138F9F20153
:1015C3001201387EF30112013898F501120138D760
:1015D300F70112013818F801120138BAF9011201A2
:1015E30038FBF9011201386EFA01120138C4FA010D
:1015F30012013860B9021201385EBA02120138F7DB
:10160300C00212013818C302120138E3C4021201E6
:10161300384BC602120138DE84011201388D850170
:10162300120138BA850112013800860112013840CF
:101633008701120138D6880112013850890112013D
:10164300386B8901120138E68901120138408B0198
:10165300120138A08C01120138A68D01120138073E
:101663008F01120138208F011201387E8F01120180
:10167300386C90011201389F90011201380F9101CB
:10168300120138899101120138D391011201389D59
:10169300920112013872930112013851940112011F
:1016A30038DC94011201384A9501120138BE9501C4
:1016B300120138E99501120138A896011201380D7B
:1016C30098011201382A9801120138499801120130
:1016D300383A99011201385F990112013889990149
:1016E300120138049A011201385E9A01120138C7B7
:1016F3009B01120138759C01120138B69C0112013D
:10170300388CAB02120138DAAB02120138E6AB02B5
:10171300120138C4AC02120138F5AC0212013826AA
:10172300AD02120138A6AD02120138DEAD0212017C
:101733003830AE021201386DAE021201388AB0029F
:10174300120138B0B2021201389BB402120138857B
:10175300B602120138B530001201385DB40112012E
:10176300388DB40112013866BB01120138EBBC019C
:10177300120138E8C201120138D0C3011201380D39
:10178300C40112013830C40112013861C4011201CD
:10179300386AC40112013874C40112013862C501E8
:1017A30012013858C6011201382E69001201382D72
:1017B3006D00120138336D001201386E740012018E
:1017C300388779001201385BC603120138F1C6036A
:1017D30012013807C7031201387DC703120138F11C
:1017E300C7031201382FC803120138A3C80312011B
:1017F300381CC90312013825C90312013831C90342
:1018030012013846C90312013884C9031201389AF8
:10181300C903120138F9C90312013896B50312013D
:1018230038A3B503120138BDB503120138FCB50363
:101833001201383AB6031201389FB603120138B4C5
:10184300B603120138BFB603120138CCB603120136
:1018530038E3B603120138F1B603120138FCB603BC
:1018630012013808B70312013817B70312013822DF
:10187300B70312013845B703120138ECB70312015D
:1018830038FCB70312013816B80312013833B80312
:101893001201384FB80312013874B8031201387FAC
:1018A300B80312013894B803120138A8B80312011F
:1018B3003809B9031201380FB90312013815B903F6
:1018C3001201381BB90312013833B9031201386608
:1018D300B903120138629D02120138E69D0212011A
:1018E30038959E02120138F49F0212013815A202A4
:1018F30012013801A30212013836A302120138582B
:10190300A30212013807A402120138FFA502120133
:101913003828A602120138BAA602120138ECA60230
:10192300120138F9A60212013850A70212013876C3
:10193300A702120138E3A902120138E6AA02120132
:10194300383EAB02120138F18E02120138FB8F02CE
:10195300120138E29002120138EC90021201380EA3
:1019630091021201381A9102120138B39202120144
:1019730038E29202120138FE9302120138579402A0
:10198300120138BD95021201389C9602120138F8F3
:101993009602120138659702120138A097021201CC
:1019A30038DF9702120138989A02120138B29A026C
:1019B3001201383E9B021201384C9B02120138A5DA
:1019C3009B02120138B39B02120138269C021201BA
:1019D300388A9C02120138D49C0212013848D3027F
:1019E3001201386AD30212013890D502120138A5C8
:1019F300D802120138BDD90212013870DA0212017D
:101A03003852DB0212013816EC031201383BEC03A7
:101A1300120138ADEC03120138A18703120138AA71
:101A23008703120138B387031201388A880312012E
:101A3300383B8A03120138718A03120138AB8A03D7
:101A4300120138E18A031201381B8B031201384F4C
:101A53008B031201387B8B03120138C48B031201F1
:101A630038FE8B03120138478C031201389F8C0315
:101A7300120138D48C031201382F8D0312013869F7
:101A83008D03120138BA8D03120138F08D03120150
:101A9300382A8E03120138588E031201387B8E03C5
:101AA300120138848304120138B083041201380B05
:101AB30084041201381584041201382584041201A8
:101AC30038588704120138D9FF03E066701008A361
:101AD300E066700A08A3E066700408A3E06622C308
:101AE300E7960809E7960809E7960809E79622C3E7
:101AF300E09608A3E09608A3E09608A3E09622C028
:101B030008C3E096F50808A3E096420808A3E09608
:101B1300420808A3E09645087001D3D008220808BC
:101B230008EAC0E0EBC0E086F0E7A4FA180986F003
:101B3300E7A42AFA180986F0E7A42AFA180986F016
:101B4300E7A42AFA1986F0E7A4FBE5F02AFA1908B4
:101B530086F0E7A42BFBE5F03AFA190886F0E7A430
:101B63002BFBE5F03AFA18180986F0E7A4C5F02B29
:101B7300FBE43AFA1908E7C5F0C6A426F6E5F03BFC
:101B8300FBE43AFA1886F0E7A4F6E5F00826F6E453
:101B93003B08F6E43A08F6D0E0FBD0E0FA22E4CFC3
:101BA300C0E0E4CEC0E0E4CDC0E0E4CCC0E075F03A
:101BB30020C3E633F608E633F608E633F608E633E1
:101BC300F6181818EC33FCED33FDEE33FEEF33FF5C
:101BD300C3EC9709ED9709EE9709EF971919194087
:101BE3000FFFEC97FC09ED97FD09EE97FE19190617
:101BF300D5F0BEECF709EDF709EEF709EFF7191980
:101C030019D0E0FCD0E0FDD0E0FED0E0FF2260166A
:101C1300080808C6C313C618C613C618C613C618C1
:101C2300C613C6D5E0EA2270090808082260161810
:101C33001818C6C333C608C633C608C633C608C693
:101C430033C6D5E0EA22E627F60809E637F608099F
:101C5300E637F60809E637F622E026F608A3E0366B
:101C6300F608A3E036F608A3E036F622E026F008ED
:101C7300A3E036F008A3E036F008A3E036F022C371
:101C8300E697F60809E697F60809E697F60809E6DF
:101C930097F622C3E096F008A3E096F008A3E09637
:101CA300F008A3E096F022E657F60809E657F6088F
:101CB30009E657F60809E657F622E056F608A3E0C8
:101CC30056F608A3E056F608A3E056F622E056F0CF
:101CD30008A3E056F008A3E056F008A3E056F0226C
:101CE300E0F608A3E0F608A3E0F608A3E0F622E690
:101CF300F008A3E6F008A3E6F008A3E6F022E0FA72
:101D0300A3E0FBA3E0FCA3E0FD22EAF0A3EBF0A336
:101D1300ECF0A3EDF022CAC0E0E6F0A308DAFAD0B3
:101D2300E0FA22CAC0E0E0A3C582CCC582C583CD58
:101D3300C583F0A3C582CCC582C583CDC583DAE64E
:101D4300D0E0CA22C3E498F8E499F9121D888026EA
:101D5300C3E49AFAE49BFBE920E7E9121D88E498BF
:101D6300F8E499F922C3E498F8E499F9121D88E498
:101D730098F8E499F9C3E49AFAE49BFB22EB20E791
:101D8300CFE920E7E0B90010BB0008E88AF084F847
:101D9300AAF022E4FBC8FA22EB70227B10C833C8F6
:101DA300C933C9335007C39AC3DBF280069A500183
:101DB3002ADBEAC833F4C8C933F4C9FA2275F00838
:101DC300E4C833C8C933C933C99AC99B5004C92A63
:101DD300C93BD5F0ECFBC833F4C8E4C9FA22600D63
:101DE30008C6A2E713C618C613C6D5E0F322600CD3
:101DF30008C6C313C618C613C6D5E0F4227004225E
:101E0300600D18C6C333C608C633C6D5E0F418221E
:101E1300251810AF08F518400215198008F5184069
:101E2300021519D2AF22C0D0251810AF08F51850EB
:101E33000205198008F51850020519D2AFD0D02237
:101E43002518F58210AF08F518400215198008F51A
:101E53001840021519D2AF851983222518F582E49B
:101E63003519F58322E4732518C582C0E0E51934DA
:101E7300FFC583C0E0E518C3958224F810AF088539
:101E830083198582188008858319858218D2AFCE7D
:101E9300F0A3E520F0A37808E608F0A3DEFAEFF05C
:101EA300A3E58124FAF8E608F0A3E608F0A3E60820
:101EB300F0A30808E608F0A3E608F0A3158115814E
:101EC300D0E0FED0E0F8158115811581E8C0E0EE81
:101ED300C0E0222518C582C0E0E51934FFC583C0E0
:101EE300E0E518C3958224F910AF0885831985822C
:101EF300188008858319858218D2AFCEF0A3E52018
:101F0300F0A37808E608F0A3DEFAEFF0A3E5812456
:101F1300FBF8E608F0A3E608F0A30808E608F0A338
:101F2300E608F0A315811581D0E0FED0E0F8158115
:101F33001581E8C0E0EEC0E022851983851882E0B0
:101F4300A3FEE0A3F5207808E0A3F608DFFAE0A3F8
:101F5300FFE0A3C0E0E0A3C0E0E0A3C0E0E0A3C0D3
:101F6300E0E0A3C0E010AF088582188583198008DC
:101F7300858218858319D2AFD083D082020135853B
:101F83001983851882E0A3FEE0A3F5207808E0A377
:101F9300F608DFFAE0A3FFE0A3C0E0E0A3C0E0E0BF
:101FA300A3C0E0E0A3C0E010AF08858218858319C1
:101FB3008008858218858319D2AFD083D08222C04E
:101FC300D02518C582C0E0E51934FFC583C0E0E51C
:101FD30018C3958224F310AF08858319858218806E
:101FE30008858319858218D2AFC8F0A3E9F0A3EA64
:101FF300F0A3EBF0A37908E709F0A3D8FAECF0A378
:10200300EDF0A3EEF0A3EFF0A3D0E0F0A3D0E0F067
:10201300A3D0E0F0A3E520F0A3E5F0F0A322851917
:1020230083851882E0C0E0A3E0F9A3E0FAA3E0FB14
:10203300A37808E0F608A3DFFAE0FCA3E0FDA3E041
:10204300FEA3E0FFA3E0C0E0A3E0C0E0A3E0F5D07F
:10205300A3E0F520A3E0A3F5F010AF08858319856D
:1020630082188008858319858218D2AFD082D083E5
:10207300D0E0F8D0E0327404800674028002740168
:10208300C0E0F404121E43D0E0121D192274048030
:102093000474028000CCC0E0EDC0E0E518C39CCC22
:1020A300AD1950011D10AF068C188D1980068C18C0
:1020B3008D19D2AF121D26D0E0FDD0E0FC22D083D3
:1020C300D082E9C0E0E493A3C386F0C5F095F0F9AC
:1020D30008E493A386F0C5F095F0700BE493A3C3D3
:1020E300994005E9048002A3E475F002A42582F572
:1020F30082E5F03583F583D0E0F9E493A3C0E0E40F
:1021030093C0E022D083D082ECC0E0EDC0E0E49342
:10211300A3FCE493A3FDED4C600D122153EC24FFCB
:10212300FCED34FFFD80EFE493A3FCE493A3FDED0A
:102133004C600D122192EC24FFFCED34FFFD80EF87
:10214300D0E0FDD0E0FCE493A3C0E0E493C0E02240
:10215300C0E0C3E49396087401939618400FE49388
:1021630066700808740193661870007019A3A3C3FE
:10217300E49396087401939618A3A3400DD0E0D07E
:10218300E0D0E0022143A3A3A3A3A3A3D0E022C0F2
:10219300E0C0F088F0E49366700808740193661851
:1021A3007000A8F0A3A3700BD0F0D0E0D0E0D0E093
:0A21B300022143A3A3D0F0D0E022E4
:1021C000C2AF02000022C0E074F2121FC2A2AFE44C
:1021D00033FED2AFE589A2E05003120DAD75890040
:1021E000C2C5EEF8EEA2E092AF7F01022021C0E06E
:1021F00074F2121FC2A2AFE433FED2AFE58AA2E6A8
:102200004006E58AA2E75003120DAD758A00758A73
:1022100000C2EBEEF8EEA2E092AF7F01022021C0F7
:10222000E0C0D0E8C0E0E9C0E0A2AFE433F8D2AF4C
:10223000758B00C2E8E8F9E8A2E092AFD0E0F9D0EF
:10224000E0F8D0D0D0E032C0E0C0D0E8C0E0E9C0D3
:10225000E0A2AFE433F8D2AFC2C7751A00E8F9E8DC
:10226000A2E092AFD0E0F9D0E0F8D0D0D0E0327464
:10227000F5121ED6EAFEEBFFEE2434F8EF3400F937
:1022800088088909EE2435F582EF3400F583E0F8FB
:10229000EE2437F582EF3400F583E0F50AEC850A89
:1022A000F0A4FCAAF0850AF0EDA42AFDE82CF8E4DD
:1022B0003DF97A257B00121D88EA8508828509830D
:1022C000F0F8740758F97401B900028004C333D9D7
:1022D000FCFAE8131313541FF8EE28F8EF3400F952
:1022E000E8245DF582E93400F583E05A6008EE24C5
:1022F00034F582EF802CEE2434F582EF3400F58340
:10230000E0C0E0EE2436F582EF3400F583E0F5F02E
:10231000D0E084A8F0EE28F8EF3400F9E82438F58E
:1023200082E93400F583E0F97F04021F8274F5121C
:102330001ED6EAFEEBFFEE2434F582EF3400F5837F
:10234000E0C0E0EE2435F582EF3400F583D0E0F014
:102350008E828F83A3A3A3A3A3A3A3C082C0838ED3
:10236000828F83A3A3A3A3A3E0F8A3E0F9D083D033
:1023700082E0C398F508A3E099F509EE247FF58281
:10238000EF3400F583E064017069EE2480F582EF9C
:102390003400F583E0F8A3E0F98E828F83A3A3A332
:1023A000A3A3A3A3E0FCA3E0FD8E828F83A3A3A33A
:1023B000A3A3E0FAA3E0FBC3EA9CEB9D5010C3EC9F
:1023C00098ED99402EC3EA98EB995027800EC3EA06
:1023D00098EB994007C3EC98ED9940177CD27D07A4
:1023E000EEFAEFFB1216B3EE247FF582EF3400F520
:1023F00083E4F0EE2434F8EF3400F9E8FCE9FDEE74
:102400002435F582EF3400F583E0F8EE2437F582C9
:10241000EF3400F583E0F50AE508850AF0A4F50835
:10242000AAF0850AF0E509A42AF509E82508F8E4E8
:102430003509F97A257B00121D88EA8C828D83F09C
:10244000F8740758F97401B900028004C333D9FC49
:10245000FAE8131313541FF8EE28F8EF3400F9E8E4
:10246000245DF582E93400F583E05A6008EE2434F7
:10247000F582EF802CEE2434F582EF3400F583E012
:10248000C0E0EE2436F582EF3400F583E0F5F0D0BD
:10249000E084A8F0EE28F8EF3400F9E82438F5825B
:1024A000E93400F583E0F91230A7022328C082C086
:1024B00083851882851983E0F8A3E0F9C3EA9CEBD1
:1024C0009D5010C3EC98ED99401BC3EA98EB9950CE
:1024D00014800EC3EA98EB994007C3EC98ED99403D
:1024E00004790180027900D083D08222EAC39CFA69
:1024F000EB9DFB2274EF121ED6900698E0640860F4
:1025000005E06407702A9061C8E060249006C6E088
:10251000F4601DE0F875F003A4C8AAF02AF974C8A5
:1025200028FE740639FF8E828F83A3A3A3E0700375
:10253000022624906060E0C0E0EE2468F582EF346B
:1025400000F583D0E0F0750C3B750D08750800753B
:102550000900E5D914F50AE5D95403F50E6017749E
:1025600003650E605CE50A6010EE2467F582EF34C7
:1025700000F583E07003022609900836E0640160EC
:102580002AEE2482F582EF3400F583E060047804BB
:1025900080027800850A08E508C398FA95E0FB12E6
:1025A000157B8A088B09EA450970051218B78074F3
:1025B000EE2482F582EF3400F583E070048A0C8B00
:1025C0000DE50A6012850C82850D83F50BE5D9F0C7
:1025D000A3150BE50B70F6EE2482F582EF3400F5BF
:1025E00083E0604474FC250AF50A780C12207DAC67
:1025F0000AA90EEEFAEFFB12174F7402121E29E918
:102600007026AA08AB09120E91793D8E828F83A3A2
:10261000A3A3A3E0FA7B0012144FEEFAEFFB12160D
:10262000CB121761790080747403650E6056850AB9
:1026300010751100781012207DAC0CAD0DAA08ABFE
:102640000912172B7402121E29EE2468F582EF344A
:1026500000F583E064807004747F8001E0F50C78FD
:102660000C122081E50EF50C780C122081A90AAC21
:1026700008AD099006C6E0FA7B001214137402122A
:102680001E298013900698E06408600BAC0CAD0D19
:10269000EEFAEFFB1217BB1218C379017F0A021F73
:1026A0008274F5121ED674FC121E13EAFEEBFF892B
:1026B00008A2AFE433F509C2AF806AEE2463F8EFF5
:1026C0003400F97A007B00A2AFE433F50AC2AF8888
:1026D000828983E0FCA3E0FDEC4D603A8882898327
:1026E000E0FAA3E0FB8A828B83E0FCA3E0FD888212
:1026F0008983ECF0A3EDF08A828B83E4F0A3F08869
:10270000828983E0FCA3E0FDEC4D700A8882898316
:10271000A3A3E4F0A3F0E50AA2E092AF120E919019
:1027200007D9E004F0EE2463F582EF3400F583E08E
:10273000F8A3E0F9E849603DEE2463F582EF340048
:10274000F583E02402FAA3E03400FBEA2402F50A50
:10275000EB3400F50B780A12207D8A828B83E0FC33
:10276000A3E0F9EEFAEFFB1216EF7402121E29E94C
:1027700070030226BB9007D9E060639007DAE0F8A7
:102780009007D9E0C398500C740265087050900708
:10279000DBE0604A8E828F83A3A3A3A3E085188227
:1027A000851983F0A3E4F09007D9E0F87402121EB3
:1027B0005EE8F0A3E4F09007D9E0F89007D8E028AD
:1027C000F07402121E5EAC82AD8385188285198377
:1027D000AA82AB83790112141F9007D9E4F0E509AE
:1027E000A2E092AF7404121E290223288521878556
:1027F00022C622C0E0C0D0E8C0E0E9C0E0EAC0E004
:10280000EBC0E0ECC0E0EDC0E0EEC0E0C008C00905
:10281000C00AC00BC082C083C0F0A2AFE433FEC2C6
:10282000AF759B00906182E0A2E05012E591A2E0BA
:10283000500C7591FE7401652170031224F4E0A21E
:10284000E55051E591A2E5504B7591DF900698E077
:1028500064076005E06408702374016521703579B0
:10286000019006C6E0FA75F003A4CAA8F028FB742C
:10287000C82AFA74063BFB1226A18018E0640D708A
:10288000139006BAE004F064287002E4F07A00E0E5
:10289000F91218C9906182E0A2E6400302293AE5E4
:1028A00091A2E6400302293A7591BF900698E06430
:1028B0000570081217F11217FD80031217F7752122
:1028C00000121857E9900699F0790012184B121669
:1028D000297A017B00900697E0F91209CF907803DE
:1028E000E06442705590083AE014F0704DC2AF12A7
:1028F00028F200782AD0E0F618D0E0F6E59F5407D9
:1029000070057509FF800375097FC4C0E07829E66A
:10291000F50808E65509F509740B7808121DF1D081
:10292000E02508F8906270E0A2E740F8E8C3339031
:102930006272F0906270E0D2E0F0906181E0A2E318
:102940005009E5E9A2E3500375E9F7A3E0A2E750D7
:1029500009E591A2E7500375917FEEA2E092AFD016
:10296000F0D083D082D00BD00AD009D008D0E0FEBE
:10297000D0E0FDD0E0FCD0E0FBD0E0FAD0E0F9D030
:10298000E0F8D0D0D0E032C0E0C0D0C082C08390A8
:102990006183E0A2E05009E5BFA2E0500375BFFEED
:1029A000E0A2E15009E5BFA2E1500375BFFDE0A23E
:1029B000E25009E5BFA2E2500375BFFBE0A2E3507D
:1029C00009E5BFA2E3500375BFF7E0A2E45009E5B3
:1029D000BFA2E4500375BFEFE0A2E55009E5BFA236
:1029E000E5500375BFDFE0A2E65009E5BFA2E6505F
:1029F0000375BFBFD083D0828088C0E0C0D0E8C05C
:102A0000E0E9C0E0EAC0E0EBC0E0ECC0E0EDC0E02F
:102A1000C0F0E5A7A2E6500FE5A1A2E6500953A732
:102A2000BF75A1BF122A5FE5A7A2E5500CE5A1A2E0
:102A3000E5500653A7DF75A1DFE5A7A2E15009E540
:102A4000A1A2E1500375A1FDE5A7A2E2500CE5A10A
:102A5000A2E2500653A7FB75A1FBD0F002297074C7
:102A6000F8121ED6752101900698E06406701512C2
:102A7000177F8A828B83A3A3A3A3A3A3E0FAA3E077
:102A8000FB1217DFA2AFE433FED2AF90069EE064E4
:102A90000170187A207B00900697E0F9120A5F7A9D
:102AA000207B00900697E0F91209D5906182E0D270
:102AB000E6F0900837E0602185C622801690069DDA
:102AC000E064017008E5C654F84405F5C653BEFC41
:102AD0001227EC7401652160E4EEA2E092AF7F0161
:102AE000021F82008E238F248582288583278518E4
:102AF00082851983E0CEA3E0CF852882852783EBEA
:102B0000C9EAC8EDCBECCA75F010C3E833C8E933A5
:102B1000C9EA33CAEB33CBC3EA9EF526EB9FF52512
:102B2000B35004AB25AA26EC33CCED33CDD5F0DA87
:102B3000AE23AF242274E9121ED674F8121E138538
:102B40001882851983ECF0A3EDF08A088B099006B2
:102B500098E024F7C394055006750801022CCC12A6
:102B6000177F8A0A8B0BAE0AAF0BEE4F7003022C55
:102B7000C9AC08AD097402121E5EAA82AB8312189A
:102B80000F8E828F83A3A3750CFF750DFF750EFF4B
:102B9000750F00780C121CBD7402121E5E7510FFBA
:102BA0007511FF7512FF7513007810121CBD780C9B
:102BB0007910121AE2502A780C7910121C827508CA
:102BC000017509C8750A00750B007808790C121A8E
:102BD000E25052850C08850D09850E0A850F0B8081
:102BE000507514017515C875160075170085100805
:102BF00085110985120A85130B7808790C121C823D
:102C000078147908121AE2401C75080075090075DD
:102C10000A00750B0178087910121C827808790C6B
:102C2000121C49800C750801750900750A00750BA6
:102C30000074097808121C2A750C19F50DF50EF5AB
:102C40000F7808790C121BA18E828F83A3A3A3A3F4
:102C5000A3A3E0F8A3E0F97AD07B03121D88880CC7
:102C6000890DE4F50EF50F7808790C121C497406ED
:102C7000121E5EE0F8A3E0F97AD07B03121D88E80B
:102C8000FA8A0CE4F50D7808790C121AE2500778EC
:102C900008790C121C82900698E06408600AE064CF
:102CA000066005E06405702D750C0D780C7908122E
:102CB0001AE24021750CF4750DFF750EFF750FFFBC
:102CC0007808790C121C49800C750800750900758C
:102CD0000A00750B00851882851983E0F8A3E0F5DA
:102CE0008388827808121CF27408121E297F100251
:102CF0001F8274F7121ED6121821900835E0640165
:102D00007010906245E4F0A3F053F4F343FE0C53CB
:102D100090F31217CDE5C654804449F5C6E59E549C
:102D20007F644970F8906185740FF0900833E0F487
:102D30007002A3E0604E900834E0600814601B1439
:102D4000602E8040750801750900900833E078080E
:102D5000121E00E508F45280802A750801750900EA
:102D6000900833E07808121E00E508F452908014B1
:102D7000750801750900900833E07808121E00E517
:102D800008F452A079007F02021F8274F7121ED647
:102D9000E9FEEAFF74016E700C7A807B0090069762
:102DA000E0F91209CF9030B8E493F46008E493F9A5
:102DB00012161D800953C680E59E547F70FA1217C3
:102DC000D3900835E064017003121635900833E0A3
:102DD000F47002A3E0604B900834E0600814601ABD
:102DE00014602C803D750801750900900833E07867
:102DF00008121E00E5084280802875080175090048
:102E0000900833E07808121E00E5084290801375A0
:102E10000801750900900833E07808121E00E508E3
:102E200042A012182112177F8A088B09A808A90945
:102E3000E8496015E5E170FCE82414F582E9340006
:102E4000F583E0F46003E0F5E174016F700A7A0144
:102E5000900697E0F9120A29022D8674ED121ED60B
:102E60008A088B098C0A8D0B7413121E5E780C1263
:102E70001CE37808790C121AE27510017511C875F7
:102E8000120075130050127808790C121C82781009
:102E90007908121AE250168010780C7908121C82F8
:102EA0007810790C121AE240047901800279007FCF
:102EB0000C021F8274ED121ED68A088B098C0A8DB3
:102EC0000B7413121E5E780C121CE3780C79081236
:102ED0001AE240117808790C121C82AA08AB09ACDE
:102EE0000AAD0B8022751000751100751200751364
:102EF000017810790C121C8278107908121C49AAEA
:102F000010AB11AC12AD1380A68A828B837508FFBB
:102F10007509FF750AFF750B007808121CD07F0435
:102F2000021F8274F5121ED68C828D837808121CC3
:102F3000E38A828B837808121C96EA2404F8EB3427
:102F400000F98C828D83A3A3A3A3E0FCA3E0FD88FA
:102F5000828983C3E09CF0A3E09DF088828983C3CB
:102F6000E09420A3E0944E40268A828B837508FF6C
:102F70007509FF750AFF750BFF7808121C6F8A82AE
:102F80008B83A3A3A3A3E02420F0A3E0344EF0029C
:102F90002F0974F5121ED6E9FE9007EDE0FAA3E0C2
:102FA000FBEEC333F8E433F9747528F58274823983
:102FB000F583E02AF508A3E03BF509780812207DA7
:102FC0007A407B427C0F7D00122AE47402121E2993
:102FD0008A088B098C0A8D0B74107808121C11AAB0
:102FE00008AB097F04021F8274F1121ED68A0C8B73
:102FF0000D8C0E8D0F740F121E5EE0FAA3E0FB74B1
:1030000011121E5EE0F508A3E0F509780812207D94
:10301000EA2401F508EB3400F509E4F50AF50B782C
:103020000C7908121B21750871750902780C790852
:10303000121B21AA0CAB0DAC0EAD0F122AE47402C8
:10304000121E298B09EA450960047A0180027A0080
:10305000EC2AFCED3400FD7413121E5EE0F8A3E0D0
:10306000F9E8FEE9FFECF8EDF97A717B02121D88B0
:10307000880889098E828F837808121CF2ECF8ED9B
:10308000F97A717B02121D888A088B097405780809
:10309000121E008E828F83A3A3A3A3E508F0A3E5ED
:1030A00009F07F08021F82C082C083E9906000F0AF
:1030B000D083D08222020135FFFFFFFFFFFFFFFF19
:1030C00074EE121E6A74FA121E138A0A8B0B890997
:1030D000ECFEEDFF750800850A0C850B0D780C12CF
:1030E00020C1000410993309312A3149316A318BEA
:1030F00031AC31DF310032173245320333243344EF
:10310000336E339933993370327401650970158EBB
:10311000828F83E0C39403500B8E828F83E0900DE7
:1031200087F080037508180233C2740265097013B2
:103130008E828F83E0F8A3E0F9900D88E8F0A3E990
:10314000F080037508180233C27401650970158E8A
:10315000828F83E0C39402500B8E828F83E09003B2
:1031600058F080037508180233C2740165097015A0
:103170008E828F83E0C39405500B8E828F83E09004
:103180000359F080037508180233C2740165097091
:10319000158E828F83E0C39402500B8E828F83E062
:1031A00090035AF080037508180233C27410650941
:1031B0007027750C10750D00780C12207DEEFCEF59
:1031C000FD7A5B7B0312097B7402121E298A0C8B29
:1031D0000D850C82850D8380037508180233C27437
:1031E00001650970158E828F83E0C39402500B8EA7
:1031F000828F83E090036BF080037508180233C25E
:1032000074016509700B8E828F83E0900D8BF080C6
:10321000037508180233C274046509702290842A69
:10322000780C121CE38E828F83780C121AF2500FE6
:103230008E828F83121D0190036D121D0D80037508
:1032400008180233C2E50970211211CDE97013127A
:103250000C3FE9F50C7950120F1BE9F50D120C2DFE
:10326000800B9004007401F080037508180233C2CB
:103270007407650960030232FD750E06750F00784C
:103280000E12207D8E828F83A3AC82AD83740212D6
:103290001E5EAA82AB831209817402121E298A1053
:1032A0008B1185100E85110F7C007D00851882859D
:1032B0001983AA82AB838E828F83E0F9120BD3E944
:1032C000F50CE50CC3940A502F1211CDE97015A925
:1032D0000C120C45E9F50D7950120F1BE9F50E1291
:1032E0000C2D801C750D007401250CF582740435BD
:1032F0000DF5837401F080087508028003750818C5
:103300000233C27401650970158E828F83E0C39405
:1033100002500B8E828F83E090036CF0800375085F
:10332000180233C27401650970158E828F83E0C361
:10333000940A500B8E828F83E0900D8AF080037583
:103340000818807E74016509701F8E828F83E0C328
:10335000940740158E828F83E0C39411500B8E82A8
:103360008F83E0900D8CF08059750818805474019B
:10337000650970209003FFE0F50C8E828F83E0904A
:1033800003FFF0E50C703B9003FFE0640170331223
:103390000C2D802E7508188029C3E50A9427E50BAB
:1033A0009400501B7402650970158E828F83E0FCB7
:1033B000A3E0FDAA0AAB0B12106BE9F508800375B8
:1033C0000802A9087406121E297F0A021F3C74EC29
:1033D000121E6A74DA121E13890D8A128B138C0A5C
:1033E0008D0B743A121E5EE0F50C9083E2C082C031
:1033F00083851882851983AC82AD83D083D0827493
:1034000006121D26851882851983AC82AD83AA1207
:10341000AB13A90D120BD3E9FEEEC3940A400302CD
:10342000356DEEF9120C0FE9FF900D87E064027024
:1034300004740180027400F5087808122081AD0C34
:10344000EFFCEEF9AA0AAB0B120C817401121E29D3
:103450007C147D0079007412121E5EAA82AB831266
:1034600009938A0E8B0F850E08850F097412121EA0
:103470005EAC82AD837A1075F006EEA42424F912B6
:103480000F15E970437C1079FF7412121E5EAA8238
:10349000AB831209F3E970307422121E5EAC82AD68
:1034A000837A0475F006EEA42425F9120F15E9F5C8
:1034B000087412121E5EAC82AD83EFA2E0E433F911
:1034C000AA0AAB0B1210F5E97406121E5EAC82ADAF
:1034D000837A0C74702EF9120F15E9707E7406123F
:1034E0001E5EAA82AB83120C03750E00E50EC39418
:1034F000045068E50EA80E7900E875F003A4C8AA88
:10350000F075F000A42AFA75F003E9A42AF974060C
:10351000121E5EE58228F508E58339F509850882E3
:10352000850983E0F8A3E0F9E849602B85088285E6
:103530000983A3A3E0F510751100781012207D8592
:103540000882850983E0FCA3E0FDAA0AAB0B1213F5
:10355000597402121E29E9050E8091EFA2E1500D67
:10356000900357E0F9AA0AAB0B12135FE9740465E4
:103570000C700F900D87E064027007AA0AAB0B1263
:103580000C7B79007426121E297F0C021F3C74F2FA
:10359000121E6A890BEAFEEBFF8C088D09750A0A78
:1035A000E50B600C14600914604414606402363248
:1035B000EEFAEFFB120C21E9F50AE50AC3940A5072
:1035C00071E5084509606B750C06750D00780C12E5
:1035D000207DEEFCEFFDAA08AB0912097B740212F4
:1035E0001E298A0C8B0D850C82850D838044EEFA92
:1035F000EFFB120C1BE9F50AE50AC3940A5033E508
:10360000084509602DAA08AB09A90A120C15E98022
:1036100021EEFAEFFB120C27E9F50AE50AC3940A3A
:103620005010E5084509600AAA08AB09A90A120C5E
:1036300015E9A90A7F06021F3C74F2121E6A8A0C61
:103640008B0DE9FE7F1574FF650C700474FF650D2A
:10365000702A750800E508C3940A5014EEFC7A023B
:103660007B00A908120BF1E960027F00050880E5E4
:10367000EE60637A697B0C12155D805AAA0CAB0D63
:1036800012153F8A0A8B0B850A08850B09E5084548
:103690000960417C007D00E5082405FAE509340055
:1036A000FB850882850983A3A3A3A3E0F9120BD3AA
:1036B000E9F50AE50AC3940A500EEEFC7A027B0093
:1036C000A90A120BF1E97F00EE600BAA08AB091200
:1036D0000C6980027F14EFF97F06021F3C74EE1222
:1036E0001E6A8A0E8B0F8C0A8D0B7412121E5EE0FE
:1036F000F50CA3E0F50D75081574FF650E700474E4
:10370000FF650F701E7E00EEC3940A5062AC0CADD4
:103710000DAA0AAB0BEEF9120BF7E960037508006E
:103720000E80E4AA0EAB0F12153F8A108B11AE105B
:10373000AF11EE4F60367C007D00EE2405FAEF34C9
:1037400000FB8E828F83A3A3A3A3E0F9120BD3E91E
:10375000F509E509C3940A5016AC0CAD0DAA0AABE5
:103760000BA909120BF7E97508008003750814A965
:10377000087F0A021F3C74F7121E6AEAFEEBFF90F4
:103780000371EEF0A3EFF0900357E0FC7D007A2682
:103790007B0012106BE9F508900357E0F91212D57F
:1037A0007F01021F3C74F2121E6A74EC121E138A0F
:1037B0000A8B0B850A82850B83A3A3E024FA70038E
:1037C000023C0524FD7003023A7B14700302389812
:1037D00014601024FD7003023A23147003023ABBF4
:1037E000023C73AE0AAF0B900371E0F8A3E0F9E876
:1037F000496069900371E0F8A3E0F5838882E0F8FE
:10380000A3E0F9E8496055EE240CF582EF3400F5A9
:1038100083E0F5087808122081EE240BF582EF345E
:1038200000F583E0F98E828F83A3A3A3A3A3A3A3B0
:10383000A3A3E0FCA3E0FDEE2403FAEF3400FB9029
:103840000371E0F8A3E0F5838882E0F8A3E0F58354
:103850008882121E687401121E2980398E828F831D
:10386000A3A3A3A3A3A3A3A3A312209490036D12C5
:103870001D011211077402121E29E9601879018EC8
:10388000828F83A3A3A3A3A3A3A3A3A3E0FAA3E08C
:10389000FB121101E9023C73AE0AAF0B8E828F83DB
:1038A000A3E060030239D18E828F83A3A3A3A3A3D5
:1038B000E0A2E040030239D190040BE0F8A3E0F964
:1038C000E84960030239D17C0E7D007900851882B9
:1038D000851983AA82AB831209938A088B09AA08E7
:1038E000AB09EE240CF582EF3400F583E0F8A3E099
:1038F000F9E849603B750806750900780812207DD3
:10390000EE240CF582EF3400F583E02410FCA3E0F4
:103910003400FD7402121E5EAA82AB8312097B740E
:1039200002121E298A088B09850882850983805422
:103930008E828F83A3A3A3E0FAA3E0FB12153F8A34
:103940000C8B0D850C08850D09E50845096032755D
:103950000C06750D00780C12207DE5082405FCE5A9
:10396000093400FD7402121E5EAA82AB8312097B29
:103970007402121E298A0C8B0D850C82850D8380A2
:1039800003023C738E828F83A3A3A3A3A3E0A2E2CE
:103990005004D2F08002C2F0A2F0E433F87900744F
:1039A0000C121E5EE048F0A3E049F0EEFCEFFD854E
:1039B0001882851983AA82AB83120C09E970127AE6
:1039C000027B00900357E0F91209CFE97900023C2D
:1039D00075900371E0F8A3E0F9E849604390037142
:1039E000E0F8A3E0F5838882A3A3E0F8A3E0F9E878
:1039F00049602D8E828F83A3E0FC79018E828F83B4
:103A0000A3A3A3E0FAA3E0FB900371E0F8A3E0F521
:103A1000838882A3A3E0F8A3E0F5838882121E685E
:103A2000023C73AE0AAF0B900371E0F8A3E0F9E833
:103A3000496045900371E0F8A3E0F5838882A3A371
:103A4000E0F8A3E0F9E849602F850A82850B83A39B
:103A5000E0FC79028E828F83A3A3A3E0FAA3E0FBAC
:103A6000900371E0F8A3E0F5838882A3A3E0F8A3B4
:103A7000E0F5838882121E68023C73AE0AAF0B7CAD
:103A8000007D00EE2404FAEF3400FB8E828F83A3C6
:103A9000A3A3E0F9120BD3E9F508E508C3940A5093
:103AA00017EE240AFCEF3400FD7A0475F006E508F1
:103AB000A42425F9120F0FE9023C73AE0AAF0B9054
:103AC000036CE06018900D8AE0F98E828F83A3A3C7
:103AD000A3E0FAA3E0FB121101E9023C73900D8709
:103AE000E0701579058E828F83A3A3A3E0FAA3E08B
:103AF000FB121101E9023C738E828F83A3A3A3E022
:103B0000FAA3E0FB12153F8A0C8B0D850C08850D7E
:103B1000098E828F83A3A3A3A3A3A3A3E0A2E05053
:103B200075E5084509606C850882850983A3A3A310
:103B3000A3E060628E828F83A3A3A3A3A3A3A3A306
:103B4000A3E0F8A3E0F9E8C4540FF879005401F8B1
:103B5000E95400F9E8A2E0403D740E121E5EAC820A
:103B6000AD83E5082405FAE5093400FB8508828564
:103B70000983A3A3A3A3E0F9120BD3E97018790377
:103B80008E828F83A3A3A3E0FAA3E0FB121101E9C5
:103B9000023C73023C73EE2405FCEF3400FD850803
:103BA00082850983A3A3A3A3E0F98E828F83A3A3B5
:103BB000A3E0FAA3E0FB120C75900371E0F8A3E018
:103BC000F9E849603E900371E0F8A3E0F58388824C
:103BD000A3A3E0F8A3E0F9E84960287C0079008E0F
:103BE000828F83A3A3A3E0FAA3E0FB900371E0F824
:103BF000A3E0F5838882A3A3E0F8A3E0F58388829D
:103C0000121E68806E1211CDE97068900400E064A5
:103C100001701A120C3FE9FE9004007400F07C0A57
:103C20007D0079007A017B04120993803C7E00EECE
:103C3000C3940A50348E0875090074012508F58272
:103C400074043509F583E06401701BEEF9120C452C
:103C5000E9F88E0875090074012508F582740435A9
:103C600009F5837400F00E80C67950120F1BE9FE2F
:103C7000120C2D79017414121E297F06021F3C7448
:103C8000F3121E6A74F2121E138909EAFEEBFF8C0E
:103C90000C851882851983AC82AD837A0E75F00687
:103CA000E509A42420F9120F15E970727C0679FF4A
:103CB000851882851983AA82AB831209F3E9705EA5
:103CC000740C121E5EE0F8A3E0F9E8F508E50C605C
:103CD00005EE42088004EEF4520885080A750B00D0
:103CE000740C121E5EE0650A7004A3E0650B602A86
:103CF000E508A8087900740C121E5EE508F0A3E937
:103D0000F0851882851983AC82AD837A0E75F00632
:103D1000E509A42420F9120F0FE979018002790046
:103D2000740E121E297F05021F3C74F0121E6A7465
:103D3000E6121E13890B8A0C8B0DECFEEDFF740C42
:103D4000121E5EAC82AD837A0E75F006E50BA424DC
:103D500020F9120F15E96003023E8E7C0679FF748C
:103D60000C121E5EAA82AB831209F3E96003023EC5
:103D70008E851882851983AC82AD837A0C74702588
:103D80000BF9120F15E96003023E8A750A008518C7
:103D900082851983AA82AB83120C03E50C450D7052
:103DA0003A7C0C7900851882851983AA82AB83122C
:103DB00009F3E96003023E647C0C7D0079008518FC
:103DC00082851983AA82AB831209938A088B09859D
:103DD0000882850983750A01023E64851882851967
:103DE00083AC82AD83AA0CAB0D120BFD8A0E8B0F38
:103DF000850E08850F09E50845097036EE4F6021EC
:103E0000851882851983AC82AD837A007B00120B02
:103E1000FD8A0E8B0FA80EA90F88088909E8497042
:103E2000047900806B850882850983E50CF0A3E5A1
:103E30000DF0850882850983A3A3E0F87900EE6878
:103E40007002EF69601EEE850882850983A3A3F0E6
:103E5000EE4F700D8508828509837400F0A374000D
:103E6000F0750A01E50A6022851882851983AA8205
:103E7000AB83120C03851882851983AC82AD837ADB
:103E80000C7470250BF9120F0FE97901800279008B
:103E9000741A121E297F08021F3C74F7121E6AEA68
:103EA000FEEBFF7B00EBC39404504EEBF87900E887
:103EB00075F003A4C8AAF075F000A42AFA75F003FF
:103EC000E9A42AF9EC28F582ED39F583E06E700358
:103ED000A3E06F7021EBF87900E875F003A4C8AA9D
:103EE000F075F000A42AFA75F003E9A42AF9EC2889
:103EF000FAED39FB80070B80AC7A007B007F010272
:103F00001F3C74F7121E6A7F00EFC3940440030243
:103F10003FB1EFF87900E875F003A4C8ACF075F094
:103F200000A42CFC75F003E9A42CF9EA28F582EB37
:103F300039F583E0F4FCA3E0F4FDEFF87900E875CF
:103F4000F003A4C8AEF075F000A42EFE75F003E9EE
:103F5000A42EF9EA28F582EB39F583ECF0A3EDF015
:103F6000EFF87900E875F003A4C8ACF075F000A490
:103F70002CFC75F003E9A42CF9EA28F582EB39F55D
:103F800083A3A3E0F4C0E0EFF87900E875F003A4A0
:103F9000C8ACF075F000A42CFC75F003E9A42CF972
:103FA000EA28F582EB39F583A3A3D0E0F00F023FB6
:103FB000097F01021F3C74F0121E6A74F4121E1372
:103FC000EAFEEBFF8C088D0990040BE0F8A3E0F902
:103FD000E849702CEE4F6006E50845097005790147
:103FE00002426EEEFAEFFB120C21E9900D8DF0907B
:103FF0000D8DE0C3940A4008120C33E9900D8DF04A
:10400000900D8DE0C3940A400302426C90040BE0D3
:10401000F8A3E0F9E84960030240B8EEFCEFFD7A4E
:104020000E75F006900D8DE0A42420F9120F0FE913
:10403000F50C7C0C7D0079FF851882851983AA8296
:10404000AB831209938A0E8B0F850E0A850F0B85A1
:104050001882851983AC82AD837A0C900D8DE02493
:1040600070F9120F0FE9F50D750E0E750F00780E31
:1040700012207DEEFCEFFD900D8DE0F87900E875E3
:10408000F00EA4C8AAF075F000A42AFA75F00EE9A3
:10409000A42AF9747328FA740339FB12097B740299
:1040A000121E298A0E8B0FA80EA90F90040BE5088B
:1040B000F0A3E509F002426890040BE0F8A3E0C821
:1040C0002406F582E83400F583E0F8A3E0F9E84936
:1040D000604390040BE0F8A3E0C82406F582E834BE
:1040E00000F583E0FCA3E0FD7A1B75F006900D8DD2
:1040F000E0A42421F9120F0FE9F890040BE0F9A3D2
:10410000E0C92406F582E93400F5837400F0A37455
:1041100000F002426890040BE0F8A3E0C8240AF51E
:1041200082E83400F583E0F8A3E0F9E849604390C1
:10413000040BE0F8A3E0C8240AF582E83400F58314
:10414000E0FCA3E0FD7A1B75F006900D8DE0A42441
:1041500022F9120F0FE9F890040BE0F9A3E0C9244B
:104160000AF582E93400F5837400F0A37400F002CC
:10417000426890040BE0F8A3E0C8240CF582E83410
:1041800000F583E0F8A3E0F9E849604390040BE010
:10419000F8A3E0C8240CF582E83400F583E0FCA322
:1041A000E0FD7A1075F006900D8DE0A42423F9123D
:1041B0000F0FE9F890040BE0F9A3E0C9240CF58295
:1041C000E93400F5837400F0A37400F002426890B3
:1041D000040BE0F8A3E0C82408F582E83400F58376
:1041E000E0F8A3E0F9E849606F90040BE0F8A3E081
:1041F000C82408F582E83400F583E0FCA3E0FD7AEA
:104200001075F006900D8DE0A42424F9120F0FE92B
:10421000F50A90040BE0F8A3E0C82408F582E8341E
:1042200000F583E02410FCA3E03400FD7A0475F06F
:1042300006900D8DE0A42425F9120F0FE9F89004E3
:104240000BE0F9A3E0C92408F582E93400F5837492
:1042500000F0A37400F080109003FFE06003120CE4
:1042600087120C6F79018006790080027901740C45
:10427000121E297F08021F3C74F7121E6A74F21284
:104280001E13E9FE851882851983AC82AD837A0EF0
:1042900075F006A42420F9120F15E9700E740C12A3
:1042A0001E5EE0F8A3E0F9E8F980027900740E12CE
:1042B0001E297F01021F3C74F4121E6A74F2121E42
:1042C000138909EAFEEBFFE509C3940A5004EE4F97
:1042D00070047902804B851882851983AC82AD8386
:1042E0007A0E75F006E509A42420F9120F15E9F5F8
:1042F00008E508702A750A06750B00780A12207DF9
:104300007402121E5EAC82AD83EEFAEFFB12097BE3
:104310007402121E298A0A8B0B850A82850B83A9D7
:1043200008740E121E297F04021F3C74F4121E6AC8
:10433000EAFEEBFF750800E508C3940A5045750ACC
:1043400006750B00780A12207DEEFCEFFDE508A84B
:10435000087900E875F00EA4C8AAF075F000A42A48
:10436000FA75F00EE9A42AF9747928FA740339FB76
:1043700012098D7402121E29E96004A9088006053D
:104380000880B4790A7F04021F3C74F4121E6AEAA2
:10439000FEEBFF750800E508C3940A5045750A0650
:1043A000750B00780A12207DEEFCEFFDE508A808E9
:1043B0007900E875F00EA4C8AAF075F000A42AFAF6
:1043C00075F00EE9A42AF9747328FA740339FB1204
:1043D000098D7402121E29E96004A90880060508E7
:1043E00080B4790A7F04021F3C74F7121E6A74F0CD
:1043F000121E13EAFEEBFF750800E508C3940A508D
:104400004B851882851983AC82AD837A1075F006CE
:10441000E508A42423F9120F15E9702C7C1079FF0C
:10442000851882851983AA82AB831209F3E9701873
:10443000EEFCEFFD851882851983AA82AB831210EA
:10444000D7E97004A9088006050880AE790A7410BF
:10445000121E297F01021F3C74F4121E6A750800A7
:10446000E508C3940A400302453AE508A808790024
:10447000E875F00EA4C8AAF075F000A42AFA75F049
:104480000EE9A42AF9747328FC740339FD7A0E75B9
:10449000F006E508A42420F9120F15E9700302457F
:1044A000357C067D0079FFE508AA087B00EA75F0F7
:1044B0000EA4CAA8F075F000A428F875F00EEBA4BD
:1044C00028FB74732AFA74033BFB1209938A0A8B44
:1044D0000BAE0AAF0B7C067D0079FFE508AA087BCE
:1044E00000EA75F00EA4CAA8F075F000A428F875CB
:1044F000F00EEBA428FB74792AFA74033BFB120933
:10450000938A0A8B0BAC0AAD0BE508A8087900E882
:1045100075F00EA4C8AAF075F000A42AFA75F00E82
:10452000E9A42AF9747F28F582740339F5837400AD
:10453000F0A37400F005080244609003FFE06003FC
:10454000120C87120C6F7F04021F3C74F7121E6A54
:104550007E00EEC3940A50327C0679FFEEFA7B00AF
:10456000EA75F00EA4CAA8F075F000A428F875F05A
:104570000EEBA428FB74732AFA74033BFB1209F3B5
:10458000E96004EEF980050E80C8790A7F01021FF8
:104590003C74F7121E6A7E007F00EFC3940A502F0E
:1045A0007C0679FFEFFA7B00EA75F00EA4CAA8F04A
:1045B00075F000A428F875F00EEBA428FB74732A9C
:1045C000FA74033BFB1209F3E970010E0F80CBEE86
:1045D000F97F01021F3C74F7121E6A7E007F00EF14
:1045E000C3940A500DEE700AEFF9120C45E9FE0F64
:1045F00080EDEEF97F01021F3C74F0121E6A74CB4D
:10460000121E138909900D8DE06509701D7A017BDA
:1046100000900357E0F91209D5E97A027B00900374
:1046200057E0F91209D5E9120C937427121E5EACFB
:1046300082AD837A0E75F006E509A42420F9120FE5
:1046400015E960030247657C0679FF7427121E5E38
:10465000AA82AB831209F3E960030247657C0E7DF1
:104660000079FF7427121E5EAA82AB831209938A17
:104670000A8B0B850A0C850B0D7C1B7D0079FF7462
:104680000C121E5EAA82AB831209938A0E8B0F85D1
:104690000E0A850F0B7C0C7D0079FF851882851929
:1046A00083AA82AB831209938A0E8B0FAE0EAF0FD3
:1046B0007427121E5EAC82AD837A0E75F006E50992
:1046C000A42420F9120F0FE9F508740C121E5EAC39
:1046D00082AD837A1B75F006E509A42421F9120F37
:1046E0000FE94208740C121E5EAC82AD837A1B7512
:1046F000F006E509A42422F9120F0FE94208740C10
:10470000121E5EAC82AD837A1075F006E509A42412
:1047100023F9120F0FE94208740C121E5EAC82AD31
:10472000837A1075F006E509A42424F9120F0FE925
:104730004208740C121E5EAC82AD837A0475F006DA
:10474000E509A42425F9120F0FE94208851882858E
:104750001983AC82AD837A0C74702509F9120F0F9E
:10476000E942088003750800A9087435121E297FE4
:1047700008021F3C74F7121E6AE9FE900357F012FC
:104780000C2D7F01021F3C74F2121E6A890AEAFE98
:10479000EBFFEE5400F8EF5480F9E84960359003E0
:1047A00057E0F91209B78A0C8B0DA80CA90D8808DF
:1047B0008909E8496012AA08AB09120C57E9600898
:1047C000AA08AB091209A5E9EE6400FAEF6480FBC0
:1047D00002488BEE5402602D7C007D007A007B0045
:1047E000120C09E960187A017B00900357E0F91276
:1047F00009CFE9EE6402FAEF6400FB02488B7A020B
:104800007B0002488BEEA2E0507D90040BE0F8A301
:10481000E0F5838882A3A3A3E0FAA3E0FB120C8D4A
:10482000E9605E900371E0F8A3E0F9E84960459023
:104830000371E0F8A3E0F5838882A3A3E0F8A3E086
:10484000F9E849602F7C00790190040BE0F8A3E0BF
:10485000F5838882A3A3A3E0FAA3E0FB900371E0B1
:10486000F8A3E0F5838882A3A3E0F8A3E0F58388AA
:1048700082121E68120C93EE6401FAEF6400FB8052
:104880000A7A017B0080047A007B007F06021F3CCD
:1048900074F7121E6AEAFEEBFF7508018E828F83A1
:1048A000E02450601314601924E1701CEEFAEFFB51
:1048B000120BEBE9F5088010EEFAEFFB120C5D80AD
:1048C00007EEFAEFFB120C63A9087F01021F3C748C
:1048D000F7121E6AEAFEEBFF8E828F83A3A3A3A3C7
:1048E000E0641E701179008E828F83A3A3E0FAA387
:1048F000E0FB120BD9E97F01021F3C74F6121E6A1D
:10490000EAFEEBFF8E828F83A3A3A3A3E0703A8E0F
:10491000088F09850882850983A3A3A3A3A3A3A362
:10492000122094850882850983A3A3A3A3A3E0FC96
:10493000A3E0FD850882850983A3A3E0FAA3E0FB39
:10494000120BDF7402121E29E97F02021F3C74F76A
:10495000121E6AEAFEEBFF900357E0F98E828F8306
:10496000A3E0FAA3E0FB12135FE97F01021F3CC042
:1049700082C08374FF121E13120C39E9C3940240E3
:104980000B8518828519837402F080098518828549
:104990001983740AF0851882851983AC82AD837AF5
:1049A0000179051211E5E97401121E29D083D08224
:1049B00002013574F2121E6A74E8121E13EAFEEB4D
:1049C000FF890A8C088D097C187D00790085188282
:1049D000851983AA82AB831209938A0C8B0DAC0CC8
:1049E000AD0D851882851983EEF0A3EFF090035981
:1049F000E0C0E07402121E5ED0E0F090035AE0C006
:104A0000E07403121E5ED0E0F0900D8CE0C0E07404
:104A100017121E5ED0E0F07415121E5EE054FEF810
:104A2000A3E054FFF9900D8BE0A2E0E433FA7B00A1
:104A3000E84AF8E94BF97415121E5EE8F0A3E9F0B4
:104A4000900D8BE0A2E15004D2F08002C2F0741508
:104A5000121E5EE054FDFAA3E054FFFBA2F0E43323
:104A6000F87900C333F8E933F9EA48F8EB49F97407
:104A700015121E5EE8F0A3E9F0900D8BE0A2E35062
:104A800004D2F08002C2F07415121E5EE054F7FAF0
:104A9000A3E054FFFBA2F0E433F50C750D007403A2
:104AA000780C121E00EA450CF8EB450DF97415124E
:104AB0001E5EE8F0A3E9F0900D8BE0A2E45004D272
:104AC000F08002C2F07415121E5EE054EFFAA3E00B
:104AD00054FFFBA2F0E433F50C750D007404780C60
:104AE000121E00EA450CF8EB450DF97415121E5E16
:104AF000E8F0A3E9F0900D8BE0A2E55004D2F0803D
:104B000002C2F07415121E5EE054DFFAA3E054FFF7
:104B1000FBA2F0E433F50C750D007405780C121E41
:104B200000EA450CF8EB450DF97415121E5EE8F02D
:104B3000A3E9F0900D8BE0A2E25004D2F08002C213
:104B4000F07415121E5EE054FBFAA3E054FFFBA2C2
:104B5000F0E433F50C750D007402780C121E00EAB7
:104B6000450CF8EB450DF97415121E5EE8F0A3E94B
:104B7000F090035AE0602A750C10750D00780C1245
:104B8000207D7C5B7D037406121E5EAA82AB8312BD
:104B9000097B7402121E298A0C8B0D850C82850DEF
:104BA0008390036BE06012E50A600E7415121E5EBE
:104BB000E04402F0A3E04400F090036BE06006786C
:104BC0000179008004780079007414121E5EE048B8
:104BD000F0900358E060067804790080047800794A
:104BE000007414121E5EE048F0AC08AD098518820E
:104BF000851983AA82AB831210FBE97418121E294F
:104C00007F06021F3C74F7121E6AEAFEEBFF75086E
:104C10000090036BE06006780179008004780079E9
:104C200000E84208900358E06006780479008004A8
:104C300078007900E84208A908EEFAEFFB1211B5F6
:104C4000E97F01021F3C74EE121E6A74E5121E1306
:104C50008A0C8B0DE9FF8C088D09742D121E5EE005
:104C6000F50A74086509700A75F006EFA42422FE9F
:104C7000800875F006EFA42421FE7C1B7D007900DE
:104C8000851882851983AA82AB831209938A108BB7
:104C90001185100E85110F851882851983AC82ADA0
:104CA000837A1BEEF9120F15E9703C741A121E5E1E
:104CB000E0C394074031741A121E5EE0C394115091
:104CC00026E50AF50B780B1220817401121E5EACEA
:104CD00082AD83E508A2E0E433F9AA0CAB0D121112
:104CE0000D7401121E29E9741B121E297F0A021F6E
:104CF0003C74F7121E6A1213D7E97E00EEC3940AC1
:104D000050557C0679FFEEFA7B00EA75F00EA4CAD6
:104D1000A8F075F000A428F875F00EEBA428FB7439
:104D2000732AFA74033BFB1209F3E97027EEF87952
:104D300000E875F00EA4C8AAF075F000A42AFA7570
:104D4000F00EE9A42AF9747328FA740339FB790088
:104D50001213DDE90E80A57F01021F3C74F6121EBE
:104D60006A74FD121E13EAFEEBFF90040DE0F8A337
:104D7000E0F9E849703975080F75090478081220C0
:104D80007D750802750900780812207D7508B675D2
:104D90000984780812207D7CFF7DFF7A017B001258
:104DA00012277406121E2990040DEAF0A3EBF0906E
:104DB000040DE0F8A3E0F9E8497003024E7DE4F544
:104DC00008F509780812207D7404121E5E85820899
:104DD000858309780812207D7404121E5E8582087E
:104DE000858309780812207D90040F12209479029F
:104DF00090040DE0FCA3E0FDEEFAEFFB12134D74FE
:104E000008121E29E9704A851882851983E0FA7B09
:104E1000007401121E5EE0F87900E4C8F9EA28F592
:104E200008EB39F509E50845096026780812207D68
:104E300090040DE0F8A3E0F5838882A3A3A3A3E088
:104E4000FCA3E0FDEEFAEFFB120BDF7402121E2949
:104E5000E9E4F508F509780812207D90040F122086
:104E6000947CFF7DFF90040DE0FAA3E0FB12123367
:104E70007404121E2990040DEAF0A3EBF090040DC7
:104E8000E0F8A3E0F9E84970047901800279007440
:104E900003121E297F02021F3CC082C08390040BB4
:104EA000E0F8A3E0F9E849601790040BE0FAA3E00A
:104EB000FB1209A5E9F890040B7400F0A37400F04C
:104EC000900D8D740AF0D083D082020135C082C06B
:104ED00083E9901197F002515C74F7121E6AE99011
:104EE00005D7F07C0F7D067AFF7BFF1213659005D6
:104EF000D874FFF0A3F0A3E4F0A3F079051212ED4B
:104F00009005D7E0F912120F7A837B1312152D7FCB
:104F100001021F3C74F4121E6A8A088B09EB54804C
:104F200060309005D7E0F91209B78A0A8B0BAE0AF8
:104F3000AF0BEE4F60138E828F83E064B07003126C
:104F40001305EEFAEFFB1209A5AA08E5096480FB38
:104F500080047A007B0002512B74F2121E6A74FCEA
:104F6000121E13EAFEEBFFEE4F60387402121E5E53
:104F7000EEF0A3EF125390ECF0A3ED125390AA823F
:104F8000AB83121209E9F50870737412121E5E12D7
:104F90005F44E50A450B60658E828F83125007EEF1
:104FA0004F700575080280557A067B00120A118A37
:104FB0000C8B0DA80CA90DE8497005750813803DF0
:104FC00088828983E4125011A3A3EEF0A3EF126349
:104FD000DDE50AF0A3E50BF09005DD125099900590
:104FE000DD6017E0FCA3E08003EAFCEBFD8C828D22
:104FF0008312509970F38C828D83125E69A90874B4
:1050000004121E290265DFA3A3A3A3E0FEA3E0FF11
:1050100022F0A3F0888289832274F2121E6A890A20
:10502000E975F017A4FEAFF09005DCE4F09005DA26
:10503000125099600A120A179005DAE4F0A3F0EE14
:10504000FAEFFB120A118A088B09EA4509602FEE74
:10505000FCEFFD79001209939005DAE508F0A3E56D
:1050600009F07B008008125083E4F0A3F00BEBC33F
:10507000950A40F2E50A9005DCF079008002791388
:105080000265DFEB75F017A4F8A9F09005DAE028C7
:10509000FAA3E0398A82F58322125BFFEA4B22747D
:1050A000F4121E6A750800750900740C121E5E1257
:1050B00063B1FEE9FF800CE5082401F508E5093439
:1050C00000F509C3E5089CE5099D503285080A856D
:1050D000090B7403780A121E00EA250AF8EB350B57
:1050E000F988828983A3A3A3A3A3A3125F44EE65D7
:1050F0000A7003EF650B70BFE8FAE9FB80047A00E1
:105100007B00802774F4121E6A7900EAA2E0501B2B
:105110007508F4750983780812207D7C047D007A77
:10512000997B111212E77402121E297F04021F3CA0
:10513000C082C0839005DD125163601C8882898320
:10514000A3A3E06A7003A3E06B8882898370E8A35D
:10515000A3A3A3125BFB80047A007B00D083D082E0
:105160000201351266B2E8492274EE121E6A74FC1E
:10517000121E13EAFEEBFF851882851983E4F0A363
:10518000F0EE2402125E4DEE240512537EEE24044E
:10519000F50EEF125763E024FE603924FC604624CC
:1051A000FE605224FE605E24FE700302528324FEE1
:1051B00070030252FB24FE700302530A24FE7003A4
:1051C00002531924FC700302532824FE7003025377
:1051D000370253749005F67417F0A3E41253981233
:1051E0000F87025374851882851983AC82AD8312B0
:1051F000130B025344851882851983AC82AD831248
:105200001311025344850C08850D097402121E5EA9
:10521000AC82AD83850882850983125BFB12122D57
:105220008A0C8B0DAC0CAD0DEC4D6042E4F50CF529
:105230000D780C12207D750CF6750D05780C12207A
:105240007D750CF7750D05780C12207D7408121E03
:105250005E1220947916125BF512134D7408121E1B
:1052600029E9F50C700B125BF1120F9F800F750C82
:1052700001850882850983125386125E69850C08B0
:105280000253477402121E5EAC82AD83850C828588
:105290000D83125BFB12122D8A108B11AC10AD1115
:1052A000EC4D6043850C82850D83A3A31220947579
:1052B00010F6751105781012207D7510F77511051F
:1052C000781012207D7408121E5E12209479161236
:1052D0005BF512134D7408121E29E9F509700B12C3
:1052E0005BF1120FA5800F750901850C82850D8376
:1052F000125386125E69850908804C8518828519CB
:1053000083AC82AD83121317803A85188285198386
:10531000AC82AD8312131D802B851882851983AC56
:1053200082AD83121323801C851882851983AC8279
:10533000AD83121329800D851882851983AC82AD47
:105340008312132FE9F508E50860298E828F83A365
:10535000E06414601F850E82850F83E09005F612CD
:1053600053901266AE9005F7125E69E508A31253DA
:1053700098120F81EEFAEFFB1212AB025D55F50C9D
:10538000EF3400F50D221266B2851882851983224A
:10539000F085188285198322F07CF67D05850A82C6
:1053A000850B83125BFF2274EE121E6A74FC121EC0
:1053B000138A0A8B0B8C0E8D0FEA2405F508EB344B
:1053C00000F5097C157D0079007AF67B05120993BA
:1053D000E5082402F50CE509125381851882851928
:1053E00083858210858311781012207D850882853F
:1053F0000983A3A3A3A31258AB12207DE5082405BB
:10540000F510E5093400F511781012207D850C8225
:10541000850D83125C051212277406121E298A104C
:105420008B11AE10AF11E50A2402F50AE50B125EEE
:1054300050EE4F700302556D80177402121E5E12FB
:105440005BFB88828983EAF0A3EBF09005F6E00429
:10545000F09005F6E0C39405400302556DE4F510A5
:10546000F511781012207D7510DF75110578101276
:10547000207D7510E0751105781012207D740612DC
:105480001E5E1220947910EEFCEFFD125BF51213F4
:105490004D7408121E29E9705E850882850983A370
:1054A000A3A3A3A3A3A3E0F89005DFE068704812CC
:1054B00058AB12207D7CE07D05E5082408FAE5095B
:1054C0003400FB12098D7402121E29E960298E82B4
:1054D0008F83A3A3A3A3125BFB9005F6E0F51074E2
:1054E000027810121E0074F72510F582740535112C
:1054F000F583EAF0A3EBF07402121E5E858210853C
:105500008311781012207D7402121E5E1220948581
:105510000C82850D831266C31212337404121E2985
:105520008A108B11AE10AF119005F6E0F5107511D1
:105530000074027810121E0074F62510F8740535F8
:1055400011F988828983A31250997003025431E8BB
:105550002403F8E93400F9EE4F600302543A8882DC
:10556000898374FFF0A3F09005F6E004F09005F64F
:10557000E0600A125BF1120F937900800B850882BC
:10558000850983125E60790A025D5574EA121E6A0B
:1055900074FE121E138C128D13EA2405F50CEB1207
:1055A000682D12500B750800750900EA2402F510E9
:1055B000EB3400F51185188285198385820A85836D
:1055C0000B780A12207D850C82850D83A3A3A3A3EB
:1055D00012576D12207DE50C2405F50AE50D125ECB
:1055E00050780A12207D850C82850D831266C112C7
:1055F00012277406121E298A0A8B0BEA450B7003C8
:1056000002571EEA2404F50EEB12576312500B8A60
:10561000828B83A3A3A3E0F9851082851183125B9B
:10562000FB121215E9F509600302571EE4F514F5A3
:1056300015781412207D7514DF7515057814122065
:105640007D7514E0751505781412207D7406121E00
:105650005E1220947913AC0AAD0B851082851183FC
:10566000125BFB12134D7408121E29E9F509600341
:1056700002571E9005DFE0F8E5087009E02402906B
:1056800005F7F080179005F7E0FCE82402FAE4340F
:1056900000FBEA6C7001EB6003025722850882AAC6
:1056A000821258A2941412589A5073850E82850F54
:1056B00083E0C0E074F82A12575AD0E0F00508855C
:1056C0000E82850F83A3E0C0E085080A74F8250ADE
:1056D00012575AD0E0F005089005DF12576D1220DE
:1056E0007D7CE07D0585080A74F8250AFA74053486
:1056F00000FB12097B7402121E299005DFE02508C9
:10570000F50874FF6E700374FF6F6012EE24010ED3
:10571000EF3400FFE508C3941450030255B5E508C3
:105720006013125AE6851082851183125BFB120FFB
:105730009979008014E509700375090A851282853C
:105740001383EEF0A3EFF0A9097402121E297F0E55
:10575000021F3C85080C74F8250CF5827405340092
:10576000F583223400F50F850E82F583221263F053
:105770002274EE121E6A74FE121E138C0E8D0FEA36
:105780002405F50CEB125381750B009005F6E4F03F
:10579000F50AEA2402F508EB3400F5098049900582
:1057A000F6E0FA9005DFE0F81258A2941712589A22
:1057B000400D9005F6E0F87416C3989005DFF012DE
:1057C00058AB12207D7CE07D0574F72AFA7405340D
:1057D00000FB12097B7402121E299005DFE0F8908D
:1057E00005F6E028F0050AE50C2416F582E50D1211
:1057F000575EE0F8E50AC39840030258839005F627
:10580000E0C39416507DE50AC333F8E433F9E50CA0
:1058100028FEE50D39FF851882851983AC82AD839A
:105820008E828F83125BFB12122D8A108B11AC10AB
:10583000AD11EC4D7005750B018043E4F510F511C9
:10584000781012207D7510DF751105781012207DFB
:105850007510E0751105781012207D7406121E5E19
:105860001220947916850882850983125BFB121336
:105870004D7408121E29E9F50B700302579E125E43
:105880005C80107CF67D05850882850983125BFBB0
:10589000120FABA90B7402025D57E99400C365D0E7
:1058A0003322EA28F8E43400F9E822E0F510751113
:1058B0000078102274EA121E6A74FC121E138A0CFD
:1058C0008B0D8C128D13EA2405F50AEB125E5075D0
:1058D0000800750900E50A2402F510E50B3400F50F
:1058E000117402121E5E85820E85830F780E1220BF
:1058F0007D850A82850B83A3A3A3A312639C122038
:105900007DE50A2405F50EE50B3400F50F780E123F
:10591000207D851082851183125E56125BF512126E
:10592000277406121E298A0E8B0FAE0EAF0FE50CE0
:105930002402F50EE50D3400F50F8040888289833E
:1059400074FFF0050812575374FFF005089005DF47
:10595000E0F50C750D00780C12207D7CE07D05854E
:10596000080C74F8250CFA74053400FB12097B74DA
:1059700002121E299005DFE02508F508EE4F607140
:105980008E828F83A3A3A3E0F9850E82850F8312F5
:105990005BFB121215E9F509EE240412537EE9703F
:1059A00044E4F514F515781412207D7514DF75158F
:1059B00005781412207D7514E075150578141220F1
:1059C0007D7408121E5E1220947911EEFCEFFD85A5
:1059D0000E82850F83125BFB12134D7408121E2971
:1059E000E9F5096027850C82850D83125ADC125E69
:1059F00069E5087003025AC2125AE6850E82850FC5
:105A000083125BFB120FB17900025AD7850882AA74
:105A100082EA9005DF7009E024049005F7F0802207
:105A2000E0F89005F7E0F514E82404FCE43400FD08
:105A3000EC65147001ED70C01258A2941212589ABD
:105A400050B6850C82850D83E0C0E074F82A1257A9
:105A50005AD0E0F00508850C82850D83A3E0C0E0F4
:105A6000125753D0E0125AF885820C85830D780CBA
:105A700012207D7404121E5E1220948510828511FE
:105A8000831266C31212337404121E298A0C8B0D02
:105A9000AE0CAF0D85080C74F8250CF874053400B5
:105AA000F9EE4F700302593C851882851983E0880E
:105AB000828983125AF8A3E0C0E0125753D0E00263
:105AC000594AE509700375090A850A82850B831214
:105AD0005ADC125E69A909740402574B1266B2853A
:105AE0001282851383229005F7E0F5F0E508849093
:105AF00005F6F07CF67D0522F005088518828519EB
:105B0000832274EC121E6A74FE121E138A088B091B
:105B10008C0E8D0FEA2405FEEB3400FF851882857C
:105B20001983AC82AD838E828F83125BFB12122DA0
