:020000040000FA
:0600000002011D022AEBC3
:03002B000223AB02
:0300330002238322
:03005300022B5E1F
:03006B0002232A43
:03007B000223520B
:10008300022957E5C754F84401F5C7790122000056
:100093000080FB120086B90003020107E47921788E
:1000A30008B800028004F709D8FCE479297802B87B
:1000B30000028004F709D8FCE490028178F0790803
:1000C3008002F0A3D8FCD9FA781A90014D7A01BACC
:1000D30000028007E493A3F608DAF9900A70AA8273
:1000E300AB8390014E785079098015E493A3AC82D9
:1000F300AD838A828B83F0A3AA82AB838C828D83A8
:10010300D8E9D9E77582C475839C740412012F75ED
:100113008291758300740012012F75D00075813FA1
:10012300751881751902759F00020096C09FF59F8F
:10013300E473D09F22D083D082C09FE493C0E07445
:100143000193C0E0740293F59F22019D09A309A9BD
:1001530009AF09B509BB09C109C709CD09D309D934
:1001630009DF09E509EB09F109F70968FFFF037BDB
:10017300034CCD6C03AB0336567600680402CB47C1
:10018300A202180400058BC1010C04000000000347
:100193007F060CC92C979797038903264666006C44
:1001A300022000024004000000000244040000009A
:1001B3000002480400000000024C0400000000029A
:1001C3005004000000000254040000000002580420
:1001D30000000000025C040000000002BC040000F8
:1001E300000001EC0400004000037F060CC92C97BB
:1001F30097970402030D355D040904872D353D00EF
:10020300A3010000000001078601FE074105F1205C
:10021300283038077E01300746019A074704F12842
:100223003038076C04F1283038021602000101B29D
:1002330002FFFF0190040923A135016A02060001B0
:10024300600800000000000000000060044000009F
:10025300000162020000006004004000000B095628
:10026300756C7475726545676705122F013F01024E
:100273000A00020106030288FF45676700D007E80A
:1002830003E8037011E803E803D00760EA2A007962
:100293000C0000B50CBB0CC10CC70CCD0C12416398
:1002A30063656C2E2044617461000A416363656C6D
:1002B3002E20436F6E662E000A0A416363656C2E1F
:1002C30020506572696F640002C68A010000F48BD6
:1002D300021A8C010000C20B10F8890100004303CD
:1002E30002208C0300004603021E8C010000C30B96
:1002F300021A8C010000CF0B10088A0300004C0384
:10030300021E8C010000D00B021A8C010000DD0BD1
:1003130010188A030000DE0B021E8C010000DF0BA5
:10032300124261726F6D2E2044617461000A426152
:10033300726F6D2E20436F6E662E00024261726FE4
:100343006D2E2043616C6962722E000A0A4261724B
:100353006F6D2E20506572696F640002C68A0100BA
:1003630000158C021A8C010000450C10488A01000C
:10037300004D0302208C0300005103021E8C010078
:1003830000460C021A8C010000520C10588A03001C
:10039300005703021E8C010000530C021A8C01004B
:1003A30000700C10788A030000710C021E8C01008F
:1003B30000720C021A8C010000600C10688A0100A4
:1003C30000580302208C0300006803021E8C010006
:1003D30000610C12436F6E6E2E20506172616D735B
:1003E3000008436F6E6E2E20506172616D73205250
:1003F30065710008446973636F6E6E6563742052A0
:1004030065710002C68A010000F78B021A8C010095
:1004130000F80C10888A010000700302208C03008E
:10042300007603021E8C010000F90C021A8C0100F5
:1004330000060D10288A0200007C03021E8C0100B6
:1004430000070D021A8C010000180D10D889020054
:10045300008403021E8C010000190D0202023132D6
:100463003334353637383930313200020202020272
:1004730002010D000000100102C68A010000098C70
:10048300021A8C010000800D02428C0100008503DA
:10049300021A8C010000810D02408C010000748B54
:1004A300021A8C010000820D023E8C010000830DB4
:1004B300021A8C010000910D02388C010000368B6A
:1004C300021A8C010000920D02348C010000A18BF2
:1004D300021A8C010000900D022A8C0100003E8B51
:1004E300021A8C010000930D02288C010000D987A9
:1004F300021A8C010000940D02268C010000A88AC8
:10050300021A8C010000950D02228C010000960D49
:1005130012447331386232302E2044617461000A10
:10052300447331386232302E20436F6E662E000AD8
:10053300D007447331386232302E20506572696FB0
:10054300640002C68A0100000C8C021A8C010000B0
:10055300350E10A8890100008F0302208C030000D0
:100563009103021E8C010000360E021A8C0100005A
:10057300440E1098890300009703021E8C010000AB
:10058300450E021A8C010000540E108889030000E6
:10059300550E021E8C010000570E01E803053F10A3
:1005A3000A124779726F2044617461000A477972B5
:1005B3006F20436F6E662E000A0A4779726F2050D0
:1005C3006572696F640002C68A010000F18B021A2A
:1005D3008C010000C60E106889010000520402203D
:1005E3008C0300005804021E8C010000C70E021A7F
:1005F3008C010000D10E1058890300005E04021E16
:100603008C010000D20E021A8C010000DD0E10488E
:1006130089030000DE0E021E8C010000DF0E0300C2
:1006230080700061801248756D69642E2044617486
:1006330061000A48756D69642E20436F6E662E0053
:100643000AD00748756D69642E20506572696F641E
:100653000002C68A010000FD8B021A8C0100004AC9
:100663000F102889010000C10402208C030000C57B
:1006730004021E8C0100004B0F021A8C010000576C
:100683000F101889030000CB04021E8C01000058D0
:100693000F021A8C010000650F1008890300006621
:1006A3000F021E8C010000680F1254656D702E201E
:1006B30044617461000A54656D702E20436F6E6649
:1006C3002E000A1E54656D702E20506572696F648A
:1006D3000002C68A0100000F8C021A8C010000CEB2
:1006E3000F10E888010000CC0402208C030000D026
:1006F30004021E8C010000CF0F021A8C010000DAE5
:100703000F10D888030000D604021E8C010000DB02
:100713000F021A8C010000E70F10C889030000E8DC
:100723000F021E8C010000E90F124D61676E2E202F
:1007330044617461000A4D61676E2E20436F6E66DB
:100743002E000A0A4D61676E2E20506572696F6430
:100753000002C68A010000128C021A8C0100004EAE
:100763001010A888010000D70402208C030000DDCC
:1007730004021E8C0100004F10021A8C0100005A63
:1007830010109888030000E304021E8C0100005B34
:1007930010021A8C0100006710108888030000689B
:1007A30010021E8C0100006910124D707536303531
:1007B300302E2044617461000A4D70753630353037
:1007C3002E20436F6E662E000AC8004D70753630BA
:1007D30035302E20506572696F640002C68A0100AD
:1007E30000068C021A8C010000CE101068880100EC
:1007F30000E60402208C030000F404021E8C0100B6
:1008030000CF10021A8C010000DD1010588803007D
:1008130000FA04021E8C010000DE10021A8C010093
:1008230000ED10104888030000EE10021E8C01003A
:1008330000F010FF00013075030201060000000004
:1008430000000000000000000000000000000000A5
:100853000000000000000000FFFF0600800CE8031A
:10086300104B6579205072657373205374617465FE
:100873000002C68A010000038C021A8C0100008565
:1008830011022E8C000000AA0502208C030000AB8D
:1008930005021E8C0100008611FF0000B400002831
:1008A300002800283075A000A000A000A0000008C8
:1008B3000008E001F000100010001000100010000C
:1008C300100050005000500010001000D00700002E
:1008D300000000000F000100050030750700100044
:1008E300010081FF00000000FFD912F712DF12FFA1
:1008F30002020208025000A0000000E80302C68AB8
:10090300010000008C021A8C010000151202248CD5
:10091300010000E305021A8C010000161202308C5C
:10092300010000F905021A8C010000171202368C2F
:10093300010000FB05021A8C0100001812023C8C16
:10094300080000FC05021A8C010000191202488CF1
:100953000100001A12FF0100FF2002C68A010000F5
:10096300FA8B021A8C0100007E1202468C000000F2
:10097300000002208C0300004906AF18AF18AF181F
:10098300AF18AF18AF18AF18AF18AF18AF18AF182C
:10099300AF18AF18431B5B1B3D1B1201384AB3034F
:1009A30012013896B303120138ECB30312013891E4
:1009B300B40312013845B50312013864B5031201BB
:1009C3003883B503120138B1B503120138E4B50316
:1009D3001201385DB603120138E3B60312013883FE
:1009E300B70312013848B8031201387AB803120169
:1009F30038AFB803120138DDB803120138D6EE025E
:100A0300120138F5EE0212013818EF021201383FD5
:100A1300EF0212013866EF021201388DEF02120164
:100A230038B4EF02120138D7EF02120138FAEF029D
:100A33001201381DF00212013840F002120138721F
:100A4300F00212013895F002120138BFF0021201D0
:100A5300385BF10212013880F102120138A5F1026C
:100A6300120138CAF102120138EFF10212013814EF
:100A7300F20212013839F20212013860F202120155
:100A8300389EF202120138CAF202120138F6F2025B
:100A93001201381BF30212013854F3021201387B9E
:100AA300F302120138B4F302120138DBF30212012C
:100AB3003814F4021201383BF40212013860F402D4
:100AC30012013885F402120138C3F402120138E628
:100AD300F40212013810F502120138EFF502120187
:100AE3003897F702120138E7F70212013814F902B6
:100AF30012013833F90212013856F9021201380C87
:100B03009D03120138219D03120138799D031201BF
:100B130038E09D03120138289E031201389E9E037C
:100B2300120138CD9E03120138DB9E031201383FB8
:100B33009F031201387D9F03120138989F0312010E
:100B43003830A003120138D9A0031201385CA10385
:100B530012013895A10312013820A203120138773C
:100B6300A203120138D6A203120138E8A20312012C
:100B7300380EA30312013817A30312013876A40316
:100B8300120138B98D04120138988E04120138CB42
:100B9300F70312013810F80312013856F803120153
:100BA30038E9F9031201385D950412013878950488
:100BB300120138889504120138DF950412013813A5
:100BC3009B0412013879F90212013899F9021201D2
:100BD300389DFA02120138E9FA0212013809FB02C0
:100BE3001201385CFB02120138C9FB021201380FF3
:100BF300FC0212013873FC0212013825FF021201B4
:100C030038008004120138308004120138608004F7
:100C13001201382381041201387D81041201382A1C
:100C230085041201384285041201389F850412019C
:100C330038E385041201381586041201384C860402
:100C43001201386F8604120138243200120138B6BB
:100C530038001201387D390012013883390012013E
:100C630038033C001201382143001201384C430081
:100C730012013852440012013884440012013884AE
:100C83004600120138BB4600120138FB480012012E
:100C9300380D4D00120138444D001201380E4E003C
:100CA300120138454E001201387C4E00120138B350
:100CB3004E00120138E54E00120138644F00120154
:100CC30038E64F001201386C50001201383F5100D2
:100CD300120138CC5100120138915200120138E44C
:100CE30096041201385A910412013870D503120187
:100CF30038C3D503120138E0D503120138B5D60342
:100D030012013832D7031201380FD8031201388485
:100D1300D90312013837BE031201385CBE03120136
:100D230038BABE03120138CEDD0312013821DE03C7
:100D33001201384ADE03120138B3DE03120138F11F
:100D4300DF03120138ABE103120138B69B04120131
:100D530038ED5200120138FB5500120138BB570021
:100D63001201386658001201380A5900120138A3DB
:100D73005900120138D25900120138AC5E00120139
:100D830038575F00120138C760001201382F610025
:100D9300120138E36100120138A56400120138E43E
:100DA3006400120138586500120138B7650012015A
:100DB300381666001201388566001201387867001C
:100DC300120138BE67001201380368001201382689
:100DD3006800120138A16900120138B469001201D8
:100DE30038BD6A00120138FC6A00120138286B0012
:100DF3001201387B6B001201389C6B00120138E042
:100E03006B00120138326E00120138736E0012014A
:100E1300381E6F00120138896F00120138C6700046
:100E2300120138069904120138949304120138749C
:100E330094041201382B96041201384996041201C6
:100E430038D29604120138FF9D041201382E900403
:100E53001201383E90041201384F900412013854A5
:100E630091041201386EEF0312013814F0031201DA
:100E73003830F2031201382DFA031201388FFA03C6
:100E830012013807FB03120138AFFB03120138CEFE
:100E9300FB03120138DEFB031201381DFC031201B0
:100EA30038168B04120138508B04120138C38B049B
:100EB300120138FD8B041201380F8C0412013846DD
:100EC3008C041201388A8304120138D98304120175
:100ED300380B84041201389C8404120138188504E9
:100EE3001201384688041201386F880412013898B9
:100EF3008804120138588904120138A9890412019F
:100F030038B98604120138EC860412013868870464
:100F1300120138888704120138ED8704120138352D
:100F23008804120138388804120138E8FF031201DB
:100F330038FAFF03120138FDFF03120138F48E045F
:100F4300120138438F041201386F8F041201388F56
:100F53008F041201381C90041201386A8C041201A8
:100F630038BB8C04120138028D041201388C8D04B5
:100F7300120138F87F001201381EF50312013815EB
:100F8300F70312013881F703120138C8F70312017E
:100F93003805FB0112013858FB0112013881FB01AE
:100FA3001201383FFC01120138A8FC01120138E696
:100FB300FD01120138A0FF011201389A97041201B2
:100FC30038509804120138B4D90312013807DA03F0
:100FD30012013830DA0312013899DA03120138D7D3
:100FE300DB0312013891DD031201382FFC031201D8
:100FF3003898FC0312013856FD03120138D5FD035E
:101003001201384FE90312013881E90312013889CB
:10101300EA03120138AEEB03120138008003120118
:1010230038E68003120138338103120138768103D5
:10103300120138EB81031201384C8203120138C1CB
:1010430082031201389D8303120138A8840312011D
:1010530038298503120138D08603120138668703C5
:10106300120138D987031201385588031201386CED
:101073008803120138A38903120138FD8903120181
:1010830038D8E70112013870EC0112013844EF013E
:101093001201386DEF0112013884EF01120138ADEE
:1010A300EF011201385FF00112013845F20112011C
:1010B3003880F301120138B6F801120138EFF80154
:1010C30012013833F90112013845FA011201383897
:1010D3009D04120138BC99041201382EFE0312013B
:1010E3003845FE0312013876FE03120138B1FE03C0
:1010F300120138DBFE0312013805FF031201381C0D
:10110300FF0312013833FF031201384AFF031201B0
:101113003873FF0312013886FF031201389CFF0363
:10112300120138AFFF03120138D6FF0312013869E9
:101133008A031201386D8B03120138A58B03120148
:1011430038C88B03120138D38B03120138F68B0393
:10115300120138058D03120138DA8D031201385557
:101163008E03120138DD8E03120138188F0312012A
:10117300384F8F03120138DD8F03120138B6900305
:10118300120138169103120138219103120138A07C
:101193009103120138A39103120138A6910312019E
:1011A30038359203120138389203120138689203DA
:1011B30012013892920312013880930312013832DC
:1011C300940312013850C30312013878C303120188
:1011D30038A6C303120138DDC3031201383BC4032D
:1011E30012013886C403120138D1C4031201381125
:1011F300C50312013857C50312013885C50312010F
:101203003842C6031201384CC60312013859C603CB
:101213001201388CC60312013858C703120138640F
:10122300C7031201387CC70312013886C7031201B2
:1012330038869404120138949404120138AC94044F
:10124300120138C49404120138FA7000120138A64E
:101253007100120138217200120138427300120129
:10126300387E73001201382774001201380E75009E
:10127300120138727600120138C976001201384A19
:1012830077001201383A780012013887780012018A
:10129300380D79001201383F7900120138537B0071
:1012A300120138957B00120138B37B0012013836E6
:1012B3007C001201380A7D00120138D27D00120130
:1012C3003827AC03120138FAAC03120138A3AD037B
:1012D300120138F6AD03120138A6AE0312013832FB
:1012E300AF031201381EB0031201384DB0031201CF
:1012F3003860B103120138A8B1031201387DB2037B
:10130300120138B9B203120138D5B20312013840C1
:101313009C04120138B6E503120138CCE50312012F
:1013230038F2E5031201380EE70312013818E70318
:101333001201384DE80312013845E9031201381050
:10134300B90312013840BA0312013873BA03120108
:1013530038BDBA0312013884BC031201380080027D
:101363001201386A8002120138C98102120138D988
:1013730081021201380682021201385D82021201D3
:10138300380683021201380D8402120138D7840211
:101393001201383786021201387A86021201381F89
:1013A30087021201386C87021201389287021201F8
:1013B30038A08902120138A58902120138AA8B02CA
:1013C300120138F78B021201386A8C021201389D20
:1013D3008C021201383F8D02120138E88D0212018E
:1013E30038208E02120138238E021201386B8E02CE
:1013F300120138AB8E02120138028F021201384BF0
:10140300F20312013863F203120138ABF203120143
:1014130038C1F20312013808F3031201381CF40334
:10142300120138A9F403120138F4F4031201384D00
:101433008C01120138598C01120138948C0112016C
:1014430038D98C01120138998D011201381F8E0190
:10145300120138848E01120138B08E01120138E96D
:101463008E011201382791011201380B93011201E9
:1014730038F194011201383496011201388298012F
:10148300120138949901120138DF9A01120138EFE1
:101493009B011201380C9C01120138479C01120177
:1014A30038699C01120138CC9C011201388DA101CD
:1014B30012013822A20112013873A2011201389AD3
:1014C300A201120138ECA2011201380AA301120190
:1014D3003864A3011201384DA401120138C3A501D8
:1014E30012013847A6011201380DC803120138173B
:1014F300C8031201385AC80312013875C803120110
:101503003805C9031201382DC9031201386AC9030A
:10151300120138A1C903120138CAC9031201383FA5
:10152300CA0312013854CA0312013869CA031201EB
:10153300389ACA03120138AECA03120138D3CA0358
:101543001201380DCB0312013839CB031201387164
:10155300CB03120138F0CB0312013839CC0312014B
:101563003863CC031201388ECC031201387B92040A
:10157300120138D5D60212013803D70212013851AD
:10158300D80212013831D90212013850D90212019E
:1015930038CDD90212013810DA0212013866DB02A3
:1015A30012013827DC02120138AEDE021201384F75
:1015B300DF0212013845E00212013842E102120152
:1015C300389CE20212013827E302120138BB890476
:1015D300120138248A04120138788A041201389FD0
:1015E3008A04120138D08A04120138B6CC031201DE
:1015F3003823CD031201386ACD0312013882CE039A
:101603001201387ECF0312013861D003120138A3CF
:101613009403120138E59403120138B795031201BC
:10162300389096031201388A97031201386C980395
:10163300120138D598031201388B9903120138FF30
:1016430099031201386B9A03120138949A03120119
:10165300380E9B03120138A79B031201380C9C031D
:10166300120138219C03120138679C031201388050
:101673009C03120138E59C03120138E89C03120114
:101683003875EC031201389DEC03120138DBEC03CF
:1016930012013899ED0312013800EE031201381CD0
:1016A300EE0312013844EE0312013874EE03120103
:1016B3003883EE0312013800EF0312013826EF03DB
:1016C300120138EF8F02120138CD9102120138FF57
:1016D30093021201383B94021201386894021201FA
:1016E300385295021201389D9502120138E895028D
:1016F300120138FA95021201383A96021201386F34
:101703009602120138BD9602120138EC96021201BC
:10171300380F97021201385C9702120138E19702E1
:10172300120138FB99021201383A9C021201387BEC
:101733009C021201381D9E021201385E9E021201A4
:1017430038D19E02120138279F02120138C0C90204
:10175300120138BECA0212013857D1021201387879
:10176300D30212013843D502120138ABD60212015B
:1017730038AEA6011201385DA7011201388AA7010C
:10178300120138D0A70112013810A901120138A69D
:10179300AA0112013820AB011201383BAB0112013F
:1017A30038B6AB0112013810AD0112013870AE0129
:1017B30012013876AF01120138D7B001120138F0A7
:1017C300B0011201384EB1011201383CB2011201CD
:1017D300386FB201120138DFB20112013859B30177
:1017E300120138A3B3011201386DB401120138425A
:1017F300B50112013821B601120138ACB60112014C
:10180300381AB7011201388EB701120138B9B7017E
:1018130012013878B801120138DDB901120138FA22
:10182300B90112013819BA011201380ABB011201B8
:10183300382FBB0112013859BB01120138D4BB0147
:101843001201382EBC0112013897BD01120138452F
:10185300BE0112013886BE01120138ECBB0212012F
:10186300383ABC0212013846BC0212013824BD02C8
:1018730012013855BD0212013886BD021201380625
:10188300BE021201383EBE0212013890BE0212019E
:1018930038CDBE02120138EAC00212013810C30269
:1018A300120138FBC402120138E5C60212013819CD
:1018B3003200120138C5D301120138F5D3011201E8
:1018C30038CEDA0112013853DC0112013850E2013B
:1018D30012013838E30112013875E3011201389817
:1018E300E301120138C9E301120138D2E301120105
:1018F30038DCE301120138CAE401120138C0E50102
:10190300120138B6BE01120138B5C201120138BB4B
:10191300C201120138F6C9011201380FCF011201B9
:1019230038E8E1031201387EE20312013894E2033E
:101933001201380AE3031201387EE303120138BCB3
:10194300E30312013830E403120138A9E40312015E
:1019530038B2E403120138BEE403120138D3E403BE
:1019630012013811E50312013827E5031201388605
:10197300E50312013823D10312013830D1031201D8
:10198300384AD10312013889D103120138C7D10370
:101993001201382CD20312013841D2031201384C00
:1019A300D20312013859D20312013870D203120143
:1019B300387ED20312013889D20312013895D2033B
:1019C300120138A4D203120138AFD203120138D264
:1019D300D20312013879D30312013889D3031201D8
:1019E30038A3D303120138C0D303120138DCD30365
:1019F30012013801D4031201380CD4031201382127
:101A0300D40312013835D40312013896D4031201DA
:101A1300389CD403120138A2D403120138A8D4038A
:101A2300120138C0D403120138F3D403120138C2AF
:101A3300AD0212013846AE02120138F5AE021201B0
:101A43003854B00212013875B20212013861B30280
:101A530012013896B302120138B8B3021201386783
:101A6300B4021201385FB60212013888B6021201BD
:101A7300381AB7021201384CB70212013859B702AB
:101A8300120138B0B702120138D6B7021201384337
:101A9300BA0212013846BB021201389EBB02120180
:101AA30038519F021201385BA00212013842A10291
:101AB3001201384CA1021201386EA1021201387AC8
:101AC300A10212013813A30212013842A302120128
:101AD300385EA402120138B7A4021201381DA6020F
:101AE300120138FCA60212013858A702120138C5A8
:101AF300A70212013800A8021201383FA8021201FE
:101B030038F8AA0212013812AB021201389EAB0256
:101B1300120138ACAB0212013805AC0212013813C2
:101B2300AC0212013886AC02120138EAAC0212018F
:101B33003834AD02120138A8E302120138CAE302B5
:101B4300120138F0E50212013805E9021201381DCD
:101B5300EA02120138D0EA02120138B2EB02120192
:101B630038E581041201380A82041201387C8204A8
:101B7300120138ADA403120138B6A403120138BF11
:101B8300A40312013896A50312013847A7031201D3
:101B9300387DA703120138B7A703120138EDA70355
:101BA30012013827A8031201385BA80312013887F2
:101BB300A803120138D0A8031201380AA90312019D
:101BC3003853A903120138ABA903120138E0A90362
:101BD3001201383BAA0312013875AA03120138C651
:101BE300AA03120138FCAA0312013836AB0312010F
:101BF3003864AB0312013887AB03120138689A04C7
:101C0300120138949A04120138EF9A04120138F938
:101C13009A04120138099B04120138A6FF0212012B
:101C230038D39D041201389D9D04120138DDFF0154
:101C3300E066701008A3E066700A08A3E06670040B
:101C430008A3E06622C3E7960809E7960809E79622
:101C53000809E79622C3E09608A3E09608A3E09656
:101C630008A3E09622C008C3E096F50808A3E0960F
:101C7300420808A3E096420808A3E09645087001CD
:101C8300D3D00822080808EAC0E0EBC0E086F0E7FA
:101C9300A4FA180986F0E7A42AFA180986F0E7A43B
:101CA3002AFA180986F0E7A42AFA1986F0E7A4FBB2
:101CB300E5F02AFA190886F0E7A42BFBE5F03AFAD7
:101CC300190886F0E7A42BFBE5F03AFA1818098601
:101CD300F0E7A4C5F02BFBE43AFA1908E7C5F0C610
:101CE300A426F6E5F03BFBE43AFA1886F0E7A4F6FF
:101CF300E5F00826F6E43B08F6E43A08F6D0E0FB04
:101D0300D0E0FA22E4CFC0E0E4CEC0E0E4CDC0E00E
:101D1300E4CCC0E075F020C3E633F608E633F608FA
:101D2300E633F608E633F6181818EC33FCED33FD0A
:101D3300EE33FEEF33FFC3EC9709ED9709EE9709F6
:101D4300EF97191919400FFFEC97FC09ED97FD095F
:101D5300EE97FE191906D5F0BEECF709EDF709EE7B
:101D6300F709EFF7191919D0E0FCD0E0FDD0E0FE38
:101D7300D0E0FF226016080808C6C313C618C613AE
:101D8300C618C613C618C613C6D5E0EA22700908DA
:101D93000808226016181818C6C333C608C633C607
:101DA30008C633C608C633C6D5E0EA22E627F608D6
:101DB30009E637F60809E637F60809E637F622E0BA
:101DC30026F608A3E036F608A3E036F608A3E036C5
:101DD300F622E026F008A3E036F008A3E036F00888
:101DE300A3E036F022C3E697F60809E697F608095A
:101DF300E697F60809E697F622C3E096F008A3E013
:101E030096F008A3E096F008A3E096F022E657F6D2
:101E13000809E657F60809E657F60809E657F622D1
:101E2300E056F608A3E056F608A3E056F608A3E04A
:101E330056F622E056F008A3E056F008A3E056F069
:101E430008A3E056F022E0F608A3E0F608A3E0F6C4
:101E530008A3E0F622E6F008A3E6F008A3E6F008FC
:101E6300A3E6F022E0FAA3E0FBA3E0FCA3E0FD225B
:101E7300EAF0A3EBF0A3ECF0A3EDF022CAC0E0E696
:101E8300F0A308DAFAD0E0FA22CAC0E0E0A3C582E0
:101E9300CCC582C583CDC583F0A3C582CCC582C51D
:101EA30083CDC583DAE6D0E0CA22C3E498F8E49987
:101EB300F9121EEE8026C3E49AFAE49BFBE920E7BD
:101EC300E9121EEEE498F8E499F922C3E498F8E4E1
:101ED30099F9121EEEE498F8E499F9C3E49AFAE446
:101EE3009BFB22EB20E7CFE920E7E0B90010BB0022
:101EF30008E88AF084F8AAF022E4FBC8FA22EB701F
:101F0300227B10C833C8C933C9335007C39AC3DB14
:101F1300F280069A50012ADBEAC833F4C8C933F4C5
:101F2300C9FA2275F008E4C833C8C933C933C99A5A
:101F3300C99B5004C92AC93BD5F0ECFBC833F4C88C
:101F4300E4C9FA22600D08C6A2E713C618C613C671
:101F5300D5E0F322600C08C6C313C618C613C6D552
:101F6300E0F422700422600D18C6C333C608C633DA
:101F7300C6D5E0F41822251810AF08F5184002154D
:101F8300198008F51840021519D2AF22C0D02518C0
:101F930010AF08F518500205198008F5185002050E
:101FA30019D2AFD0D0222518F58210AF08F518400A
:101FB3000215198008F51840021519D2AF85198347
:101FC300222518F582E43519F58322E4732518C513
:101FD30082C0E0E51934FFC583C0E0E518C39582EC
:101FE30024F810AF08858319858218800885831922
:101FF300858218D2AFCEF0A3E520F0A37808E608D7
:10200300F0A3DEFAEFF0A3E58124FAF8E608F0A3E3
:10201300E608F0A3E608F0A30808E608F0A3E6083C
:10202300F0A315811581D0E0FED0E0F8158115816C
:102033001581E8C0E0EEC0E0222518C582C0E0E5C6
:102043001934FFC583C0E0E518C3958224F910AFA6
:10205300088583198582188008858319858218D29B
:10206300AFCEF0A3E520F0A37808E608F0A3DEFAEC
:10207300EFF0A3E58124FBF8E608F0A3E608F0A35C
:102083000808E608F0A3E608F0A315811581D0E05F
:10209300FED0E0F815811581E8C0E0EEC0E02285AE
:1020A3001983851882E0A3FEE0A3F5207808E0A356
:1020B300F608DFFAE0A3FFE0A3C0E0E0A3C0E0E09E
:1020C300A3C0E0E0A3C0E0E0A3C0E010AF088582B6
:1020D300188583198008858218858319D2AFD08328
:1020E300D082020135851983851882E0A3FEE0A31F
:1020F300F5207808E0A3F608DFFAE0A3FFE0A3C029
:10210300E0E0A3C0E0E0A3C0E0E0A3C0E010AF08BC
:102113008582188583198008858218858319D2AF33
:10212300D083D08222C0D02518C582C0E0E51934FF
:10213300FFC583C0E0E518C3958224F310AF08857B
:1021430083198582188008858319858218D2AFC8C0
:10215300F0A3E9F0A3EAF0A3EBF0A37908E709F011
:10216300A3D8FAECF0A3EDF0A3EEF0A3EFF0A3D025
:10217300E0F0A3D0E0F0A3D0E0F0A3E520F0A3E5E6
:10218300F0F0A322851983851882E0C0E0A3E0F96B
:10219300A3E0FAA3E0FBA37808E0F608A3DFFAE0E4
:1021A300FCA3E0FDA3E0FEA3E0FFA3E0C0E0A3E007
:1021B300C0E0A3E0F5D0A3E0F520A3E0A3F5F01081
:1021C300AF0885831985821880088583198582184D
:1021D300D2AFD082D083D0E0F8D0E032740480064E
:1021E300740280027401C0E0F404121FA9D0E0124B
:1021F3001E7F227404800474028000CCC0E0EDC012
:10220300E0E518C39CCCAD1950011D10AF068C1826
:102213008D1980068C188D19D2AF121E8CD0E0FD5B
:10222300D0E0FC22D083D082E9C0E0E493A3C3864C
:10223300F0C5F095F0F908E493A386F0C5F095F0A6
:10224300700BE493A3C3994005E9048002A3E475EA
:10225300F002A42582F582E5F03583F583D0E0F919
:10226300E493A3C0E0E493C0E022D083D082ECC027
:10227300E0EDC0E0E493A3FCE493A3FDED4C600D1B
:102283001222B9EC24FFFCED34FFFD80EFE493A3AD
:10229300FCE493A3FDED4C600D1222F8EC24FFFC4B
:1022A300ED34FFFD80EFD0E0FDD0E0FCE493A3C06C
:1022B300E0E493C0E022C0E0C3E493960874019382
:1022C3009618400FE49366700808740193661870BB
:1022D300007019A3A3C3E49396087401939618A3FB
:1022E300A3400DD0E0D0E0D0E00222A9A3A3A3A392
:1022F300A3A3D0E022C0E0C0F088F0E493667008A6
:102303000874019366187000A8F0A3A3700BD0F0B3
:10231300D0E0D0E0D0E00222A9A3A3D0F0D0E02205
:10232400C2AF02000022C0E074F2122128A2AFE47E
:1023340033FED2AFE589A2E05003120F197589006C
:10234400C2C5EEF8EEA2E092AF7F01022187C0E0A1
:1023540074F2122128A2AFE433FED2AFE58AA2E6DA
:102364004006E58AA2E75003120F19758A00758AA0
:1023740000C2EBEEF8EEA2E092AF7F01022187C02B
:10238400E0C0D0E8C0E0E9C0E0A2AFE433F8D2AFE7
:10239400758B00C2E8E8F9E8A2E092AFD0E0F9D08A
:1023A400E0F8D0D0D0E032C0E0C0D0E8C0E0E9C06E
:1023B400E0A2AFE433F8D2AFC2C7751A00E8F9E877
:1023C400A2E092AFD0E0F9D0E0F8D0D0D0E03274FF
:1023D400F512203CEAFEEBFFEE2434F8EF3400F96A
:1023E40088088909EE2435F582EF3400F583E0F896
:1023F400EE2437F582EF3400F583E0F50AEC850A24
:10240400F0A4FCAAF0850AF0EDA42AFDE82CF8E477
:102414003DF97A257B00121EEEEA85088285098340
:10242400F0F8740758F97401B900028004C333D971
:10243400FCFAE8131313541FF8EE28F8EF3400F9EC
:10244400E8245DF582E93400F583E05A6008EE245F
:1024540034F582EF802CEE2434F582EF3400F583DA
:10246400E0C0E0EE2436F582EF3400F583E0F5F0C9
:10247400D0E084A8F0EE28F8EF3400F9E82438F529
:1024840082E93400F583E0F97F040220E874F51250
:10249400203CEAFEEBFFEE2434F582EF3400F583B2
:1024A400E0C0E0EE2435F582EF3400F583D0E0F0AF
:1024B4008E828F83A3A3A3A3A3A3A3C082C0838E6E
:1024C400828F83A3A3A3A3A3E0F8A3E0F9D083D0CE
:1024D40082E0C398F508A3E099F509EE247FF5821C
:1024E400EF3400F583E064017069EE2480F582EF37
:1024F4003400F583E0F8A3E0F98E828F83A3A3A3CD
:10250400A3A3A3A3E0FCA3E0FD8E828F83A3A3A3D4
:10251400A3A3E0FAA3E0FBC3EA9CEB9D5010C3EC39
:1025240098ED99402EC3EA98EB995027800EC3EAA0
:1025340098EB994007C3EC98ED9940177C0C7D0803
:10254400EEFAEFFB12180DEE247FF582EF3400F55E
:1025540083E4F0EE2434F8EF3400F9E8FCE9FDEE0E
:102564002435F582EF3400F583E0F8EE2437F58264
:10257400EF3400F583E0F50AE508850AF0A4F508D0
:10258400AAF0850AF0E509A42AF509E82508F8E483
:102594003509F97A257B00121EEEEA8C828D83F0D0
:1025A400F8740758F97401B900028004C333D9FCE4
:1025B400FAE8131313541FF8EE28F8EF3400F9E87F
:1025C400245DF582E93400F583E05A6008EE243492
:1025D400F582EF802CEE2434F582EF3400F583E0AD
:1025E400C0E0EE2436F582EF3400F583E0F5F0D058
:1025F400E084A8F0EE28F8EF3400F9E82438F582F6
:10260400E93400F583E0F912320B02248CC082C055
:1026140083851882851983E0F8A3E0F9C3EA9CEB6B
:102624009D5010C3EC98ED99401BC3EA98EB995068
:1026340014800EC3EA98EB994007C3EC98ED9940D7
:1026440004790180027900D083D08222EAC39CFA03
:10265400EB9DFB2274EF12203C9006D2E0640860EC
:1026640005E06407702A9061C8E06024900700E0E8
:10267400F4601DE0F875F003A4C8AAF02AF9740206
:1026840028FE740739FF8E828F83A3A3A3E070030F
:10269400022788906060E0C0E0EE2468F582EF34A1
:1026A40000F583D0E0F0750C75750D08750800759C
:1026B4000900E5D914F50AE5D95403F50E60177439
:1026C40003650E605CE50A6010EE2467F582EF3462
:1026D40000F583E0700302276D900870E0640160E8
:1026E4002AEE2482F582EF3400F583E06004780456
:1026F40080027800850A08E508C398FA95E0FB1281
:1027040016D58A088B09EA45097005121A118074D6
:10271400EE2482F582EF3400F583E070048A0C8B9A
:102724000DE50A6012850C82850D83F50BE5D9F061
:10273400A3150BE50B70F6EE2482F582EF3400F559
:1027440083E0604474FC250AF50A780C1221E3AC9A
:102754000AA90EEEFAEFFB1218A97402121F8FE9F0
:102764007026AA08AB09120FF1793D8E828F83A3DC
:10277400A3A3A3E0FA7B001215A9EEFAEFFB12184B
:10278400251218BB790080747403650E6056850A9F
:102794001075110078101221E3AC0CAD0DAA08AB32
:1027A400091218857402121F8FEE2468F582EF3423
:1027B40000F583E064807004747F8001E0F50C7898
:1027C4000C1221E7E50EF50C780C1221E7A90AACEE
:1027D40008AD09900700E0FA7B0012156D7402122F
:1027E4001F8F80139006D2E06408600BAC0CAD0D13
:1027F400EEFAEFFB121915121A1D79017F0A022055
:10280400E874F512203C74FC121F79EAFEEBFF8990
:1028140008A2AFE433F509C2AF806AEE2463F8EF8F
:102824003400F97A007B00A2AFE433F50AC2AF8822
:10283400828983E0FCA3E0FDEC4D603A88828983C1
:10284400E0FAA3E0FB8A828B83E0FCA3E0FD8882AC
:102854008983ECF0A3EDF08A828B83E4F0A3F08803
:10286400828983E0FCA3E0FDEC4D700A88828983B1
:10287400A3A3E4F0A3F0E50AA2E092AF120FF19053
:102884000813E004F0EE2463F582EF3400F583E0EE
:10289400F8A3E0F9E849603DEE2463F582EF3400E3
:1028A400F583E02402FAA3E03400FBEA2402F50AEB
:1028B400EB3400F50B780A1221E38A828B83E0FC67
:1028C400A3E0F9EEFAEFFB1218497402121F8FE924
:1028D400700302281F900813E06063900814E0F866
:1028E400900813E0C398500C740265087050900867
:1028F40015E0604A8E828F83A3A3A3A3E085188288
:10290400851983F0A3E4F0900813E0F87402121F11
:10291400C4E8F0A3E4F0900813E0F8900812E0286B
:10292400F07402121FC4AC82AD83851882851983AA
:10293400AA82AB837901121579900813E4F0E509B2
:10294400A2E092AF7404121F8F02248C8521878524
:1029540022C622C0E0C0D0E8C0E0E9C0E0EAC0E09E
:10296400EBC0E0ECC0E0EDC0E0EEC0E0C008C009A0
:10297400C00AC00BC082C083C0F0A2AFE433FEC261
:10298400AF759B00906182E0A2E05012E591A2E055
:10299400500C7591FE740165217003122658E0A253
:1029A400E55051E591A2E5504B7591DF9006D2E0D8
:1029B40064076005E064087023740165217035794B
:1029C40001900700E0FA75F003A4CAA8F028FB748C
:1029D400022AFA74073BFB1228058018E0640D7084
:1029E400139006F4E004F064287002E4F07A00E046
:1029F400F9121A23906182E0A2E64003022A9EE5BE
:102A040091A2E64003022A9E7591BF9006D2E0642B
:102A140005700812194B12195780031219517521A8
:102A2400001219B1E99006D3F079001219A5121712
:102A3400837A017B009006D1E0F9120B5990780358
:102A4400E064427055900874E014F0704DC2AF1207
:102A54002A5600782AD0E0F618D0E0F6E59F54070D
:102A640070057509FF800375097FC4C0E07829E605
:102A7400F50808E65509F509740B7808121F57D0B4
:102A8400E02508F8906270E0A2E740F8E8C33390CC
:102A94006272F0906270E0D2E0F0906181E0A2E3B3
:102AA4005009E5E9A2E3500375E9F7A3E0A2E75072
:102AB40009E591A2E7500375917FEEA2E092AFD0B1
:102AC400F0D083D082D00BD00AD009D008D0E0FE59
:102AD400D0E0FDD0E0FCD0E0FBD0E0FAD0E0F9D0CB
:102AE400E0F8D0D0D0E032C0E0C0D0C082C0839043
:102AF4006183E0A2E05009E5BFA2E0500375BFFE88
:102B0400E0A2E15009E5BFA2E1500375BFFDE0A2D8
:102B1400E25009E5BFA2E2500375BFFBE0A2E35017
:102B240009E5BFA2E3500375BFF7E0A2E45009E54D
:102B3400BFA2E4500375BFEFE0A2E55009E5BFA2D0
:102B4400E5500375BFDFE0A2E65009E5BFA2E650F9
:102B54000375BFBFD083D0828088C0E0C0D0E8C0F6
:102B6400E0E9C0E0EAC0E0EBC0E0ECC0E0EDC0E0CA
:102B7400C0F0E5A7A2E6500FE5A1A2E6500953A7CD
:102B8400BF75A1BF122BC3E5A7A2E5500CE5A1A216
:102B9400E5500653A7DF75A1DFE5A7A2E15009E5DB
:102BA400A1A2E1500375A1FDE5A7A2E2500CE5A1A5
:102BB400A2E2500653A7FB75A1FBD0F0022AD474FD
:102BC400F812203C7521019006D2E06406701512BB
:102BD40018D98A828B83A3A3A3A3A3A3E0FAA3E0B7
:102BE400FB121939A2AFE433FED2AF9006D8E064E9
:102BF4000170187A207B009006D1E0F9120BE97A73
:102C0400207B009006D1E0F9120B5F906182E0D244
:102C1400E6F0900871E0602185C62280169006D700
:102C2400E064017008E5C654F84405F5C653BEFCDB
:102C34001229507401652160E4EEA2E092AF7F0195
:102C44000220E8008E238F24858228858327851817
:102C540082851983E0CEA3E0CF852882852783EB84
:102C6400C9EAC8EDCBECCA75F010C3E833C8E93340
:102C7400C9EA33CAEB33CBC3EA9EF526EB9FF525AD
:102C8400B35004AB25AA26EC33CCED33CDD5F0DA22
:102C9400AE23AF242274E912203C74F8121F798504
:102CA4001882851983ECF0A3EDF08A088B0990064D
:102CB400D2E024F7C394055006750801022E3012A1
:102CC40018D98A0A8B0BAE0AAF0BEE4F7003022E93
:102CD4002DAC08AD097402121FC4AA82AB83121969
:102CE400698E828F83A3A3750CFF750DFF750EFF8C
:102CF400750F00780C121E237402121FC47510FF86
:102D04007511FF7512FF7513007810121E23780CCD
:102D14007910121C48502A780C7910121DE8750895
:102D2400017509C8750A00750B007808790C121C26
:102D3400485052850C08850D09850E0A850F0B80B5
:102D4400507514017515C87516007517008510089F
:102D540085110985120A85130B7808790C121DE870
:102D640078147908121C48401C7508007509007510
:102D74000A00750B0178087910121DE87808790C9F
:102D8400121DAF800C750801750900750A00750BDA
:102D94000074097808121D90750C19F50DF50EF5DF
:102DA4000F7808790C121D078E828F83A3A3A3A327
:102DB400A3A3E0F8A3E0F97AD07B03121EEE880CFB
:102DC400890DE4F50EF50F7808790C121DAF740621
:102DD400121FC4E0F8A3E0F97AD07B03121EEEE8D8
:102DE400FA8A0CE4F50D7808790C121C485007781F
:102DF40008790C121DE89006D2E06408600AE064C9
:102E0400066005E06405702D750C0D780C790812C8
:102E14001C484021750CF4750DFF750EFF750FFFEE
:102E24007808790C121DAF800C75080075090075BF
:102E34000A00750B00851882851983E0F8A3E0F574
:102E44008388827808121E587408121F8F7F10021C
:102E540020E874F712203C12197B90086FE064019B
:102E64007010906245E4F0A3F053F4F343FE0C5366
:102E740090F3121927E5C654804449F5C6E59E54DB
:102E84007F644970F8906185740FF090086DE0F4E8
:102E94007002A3E0604E90086EE0600814601B149A
:102EA400602E804075080175090090086DE078086F
:102EB400121F66E508F45280802A7508017509001E
:102EC40090086DE07808121F66E508F452908014AB
:102ED40075080175090090086DE07808121F66E511
:102EE40008F452A079007F020220E874F712203C13
:102EF400E9FEEAFF74016E700C7A807B009006D1C3
:102F0400E0F9120B5990321CE493F46008E493F94D
:102F1400121777800953C680E59E547F70FA121900
:102F24002D90086FE06401700312178F90086DE014
:102F3400F47002A3E0604B90086EE0600814601A1D
:102F440014602C803D75080175090090086DE078C7
:102F540008121F66E508428080287508017509007B
:102F640090086DE07808121F66E50842908013759A
:102F7400080175090090086DE07808121F66E508DD
:102F840042A012197B1218D98A088B09A808A9092A
:102F9400E8496015E5E170FCE82414F582E93400A1
:102FA400F583E0F46003E0F5E174016F700A7A01DF
:102FB4009006D1E0F9120BB3022EEA74ED12203C14
:102FC4008A088B098C0A8D0B7413121FC4780C1297
:102FD4001E497808790C121C487510017511C875C2
:102FE400120075130050127808790C121DE878103D
:102FF4007908121C4850168010780C7908121DE8C4
:103004007810790C121C4840047901800279007F01
:103014000C0220E874ED12203C8A088B098C0A8D7E
:103024000B7413121FC4780C121E49780C79081201
:103034001C4840117808790C121DE8AA08AB09ACA9
:103044000AAD0B80227510007511007512007513FE
:10305400017810790C121DE878107908121DAFAAB6
:1030640010AB11AC12AD1380A68A828B837508FF56
:103074007509FF750AFF750B007808121E367F0468
:103084000220E874F512203C8C828D837808121E8D
:10309400498A828B837808121DFCEA2404F8EB34F5
:1030A40000F98C828D83A3A3A3A3E0FCA3E0FD8895
:1030B400828983C3E09CF0A3E09DF088828983C366
:1030C400E09420A3E0944E40268A828B837508FF07
:1030D4007509FF750AFF750BFF7808121DD58A82E2
:1030E4008B83A3A3A3A3E02420F0A3E0344EF00237
:1030F400306D74F512203CE9FE900827E0FAA3E055
:10310400FBEEC333F8E433F9742828F58274883964
:10311400F583E02AF508A3E03BF50978081221E3DA
:103124007A407B427C0F7D00122C487402121F8F60
:103134008A088B098C0A8D0B74107808121D77AAE3
:1031440008AB097F040220E874F112203C8A0C8B3E
:103154000D8C0E8D0F740F121FC4E0FAA3E0FB74E4
:1031640011121FC4E0F508A3E0F50978081221E361
:10317400EA2401F508EB3400F509E4F50AF50B78C7
:103184000C7908121C87750871750902780C790886
:10319400121C87AA0CAB0DAC0EAD0F122C48740296
:1031A400121F8F8B09EA450960047A0180027A00B4
:1031B400EC2AFCED3400FD7413121FC4E0F8A3E004
:1031C400F9E8FEE9FFECF8EDF97A717B02121EEEE4
:1031D400880889098E828F837808121E58ECF8EDCE
:1031E400F97A717B02121EEE8A088B09740578083D
:1031F400121F668E828F83A3A3A3A3E508F0A3E521
:1032040009F07F080220E8C082C083E9906000F0E2
:10321400D083D08222020135FFFFFFFFFFFFFFFFB3
:1032240074ED121FD0746C121F79120A697C007D30
:10323400007E007F007410121FC4ECF0A3EDF0A315
:10324400EEF0A3EFF0908BB57808121E49741012BB
:103254001FC47808121C585014908B9D7808121EB5
:10326400497410121FC47808121DD580D879001231
:103274000A6F7B017A017910120AC37906120AC90E
:10328400120ACFE9F5127B007A007900120AC31200
:103294000A87E9F50F120A93E9F50E120A9FE9F578
:1032A4000D120AABE9F50C7A7F7900120A3979001C
:1032B400120A577A687900120A39120A637C007D6F
:1032C400007E007F007410121FC4ECF0A3EDF0A385
:1032D400EEF0A3EFF0908BC97808121E4974101217
:1032E4001FC47808121C585014908B9D7808121E25
:1032F400497410121FC47808121DD580D8750801AE
:1033040078081221E775080078081221E779007C13
:10331400897D077A007B80120AE17402121F8FE90B
:1033240070030238AA7CC07D007A937B0A120AEDEE
:10333400E970030238A67903120A757912120A3F5A
:103344007904120A037901120A097903120A0F791E
:1033540003120A157903120AF37900120AF97900A3
:10336400120A8DA90E120A99A90D120AA5A90C1206
:103374000AB1750A00750B00750800E508C39404CA
:1033840040248508107511007402121FC4E0F879F6
:10339400002403F8E93400F9C3E51098E51199A273
:1033A400D265D033503A7453250AF582740B350B29
:1033B400F583E0C0E0850810751100851882851931
:1033C40083E5822510F582E5833511F583D0E0F09D
:1033D4000508E50A2401F50AE50B3400F50B809B8A
:1033E40075090078091221E775090178091221E7A6
:1033F4007403121FC4E0F50978091221E77403125B
:103404001FC4E0F97405121FC4E0FC7D00740612A9
:103414001FC4AA82AB83120ADB7403121F8FE975DF
:103424000800E508C394044024850810751100744D
:1034340002121FC4E0F879002403F8E93400F9C348
:10344400E51098E51199A2D265D033503A7453250A
:103454000AF582740B350BF583E0C0E0850810751E
:103464001100851882851983E5822510F582E5838C
:103474003511F583D0E0F00508E50A2401F50AE5E5
:103484000B3400F50B809B75090078091221E77550
:10349400090178091221E77403121FC4E0F50978C1
:1034A400091221E77403121FC4E0F97405121FC442
:1034B400E0FC7D007406121FC4AA82AB83120ADBEF
:1034C4007403121F8FE9120A5D120A7B8A108B1192
:1034D400AE10AF11E510A9107414121FC4AA82AB68
:1034E40083120A817902120A21799C120A2D7950D9
:1034F400120A277900120A33120A5D7901120A515D
:103504007901120AB7120ABD750800E508C39404CC
:1035140040248508107511007402121FC4E0F87964
:10352400002403F8E93400F9C3E51098E51199A2E1
:10353400D265D033503A7453250AF582740B350B97
:10354400F583E0C0E085081075110085188285199F
:1035540083E5822510F582E5833511F583D0E0F00B
:103564000508E50A2401F50AE50B3400F50B809BF8
:1035740075090078091221E775090178091221E714
:103584007403121FC4E0F50978091221E7740312C9
:103594001FC4E0F97405121FC4E0FC7D0074061218
:1035A4001FC4AA82AB83120ADB7403121F8FE9754E
:1035B4000800E508C39404402485081075110074BC
:1035C40002121FC4E0F879002403F8E93400F9C3B7
:1035D400E51098E51199A2D265D033503A74532579
:1035E4000AF582740B350BF583E0C0E0850810758D
:1035F4001100851882851983E5822510F582E583FB
:103604003511F583D0E0F00508E50A2401F50AE553
:103614000B3400F50B809B75090078091221E775BE
:10362400090178091221E77403121FC4E0F509782F
:10363400091221E77403121FC4E0F97405121FC4B0
:10364400E0FC7D007406121FC4AA82AB83120ADB5D
:103654007403121F8FE9750800E508C3940440241D
:103664008508107511007402121FC4E0F879002453
:1036740003F8E93400F9C3E51098E51199A2D2657D
:10368400D033503A7453250AF582740B350BF58305
:10369400E0C0E0850810751100851882851983E55E
:1036A400822510F582E5833511F583D0E0F0050815
:1036B400E50A2401F50AE50B3400F50B809B750936
:1036C4000078091221E775090178091221E77403CA
:1036D400121FC4E0F50978091221E77403121FC40C
:1036E400E0F97405121FC4E0FC7D007406121FC4C7
:1036F400AA82AB83120ADB7403121F8FE9120A7BBE
:103704008A108B11A810A911E8FEE9FFC3E89403FD
:10371400E9940040E8EEF97414121FC4AA82AB8342
:10372400120A81120A45E9F509750800E508C394EF
:103734000440248508107511007402121FC4E0F8B7
:1037440079002403F8E93400F9C3E51098E51199E8
:10375400A2D265D033503A7453250AF582740B35DE
:103764000BF583E0C0E0850810751100851882858B
:103774001983E5822510F582E5833511F583D0E0C0
:10378400F00508E50A2401F50AE50B3400F50B8081
:103794009B7401121FC4E0F51078101221E7740124
:1037A400121FC4E0F97403121FC4E0FC7D0074040A
:1037B400121FC4AA82AB83120AD57401121F8F127E
:1037C4000A7B8A108B11A810A911E8FEE9FFC3E84F
:1037D4009403E9940040E8EEF97414121FC4AA8219
:1037E400AB83120A81120A45E9F509750800E50858
:1037F400C3940440248508107511007402121FC478
:10380400E0F879002403F8E93400F9C3E51098E5F9
:103814001199A2D265D033503A7453250AF58274B3
:103824000B350BF583E0C0E0850810751100851891
:1038340082851983E5822510F582E5833511F583A8
:10384400D0E0F00508E50A2401F50AE50B3400F59B
:103854000B809B75100078101221E7751001781009
:103864001221E77403121FC4E0F51078101221E747
:103874007403121FC4E0F97405121FC4E0FC7D0038
:103884007406121FC4AA82AB83120ADB7403121FCC
:103894008FE97900120AB7120A5D120A45E9790024
:1038A40080067902800279017494121F8F7F0B02C3
:1038B40020A274F7121FD08C828D83E0F87900E483
:1038C400C8F98C828D83A3E0FE7F00E82EF8E93FDF
:1038D400F98A828B83E8F0A3E9F08C828D83A3A319
:1038E400A3A3E0F87900E4C8F98C828D83A3A3A391
:1038F400A3A3E0FE7F00E82EF8E93FF98A828B83D8
:10390400A3A3E8F0A3E9F08C828D83A3A3A3A3A3CC
:10391400A3A3A3E0F87900E4C8F98C828D83A3A360
:10392400A3A3A3A3A3A3A3E0FE7F00E82EF8E93F8B
:10393400F98A828B83A3A3A3A3E8F0A3E9F0EC2480
:103944000CF582ED3400F583E0F87900E4C8F9EC75
:10395400240DF582ED3400F583E0FE7F00E82EF8B7
:10396400E93FF98A828B83A3A3A3A3A3A3E8F0A3CB
:10397400E9F079007F010220A243FD0202013574BF
:10398400F2121FD074EC121F798908E5089002AC7A
:10399400F07C047D007A1F7B001211C5E9F50974DF
:1039A40005121FC47401F0740E121FC47401F0A335
:1039B4007400F07404121FC47401F0740C121FC458
:1039C400742FF0A37401F0740A121FC4743FF0A39F
:1039D4007401F07408121FC47404F0A37400F0742A
:1039E40006121FC47458F0A37402F07405121FC4A5
:1039F400AC82AD8379017A057B03121081E9740EE0
:103A0400121FC4AC82AD8379027A067B0312108143
:103A1400E97C827D0B79157A087B03121081E97C9D
:103A2400977D0B79077A077B03121081E9740412DE
:103A34001FC4AC82AD8379017A107B03121081E933
:103A4400740C121FC4AC82AD8379027A117B031209
:103A54001081E9740A121FC4AC82AD8379027A1210
:103A64007B03121081E97408121FC4AC82AD837900
:103A7400027A137B03121081E97406121FC4AC820C
:103A8400AD8379027A147B03121081E97C9E7D0B4D
:103A94007A04790012133FE97E407F06EEFCEFFDC5
:103AA4007A067B001211C5E9EEFCEFFD7A077B0074
:103AB4001211C5E9EEFCEFFD7A087B001211C5E98D
:103AC400EEFCEFFD7A097B001211C5E97A007B0058
:103AD4007C007D007410121FC4EAF0A3EBF0A3EC89
:103AE400F0A3EDF07403121FC47401F07402121FEA
:103AF400C47401F07401121FC47400F08518828527
:103B040019837401F07410121FC4AC82AD8379045C
:103B14007A087B04120D51E97403121FC4AC82AD00
:103B24008379017A007B04120D51E97402121FC4D7
:103B3400AC82AD8379017A027B04120D51E97401E0
:103B4400121FC4AC82AD8379017A037B04120D5138
:103B5400E9851882851983AC82AD8379017A067B65
:103B640004120D51E9908BC5121E67121345E9909A
:103B74008BC5121E67121453E9120D15E9908BC5FB
:103B8400121E67120FC7E9908BC5121E67120D270C
:103B9400E9908BC5121E67120F91E9908BC5121E16
:103BA40067120CEBE97A007903120F2BE9120EA1CC
:103BB4007AB87B0B120FCDE9F50A7ABA7B0B120D9A
:103BC4002DE9F50B7ABC7B0B120F97E9F50C7ABE45
:103BD4007B0B120CF1E9F50D7AC07B0B12109312DA
:103BE4000C55790112154FE97A017B009002ACE083
:103BF400F9120B59E97414121F8F7F060220A27464
:103C0400F0121FD08909EAFEEBFFEE5400F8EF54DE
:103C140080F9E84960329002ACE0F9120B418A0C59
:103C24008B0DA80CA90D880A890BE849600FAA0A14
:103C3400AB0B120C67AA0AAB0B120B2FE9EE640054
:103C4400FAEF6480FB02431CEE5480601B9002E197
:103C5400E0600AC2AF75C9AB75C95B80FEEE6480D3
:103C6400FAEF6400FB02431CEEA2E0501C7AB47B22
:103C74000B12108DE9F5087A287B03120D6FEE64A0
:103C840001FAEF6400FB02431CEE5400F8EF540405
:103C9400F9E84960167C107D007AC77B02120CD9C2
:103CA400EE6400FAEF6404FB02431CEE540270035A
:103CB400023D3F9002AEE0605A120EF5E9640270D4
:103CC4002F120CA3900BA6E024EDF50CA3E034FE18
:103CD400F50DE4F50EF50F780C1221DF7A027B0066
:103CE4009002ACE0F9120BDD7404121F8FE98040DE
:103CF400120EF5E9703A120EE3908BC11221F67A96
:103D0400027B009002ACE0F9120BDD7404121F8FE9
:103D1400E9801D120EE97D047C0079007A007BAAFB
:103D2400120CD37D017C0079017A007BAA120CD39A
:103D3400EE6402FAEF6400FB02431CEE5404605686
:103D44009002B0E0602B120C7F900BA4E0F50CA362
:103D5400E0F50DE4F50EF50F780C1221DF7A047B03
:103D6400009002ACE0F9120BDD7404121F8FE9809D
:103D74001A7D037C0079007A107BAA120CD37D0192
:103D84007C0079017A107BAA120CD3EE6404FAEF5A
:103D94006400FB02431CEE5400F8EF5401F9E849B7
:103DA4007003023ECF9002B1E07003023EC4900261
:103DB400DDE0640160089002DDE064027023908B12
:103DC400BD1221F67A007B019002ACE0F9120BDD02
:103DD4007404121F8FE9EE6400FAEF6401FB0243DE
:103DE4001C9002DD7403F0120A45E9900327F012D7
:103DF4000A7B9002E5EAF0A3EBF0900327E0A2E44B
:103E0400400E9002E5E064007004A3E064047026B0
:103E1400120A5D908BB91221F67A007B019002ACF4
:103E2400E0F9120BDD7404121F8FE9EE6400FAEF5F
:103E34006401FB02431C900327E0A2E1505390026B
:103E4400E5C082C083900BB2E0F8A3E0F9D083D040
:103E540082C3E098A3E099500D120A7B9002E5EA30
:103E6400F0A3EBF080D8900BB2E0F8A3E0F9E8F906
:103E74007AE77B02120A81900BB2E0F8A3E0F99092
:103E840002E5C3E098F0A3E099F07AE77B02120C14
:103E940085900BAEE0F50CA3E0F50DE4F50EF50FFF
:103EA400780C1221DF7A007B019002ACE0F9120B4E
:103EB400DD7404121F8FE99002DD7400F0120A5DB4
:103EC400EE6400FAEF6401FB02431CEE5400F8EFC9
:103ED4005408F9E849602C120C49E97901120AB72F
:103EE400908BA91221F67A007B019002ACE0F912C2
:103EF4000BDD7404121F8FE9EE6400FAEF6408FB13
:103F040002431CEE5400F8EF5402F9E8497003022E
:103F140040259002B2E06401600302401A9002DD81
:103F2400E0640160089002DDE064037023908BBDBF
:103F34001221F67A007B029002ACE0F9120BDD74D8
:103F440004121F8FE9EE6400FAEF6402FB02431CC3
:103F54009002DD7402F09002E0E0700F9002DBE06A
:103F6400FAA3E0FB7900120C8B801D9002DBE0FACF
:103F7400A3E0FBEA2401F8EB3400F99002DBE8F05B
:103F8400A3E9F07901120C8B9002E0E07020908B91
:103F9400BD1221F67A007B029002ACE0F9120BDD2F
:103FA4007404121F8FE99002E07401F0806890029B
:103FB400DBC3E0940EA3E09400A2D265D033403872
:103FC4009002DD7400F09002DB7400F0A37400F042
:103FD400900BB0E0F50CA3E0F50DE4F50EF50F78C9
:103FE4000C1221DF7A007B029002ACE0F9120BDDA7
:103FF4007404121F8FE98018908B7D1221F67A00C9
:104004007B029002ACE0F9120BDD7404121F8FE9FD
:104014009002E07400F0EE6400FAEF6402FB0243E5
:104024001CEE540870030240FF9002B4E0700302D7
:1040340040DA9002DDE0640360089002DDE064028F
:104044007023908BBD1221F67A087B009002ACE0BD
:10405400F9120BDD7404121F8FE9EE6408FAEF64A1
:1040640000FB02431C9002DD7401F09002DFE0F9D2
:10407400120EA7E9F5089002DFE064027037120C13
:10408400979002DF7400F09002DD7400F0900BA8AA
:10409400E0F50CA3E0F50DE4F50EF50F780C122114
:1040A400DF7A087B009002ACE0F9120BDD74041295
:1040B4001F8FE9803B9002DFE02401F0908B911286
:1040C40021F67A087B009002ACE0F9120BDD74044F
:1040D400121F8FE9801A7D047C0079007A207BAA64
:1040E400120CD37D017C0079017A207BAA120CD3B7
:1040F400EE6408FAEF6400FB02431CEE5410606C9B
:104104009002AFE0603E120F3DE964027005120CAC
:10411400918009120F3DE97003120F43900BA2E046
:10412400F50CA3E0F50DE4F50EF50F780C1221DF84
:104134007A107B009002ACE0F9120BDD7404121FBC
:104144008FE9801D120F497D067C0079007A307B4F
:10415400AA120CD37D017C0079017A307BAA120C5F
:10416400D3EE6410FAEF6400FB02431CEE5420709B
:104174000302420A9002B3E0605A9002DEE060312A
:104184009002DE7400F0120C9D900BAAE0F50CA3D3
:10419400E0F50DE4F50EF50F780C1221DF7A207BA3
:1041A400009002ACE0F9120BDD7404121F8FE98059
:1041B4004A9002DE7401F0120E35908B791221F6CA
:1041C4007A207B009002ACE0F9120BDD7404121F1C
:1041D4008FE980277D047C0079007A407BAA120C49
:1041E400D37D017C0079017A407BAA120CD37D1027
:1041F4007C0079037A407BAA120CD3EE6420FAEF98
:104204006400FB02431CEE544070030242D9120EB8
:104214008FE9F5089002B5E070030242B2E5087038
:10422400269002E2E0F9120E95120E77908BAD12F1
:1042340021F67A407B009002ACE0F9120BDD7404A5
:10424400121F8FE90242CF9002E3E0600E9002E277
:10425400E0F9120E959002E37400F07402650870A0
:104264002F120CA9900BACE024C4F50CA3E034FF8E
:10427400F50DE4F50EF50F780C1221DF7A407B0082
:104284009002ACE0F9120BDD7404121F8FE9803B3D
:10429400120E89E9908BAD1221F67A407B009002D0
:1042A400ACE0F9120BDD7404121F8FE9801D120EAD
:1042B4007D7D067C0079007A507BAA120CD37D01A7
:1042C4007C0079017A507BAA120CD3EE6440FAEF99
:1042D4006400FB8043EE5400F8EF5410F9E84960A1
:1042E40033750A58750B02780A1221E3750A0475AE
:1042F4000B00780A1221E379027C3F7D017A2F7B3F
:10430400011210C97404121F8FE9EE6400FAEF64FD
:1043140010FB80047A007B007F080220A274F7124D
:104324001FD0EAFEEBFF8E828F83E064C070148E90
:10433400828F83A3A3A3E0FA8E828F83A3A3E0F9E1
:10434400120C6D7F010220A274F7121FD074FC12AC
:104354001F79E9FEEAFF8518828519837400F0EF5E
:10436400A2E0400302440D9002E17401F0908B95A9
:104374001221F67A807B009002ACE0F9120BDD7416
:1043840004121F8FE99002E4E0706F9002ADE064C4
:1043940005603E7403121FC4AC82AD837A057B03AF
:1043A400121087E97403121FC4E0700A7401121F0B
:1043B400C47401F080087401121FC47400F0740105
:1043C400121FC4AC82AD8379017A057B031210817C
:1043D400E99002ADE0640570307402121FC47401E8
:1043E400F0121099E97402121FC4AC82AD837901F2
:1043F4007A057B03121081E9800FEFA2E0500A8551
:104404001882851983E0D2E2F0EFA2E1500A851800
:1044140082851983E0D2E0F0EFA2E2500A85188287
:10442400851983E0D2E1F0EFA2E040069002E17446
:1044340000F0851882851983AC82AD837A017900F6
:104444001210CFE97404121F8F7F010220A2C082D0
:10445400C0839002B1E060069002B17400F0900253
:10446400B4E06009120EA19002B47400F09002B29C
:10447400E060069002B27400F0D083D0820201356D
:1044840074F4121FD074E2121F79E9FEEE14601660
:1044940014700302463D14700302467224FE700336
:1044A400024647024675851882851983AC82AD831E
:1044B4007A047B03121087E97508087509007808E7
:1044C4001221E37402121FC4AC82AD837418121F4C
:1044D400C4AA82AB83120B057402121F8F740512D7
:1044E4001FC4E0C0E07407121FC4D0E0F0740412CB
:1044F4001FC4E0C0E07406121FC4D0E0F0740312BD
:104504001FC4E0C0E07405121FC4D0E0F0740412AC
:104514001FC47400F07403121FC47400F085188261
:10452400851983AC82AD837A087900120D1BE9905A
:104534008C3AC082C0837408121FC4AC82AD83D08D
:1045440083D082740E121E8C7F00750905E509C3A1
:104554009400A2D265D033500302462AE509F83309
:1045640095E0F97416121FC4E58228F582E58339B3
:10457400F583E0F508E508C3940A506B7C327D8C22
:10458400EFF87900E875F002A4C8AAF075F000A469
:104594002AFA75F002E9A42AF97408121FC4E58204
:1045A40028FAE58339FB121C277910EFFA7B00EA1D
:1045B40075F002A4CAA8F075F000A428F875F002FA
:1045C400EBA428FB7408121FC4E5822AF582E58354
:1045D4003BF583A3AC82AD8385080A750B00AA0A58
:1045E400AB0B120C0D80357910EFFA7B00EA75F0F5
:1045F40002A4CAA8F075F000A428F875F002EBA490
:1046040028FB7408121FC4E5822AFCE5833BFD8560
:10461400080A750B00AA0AAB0B120C0D0F74FF25C8
:1046240009F5090245517408121FC4AC82AD837A9E
:104634000C7902120D1BE980387A017901120F2BD3
:10464400E9802E908BA51221F67A007B109002ACA3
:10465400E0F9120BDD7404121F8FE97A007901125C
:104664000F2BE99002DD7400F0120CAF8003120CE2
:1046740073EE9002ADF0741E121F8F7F040220A20D
:10468400C082C08374FD121F79851882851983AA9C
:1046940082AB83120E29E96012851882851983ACD6
:1046A40082AD837A037900120CDFE97403121F8F41
:1046B400D083D08202013574F4121FD074D1121F3A
:1046C40079EAFEEBFF7404121FC47400F0A37400B3
:1046D400F07402121FC47400F0A37400F0851882F1
:1046E4008519837400F0A37400F0851882851983FA
:1046F40085820885830978081221E37404121FC493
:10470400AC82AD837406121FC4AA82AB83120A4B17
:104714007402121F8FEEFCEFFD7406121FC4AA82EE
:10472400AB83120C4FE97404121FC4E0F508A3E034
:10473400F50974087808121F47E508740F121FC49E
:10474400E508F07404121FC4E0F8A3E0F9E8C0E03F
:10475400740E121FC4D0E0F07402121FC4E0F508F6
:10476400A3E0F50974087808121F47E508741112CC
:104774001FC4E508F07402121FC4E0F8A3E0F9E8CE
:10478400C0E07410121FC4D0E0F08518828519832C
:10479400E0F508A3E0F50974087808121F47E50856
:1047A4007413121FC4E508F0851882851983E0F894
:1047B400A3E0F9E8C0E07412121FC4D0E0F074065C
:1047C400121FC4E0F508A3E0F50974087808121F65
:1047D40047E5087415121FC4E508F07406121FC4D7
:1047E400E0F8A3E0F9E8C0E07414121FC4D0E0F0CC
:1047F4007408121FC4E0F508A3E0F50974087808EA
:10480400121F47E5087417121FC4E508F074081254
:104814001FC4E0F8A3E0F9E8C0E07416121FC4D086
:10482400E0F0740A121FC4E0F508A3E0F509740867
:104834007808121F47E5087419121FC4E508F074BC
:104844000A121FC4E0F8A3E0F9E8C0E07418121FCC
:10485400C4D0E0F0740C121FC4E0F508A3E0F5091D
:1048640074087808121F47E508741B121FC4E50872
:10487400F0740C121FC4E0F8A3E0F9E8C0E0741A65
:10488400121FC4D0E0F0741C121FC474AAF0741D6B
:10489400121FC474BBF0741E121FC474AAF07508EE
:1048A4000E75090078081221E37410121FC4AC823B
:1048B400AD837421121FC4AA82AB83120B05740248
:1048C400121F8F8A0A8B0B850A08850B09742D1217
:1048D4001FC4740DF0742E121FC4740AF07C137D6F
:1048E40000741C121FC4AA82AB83120CD9742F1239
:1048F4001F8F7F040220A274F0121FD0748C121F29
:1049040079890B8A08908B1EC082C0837404121F9D
:10491400C4AC82AD83D083D0827408121E8C908B79
:1049240026C082C083746C121FC4AC82AD83D08352
:10493400D0827408121E8C908B16C082C08374645B
:10494400121FC4AC82AD83D083D0827408121E8C33
:10495400908B0EC082C083745C121FC4AC82AD8382
:10496400D083D0827408121E8C908B06C082C083C0
:104974007454121FC4AC82AD83D083D082740812E5
:104984001E8C908AFEC082C083744C121FC4AC82F9
:10499400AD83D083D0827408121E8C908AF6C082B4
:1049A400C0837444121FC4AC82AD83D083D082749C
:1049B40008121E8C908AEEC082C083743C121FC4FD
:1049C400AC82AD83D083D0827408121E8C908AE6A8
:1049D400C082C0837434121FC4AC82AD83D083D030
:1049E400827408121E8C908AD6C082C083742C12E2
:1049F4001FC4AC82AD83D083D0827408121E8C9005
:104A04008ACEC082C0837424121FC4AC82AD83D00A
:104A140083D0827408121E8C908ABEC082C08374B4
:104A24001C121FC4AC82AD83D083D0827408121EC2
:104A34008C908AB6C082C0837414121FC4AC82AD39
:104A440083D083D0827408121E8C908B2EC082C0B7
:104A540083740C121FC4AC82AD83D083D0827408DB
:104A6400121E8C7404121FC4AE82AF83E508603931
:104A740014604214604B14605414605C1460641439
:104A8400606C14607414607C147003024B13147013
:104A940003024B1E147003024B29147003024B349F
:104AA400147003024B3F024B4A7404121FC4AE82BB
:104AB400AF83024B53746C121FC4AE82AF83024B9C
:104AC400537464121FC4AE82AF83024B53745C12DE
:104AD4001FC4AE82AF8380777454121FC4AE82AFFA
:104AE40083806C744C121FC4AE82AF8380617444A3
:104AF400121FC4AE82AF838056743C121FC4AE82B0
:104B0400AF83804B7434121FC4AE82AF8380407471
:104B14002C121FC4AE82AF8380357424121FC4AE1E
:104B240082AF83802A741C121FC4AE82AF83801F9D
:104B34007414121FC4AE82AF838014740C121FC489
:104B4400AE82AF8380097404121FC4AE82AF83E5C2
:104B54000B7015120C25E9EEFAEFFB120C437A01E7
:104B64007944120C37024D03120C25E9EEFAEFFBDF
:104B7400120C437A0079BE120C37120C3DE9F50988
:104B8400120C3DE9F50AE5086003024C319002DAA3
:104B94007400F07C247D0079FF7AB67B02120B1D31
:104BA4009002DAE0F8790074B628F582740239F5D7
:104BB4008374AAF09002DAE02401F09002DAE0F8BB
:104BC400790074B628F582740239F58374BBF090C9
:104BD40002DAE02401F09002DAE0F8790074B628F1
:104BE400F582740239F58374BBF09002DAE0240193
:104BF400F0E5099002DAE0F8790074B628F58274D9
:104C04000239F583E509F09002DAE02401F0E50ABF
:104C14009002DAE0F8790074B628F582740239F566
:104C240083E50AF09002DAE02401F0803AE5099085
:104C340002DAE0F8790074B628F582740239F58353
:104C4400E509F09002DAE02401F0E50A9002DAE0E6
:104C5400F8790074B628F582740239F583E50AF010
:104C64009002DAE02401F0740D65086003024D033C
:104C74009002DAE0F8790074B628F582740239F506
:104C84008374FFF09002DAE02401F09002DAE0F895
:104C9400790074B628F582740239F58374FFF090B4
:104CA40002DAE02401F07C117D007AB67B02120C5A
:104CB400D97A007B007C007D00851882851983EAFF
:104CC400F0A3EBF0A3ECF0A3EDF0908BBD780C1205
:104CD4001E49851882851983780C121C585015902A
:104CE4008B9D780C121E49851882851983780C12C5
:104CF4001DD580D67C107D007AC77B02120CD97436
:104D040074121F8F7F080220A2C082C08374FA121B
:104D14001F79851882851983AA82AB83120F4FE904
:104D24006012851882851983AC82AD837A06790076
:104D3400120FC1E97406121F8FD083D0820201358D
:104D4400C082C08374F5121F797407121FC4AA822B
:104D5400AB83120EADE9605C85188285198374AA51
:104D6400F07401121FC474BBF07402121FC474CC1B
:104D7400F07409121FC4E0C0E07403121FC4D0E031
:104D8400F0740A121FC4E0C0E07404121FC4D0E01F
:104D9400F07405121FC474FFF07406121FC474FF6C
:104DA400F07C077D00851882851983AA82AB831263
:104DB4000CD9804A85188285198374AAF07401126B
:104DC4001FC474BBF07402121FC474CCF0740312B9
:104DD4001FC47476F07404121FC47476F074051240
:104DE4001FC474FFF07406121FC474FFF07C077DA7
:104DF40000851882851983AA82AB83120CD9740B9F
:104E0400121F8FD083D082020135C082C08374FC0C
:104E1400121F79851882851983AA82AB83120E3BEF
:104E2400E96012851882851983AC82AD837A04798E
:104E340000120CE5E97404121F8FD083D0820201A2
:104E440035C082C08374FC121F798518828519834A
:104E5400AA82AB83120EEFE960128518828519834A
:104E6400AC82AD837A047900120FBBE97404121F7B
:104E74008FD083D082020135C082C08374FA121F9E
:104E840079851882851983AA82AB83120E83E9601F
:104E940012851882851983AC82AD837A0679001253
:104EA4000E23E97406121F8FD083D082020135C00D
:104EB40082C0839002B1E070219002B17401F012BB
:104EC40009FD908BCD1221F67A007B089002ACE0AC
:104ED400F9120BDD7404121F8FE9D083D082020112
:104EE4003574F7121FD074FF121F79E9FE146005A0
:104EF4001460598061851882851983AA82AB8379ED
:104F040001120FD3E9851882851983E0701B900282
:104F1400B1E060429002B17400F07A007B0190022B
:104F2400ACE0F9120B59E9802D9002B1E0700D7AD2
:104F3400007B019002ACE0F9120B59E985188285D7
:104F44001983E09002B1F01209FD800A7AAE7B0B5E
:104F54007902120FD3E97401121F8F7F010220A27C
:104F640074F7121FD074FF121F79E9FE1460051440
:104F7400605C8064851882851983AA82AB83790179
:104F8400120D33E9851882851983E0701B9002B2F3
:104F9400E060459002B27400F07A007B029002ACAB
:104FA400E0F9120B59E98030851882851983E06491
:104FB4000170259002B2E0701F9002B27401F07A81
:104FC400007B029002ACE0F9120B59E9800A7AB036
:104FD4007B0B7902120D33E97401121F8F7F0102DA
:104FE40020A274F7121FD074FF121F79E9FE146017
:104FF400051460608068851882851983AA82AB8352
:105004007901120FA3E9851882851983E07019903C
:1050140002B4E060139002B47400F07A087B00904C
:1050240002ACE0F9120B59E9851882851983E06412
:1050340001702B9002B4E070259002B47401F090DA
:1050440002DF7400F07A087B009002ACE0F9120BE6
:1050540059E9800A7AA87B0B7902120FA3E974013B
:10506400121F8F7F010220A274F0121FD074F81255
:105074001F79890A7401650A600302512B8518821D
:10508400851983AA82AB837901120CFDE985188204
:10509400851983E0FA7B007401121FC4E0F87900DB
:1050A400E4C8F9EA28F8EB39F9E8FEE9FF740212DA
:1050B4001FC4E0FA7B007403121FC4E0F87900E413
:1050C400C8F9EA28F8EB39F9880889097404121F29
:1050D400C4E0FA7B007405121FC4E0F87900E4C848
:1050E400F9EA28F8EB39F9880E890F7406121FC4FF
:1050F400E0FA7B007407121FC4E0F87900E4C8F9F1
:10510400EA28F8EB39F9880C890D780C1221E37838
:105114000E1221E37902AC08AD09EEFAEFFB12108E
:10512400C97404121F8FE97402650A70041210997D
:10513400E97408121F8F7F080220A274F4121FD092
:1051440074FA121F79EAFEEBFF8C088D09741212AF
:105154001FC4E0F50AA3E0F50BEE851882851983D8
:10516400F0EEF8EFF9E4E9F8C0E07401121FC4D0DE
:10517400E0F0E5087402121FC4E508F0A808A909C4
:10518400E4E509A809E5097403121FC4E509F0E57B
:105194000A7404121FC4E50AF0A80AA90BE4E50B7B
:1051A400A80BE50B7405121FC4E50BF08518828566
:1051B4001983AC82AD837A067900120CF7E9740680
:1051C400121F8F7F040220A274F0121FD08A0A8B50
:1051D4000B89088C0C8D0985090E750F00AA0EAB7E
:1051E4000F120B9B8A0E8B0FAE0EAF0FEE4F700398
:1051F40002528C85090E750F00AC0EAD0FA90CEE92
:10520400FAEFFB120B1D850A0E850B0F780E122286
:105214006D0000060000AA335210AA415220AA5D74
:105224005230AA4F5240AA6B5250AA79528552EE7C
:10523400FCEFFDAA09A908120FBBE98044EEFCEFBC
:10524400FDAA09A908120CDFE98036EEFCEFFDAADD
:1052540009A908120FC1E98028EEFCEFFDAA09A9EB
:1052640008120F9DE9801AEEFCEFFDAA09A90812A5
:105274000CE5E9800CEEFCEFFDAA09A908120E2347
:10528400E9EEFAEFFB120BA17F080220A274F312DD
:105294001FD08A088B09ECFEEDFFC3EE9415EF9442
:1052A400004005750C148003EEF50C90032C742E4D
:1052B400F0A37400F0E50C90032EF0850C0A750B36
:1052C40000780A1221E3AC08AD097A2F7B03120B94
:1052D400057402121F8F79007C2C7D037A007B00F9
:1052E40012139FE97F050220A274EE121FD074FAF4
:1052F400121F798A0A8B0B8909ECFEEDFF750800F1
:10530400850A0C850B0D780C122227000410C65553
:105314003653575376539753B853D9530C542D548B
:10532400445472543055515571559B55C655C65504
:105334009D547401650970158E828F83E0C39403B4
:10534400500B8E828F83E0900EBFF0800375081897
:105354000255EF7402650970138E828F83E0F8A3FF
:10536400E0F9900EC0E8F0A3E9F080037508180294
:1053740055EF7401650970158E828F83E0C3940222
:10538400500B8E828F83E0900399F0800375081888
:105394000255EF7401650970158E828F83E0C39402
:1053A40005500B8E828F83E090039AF0800375087A
:1053B400180255EF7401650970158E828F83E0C35E
:1053C4009402500B8E828F83E090039BF0800375D0
:1053D40008180255EF741065097027750C10750DC7
:1053E40000780C1221E3EEFCEFFD7A9C7B03120B98
:1053F400057402121F8F8A0C8B0D850C82850D8318
:1054040080037508180255EF7401650970158E82C2
:105414008F83E0C39402500B8E828F83E09003ACA1
:10542400F080037508180255EF74016509700B8E3E
:10543400828F83E0900EC3F080037508180255EF45
:10544400740465097022908B8D780C121E498E822B
:105454008F83780C121C58500F8E828F83121E6714
:105464009003AE121E7380037508180255EFE50908
:105474007021121327E97013120DC9E9F50C795044
:1054840012107BE9F50D120DB7800B9004417401E5
:10549400F080037508180255EF740765096003026C
:1054A400552A750E06750F00780E1221E38E828F31
:1054B40083A3AC82AD837402121FC4AA82AB83128D
:1054C4000B0B7402121F8F8A108B1185100E85111D
:1054D4000F7C007D00851882851983AA82AB838E98
:1054E400828F83E0F9120D5DE9F50CE50CC3940A93
:1054F400502F121327E97015A90C120DCFE9F50DE1
:10550400795012107BE9F50E120DB7801C750D0051
:105514007442250CF5827404350DF5837401F08012
:105524000875080280037508180255EF74016509AF
:1055340070158E828F83E0C39402500B8E828F830A
:10554400E09003ADF080037508180255EF7401650F
:105554000970158E828F83E0C3940A500B8E828F5C
:1055640083E0900EC2F08003750818807E74016594
:1055740009701F8E828F83E0C3940740158E828F3B
:1055840083E0C39411500B8E828F83E0900EC4F09D
:10559400805975081880547401650970209004407E
:1055A400E0F50C8E828F83E0900440F0E50C703BB4
:1055B400900440E064017033120DB7802E75081812
:1055C4008029C3E50A9427E50B9400501B740265F7
:1055D4000970158E828F83E0FCA3E0FDAA0AAB0B51
:1055E4001211C5E9F5088003750802A908740612AA
:1055F4001F8F7F0A0220A274EC121FD074DA121FCC
:1056040079890D8A128B138C0A8D0B743A121FC47C
:10561400E0F50C908B5CC082C08385188285198369
:10562400AC82AD83D083D0827406121E8C8518821E
:10563400851983AC82AD83AA12AB13A90D120D5D3B
:10564400E9FEEEC3940A400302579AEEF9120D994B
:10565400E9FF900EBFE064027004740180027400DC
:10566400F50878081221E7AD0CEFFCEEF9AA0AABB5
:105674000B120E0B7401121F8F7C147D00790074C1
:1056840012121FC4AA82AB83120B1D8A0E8B0F85C4
:105694000E08850F097412121FC4AC82AD837A10F0
:1056A40075F006EEA42424F9121075E970437C10F9
:1056B40079FF7412121FC4AA82AB83120B7DE970A6
:1056C400307422121FC4AC82AD837A0475F006EEE6
:1056D400A42425F9121075E9F5087412121FC4AC3C
:1056E40082AD83EFA2E0E433F9AA0AAB0B12124FA6
:1056F400E97406121FC4AC82AD837A0C74702EF95F
:10570400121075E9707E7406121FC4AA82AB83124C
:105714000D8D750E00E50EC394045068E50EA80EB9
:105724007900E875F003A4C8AAF075F000A42AFA79
:1057340075F003E9A42AF97406121FC4E58228F55A
:1057440008E58339F509850882850983E0F8A3E033
:10575400F9E849602B850882850983A3A3E0F51045
:1057640075110078101221E3850882850983E0FC15
:10577400A3E0FDAA0AAB0B1214B37402121F8FE943
:10578400050E8091EFA2E1500D900398E0F9AA0A6A
:10579400AB0B1214B9E97404650C700F900EBFE0E2
:1057A40064027007AA0AAB0B120E05790074261264
:1057B4001F8F7F0C0220A274F2121FD0890BEAFE05
:1057C400EBFF8C088D09750A0AE50B600C1460095F
:1057D40014604414606402585FEEFAEFFB120DABE0
:1057E400E9F50AE50AC3940A5071E5084509606BB6
:1057F400750C06750D00780C1221E3EEFCEFFDAA82
:1058040008AB09120B057402121F8F8A0C8B0D85CD
:105814000C82850D838044EEFAEFFB120DA5E9F5A9
:105824000AE50AC3940A5033E5084509602DAA081D
:10583400AB09A90A120D9FE98021EEFAEFFB120DC4
:10584400B1E9F50AE50AC3940A5010E50845096070
:105854000AAA08AB09A90A120D9FE9A90A7F060240
:1058640020A274F2121FD08A0C8B0DE9FE7F1574EE
:10587400FF650C700474FF650D702A750800E50857
:10588400C3940A5014EEFC7A027B00A908120D7B23
:10589400E960027F00050880E5EE60637AF37B0D22
:1058A4001216B7805AAA0CAB0D1216998A0A8B0BE2
:1058B400850A08850B09E508450960417C007D00DF
:1058C400E5082405FAE5093400FB85088285098387
:1058D400A3A3A3A3E0F9120D5DE9F50AE50AC394B5
:1058E4000A500EEEFC7A027B00A90A120D7BE97FB6
:1058F40000EE600BAA08AB09120DF380027F14EFCF
:10590400F97F060220A274EE121FD08A0E8B0F8C30
:105914000A8D0B7412121FC4E0F50CA3E0F50D758B
:10592400081574FF650E700474FF650F701E7E0009
:10593400EEC3940A5062AC0CAD0DAA0AAB0BEEF99F
:10594400120D81E960037508000E80E4AA0EAB0F06
:105954001216998A108B11AE10AF11EE4F60367C7F
:10596400007D00EE2405FAEF3400FB8E828F83A3C2
:10597400A3A3A3E0F9120D5DE9F509E509C3940AAF
:105984005016AC0CAD0DAA0AAB0BA909120D81E996
:105994007508008003750814A9087F0A0220A27400
:1059A400F7121FD0EAFEEBFF9003B2EEF0A3EFF084
:1059B400900398E0FC7D007A267B001211C5E9F57E
:1059C40008900398E0F912142F7F010220A274F2C8
:1059D400121FD074EC121F798A0A8B0B850A8285F8
:1059E4000B83A3A3E024FA7003025E3224FD700348
:1059F400025CA8147003025AC514601024FD7003DD
:105A0400025C50147003025CE8025EA0AE0AAF0BA5
:105A14009003B2E0F8A3E0F9E84960699003B2E0CA
:105A2400F8A3E0F5838882E0F8A3E0F9E84960553B
:105A3400EE240CF582EF3400F583E0F508780812C3
:105A440021E7EE240BF582EF3400F583E0F98E8232
:105A54008F83A3A3A3A3A3A3A3A3A3E0FCA3E0FD19
:105A6400EE2403FAEF3400FB9003B2E0F8A3E0F570
:105A7400838882E0F8A3E0F5838882121FCE740144
:105A8400121F8F80398E828F83A3A3A3A3A3A3A302
:105A9400A3A31221FA9003AE121E671212617402BC
:105AA400121F8FE9601879018E828F83A3A3A3A3A9
:105AB400A3A3A3A3A3E0FAA3E0FB12125BE9025E93
:105AC400A0AE0AAF0B8E828F83A3E06003025BFE5D
:105AD4008E828F83A3A3A3A3A3E0A2E04003025B6F
:105AE400FE90044CE0F8A3E0F9E8496003025BFE91
:105AF4007C0E7D007900851882851983AA82AB8388
:105B0400120B1D8A088B09AA08AB09EE240CF58236
:105B1400EF3400F583E0F8A3E0F9E849603B750849
:105B24000675090078081221E3EE240CF582EF349F
