:020000040000FA
:0600000002011D022B07A6
:03002B000223C7E6
:0300330002239F06
:03005300022B7A03
:03006B0002234627
:03007B0002236EEF
:10008300022973E5C754F84401F5C779012200003A
:100093000080FB120086B90003020107E47921788E
:1000A30008B800028004F709D8FCE479297802B87B
:1000B30000028004F709D8FCE490028178F1790802
:1000C3008002F0A3D8FCD9FA781A90014D7A01BACC
:1000D30000028007E493A3F608DAF9900A71AA8272
:1000E300AB8390014E786179098015E493A3AC82C8
:1000F300AD838A828B83F0A3AA82AB838C828D83A8
:10010300D8E9D9E77582A675839F740412012F7508
:100113008291758300740012012F75D00075813FA1
:10012300751881751902759F00020096C09FF59F8F
:10013300E473D09F22D083D082C09FE493C0E07445
:100143000193C0E0740293F59F2201AE09B409BA8A
:1001530009C009C609CC09D209D809DE09E409EAAC
:1001630009F009F609FC09020A080A68FFFF037B84
:10017300034CCD6C03AB0336567600680402CB47C1
:10018300A202180400058BC1010C04000000000347
:100193007F060CC92C979797038903264666006C44
:1001A300022000024004000000000244040000009A
:1001B3000002480400000000024C0400000000029A
:1001C3005004000000000254040000000002580420
:1001D30000000000025C040000000002BC040000F8
:1001E300000001EC0400004000037F060CC92C97BB
:1001F30097970402030D355D040904872D353D00EF
:10020300A3010000000001078601FE074105F1205C
:10021300283038077E01300746019A074704F12842
:100223003038076C04F1283038021602000101B29D
:1002330002FFFF0190040923A135016A02060001B0
:10024300600800000000000000000060044000009F
:10025300000162020000006004004000000B095628
:10026300756C7475726545676705122F013F01024E
:100273000A000201061302444401020304050607AF
:1002830008090A0B0C0D0E0F1045676700D007E82D
:1002930003E8037011E803E803D00760EA2A008A41
:1002A3000C0000C00CCC0CD20CD80CDE0C12416339
:1002B30063656C2E2044617461000A416363656C5D
:1002C3002E20436F6E662E000A0A416363656C2E0F
:1002D30020506572696F640002EE8A010000188C79
:1002E300023E8C010000D30B10288A010000430357
:1002F30002448C030000460302428C010000D40B2D
:10030300023E8C010000E00B10388A0300004C030E
:1003130002428C010000E10B023E8C010000EE0B57
:1003230010488A030000EF0B02428C010000F00B1F
:10033300124261726F6D2E2044617461000A426142
:10034300726F6D2E20436F6E662E00024261726FD4
:100353006D2E2043616C6962722E000A0A4261723B
:100363006F6D2E20506572696F640002EE8A010082
:1003730000398C023E8C010000560C10788A010073
:10038300004D0302448C030000510302428C010020
:1003930000570C023E8C010000630C10888A030096
:1003A30000570302428C010000640C023E8C0100E2
:1003B30000810C10A88A030000820C02428C010009
:1003C30000830C023E8C010000710C10988A01001E
:1003D30000580302448C030000680302428C0100AE
:1003E30000720C12436F6E6E2E20506172616D733A
:1003F3000008436F6E6E2E20506172616D73205240
:1004030065710008446973636F6E6E65637420528F
:1004130065710002EE8A0100001B8C023E8C010014
:1004230000090D10588A010000700302448C030078
:1004330000760302428C0100000A0D023E8C01008B
:1004430000170D10088A0200007C0302428C010091
:1004530000180D023E8C010000290D10F8890200DE
:1004630000840302428C0100002A0D020202313291
:100473003334353637383930313200020202020262
:1004830002010D000000100102EE8A0100002D8C14
:10049300023E8C010000910D02648C010000850373
:1004A300023E8C010000920D02628C010000948BCD
:1004B300023E8C010000930D025C8C010000940D40
:1004C300023E8C010000A20D02588C010000168B25
:1004D300023E8C010000A30D02568C010000A58B87
:1004E300023E8C010000A10D024E8C0100005E8BC8
:1004F300023E8C010000A40D024C8C010000D98740
:10050300023E8C010000A50D024A8C010000C88A3E
:10051300023E8C010000A60D02468C010000A70DCF
:1005230012447331386232302E2044617461000A00
:10053300447331386232302E20436F6E662E000AC8
:10054300D007447331386232302E20506572696FA0
:10055300640002EE8A010000308C023E8C01000030
:10056300460E10C8890100008F0302448C0300006B
:10057300910302428C010000470E023E8C010000F1
:10058300550E10B889030000970302428C01000046
:10059300560E023E8C010000650E10A88903000070
:1005A300660E02428C010000680E01E803053F104D
:1005B3000A124779726F2044617461000A477972A5
:1005C3006F20436F6E662E000A0A4779726F2050C0
:1005D3006572696F640002EE8A010000158C023EA9
:1005E3008C010000D70E10888901000052040244D8
:1005F3008C030000580402428C010000D80E023E16
:100603008C010000E20E1078890300005E040242B0
:100613008C010000E30E023E8C010000EE0E106818
:1006230089030000EF0E02428C010000F00E01036B
:100633000080700061801248756D69642E204461EA
:100643007461000A48756D69642E20436F6E662ECF
:10065300000AD00748756D69642E20506572696F72
:10066300640002EE8A010000218C023E8C0100002E
:100673005C0F104889010000C20402448C0300008F
:10068300C60402428C0100005D0F023E8C01000093
:10069300690F103889030000CC0402428C0100006A
:1006A3006A0F023E8C010000770F102889030000B7
:1006B300780F02428C0100007A0F1254656D702E80
:1006C3002044617461000A54656D702E20436F6E7F
:1006D300662E000A1E54656D702E20506572696F78
:1006E300640002EE8A010000338C023E8C0100009C
:1006F300E00F100889010000CD0402448C030000C0
:10070300D10402428C010000E10F023E8C01000083
:10071300EC0F10F888030000D70402428C0100009C
:10072300ED0F023E8C010000F90F10E88803000072
:10073300FA0F02428C010000FB0F124D61676E2E0F
:100743002044617461000A4D61676E2E20436F6E11
:10075300662E000A0A4D61676E2E20506572696F1E
:10076300640002EE8A010000368C023E8C01000018
:10077300601010C888010000D80402448C030000F4
:10078300DE0402428C0100006110023E8C01000075
:100793006C1010B888030000E40402428C010000CE
:1007A3006D10023E8C010000791010A88803000030
:1007B3007A1002428C0100007B10124D70753630A6
:1007C30035302E2044617461000A4D707536303522
:1007D300302E20436F6E662E000AC8004D707536AA
:1007E3003035302E20506572696F640002EE8A0145
:1007F30000002A8C023E8C010000E0101088880162
:100803000000E70402448C030000F50402428C015B
:100813000000E110023E8C010000EF101078880305
:100823000000FB0402428C010000F010023E8C0128
:100833000000FF10106888030000001102428C01C1
:1008430000000211FF0001307503020106000000E1
:100853000000000000000000000000000000000095
:10086300000000000000000000FFFF0600800CE80D
:1008730003104B6579205072657373205374617450
:10088300650002EE8A010000278C023E8C01000005
:10089300971102528C000000AB0502448C03000048
:1008A300AC0502428C0100009811FF0000B4000067
:1008B30028002800283075A000A000A000A0000098
:1008C300080008E001F000100010001000100010F4
:1008D30000100050005000500010001000D007001E
:1008E30000000000000F0001000500307507001034
:1008F30000010081FF00000000FFF6121413FC1238
:10090300FF02020208025000A0000000E80302EE0A
:100913008A010000248C023E8C0100002712024849
:100923008C010000E405023E8C01000028120254F1
:100933008C010000FA05023E8C0100002912025AC4
:100943008C010000FC05023E8C0100002A120260AB
:100953008C080000FD05023E8C0100002B12026A88
:100963008C0100002C12FF0100FF2002EE8A01001F
:10097300001E8C023E8C0100009012026C8C000061
:1009830000000002448C0300004A06CC18CC18CCAB
:1009930018CC18CC18CC18CC18CC18CC18CC18CC34
:1009A30018CC18CC18601B781B5A1B12013877B966
:1009B30003120138C3B90312013819BA03120138FB
:1009C300BEBA0312013872BB0312013891BB031282
:1009D3000138B0BB03120138DEBB0312013811BC6E
:1009E300031201388ABC0312013810BD0312013807
:1009F300B0BD0312013875BE03120138A7BE03123E
:100A03000138DCBE031201380ABF03120138B2F009
:100A130002120138D1F002120138F4F00212013847
:100A23001BF10212013842F10212013869F102127C
:100A3300013890F102120138B3F102120138D6F1F4
:100A430002120138F9F1021201381CF202120138C4
:100A53004EF20212013871F2021201389BF20212B5
:100A6300013837F3021201385CF30212013881F3C3
:100A730002120138A6F302120138CBF30212013835
:100A8300F0F30212013815F4021201383CF4021299
:100A930001387AF402120138A6F402120138D2F4B2
:100AA30002120138F7F40212013830F5021201384C
:100AB30057F50212013890F502120138B7F5021208
:100AC3000138F0F50212013817F6021201383CF62C
:100AD3000212013861F6021201389FF60212013840
:100AE300C2F602120138ECF602120138CBF70212F9
:100AF300013873F902120138C3F902120138F0FA0E
:100B0300021201380FFB0212013832FB02120138C4
:100B13000C9D03120138219D03120138799D0312A4
:100B23000138E09D03120138289E031201389E9E6E
:100B330003120138CD9E03120138DB9E03120138E4
:100B43003F9F031201387D9F03120138989F0312C0
:100B5300013830A003120138D9A0031201385CA177
:100B63000312013895A10312013820A203120138A0
:100B730077A203120138D6A203120138E8A20312A6
:100B830001380EA30312013817A30312013876A408
:100B930003120138738F0412013852900412013882
:100BA3006AF903120138AFF903120138F5F9031298
:100BB300013888FB031201383F98041201385A9810
:100BC300041201386A9804120138C19804120138DA
:100BD300F59D041201384AB3031201386AB30312B4
:100BE30001386EB403120138BAB403120138DAB40F
:100BF300031201382DB5031201389AB503120138D7
:100C0300E0B50312013844B603120138F6B80312F3
:100C130001380080041201383080041201386080EA
:100C2300041201382381041201387D810412013832
:100C3300E48604120138FC86041201385987041231
:100C430001389D8704120138CF87041201380688C2
:100C53000412013829880412013840320012013885
:100C6300D238001201389939001201389F39001225
:100C730001381F3C00120138DF44001201380A45D5
:100C830000120138104600120138424600120138A2
:100C9300424800120138794800120138B94A00125B
:100CA3000138CB4E00120138024F00120138CC4FED
:100CB300001201380350001201383A500012013873
:100CC300715000120138F050001201381351001214
:100CD30001389551001201381B5200120138EE52AF
:100CE300001201387B5300120138405400120138BE
:100CF300C699041201383C94041201380FD7031229
:100D0300013862D7031201387FD70312013854D850
:100D130003120138D1D803120138AED903120138B6
:100D230023DB0312013864C40312013889C403129C
:100D33000138E7C40312013853DB03120138A6DB81
:100D430003120138CFDB0312013838DC03120138F8
:100D530076DD0312013830DF03120138989E041246
:100D630001389C5400120138AA57001201386A59FD
:100D730000120138155A00120138B95A001201380D
:100D8300525B00120138815B001201385B60001274
:100D93000138066100120138766200120138DE6202
:100DA30000120138926300120138546600120138B0
:100DB3009366001201380767001201386667001254
:100DC3000138C567001201383468001201382769F9
:100DD300001201386D6900120138B269001201383E
:100DE300D56900120138506B00120138636B001291
:100DF30001386C6C00120138AB6C00120138D76CEF
:100E0300001201382A6D001201384B6D00120138AF
:100E13008F6D00120138E16F001201382270001249
:100E23000138CD7000120138387100120138757223
:100E330000120138329B0412013814930412013852
:100E4300C893041201387696041201385697041297
:100E530001380D99041201382B9904120138B49901
:100E630004120138EFA004120138E891041201388A
:100E7300F891041201380992041201380E930412F6
:100E830001380DF103120138B3F103120138CFF326
:100E930003120138CCFB031201382EFC0312013874
:100EA300A6FC031201384EFD031201386DFD031237
:100EB30001387DFD03120138BCFD03120138D08CCB
:100EC300041201380A8D041201387D8D0412013891
:100ED300B78D04120138C98D04120138008E041233
:100EE3000138448504120138938504120138C585FD
:100EF30004120138568604120138D28604120138CE
:100F0300008A04120138298A04120138528A041211
:100F13000138128B04120138638B04120138738871
:100F230004120138A68804120138228904120138F8
:100F3300428904120138A78904120138EF89041287
:100F43000138F28904120138E6FF01120138F8FF73
:100F530001120138FBFF01120138AE90041201386F
:100F6300FD900412013829910412013849910412A9
:100F73000138D69104120138248E04120138758E7B
:100F830004120138BC8E04120138468F0412013852
:100F9300F87F00120138BDF603120138B4F80312CA
:100FA300013820F90312013867F9031201387DC9AA
:100FB30003120138D0C903120138F9C903120138E9
:100FC300B7CA0312013820CB031201385ECC0312D7
:100FD300013818CE031201387C9A04120138E89BB9
:100FE300041201386DDF03120138C0DF0312013828
:100FF300E9DF0312013852E00312013890E10312D2
:1010030001384AE303120138CEFD0312013837FEDB
:1010130003120138F5FE0312013874FF031201387D
:10102300EEEA0312013820EB0312013828EC031215
:1010330001384DED03120138008003120138E680B8
:101043000312013833810312013876810312013808
:10105300EB81031201384C8203120138C18203125F
:1010630001389D8303120138A884031201382985AE
:1010730003120138D0860312013866870312013840
:10108300D987031201385588031201386C8803127B
:101093000138A38903120138FD8903120138FCE7E3
:1010A3000112013894EC0112013868EF0112013882
:1010B30091EF01120138A8EF01120138D1EF0112AB
:1010C300013883F00112013869F201120138A4F3E7
:1010D30001120138DAF80112013813F9011201384B
:1010E30057F90112013869FA011201381AA00412E2
:1010F30001389E9C04120138E58104120138FC81F9
:10110300041201382D820412013868820412013856
:10111300928204120138BC8204120138D382041271
:101123000138EA82041201380183041201382A8348
:10113300041201383D830412013853830412013829
:101143006683041201388D8304120138698A0312FD
:1011530001386D8B03120138A58B03120138C88B3C
:1011630003120138D38B03120138F68B03120138B3
:10117300058D03120138DA8D03120138558E0312DF
:101183000138DD8E03120138188F031201384F8F97
:1011930003120138DD8F03120138B69003120138B0
:1011A300169103120138219103120138A091031201
:1011B3000138A39103120138A69103120138359225
:1011C300031201383892031201386892031201386E
:1011D300929203120138809303120138329403125E
:1011E300013829FB0112013851FB011201387FFB41
:1011F30001120138B6FB0112013814FC0112013847
:101203005FFC01120138AAFC01120138EAFC011249
:10121300013830FD011201385EFD011201381BFE59
:101223000112013825FE0112013832FE0112013884
:1012330065FE0112013831FF011201383DFF011231
:10124300013855FF011201385FFF01120138689719
:10125300041201387697041201388E97041201386C
:10126300A69704120138519F02120138FD9F021202
:10127300013878A00212013899A102120138D5A1D0
:10128300021201387EA20212013865A3021201384C
:10129300C9A40212013820A502120138A1A5021225
:1012A300013891A602120138DEA60212013864A7A2
:1012B3000212013896A702120138AAA902120138B4
:1012C300ECA9021201380AAA021201388DAA0212ED
:1012D300013861AB0212013829AC0212013827AC84
:1012E30003120138FAAC03120138A3AD031201381B
:1012F300F6AD03120138A6AE0312013832AF031262
:1013030001381EB0031201384DB00312013860B129
:1013130003120138A8B1031201387DB20312013858
:10132300B9B203120138D5B203120138229F041255
:10133300013855E7031201386BE70312013891E7CF
:1013430003120138ADE803120138B7E8031201387C
:10135300ECE903120138E4EA031201383DBF03123A
:1013630001386DC003120138A0C003120138EAC06E
:1013730003120138B1C2031201380080021201388E
:101383006A8002120138C98102120138D98102121E
:1013930001380682021201385D8202120138068387
:1013A300021201380D8402120138D7840212013867
:1013B3003786021201387A86021201381F87021219
:1013C30001386C8702120138928702120138A08912
:1013D30002120138A58902120138AA8B02120138C0
:1013E300F78B021201386A8C021201389D8C0212AB
:1013F30001383F8D02120138E88D02120138208E28
:1014030002120138238E021201386B8E0212013848
:10141300AB8E02120138028F02120138EAF3031273
:10142300013802F4031201384AF40312013860F45C
:1014330003120138A7F403120138BBF50312013874
:1014430048F60312013893F603120138718C011226
:1014530001387D8C01120138B88C01120138FD8CE2
:1014630001120138BD8D01120138438E011201387A
:10147300A88E01120138D48E011201380D8F01128A
:1014830001384B91011201382F9301120138159540
:1014930001120138589601120138A6980112013839
:1014A300B89901120138039B01120138139C0112F0
:1014B3000138309C011201386B9C011201388D9C5C
:1014C30001120138F09C01120138B1A10112013857
:1014D30046A20112013897A201120138BEA20112DD
:1014E300013810A3011201382EA30112013888A379
:1014F3000112013871A401120138E7A50112013864
:101503006BA60112013855FB021201385FFB021270
:101513000138A2FB02120138BDFB021201384DFC57
:101523000212013875FC02120138B2FC02120138B2
:10153300E9FC0212013812FD0212013887FD021282
:1015430001389CFD02120138B1FD02120138E2FD9F
:1015530002120138F6FD021201381BFE0212013895
:1015630055FE0212013881FE02120138B9FE021241
:10157300013838FF0212013881FF02120138ABFF34
:1015830002120138D6FF021201385D9504120138A8
:10159300B1D802120138DFD8021201382DDA021253
:1015A30001380DDB021201382CDB02120138A9DBF2
:1015B30002120138ECDB0212013842DD021201385B
:1015C30003DE021201388AE0021201382BE1021213
:1015D300013821E2021201381EE30212013878E4D5
:1015E3000212013803E502120138758B0412013827
:1015F300DE8B04120138328C04120138598C041228
:1016030001388A8C0412013855CE03120138C2CE38
:101613000312013809CF0312013821D00312013814
:101623001DD10312013800D203120138A39403120F
:101633000138E59403120138B795031201389096E7
:10164300031201388A97031201386C980312013888
:10165300D598031201388B9903120138FF990312AD
:1016630001386B9A03120138949A031201380E9BC6
:1016730003120138A79B031201380C9C0312013893
:10168300219C03120138679C03120138809C0312CA
:101693000138E59C03120138E89C0312013814EE6B
:1016A300031201383CEE031201387AEE03120138BB
:1016B30038EF031201389FEF03120138BBEF031217
:1016C3000138E3EF0312013813F00312013822F05B
:1016D300031201389FF003120138C5F003120138D9
:1016E300EF8F02120138CD9102120138FF930212DB
:1016F30001383B9402120138689402120138529562
:10170300021201389D9502120138E8950212013840
:10171300FA95021201383A96021201386F960212B4
:101723000138BD9602120138EC96021201380F9768
:10173300021201385C9702120138E1970212013854
:10174300FB99021201383A9C021201387B9C021267
:1017530001381D9E021201385E9E02120138D19E8D
:1017630002120138279F02120138A97200120138B0
:10177300A77300120138407A00120138617C00120D
:1017830001382C7E00120138947F00120138D2A652
:101793000112013881A701120138AEA701120138E5
:1017A300F4A70112013834A901120138CAAA01129F
:1017B300013844AB011201385FAB01120138DAABD7
:1017C3000112013834AD0112013894AE011201380F
:1017D3009AAF01120138FBB00112013814B10112A2
:1017E300013872B10112013860B20112013893B2AB
:1017F3000112013803B3011201387DB3011201381C
:10180300C7B30112013891B40112013866B5011250
:10181300013845B601120138D0B6011201383EB77E
:1018230001120138B2B701120138DDB701120138D4
:101833009CB80112013801BA011201381EBA011213
:1018430001383DBA011201382EBB0112013853BBD6
:10185300011201387DBB01120138F8BB01120138B6
:1018630052BC01120138BBBD0112013869BE01121D
:101873000138AABE01120138DDCA021201382BCB8E
:101883000212013837CB0212013815CC021201388B
:1018930046CC0212013877CC02120138F7CC02127F
:1018A30001382FCD0212013881CD02120138BECD8D
:1018B30002120138DBCF0212013801D202120138C1
:1018C300ECD302120138D6D5021201383532001298
:1018D3000138E9D30112013819D401120138F2DABF
:1018E3000112013877DC0112013874E20112013868
:1018F3005CE30112013899E301120138BCE30112E0
:101903000138EDE301120138F6E30112013800E476
:1019130001120138EEE401120138E4E50112013845
:10192300DABE01120138D9C201120138DFC2011235
:1019330001381ACA0112013833CF0112013887E383
:10194300031201381DE40312013833E40312013892
:10195300A9E4031201381DE5031201385BE5031204
:101963000138CFE50312013848E60312013851E686
:10197300031201385DE60312013872E603120138DF
:10198300B0E603120138C6E60312013825E7031255
:101993000138C2D203120138CFD203120138E9D27F
:1019A3000312013828D30312013866D30312013816
:1019B300CBD303120138E0D303120138EBD3031264
:1019C3000138F8D3031201380FD4031201381DD4A0
:1019D3000312013828D40312013834D40312013816
:1019E30043D4031201384ED40312013871D40312C5
:1019F300013818D50312013828D50312013842D50E
:101A0300031201385FD5031201387BD50312013865
:101A1300A0D503120138ABD503120138C0D5031288
:101A23000138D4D50312013835D6031201383BD619
:101A33000312013841D60312013847D60312013885
:101A43005FD60312013892D603120138B3BC0212D7
:101A5300013837BD02120138E6BD0212013845BF15
:101A63000212013866C10212013852C20212013851
:101A730087C202120138A9C20212013858C30212E6
:101A8300013850C50212013879C5021201380BC65C
:101A9300021201383DC6021201384AC60212013849
:101AA300A1C602120138C7C60212013834C9021294
:101AB300013837CA021201388FCA0212013842AE06
:101AC300021201384CAF0212013833B0021201384E
:101AD3003DB0021201385FB0021201386BB002123E
:101AE300013804B20212013833B2021201384FB383
:101AF30002120138A8B3021201380EB502120138DE
:101B0300EDB50212013849B602120138B6B6021217
:101B13000138F1B60212013830B702120138E9B9BF
:101B23000212013803BA021201388FBA02120138C5
:101B33009DBA02120138F6BA0212013804BB02122E
:101B4300013877BB02120138DBBB0212013825BC16
:101B53000212013884E502120138A6E502120138A7
:101B6300CCE702120138E1EA02120138F9EB021262
:101B73000138ACEC021201388EED021201389F835A
:101B830004120138C4830412013836840412013864
:101B9300ADA403120138B6A403120138BFA4031283
:101BA300013896A50312013847A7031201387DA710
:101BB30003120138B7A703120138EDA70312013846
:101BC30027A8031201385BA80312013887A8031260
:101BD3000138D0A8031201380AA90312013853A906
:101BE30003120138ABA903120138E0A9031201382B
:101BF3003BAA0312013875AA03120138C6AA0312BD
:101C03000138FCAA0312013836AB0312013864AB66
:101C13000312013887AB031201384A9D04120138BD
:101C2300769D04120138D19D04120138DB9D041204
:101C33000138EB9D041201387FA004120138CDFF57
:101C430003120138BE7F00120138D1A004E0667090
:101C53001008A3E066700A08A3E066700408A3E016
:101C63006622C3E7960809E7960809E7960809E795
:101C73009622C3E09608A3E09608A3E09608A3E0A3
:101C83009622C008C3E096F50808A3E09642080828
:101C9300A3E096420808A3E09645087001D3D00854
:101CA30022080808EAC0E0EBC0E086F0E7A4FA18CF
:101CB3000986F0E7A42AFA180986F0E7A42AFA1895
:101CC3000986F0E7A42AFA1986F0E7A4FBE5F02ACF
:101CD300FA190886F0E7A42BFBE5F03AFA1908860F
:101CE300F0E7A42BFBE5F03AFA18180986F0E7A40D
:101CF300C5F02BFBE43AFA1908E7C5F0C6A426F6AB
:101D0300E5F03BFBE43AFA1886F0E7A4F6E5F008C1
:101D130026F6E43B08F6E43A08F6D0E0FBD0E0FA16
:101D230022E4CFC0E0E4CEC0E0E4CDC0E0E4CCC028
:101D3300E075F020C3E633F608E633F608E633F63B
:101D430008E633F6181818EC33FCED33FDEE33FEDA
:101D5300EF33FFC3EC9709ED9709EE9709EF971956
:101D63001919400FFFEC97FC09ED97FD09EE97FE5B
:101D7300191906D5F0BEECF709EDF709EEF709EFEF
:101D8300F7191919D0E0FCD0E0FDD0E0FED0E0FF58
:101D9300226016080808C6C313C618C613C618C699
:101DA30013C618C613C6D5E0EA227009080808222C
:101DB3006016181818C6C333C608C633C608C63318
:101DC300C608C633C6D5E0EA22E627F60809E63791
:101DD300F60809E637F60809E637F622E026F6089C
:101DE300A3E036F608A3E036F608A3E036F622E0D1
:101DF30026F008A3E036F008A3E036F008A3E036A7
:101E0300F022C3E697F60809E697F60809E697F67F
:101E13000809E697F622C3E096F008A3E096F008D7
:101E2300A3E096F008A3E096F022E657F60809E649
:101E330057F60809E657F60809E657F622E056F67C
:101E430008A3E056F608A3E056F608A3E056F622E8
:101E5300E056F008A3E056F008A3E056F008A3E02C
:101E630056F022E0F608A3E0F608A3E0F608A3E0A4
:101E7300F622E6F008A3E6F008A3E6F008A3E6F0EE
:101E830022E0FAA3E0FBA3E0FCA3E0FD22EAF0A337
:101E9300EBF0A3ECF0A3EDF022CAC0E0E6F0A30858
:101EA300DAFAD0E0FA22CAC0E0E0A3C582CCC58248
:101EB300C583CDC583F0A3C582CCC582C583CDC5FB
:101EC30083DAE6D0E0CA22C3E498F8E499F9121F52
:101ED3000B8026C3E49AFAE49BFBE920E7E9121F8F
:101EE3000BE498F8E499F922C3E498F8E499F91219
:101EF3001F0BE498F8E499F9C3E49AFAE49BFB22F4
:101F0300EB20E7CFE920E7E0B90010BB0008E88A3F
:101F1300F084F8AAF022E4FBC8FA22EB70227B10CB
:101F2300C833C8C933C9335007C39AC3DBF2800629
:101F33009A50012ADBEAC833F4C8C933F4C9FA2238
:101F430075F008E4C833C8C933C933C99AC99B506B
:101F530004C92AC93BD5F0ECFBC833F4C8E4C9FA79
:101F630022600D08C6A2E713C618C613C6D5E0F350
:101F730022600C08C6C313C618C613C6D5E0F422E4
:101F8300700422600D18C6C333C608C633C6D5E035
:101F9300F41822251810AF08F51840021519800807
:101FA300F51840021519D2AF22C0D0251810AF087A
:101FB300F518500205198008F51850020519D2AF1B
:101FC300D0D0222518F58210AF08F5184002151954
:101FD3008008F51840021519D2AF851983222518F8
:101FE300F582E43519F58322E4732518C582C0E030
:101FF300E51934FFC583C0E0E518C3958224F810C2
:10200300AF0885831985821880088583198582180E
:10201300D2AFCEF0A3E520F0A37808E608F0A3DE64
:10202300FAEFF0A3E58124FAF8E608F0A3E608F056
:10203300A3E608F0A30808E608F0A3E608F0A31552
:10204300811581D0E0FED0E0F8158115811581E876
:10205300C0E0EEC0E0222518C582C0E0E51934FFD8
:10206300C583C0E0E518C3958224F910AF088583C2
:10207300198582188008858319858218D2AFCEF01E
:10208300A3E520F0A37808E608F0A3DEFAEFF0A3B7
:10209300E58124FBF8E608F0A3E608F0A30808E6C8
:1020A30008F0A3E608F0A315811581D0E0FED0E087
:1020B300F815811581E8C0E0EEC0E022851983851B
:1020C3001882E0A3FEE0A3F5207808E0A3F608DF7A
:1020D300FAE0A3FFE0A3C0E0E0A3C0E0E0A3C0E018
:1020E300E0A3C0E0E0A3C0E010AF088582188583B9
:1020F300198008858218858319D2AFD083D08202D4
:102103000135851983851882E0A3FEE0A3F52078C5
:1021130008E0A3F608DFFAE0A3FFE0A3C0E0E0A332
:10212300C0E0E0A3C0E0E0A3C0E010AF08858218E0
:102133008583198008858218858319D2AFD083D00F
:102143008222C0D02518C582C0E0E51934FFC583BB
:10215300C0E0E518C3958224F310AF088583198581
:1021630082188008858319858218D2AFC8F0A3E945
:10217300F0A3EAF0A3EBF0A37908E709F0A3D8FAF8
:10218300ECF0A3EDF0A3EEF0A3EFF0A3D0E0F0A307
:10219300D0E0F0A3D0E0F0A3E520F0A3E5F0F0A3B6
:1021A30022851983851882E0C0E0A3E0F9A3E0FA51
:1021B300A3E0FBA37808E0F608A3DFFAE0FCA3E0C2
:1021C300FDA3E0FEA3E0FFA3E0C0E0A3E0C0E0A323
:1021D300E0F5D0A3E0F520A3E0A3F5F010AF088568
:1021E30083198582188008858319858218D2AFD018
:1021F30082D083D0E0F8D0E0327404800674028089
:10220300027401C0E0F404121FC6D0E0121E9C2227
:102213007404800474028000CCC0E0EDC0E0E518D3
:10222300C39CCCAD1950011D10AF068C188D1980BD
:10223300068C188D19D2AF121EA9D0E0FDD0E0FC98
:1022430022D083D082E9C0E0E493A3C386F0C5F033
:1022530095F0F908E493A386F0C5F095F0700BE4CC
:1022630093A3C3994005E9048002A3E475F002A493
:102273002582F582E5F03583F583D0E0F9E493A375
:10228300C0E0E493C0E022D083D082ECC0E0EDC094
:10229300E0E493A3FCE493A3FDED4C600D1222D67E
:1022A300EC24FFFCED34FFFD80EFE493A3FCE49307
:1022B300A3FDED4C600D122315EC24FFFCED34FF60
:1022C300FD80EFD0E0FDD0E0FCE493A3C0E0E49315
:1022D300C0E022C0E0C3E4939608740193961840CB
:1022E3000FE4936670080874019366187000701900
:1022F300A3A3C3E49396087401939618A3A3400D74
:10230300D0E0D0E0D0E00222C6A3A3A3A3A3A3D02E
:10231300E022C0E0C0F088F0E4936670080874011E
:102323009366187000A8F0A3A3700BD0F0D0E0D090
:10233300E0D0E00222C6A3A3D0F0D0E022C2AF02D5
:10234300000022C0E074F2122145A2AFE433FED2B2
:10235300AFE589A2E05003120F36758900C2C5EEBE
:10236300F8EEA2E092AF7F010221A4C0E074F21262
:102373002145A2AFE433FED2AFE58AA2E64006E5EB
:102383008AA2E75003120F36758A00758A00C2EBE2
:10239300EEF8EEA2E092AF7F010221A4C0E0C0D02C
:1023A300E8C0E0E9C0E0A2AFE433F8D2AF758B0038
:1023B300C2E8E8F9E8A2E092AFD0E0F9D0E0F8D0C3
:1023C300D0D0E032C0E0C0D0E8C0E0E9C0E0A2AFC6
:1023D300E433F8D2AFC2C7751A00E8F9E8A2E09275
:1023E300AFD0E0F9D0E0F8D0D0D0E03274F51220CD
:1023F30059EAFEEBFFEE2434F8EF3400F98808893C
:1024030009EE2435F582EF3400F583E0F8EE243746
:10241300F582EF3400F583E0F50AEC850AF0A4FCBD
:10242300AAF0850AF0EDA42AFDE82CF8E43DF97A38
:10243300257B00121F0BEA850882850983F0F87457
:102443000758F97401B900028004C333D9FCFAE8D0
:10245300131313541FF8EE28F8EF3400F9E8245D42
:10246300F582E93400F583E05A6008EE2434F582FE
:10247300EF802CEE2434F582EF3400F583E0C0E0E6
:10248300EE2436F582EF3400F583E0F5F0D0E084F6
:10249300A8F0EE28F8EF3400F9E82438F582E9349F
:1024A30000F583E0F97F0402210574F5122059EA4F
:1024B300FEEBFFEE2434F582EF3400F583E0C0E059
:1024C300EE2435F582EF3400F583D0E0F08E828F71
:1024D30083A3A3A3A3A3A3A3C082C0838E828F835A
:1024E300A3A3A3A3A3E0F8A3E0F9D083D082E0C31E
:1024F30098F508A3E099F509EE247FF582EF3400FF
:10250300F583E064017069EE2480F582EF3400F511
:1025130083E0F8A3E0F98E828F83A3A3A3A3A3A3ED
:10252300A3E0FCA3E0FD8E828F83A3A3A3A3A3E078
:10253300FAA3E0FBC3EA9CEB9D5010C3EC98ED9922
:10254300402EC3EA98EB995027800EC3EA98EB9983
:102553004007C3EC98ED9940177C0D7D08EEFAEF28
:10256300FB12182AEE247FF582EF3400F583E4F0A2
:10257300EE2434F8EF3400F9E8FCE9FDEE2435F5F8
:1025830082EF3400F583E0F8EE2437F582EF340070
:10259300F583E0F50AE508850AF0A4F508AAF085B5
:1025A3000AF0E509A42AF509E82508F8E43509F94C
:1025B3007A257B00121F0BEA8C828D83F0F8740757
:1025C30058F97401B900028004C333D9FCFAE81343
:1025D3001313541FF8EE28F8EF3400F9E8245DF5DF
:1025E30082E93400F583E05A6008EE2434F582EF83
:1025F300802CEE2434F582EF3400F583E0C0E0EE66
:102603002436F582EF3400F583E0F5F0D0E084A8BA
:10261300F0EE28F8EF3400F9E82438F582E93400C5
:10262300F583E0F91232270224A8C082C0838518FB
:1026330082851983E0F8A3E0F9C3EA9CEB9D50106F
:10264300C3EC98ED99401BC3EA98EB995014800EA4
:10265300C3EA98EB994007C3EC98ED9940047901DC
:1026630080027900D083D08222EAC39CFAEB9DFBDF
:102673002274EF1220599006D3E064086005E064E9
:1026830007702A9061C8E06024900701E0F4601DA0
:10269300E0F875F003A4C8AAF02AF9740328FE74BD
:1026A3000739FF8E828F83A3A3A3E070030227A4BD
:1026B300906060E0C0E0EE2468F582EF3400F583BB
:1026C300D0E0F0750C76750D08750800750900E506
:1026D300D914F50AE5D95403F50E60177403650E92
:1026E300605CE50A6010EE2467F582EF3400F58341
:1026F300E07003022789900871E06401602AEE24E8
:1027030082F582EF3400F583E06004780480027878
:1027130000850A08E508C398FA95E0FB1216F28AC9
:10272300088B09EA45097005121A2E8074EE24827B
:10273300F582EF3400F583E070048A0C8B0DE50A13
:102743006012850C82850D83F50BE5D9F0A3150B7B
:10275300E50B70F6EE2482F582EF3400F583E0603A
:102763004474FC250AF50A780C122200AC0AA90E5F
:10277300EEFAEFFB1218C67402121FACE97026AA18
:1027830008AB0912100E793D8E828F83A3A3A3A3F6
:10279300E0FA7B001215C6EEFAEFFB12184212188C
:1027A300D8790080747403650E6056850A1075111C
:1027B300007810122200AC0CAD0DAA08AB09121858
:1027C300A27402121FACEE2468F582EF3400F58385
:1027D300E064807004747F8001E0F50C780C1222B1
:1027E30004E50EF50C780C122204A90AAC08AD0915
:1027F300900701E0FA7B0012158A7402121FAC8065
:10280300139006D3E06408600BAC0CAD0DEEFAEF49
:10281300FB121932121A3A79017F0A02210574F563
:1028230012205974FC121F96EAFEEBFF8908A2AF2F
:10283300E433F509C2AF806AEE2463F8EF3400F99C
:102843007A007B00A2AFE433F50AC2AF88828983A2
:10285300E0FCA3E0FDEC4D603A88828983E0FAA3B3
:10286300E0FB8A828B83E0FCA3E0FD88828983EC12
:10287300F0A3EDF08A828B83E4F0A3F0888289834E
:10288300E0FCA3E0FDEC4D700A88828983A3A3E4F6
:10289300F0A3F0E50AA2E092AF12100E900814E044
:1028A30004F0EE2463F582EF3400F583E0F8A3E04F
:1028B300F9E849603DEE2463F582EF3400F583E0E7
:1028C3002402FAA3E03400FBEA2402F50AEB340005
:1028D300F50B780A1222008A828B83E0FCA3E0F9CD
:1028E300EEFAEFFB1218667402121FACE9700302D2
:1028F300283B900814E06063900815E0F8900814F2
:10290300E0C398500C740265087050900816E0609C
:102913004A8E828F83A3A3A3A3E08518828519839C
:10292300F0A3E4F0900814E0F87402121FE1E8F059
:10293300A3E4F0900814E0F8900813E028F0740280
:10294300121FE1AC82AD83851882851983AA82ABFD
:10295300837901121596900814E4F0E509A2E09238
:10296300AF7404121FAC0224A88521878522C622D6
:10297300C0E0C0D0E8C0E0E9C0E0EAC0E0EBC0E0FE
:10298300ECC0E0EDC0E0EEC0E0C008C009C00AC082
:102993000BC082C083C0F0A2AFE433FEC2AF759B0D
:1029A30000906182E0A2E05012E591A2E0500C7524
:1029B30091FE740165217003122674E0A2E5505163
:1029C300E591A2E5504B7591DF9006D3E064076073
:1029D30005E064087023740165217035790190075F
:1029E30001E0FA75F003A4CAA8F028FB74032AFADD
:1029F30074073BFB1228218018E0640D70139006C6
:102A0300F5E004F064287002E4F07A00E0F9121AA9
:102A130040906182E0A2E64003022ABAE591A2E671
:102A23004003022ABA7591BF9006D3E0640570088B
:102A3300121968121974800312196E752100121984
:102A4300CEE99006D4F079001219C21217A07A01C8
:102A53007B009006D2E0F9120B6A907803E064429F
:102A63007055900875E014F0704DC2AF122A7200D1
:102A7300782AD0E0F618D0E0F6E59F540770057584
:102A830009FF800375097FC4C0E07829E6F50808CB
:102A9300E65509F509740B7808121F74D0E0250870
:102AA300F8906270E0A2E740F8E8C333906272F0F6
:102AB300906270E0D2E0F0906181E0A2E35009E51A
:102AC300E9A2E3500375E9F7A3E0A2E75009E59112
:102AD300A2E7500375917FEEA2E092AFD0F0D083CE
:102AE300D082D00BD00AD009D008D0E0FED0E0FDD0
:102AF300D0E0FCD0E0FBD0E0FAD0E0F9D0E0F8D0B1
:102B0300D0D0E032C0E0C0D0C082C083906183E007
:102B1300A2E05009E5BFA2E0500375BFFEE0A2E1C9
:102B23005009E5BFA2E1500375BFFDE0A2E25009E1
:102B3300E5BFA2E2500375BFFBE0A2E35009E5BF86
:102B4300A2E3500375BFF7E0A2E45009E5BFA2E496
:102B5300500375BFEFE0A2E55009E5BFA2E55003BE
:102B630075BFDFE0A2E65009E5BFA2E6500375BFDB
:102B7300BFD083D0828088C0E0C0D0E8C0E0E9C085
:102B8300E0EAC0E0EBC0E0ECC0E0EDC0E0C0F0E59F
:102B9300A7A2E6500FE5A1A2E6500953A7BF75A16E
:102BA300BF122BDFE5A7A2E5500CE5A1A2E5500675
:102BB30053A7DF75A1DFE5A7A2E15009E5A1A2E1D3
:102BC300500375A1FDE5A7A2E2500CE5A1A2E250D6
:102BD3000653A7FB75A1FBD0F0022AF074F812206C
:102BE300597521019006D3E0640670151218F68A10
:102BF300828B83A3A3A3A3A3A3E0FAA3E0FB1219ED
:102C030056A2AFE433FED2AF9006D9E06401701848
:102C13007A207B009006D2E0F9120BFA7A207B002F
:102C23009006D2E0F9120B70906182E0D2E6F09048
:102C33000872E0602185C62280169006D8E0640100
:102C43007008E5C654F84405F5C653BEFC12296C5A
:102C53007401652160E4EEA2E092AF7F01022105D9
:102C6300008E238F248582288583278518828519E2
:102C730083E0CEA3E0CF852882852783EBC9EAC80A
:102C8300EDCBECCA75F010C3E833C8E933C9EA33B6
:102C9300CAEB33CBC3EA9EF526EB9FF525B350046D
:102CA300AB25AA26EC33CCED33CDD5F0DAAE23AF8A
:102CB300242274E912205974F8121F96851882850C
:102CC3001983ECF0A3EDF08A088B099006D3E02476
:102CD300F7C394055006750801022E4C1218F68AA4
:102CE3000A8B0BAE0AAF0BEE4F7003022E49AC08F2
:102CF300AD097402121FE1AA82AB831219868E8278
:102D03008F83A3A3750CFF750DFF750EFF750F0061
:102D1300780C121E407402121FE17510FF7511FF2B
:102D23007512FF7513007810121E40780C7910127B
:102D33001C65502A780C7910121E05750801750957
:102D4300C8750A00750B007808790C121C6550527F
:102D5300850C08850D09850E0A850F0B80507514A7
:102D6300017515C8751600751700851008851109BA
:102D730085120A85130B7808790C121E05781479CD
:102D830008121C65401C750800750900750A00755A
:102D93000B0178087910121E057808790C121DCCE6
:102DA300800C750801750900750A00750B0074091C
:102DB3007808121DAD750C19F50DF50EF50F780891
:102DC300790C121D248E828F83A3A3A3A3A3A3E054
:102DD300F8A3E0F97AD07B03121F0B880C890DE46A
:102DE300F50EF50F7808790C121DCC7406121FE14D
:102DF300E0F8A3E0F97AD07B03121F0BE8FA8A0C00
:102E0300E4F50D7808790C121C6550077808790CE5
:102E1300121E059006D3E06408600AE064066005AC
:102E2300E06405702D750C0D780C7908121C654053
:102E330021750CF4750DFF750EFF750FFF7808797A
:102E43000C121DCC800C750800750900750A0075FD
:102E53000B00851882851983E0F8A3E0F583888247
:102E63007808121E757408121FAC7F1002210574B6
:102E7300F7122059121998900870E06401701090AD
:102E83006245E4F0A3F053F4F343FE0C5390F312C2
:102E93001944E5C654804449F5C6E59E547F644908
:102EA30070F8906185740FF090086EE0F47002A3DF
:102EB300E0604E90086FE0600814601B14602E8081
:102EC3004075080175090090086EE07808121F83A9
:102ED300E508F45280802A75080175090090086E90
:102EE300E07808121F83E508F452908014750801F6
:102EF30075090090086EE07808121F83E508F45204
:102F0300A079007F0202210574F7122059E9FEEA35
:102F1300FF74016E700C7A807B009006D2E0F91288
:102F23000B6A903238E493F46008E493F91217942F
:102F3300800953C680E59E547F70FA12194A90089F
:102F430070E0640170031217AC90086EE0F4700235
:102F5300A3E0604B90086FE0600814601A14602CC3
:102F6300803D75080175090090086EE07808121F0E
:102F730083E5084280802875080175090090086E72
:102F8300E07808121F83E5084290801375080175E5
:102F9300090090086EE07808121F83E50842A0122A
:102FA30019981218F68A088B09A808A909E8496034
:102FB30015E5E170FCE82414F582E93400F583E0BB
:102FC300F46003E0F5E174016F700A7A019006D2B0
:102FD300E0F9120BC4022F0674ED1220598A088BF4
:102FE300098C0A8D0B7413121FE1780C121E66787C
:102FF30008790C121C657510017511C875120075DE
:10300300130050127808790C121E057810790812F3
:103013001C6550168010780C7908121E05781079FB
:103023000C121C6540047901800279007F0C022197
:103033000574ED1220598A088B098C0A8D0B7413C1
:10304300121FE1780C121E66780C7908121C654079
:10305300117808790C121E05AA08AB09AC0AAD0B4E
:103063008022751000751100751200751301781018
:10307300790C121E0578107908121DCCAA10AB1119
:10308300AC12AD1380A68A828B837508FF7509FF86
:10309300750AFF750B007808121E537F0402210581
:1030A30074F51220598C828D837808121E668A82E9
:1030B3008B837808121E19EA2404F8EB3400F98C88
:1030C300828D83A3A3A3A3E0FCA3E0FD888289836D
:1030D300C3E09CF0A3E09DF088828983C3E0942041
:1030E300A3E0944E40268A828B837508FF7509FFFF
:1030F300750AFF750BFF7808121DF28A828B83A372
:10310300A3A3A3E02420F0A3E0344EF0023089749B
:10311300F5122059E9FE900828E0FAA3E0FBEEC37C
:1031230033F8E433F9743828F582748839F583E089
:103133002AF508A3E03BF50978081222007A407BC0
:10314300427C0F7D00122C647402121FAC8A088B20
:10315300098C0A8D0B74107808121D94AA08AB0908
:103163007F0402210574F11220598A0C8B0D8C0EF9
:103173008D0F740F121FE1E0FAA3E0FB7411121F0D
:10318300E1E0F508A3E0F5097808122200EA24013A
:10319300F508EB3400F509E4F50AF50B780C79082A
:1031A300121CA4750871750902780C7908121CA405
:1031B300AA0CAB0DAC0EAD0F122C647402121FAC33
:1031C3008B09EA450960047A0180027A00EC2AFC43
:1031D300ED3400FD7413121FE1E0F8A3E0F9E8FEFB
:1031E300E9FFECF8EDF97A717B02121F0B8808896D
:1031F300098E828F837808121E75ECF8EDF97A71C7
:103203007B02121F0B8A088B0974057808121F832F
:103213008E828F83A3A3A3A3E508F0A3E509F07F20
:1032230008022105C082C083E9906000F0D083D0FA
:103233008222020135FFFFFFFFFFFFFFFF74ED1244
:103243001FED746C121F96120A7A7C007D007E00BB
:103253007F007410121FE1ECF0A3EDF0A3EEF0A3D6
:10326300EFF0908BD57808121E667410121FE17868
:1032730008121C755014908BC17808121E667410C6
:10328300121FE17808121DF280D87900120A807BA0
:10329300017A017910120AD47906120ADA120AE0C5
:1032A300E9F5127B007A007900120AD4120A98E930
:1032B300F50F120AA4E9F50E120AB0E9F50D120A88
:1032C300BCE9F50C7A7F7900120A4A7900120A6880
:1032D3007A687900120A4A120A747C007D007E0023
:1032E3007F007410121FE1ECF0A3EDF0A3EEF0A346
:1032F300EFF0908BD97808121E667410121FE178D4
:1033030008121C755014908BC17808121E66741035
:10331300121FE17808121DF280D87508017808128F
:103323002204750800780812220479007C897D073D
:103333007A007B80120AF27402121FACE970030256
:1033430038C67CC07D007A947B0A120AFEE97003BA
:103353000238C27903120A867912120A50790412CA
:103363000A147901120A1A7903120A207903120A3C
:10337300267903120B047900120B0A7900120A9EB4
:10338300A90E120AAAA90D120AB6A90C120AC2752D
:103393000A00750B00750800E508C39404402485F2
:1033A30008107511007402121FE1E0F8790024037C
:1033B300F8E93400F9C3E51098E51199A2D265D074
:1033C30033503A7454250AF582740B350BF583E0B8
:1033D300C0E0850810751100851882851983E58280
:1033E3002510F582E5833511F583D0E0F00508E576
:1033F3000A2401F50AE50B3400F50B809B750900DF
:10340300780912220475090178091222047403123F
:103413001FE1E0F50978091222047403121FE1E0A9
:10342300F97405121FE1E0FC7D007406121FE1AA86
:1034330082AB83120AEC7403121FACE9750800E532
:1034430008C3940440248508107511007402121FE8
:10345300E1E0F879002403F8E93400F9C3E51098B2
:10346300E51199A2D265D033503A7454250AF582F6
:10347300740B350BF583E0C0E085081075110085EA
:103483001882851983E5822510F582E5833511F5C8
:1034930083D0E0F00508E50A2401F50AE50B3400C2
:1034A300F50B809B750900780912220475090178D0
:1034B300091222047403121FE1E0F50978091222AC
:1034C300047403121FE1E0F97405121FE1E0FC7DAF
:1034D300007406121FE1AA82AB83120AEC74031272
:1034E3001FACE9120A6E120A8C8A108B11AE10AF50
:1034F30011E510A9107414121FE1AA82AB83120AFA
:10350300927902120A32799C120A3E7950120A38D1
:103513007900120A44120A6E7901120A62790112C1
:103523000AC8120ACE750800E508C394044024852E
:1035330008107511007402121FE1E0F879002403EA
:10354300F8E93400F9C3E51098E51199A2D265D0E2
:1035530033503A7454250AF582740B350BF583E026
:10356300C0E0850810751100851882851983E582EE
:103573002510F582E5833511F583D0E0F00508E5E4
:103583000A2401F50AE50B3400F50B809B7509004D
:1035930078091222047509017809122204740312AE
:1035A3001FE1E0F50978091222047403121FE1E018
:1035B300F97405121FE1E0FC7D007406121FE1AAF5
:1035C30082AB83120AEC7403121FACE9750800E5A1
:1035D30008C3940440248508107511007402121F57
:1035E300E1E0F879002403F8E93400F9C3E5109821
:1035F300E51199A2D265D033503A7454250AF58265
:10360300740B350BF583E0C0E08508107511008558
:103613001882851983E5822510F582E5833511F536
:1036230083D0E0F00508E50A2401F50AE50B340030
:10363300F50B809B7509007809122204750901783E
:10364300091222047403121FE1E0F509780912221A
:10365300047403121FE1E0F97405121FE1E0FC7D1D
:10366300007406121FE1AA82AB83120AEC740312E0
:103673001FACE9750800E508C394044024850810CD
:103683007511007402121FE1E0F879002403F8E9D0
:103693003400F9C3E51098E51199A2D265D03350EF
:1036A3003A7454250AF582740B350BF583E0C0E0B8
:1036B300850810751100851882851983E582251008
:1036C300F582E5833511F583D0E0F00508E50A249A
:1036D30001F50AE50B3400F50B809B7509007809A9
:1036E30012220475090178091222047403121FE1DE
:1036F300E0F50978091222047403121FE1E0F9745A
:1037030005121FE1E0FC7D007406121FE1AA82ABE3
:1037130083120AEC7403121FACE9120A8C8A108B11
:1037230011A810A911E8FEE9FFC3E89403E9940086
:1037330040E8EEF97414121FE1AA82AB83120A92D5
:10374300120A56E9F509750800E508C394044024F4
:103753008508107511007402121FE1E0F879002446
:1037630003F8E93400F9C3E51098E51199A2D2658D
:10377300D033503A7454250AF582740B350BF58314
:10378300E0C0E0850810751100851882851983E56E
:10379300822510F582E5833511F583D0E0F0050825
:1037A300E50A2401F50AE50B3400F50B809B74014F
:1037B300121FE1E0F51078101222047401121FE1C8
:1037C300E0F97403121FE1E0FC7D007404121FE1B1
:1037D300AA82AB83120AE67401121FAC120A8C8A06
:1037E300108B11A810A911E8FEE9FFC3E89403E9BF
:1037F300940040E8EEF97414121FE1AA82AB83121D
:103803000A92120A56E9F509750800E508C39404FB
:1038130040248508107511007402121FE1E0F87945
:10382300002403F8E93400F9C3E51098E51199A2DF
:10383300D265D033503A7454250AF582740B350B94
:10384300F583E0C0E085081075110085188285199D
:1038530083E5822510F582E5833511F583D0E0F009
:103863000508E50A2401F50AE50B3400F50B809BF6
:1038730075100078101222047510017810122204BA
:103883007403121FE1E0F51078101222047403127E
:103893001FE1E0F97405121FE1E0FC7D00740612DC
:1038A3001FE1AA82AB83120AEC7403121FACE979FD
:1038B30000120AC8120A6E120A56E97900800679C4
:1038C30002800279017494121FAC7F0B0220BF7433
:1038D300F7121FED8C828D83E0F87900E4C8F98C30
:1038E300828D83A3E0FE7F00E82EF8E93FF98A8208
:1038F3008B83E8F0A3E9F08C828D83A3A3A3A3E0D9
:10390300F87900E4C8F98C828D83A3A3A3A3A3E071
:10391300FE7F00E82EF8E93FF98A828B83A3A3E8B0
:10392300F0A3E9F08C828D83A3A3A3A3A3A3A3A3F2
:10393300E0F87900E4C8F98C828D83A3A3A3A3A341
:10394300A3A3A3A3E0FE7F00E82EF8E93FF98A8250
:103953008B83A3A3A3A3E8F0A3E9F0EC240CF582E3
:10396300ED3400F583E0F87900E4C8F9EC240DF5B3
:1039730082ED3400F583E0FE7F00E82EF8E93FF99D
:103983008A828B83A3A3A3A3A3A3E8F0A3E9F0797B
:10399300007F010220BF43FD0202013574F2121FB2
:1039A300ED74EC121F968908E5089002ACF07C04D4
:1039B3007D007A1F7B001211E2E9F5097405121FDD
:1039C300E17401F0740E121FE17401F0A37400F0AE
:1039D3007404121FE17401F0740C121FE1742FF0D0
:1039E300A37401F0740A121FE1743FF0A37401F091
:1039F3007408121FE17404F0A37400F07406121F1C
:103A0300E17458F0A37402F07405121FE1AC82ADA7
:103A13008379017A057B0312109EE9740E121FE16C
:103A2300AC82AD8379027A067B0312109EE97C8314
:103A33007D0B79157A087B0312109EE97C987D0B28
:103A430079177A077B0312109EE97404121FE1AC05
:103A530082AD8379017A107B0312109EE9740C12F4
:103A63001FE1AC82AD8379027A117B0312109EE9C8
:103A7300740A121FE1AC82AD8379027A127B0312BE
:103A8300109EE97408121FE1AC82AD8379027A13A8
:103A93007B0312109EE97406121FE1AC82AD837999
:103AA300027A147B0312109EE97CAF7D0B7A0479B2
:103AB3000012135CE97E407F06EEFCEFFD7A067B85
:103AC300001211E2E9EEFCEFFD7A077B001211E22E
:103AD300E9EEFCEFFD7A087B001211E2E9EEFCEF60
:103AE300FD7A097B001211E2E97A007B007C007DFC
:103AF300007410121FE1EAF0A3EBF0A3ECF0A3EDC6
:103B0300F07403121FE17401F07402121FE17401D7
:103B1300F07401121FE17400F08518828519837413
:103B230001F07410121FE1AC82AD8379047A087B33
:103B330004120D62E97403121FE1AC82AD837901B3
:103B43007A007B04120D62E97402121FE1AC82ADAC
:103B53008379017A027B04120D62E97401121FE179
:103B6300AC82AD8379017A037B04120D62E9851877
:103B730082851983AC82AD8379017A067B04120DA9
:103B830062E9908BED121E84121362E9908BED12A1
:103B93001E84121470E9120D26E9908BED121E8417
:103BA300120FE4E9908BED121E84120D38E9908B0D
:103BB300ED121E84120FAEE9908BED121E84120CCF
:103BC300FCE97A007903120F48E9120EBE7AC97B29
:103BD3000B120FEAE9F50A7ACB7B0B120D3EE9F5DE
:103BE3000B7ACD7B0B120FB4E9F50C7ACF7B0B125A
:103BF3000D02E9F50D7AD17B0B1210B0120C667928
:103C03000112156CE97A017B009002ACE0F9120B0A
:103C13006AE97414121FAC7F060220BF74F0121FEE
:103C2300ED74DC121F968909EAFEEBFFEE5400F8EF
:103C3300EF5480F9E84960329002ACE0F9120B527C
:103C43008A0C8B0DA80CA90D880A890BE849600F13
:103C5300AA0AAB0B120C78AA0AAB0B120B40E9EEC3
:103C63006400FAEF6480FB0244D5EE5480601B903D
:103C730002E1E0600AC2AF75C9AB75C95B80FEEEB5
:103C83006480FAEF6400FB0244D5EEA2E0501C7A94
:103C9300C57B0B1210AAE9F5087A287B03120D8065
:103CA300EE6401FAEF6400FB0244D5EE5400F8EF32
:103CB3005404F9E84960167C107D007AC77B021230
:103CC3000CEAEE6400FAEF6404FB0244D5EE5402FE
:103CD3007003023D609002AEE0605A120F12E96475
:103CE30002702F120CB4900BB7E024EDF50CA3E097
:103CF30034FEF50DE4F50EF50F780C1221FC7A0273
:103D03007B009002ACE0F9120BEE7404121FACE9D5
:103D13008040120F12E9703A120F00908BE91222C1
:103D2300137A027B009002ACE0F9120BEE740412DA
:103D33001FACE9801D120F067D047C0079007A0018
:103D43007BAA120CE47D017C0079017A007BAA1224
:103D53000CE4EE6402FAEF6400FB0244D5EE540473
:103D630060569002B0E0602B120C90900BB5E0F51A
:103D73000CA3E0F50DE4F50EF50F780C1221FC7A97
:103D8300047B009002ACE0F9120BEE7404121FAC3A
:103D9300E9801A7D037C0079007A107BAA120CE477
:103DA3007D017C0079017A107BAA120CE4EE640495
:103DB300FAEF6400FB0244D5EE5400F8EF5401F926
:103DC300E8497003023EF09002B1E07003023EE561
:103DD3009002DDE0640160089002DDE0640270237C
:103DE300908BE51222137A007B019002ACE0F9126A
:103DF3000BEE7404121FACE9EE6400FAEF6401FBEE
:103E03000244D59002DD7403F0120A56E9900327A9
:103E1300F0120A8C9002E5EAF0A3EBF0900327E09E
:103E2300A2E4400E9002E5E064007004A3E06404A1
:103E33007026120A6E908BE11222137A007B019096
:103E430002ACE0F9120BEE7404121FACE9EE64004D
:103E5300FAEF6401FB0244D5900327E0A2E150533B
:103E63009002E5C082C083900BC3E0F8A3E0F9D0D1
:103E730083D082C3E098A3E099500D120A8C90027C
:103E8300E5EAF0A3EBF080D8900BC3E0F8A3E0F9E8
:103E9300E8F97AE77B02120A92900BC3E0F8A3E0F9
:103EA300F99002E5C3E098F0A3E099F07AE77B028A
:103EB300120C96900BBFE0F50CA3E0F50DE4F50EA4
:103EC300F50F780C1221FC7A007B019002ACE0F92B
:103ED300120BEE7404121FACE99002DD7400F012B1
:103EE3000A6EEE6400FAEF6401FB0244D5EE54005F
:103EF300F8EF5408F9E849602C120C5AE9790112D9
:103F03000AC8908BDD1222137A007B019002ACE089
:103F1300F9120BEE7404121FACE9EE6400FAEF64BD
:103F230008FB0244D5EE5400F8EF5402F9E8497057
:103F3300030240469002B2E06401600302403B90FA
:103F430002DDE0640160089002DDE0640370239009
:103F53008BE51222137A007B029002ACE0F9120B7C
:103F6300EE7404121FACE9EE6400FAEF6402FB0284
:103F730044D59002DD7402F09002E0E0700F9002ED
:103F8300DBE0FAA3E0FB7900120C9C801D9002DBBE
:103F9300E0FAA3E0FBEA2401F8EB3400F99002DB3A
:103FA300E8F0A3E9F07901120C9C9002E0E07020A4
:103FB300908BE51222137A007B029002ACE0F91297
:103FC3000BEE7404121FACE99002E07401F08068F8
:103FD3009002DBC3E0940EA3E09400A2D265D03339
:103FE30040389002DD7400F09002DB7400F0A3749B
:103FF30000F0900BC1E0F50CA3E0F50DE4F50EF530
:104003000F780C1221FC7A007B029002ACE0F912CB
:104013000BEE7404121FACE98018908BAD122213BF
:104023007A007B029002ACE0F9120BEE7404121FCB
:10403300ACE99002E07400F0EE6400FAEF6402FB76
:104043000244D5EE5400F8EF5420F9E84960699032
:1040530088D8C082C0837414121FE1AC82AD83D0B0
:1040630083D0827410121EA97414121FE1AA82ABAA
:1040730083120E3AE9750A10750B00780A122200B2
:104083007416121FE1AC82AD837A9F7B0B120B1661
:104093007402121FAC908BA91222137A007B20901A
:1040A30002ACE0F9120BEE7404121FACE9EE6400EB
:1040B300FAEF6420FB0244D5EE5400F8EF5440F9C4
:1040C300E84970030241DE9002DDE064016008907C
:1040D30002DDE064037023908B991222137A007B34
:1040E300409002ACE0F9120BEE7404121FACE9EE3F
:1040F3006400FAEF6440FB0244D59002DD7402F0E1
:10410300908828C082C0837404121FE1AC82AD83FF
:10411300D083D0827410121EA97404121FE1AA82E4
:10412300AB83120E3AE97C247D0079FF7AB67B02D9
:10413300120B2E9002B674AAF09002B774BBF090E3
:1041430002B874BBF0750A10750B00780A122200CE
:104153007406121FE1AC82AD837AB97B02120B168F
:104163007402121FAC9002C9740DF09002CA740A53
:10417300F07C0B7D007AB67B02120CEA7A007B009E
:104183007C007D00851882851983EAF0A3EBF0A3F8
:10419300ECF0A3EDF0908BE5780C121E6685188287
:1041A300851983780C121C755015908BC1780C12ED
:1041B3001E66851882851983780C121DF280D67CC1
:1041C3000A7D007AC17B02120CEA9002DD7400F0D2
:1041D300EE6400FAEF6440FB0244D5EE540870032A
:1041E3000242B89002B4E070030242939002DDE011
:1041F300640360089002DDE064027023908BE51293
:1042030022137A087B009002ACE0F9120BEE7404DF
:10421300121FACE9EE6408FAEF6400FB0244D59088
:1042230002DD7401F09002DFE0F9120EC4E9F50833
:104233009002DFE064027037120CA89002DF740072
:10424300F09002DD7400F0900BB9E0F50CA3E0F5FB
:104253000DE4F50EF50F780C1221FC7A087B009023
:1042630002ACE0F9120BEE7404121FACE9803B9030
:1042730002DFE02401F0908B9D1222137A087B0069
:104283009002ACE0F9120BEE7404121FACE9801A31
:104293007D047C0079007A207BAA120CE47D017CEA
:1042A3000079017A207BAA120CE4EE6408FAEF6429
:1042B30000FB0244D5EE5410606C9002AFE0603E08
:1042C300120F5AE964027005120CA28009120F5AE8
:1042D300E97003120F60900BB3E0F50CA3E0F50D4A
:1042E300E4F50EF50F780C1221FC7A107B00900296
:1042F300ACE0F9120BEE7404121FACE9801D120F2F
:10430300667D067C0079007A307BAA120CE47D017D
:104313007C0079017A307BAA120CE4EE6410FAEF88
:104323006400FB0244D5EE542070030243C39002A1
:10433300B3E0605A9002DEE060319002DE7400F078
:10434300120CAE900BBBE0F50CA3E0F50DE4F50EFB
:10435300F50F780C1221FC7A207B009002ACE0F977
:10436300120BEE7404121FACE9804A9002DE740152
:10437300F0120E52908BCD1222137A207B00900202
:10438300ACE0F9120BEE7404121FACE980277D0434
:104393007C0079007A407BAA120CE47D017C0079D1
:1043A300017A407BAA120CE47D107C0079037A40E9
:1043B3007BAA120CE4EE6420FAEF6400FB0244D5FE
:1043C300EE54407003024492120EACE9F5089002D9
:1043D300B5E0700302446BE50870269002E2E0F951
:1043E300120EB2120E94908BF11222137A407B00BC
:1043F3009002ACE0F9120BEE7404121FACE9024414
:10440300889002E3E0600E9002E2E0F9120EB290AF
:1044130002E37400F074026508702F120CBA900B5B
:10442300BDE024C4F50CA3E034FFF50DE4F50EF56F
:104433000F780C1221FC7A407B009002ACE0F91259
:104443000BEE7404121FACE9803B120EA6E9908BAD
:10445300F11222137A407B009002ACE0F9120BEECA
:104463007404121FACE9801D120E9A7D067C00793C
:10447300007A507BAA120CE47D017C0079017A500A
:104483007BAA120CE4EE6440FAEF6400FB8043EE77
:104493005400F8EF5410F9E8496033750A58750B66
:1044A30002780A122200750A04750B00780A122298
:1044B3000079027C3F7D017A2F7B011210E67404A0
:1044C300121FACE9EE6400FAEF6410FB80047A007B
:1044D3007B007424121FAC7F080220BF74F7121FE5
:1044E300EDEAFEEBFF8E828F83E064C070148E8250
:1044F3008F83A3A3A3E0FA8E828F83A3A3E0F91291
:104503000C7E7F010220BF74F7121FED74FC121F93
:1045130096E9FEEAFF8518828519837400F0EFA2FD
:10452300E040030245CB9002E17401F0908BC51289
:1045330022137A807B009002ACE0F9120BEE740434
:10454300121FACE99002E4E0706F9002ADE06405E5
:10455300603E7403121FE1AC82AD837A057B0312C4
:1045630010A4E97403121FE1E0700A7401121FE141
:104573007401F080087401121FE17400F0740112D9
:104583001FE1AC82AD8379017A057B0312109EE9AA
:104593009002ADE0640570307402121FE17401F003
:1045A3001210B6E97402121FE1AC82AD8379017A6D
:1045B300057B0312109EE9800FEFA2E0500A8518D5
:1045C30082851983E0D2E2F0EFA2E1500A851882D6
:1045D300851983E0D2E0F0EFA2E2500A85188285C4
:1045E3001983E0D2E1F0EFA2E040069002E174000B
:1045F300F0851882851983AC82AD837A0179001224
:1046030010ECE97404121FAC7F010220BFC082C00A
:10461300839002B1E060069002B17400F09002B49E
:10462300E06009120EBE9002B47400F09002B2E092
:1046330060069002B27400F0D083D0820201357418
:10464300F4121FED74E2121F96E9FEEE14601614C5
:1046530070030247FB14700302483024FE70030208
:104663004805024833851882851983AC82AD837A65
:10467300047B031210A4E975080875090078081271
:1046830022007402121FE1AC82AD837418121FE181
:10469300AA82AB83120B167402121FAC7405121F8D
:1046A300E1E0C0E07407121FE1D0E0F07404121FD0
:1046B300E1E0C0E07406121FE1D0E0F07403121FC2
:1046C300E1E0C0E07405121FE1D0E0F07404121FB2
:1046D300E17400F07403121FE17400F08518828501
:1046E3001983AC82AD837A087900120D2CE9908C82
:1046F30068C082C0837408121FE1AC82AD83D0838B
:10470300D082740E121EA97F00750905E509C394B2
:1047130000A2D265D03350030247E8E509F8339588
:10472300E0F97416121FE1E58228F582E58339F575
:1047330083E0F508E508C3940A506B7C5E7D8CEF3B
:10474300F87900E875F002A4C8AAF075F000A42A6D
:10475300FA75F002E9A42AF97408121FE1E5822828
:10476300FAE58339FB121C447910EFFA7B00EA75F2
:10477300F002A4CAA8F075F000A428F875F002EBC3
:10478300A428FB7408121FE1E5822AF582E5833B26
:10479300F583A3AC82AD8385080A750B00AA0AAB27
:1047A3000B120C1E80357910EFFA7B00EA75F002CC
:1047B300A4CAA8F075F000A428F875F002EBA428A9
:1047C300FB7408121FE1E5822AFCE5833BFD8508A3
:1047D3000A750B00AA0AAB0B120C1E0F74FF2509F6
:1047E300F50902470F7408121FE1AC82AD837A0CFE
:1047F3007902120D2CE980387A017901120F48E908
:10480300802E908BA91222137A007B109002ACE0C9
:10481300F9120BEE7404121FACE97A007901120F3E
:1048230048E99002DD7400F0120CC68003120C8478
:10483300EE9002ADF0741E121FAC7F040220BFC0C5
:1048430082C08374FD121F96851882851983AA82FC
:10485300AB83120E46E96012851882851983AC82F8
:10486300AD837A037900120CF0E97403121FACD004
:1048730083D08202013574F4121FED74D1121F9696
:10488300EAFEEBFF7404121FE17400F0A37400F05E
:104893007402121FE17400F0A37400F0851882857E
:1048A30019837400F0A37400F08518828519838539
:1048B300820885830978081222007404121FE1AC70
:1048C30082AD837406121FE1AA82AB83120A5C7461
:1048D30002121FACEEFCEFFD7406121FE1AA82ABBD
:1048E30083120C60E97404121FE1E0F508A3E0F5FC
:1048F3000974087808121F64E508740F121FE1E5B4
:1049030008F07404121FE1E0F8A3E0F9E8C0E074D2
:104913000E121FE1D0E0F07402121FE1E0F508A3CC
:10492300E0F50974087808121F64E5087411121F72
:10493300E1E508F07402121FE1E0F8A3E0F9E8C032
:10494300E07410121FE1D0E0F0851882851983E02E
:10495300F508A3E0F50974087808121F64E50874E4
:1049630013121FE1E508F0851882851983E0F8A387
:10497300E0F9E8C0E07412121FE1D0E0F07406120F
:104983001FE1E0F508A3E0F50974087808121F6435
:10499300E5087415121FE1E508F07406121FE1E043
:1049A300F8A3E0F9E8C0E07414121FE1D0E0F0745A
:1049B30008121FE1E0F508A3E0F50974087808126E
:1049C3001F64E5087417121FE1E508F07408121F4D
:1049D300E1E0F8A3E0F9E8C0E07416121FE1D0E0CB
:1049E300F0740A121FE1E0F508A3E0F509740878F2
:1049F30008121F64E5087419121FE1E508F0740A30
:104A0300121FE1E0F8A3E0F9E8C0E07418121FE117
:104A1300D0E0F0740C121FE1E0F508A3E0F509748F
:104A2300087808121F64E508741B121FE1E508F0FB
:104A3300740C121FE1E0F8A3E0F9E8C0E0741A1265
:104A43001FE1D0E0F0741C121FE174AAF0741D1270
:104A53001FE174BBF0741E121FE174AAF075080EF7
:104A630075090078081222007410121FE1AC82ADA0
:104A7300837421121FE1AA82AB83120B16740212F4
:104A83001FAC8A0A8B0B850A08850B09742D121F2C
:104A9300E1740DF0742E121FE1740AF07C137D0093
:104AA300741C121FE1AA82AB83120CEA742F121F2B
:104AB300AC7F040220BF74F0121FED748C121F969A
:104AC300890B8A08908B26C082C0837404121FE16D
:104AD300AC82AD83D083D0827408121EA9908B461A
:104AE300C082C083746C121FE1AC82AD83D083D0CB
:104AF300827408121EA9908B4EC082C08374641204
:104B03001FE1AC82AD83D083D0827408121EA990BA
:104B13008B56C082C083745C121FE1AC82AD83D01C
:104B230083D0827408121EA9908B0EC082C0837436
:104B330054121FE1AC82AD83D083D0827408121E5D
:104B4300A9908B3EC082C083744C121FE1AC82AD2E
:104B530083D083D0827408121EA9908B36C082C082
:104B6300837444121FE1AC82AD83D083D082740876
:104B7300121EA9908B2EC082C083743C121FE1AC1D
:104B830082AD83D083D0827408121EA9908B1EC07D
:104B930082C0837434121FE1AC82AD83D083D08290
:104BA3007408121EA9908B06C082C083742C121F36
:104BB300E1AC82AD83D083D0827408121EA9908A9F
:104BC300E6C082C0837424121FE1AC82AD83D0831C
:104BD300D0827408121EA9908ADEC082C083741C1E
:104BE300121FE1AC82AD83D083D0827408121EA958
:104BF300908AD6C082C0837414121FE1AC82AD8345
:104C0300D083D0827408121EA9908AF6C082C08312
:104C1300740C121FE1AC82AD83D083D0827408126E
:104C23001EA97404121FE1AE82AF83E50860391434
:104C3300604214604B14605414605C14606414602C
:104C43006C14607414607C147003024CD1147003F0
:104C5300024CDC147003024CE7147003024CF21490
:104C63007003024CFD024D087404121FE1AE82AFC3
:104C730083024D11746C121FE1AE82AF83024D119A
:104C83007464121FE1AE82AF83024D11745C121F74
:104C9300E1AE82AF8380777454121FE1AE82AF839B
:104CA300806C744C121FE1AE82AF83806174441236
:104CB3001FE1AE82AF838056743C121FE1AE82AF18
:104CC30083804B7434121FE1AE82AF838040742C17
:104CD300121FE1AE82AF8380357424121FE1AE82CE
:104CE300AF83802A741C121FE1AE82AF83801F74CE
:104CF30014121FE1AE82AF838014740C121FE1AE55
:104D030082AF8380097404121FE1AE82AF83E50B87
:104D13007015120C36E9EEFAEFFB120C547A017996
:104D230044120C48024EC1120C36E9EEFAEFFB12A4
:104D33000C547A0079BE120C48120C4EE9F5091294
:104D43000C4EE9F50AE5086003024DEF9002DA74B0
:104D530000F07C247D0079FF7AB67B02120B2E9043
:104D630002DAE0F8790074B628F582740239F58323
:104D730074AAF09002DAE02401F09002DAE0F87904
:104D83000074B628F582740239F58374BBF090027F
:104D9300DAE02401F09002DAE0F8790074B628F53D
:104DA30082740239F58374BBF09002DAE02401F0D7
:104DB300E5099002DAE0F8790074B628F582740206
:104DC30039F583E509F09002DAE02401F0E50A9071
:104DD30002DAE0F8790074B628F582740239F583B3
:104DE300E50AF09002DAE02401F0803AE509900246
:104DF300DAE0F8790074B628F582740239F583E5B0
:104E030009F09002DAE02401F0E50A9002DAE0F812
:104E1300790074B628F582740239F583E50AF090B7
:104E230002DAE02401F0740D65086003024EC190BC
:104E330002DAE0F8790074B628F582740239F58352
:104E4300740DF09002DAE02401F09002DAE0F879D0
:104E53000074B628F582740239F583740AF090025F
:104E6300DAE02401F07C117D007AB67B02120CEAB1
:104E73007A007B007C007D00851882851983EAF027
:104E8300A3EBF0A3ECF0A3EDF0908BE5780C121EEE
:104E930066851882851983780C121C755015908BC2
:104EA300C1780C121E66851882851983780C121D31
:104EB300F280D67C107D007AC77B02120CEA7474F0
:104EC300121FAC7F080220BFC082C08374FA121F76
:104ED30096851882851983AA82AB83120F6CE960C9
:104EE30012851882851983AC82AD837A0679001204
:104EF3000FDEE97406121FACD083D082020135C0E5
:104F030082C08374F5121F967407121FE1AA82AB45
:104F130083120ECAE9605C85188285198374AAF02E
:104F23007401121FE174BBF07402121FE174CCF020
:104F33007409121FE1E0C0E07403121FE1D0E0F036
:104F4300740A121FE1E0C0E07404121FE1D0E0F024
:104F53007405121FE1740DF07406121FE1740AF058
:104F63007C077D00851882851983AA82AB83120C86
:104F7300EA804A85188285198374AAF07401121F86
:104F8300E174BBF07402121FE174CCF07403121FBE
:104F9300E17476F07404121FE17476F07405121F45
:104FA300E1740DF07406121FE1740AF07C077D00B2
:104FB300851882851983AA82AB83120CEA740B12BB
:104FC3001FACD083D082020135C082C08374FC122F
:104FD3001F96851882851983AA82AB83120E58E91E
:104FE3006012851882851983AC82AD837A047900B7
:104FF300120CF6E97404121FACD083D0820201357F
:10500300C082C08374FC121F96851882851983AAF7
:1050130082AB83120F0CE96012851882851983AC69
:1050230082AD837A047900120FD8E97404121FAC9D
:10503300D083D082020135C082C08374FA121F96D6
:10504300851882851983AA82AB83120EA0E96012A8
:10505300851882851983AC82AD837A067900120E96
:1050630034E97406121FACD083D08202013574F781
:10507300121FED74FF121F96E9FE146005146059A8
:105083008061851882851983AA82AB837901120F07
:10509300F0E9851882851983E0701B9002B1E06006
:1050A300429002B17400F07A007B019002ACE0F907
:1050B300120B6AE9802D9002B1E0700D7A007B013A
:1050C3009002ACE0F9120B6AE9851882851983E036
:1050D3009002B1F0120A0E800A7ABF7B0B7902129A
:1050E3000FF0E97401121FAC7F010220BFC082C020
:1050F30083908BC91222137A007B409002ACE0F9B3
:10510300120BEE7404121FACE9D083D08202013576
:1051130074F7121FED74FF121F96E9FE1460051455
:10512300605C8064851882851983AA82AB837901C8
:10513300120D44E9851882851983E0701B9002B231
:10514300E060459002B27400F07A007B029002ACFA
:10515300E0F9120B6AE98030851882851983E064CF
:105163000170259002B2E0701F9002B27401F07AD0
:10517300007B029002ACE0F9120B6AE9800A7AC163
:105183007B0B7902120D44E97401121FAC7F0102FB
:1051930020BF74F7121FED74FF121F96E9FE14600F
:1051A300051460608068851882851983AA82AB83A1
:1051B3007901120FC0E9851882851983E07019906F
:1051C30002B4E060139002B47400F07A087B00909C
:1051D30002ACE0F9120B6AE9851882851983E06451
:1051E30001702B9002B4E070259002B47401F0902A
:1051F30002DF7400F07A087B009002ACE0F9120B36
:105203006AE9800A7AB97B0B7902120FC0E974014B
:10521300121FAC7F010220BF74F0121FED74F8124D
:105223001F96890A7401650A60030252DA8518829F
:10523300851983AA82AB837901120D0EE985188241
:10524300851983E0FA7B007401121FE1E0F879000D
:10525300E4C8F9EA28F8EB39F9E8FEE9FF74021229
:105263001FE1E0FA7B007403121FE1E0F87900E428
:10527300C8F9EA28F8EB39F9880889097404121F78
:10528300E1E0FA7B007405121FE1E0F87900E4C85D
:10529300F9EA28F8EB39F9880E890F7406121FE131
:1052A300E0FA7B007407121FE1E0F87900E4C8F923
:1052B300EA28F8EB39F9880C890D780C122200786A
:1052C3000E1222007902AC08AD09EEFAEFFB1210C0
:1052D300E67404121FACE97402650A70041210B676
:1052E300E97408121FAC7F080220BF74F4121FED8B
:1052F30074FA121F96EAFEEBFF8C088D09741212E2
:105303001FE1E0F50AA3E0F50BEE8518828519830A
:10531300F0EEF8EFF9E4E9F8C0E07401121FE1D010
:10532300E0F0E5087402121FE1E508F0A808A909F6
:10533300E4E509A809E5097403121FE1E509F0E5AD
:105343000A7404121FE1E50AF0A80AA90BE4E50BAD
:10535300A80BE50B7405121FE1E50BF08518828598
:105363001983AC82AD837A067900120D08E97406BD
:10537300121FAC7F040220BF74F0121FED8A0A8B48
:105383000B89088C0C8D0985090E750F00AA0EABCD
:105393000F120BAC8A0E8B0FAE0EAF0FEE4F7003D6
:1053A30002543B85090E750F00AC0EAD0FA90CEE30
:1053B300FAEFFB120B2E850A0E850B0F780E1222C5
:1053C3008A0000060000AAE25310AAF05320AA0C98
:1053D3005430AAFE5340AA1A5450AA28543454EE07
:1053E300FCEFFDAA09A908120FD8E98044EEFCEFEF
:1053F300FDAA09A908120CF0E98036EEFCEFFDAA1C
:1054030009A908120FDEE98028EEFCEFFDAA09A91D
:1054130008120FBAE9801AEEFCEFFDAA09A90812D7
:105423000CF6E9800CEEFCEFFDAA09A908120E3474
:10543300E9EEFAEFFB120BB27F080220BF74F312FE
:105443001FED8A088B09ECFEEDFFC3EE9415EF9474
:10545300004005750C148003EEF50C90032C742E9C
:10546300F0A37400F0E50C90032EF0850C0A750B85
:1054730000780A122200AC08AD097A2F7B03120BC5
:10548300167402121FAC79007C2C7D037A007B001A
:105493001213BCE97F050220BF74EE121FED74FAEC
:1054A300121F968A0A8B0B8909ECFEEDFF75080023
:1054B300850A0C850B0D780C1222440004107557D5
:1054C300E55406552555465567558855BB55DC5556
:1054D300F3552156DF56005720574A5775577557CE
:1054E3004C567401650970158E828F83E0C3940353
:1054F300500B8E828F83E0900ED0F08003750818D6
:1055030002579E7402650970138E828F83E0F8A39D
:10551300E0F9900ED1E8F0A3E9F0800375081802D2
:10552300579E7401650970158E828F83E0C39402C0
:10553300500B8E828F83E0900399F08003750818D7
:1055430002579E7401650970158E828F83E0C394A0
:1055530005500B8E828F83E090039AF080037508C9
:105563001802579E7401650970158E828F83E0C3FC
:105573009402500B8E828F83E090039BF08003751F
:10558300081802579E741065097027750C10750D65
:1055930000780C122200EEFCEFFD7A9C7B03120BC9
:1055A300167402121FAC8A0C8B0D850C82850D8339
:1055B300800375081802579E7401650970158E8261
:1055C3008F83E0C39402500B8E828F83E09003ACF1
:1055D300F0800375081802579E74016509700B8EDD
:1055E300828F83E0900ED4F0800375081802579ED3
:1055F300740465097022908BA1780C121E668E824A
:105603008F83780C121C75500F8E828F83121E8429
:105613009003AE121E90800375081802579EE50989
:105623007021121344E97013120DDAE9F50C795065
:10563300121098E9F50D120DC8800B900441740106
:10564300F0800375081802579E740765096003020A
:1056530056D9750E06750F00780E1222008E828FB2
:1056630083A3AC82AD837402121FE1AA82AB8312BF
:105673000B1C7402121FAC8A108B1185100E85113E
:105683000F7C007D00851882851983AA82AB838EE7
:10569300828F83E0F9120D6EE9F50CE50CC3940AD1
:1056A300502F121344E97015A90C120DE0E9F50D02
:1056B3007950121098E9F50E120DC8801C750D0073
:1056C3007442250CF5827404350DF5837401F08062
:1056D30008750802800375081802579E740165094E
:1056E30070158E828F83E0C39402500B8E828F835A
:1056F300E09003ADF0800375081802579E740165AE
:105703000970158E828F83E0C3940A500B8E828FAB
:1057130083E0900ED3F08003750818807E740165D2
:1057230009701F8E828F83E0C3940740158E828F8A
:1057330083E0C39411500B8E828F83E0900ED5F0DB
:1057430080597508188054740165097020900440CD
:10575300E0F50C8E828F83E0900440F0E50C703B03
:10576300900440E064017033120DC8802E75081850
:105773008029C3E50A9427E50B9400501B74026546
:105783000970158E828F83E0FCA3E0FDAA0AAB0BA0
:105793001211E2E9F5088003750802A908740612DC
:1057A3001FAC7F0A0220BF74EC121FED74DA121FC4
:1057B30096890D8A128B138C0A8D0B743A121FE192
:1057C300E0F50C908B82C082C08385188285198393
:1057D300AC82AD83D083D0827406121EA985188251
:1057E300851983AC82AD83AA12AB13A90D120D6E7A
:1057F300E9FEEEC3940A4003025949EEF9120DAAD9
:10580300E9FF900ED0E0640270047401800274001A
:10581300F5087808122204AD0CEFFCEEF9AA0AABE6
:105823000B120E1C7401121FAC7C147D00790074E2
:1058330012121FE1AA82AB83120B2E8A0E8B0F85E5
:105843000E08850F097412121FE1AC82AD837A1022
:1058530075F006EEA42424F9121092E970437C102B
:1058630079FF7412121FE1AA82AB83120B8EE970C7
:10587300307422121FE1AC82AD837A0475F006EE18
:10588300A42425F9121092E9F5087412121FE1AC51
:1058930082AD83EFA2E0E433F9AA0AAB0B12126CD8
:1058A300E97406121FE1AC82AD837A0C74702EF991
:1058B300121092E9707E7406121FE1AA82AB831262
:1058C3000D9E750E00E50EC394045068E50EA80EF8
:1058D3007900E875F003A4C8AAF075F000A42AFAC9
:1058E30075F003E9A42AF97406121FE1E58228F58D
:1058F30008E58339F509850882850983E0F8A3E083
:10590300F9E849602B850882850983A3A3E0F51094
:105913007511007810122200850882850983E0FC46
:10592300A3E0FDAA0AAB0B1214D07402121FACE958
:10593300050E8091EFA2E1500D900398E0F9AA0AB9
:10594300AB0B1214D6E97404650C700F900ED0E003
:1059530064027007AA0AAB0B120E167900742612A2
:105963001FAC7F0C0220BF74F2121FED890BEAFEFD
:10597300EBFF8C088D09750A0AE50B600C146009AE
:10598300146044146064025A0EEEFAEFFB120DBC6D
:10599300E9F50AE50AC3940A5071E5084509606B05
:1059A300750C06750D00780C122200EEFCEFFDAAB3
:1059B30008AB09120B167402121FAC8A0C8B0D85EF
:1059C3000C82850D838044EEFAEFFB120DB6E9F5E8
:1059D3000AE50AC3940A5033E5084509602DAA086D
:1059E300AB09A90A120DB0E98021EEFAEFFB120D03
:1059F300C2E9F50AE50AC3940A5010E508450960AF
:105A03000AAA08AB09A90A120DB0E9A90A7F06027E
:105A130020BF74F2121FED8A0C8B0DE9FE7F157403
:105A2300FF650C700474FF650D702A750800E508A6
:105A3300C3940A5014EEFC7A027B00A908120D8C61
:105A4300E960027F00050880E5EE60637A047B0E5F
:105A53001216D4805AAA0CAB0D1216B68A0A8B0BF7
:105A6300850A08850B09E508450960417C007D002E
:105A7300E5082405FAE5093400FB850882850983D6
:105A8300A3A3A3A3E0F9120D6EE9F50AE50AC394F3
:105A93000A500EEEFC7A027B00A90A120D8CE97FF4
:105AA30000EE600BAA08AB09120E0480027F14EF0C
:105AB300F97F060220BF74EE121FED8A0E8B0F8C46
:105AC3000A8D0B7412121FE1E0F50CA3E0F50D75BE
:105AD300081574FF650E700474FF650F701E7E0059
:105AE300EEC3940A5062AC0CAD0DAA0AAB0BEEF9EF
:105AF300120D92E960037508000E80E4AA0EAB0F45
:105B03001216B68A108B11AE10AF11EE4F60367CB1
:105B1300007D00EE2405FAEF3400FB8E828F83A311
:105B2300A3A3A3E0F9120D6EE9F509E509C3940AED
