:020000040000FA
:0600000002011D02297B34
:03002B0002223B73
:0300330002221393
:030053000229EE91
:03006B000221BAB5
:03007B000221E27D
:100083000227E7E5C754F84401F5C77901220000C8
:100093000080FB120086B90003020107E47921788E
:1000A30008B800028004F709D8FCE479297802B87B
:1000B30000028004F709D8FCE490028178B679083D
:1000C3008002F0A3D8FCD9FA781A90014D7A01BACC
:1000D30000028007E493A3F608DAF9900A36AA82AD
:1000E300AB8390014E78A479088015E493A3AC8286
:1000F300AD838A828B83F0A3AA82AB838C828D83A8
:10010300D8E9D9E77582817583FF740112012F75D0
:100113008291758300740012012F75D00075813FA1
:10012300751881751902759F00020096C09FF59F8F
:10013300E473D09F22D083D082C09FE493C0E07445
:100143000193C0E0740293F59F2201F108F708FDC3
:1001530008030909090F0915091B09210927092D95
:1001630009330939093F0945094B0968FFFF0B09A1
:1001730056756C74757265456767051250002003E8
:10018300020A00020106030288FF45676700D007E1
:10019300E803E8037017E803E803E803401FE30AF2
:1001A3000000190B1F0B250B2B0B310B1241636343
:1001B300656C2E2044617461000A416363656C2E93
:1001C30020436F6E662E000A0A416363656C2E201E
:1001D300506572696F640002AC840100009D840263
:1001E300B284010000970A10E581010000020302B6
:1001F300B684030000050302B484010000980A02D8
:10020300B284010000A40A10F5810300000B03026D
:10021300B484010000A50A02B284010000B20A10EE
:100223000582030000B30A02B484010000B40A1279
:100233004261726F6D2E2044617461000A426172E3
:100243006F6D2E20436F6E662E00024261726F6DDA
:100253002E2043616C6962722E000A0A4261726F3A
:100263006D2E20506572696F640002AC840100003A
:10027300888402B2840100001A0B10358201000049
:100283000C0302B684030000100302B484010000CF
:100293001B0B02B284010000270B104582030000F0
:1002A300160302B484010000280B02B2840100008B
:1002B300450B106582030000460B02B48401000065
:1002C300470B02B284010000350B10558201000078
:1002D300170302B684030000270302B4840100005D
:1002E300360B12436F6E6E2E20506172616D730078
:1002F30008436F6E6E2E20506172616D73205265DC
:10030300710008446973636F6E6E65637420526590
:10031300710002AC840100008B8402B284010000EE
:10032300CD0B1095820100002F0302B68403000059
:10033300350302B484010000CE0B02B28401000035
:10034300DB0B10A5820200003B0302B48401000012
:10035300DC0B02B284010000ED0B10B58202000039
:10036300430302B484010000EE0B02020202020204
:10037300020202010D000000100102AC8401000022
:10038300A38402B284010000550C02D28401000050
:10039300440302B284010000560C02D08401000021
:1003A300218402B284010000570C02CC84010000B6
:1003B300128402B284010000590C02CA84010000B5
:1003C300818002B2840100005A0C02C6840100003D
:1003D3001C8402B284010000580C02C48401000092
:1003E300178402B2840100005B0C02C08401000088
:1003F300938002B2840100005C0C02BE8401000001
:10040300558302B2840100005D0C02BC840100002C
:100413005E0C12447331386232302E2044617461B1
:10042300000A447331386232302E20436F6E662ED9
:10043300000AD007447331386232302E205065727F
:10044300696F640002AC84010000A68402B28401D7
:100453000000FD0C1015820100004E0302B6840358
:100463000000500302B484010000FE0C02B28401B8
:1004730000000C0D10C581030000560302B4840173
:1004830000000D0D02B2840100001C0D1015830342
:1004930000001D0D02B4840100001F0D01E80305D7
:1004A3003F100A124779726F2044617461000A4752
:1004B30079726F20436F6E662E000A0A4779726F56
:1004C30020506572696F640002AC8401000085846A
:1004D30002B2840100008E0D10E5800100001104BA
:1004E30002B684030000170402B4840100008F0DD8
:1004F30002B284010000990D10D5800300001D0491
:1005030002B4840100009A0D02B284010000A50D1B
:1005130010C580030000A60D02B484010000A70DDE
:100523000380000080700061801248756D69642E3D
:100533002044617461000A48756D69642E20436F1D
:100543006E662E000AD00748756D69642E205065CB
:1005530072696F640002AC84010000828402B28479
:10056300010000140E10B581010000800402B6845E
:10057300030000840402B484010000150E02B28457
:10058300010000210E10C5820300008A0402B48416
:10059300010000220E02B2840100002F0E10F5822A
:1005A300030000300E02B484010000320E125465C1
:1005B3006D702E2044617461000A54656D702E20A5
:1005C300436F6E662E000A1E54656D702E205065B3
:1005D30072696F640002AC84010000918402B284EA
:1005E300010000980E1005810100008B0402B684FF
:1005F3000300008F0402B484010000990E02B28448
:10060300010000A40E101581030000950402B484B8
:10061300010000A50E02B284010000B10E10258175
:10062300030000B20E02B484010000B30E124D6148
:10063300676E2E2044617461000A4D61676E2E203F
:10064300436F6E662E000A0A4D61676E2E20506559
:1006530072696F640002AC84010000A08402B2845A
:10066300010000180F104581010000960402B684B2
:100673000300009C0402B484010000190F02B28439
:10068300010000240F105581030000A20402B4846A
:10069300010000250F02B284010000310F106581B3
:1006A300030000320F02B484010000330F124D70B7
:1006B30075363035302E2044617461000A4D7075F3
:1006C300363035302E20436F6E662E000AC8004D3B
:1006D3007075363035302E20506572696F640002B4
:1006E300AC84010000A98402B284010000980F10B9
:1006F3008581010000A50402B684030000B1040251
:10070300B484010000990F02B284010000A70F1006
:100713009581030000B70402B484010000A80F020E
:10072300B284010000B70F10A581030000B80F02C7
:10073300B484010000BA0FFF000130750302010603
:1007430000000000000000000000000000000000A6
:10075300000000000000000000000000FFFF060092
:10076300800CE803104B6579205072657373205336
:10077300746174650002AC840100009A8402B2843F
:100783000100004F1002B884000000670502B68420
:10079300030000680502B484010000501002546590
:1007A30073742044617461000A5465737420436F49
:1007B3006E6669670002AC84010000978402B2840C
:1007C30001000088101025830300006E0502B48425
:1007D300010000891002B2840100009310103583D8
:1007E300030000760502B4840100009410FF0000AA
:1007F300B4000028002800283075A000A000A00045
:10080300A00000080008E001F00010001000100034
:100813001000100010005000500050001000100095
:10082300D0070000000000000F0001000500307534
:1008330007001000010081FF00000000FF73119109
:10084300117911FF02020208025000A0000000E823
:100853000302AC84010000948402B2840100002FDF
:100863001102BA84010000A90502B284010000301C
:100873001102C284010000BF0502B28401000031ED
:100883001102C884010000C10502B28401000032D4
:100893001102CE84080000C20502B28401000033B5
:1008A3001102D6840100003411FF0100FF2002ACC5
:1008B300840100008E8402B284010000981102D8E2
:1008C30084000000000002B6840300000F064917ED
:1008D3004917491749174917491749174917491715
:1008E3004917491749174917DD19F519D71912017E
:1008F300386B9C03120138B79C031201380D9D031A
:10090300120138B29D03120138669E031201388525
:100913009E03120138A49E03120138D29E031201D2
:1009230038059F031201387E9F0312013804A00388
:10093300120138A4A00312013869A1031201389BE4
:10094300A103120138D0A103120138FEA103120141
:1009530038E8E80312013807E9031201382EE903E6
:1009630012013855E9031201387BEA03120138A05A
:10097300EA031201380080031201381580031201C3
:10098300386D8003120138D480031201381C8103AF
:10099300120138928103120138C18103120138CF49
:1009A3008103120138338203120138718203120169
:1009B300388C8203120138248303120138CD830358
:1009C3001201385084031201388984031201381448
:1009D30085031201386B8503120138CA850312019E
:1009E30038DC85031201380286031201380B8603B3
:1009F3001201386A8703120138FEF803120138DD49
:100A0300F90312013810E00312013855E003120113
:100A1300389BE0031201382EE203120138008004F0
:100A23001201381B80041201382B80041201388212
:100A33008004120138FD84041201383E960312012A
:100A4300385E9603120138629703120138AE97039A
:100A5300120138CE97031201382198031201388E00
:100A63009803120138D498031201383899031201FC
:100A730038EA9B0312013865FB0312013895FB0327
:100A8300120138C5FB031201381FFC03120138247D
:100A9300F3031201383CF30312013899F3031201F3
:100AA30038DDF3031201380FF40312013846F4035F
:100AB30012013869F403120138E69C01120138EC83
:100AC3009C011201386C9F0112013857A5011201D4
:100AD3003889A501120138B4A501120138BAA6015B
:100AE300120138ECA601120138D0A7011201380710
:100AF300A8011201381AAA011201382CAE01120101
:100B03003863AE011201381CAF0112013853AF0133
:100B13001201388AAF01120138C1AF011201384006
:100B2300B001120138C2B00112013848B1011201FB
:100B3300381BB201120138A8B2011201386DB3019A
:100B4300120138CE800412013887FC031201388A5F
:100B5300BE03120138DDBE03120138FABE031201CF
:100B630038CFBF031201384CC00312013829C10327
:100B73001201389EC20312013831A2031201385602
:100B8300A20312013891A203120138CEC20312014B
:100B93003821C3031201384AC303120138B3C30314
:100BA300120138F1C403120138ABC6031201383CF9
:100BB3008604120138B43000120138C23300120126
:100BC300388235001201382D3600120138D1360033
:100BD3001201386A3700120138993700120138734D
:100BE3003C001201381E3D001201388E3E001201F6
:100BF30038F63E00120138AA3F001201386C420059
:100C0300120138AB42001201381F43001201387E33
:100C13004300120138DD43001201384C4400120135
:100C2300383F4500120138854500120138CA450096
:100C3300120138ED45001201386847001201387B74
:100C43004700120138844800120138C348001201DA
:100C530038EF480012013842490012013863490055
:100C6300120138A74900120138F94B001201383A32
:100C73004C00120138E54C00120138504D001201AE
:100C8300388D4E0012013884810412013848EE0376
:100C930012013828EF03120138D9EF03120138404B
:100CA300F6031201385EF603120138E7F603120168
:100CB3003891F70312013894870412013839FA0383
:100CC30012013849FA031201385AFA031201385F44
:100CD300FB03120138B3D70312013859D8031201A9
:100CE3003875DA0312013872E203120138D4E203D1
:100CF3001201384CE303120138F4E30312013813F1
:100D0300E40312013823E40312013862E4031201FD
:100D130038A5E4031201388BF103120138C5F1033E
:100D230012013838F20312013872F203120138B794
:100D3300F203120138C9F20312013800F30312015E
:100D430038EBEF031201383AF0031201386CF00369
:100D5300120138FDF00312013879F1031201384F03
:100D6300CE0312013878CE03120138A1CE0312014B
:100D73003861CF03120138B2CF0312013882D10395
:100D8300120138B3F403120138E6F4031201386296
:100D9300F50312013882F503120138E7F503120156
:100DA300382FF60312013832F603120138AF8704E5
:100DB300120138C18704120138C48704120138B7FD
:100DC300E40312013806E50312013832E503120188
:100DD3003852E503120138DFE503120138D7E60381
:100DE300120138C7EA0312013818EB031201385F06
:100DF300EB03120138E9EB0312013876EC0312011D
:100E030038F87F0012013863DD031201385ADF031B
:100E1300120138C6DF031201380DE003120138FF57
:100E2300AB0312013852AC031201387BAC0312013D
:100E33003839AD03120138A2AD03120138E0AE0315
:100E43001201389AB003120138F082041201383AC1
:100E5300820412013827A7031201387AA70312016B
:100E630038A3A70312013861A803120138CAA803E3
:100E730012013808AA03120138C2AB03120138E980
:100E8300E60312013852E70312013810E803120196
:100E9300388FE80312013894D103120138C6D10305
:100EA300120138CED203120138F3D303120138767C
:100EB300DE021201385CDF02120138A9DF021201DF
:100EC30038ECDF0212013861E002120138C2E0029D
:100ED30012013837E10212013813E2021201381EFF
:100EE300E3021201389FE30212013846E5021201C0
:100EF30038DCE5021201384FE602120138CBE60274
:100F0300120138E2E60212013819E80212013873BD
:100F1300E802120138DCC70112013874CC01120156
:100F23003848CF0112013871CF0112013888CF013F
:100F3300120138B1CF0112013863D00112013849CF
:100F4300D20112013884D301120138BAD801120137
:100F530038F3D80112013837D90112013849DA01BF
:100F630012013898FF03120138A68304120138A036
:100F73008504120138317E00120138487E001201C7
:100F830038797E00120138B47E00120138DE7E000B
:100F9300120138087F001201381F7F001201383612
:100FA3007F001201384D7F00120138767F00120155
:100FB30038897F001201389F7F00120138B27F0009
:100FC300120138D97F00120138DFE802120138E339
:100FD300E9021201381BEA021201383EEA02120149
:100FE3003849EA021201386CEA021201387BEB023B
:100FF30012013850EC02120138CBEC0212013853C3
:10100300ED021201388EED02120138C5ED02120114
:101013003853EE021201382CEF021201388CEF0222
:1010230012013897EF0212013816F0021201381933
:10103300F0021201381CF002120138ABF002120167
:1010430038AEF002120138DEF00212013808F10264
:10105300120138F6F102120138A8F202120138D750
:10106300B003120138FFB0031201382DB10312018E
:101073003864B103120138C2B1031201380DB2034F
:1010830012013858B20312013898B203120138DE44
:10109300B2031201380CB303120138C9B3031201AE
:1010A30038D3B303120138E0B30312013813B40386
:1010B300120138DFB403120138EBB4031201380311
:1010C300B5031201380DB503120138C1FE03120135
:1010D30038CFFE03120138E7FE03120138FFFE0387
:1010E300120138008002120138AC80021201382745
:1010F30081021201384882021201388482021201ED
:10110300382D8302120138148402120138788502C3
:10111300120138CF8502120138508602120138407D
:1011230087021201388D87021201381388021201D7
:1011330038458802120138598A021201389B8A0203
:10114300120138B98A021201383C8B02120138109D
:101153008C02120138D88C021201381B8F03120142
:1011630038EE8F03120138979003120138EA900387
:101173001201389A91031201382692031201381290
:10118300930312013841930312013854940312015B
:10119300389C9403120138719503120138AD9503FD
:1011A300120138C99503120138C68604120138B6F4
:1011B300CA03120138CCCA03120138F2CA0312015E
:1011C300380ECC0312013818CC031201384DCD036D
:1011D30012013845CE031201385AFA011201388A36
:1011E300FB01120138BDFB0112013807FC0112019A
:1011F30038CEFD0112013809DB0112013873DB011E
:10120300120138D2DC01120138E2DC011201380F7D
:10121300DD0112013866DD011201380FDE01120112
:101223003816DF01120138E0DF0112013840E10115
:1012330012013883E10112013828E20112013875E5
:10124300E2011201389BE201120138A9E401120103
:1012530038AEE401120138B3E60112013800E701A8
:1012630012013873E701120138A6E7011201384869
:10127300E801120138F1E80112013829E9011201EC
:10128300382CE90112013874E901120138B4E9017B
:101293001201380BEA0112013890DA03120138A85F
:1012A300DA03120138F0DA0312013806DB03120104
:1012B300384DDB0312013861DC03120138EEDC0325
:1012C30012013839DD03120138C14E00120138CD45
:1012D3004E00120138084F001201384D4F00120121
:1012E300380D5000120138935000120138F85000A5
:1012F3001201382451001201385D51001201389B4C
:1013030053001201387F550012013865570012014E
:1013130038A85800120138F65A00120138085C0048
:10132300120138535D00120138635E0012013880E8
:101333005E00120138BB5E00120138DD5E0012014F
:1013430038405F00120138016400120138966400CE
:10135300120138E764001201380E6500120138608B
:1013630065001201387E6500120138D8650012014C
:1013730038C16600120138376800120138BB6800B3
:1013830012013894B5031201389EB503120138E1F6
:10139300B503120138FCB5031201388CB6031201F0
:1013A30038B4B603120138F1B60312013828B70373
:1013B30012013851B703120138C6B703120138DBE3
:1013C300B703120138F0B70312013821B803120131
:1013D3003835B8031201385AB80312013894B803E8
:1013E300120138C0B803120138F8B8031201387774
:1013F300B903120138C0B903120138EAB903120163
:101403003815BA03120138A8FD0312013875C60254
:10141300120138A3C602120138F1C702120138D1F2
:10142300C802120138F0C8021201386DC902120154
:1014330038B0C90212013806CB02120138C7CB02F9
:101443001201384ECE02120138EFCE02120138E5F6
:10145300CF02120138E2D0021201383CD20212014B
:1014630038C7D202120138A3F7031201380CF8036C
:1014730012013860F80312013887F803120138B8F3
:10148300F80312013882FB02120138EFFB0212014A
:101493003836FC021201384EFD021201384AFE02B0
:1014A3001201382DFF0212013819F3021201385BC1
:1014B300F3021201382DF40212013806F50212016B
:1014C3003800F602120138E2F6021201384BF70235
:1014D30012013801F80212013875F802120138E1DD
:1014E300F8021201380AF90212013884F9021201D2
:1014F300381DFA0212013882FA0212013897FA02F1
:10150300120138DDFA02120138F6FA021201385BD1
:10151300FB021201385EFB02120138BAD403120136
:1015230038E2D40312013820D503120138DED50383
:1015330012013845D60312013861D60312013889E6
:10154300D603120138B9D603120138C8D6031201E3
:101553003845D7031201386BD703120138F8EA0173
:10156300120138D6EC0112013808EF011201384498
:10157300EF0112013871EF011201385BF001120122
:1015830038A6F001120138F1F00112013803F1011C
:1015930012013843F10112013878F101120138C602
:1015A300F101120138F5F10112013818F2011201AB
:1015B3003865F201120138EAF20112013804F5012B
:1015C30012013843F70112013884F701120138265A
:1015D300F90112013867F901120138DAF901120130
:1015E3003830FA0112013860B9021201385EBA02CA
:1015F300120138F7C00212013818C302120138E38E
:10160300C4021201384BC602120138DE84011201F2
:10161300388D8501120138BA85011201380086011F
:10162300120138408701120138D68801120138505F
:1016330089011201386B8901120138E6890112010F
:1016430038408B01120138A08C01120138A68D019C
:10165300120138078F01120138208F011201387EE1
:101663008F011201386C90011201389F9001120111
:10167300380F9101120138899101120138D3910178
:101683001201389D920112013872930112013851EF
:101693009401120138DC94011201384A95011201B8
:1016A30038BE9501120138E99501120138A8960157
:1016B3001201380D98011201382A98011201384994
:1016C30098011201383A99011201385F9901120108
:1016D30038899901120138049A011201385E9A017E
:1016E300120138C79B01120138759C01120138B6EB
:1016F3009C011201388CAB02120138DAAB021201E1
:1017030038E6AB02120138C4AC02120138F5AC0260
:1017130012013826AD02120138A6AD02120138DEDD
:10172300AD0212013830AE021201386DAE02120161
:10173300388AB002120138B0B2021201389BB402E7
:1017430012013885B602120138A93000120138C9D6
:10175300B301120138F9B301120138D2BA011201EF
:101763003857BC0112013854C2011201383CC3017D
:1017730012013879C3011201389CC301120138CD1B
:10178300C301120138D6C301120138E0C3011201AB
:1017930038CEC401120138C4C501120138226900D0
:1017A300120138216D00120138276D0012013862D1
:1017B30074001201387B7900120138E8C603120164
:1017C300387EC70312013894C7031201380AC803CD
:1017D3001201387EC803120138BCC8031201383025
:1017E300C903120138A9C903120138B2C90312018E
:1017F30038BEC903120138D3C90312013811CA0311
:1018030012013827CA0312013886CA031201383D70
:10181300BA031201384ABA0312013864BA03120137
:1018230038A3BA03120138E1BA0312013846BB03E5
:101833001201385BBB0312013866BB031201387314
:10184300BB031201388ABB0312013898BB03120190
:1018530038A3BB03120138AFBB03120138BEBB036D
:10186300120138C9BB03120138ECBB0312013893D0
:10187300BC03120138A3BC03120138BDBC0312011F
:1018830038DABC03120138F6BC031201381BBD035E
:1018930012013826BD031201383BBD031201384F34
:1018A300BD03120138B0BD03120138B6BD031201E6
:1018B30038BCBD03120138C2BD03120138DABD03BF
:1018C3001201380DBE03120138629D02120138E67F
:1018D3009D02120138959E02120138F49F021201F3
:1018E3003815A20212013801A30212013836A302ED
:1018F30012013858A30212013807A402120138FF5B
:10190300A50212013828A602120138BAA602120152
:1019130038ECA602120138F9A60212013850A702C8
:1019230012013876A702120138E3A902120138E640
:10193300AA021201383EAB02120138F18E021201E3
:1019430038FB8F02120138E29002120138EC900248
:101953001201380E91021201381A9102120138B3A2
:101963009202120138E29202120138FE930212012E
:1019730038579402120138BD95021201389C960221
:10198300120138F89602120138659702120138A045
:101993009702120138DF9702120138989A02120156
:1019A30038B29A021201383E9B021201384C9B0254
:1019B300120138A59B02120138B39B02120138268B
:1019C3009C021201388A9C02120138D49C02120133
:1019D3003848D3021201386AD30212013890D50273
:1019E300120138A5D802120138BDD902120138708C
:1019F300DA0212013852DB02120138A3EC0312019E
:101A030038C8EC031201383AED03120138A18703F9
:101A1300120138AA8703120138B387031201388AE7
:101A230088031201383B8A03120138718A031201B9
:101A330038AB8A03120138E18A031201381B8B0386
:101A43001201384F8B031201387B8B03120138C408
:101A53008B03120138FE8B03120138478C031201EA
:101A6300389F8C03120138D48C031201382F8D0355
:101A7300120138698D03120138BA8D03120138F04F
:101A83008D031201382A8E03120138588E03120176
:101A9300387B8E031201385284041201387E840489
:101AA300120138D98404120138E38404120138F393
:101AB30084041201384A8704120138768704E066E9
:101AC300701008A3E066700A08A3E066700408A318
:101AD300E06622C3E7960809E7960809E79608092E
:101AE300E79622C3E09608A3E09608A3E09608A32E
:101AF300E09622C008C3E096F50808A3E0964208E2
:101B030008A3E096420808A3E09645087001D3D0E5
:101B13000822080808EAC0E0EBC0E086F0E7A4FA70
:101B2300180986F0E7A42AFA180986F0E7A42AFA26
:101B3300180986F0E7A42AFA1986F0E7A4FBE5F072
:101B43002AFA190886F0E7A42BFBE5F03AFA1908FC
:101B530086F0E7A42BFBE5F03AFA18180986F0E7BC
:101B6300A4C5F02BFBE43AFA1908E7C5F0C6A4268E
:101B7300F6E5F03BFBE43AFA1886F0E7A4F6E5F065
:101B83000826F6E43B08F6E43A08F6D0E0FBD0E09A
:101B9300FA22E4CFC0E0E4CEC0E0E4CDC0E0E4CC80
:101BA300C0E075F020C3E633F608E633F608E63303
:101BB300F608E633F6181818EC33FCED33FDEE3374
:101BC300FEEF33FFC3EC9709ED9709EE9709EF9703
:101BD300191919400FFFEC97FC09ED97FD09EE97D2
:101BE300FE191906D5F0BEECF709EDF709EEF70972
:101BF300EFF7191919D0E0FCD0E0FDD0E0FED0E0FA
:101C0300FF226016080808C6C313C618C613C618F1
:101C1300C613C618C613C6D5E0EA22700908080819
:101C2300226016181818C6C333C608C633C608C6BA
:101C330033C608C633C6D5E0EA22E627F60809E626
:101C430037F60809E637F60809E637F622E026F6FE
:101C530008A3E036F608A3E036F608A3E036F6223A
:101C6300E026F008A3E036F008A3E036F008A3E08E
:101C730036F022C3E697F60809E697F60809E697D1
:101C8300F60809E697F622C3E096F008A3E096F07B
:101C930008A3E096F008A3E096F022E657F60809B9
:101CA300E657F60809E657F60809E657F622E0561E
:101CB300F608A3E056F608A3E056F608A3E056F6A6
:101CC30022E056F008A3E056F008A3E056F008A37C
:101CD300E056F022E0F608A3E0F608A3E0F608A336
:101CE300E0F622E6F008A3E6F008A3E6F008A3E690
:101CF300F022E0FAA3E0FBA3E0FCA3E0FD22EAF07C
:101D0300A3EBF0A3ECF0A3EDF022CAC0E0E6F0A34E
:101D130008DAFAD0E0FA22CAC0E0E0A3C582CCC553
:101D230082C583CDC583F0A3C582CCC582C583CDCF
:101D3300C583DAE6D0E0CA22C3E498F8E499F9123D
:101D43001D7C8026C3E49AFAE49BFBE920E7E912B1
:101D53001D7CE498F8E499F922C3E498F8E499F92E
:101D6300121D7CE498F8E499F9C3E49AFAE49BFB26
:101D730022EB20E7CFE920E7E0B90010BB0008E839
:101D83008AF084F8AAF022E4FBC8FA22EB70227BE3
:101D930010C833C8C933C9335007C39AC3DBF280B1
:101DA300069A50012ADBEAC833F4C8C933F4C9FAE6
:101DB3002275F008E4C833C8C933C933C99AC99B2B
:101DC3005004C92AC93BD5F0ECFBC833F4C8E4C9B5
:101DD300FA22600D08C6A2E713C618C613C6D5E0DB
:101DE300F322600C08C6C313C618C613C6D5E0F4A5
:101DF30022700422600D18C6C333C608C633C6D585
:101E0300E0F41822251810AF08F5184002151980C0
:101E130008F51840021519D2AF22C0D0251810AF0B
:101E230008F518500205198008F51850020519D253
:101E3300AFD0D0222518F58210AF08F5184002154F
:101E4300198008F51840021519D2AF851983222588
:101E530018F582E43519F58322E4732518C582C089
:101E6300E0E51934FFC583C0E0E518C3958224F883
:101E730010AF0885831985821880088583198582A8
:101E830018D2AFCEF0A3E520F0A37808E608F0A3BC
:101E9300DEFAEFF0A3E58124FAF8E608F0A3E608FA
:101EA300F0A3E608F0A30808E608F0A3E608F0A309
:101EB30015811581D0E0FED0E0F8158115811581DB
:101EC300E8C0E0EEC0E0222518C582C0E0E5193481
:101ED300FFC583C0E0E518C3958224F910AF0885D8
:101EE30083198582188008858319858218D2AFCE1D
:101EF300F0A3E520F0A37808E608F0A3DEFAEFF0FC
:101F0300A3E58124FBF8E608F0A3E608F0A308089C
:101F1300E608F0A3E608F0A315811581D0E0FED012
:101F2300E0F815811581E8C0E0EEC0E02285198351
:101F3300851882E0A3FEE0A3F5207808E0A3F60865
:101F4300DFFAE0A3FFE0A3C0E0E0A3C0E0E0A3C0AA
:101F5300E0E0A3C0E0E0A3C0E010AF0885821885ED
:101F630083198008858218858319D2AFD083D082E4
:101F7300020135851983851882E0A3FEE0A3F520CD
:101F83007808E0A3F608DFFAE0A3FFE0A3C0E0E0EF
:101F9300A3C0E0E0A3C0E0E0A3C0E010AF088582E7
:101FA300188583198008858218858319D2AFD08359
:101FB300D08222C0D02518C582C0E0E51934FFC500
:101FC30083C0E0E518C3958224F310AF0885831915
:101FD3008582188008858319858218D2AFC8F0A33B
:101FE300E9F0A3EAF0A3EBF0A37908E709F0A3D89B
:101FF300FAECF0A3EDF0A3EEF0A3EFF0A3D0E0F042
:10200300A3D0E0F0A3D0E0F0A3E520F0A3E5F0F047
:10201300A322851983851882E0C0E0A3E0F9A3E039
:10202300FAA3E0FBA37808E0F608A3DFFAE0FCA339
:10203300E0FDA3E0FEA3E0FFA3E0C0E0A3E0C0E077
:10204300A3E0F5D0A3E0F520A3E0A3F5F010AF08DB
:102053008583198582188008858319858218D2AFF4
:10206300D082D083D0E0F8D0E032740480067402CA
:1020730080027401C0E0F404121E37D0E0121D0D7B
:10208300227404800474028000CCC0E0EDC0E0E55B
:1020930018C39CCCAD1950011D10AF068C188D19B7
:1020A30080068C188D19D2AF121D1AD0E0FDD0E036
:1020B300FC22D083D082E9C0E0E493A3C386F0C5B9
:1020C300F095F0F908E493A386F0C5F095F0700B52
:1020D300E493A3C3994005E9048002A3E475F002E5
:1020E300A42582F582E5F03583F583D0E0F9E49306
:1020F300A3C0E0E493C0E022D083D082ECC0E0ED43
:10210300C0E0E493A3FCE493A3FDED4C600D122126
:1021130047EC24FFFCED34FFFD80EFE493A3FCE4E4
:1021230093A3FDED4C600D122186EC24FFFCED34EE
:10213300FFFD80EFD0E0FDD0E0FCE493A3C0E0E43A
:1021430093C0E022C0E0C3E4939608740193961809
:10215300400FE4936670080874019366187000706A
:1021630019A3A3C3E49396087401939618A3A340F9
:102173000DD0E0D0E0D0E0022137A3A3A3A3A3A313
:10218300D0E022C0E0C0F088F0E4936670080874E1
:10219300019366187000A8F0A3A3700BD0F0D0E0F1
:0E21A300D0E0D0E0022137A3A3D0F0D0E0229C
:1021B400C2AF02000022C0E074F2121FB6A2AFE464
:1021C40033FED2AFE589A2E05003120D9B7589005E
:1021D400C2C5EEF8EEA2E092AF7F01022015C0E086
:1021E40074F2121FB6A2AFE433FED2AFE58AA2E6C0
:1021F4004006E58AA2E75003120D9B758A00758A92
:1022040000C2EBEEF8EEA2E092AF7F01022015C00F
:10221400E0C0D0E8C0E0E9C0E0A2AFE433F8D2AF58
:10222400758B00C2E8E8F9E8A2E092AFD0E0F9D0FB
:10223400E0F8D0D0D0E032C0E0C0D0E8C0E0E9C0DF
:10224400E0A2AFE433F8D2AFC2C7751A00E8F9E8E8
:10225400A2E092AFD0E0F9D0E0F8D0D0D0E0327470
:10226400F5121ECAEAFEEBFFEE2434F8EF3400F94F
:1022740088088909EE2435F582EF3400F583E0F807
:10228400EE2437F582EF3400F583E0F50AEC850A95
:10229400F0A4FCAAF0850AF0EDA42AFDE82CF8E4E9
:1022A4003DF97A257B00121D7CEA85088285098325
:1022B400F0F8740758F97401B900028004C333D9E3
:1022C400FCFAE8131313541FF8EE28F8EF3400F95E
:1022D400E8245DF582E93400F583E05A6008EE24D1
:1022E40034F582EF802CEE2434F582EF3400F5834C
:1022F400E0C0E0EE2436F582EF3400F583E0F5F03B
:10230400D0E084A8F0EE28F8EF3400F9E82438F59A
:1023140082E93400F583E0F97F04021F7674F51234
:102324001ECAEAFEEBFFEE2434F582EF3400F58397
:10233400E0C0E0EE2435F582EF3400F583D0E0F020
:102344008E828F83A3A3A3A3A3A3A3C082C0838EDF
:10235400828F83A3A3A3A3A3E0F8A3E0F9D083D03F
:1023640082E0C398F508A3E099F509EE247FF5828D
:10237400EF3400F583E064017069EE2480F582EFA8
:102384003400F583E0F8A3E0F98E828F83A3A3A33E
:10239400A3A3A3A3E0FCA3E0FD8E828F83A3A3A346
:1023A400A3A3E0FAA3E0FBC3EA9CEB9D5010C3ECAB
:1023B40098ED99402EC3EA98EB995027800EC3EA12
:1023C40098EB994007C3EC98ED9940177CD27D07B0
:1023D400EEFAEFFB1216A7EE247FF582EF3400F538
:1023E40083E4F0EE2434F8EF3400F9E8FCE9FDEE80
:1023F4002435F582EF3400F583E0F8EE2437F582D6
:10240400EF3400F583E0F50AE508850AF0A4F50841
:10241400AAF0850AF0E509A42AF509E82508F8E4F4
:102424003509F97A257B00121D7CEA8C828D83F0B4
:10243400F8740758F97401B900028004C333D9FC55
:10244400FAE8131313541FF8EE28F8EF3400F9E8F0
:10245400245DF582E93400F583E05A6008EE243403
:10246400F582EF802CEE2434F582EF3400F583E01E
:10247400C0E0EE2436F582EF3400F583E0F5F0D0C9
:10248400E084A8F0EE28F8EF3400F9E82438F58267
:10249400E93400F583E0F912309B02231CC082C0AA
:1024A40083851882851983E0F8A3E0F9C3EA9CEBDD
:1024B4009D5010C3EC98ED99401BC3EA98EB9950DA
:1024C40014800EC3EA98EB994007C3EC98ED994049
:1024D40004790180027900D083D08222EAC39CFA75
:1024E400EB9DFB2274EF121ECA900698E06408600C
:1024F40005E06407702A9061C8E060249006C6E095
:10250400F4601DE0F875F003A4C8AAF02AF974C8B1
:1025140028FE740639FF8E828F83A3A3A3E0700381
:10252400022618906060E0C0E0EE2468F582EF3483
:1025340000F583D0E0F0750C3B750D087508007547
:102544000900E5D914F50AE5D95403F50E601774AA
:1025540003650E605CE50A6010EE2467F582EF34D3
:1025640000F583E070030225FD900836E064016005
:102574002AEE2482F582EF3400F583E060047804C7
:1025840080027800850A08E508C398FA95E0FB12F2
:10259400156F8A088B09EA450970051218AB807417
:1025A400EE2482F582EF3400F583E070048A0C8B0C
:1025B4000DE50A6012850C82850D83F50BE5D9F0D3
:1025C400A3150BE50B70F6EE2482F582EF3400F5CB
:1025D40083E0604474FC250AF50A780C122071AC7F
:1025E4000AA90EEEFAEFFB1217437402121E1DE93C
:1025F4007026AA08AB09120E85793D8E828F83A3BB
:10260400A3A3A3E0FA7B00121443EEFAEFFB121625
:10261400BF121755790080747403650E6056850ADD
:10262400107511007810122071AC0CAD0DAA08AB16
:102634000912171F7402121E1DEE2468F582EF346E
:1026440000F583E064807004747F8001E0F50C7809
:102654000C122075E50EF50C780C122075A90AAC45
:1026640008AD099006C6E0FA7B0012140774021242
:102674001E1D8013900698E06408600BAC0CAD0D31
:10268400EEFAEFFB1217AF1218B779017F0A021F97
:102694007674F5121ECA74FC121E07EAFEEBFF895B
:1026A40008A2AFE433F509C2AF806AEE2463F8EF01
:1026B4003400F97A007B00A2AFE433F50AC2AF8894
:1026C400828983E0FCA3E0FDEC4D603A8882898333
:1026D400E0FAA3E0FB8A828B83E0FCA3E0FD88821E
:1026E4008983ECF0A3EDF08A828B83E4F0A3F08875
:1026F400828983E0FCA3E0FDEC4D700A8882898323
:10270400A3A3E4F0A3F0E50AA2E092AF120E859031
:1027140007D9E004F0EE2463F582EF3400F583E09A
:10272400F8A3E0F9E849603DEE2463F582EF340054
:10273400F583E02402FAA3E03400FBEA2402F50A5C
:10274400EB3400F50B780A1220718A828B83E0FC4B
:10275400A3E0F9EEFAEFFB1216E37402121E1DE970
:1027640070030226AF9007D9E060639007DAE0F8BF
:102774009007D9E0C398500C740265087050900714
:10278400DBE0604A8E828F83A3A3A3A3E085188233
:10279400851983F0A3E4F09007D9E0F87402121EBF
:1027A40052E8F0A3E4F09007D9E0F89007D8E028C5
:1027B400F07402121E52AC82AD838518828519838F
:1027C400AA82AB8379011214139007D9E4F0E509C6
:1027D400A2E092AF7404121E1D02231C852187857A
:1027E40022C622C0E0C0D0E8C0E0E9C0E0EAC0E010
:1027F400EBC0E0ECC0E0EDC0E0EEC0E0C008C00912
:10280400C00AC00BC082C083C0F0A2AFE433FEC2D2
:10281400AF759B00906182E0A2E05012E591A2E0C6
:10282400500C7591FE7401652170031224E8E0A236
:10283400E55051E591A2E5504B7591DF900698E083
:1028440064076005E06408702374016521703579BC
:10285400019006C6E0FA75F003A4CAA8F028FB7438
:10286400C82AFA74063BFB1226958018E0640D70A2
:10287400139006BAE004F064287002E4F07A00E0F1
:10288400F91218BD906182E0A2E6400302292EE508
:1028940091A2E6400302292E7591BF900698E06448
:1028A4000570081217E51217F180031217EB752152
:1028B4000012184BE9900699F0790012183F12168D
:1028C4001D7A017B00900697E0F91209CF907803F6
:1028D400E06442705590083AE014F0704DC2AF12B3
:1028E40028E600782AD0E0F618D0E0F6E59F5407F1
:1028F40070057509FF800375097FC4C0E07829E677
:10290400F50808E65509F509740B7808121DE5D099
:10291400E02508F8906270E0A2E740F8E8C333903D
:102924006272F0906270E0D2E0F0906181E0A2E324
:102934005009E5E9A2E3500375E9F7A3E0A2E750E3
:1029440009E591A2E7500375917FEEA2E092AFD022
:10295400F0D083D082D00BD00AD009D008D0E0FECA
:10296400D0E0FDD0E0FCD0E0FBD0E0FAD0E0F9D03C
:10297400E0F8D0D0D0E032C0E0C0D0C082C08390B4
:102984006183E0A2E05009E5BFA2E0500375BFFEF9
:10299400E0A2E15009E5BFA2E1500375BFFDE0A24A
:1029A400E25009E5BFA2E2500375BFFBE0A2E35089
:1029B40009E5BFA2E3500375BFF7E0A2E45009E5BF
:1029C400BFA2E4500375BFEFE0A2E55009E5BFA242
:1029D400E5500375BFDFE0A2E65009E5BFA2E6506B
:1029E4000375BFBFD083D0828088C0E0C0D0E8C068
:1029F400E0E9C0E0EAC0E0EBC0E0ECC0E0EDC0E03C
:102A0400C0F0E5A7A2E6500FE5A1A2E6500953A73E
:102A1400BF75A1BF122A53E5A7A2E5500CE5A1A2F8
:102A2400E5500653A7DF75A1DFE5A7A2E15009E54C
:102A3400A1A2E1500375A1FDE5A7A2E2500CE5A116
:102A4400A2E2500653A7FB75A1FBD0F002296474DF
:102A5400F8121ECA752101900698E06406701512DA
:102A640017738A828B83A3A3A3A3A3A3E0FAA3E08F
:102A7400FB1217D3A2AFE433FED2AF90069EE064FC
:102A84000170187A207B00900697E0F9120A5F7AA9
:102A9400207B00900697E0F91209D5906182E0D27C
:102AA400E6F0900837E0602185C622801690069DE6
:102AB400E064017008E5C654F84405F5C653BEFC4D
:102AC4001227E07401652160E4EEA2E092AF7F0179
:102AD400021F76008E238F248582288583278518FC
:102AE40082851983E0CEA3E0CF852882852783EBF6
:102AF400C9EAC8EDCBECCA75F010C3E833C8E933B2
:102B0400C9EA33CAEB33CBC3EA9EF526EB9FF5251E
:102B1400B35004AB25AA26EC33CCED33CDD5F0DA93
:102B2400AE23AF242274E9121ECA74F8121E07855C
:102B34001882851983ECF0A3EDF08A088B099006BE
:102B440098E024F7C394055006750801022CC012BE
:102B540017738A0A8B0BAE0AAF0BEE4F7003022C6D
:102B6400BDAC08AD097402121E52AA82AB831218BE
:102B7400038E828F83A3A3750CFF750DFF750EFF63
:102B8400750F00780C121CB17402121E527510FFDE
:102B94007511FF7512FF7513007810121CB1780CB3
:102BA4007910121AD6502A780C7910121C767508EE
:102BB400017509C8750A00750B007808790C121A9A
:102BC400D65052850C08850D09850E0A850F0B8099
:102BD400507514017515C875160075170085100811
:102BE40085110985120A85130B7808790C121C7655
:102BF40078147908121AD6401C75080075090075F6
:102C04000A00750B0178087910121C767808790C83
:102C1400121C3D800C750801750900750A00750BBE
:102C24000074097808121C1E750C19F50DF50EF5C3
:102C34000F7808790C121B958E828F83A3A3A3A30C
:102C4400A3A3E0F8A3E0F97AD07B03121D7C880CDF
:102C5400890DE4F50EF50F7808790C121C3D740605
:102C6400121E52E0F8A3E0F97AD07B03121D7CE82F
:102C7400FA8A0CE4F50D7808790C121AD650077804
:102C840008790C121C76900698E06408600AE064E7
:102C9400066005E06405702D750C0D780C7908123A
:102CA4001AD64021750CF4750DFF750EFF750FFFD4
:102CB4007808790C121C3D800C75080075090075A4
:102CC4000A00750B00851882851983E0F8A3E0F5E6
:102CD4008388827808121CE67408121E1D7F100275
:102CE4001F7674F7121ECA121815900835E0640195
:102CF4007010906245E4F0A3F053F4F343FE0C53D8
:102D040090F31217C1E5C654804449F5C6E59E54B4
:102D14007F644970F8906185740FF0900833E0F493
:102D24007002A3E0604E900834E0600814601B1445
:102D3400602E8040750801750900900833E078081A
:102D4400121DF4E508F45280802A75080175090003
:102D5400900833E07808121DF4E508F452908014CA
:102D6400750801750900900833E07808121DF4E530
:102D740008F452A079007F02021F7674F7121ECA6B
:102D8400E9FEEAFF74016E700C7A807B009006976E
:102D9400E0F91209CF9030ACE493F46008E493F9BD
:102DA400121611800953C680E59E547F70FA1217DB
:102DB400C7900835E064017003121629900833E0C7
:102DC400F47002A3E0604B900834E0600814601AC9
:102DD40014602C803D750801750900900833E07873
:102DE40008121DF4E5084280802875080175090061
:102DF400900833E07808121DF4E5084290801375BA
:102E04000801750900900833E07808121DF4E508FC
:102E140042A01218151217738A088B09A808A90969
:102E2400E8496015E5E170FCE82414F582E9340012
:102E3400F583E0F46003E0F5E174016F700A7A0150
:102E4400900697E0F9120A29022D7A74ED121ECA2F
:102E54008A088B098C0A8D0B7413121E52780C127B
:102E64001CD77808790C121AD67510017511C8751B
:102E7400120075130050127808790C121C76781021
:102E84007908121AD650168010780C7908121C761C
:102E94007810790C121AD640047901800279007FE7
:102EA4000C021F7674ED121ECA8A088B098C0A8DD7
:102EB4000B7413121E52780C121CD7780C7908125A
:102EC4001AD640117808790C121C76AA08AB09AC02
:102ED4000AAD0B8022751000751100751200751370
:102EE400017810790C121C7678107908121C3DAA0E
:102EF40010AB11AC12AD1380A68A828B837508FFC8
:102F04007509FF750AFF750B007808121CC47F044D
:102F1400021F7674F5121ECA8C828D837808121CE7
:102F2400D78A828B837808121C8AEA2404F8EB344B
:102F340000F98C828D83A3A3A3A3E0FCA3E0FD8806
:102F4400828983C3E09CF0A3E09DF088828983C3D7
:102F5400E09420A3E0944E40268A828B837508FF78
:102F64007509FF750AFF750BFF7808121C638A82C6
:102F74008B83A3A3A3A3E02420F0A3E0344EF002A8
:102F84002EFD74F5121ECAE9FE9007EDE0FAA3E0E7
:102F9400FBEEC333F8E433F9747528F5827482398F
:102FA400F583E02AF508A3E03BF5097808122071BF
:102FB4007A407B427C0F7D00122AD87402121E1DB7
:102FC4008A088B098C0A8D0B74107808121C05AAC8
:102FD40008AB097F04021F7674F1121ECA8A0C8B97
:102FE4000D8C0E8D0F740F121E52E0FAA3E0FB74C9
:102FF40011121E52E0F508A3E0F5097808122071B9
:10300400EA2401F508EB3400F509E4F50AF50B7838
:103014000C7908121B15750871750902780C79086A
:10302400121B15AA0CAB0DAC0EAD0F122AD87402EC
:10303400121E1D8B09EA450960047A0180027A0098
:10304400EC2AFCED3400FD7413121E52E0F8A3E0E8
:10305400F9E8FEE9FFECF8EDF97A717B02121D7CC8
:10306400880889098E828F837808121CE6ECF8EDB3
:10307400F97A717B02121D7C8A088B097405780821
:10308400121DF48E828F83A3A3A3A3E508F0A3E506
:1030940009F07F08021F76C082C083E9906000F0C7
:1030A400D083D08222020135FFFFFFFFFFFFFFFF25
:1030B40074EE121E5E74FA121E078A0A8B0B8909BB
:1030C400ECFEEDFF750800850A0C850B0D780C12DB
:1030D40020B50004108D33FD301E313D315E317F4B
:1030E40031A031D331F4310B323932F7321833385D
:1030F4003362338D338D3364327401650970158EF8
:10310400828F83E0C39403500B8E828F83E0900DF3
:1031140087F080037508180233B6740265097013CA
:103124008E828F83E0F8A3E0F9900D88E8F0A3E99C
:10313400F080037508180233B67401650970158EA2
:10314400828F83E0C39402500B8E828F83E09003BE
:1031540058F080037508180233B6740165097015B8
:103164008E828F83E0C39405500B8E828F83E09010
:103174000359F080037508180233B67401650970A9
:10318400158E828F83E0C39402500B8E828F83E06E
:1031940090035AF080037508180233B67410650959
:1031A4007027750C10750D00780C122071EEFCEF71
:1031B400FD7A5B7B0312097B7402121E1D8A0C8B41
:1031C4000D850C82850D8380037508180233B6744F
:1031D40001650970158E828F83E0C39402500B8EB3
:1031E400828F83E090036BF080037508180233B676
:1031F40074016509700B8E828F83E0900D8BF080D3
:10320400037508180233B674046509702290842A81
:10321400780C121CD78E828F83780C121AE6500F0A
:103224008E828F83121CF590036D121D018003752D
:1032340008180233B6E50970211211C1E97013129E
:103244000C2DE9F50C7950120F0FE9F50D120C1B3A
:10325400800B9004007401F080037508180233B6E3
:103264007407650960030232F1750E06750F007864
:103274000E1220718E828F83A3AC82AD83740212EE
:103284001E52AA82AB831209817402121E1D8A1077
:103294008B1185100E85110F7C007D0085188285A9
:1032A4001983AA82AB838E828F83E0F9120BC1E962
:1032B400F50CE50CC3940A502F1211C1E97015A93D
:1032C4000C120C33E9F50D7950120F0FE9F50E12BB
:1032D4000C1B801C750D007401250CF582740435DB
:1032E4000DF5837401F080087508028003750818D1
:1032F4000233B67401650970158E828F83E0C3941E
:1033040002500B8E828F83E090036CF0800375086B
:10331400180233B67401650970158E828F83E0C379
:10332400940A500B8E828F83E0900D8AF08003758F
:103334000818807E74016509701F8E828F83E0C334
:10334400940740158E828F83E0C39411500B8E82B4
:103354008F83E0900D8CF0805975081880547401A7
:10336400650970209003FFE0F50C8E828F83E09056
:1033740003FFF0E50C703B9003FFE064017033122F
:103384000C1B802E7508188029C3E50A9427E50BC9
:103394009400501B7402650970158E828F83E0FCC3
:1033A400A3E0FDAA0AAB0B12105FE9F508800375D0
:1033B4000802A9087406121E1D7F0A021F3074EC4D
:1033C400121E5E74DA121E07890D8A128B138C0A80
:1033D4008D0B743A121E52E0F50C9083E2C082C049
:1033E40083851882851983AC82AD83D083D082749F
:1033F40006121D1A851882851983AC82AD83AA1220
:10340400AB13A90D120BC1E9FEEEC3940A400302EB
:103414003561EEF9120BFDE9FF900D87E06402704F
:1034240004740180027400F5087808122075AD0C4C
:10343400EFFCEEF9AA0AAB0B120C6F7401121E1DFD
:103444007C147D0079007412121E52AA82AB83127E
:1034540009938A0E8B0F850E08850F097412121EAC
:1034640052AC82AD837A1075F006EEA42424F912CE
:103474000F09E970437C1079FF7412121E52AA825C
:10348400AB831209F3E970307422121E52AC82AD80
:10349400837A0475F006EEA42425F9120F09E9F5E0
:1034A400087412121E52AC82AD83EFA2E0E433F929
:1034B400AA0AAB0B1210E9E97406121E52AC82ADD3
:1034C400837A0C74702EF9120F09E9707E74061257
:1034D4001E52AA82AB83120BF1750E00E50EC39443
:1034E400045068E50EA80E7900E875F003A4C8AA94
:1034F400F075F000A42AFA75F003E9A42AF9740619
:10350400121E52E58228F508E58339F509850882FB
:10351400850983E0F8A3E0F9E849602B85088285F2
:103524000983A3A3E0F510751100781012207185AA
:103534000882850983E0FCA3E0FDAA0AAB0B121301
:103544004D7402121E1DE9050E8091EFA2E1500D8B
:10355400900357E0F9AA0AAB0B121353E9740465FC
:103564000C700F900D87E064027007AA0AAB0B126F
:103574000C6979007426121E1D7F0C021F3074F230
:10358400121E5E890BEAFEEBFF8C088D09750A0A90
:10359400E50B600C14600914604414606402362660
:1035A400EEFAEFFB120C0FE9F50AE50AC3940A5090
:1035B40071E5084509606B750C06750D00780C12F1
:1035C4002071EEFCEFFDAA08AB0912097B7402120C
:1035D4001E1D8A0C8B0D850C82850D838044EEFAAA
:1035E400EFFB120C09E9F50AE50AC3940A5033E526
:1035F400084509602DAA08AB09A90A120C03E98041
:1036040021EEFAEFFB120C15E9F50AE50AC3940A58
:103614005010E5084509600AAA08AB09A90A120C6A
:1036240003E9A90A7F06021F3074F2121E5E8A0C97
:103634008B0DE9FE7F1574FF650C700474FF650D36
:10364400702A750800E508C3940A5014EEFC7A0247
:103654007B00A908120BDFE960027F00050880E502
:10366400EE60637A577B0C121551805AAA0CAB0D8D
:103674001215338A0A8B0B850A08850B09E5084560
:103684000960417C007D00E5082405FAE509340061
:10369400FB850882850983A3A3A3A3E0F9120BC1C8
:1036A400E9F50AE50AC3940A500EEEFC7A027B009F
:1036B400A90A120BDFE97F00EE600BAA08AB09121E
:1036C4000C5780027F14EFF97F06021F3074EE124C
:1036D4001E5E8A0E8B0F8C0A8D0B7412121E52E022
:1036E400F50CA3E0F50D75081574FF650E700474F0
:1036F400FF650F701E7E00EEC3940A5062AC0CADE1
:103704000DAA0AAB0BEEF9120BE5E960037508008C
:103714000E80E4AA0EAB0F1215338A108B11AE1073
:10372400AF11EE4F60367C007D00EE2405FAEF34D5
:1037340000FB8E828F83A3A3A3A3E0F9120BC1E93C
:10374400F509E509C3940A5016AC0CAD0DAA0AABF1
:103754000BA909120BE5E97508008003750814A983
:10376400087F0A021F3074F7121E5EEAFEEBFF9018
:103774000371EEF0A3EFF0900357E0FC7D007A268E
:103784007B0012105FE9F508900357E0F91212C9A3
:103794007F01021F3074F2121E5E74EC121E078A3F
:1037A4000A8B0B850A82850B83A3A3E024FA70039A
:1037B400023BF924FD7003023A6F14700302388C43
:1037C40014601024FD7003023A17147003023AAF18
:1037D400023C67AE0AAF0B900371E0F8A3E0F9E88E
:1037E400496069900371E0F8A3E0F5838882E0F80A
:1037F400A3E0F9E8496055EE240CF582EF3400F5B6
:1038040083E0F5087808122075EE240BF582EF3476
:1038140000F583E0F98E828F83A3A3A3A3A3A3A3BC
:10382400A3A3E0FCA3E0FDEE2403FAEF3400FB9035
:103834000371E0F8A3E0F5838882E0F8A3E0F58360
:103844008882121E5C7401121E1D80398E828F8341
:10385400A3A3A3A3A3A3A3A3A312208890036D12DD
:103864001CF51210FB7402121E1DE9601879018EFA
:10387400828F83A3A3A3A3A3A3A3A3A3E0FAA3E098
:10388400FB1210F5E9023C67AE0AAF0B8E828F8300
:10389400A3E060030239C58E828F83A3A3A3A3A3ED
:1038A400E0A2E040030239C590040BE0F8A3E0F97C
:1038B400E84960030239C57C0E7D007900851882D1
:1038C400851983AA82AB831209938A088B09AA08F3
:1038D400AB09EE240CF582EF3400F583E0F8A3E0A5
:1038E400F9E849603B7508067509007808122071EB
:1038F400EE240CF582EF3400F583E02410FCA3E001
:103904003400FD7402121E52AA82AB8312097B7426
:1039140002121E1D8A088B0985088285098380543A
:103924008E828F83A3A3A3E0FAA3E0FB1215338A4C
:103934000C8B0D850C08850D09E508450960327569
:103944000C06750D00780C122071E5082405FCE5C1
:10395400093400FD7402121E52AA82AB8312097B41
:103964007402121E1D8A0C8B0D850C82850D8380BA
:1039740003023C678E828F83A3A3A3A3A3E0A2E2E6
:103984005004D2F08002C2F0A2F0E433F87900745B
:103994000C121E52E048F0A3E049F0EEFCEFFD8566
:1039A4001882851983AA82AB83120BF7E970127A05
:1039B400027B00900357E0F91209CFE97900023C39
:1039C40069900371E0F8A3E0F9E84960439003715A
:1039D400E0F8A3E0F5838882A3A3E0F8A3E0F9E884
:1039E40049602D8E828F83A3E0FC79018E828F83C0
:1039F400A3A3A3E0FAA3E0FB900371E0F8A3E0F52E
:103A0400838882A3A3E0F8A3E0F5838882121E5C76
:103A1400023C67AE0AAF0B900371E0F8A3E0F9E84B
:103A2400496045900371E0F8A3E0F5838882A3A37D
:103A3400E0F8A3E0F9E849602F850A82850B83A3A7
:103A4400E0FC79028E828F83A3A3A3E0FAA3E0FBB8
:103A5400900371E0F8A3E0F5838882A3A3E0F8A3C0
:103A6400E0F5838882121E5C023C67AE0AAF0B7CD1
:103A7400007D00EE2404FAEF3400FB8E828F83A3D2
:103A8400A3A3E0F9120BC1E9F508E508C3940A50B1
:103A940017EE240AFCEF3400FD7A0475F006E508FD
:103AA400A42425F9120F03E9023C67AE0AAF0B9078
:103AB400036CE06018900D8AE0F98E828F83A3A3D3
:103AC400A3E0FAA3E0FB1210F5E9023C67900D872E
:103AD400E0701579058E828F83A3A3A3E0FAA3E097
:103AE400FB1210F5E9023C678E828F83A3A3A3E047
:103AF400FAA3E0FB1215338A0C8B0D850C08850D97
:103B0400098E828F83A3A3A3A3A3A3A3E0A2E0505F
:103B140075E5084509606C850882850983A3A3A31C
:103B2400A3E060628E828F83A3A3A3A3A3A3A3A312
:103B3400A3E0F8A3E0F9E8C4540FF879005401F8BD
:103B4400E95400F9E8A2E0403D740E121E52AC8222
:103B5400AD83E5082405FAE5093400FB8508828570
:103B64000983A3A3A3A3E0F9120BC1E97018790395
:103B74008E828F83A3A3A3E0FAA3E0FB1210F5E9DE
:103B8400023C67023C67EE2405FCEF3400FD850827
:103B940082850983A3A3A3A3E0F98E828F83A3A3C1
:103BA400A3E0FAA3E0FB120C63900371E0F8A3E036
:103BB400F9E849603E900371E0F8A3E0F583888258
:103BC400A3A3E0F8A3E0F9E84960287C0079008E1B
:103BD400828F83A3A3A3E0FAA3E0FB900371E0F830
:103BE400A3E0F5838882A3A3E0F8A3E0F5838882A9
:103BF400121E5C806E1211C1E97068900400E064CA
:103C040001701A120C2DE9FE9004007400F07C0A75
:103C14007D0079007A017B04120993803C7E00EEDA
:103C2400C3940A50348E0875090074012508F5827E
:103C340074043509F583E06401701BEEF9120C334A
:103C4400E9F88E0875090074012508F582740435B5
:103C540009F5837400F00E80C67950120F0FE9FE47
:103C6400120C1B79017414121E1D7F06021F30747E
:103C7400F3121E5E74F2121E078909EAFEEBFF8C32
:103C84000C851882851983AC82AD837A0E75F00693
:103C9400E509A42420F9120F09E970727C0679FF62
:103CA400851882851983AA82AB831209F3E9705EB1
:103CB400740C121E52E0F8A3E0F9E8F508E50C6074
:103CC40005EE42088004EEF4520885080A750B00DC
:103CD400740C121E52E0650A7004A3E0650B602A9E
:103CE400E508A8087900740C121E52E508F0A3E94F
:103CF400F0851882851983AC82AD837A0E75F0063F
:103D0400E509A42420F9120F03E97901800279005E
:103D1400740E121E1D7F05021F3074F0121E5E7495
:103D2400E6121E07890B8A0C8B0DECFEEDFF740C5A
:103D3400121E52AC82AD837A0E75F006E50BA424F4
:103D440020F9120F09E96003023E827C0679FF74B0
:103D54000C121E52AA82AB831209F3E96003023EDD
:103D640082851882851983AC82AD837A0C747025A0
:103D74000BF9120F09E96003023E7E750A008518EB
:103D840082851983AA82AB83120BF1E50C450D7071
:103D94003A7C0C7900851882851983AA82AB831238
:103DA40009F3E96003023E587C0C7D007900851814
:103DB40082851983AA82AB831209938A088B0985A9
:103DC4000882850983750A01023E5885188285197F
:103DD40083AC82AD83AA0CAB0D120BEB8A0E8B0F56
:103DE400850E08850F09E50845097036EE4F6021F8
:103DF400851882851983AC82AD837A007B00120B0F
:103E0400EB8A0E8B0FA80EA90F88088909E8497060
:103E1400047900806B850882850983E50CF0A3E5AD
:103E24000DF0850882850983A3A3E0F87900EE6884
:103E34007002EF69601EEE850882850983A3A3F0F2
:103E4400EE4F700D8508828509837400F0A3740019
:103E5400F0750A01E50A6022851882851983AA8211
:103E6400AB83120BF1851882851983AC82AD837AFA
:103E74000C7470250BF9120F03E9790180027900A3
:103E8400741A121E1D7F08021F3074F7121E5EEA98
:103E9400FEEBFF7B00EBC39404504EEBF87900E893
:103EA40075F003A4C8AAF075F000A42AFA75F0030B
:103EB400E9A42AF9EC28F582ED39F583E06E700364
:103EC400A3E06F7021EBF87900E875F003A4C8AAA9
:103ED400F075F000A42AFA75F003E9A42AF9EC2895
:103EE400FAED39FB80070B80AC7A007B007F01027E
:103EF4001F3074F7121E5E7F00EFC3940440030268
:103F04003FA5EFF87900E875F003A4C8ACF075F0AC
:103F140000A42CFC75F003E9A42CF9EA28F582EB43
:103F240039F583E0F4FCA3E0F4FDEFF87900E875DB
:103F3400F003A4C8AEF075F000A42EFE75F003E9FA
:103F4400A42EF9EA28F582EB39F583ECF0A3EDF021
:103F5400EFF87900E875F003A4C8ACF075F000A49C
:103F64002CFC75F003E9A42CF9EA28F582EB39F569
:103F740083A3A3E0F4C0E0EFF87900E875F003A4AC
:103F8400C8ACF075F000A42CFC75F003E9A42CF97E
:103F9400EA28F582EB39F583A3A3D0E0F00F023EC3
:103FA400FD7F01021F3074F0121E5E74F4121E07AE
:103FB400EAFEEBFF8C088D0990040BE0F8A3E0F90E
:103FC400E849702CEE4F6006E50845097005790153
:103FD400024262EEFAEFFB120C0FE9900D8DF090A5
:103FE4000D8DE0C3940A4008120C21E9900D8DF068
:103FF400900D8DE0C3940A400302426090040BE0EC
:10400400F8A3E0F9E84960030240ACEEFCEFFD7A66
:104014000E75F006900D8DE0A42420F9120F03E92B
:10402400F50C7C0C7D0079FF851882851983AA82A2
:10403400AB831209938A0E8B0F850E0A850F0B85AD
:104044001882851983AC82AD837A0C900D8DE0249F
:1040540070F9120F03E9F50D750E0E750F00780E49
:10406400122071EEFCEFFD900D8DE0F87900E875FB
:10407400F00EA4C8AAF075F000A42AFA75F00EE9AF
:10408400A42AF9747328FA740339FB12097B7402A5
:10409400121E1D8A0E8B0FA80EA90F90040BE508A3
:1040A400F0A3E509F002425C90040BE0F8A3E0C839
:1040B4002406F582E83400F583E0F8A3E0F9E84942
:1040C400604390040BE0F8A3E0C82406F582E834CA
:1040D40000F583E0FCA3E0FD7A1B75F006900D8DDE
:1040E400E0A42421F9120F03E9F890040BE0F9A3EA
:1040F400E0C92406F582E93400F5837400F0A37462
:1041040000F002425C90040BE0F8A3E0C8240AF536
:1041140082E83400F583E0F8A3E0F9E849604390CD
:10412400040BE0F8A3E0C8240AF582E83400F58320
:10413400E0FCA3E0FD7A1B75F006900D8DE0A4244D
:1041440022F9120F03E9F890040BE0F9A3E0C92463
:104154000AF582E93400F5837400F0A37400F002D8
:10416400425C90040BE0F8A3E0C8240CF582E83428
:1041740000F583E0F8A3E0F9E849604390040BE01C
:10418400F8A3E0C8240CF582E83400F583E0FCA32E
:10419400E0FD7A1075F006900D8DE0A42423F91249
:1041A4000F03E9F890040BE0F9A3E0C9240CF582AD
:1041B400E93400F5837400F0A37400F002425C90CB
:1041C400040BE0F8A3E0C82408F582E83400F58382
:1041D400E0F8A3E0F9E849606F90040BE0F8A3E08D
:1041E400C82408F582E83400F583E0FCA3E0FD7AF6
:1041F4001075F006900D8DE0A42424F9120F03E944
:10420400F50A90040BE0F8A3E0C82408F582E8342A
:1042140000F583E02410FCA3E03400FD7A0475F07B
:1042240006900D8DE0A42425F9120F03E9F89004FB
:104234000BE0F9A3E0C92408F582E93400F583749E
:1042440000F0A37400F080109003FFE06003120CF0
:1042540075120C5D79018006790080027901740C75
:10426400121E1D7F08021F3074F7121E5E74F212B4
:104274001E07E9FE851882851983AC82AD837A0E08
:1042840075F006A42420F9120F09E9700E740C12BB
:104294001E52E0F8A3E0F9E8F980027900740E12E6
:1042A4001E1D7F01021F3074F4121E5E74F2121E72
:1042B400078909EAFEEBFFE509C3940A5004EE4FAF
:1042C40070047902804B851882851983AC82AD8392
:1042D4007A0E75F006E509A42420F9120F09E9F510
:1042E40008E508702A750A06750B00780A12207111
:1042F4007402121E52AC82AD83EEFAEFFB12097BFC
:104304007402121E1D8A0A8B0B850A82850B83A9EF
:1043140008740E121E1D7F04021F3074F4121E5EF8
:10432400EAFEEBFF750800E508C3940A5045750AD8
:1043340006750B00780A122071EEFCEFFDE508A863
:10434400087900E875F00EA4C8AAF075F000A42A54
:10435400FA75F00EE9A42AF9747928FA740339FB82
:1043640012098D7402121E1DE96004A90880060555
:104374000880B4790A7F04021F3074F4121E5EEAC6
:10438400FEEBFF750800E508C3940A5045750A065C
:10439400750B00780A122071EEFCEFFDE508A80801
:1043A4007900E875F00EA4C8AAF075F000A42AFA02
:1043B40075F00EE9A42AF9747328FA740339FB1210
:1043C400098D7402121E1DE96004A90880060508FF
:1043D40080B4790A7F04021F3074F7121E5E74F0F1
:1043E400121E07EAFEEBFF750800E508C3940A50A5
:1043F4004B851882851983AC82AD837A1075F006DB
:10440400E508A42423F9120F09E9702C7C1079FF24
:10441400851882851983AA82AB831209F3E970187F
:10442400EEFCEFFD851882851983AA82AB831210F6
:10443400CBE97004A9088006050880AE790A7410D7
:10444400121E1D7F01021F3074F4121E5E750800D7
:10445400E508C3940A400302452EE508A80879003C
:10446400E875F00EA4C8AAF075F000A42AFA75F055
:104474000EE9A42AF9747328FC740339FD7A0E75C5
:10448400F006E508A42420F9120F09E97003024597
:10449400297C067D0079FFE508AA087B00EA75F00F
:1044A4000EA4CAA8F075F000A428F875F00EEBA4C9
:1044B40028FB74732AFA74033BFB1209938A0A8B50
:1044C4000BAE0AAF0B7C067D0079FFE508AA087BDA
:1044D40000EA75F00EA4CAA8F075F000A428F875D7
:1044E400F00EEBA428FB74792AFA74033BFB12093F
:1044F400938A0A8B0BAC0AAD0BE508A8087900E88F
:1045040075F00EA4C8AAF075F000A42AFA75F00E8E
:10451400E9A42AF9747F28F582740339F5837400B9
:10452400F0A37400F005080244549003FFE0600314
:10453400120C75120C5D7F04021F3074F7121E5E9C
:104544007E00EEC3940A50327C0679FFEEFA7B00BB
:10455400EA75F00EA4CAA8F075F000A428F875F066
:104564000EEBA428FB74732AFA74033BFB1209F3C1
:10457400E96004EEF980050E80C8790A7F01021F04
:104584003074F7121E5E7E007F00EFC3940A502F32
:104594007C0679FFEFFA7B00EA75F00EA4CAA8F056
:1045A40075F000A428F875F00EEBA428FB74732AA8
:1045B400FA74033BFB1209F3E970010E0F80CBEE92
:1045C400F97F01021F3074F7121E5E7E007F00EF38
:1045D400C3940A500DEE700AEFF9120C33E9FE0F82
:1045E40080EDEEF97F01021F3074F0121E5E74CB71
:1045F400121E078909900D8DE06509701D7A017BF3
:1046040000900357E0F91209D5E97A027B00900380
:1046140057E0F91209D5E9120C817427121E52AC25
:1046240082AD837A0E75F006E509A42420F9120FF1
:1046340009E960030247597C0679FF7427121E5268
:10464400AA82AB831209F3E960030247597C0E7D09
:104654000079FF7427121E52AA82AB831209938A2F
:104664000A8B0B850A0C850B0D7C1B7D0079FF746E
:104674000C121E52AA82AB831209938A0E8B0F85E9
:104684000E0A850F0B7C0C7D0079FF851882851935
:1046940083AA82AB831209938A0E8B0FAE0EAF0FDF
:1046A4007427121E52AC82AD837A0E75F006E509AA
:1046B400A42420F9120F03E9F508740C121E52AC5D
:1046C40082AD837A1B75F006E509A42421F9120F43
:1046D40003E94208740C121E52AC82AD837A1B7536
:1046E400F006E509A42422F9120F03E94208740C28
:1046F400121E52AC82AD837A1075F006E509A4242B
:1047040023F9120F03E94208740C121E52AC82AD55
:10471400837A1075F006E509A42424F9120F03E93D
:104724004208740C121E52AC82AD837A0475F006F2
:10473400E509A42425F9120F03E9420885188285A6
:104744001983AC82AD837A0C74702509F9120F03B6
:10475400E942088003750800A9087435121E1D7FFC
:1047640008021F3074F7121E5EE9FE900357F01220
:104774000C1B7F01021F3074F2121E5E890AEAFECE
:10478400EBFFEE5400F8EF5480F9E84960359003EC
:1047940057E0F91209B78A0C8B0DA80CA90D8808EB
:1047A4008909E8496012AA08AB09120C45E96008B6
:1047B400AA08AB091209A5E9EE6400FAEF6480FBCC
:1047C40002487FEE5402602D7C007D007A007B005D
:1047D400120BF7E960187A017B00900357E0F91295
:1047E40009CFE9EE6402FAEF6400FB02487F7A0223
:1047F4007B0002487FEEA2E0507D90040BE0F8A31A
:10480400E0F5838882A3A3A3E0FAA3E0FB120C7B68
:10481400E9605E900371E0F8A3E0F9E8496045902F
:104824000371E0F8A3E0F5838882A3A3E0F8A3E092
:10483400F9E849602F7C00790190040BE0F8A3E0CB
:10484400F5838882A3A3A3E0FAA3E0FB900371E0BD
:10485400F8A3E0F5838882A3A3E0F8A3E0F58388B6
:1048640082121E5C120C81EE6401FAEF6400FB807C
:104874000A7A017B0080047A007B007F06021F30E5
:1048840074F7121E5EEAFEEBFF7508018E828F83B9
:10489400E02450601314601924E1701CEEFAEFFB5D
:1048A400120BD9E9F5088010EEFAEFFB120C4B80DD
:1048B40007EEFAEFFB120C51A9087F01021F3074B6
:1048C400F7121E5EEAFEEBFF8E828F83A3A3A3A3DF
:1048D400E0641E701179008E828F83A3A3E0FAA393
:1048E400E0FB120BC7E97F01021F3074F6121E5E53
:1048F400EAFEEBFF8E828F83A3A3A3A3E0703A8E1C
:10490400088F09850882850983A3A3A3A3A3A3A36E
:10491400122088850882850983A3A3A3A3A3E0FCAE
:10492400A3E0FD850882850983A3A3E0FAA3E0FB45
:10493400120BCD7402121E1DE97F02021F3074F7A0
:10494400121E5EEAFEEBFF900357E0F98E828F831E
:10495400A3E0FAA3E0FB121353E97F01021F30C066
:1049640082C08374FF121E07120C27E9C39402400D
:104974000B8518828519837402F080098518828555
:104984001983740AF0851882851983AC82AD837A01
:104994000179051211D9E97401121E1DD083D08248
:1049A40002013574F2121E5E74E8121E07EAFEEB71
:1049B400FF890A8C088D097C187D0079008518828E
:1049C400851983AA82AB831209938A0C8B0DAC0CD4
:1049D400AD0D851882851983EEF0A3EFF09003598D
:1049E400E0C0E07402121E52D0E0F090035AE0C01E
:1049F400E07403121E52D0E0F0900D8CE0C0E0741D
:104A040017121E52D0E0F07415121E52E054FEF834
:104A1400A3E054FFF9900D8BE0A2E0E433FA7B00AD
:104A2400E84AF8E94BF97415121E52E8F0A3E9F0CC
:104A3400900D8BE0A2E15004D2F08002C2F0741514
:104A4400121E52E054FDFAA3E054FFFBA2F0E4333B
:104A5400F87900C333F8E933F9EA48F8EB49F97413
:104A640015121E52E8F0A3E9F0900D8BE0A2E3507A
:104A740004D2F08002C2F07415121E52E054F7FA08
:104A8400A3E054FFFBA2F0E433F50C750D007403AE
:104A9400780C121DF4EA450CF8EB450DF974151267
:104AA4001E52E8F0A3E9F0900D8BE0A2E45004D28A
:104AB400F08002C2F07415121E52E054EFFAA3E023
:104AC40054FFFBA2F0E433F50C750D007404780C6C
:104AD400121DF4EA450CF8EB450DF97415121E523B
:104AE400E8F0A3E9F0900D8BE0A2E55004D2F08049
:104AF40002C2F07415121E52E054DFFAA3E054FF10
:104B0400FBA2F0E433F50C750D007405780C121D4E
:104B1400F4EA450CF8EB450DF97415121E52E8F051
:104B2400A3E9F0900D8BE0A2E25004D2F08002C21F
:104B3400F07415121E52E054FBFAA3E054FFFBA2DA
:104B4400F0E433F50C750D007402780C121DF4EAD0
:104B5400450CF8EB450DF97415121E52E8F0A3E963
:104B6400F090035AE0602A750C10750D00780C1251
:104B740020717C5B7D037406121E52AA82AB8312E1
:104B8400097B7402121E1D8A0C8B0D850C82850D07
:104B94008390036BE06012E50A600E7415121E52D6
:104BA400E04402F0A3E04400F090036BE060067878
:104BB4000179008004780079007414121E52E048D0
:104BC400F0900358E0600678047900800478007956
:104BD400007414121E52E048F0AC08AD0985188226
:104BE400851983AA82AB831210EFE97418121E1D73
:104BF4007F06021F3074F7121E5EEAFEEBFF750893
:104C04000090036BE06006780179008004780079F5
:104C140000E84208900358E06006780479008004B4
:104C240078007900E84208A908EEFAEFFB1211A90E
:104C3400E97F01021F3074EE121E5E74E5121E0736
:104C44008A0C8B0DE9FF8C088D09742D121E52E01D
:104C5400F50A74086509700A75F006EFA42422FEAB
:104C6400800875F006EFA42421FE7C1B7D007900EA
:104C7400851882851983AA82AB831209938A108BC3
:104C84001185100E85110F851882851983AC82ADAC
:104C9400837A1BEEF9120F09E9703C741A121E5242
:104CA400E0C394074031741A121E52E0C3941150A9
:104CB40026E50AF50B780B1220757401121E52AC0E
:104CC40082AD83E508A2E0E433F9AA0CAB0D12111E
:104CD400017401121E1DE9741B121E1D7F0A021F9E
:104CE4003074F7121E5E1213CBE97E00EEC3940AF1
:104CF40050557C0679FFEEFA7B00EA75F00EA4CAE3
:104D0400A8F075F000A428F875F00EEBA428FB7445
:104D1400732AFA74033BFB1209F3E97027EEF8795E
:104D240000E875F00EA4C8AAF075F000A42AFA757C
:104D3400F00EE9A42AF9747328FA740339FB790094
:104D44001213D1E90E80A57F01021F3074F6121EE2
:104D54005E74FD121E07EAFEEBFF90040DE0F8A35B
:104D6400E0F9E849703975080F75090478081220CC
:104D74007175080275090078081220717508B675F6
:104D8400098478081220717CFF7DFF7A017B001270
:104D9400121B7406121E1D90040DEAF0A3EBF09092
:104DA400040DE0F8A3E0F9E8497003024E71E4F55C
:104DB40008F50978081220717404121E52858208BD
:104DC40085830978081220717404121E52858208A2
:104DD400858309780812207190040F1220887902C3
:104DE40090040DE0FCA3E0FDEEFAEFFB1213417416
:104DF40008121E1DE9704A851882851983E0FA7B22
:104E0400007401121E52E0F87900E4C8F9EA28F5AA
:104E140008EB39F509E50845096026780812207180
:104E240090040DE0F8A3E0F5838882A3A3A3A3E094
:104E3400FCA3E0FDEEFAEFFB120BCD7402121E1D73
:104E4400E9E4F508F509780812207190040F12209E
:104E5400887CFF7DFF90040DE0FAA3E0FB1212278B
:104E64007404121E1D90040DEAF0A3EBF090040DDF
:104E7400E0F8A3E0F9E8497004790180027900744C
:104E840003121E1D7F02021F30C082C08390040BD8
:104E9400E0F8A3E0F9E849601790040BE0FAA3E016
:104EA400FB1209A5E9F890040B7400F0A37400F058
:104EB400900D8D740AF0D083D082020135C082C077
:104EC40083E9901197F002515074F7121E5EE99035
:104ED40005D7F07C0F7D067AFF7BFF1213599005EE
:104EE400D874FFF0A3F0A3E4F0A3F079051212E163
:104EF4009005D7E0F91212037A777B131215217FFC
:104F040001021F3074F4121E5E8A088B09EB548070
:104F140060309005D7E0F91209B78A0A8B0BAE0A04
:104F2400AF0BEE4F60138E828F83E064B070031278
:104F340012F9EEFAEFFB1209A5AA08E5096480FB51
:104F440080047A007B0002511F74F2121E5E74FC0E
:104F5400121E07EAFEEBFFEE4F60387402121E5277
:104F6400EEF0A3EF125384ECF0A3ED125384AA8263
:104F7400AB831211FDE9F50870737412121E5212FC
:104F84005F38E50A450B60658E828F83124FFBEE16
:104F94004F700575080280557A067B00120A118A43
:104FA4000C8B0DA80CA90DE8497005750813803DFC
:104FB40088828983E4125005A3A3EEF0A3EF126361
:104FC400D1E50AF0A3E50BF09005DD12508D9005B4
:104FD400DD6017E0FCA3E08003EAFCEBFD8C828D2E
:104FE4008312508D70F38C828D83125E5DA90874D8
:104FF40004121E1D0265D3A3A3A3A3E0FEA3E0FF36
:1050040022F0A3F0888289832274F2121E5E890A38
:10501400E975F017A4FEAFF09005DCE4F09005DA32
:1050240012508D600A120A179005DAE4F0A3F0EE2C
:10503400FAEFFB120A118A088B09EA4509602FEE80
:10504400FCEFFD79001209939005DAE508F0A3E579
:1050540009F07B008008125077E4F0A3F00BEBC357
:10506400950A40F2E50A9005DCF079008002791394
:105074000265D3EB75F017A4F8A9F09005DAE028DF
:10508400FAA3E0398A82F58322125BF3EA4B227495
:10509400F4121E5E750800750900740C121E52127B
:1050A40063A5FEE9FF800CE5082401F508E5093451
:1050B40000F509C3E5089CE5099D503285080A8579
:1050C400090B7403780A121DF4EA250AF8EB350B70
:1050D400F988828983A3A3A3A3A3A3125F38EE65EF
:1050E4000A7003EF650B70BFE8FAE9FB80047A00ED
:1050F4007B00802774F4121E5E7900EAA2E0501B44
:105104007508F475098378081220717C047D007A8F
:10511400997B111212DB7402121E1D7F04021F30D0
:10512400C082C0839005DD125157601C8882898338
:10513400A3A3E06A7003A3E06B8882898370E8A369
:10514400A3A3A3125BEF80047A007B00D083D082F8
:105154000201351266A6E8492274EE121E5E74FC42
:10516400121E07EAFEEBFF851882851983E4F0A37B
:10517400F0EE2402125E41EE2405125372EE240472
:10518400F50EEF125757E024FE603924FC604624E4
:10519400FE605224FE605E24FE700302527724FEF9
:1051A40070030252EF24FE70030252FE24FE7003C9
:1051B40002530D24FC700302531C24FE700302539B
:1051C4002B0253689005F67417F0A3E412538C1263
:1051D4000F7B025368851882851983AC82AD8312D4
:1051E40012FF025338851882851983AC82AD83126D
:1051F4001305025338850C08850D097402121E52DA
:10520400AC82AD83850882850983125BEF1212217B
:105214008A0C8B0DAC0CAD0DEC4D6042E4F50CF535
:105224000D780C122071750CF6750D05780C122092
:1052340071750CF7750D05780C1220717408121E27
:10524400521220887916125BE91213417408121E57
:105254001DE9F50C700B125BE5120F93800F750CB2
:105264000185088285098312537A125E5D850C08D4
:1052740002533B7402121E52AC82AD83850C8285AC
:105284000D83125BEF1212218A108B11AC10AD1139
:10529400EC4D6043850C82850D83A3A31220887591
:1052A40010F675110578101220717510F775110537
:1052B40078101220717408121E5212208879161266
:1052C4005BE91213417408121E1DE9F509700B12F3
:1052D4005BE5120F99800F750901850C82850D839A
:1052E40012537A125E5D850908804C8518828519EF
:1052F40083AC82AD8312130B803A8518828519839F
:10530400AC82AD83121311802B851882851983AC6E
:1053140082AD83121317801C851882851983AC8291
:10532400AD8312131D800D851882851983AC82AD5F
:1053340083121323E9F508E50860298E828F83A37D
:10534400E06414601F850E82850F83E09005F612D9
:1053540053841266A29005F7125E5DE508A312530A
:105364008C120F75EEFAEFFB12129F025D49F50CD9
:10537400EF3400F50D221266A68518828519832262
:10538400F085188285198322F07CF67D05850A82D2
:10539400850B83125BF32274EE121E5E74FC121EE4
:1053A400078A0A8B0B8C0E8D0FEA2405F508EB3463
:1053B40000F5097C157D0079007AF67B05120993C6
:1053C400E5082402F50CE509125375851882851940
:1053D4008385821085831178101220718508828557
:1053E4000983A3A3A3A312589F122071E5082405DF
:1053F400F510E5093400F5117810122071850C823E
:10540400850D83125BF912121B7406121E1D8A107D
:105414008B11AE10AF11E50A2402F50AE50B125EFA
:1054240044EE4F700302556180177402121E52122B
:105434005BEF88828983EAF0A3EBF09005F6E00441
:10544400F09005F6E0C394054003025561E4F510BD
:10545400F51178101220717510DF7511057810128E
:1054640020717510E0751105781012207174061200
:105474001E521220887910EEFCEFFD125BE9121324
:10548400417408121E1DE9705E850882850983A394
:10549400A3A3A3A3A3A3E0F89005DFE068704812D8
:1054A400589F1220717CE07D05E5082408FAE5097F
:1054B4003400FB12098D7402121E1DE960298E82CC
:1054C4008F83A3A3A3A3125BEF9005F6E0F51074FA
:1054D400027810121DF474F72510F5827405351145
:1054E400F583EAF0A3EBF07402121E528582108554
:1054F400831178101220717402121E5212208885B2
:105504000C82850D831266B71212277404121E1DB5
:105514008A108B11AE10AF119005F6E0F5107511DD
:105524000074027810121DF474F62510F874053511
:1055340011F988828983A312508D7003025425E8DF
:105544002403F8E93400F9EE4F600302542E8882F4
:10555400898374FFF0A3F09005F6E004F09005F65B
:10556400E0600A125BE5120F877900800B850882E0
:10557400850983125E54790A025D4974EA121E5E3B
:1055840074FE121E078C128D13EA2405F50CEB121F
:105594006821124FFF750800750900EA2402F5100E
:1055A400EB3400F51185188285198385820A858379
:1055B4000B780A122071850C82850D83A3A3A3A303
:1055C400125761122071E50C2405F50AE50D125EEF
:1055D40044780A122071850C82850D831266B512F7
:1055E400121B7406121E1D8A0A8B0BEA450B7003EC
:1055F400025712EA2404F50EEB125757124FFF8A92
:10560400828B83A3A3A3E0F9851082851183125BA7
:10561400EF121209E9F5096003025712E4F514F5D3
:105624001578141220717514DF751505781412207D
:10563400717514E075150578141220717406121E24
:10564400521220887913AC0AAD0B85108285118320
:10565400125BEF1213417408121E1DE9F509600371
:105664000257129005DFE0F8E5087009E024029083
:1056740005F7F080179005F7E0FCE82402FAE4341B
:1056840000FBEA6C7001EB6003025716850882AADE
:1056940082125896941412588E5073850E82850F78
:1056A40083E0C0E074F82A12574ED0E0F005088574
:1056B4000E82850F83A3E0C0E085080A74F8250AEA
:1056C40012574ED0E0F005089005DF125761122002
:1056D400717CE07D0585080A74F8250AFA7405349E
:1056E40000FB12097B7402121E1D9005DFE02508E1
:1056F400F50874FF6E700374FF6F6012EE24010EE0
:10570400EF3400FFE508C3941450030255A9E508DB
:105714006013125ADA851082851183125BEF120F1F
:105724008D79008014E509700375090A8512828554
:105734001383EEF0A3EFF0A9097402121E1D7F0E6D
:10574400021F3085080C74F8250CF58274053400AA
:10575400F583223400F50F850E82F583221263E46B
:105764002274EE121E5E74FE121E078C0E8D0FEA5A
:105774002405F50CEB125375750B009005F6E4F057
:10578400F50AEA2402F508EB3400F509804990058E
:10579400F6E0FA9005DFE0F8125896941712588E46
:1057A400400D9005F6E0F87416C3989005DFF012EA
:1057B400589F1220717CE07D0574F72AFA74053431
:1057C40000FB12097B7402121E1D9005DFE0F890A5
:1057D40005F6E028F0050AE50C2416F582E50D121D
:1057E4005752E0F8E50AC39840030258779005F64B
:1057F400E0C39416507DE50AC333F8E433F9E50CAD
:1058040028FEE50D39FF851882851983AC82AD83A6
:105814008E828F83125BEF1212218A108B11AC10CF
:10582400AD11EC4D7005750B018043E4F510F511D5
:1058340078101220717510DF75110578101220711F
:105844007510E075110578101220717406121E523D
:105854001220887916850882850983125BEF12135A
:10586400417408121E1DE9F50B7003025792125E73
:105874005080107CF67D05850882850983125BEFD4
:10588400120F9FA90B7402025D4BE99400C365D00B
:105894003322EA28F8E43400F9E822E0F51075111F
:1058A4000078102274EA121E5E74FC121E078A0C21
:1058B4008B0D8C128D13EA2405F50AEB125E4475E8
:1058C4000800750900E50A2402F510E50B3400F51B
:1058D400117402121E5285820E85830F780E1220D7
:1058E40071850A82850B83A3A3A3A312639012205C
:1058F40071E50A2405F50EE50B3400F50F780E1258
:105904002071851082851183125E4A125BE912129E
:105914001B7406121E1D8A0E8B0FAE0EAF0FE50C04
:105924002402F50EE50D3400F50F8040888289834A
:1059340074FFF0050812574774FFF005089005DF5F
:10594400E0F50C750D00780C1220717CE07D058566
:10595400080C74F8250CFA74053400FB12097B74E6
:1059640002121E1D9005DFE02508F508EE4F607158
:105974008E828F83A3A3A3E0F9850E82850F831201
:105984005BEF121209E9F509EE2404125372E9706F
:1059940044E4F514F51578141220717514DF7515A7
:1059A4000578141220717514E07515057814122009
:1059B400717408121E521220887911EEFCEFFD85D5
:1059C4000E82850F83125BEF1213417408121E1DA1
:1059D400E9F5096027850C82850D83125AD0125E81
:1059E4005DE5087003025AB6125ADA850E82850FF5
:1059F40083125BEF120FA57900025ACB850882AAA5
:105A040082EA9005DF7009E024049005F7F0802213
:105A1400E0F89005F7E0F514E82404FCE43400FD14
:105A2400EC65147001ED70C0125896941212588EE1
:105A340050B6850C82850D83E0C0E074F82A1257B5
:105A44004ED0E0F00508850C82850D83A3E0C0E00C
:105A5400125747D0E0125AEC85820C85830D780CDE
:105A64001220717404121E5212208885108285112E
:105A7400831266B71212277404121E1D8A0C8B0D32
:105A8400AE0CAF0D85080C74F8250CF874053400C1
:105A9400F9EE4F7003025930851882851983E08826
:105AA400828983125AECA3E0C0E0125747D0E00287
:105AB400593EE509700375090A850A82850B83122C
:105AC4005AD0125E5DA909740402573F1266A68576
:105AD4001282851383229005F7E0F5F0E50884909F
:105AE40005F6F07CF67D0522F005088518828519F7
:105AF400832274EC121E5E74FE121E078A088B0940
:105B04008C0E8D0FEA2405FEEB3400FF8518828588
:105B14001983AC82AD838E828F83125BEF121221C4
:105B24008A0A8B0BEE2418125372EA450B70030297
